:100000000C94EF040C9427050C9427050C942705F9
:100010000C9427050C9427050C9427050C942705B0
:100020000C9427050C9427050C94DE2B0C94B12C12
:100030000C9460250C9427050C9427050C94270537
:100040000C9427050C9427050C9427050C94270580
:100050000C9427050C94E7250C9427050C94270590
:100060000C9427050C9427050C9427050C94270560
:100070000C9427050C9427050C9427050C94270550
:100080000C9427050C9427050C9427050C94270540
:100090000C9427050C9427050C9427050C94270530
:1000A0000C9427050C9427050C942705556E646560
:1000B000660033726400326E640031737400307411
:1000C00068004C4159455200001F001E00210020CD
:1000D000002300220025002400040005000600077C
:1000E000001400150016001700080009000A000B94
:1000F0000018001900000000000C000D000E000F99
:1001000000000000000000000010001100120013A9
:100110000000000000000000001A001B001C00008E
:1001200000000000000000000004000500060007B9
:10013000001400150016001700080009000A000B43
:100140000018001900000000000C000D000E000F48
:100150000000000000000000001000110012001359
:100160000000000000000000001A001B001C00003E
:100170000000000000000000000400050006000769
:10018000001400150016001700080009000A000BF3
:100190000018001900000000000C000D000E000FF8
:1001A0000000000000000000001000110012001309
:1001B0000000000000000000001A001B001C0000EE
:1001C0000000000000000000000400050006000719
:1001D000001400150016001700080009000A000BA3
:1001E0000018001900000000000C000D000E000FA8
:1001F00000000000000000000010001100120013B9
:100200000000000000000000001A001B001C00009D
:1002100000000000000000000000AE00AF00DA02A5
:1002200081FFD9F1DB20A4A62EAF00A0C0D300002F
:10023000A1C8D30000AED580A81F408D14200007B0
:10024000087F0807003E5B4F5B3E003E6B4F6B3EF6
:10025000001C3E7C3E1C00183C7E3C18001C577D58
:10026000571C001C5E7F5E1C0000183C180000FF3D
:10027000E7C3E7FF00001824180000FFE7DBE7FFF3
:100280000030483A060E00262979292600407F05CD
:10029000050700407F05253F005A3CE73C5A007F98
:1002A0003E1C1C0800081C1C3E7F0014227F2214E8
:1002B000005F5F005F5F0006097F017F00006689C5
:1002C000956A0060606060600094A2FFA2940008DC
:1002D000047E04080010207E20100008082A1C0854
:1002E00000081C2A0808001E10101010000C1E0C1C
:1002F0001E0C0030383E383000060E3E0E06000060
:10030000000000000000005F000000000700070080
:1003100000147F147F1400242A7F2A12002313085C
:1003200064620036495620500000080703000000B0
:100330001C224100000041221C00002A1C7F1C2AB4
:100340000008083E08080000807030000008080817
:100350000808000000606000002010080402003E51
:100360005149453E0000427F4000007249494946DC
:10037000002141494D33001814127F1000274545D4
:100380004539003C4A4949310041211109070036ED
:100390004949493600464949291E00000014000019
:1003A000000040340000000008142241001414141E
:1003B0001414000041221408000201590906003EED
:1003C000415D594E007C1211127C007F494949362B
:1003D000003E41414122007F4141413E007F494969
:1003E0004941007F09090901003E41415173007FE5
:1003F0000808087F0000417F4100002040413F0184
:10040000007F08142241007F40404040007F021CD2
:10041000027F007F0408107F003E4141413E007F83
:1004200009090906003E4151215E007F091929464C
:100430000026494949320003017F0103003F404043
:10044000403F001F2040201F003F4038403F0063D6
:1004500014081463000304780403006159494D43F0
:1004600000007F414141000204081020000041418A
:10047000417F00040201020400404040404000006F
:1004800003070800002054547840007F2844443873
:1004900000384444442800384444287F00385454E9
:1004A00054180000087E09020018A4A49C78007F5C
:1004B000080404780000447D4000002040403D00D6
:1004C000007F102844000000417F4000007C047839
:1004D0000478007C0804047800384444443800FC64
:1004E000182424180018242418FC007C080404088C
:1004F0000048545454240004043F4424003C404029
:10050000207C001C2040201C003C4030403C00442B
:1005100028102844004C9090907C004464544C4433
:10052000000008364100000000770000000041365E
:100530000800000201020402003C2623263C0000C1
:100540000000000000404040F0F8F8FF38FFF8F8E5
:100550003FF8F8FF38FFF8F8F04040400000000096
:10056000000080C0C0C0800000C0C08000000080CB
:10057000C0C000C0C0000080C0C00000000000C0BB
:10058000C0C0C0C000C0C0000000000000000000EB
:10059000000000000000000000000000000000005B
:1005A000000000000000000000000000000000004B
:1005B0000000000000000000000000000000C0F08B
:1005C000F8FC3E1E06010000007F4141417F007F94
:1005D0004141417F000080C0E07E5B4F5BFEC00078
:1005E00000C000DCD7DEDEDED7DC00C0000000008B
:1005F00000000000000000000000000000000000FB
:100600000000000000494949FFFFFFFFE0DFBFBFD6
:1006100000BFBFDFE0FFFFFFFF49494900000000C6
:10062000001F3F6060E0BF1F007F7F071E381E076E
:100630007F7F007F7F0E1F3B716000000000007F06
:100640007F0C0C0C007E7E007F7E0303007F7E0308
:10065000037E7E03037F7E000F3E703C063C703EAF
:100660000F00327B49493F7E007F7E0303001E3F1F
:1006700069696F2600000000000000000000030F01
:100680001F3F3C7870600000007F4141417F007F48
:100690004141417F00307B7F7830202030787F3BA4
:1006A0000003000F7F0F0F0F7F0F000300000000FB
:1006B000000000000000000000000000000000003A
:1006C0000000000000010101070F0F7F0F7F0F0FD7
:1006D0007E0F0F7F0F7F0F0F070101010000000049
:1006E0000000000000000101000000000000000008
:1006F00000000000000000000000000000000000FA
:1007000000000000000000000000000000000000E9
:1007100000000000000000000000000000000000D9
:1007200000000000000000000000000000000000C9
:1007300000000000000000000000000000000000B9
:1007400000000000000000000000000000000000A9
:100750000000000000000000000000000000000099
:100760000000000000000000000000000000000089
:100770000000000000000000000000000000000079
:10078000000000000000002A2B28000000000000EC
:100790000000000000000000000029000000002C04
:1007A0001E3420212224342627252E362D373827A3
:1007B0001E1F202122232425263333362E37381FAF
:1007C0000405060708090A0B0C0D0E0F1011121371
:1007D0001415161718191A1B1C1D2F3130232D350F
:1007E0000405060708090A0B0C0D0E0F1011121351
:1007F0001415161718191A1B1C1D2F3130354C00F3
:1008000000000000000000000000000000000000E8
:1008100000000000000000000000000000000000D8
:100820000000007E0F00D4FFFFFFC7000000780C1F
:100830000367006200630032003400000012036BA3
:100840000075007300680069006D006100380000E9
:10085000000403090409025B00030100A0FA090473
:1008600000000103010100092111010001224400DF
:1008700007058103080001090401000203000000CC
:100880000921110100012222000705820320000135
:100890000705030320000109040200010300000012
:1008A00009211101000122B600070584032000017F
:1008B0001201000200000008383934320100010240
:1008C00000010660FF0961A1010962150026FF0011
:1008D0009520750881020963150026FF0095207593
:1008E000089102C005010902A10185020901A100C8
:1008F00005091901290815002501950875018102CE
:100900000501093009311581257F95027508810699
:1009100009381581257F950175088106050C0A386F
:10092000021581257F950175088106C0C005010962
:1009300080A101850319012AB700150126B700958A
:100940000175108100C0050C0901A1018504190180
:100950002AA002150126A002950175108100C0058C
:10096000010906A1018506050719E029E7150025FB
:10097000019508750181020507190029EF15002569
:100980000195F07501810205081901290595057584
:10099000019102950175039101C005010906A101AC
:1009A000050719E029E71500250195087501810261
:1009B0009501750881010507190029FF150026FF1B
:1009C00000950675088100050819012905150025FF
:1009D00001950575019102950175039101C01124DE
:1009E0001FBECFEFDAE0DEBFCDBF04B603FE18C0F6
:1009F00080910A0590910B05A0910C05B0910D0511
:100A00008730904BA740B04B59F410920A051092D2
:100A10000B0510920C0510920D05E0E0F8E3099526
:100A200011E0A0E0B1E0E2E6FFE502C005900D9222
:100A3000AC3BB107D9F725E0ACEBB1E001C01D92AA
:100A4000AA30B207E1F70E94B0160C94482F0C941C
:100A50000000E82FE295EF70F0E041A18F7021E0F7
:100A600030E0B90102C0660F771F8A95E2F7CB012B
:100A7000962F9095942391A392A1892B82A30895F8
:100A8000E82FE295EF70F0E041A18F7021E030E0B7
:100A9000B90102C0660F771F8A95E2F7CB01942F48
:100AA000982B91A392A18095892382A308950895FC
:100AB000CF93DF93C0E0D1E089910E94290581E0C6
:100AC000C430D807C9F7C4E0D1E089910E94290554
:100AD00081E0C930D807C9F7DF91CF910895A6E02A
:100AE000B0E0E5E7F5E00C94A02E8E010F5F1F4FFC
:100AF00085E0D8011D928A95E9F73801680124E064
:100B0000822E21E0922E312C202E1E8344244394E9
:100B1000512CF40181914F010E9440050E9447161B
:100B200090E0A92E91E0B92EF501E12CF12C219154
:100B3000A22FA295AF70A05EB0E08C9190E02F70D4
:100B400002C0959587952A95E2F780FD0AC0D601E7
:100B50008C9192010E2C01C0220F0A94EAF7822B8D
:100B60008C93BFEFEB1AFB0A84E0E816F104F9F668
:100B7000F40182910E94290560E0832D0E944916AC
:100B80003394AFEFCA1ADA0AB5E03B12C2CFCC24D5
:100B9000C3948CEFD82EDE0CF50181915F010E9489
:100BA00040050E9447165C2D0E2C01C0550F0A947B
:100BB000EAF7D80124E031E0F90141919F01E42FE7
:100BC000E295EF70E05EF0E0808190E04F7002C04F
:100BD000959587954A95E2F780FD03C08C91852B0A
:100BE0008C931196F1E029303F0731F7F50182919E
:100BF0000E94290560E08D2D0E9449168FEFE81AAA
:100C0000F80AA8E0EA16F10421F6822D9E810E94DE
:100C10005705E9EEF2E00B5F1F4FF12CD3018D91E8
:100C20003D019191891721F0DF018E93FF24F39408
:100C30000615170599F72F2D45E06EEE72E089EE47
:100C400092E00E9463160E9439168F2D2696E2E1EB
:100C50000C94BC2E803F09F188F4843901F140F4F2
:100C60008533F9F08633F9F0843339F583E208955A
:100C70008639D9F0873909F582E20895853FB9F0C0
:100C800030F4813FB1F0843FC1F484E00895863FA1
:100C900091F0873F91F487E0089580E0089580E225
:100CA000089584E2089585E2089581E2089585E03B
:100CB000089581E0089586E008958FE1089596E80B
:100CC00090937A00982F9072906890937B008F7128
:100CD00090910901892B80937C0080917A00806437
:100CE00080937A0080917A0086FDFCCF8091780015
:100CF0002091790090917A009F7790937A00922FBB
:100D000008950E942A060E945F060895A6E0B0E0BA
:100D1000ECE8F6E00C94AE2E082F162F853009F182
:100D200048F4813069F086E0033039F02696E4E03B
:100D30000C94CA2E85E00730C9F7898382E014C07D
:100D400087E089830A830E94C025BC018B839C8332
:100D50000D831E8349815A8181E0912F0E94EC0806
:100D6000E5CF84E0898383E08A830E94C025BC01AB
:100D70008B839C8381E08D831E8349815A81EDCFD3
:100D800083E0089560E088EC90E00E94371C60E00A
:100D900082EC90E00E94371C8091D9010E949A0851
:100DA0008230B1F048F481110FC060E08EEB90E02A
:100DB0000E94371C80E00895833071F060E08CEA77
:100DC00090E00E94251CF6CF60E08AEB90E0F0CF27
:100DD00060E086EB90E0ECCF60E082EB90E0E8CF63
:100DE000A6E0B0E0E6EFF6E00C94AE2E082F162F4A
:100DF0000E941E20811579F001110DC083E08983C6
:100E000084E08A830E94C025BC0149815A8181E027
:100E1000912F0E94EC0880E02696E4E00C94CA2E04
:100E2000CF93DF9380910A01811521F0219A2998AF
:100E300010920A018091BF019091C0010E94D825B3
:100E40000A9748F10E94C0259093C0018093BF018A
:100E500086EF0E948106EC0187EF0E948106925086
:100E60009E012A5B31402D383105C0F4873491054D
:100E7000ECF5C0E08A3B9F4F0CF4C5E08091BE01C9
:100E80008C1749F060E00E94860661E08C2F0E947A
:100E90008606C093BE01DF91CF91089589379105F1
:100EA0002CF588382FEF920744F3D250C8382FEF33
:100EB000D207BCF0C937D105DCF4AE01D7FF04C0BE
:100EC000442755274C1B5D0BBC0197FF04C06627C8
:100ED0007727681B790B641775072CF41C161D0601
:100EE0003CF0C7E0CBCF181619063CF6C1E0C6CFE0
:100EF000C3E0C4CF8430C8F46530B8F44830A8F4F7
:100F0000E62FF0E095E0899FE00DF11D112483E0CC
:100F1000EE0FFF1F8A95E1F7E40FF11DEE0FFF1FA3
:100F2000E752FF4F85919491089581E090E00895F4
:100F3000843088F461110FC0E82FF0E0EE0FFF1F3E
:100F400081E04827E40FF11DEE0FFF1FE753FF4F2D
:100F500085919491089581E090E0089581E008954D
:100F60000E94AE07089581E0089581E008950E94EF
:100F7000B507089508950E94BA070895A6E0B0E065
:100F8000E4ECF7E00C94AF2E49835A839E833091B2
:100F9000C60189819A8131111AC03E81311599F0BB
:100FA000211589F00E94D90D182F682F89819A8107
:100FB0000E94A70D69817A81812F0E94EF142696E5
:100FC000E3E00C94CB2E0E94C00D182FF3CF0E94AB
:100FD000D90D69817A81F1CFFC01262F40815181A1
:100FE00062817381848195810E94BE070895CF93A9
:100FF000DF93D82FC92F61E00E94EC076D2F7C2F63
:101000000E94B007DF91CF910895CF93DF93D82F3F
:10101000C92F60E00E94EC076D2F7C2F0E94BB0758
:10102000DF91CF91089508950E94950C0E941308B6
:101030002FEF84E39CE0215080409040E1F700C016
:10104000000008950E9414080E940B2608950E9433
:1010500014080E942F2608950F931F93CF93DF93B8
:101060008C0161E00E94EC07EC01B8010E94971925
:10107000811509F442C0B801CE010E94B70781155D
:10108000E1F1B801CE010E9422238115B1F1B8012E
:10109000CE010E94A21D811581F1B801CE010E94EE
:1010A0009122811551F1B801CE010E94642381156E
:1010B00021F1F8018581811581F0CA35FCE7DF0750
:1010C00039F178F4C130ECE7DE07F9F0C330FCE722
:1010D000DF07C9F0C115DC4771F0C8010E94B307F2
:1010E0000DC0CB35ECE7DE07B1F0CC35DC47A9F716
:1010F0000E941512F2CF0E94220880E0DF91CF916A
:101100001F910F9108950E9426120E942708F5CF83
:101110000E941E12E2CF0E942212DFCF0E943D25C4
:101120000E94CA080E94581D08950E94CE080E947D
:1011300042250895982F92959F7024E0911102C046
:1011400020E0982F892F86958695811511F02E5FC6
:10115000982F892F8695820F0895089581E008952C
:101160000895CF93DF93D82F0E94AE08C82F811522
:1011700019F08D2F0E94B0088C2FDF91CF91089528
:101180000895CF93C82F0E94AD088C2F0E94B108FC
:10119000CF91089580E00E94C10808950E94A42381
:1011A0000E94C1080895CF930E94A423C82F809164
:1011B000C1018C1779F0C093C1010E94CC256093C6
:1011C000C2017093C3018093C4019093C5018C2F19
:1011D0000E94C108CF910895ADE0B0E0E2EFF8E0E1
:1011E0000C94B02E488759876A877B878C879D87A8
:1011F00091110E9449111F8286E0FE013896DE019E
:10120000119601900D928A95E1F78D8181110DC0A3
:1012100029813A814B815C816D817E818F810E9421
:101220007C102D96E2E00C94CC2ECE0101960E940B
:10123000F7078111EDCFF5CFFC018481813021F4D6
:10124000808191810E94020E0895611529F00E940B
:101250004F170E94101808950E949817FACFCF9345
:10126000C82F8115C9F08238C9F40E94B12381FDCD
:1012700013C089E30E94FE100E9484112FEF37EE05
:1012800083E0215030408040E1F700C0000089E356
:101290000E9406110E948411CF9108958338A1F411
:1012A0000E94B12380FDF8CF83E50E94FE100E94CA
:1012B00084119FEF21EE34E0915020403040E1F75F
:1012C00000C0000083E5E4CF8438A1F40E94B1237C
:1012D00082FDE2CF87E40E94FE100E9484118FEF0E
:1012E00091EE24E0815090402040E1F700C00000E2
:1012F00087E4CECF8CEF8C0F813A90F46C2F8091E5
:101300000B0190910C010E943E24811529F08C2F35
:101310000E9406110E9484118C2F0E94FE10BACFE9
:1013200080E28C0F883048F4C77081E001C0880FDC
:10133000CA95EAF70E942A11ADCF8BE58C0F833056
:1013400038F42C2F2452330BC9010E94DE23A4CF82
:10135000E8E5EC0FEB3150F4F0E0EE0FFF1FE85D35
:10136000FE4F808191810E94042496CF83E38C0FED
:10137000833108F091CF61E08C2F0E9425098CCF3A
:10138000811509F456C0823879F40E94B12381FF97
:1013900050C089E30E94FE100E94841189E30E94DC
:1013A00006110E9484110895833859F40E94B123D4
:1013B00080FF3FC083E50E94FE100E94841183E5F8
:1013C000EECF843859F40E94B12382FF32C087E403
:1013D0000E94FE100E94841187E4E1CF9CEF980FD9
:1013E000913AE8F290E2980F983050F4877091E0CB
:1013F00001C0990F8A95EAF7892F0E943011D1CF49
:101400009BE5980F933028F480E090E00E94DE2363
:10141000089598E5980F9B3128F480E090E00E94B1
:101420000424089593E3980F933118F460E00E9428
:10143000250908950F931F93CF93C82F8B010E9406
:101440002F090115110539F48C2F0E94C009CF9185
:101450001F910F9108958FE99FE00197F1F700C068
:10146000000001501109EDCF60E570E0893311F003
:1014700065E070E00E941A0A0895811521F00E942B
:101480002A110E9484110895811521F00E943011C3
:101490000E9484110895A0E0B0E0E1E5FAE00C9428
:1014A000AA2E6C01D62FC72FFC011581068102954B
:1014B0000F700E941F11E82E8115E9F0E12E111521
:1014C000D1F08C2F807F803451F080E28D0F8830F6
:1014D000E0F0011104C08C2F807E8032B1F0809149
:1014E000E80282FF12C082E00E94E8110E941F11F0
:1014F00091E0E82EE926EC2FE295EF70C03CB0F5C4
:10150000F0E0E65BF04D0C94932EE12CF4CF0C2F21
:101510000F70C03110F00295007F111599F0011580
:1015200059F080E28D0F883010F0D11107C0802F64
:101530000E942A110E9484118D2F51C0802F0E9479
:101540003B11F8CF8D2F0E94C009011579F080E280
:101550008D0F883010F0D11104C0802F0E943011FF
:1015600003C0802F0E9441110E948411E11489F070
:101570000E941B1180FD0DC0F60115820E941511FD
:101580000E94160DC6010E945C0C0E9415110E945B
:10159000220DCDB7DEB7E8E00C94C62EFC2FFF700D
:1015A000FF2EC07FC03219F0F29480EFF822D115DF
:1015B00041F0D130D1F1111509F444C00115F1F019
:1015C000BBCF8091E80282FD15C0111559F0F114CE
:1015D00029F08F2D0E942A110E94841180E00E9420
:1015E0002F09C4CF80E00E94C009F11409F4BECFD6
:1015F0008F2DB4CF111569F0011104C08F2D0E94F9
:101600003D0AB4CF013009F0B1CF8F2D0E94611196
:10161000ADCF0111ABCF8F2D0E94440A8F2D0E94B8
:101620006D118F2D0E945011A1CF111521F00630A0
:1016300008F09CCFE3CF053008F098CF8F2D0E94A3
:10164000440A94CF0115D1F3D93369F42FEF87EE13
:1016500093E0215080409040E1F700C000008D2FC2
:101660000E94C00983CFEFE1FEE43197F1F7F5CF97
:101670008C2F869586958370811569F0813009F0ED
:1016800075CF8D2F9C2F9370111102C080E090E0D8
:101690000E9404246BCF8D2F9C2F9370111102C0D8
:1016A00080E090E00E94DE2361CF612F8D2F0E94A9
:1016B00025095CCF8C2F8370811134C0111124C097
:1016C0004D2F429546954770440F440F8D2F8F70D4
:1016D000042E01C0880F0A94EAF72D2F2071D4FF41
:1016E00007C02FE030E001C0220F4A95EAF72095AD
:1016F000C695C695C370822BC23071F0C33079F0A5
:10170000C13039F00E94F20C0E94A4230E94C1084B
:101710002DCF0E94EC0CF8CF0E94F80CF5CF0E9460
:10172000E90CF2CF111539F1C0FFEECF4D2F4295E4
:1017300046954770440F440F8D2F8F70042E01C0C3
:10174000880F0A94EAF72D2F2071D4FF07C02FE0ED
:1017500030E001C0220F4A95EAF72095C695C6955C
:10176000C370822BC23069F0C33071F0C13031F0E8
:101770000E94440DC9CF823038F2D8CF0E943E0D6E
:10178000C3CF0E944A0DC0CF0E94040DBDCFCF70C1
:10179000111539F08C2F0E94160D8D2F0E943D0AD5
:1017A000B3CF8D2F0E94440A8C2F0E94220DACCF04
:1017B000D23F41F170F4D03FC9F0D13F91F0111503
:1017C00009F449C0011509F443C08D2F0E942F0967
:1017D0009BCFD33FF1F0D43F91F78091E80282FD97
:1017E00022C08C2F8F71111501F310C0111541F01B
:1017F000053008F089CF8C2F8F710E94320D84CF75
:101800000630F7CF8C2F8F711111CFCF0E94160D9C
:101810007BCF111529F08C2F8F710E940D0D74CF85
:101820000E94090D71CF111549F0CF718C2F0E94C4
:10183000160D63E08C2F0E94C91166CF81E00E94D3
:10184000E811023008F460CF82E00E94E8115CCF1A
:101850008C2F8F71DBCF0115A1F0D93369F4FFEF25
:1018600027EE83E0F15020408040E1F700C0000007
:101870008D2F0E94C00948CFEFE1FEE43197F1F7C8
:10188000F5CF8C2F8F7191CF0F931F93CF93DF9351
:10189000EC01688179818D810E940F0E8C010E947C
:1018A000500D0E94E80CB801CE010E944B0ADF9156
:1018B000CF911F910F910895CF93DF93EC018C810D
:1018C000811599F0CE010E942C08811111C00E944F
:1018D0001F11811551F08D81811539F08091E80239
:1018E00082FF03C082E00E94E811DF91CF9108954A
:1018F000CE010E94440CCE010E940508F6CF80E084
:1019000090E00E94DE2380E090E00E9404240E9488
:1019100049110E9484110E942D180E9410180895E8
:101920000E940E110E947F0C08950E9438110E949F
:10193000900C0895282F92959F70963099F060F43E
:10194000925F9F70923030F4203FB1F038F481E024
:10195000283E38F080E008959A5FF3CF81E0243F7D
:10196000C9F7089591E0813F09F090E081E0283EB9
:1019700008F080E0892B089581E00895FC018481BE
:10198000811539F0808191810E94020E0E949A0C8B
:10199000089580E00895A6E0B0E0E1EDFCE00C944D
:1019A000B02E2696E2E00C94CC2EA7E0B0E0EBED52
:1019B000FCE00C94B02E2796E2E00C94CC2E089517
:1019C0000E94DF0C08950E94E00C8093DA010895D4
:1019D00008950E94E30C08959091DA01892B0E94EA
:1019E000E30C08959091DA0189230E94E30C089595
:1019F0009091DA0189270E94E30C08950E94DF0C80
:101A000008950E94FE0C08950E94010D8093D90153
:101A1000089580E00E94040D089591E001C0990F9F
:101A20008A95EAF7892F0E94040D089521E030E09D
:101A300001C0220F8A95EAF78091D901822B0E947A
:101A4000040D089521E030E0A90102C0440F551FA4
:101A50008A95E2F7CA0180959091D90189230E9465
:101A6000040D089521E030E001C0220F8A95EAF7C5
:101A70008091D90182270E94040D08959091D90187
:101A8000892B0E94040D08959091D90189230E9409
:101A9000040D08959091D90189270E94040D08959D
:101AA00008959B01677091E001C0990F6A95EAF76C
:101AB00063E0369527956A95E1F7B901660F771FC0
:101AC000260F371FFA01E20FF31F40E050E0682FA6
:101AD00070E08191DF019B01042E02C036952795AD
:101AE0000A94E2F7217021952827292328272E938D
:101AF0004F5F5F4F4330510561F708959C01A82F58
:101B0000A77083E0369527958A95E1F7C901880F7C
:101B1000991F820F931FFB01E80FF91F40E050E06F
:101B200080E0219130E00A2E02C0369527950A9474
:101B3000E2F721703327042E01C0220F0A94EAF73E
:101B4000822B4F5F5F4F4330510559F70895282F7F
:101B5000862F953068F4283050F438E0939FB00118
:101B60001124620F711D4AEC51E00E94510D08953D
:101B70009C5F9230E0F7622F70E047EC51E0F5CFC8
:101B8000282F953068F4883090F438E0939FC00196
:101B900011246AEC71E0820F911D0E947E0D089560
:101BA0009C5F923020F467EC71E090E0F6CF80E02B
:101BB0000895A0E0B0E0EFEDFDE00C94AB2E7C01C9
:101BC0000091D9018091DA01082BC3E0D0E010E048
:101BD000C8010C2E02C0959587950A94E2F780FD06
:101BE00009C02197A8F7D12C8D2DCDB7DEB7E7E03E
:101BF0000C94C72EDC2EB7018C2F0E94081501977C
:101C000081F3F2CFCF93DF93D82FC92F0E94D90D44
:101C10006D2F7C2F0E940815DF91CF9108951F939F
:101C2000CF93DF93162FD72F9091C601911541F0D6
:101C3000862F972F0E94020EDF91CF911F9108955A
:101C4000811581F0862F972F0E94D90DC82F682FFC
:101C5000812F9D2F0E94A70D612F7D2F8C2F0E9419
:101C60000815EACF862F972F0E94C00DC82FF4CFFA
:101C7000E1E0F0E0DF0102C0AA0FBB1F6A95E2F7C6
:101C8000BD01DF0102C0AA0FBB1F4A95E2F76A2B14
:101C900001C0EE0F2A95EAF7962F9823961302C0FB
:101CA0008E2B0895E0958E230895242F462F682FBC
:101CB0008091D9010E94380E0E94040D08950F935F
:101CC0001F93CF93E091DB01C7E08091DC018E137D
:101CD00004C0CF911F910F9108950E2F10E0CE9F59
:101CE000F0011124E352FE4F208131814281538162
:101CF0006481758186810E94D50CF8013196E77068
:101D0000E4CF2091150230911602409117025091B4
:101D100018026091190270911A0280911B020E94B0
:101D2000D50C089580911B02803178F480911A02BD
:101D3000811559F0E091DB012091DC013091160210
:101D40004091150257E02E1301C008956E2F70E0E8
:101D50005E9FF0011124DF01A352BE4F14968C91B7
:101D60001497811561F111968C911197831327C0F7
:101D70008C91841324C015968C91159781111FC0E6
:101D800012968D919C91A0911702B09118028A1B16
:101D90009B0B883C910598F480911B028F708061A9
:101DA00080931B02ED51FE4F80818F708061808394
:101DB00085E192E00E945C0C0E945F0E0895FB0199
:101DC0003196E770C0CFE091DB019091DC0127E014
:101DD000E91302C080E00895AE2FB0E02E9FF0011D
:101DE0001124E352FE4F3181361306C0308138137F
:101DF00003C03581341304C0FD013196E770E8CF8C
:101E000081E008958F929F92AF92BF92DF92EF92FE
:101E1000FF920F931F93CF93DF93CDB7DEB72D972C
:101E20000FB6F894DEBF0FBECDBF8C0186E0F8017F
:101E3000DE01189601900D928A95E1F7F801F58080
:101E4000848195E1892E92E0992E90911902911149
:101E50001BC0811509F4FFC0F11409F440C1C80189
:101E60000E94BE0C811509F43AC187E0F801D40143
:101E700001900D928A95E1F7C4010E941C090E940D
:101E8000920E0E94810EE7C0E080A280B380D090C5
:101E90001A022091170230911802A501421B530B20
:101EA000D11409F4DBC0483C510508F0A6C08115E7
:101EB00009F4D1C090911602918080911B0280316B
:101EC00008F06BC0991228C0909115029E1124C091
:101ED000F1105DC08F70806180931B020E94810EA3
:101EE00085E192E00E945C0C80911B02F8018683E0
:101EF000F12C8F2D2D960FB6F894DEBF0FBECDBFFF
:101F0000DF91CF911F910F91FF90EF90DF90BF90E5
:101F1000AF909F908F900895F11039C040E0692DE7
:101F20008E2D0E94E30E40E0692D8E2D0E94E30E5F
:101F3000F82E8111DDCF888599850E94020E292F08
:101F400022952F70903450F49F70223080F09115BC
:101F500099F0F8019681903178F4CBCF2A5F2F70F9
:101F6000223078F0C8010E945C0CFD2CC2CF911584
:101F700019F0811509F4BDCF805E883008F4B9CF1F
:101F8000F1CF803F08F4B5CF815F8330F7CF8091E8
:101F90001B02816080931B02ABCF991207C0909106
:101FA00015029E1103C0F11409F479C0C8010E9402
:101FB000BE0C811509F493C0F11409F490C080910E
:101FC0001B02803288F020911502309116023A836C
:101FD0002983BC82AB82909119029D831E828F83DC
:101FE000CE0101960E945C0C87E0F801A5E1B2E009
:101FF00001900D928A95E1F742CF90911B029031AA
:10200000A0F4488559856A857B858C859D850E94CD
:10201000CB0C85E192E00E945C0C87E0F401119208
:102020008A95E9F70E94810E63CF8115A1F0209176
:10203000160281812813BACF809115028E11B6CF76
:10204000F110B4CF9683C8010E945C0C87E0F401C4
:1020500011928A95E9F7FF24F3944BCF483C510540
:1020600008F041C08115B9F3F114C9F1909116023D
:10207000818198132AC0809115028E1126C080910B
:102080001B0280FD19C08031B8F08683807F803FBD
:1020900039F08681982F907F905F8F70892B86838F
:1020A000C8010E945C0C87E0F801A5E1B2E0019054
:1020B0000D928A95E1F7E5CE87E0F801A5E1B2E05F
:1020C00001900D928A95E1F7C6CFC8010E94BE0C1F
:1020D00081118ACF80911B02816080931B02C8010D
:1020E0000E945C0CB8CF488559856A857B858C85B4
:1020F0009D850E94CB0C91CFAEE0B0E0E2E8F0E12C
:102100000C94AF2E288739874A875B876C877D8739
:102110008E87CE0108960E94020F6C858115A9F06A
:10212000611541F0288539854A855B857D858E85D9
:102130000E94D50C17E08091DB019091DC0189139E
:102140003AC02E96E3E00C94CB2E87E0FE01389641
:10215000DE01119601900D928A95E1F7611551F318
:10216000A091DC018A2F90E0019687709927209139
:10217000DB012817190689F097E09A9FD0011124F6
:10218000A352BE4FFE01319601900D929A95E1F750
:102190008093DC010E945F0ECDCF0E94950C1092BF
:1021A000DC011092DB0187E0E5E1F2E0DF011D9246
:1021B0008A95E9F7BFCF189FC001112483529E4F23
:1021C0000E94020F811509F4BCCFE091DB011E9F34
:1021D000F0011124E352FE4F20813181428153816D
:1021E0006481758186810E94D50C8091DB0190E02D
:1021F0000196877099278093DB019DCF682F80918E
:102200000B0190910C010E94C4240895682F8091C5
:102210000B0190910C010E94D224089580910B0132
:1022200090910C010E94E024089580913C028695D3
:1022300086958695089580913C02877008959091C7
:102240003C02977081E0911101C080E00895809177
:102250006002089590916002982B90936002089517
:10226000982F909580916002892380936002089551
:1022700010926002089590915F02982B90935F02F4
:102280000895982F909580915F02892380935F0233
:10229000089510925F02089508950E944C110895C8
:1022A00090913D02292F2823211531F08095892313
:1022B00080933D020E944D11089508950E945D1182
:1022C000089590913E02292F2823281729F0982B52
:1022D00090933E020E945E11089590913E02292F34
:1022E0002823211531F08095892380933E020E9496
:1022F0005E11089580913E02811529F010923E02F0
:1023000080E00E945E110895CF93DF93E0910B016E
:10231000F0910C01809160028083E0910B01F091BB
:102320000C01808190915F02892B808390913E0205
:10233000911581F0E0910B01F0910C018081892BC6
:10234000808380910B0190910C010E942A248111BD
:102350000E947A11C0910B01D0910C0140E250E033
:102360006CE172E0CE010E94E02E892B59F080E2F0
:10237000FE01ACE1B2E001900D928A95E1F7CE0149
:102380000E94B423DF91CF91089508950E94C51152
:102390000895962F2091E80222FF11C0682F660F42
:1023A000660F660F692B60933C020E94160D8091A8
:1023B0003C028695869586950E94C61108950E94D6
:1023C000160D089510923C0280E00E94C6110895F7
:1023D00090913C028095892380933C02282F27709E
:1023E00021110DC0891759F09091E80292FF07C0A2
:1023F0008695869586950E94220D0E94E211089589
:102400009091E80292FB222720F9281769F080FBBF
:1024100092F99093E8028091E7029091E8020E947D
:10242000481282E00E94E81108958091E802002499
:1024300082FF0394802D0E940012089581E00E9483
:102440000012089580E00E94001208956FEF7FEF60
:1024500080E090E00E94322F089580E090E00E949A
:10246000FE2E863E9E4F19F40E942E19089580E09C
:10247000089582E090E00E94F62E089583E090E0B7
:102480000E94F62E089584E090E00E94FE2E0895AA
:10249000BC0184E090E00E94322F0895AB01BC01A2
:1024A0008FE090E00E94262F0895AB01BC0183E1EC
:1024B00090E00E94262F089560E070E0CB010E941A
:1024C0005512089560E070E0CB010E944E120E9408
:1024D0005C120895A8E0B0E0E0E7F2E10C94B02EC1
:1024E00066EE7EEF80E090E00E94322F60E082E0B6
:1024F00090E00E94142F60E083E090E00E94142F8F
:102500001092DA0160E074E184E090E00E94322FE2
:1025100060E086E090E00E94142F6FEF87E090E08B
:102520000E94142F40E050E0BA0188E090E00E9441
:10253000262F60E084E290E00E94142F60E087E1A3
:1025400090E00E94142F60E08CE090E00E94142F35
:1025500060E08DE090E00E94142F19821A821B82A5
:102560001C821D821E821F82188648E050E068E1AE
:1025700070E0CE0101960E94042F40E050E0BA01C5
:1025800080E290E00E94262F80E00E9447190E947E
:1025900079190E9462122896E2E00C94CC2E0E94D7
:1025A0006A120895682F8EE090E00E94142F08951B
:1025B000A6E0B0E0EEEDF2E10C94AE2E0E94C02554
:1025C0008C0180916102909162028017910779F0ED
:1025D00019821A820E94C025BC0149815A8180E07B
:1025E00090E00E94EC08109362020093610226962C
:1025F000E4E00C94CA2E0E94CC2560937002709384
:102600007102809372029093730260936C027093D4
:102610006D0280936E0290936F0208950E94CC2504
:1026200060937002709371028093720290937302B0
:10263000609368027093690280936A0290936B02C0
:102640000895089508950E942113089508950E9401
:10265000261308958DEF95E10E94BD160E94221366
:102660000E942313089581E0089581E008950E9457
:102670003313089508950E943A130E941007089595
:102680000E9419160E94C00808950E94B7250E9452
:1026900089190E94481F0E944C160E94401380E036
:1026A0000E94FC1A0E947C200E942713089580E05B
:1026B0000E942C200895A6E0B0E0E1E6F3E10C943E
:1026C000A62E0E943513082F811111C00E94D81226
:1026D00000E00E9457130E94661F811509F45FC035
:1026E0000E940E130E94781D0E943D1C5CC00E9437
:1026F0006F0583E6A82E82E0B82E650110E0F60192
:10270000F1906F01812F0E943C161F5F153009F474
:1027100043C0F816A1F38091740281FD0E94421615
:102720000E943713982EF12C882483948F2D0E94B9
:102730003C16182FF50191915F01891731F1C82ED0
:10274000C926E12CDD24D3948C2D8D218115B1F087
:102750009114A1F0E982FA820E94C0259C838B83A8
:102760008D8291E0812F8D21811101C090E04981FE
:102770005A816B817C818D810E94EC08E394DD0C91
:10278000F8E0EF12E1CFF5011293F39485E0F8122F
:10279000CDCF0E94FB129DCFF812BDCF97CF0E94E4
:1027A000781D0111A1CF0E944E180E94D3082696D1
:1027B000ECE00C94C22E1F93CF93DF930E940D1573
:1027C000EC01811522E5920708F05DC0811540E516
:1027D000940708F0DBC0803E910528F58D3C9105FB
:1027E00008F0ACC0883A910578F4853A910508F074
:1027F000A2C08130910509F441C00497813A910546
:10280000E8F1C0E0D0E03AC0885A91094B97C8F788
:10281000C85AD0E0CC0FDD1FC25ADE4F0990D881D4
:10282000C02DD4642BC0811550E49507F8F4C11570
:1028300080E2D80708F0C0C0C83ED105F8F0CE014C
:102840009A9581159F41E8F68D2F0E94AE15182F9D
:10285000CE0199270E940D15212F30E0322F22271B
:10286000E901CC27DF71C82BD92B08C099270E941A
:102870000D15CC27DF70C82BD92BD06ACE01DF9184
:10288000CF911F910895803842E59407C8F58036AE
:1028900052E5950708F05BC0C03482E5D807D0F454
:1028A000C03292E5D90708F04BC08C2F86958695EB
:1028B00020E2829FC0011124C37021E030E0A90111
:1028C00002C0440F551FCA95E2F7EA01C82BD92B65
:1028D000DD68D4CF8C2F86958695877050E2859FD2
:1028E000C0011124C37021E030E0A90102C0440FEF
:1028F000551FCA95E2F7EA01C82BD92BDC68BECF79
:10290000803C52E5950758F48F71C03AD245A0F546
:1029100090E0982F8827EC01C46FD06AAFCF805C1D
:102920009245809708F06DCFDC2FCC27CC27DF7144
:10293000C06FD06AA3CFA497D064A0CFD0659ECF3C
:10294000CF71D0E0DC2FCC27C16FD06A97CF8695AE
:102950008695877020E2829FC0011124C37021E018
:1029600030E0A90102C0440F551FCA95E2F7EA0101
:10297000C82BD92BDA6882CF0E94AE15C82FD0E0C1
:10298000DC2FCC27CC27DF71D06278CF8F710E94EB
:10299000AE1553E0CC0FDD1F5A95E1F7CC27DF7061
:1029A000282F30E084FF04C050E1859F900111245E
:1029B000C22BD32BD06962CF8D2F8F710E94AE15A1
:1029C000182FCE0199270E940D15212F30E0322FAC
:1029D000222722273F71282B392BE901D5CF462FFB
:1029E000672F753028F4483080F40E94AD21089597
:1029F0007D3F39F4411109C041E060E00E94B921F6
:102A000008957C3F11F44115C1F380E090E00895F2
:102A10000E94EF140E94DB1308959C01803E9105F3
:102A200009F448C0D8F48133910509F47DC048F415
:102A30008932910509F46DC08A9709F47CC0C901F7
:102A400008958933910551F18238910539F1C5977F
:102A5000B1F78091E70285FFF2CF29C0843E91054E
:102A600009F447C048F4823E910599F1833E9105EF
:102A7000A9F121EE30E0E3CF863E910509F444C090
:102A8000873E9105E1F68091E70283FD61C0909158
:102A9000E80291FF2BC024EE30E0D1CF8091E70215
:102AA0008370811152C08091E80283FFC8CF29E270
:102AB00030E0C5CF8091E70280FD33C09091E802FD
:102AC00090FFBDCF23EE30E084FFB9CF20E030E0AF
:102AD000B6CF8091E70282FDF5CFB1CF8091E702BA
:102AE00082FD30C09091E80290FD2FC084FFA7CFF7
:102AF000EDCF8091E80281FFA2CF8091E70227EE1F
:102B000030E084FDE3CF9BCF8091E70283FDF7CFD8
:102B100096CF8091E70285FD1EC08091E80283FF79
:102B20008ECF29E330E08BCF8091E70286FF87CFFD
:102B30002AE230E084CF8091E70286FF80CF21E354
:102B400030E07DCF22EE30E07ACF20EE30E077CF5C
:102B500026EE30E074CF25E330E071CF9091E702AC
:102B600092FF10C041E0282F2471243009F040E08A
:102B700031E0282F2871283009F030E0431711F098
:102B80002CE0822793FF10C041E0282F24712431CC
:102B900009F040E031E0282F2871283109F030E0B9
:102BA000431711F02CE082273091E80230FF10C06B
:102BB00051E0282F2171213009F050E041E0282F09
:102BC0002871283009F040E0541711F029E08227DD
:102BD00031FF10C041E0282F2171213109F040E080
:102BE00031E0282F2871283109F030E0431711F027
:102BF00029E0822794FD877E089580E008950E9451
:102C0000261208950E946F058FE39CE90197F1F762
:102C100000C000000E946F0580E00E943C1680FF0B
:102C200004C00E94FF150E940B2608950E94021600
:102C300008950E942D12811102C00E94CF120E949D
:102C40003912809374020E9443129093E802809399
:102C5000E7020E9416160E943E120E94E90C809123
:102C6000D9010E94010D089508950E943416089517
:102C700008950E9438160895E82FF0E0E251FD4FC4
:102C800080810895089580EA8A95F1F7089500C03B
:102C900008950E94431608950E94580585E0E9EEC4
:102CA000F2E0DF01982F1D929A95E9F7EEEEF2E03F
:102CB000DF011D928A95E9F785E00E9462160E9465
:102CC000351608950895A0E0B0E0E9E6F6E10C9429
:102CD000AB2ED82EE92EF62E072FC42F211549F042
:102CE00081E0809377020E94C025909376028093C2
:102CF000750210917702111107C010E0812FCDB736
:102D0000DEB7E7E00C94C72E8091750290917602B1
:102D10000E94D825059788F3D0E0AE016D2D7E2D59
:102D20008F2D902F0E94E02E892B51F0AE016D2D3A
:102D30007E2D8F2D902F0E94ED2E10927702DECFE8
:102D400010E0FBCF0E94B9280E9445130E94C628BC
:102D500008950E94CB280E945B130E94E5280895E5
:102D60000E9459250E949F280E942A130E94A216A1
:102D70000E94A9160E943B13FBCF9093BD01809344
:102D8000BC010895282F35EB2303C001112497FFC0
:102D900004C080589109892F089580589F4FFBCF18
:102DA00080917E0280FF0DC06091120170E0660F7D
:102DB000771F60387105B0F561157105A9F1862F8F
:102DC000089581FF07C06091120184E0689FB001FF
:102DD0001124EFCF82FF04C06091120188E0F6CF8A
:102DE00090917D029115D9F02091110180911201ED
:102DF000682F70E0921730F043E0660F771F4A9516
:102E0000E1F7D7CF899FC001112433E0880F991FC4
:102E10003A95E1F7622F70E00E947F2ECACF68E0FA
:102E200070E0CDCF8FE7089581E0089580917E0214
:102E300080FF0CC060910E0170E0759567957595E7
:102E400067956115710549F1862F089581FF06C0C8
:102E500060910E0170E075956795F3CF60910E015A
:102E600082FD0BC090917C029115A1F060910D0143
:102E700080910E01961738F0682F70E06038710568
:102E800000F38FE70895899FC001112470E00E942C
:102E90007F2EF4CF61E070E0D7CF81E00895E3E3C7
:102EA000E80FE331E0F5F0E0EA5AF04D0C94932E90
:102EB0000E94D01681958093820208950E94D016B8
:102EC000FACF0E94D01681958093810208950E94C6
:102ED000D016FACF0E9416178093830208950E949D
:102EE00016178195F9CF0E94161781958093840259
:102EF00008950E941617FACF815D990B21E030E00A
:102F000001C0220F8A95EAF780918002822B80937C
:102F10008002089580917E02816080937E020895F0
:102F200080917E028260F9CF80917E028460F5CF2D
:102F3000409181028D3C59F48091820287FF0DC03F
:102F400010928202411559F410927D0208C08E3C05
:102F500081F48091820218169CF3411581F08091D2
:102F6000830290918402892B811159C010927C02B6
:102F700008958F3C41F447FFF0CF10928102809179
:102F800082028115E0CF803D19F41416B4F3E5CF29
:102F900090918302893D29F41916FCF61092830260
:102FA000DCCF8A3D19F497FFD8CFF8CF90918402F7
:102FB0008B3D29F497FFD1CF10928402CECF8C3D68
:102FC00019F41916CCF3C9CF9FE2980F983090F4FA
:102FD000815D990B21E030E0B90102C0660F771FD7
:102FE0008A95E2F7CB0180959091800289238093A6
:102FF0008002B3CF8D3D31F480917E028E7F80932D
:103000007E02ABCF8E3D21F480917E028D7FF7CF83
:103010008F3D09F0A2CF80917E028B7FF0CF089583
:103020000E94C0252091810230918202232B21151C
:1030300021F080937A0290937B0220918302309159
:103040008402232B211521F080937802909379023A
:103050008FE792E00E94CF23089586E0EFE7F2E049
:10306000DF011D928A95E9F710927D0210927C0291
:1030700010927E020895FC01828181110DC083812E
:1030800081110AC08481811107C081E0958191116D
:1030900001C080E08170089581E0FCCFA6E0B0E03F
:1030A000E4E5F8E10C94AA2E86E0EFE7F2E09E0159
:1030B0002F5F3F4FD90101900D928A95E1F7109251
:1030C00081021092820210928302109284028B81FC
:1030D0009C81892B7901811589F080917A029091E8
:1030E0007B020E94D8256C0180917D028115B9F187
:1030F000909113019C151D0408F43EC08D819E81A2
:10310000892B811591F080917802909179020E942B
:10311000D8258C0180917C02811509F45FC09091C3
:103120000F019017110608F467C0B7018FE792E00E
:103130000E94F224811105C08FE792E00E943B18A3
:1031400081110E94101886E0F701AFE7B2E001900C
:103150000D928A95E1F72696E8E00C94C62E209110
:1031600014019AE0299F900111242C153D0530F699
:103170008F5F80937D0202C08F3FD1F7DB80D11437
:1031800059F00E94D01691E01D140CF09FEF899F1A
:10319000802D112480938102DC80D11459F00E948B
:1031A000D01691E01D140CF09FEF899F802D112403
:1031B0008093820280918102811509F49FCFD09083
:1031C0008202D11409F49ACF0E94C2168093810220
:1031D0008D2D0E94C2168093820290CF2091100103
:1031E0009AE0299F900111242017310708F09DCF04
:1031F0008F5F80937C0202C08F3FD1F71D81111534
:1032000059F00E94161791E011160CF09FEF899F5C
:10321000802D1124809383021E81111559F00E9484
:10322000161791E011160CF09FEF899F802D112445
:103230008093840280918302811509F476CF1091E6
:103240008402111509F471CF0E94C2168093830283
:10325000812F0E94C2168093840267CF85E290E09E
:103260000E94F62E833289F486E290E00E94F62EC8
:10327000813059F487E290E00E94F62E91E0863189
:1032800009F090E0892F8170089580E0FCCFCF9302
:10329000C82F63E2811101C06FEF85E290E00E94C8
:1032A000142F61E0C11101C06FEF86E290E00E942F
:1032B000142F66E1C11101C06FEF87E290E00E9418
:1032C000142FCF910895089588E290E00E94F62E81
:1032D000682F70E080E090E008950895CF93C62FA6
:1032E0000E946D196C2F88E290E00E94142FCF91FC
:1032F000089580E00E94471960E070E0CB010E94D1
:103300006E190E9436210E940B2281E00E9447190B
:1033100008950E9463190E9464190E946D190E9409
:103320002E19811102C00E947919089508959C01F7
:10333000FB018581811551F0A9015757403851058E
:1033400030F4822F0E941B2280E0089581E00895CE
:103350002FEFFC01208308950E94A819089580E0B2
:103360000895CF92DF92FF920F931F93CF93DF9335
:10337000EC01F62E0E94AF19811110C0E881E150D6
:10338000E531E0F4F0E0E759F04D0C94932E19820A
:103390008CE08A836F2DCE010E949427DF91CF911C
:1033A0001F910F91FF90DF90CF9008958981833016
:1033B000F9F038F4813061F0823099F08FEF888332
:1033C000E9CF8430D9F71A821B821C821D82E2CF9A
:1033D0000E94CC250E94992E6A837B838C839D83D7
:1033E000D9CF0E9464191A821B821C826D83D2CFAE
:1033F0000A8110E06E0183E0C80ED11C0530110572
:103400004CF6802F0E943C16F60181936F010F5FEE
:103410001F4FF4CF8981823031F0853079F68A816F
:103420000E949619B7CF6A817B818C819D810E9411
:10343000992E0E946E19AECF4B816A8189810E94BC
:1034400099209827892798279D838C83A3CF2C8147
:103450003D813227232732274B816A8189810E944F
:10346000BB2098CF0E94362195CF6F2DCE010E94B0
:10347000AC1990CF0E94C32189838CCF0E94C521B3
:103480009827892798279A83898384CF6B8170E056
:1034900089819A81AE014C5F5F4F982789279827D1
:1034A0000E94C82177CF6B8170E089819A81AE013B
:1034B0004C5F5F4F9827892798270E94EA216ACF9F
:1034C0000E940B2267CF0E948720D6CF6B8170E0CD
:1034D00089819A81AE014C5F5F4F98278927982791
:1034E0000E946C2157CF6B8170E089819A81AE0177
:1034F0004C5F5F4F9827892798270E948D214ACFDC
:1035000041E08B81811101C040E06A8189810E9484
:10351000D72097CF2C813D8132272327322741E0C6
:103520008B81811101C040E06A8189810E940A215A
:1035300031CFAB0124E630E0BC0188E70E94DF26F2
:103540009C0181E0232B09F080E00895A0E0B0E029
:10355000ECEAFAE10C94AA2E6C017B0164E670E0BF
:1035600088E70E9440268C01E601EC0CFD1CCE157C
:10357000DF0561F40E94342781E00115110509F08F
:1035800080E0CDB7DEB7E8E00C94C62E17FDF2CF91
:10359000FE01849164E670E00E94AF268C012196C2
:1035A000E6CF0F931F93AC019B0104E610E060E4AB
:1035B00088E70E9407279C0181E0232B09F080E027
:1035C0001F910F9108950E943A2608950895E3EF00
:1035D000F2E080E092E0DF019C011D92215030403A
:1035E000E1F7F093F804E093F7048FEF9FEF9093E7
:1035F000B1028093B0020895CF930E94E61A0E9410
:10360000C00690E280FF90E88093AC029093AB02FA
:103610000E94E31A6BE070E084E392E00E94A61A35
:10362000811104C0C0E08C2FCF9108958091AC022D
:1036300065E070E081FD29C08FE292E00E94A61A49
:10364000811581F36DE070E08DE192E00E94A61A91
:10365000C82F811539F30E94CC25DC01CB01805A9B
:103660009541AF4FBF4F8093F3049093F404A09320
:10367000F504B093F6040E94E71A81E08093AF024C
:103680008093AE021092AD02CECF8AE292E0D6CF06
:103690002091AB0236E0839FC0011124269F800D4C
:1036A000911D1124811522E0920714F080E090E032
:1036B0008D509D4F9093F8048093F70408952091C6
:1036C000F7043091F8042D5E32404091AB02642F34
:1036D00070E0C9010E946B2E481B463010F4240F85
:1036E000311D211582E0380710F020E030E02D5028
:1036F0003D4F3093F8042093F7040895CF93DF9360
:10370000982FC62F81E09A3019F09D3031F480E077
:103710000E94F51BDF91CF9108952091F70430911D
:10372000F80486E0F901A5E8B2E001900D928A95CF
:10373000E1F7903EB8F086E0F90111928A95E9F739
:10374000C1111CC0C091F704D091F80446E050E0CC
:10375000BE0185E892E00E94E02E892BE9F40E94E8
:103760005F1BD8CFF6E09F9FB0011124615C7D4FB5
:1037700046E050E0C9010E94D72EE2CFE091F70465
:10378000F091F8049F012A5F3F4F2E173F07D1F2B7
:10379000808180958193F9CFC35FD240CE0125E02F
:1037A000969587952A95E1F721E030E0A90102C0BE
:1037B000440F551F8A95E2F7CA014091B00250911B
:1037C000B102842B952B259645E0D695C7954A9551
:1037D000E1F702C0220F331FCA95E2F7822B932B29
:1037E0009093B1028093B002BACFCF93382FE0917B
:1037F000F704F091F804E35FF2402091AB02622FEE
:1038000070E0CF010E946B2E281B822F311569F0CA
:1038100066E00E945F2EC82FC15010F4CF9108952A
:1038200060E080E20E947E1BF7CF8E0F9F2F911DDC
:10383000811522E0920710F080E090E08D509D4FBE
:103840009093F8048093F704E9CF1F93CF93DF930D
:10385000EC01162FFE018491811104C0DF91CF91FC
:103860001F910895612F0E947E1B2196F3CF0E9425
:10387000251C81E00E94F51B0895CF93C091AF02F3
:10388000C11105C0C091AE028C2FCF9108950E9446
:10389000CC25DC01CB01805A9541AF4FBF4F8093BF
:1038A000F3049093F404A093F504B093F60480918C
:1038B000AE028111E9CF62E070E08BE192E00E94FC
:1038C000A61A8115F9F281E08093AE02DDCF2F9226
:1038D0003F925F926F927F928F929F92AF92BF9230
:1038E000CF92DF92EF92FF920F931F93CF93DF93CC
:1038F0008091B0029091B102892B09F4B6C08091F9
:10390000AF02811509F4B1C08091AD028111ADC043
:103910000E943D1C2091B0023091B1022115310569
:1039200009F4A3C010E041E050E0812F90E01A01BB
:10393000012E02C0220C331C0A94E2F7B10162236B
:103940007323672B11F41F5FF0CF2091AC0220FF8F
:103950009EC0912F990F990F990F37E0390F80E092
:1039600023E09093170180931A013093180120935C
:103970001B0167E070E085E191E00E94991A8115D2
:1039800009F473C020E2129FC00111242091AC02FF
:1039900020FF89C0EBE8F2E020E2DF011D922A95CA
:1039A000E9F7A8E9B1E004E911E02CE9C22E21E031
:1039B000D22E37E0532E772473942D91E80149914C
:1039C0008E01480F592F511D4D505D4FE22FF0E0F1
:1039D000E557FD4F20E030E0652C621A872C022E5F
:1039E00001C0880C0A94EAF77A01A12CE701B9908A
:1039F0007E01B820662D6A19677070E0DB2D062EF7
:103A000001C0DD0F0A94EAF79D2E71956195710949
:103A10006770772701C0B6946A95EAF79B286081A2
:103A2000962A9082A39468E0A612E0CF2F5F3F4FC2
:103A300031962830310581F6CA16DB0609F0BDCF74
:103A400060E270E08BE892E00E94D11A811569F083
:103A5000E101C095D0958091B0029091B1028C2384
:103A60009D239093B1028093B002DF91CF911F917B
:103A70000F91FF90EF90DF90CF90BF90AF909F900D
:103A80008F907F906F905F903F902F9008959695C4
:103A9000879596958795282F912F9295990F9076D7
:103AA0003FE1390F5ECF60E270E08D509D4FCCCF8B
:103AB000CF93C091AF028091AE02C11106C091E0D8
:103AC000C82FC9278C2FCF9108958115D9F362E0B3
:103AD00070E089E192E00E94A61A811103C0C091B2
:103AE000AE02F0CF1092AE02EDCF0E94C206089552
:103AF0000F931F938091AF02811509F160E080E080
:103B00000E94481B0E94751D0E94671C8091AE0296
:103B10008115A9F00E94CC250091F3041091F404C2
:103B20002091F5043091F604601B710B820B930B0E
:103B30006F3F7F4F8F4F9F4710F40E94581D1F917A
:103B40000F910895CF93DF93EC01FB0185818115DF
:103B500009F4CFC09E0130572332310508F0AFC0C1
:103B60000E9443129093E8028093E702FE01E15025
:103B7000F047E232F10520F4E258F04D0C94932E18
:103B80008091E70281608093E70290C08091E80213
:103B900088608093E8028AC08091E7028260F3CF58
:103BA0008091E7028460EFCF8091E7028860EBCFDD
:103BB0008091E8028160EDCF8091E8028260E9CFD8
:103BC0008091E7028061DFCF8091E7028062DBCFE6
:103BD0008091E7028064D7CF0E94950C8091E70224
:103BE0008068D1CF8091E7028C60CDCF8091E802D0
:103BF0008360CFCF8091E7028E7FC5CF8091E802AE
:103C0000877FC7CF8091E7028D7FBDCF8091E7028C
:103C10008B7FB9CF8091E702877FB5CF8091E80293
:103C20008E7FB7CF8091E8028D7FB3CF8091E7027E
:103C30008F7EA9CF8091E7028F7DA5CF8091E7028B
:103C40008F7BA1CF0E94950C8091E7028F779BCF4D
:103C50008091E702837F97CF8091E8028C7F99CF94
:103C60008091E702992782FF939590FB82F990FB60
:103C700083F989CF8091E802982F909590FB80F985
:103C800090FB81F986CF9091E702892F8F7B96FF79
:103C9000806479CF0E94950C9091E702892F97FB61
:103CA00087F9805870CF81E00E94D2128091E7029C
:103CB0009091E8020E9448120E94950C80E0DF91EA
:103CC000CF91089580E0F0CF9091E702892F8F7E09
:103CD00094FF806158CF9091E702892F8E7F90FFEB
:103CE000816051CF9091E802892F877F93FF886090
:103CF00050CF81E0E4CFA0E0B0E0E1E8FEE10C9439
:103D0000AB2EE82FF0E0E158F84FD490282F2695FD
:103D10002695269530E0F901E15EF74F0491877012
:103D200010E0082E02C0159507950A94E2F701707D
:103D30001127F901E15FF74FE490F12C082E02C042
:103D4000F594E7940A94E2F7E0FAEE24FF24E0F811
:103D5000F901E150F84FC491D0E002C0D595C79564
:103D60008A95E2F7C170DD270115110519F081EE82
:103D70000E942F09E114F10419F086EE0E942F0928
:103D80008D2D0E94340AE114F10419F086EE0E9490
:103D9000C0090115110519F081EE0E94C009CD2B53
:103DA00019F08CE20E94340ACDB7DEB7E7E00C943C
:103DB000C72EEF92FF921F93CF93DF93EC01162F44
:103DC0008881811509F457C0813009F051C089817B
:103DD0008130A1F47E0182E0E80EF11C8A810E940C
:103DE000340AE7012196812F811551F3EFE9FFE0B5
:103DF0003197F1F700C000008150F6CF823041F4D6
:103E00007E01E2E0EE0EF11C8A810E942F09E9CFCB
:103E1000833041F47E01F2E0EF0EF11C8A810E94B2
:103E2000C009DFCF843011F02196DCCF2A812296A1
:103E300080E090E06AE0AE014F5F5F4F2053330BAC
:103E40002A30310550F0009769F2EFE9FFE0319731
:103E5000F1F700C000000197F6CF689FF001699F5D
:103E6000F00D1124C9018E0F9F1F2981EA01E3CFB4
:103E70000E947B1EB7CFDF91CF911F91FF90EF90F3
:103E800008958FE891E00197F1F700C000000895D0
:103E900081E08093B30253985B9A52985A9A0E9499
:103EA000411F2091B30245EB52E0FA018E2F841B93
:103EB000821708F0089589B199274A999395990F27
:103EC00083FB882780F9892B8193F0CFA8E1B0E0AC
:103ED000ECE6FFE10C94A32E10E000E086E0A82EB3
:103EE000B12C9DEF992E22E0822E772473943CEF23
:103EF000632E43E0542E8091B302181728F0802FD0
:103F00006896EFE00C94BF2EE12EF12C89B1992731
:103F10004A999395990F83FB882780F9892BD701BC
:103F2000AB54BD4FEC919E2F9370981709F484C049
:103F3000EE0FEE0FE82BEC93EF70F0E0E456FE4F3F
:103F4000C7018C549D4F6C018081F6019081890FCF
:103F5000808320E086308CF1F701EE54FD4F8081A4
:103F60008F5F80831D876E860E94C025BC018F876E
:103F7000988B598A7A8A4D855E8583E091E00E940C
:103F8000EC088FE19EE40197F1F700C000001B8B65
:103F90006C8A0E94C025BC018D8B9E8B5F8A188E17
:103FA0004B895C8983E090E00E94EC08EFE1FEE43D
:103FB0003197F1F700C0000021E0F60180818B3FCE
:103FC0008CF5F701EE54FD4F808181508083198379
:103FD0009A820E94C025BC018B839C838D827E8245
:103FE00049815A8182E091E00E94EC088FE19EE4D1
:103FF0000197F1F700C000001F8398860E94C0253A
:10400000BC0189879A878B861C864F81588582E000
:1040100090E00E94EC08EFE1FEE43197F1F700C078
:10402000000021E0F6018081082E000C990BB501FB
:104030000E947F2E8083022B1F5F5DCF81E0089559
:1040400081E008950E94202008958FE891E0019773
:10405000F1F700C000000895CF92DF92EF92FF9237
:10406000CF93DF93D82FC0E0C12CD12C760190E004
:104070008091B802C81788F0911541F0C701B601C8
:104080000E9422208091B7028093B602DF91CF91E7
:10409000FF90EF90DF90CF9008952C2F30E043B148
:1040A00050E0559547955595479540955095842FE7
:1040B0008170F901E954FD4F8083417055270C2E22
:1040C00002C0440F551F0A94E2F7052E000C660B40
:1040D000770BC42AD52AE62AF72A2A543D4FF9013C
:1040E0002081821302C0D11529F0682F8C2F0E94E5
:1040F000F00691E0CF5FBCCF81E08093B8022298B8
:104100002A9A0E94252081E00E942C20089584E0B4
:10411000089590E1699FB0011124640F711D640F2F
:10412000711D90E5899F600D711D1124CB01899649
:1041300008950F931F93CF93DF938430C8F46530B5
:10414000B8F44830A8F40E9489208C010E94F62E11
:10415000C82FD0E0DC2FCC27C80101960E94F62E94
:104160009E01282BC901DF91CF911F910F910895D6
:1041700080E090E0F8CF0F931F93CF93DF93122F3F
:10418000032F843078F4653068F4483058F40E9486
:104190008920EC01602F0E94142F612FCE0101961F
:1041A0000E94142FDF91CF911F910F910895FF92DC
:1041B0000F931F93CF93DF93F42E843040F561115A
:1041C00026C024E0829F8001112407591E4F81E000
:1041D00084279801280F311D280F311DC9010E9425
:1041E000F62EC82FD0E0DC2FCC2781E090E0F11034
:1041F00002C083E090E0800F911F0E94F62E9E0186
:10420000282BC901CDB7DEB7E5E00C94C92E80E0BC
:1042100090E0F8CF0F931F93CF93DF93962F142F37
:10422000022F632F8430E8F491111BC024E0829F99
:10423000E0011124C759DE4F81E084279E01280F39
:10424000311D280F311DC9010E94142F81E090E01B
:10425000111102C083E090E0602F8C0F9D1F0E941F
:10426000142FDF91CF911F910F9108951F93CF933A
:10427000DF93C0E0D0E011C0412F6D2F8C2F0E9442
:104280007A079C01412F6D2F8C2F0E94BB201F5F4E
:10429000183091F7DF5FD53011F010E0EDCF41E03D
:1042A00060E08C2F0E9498079C0141E060E08C2F19
:1042B0000E940A2140E060E08C2F0E9498079C0138
:1042C00040E060E08C2F0E940A21CF5FC43091F65D
:1042D000DF91CF911F910895EF92FF920F931F935B
:1042E000CF93DF938C01EA017A01E60EF71ECE151B
:1042F000DF0529F4CDB7DEB7E6E00C94C82E003414
:1043000081E0180740F4C80189960E94F62E89932F
:104310000F5F1F4FECCF80E0FACFEF92FF920F9329
:104320001F93CF93DF938C01EA017A01E60EF71E0B
:10433000CE15DF0529F4CDB7DEB7E6E00C94C82E24
:10434000003481E0180728F46881C80189960E942A
:10435000142F21960F5F1F4FEBCF843038F4653058
:1043600028F4483018F40E949920089580E090E0E5
:104370000895843028F4611103C00E94D720089565
:1043800080E090E0089580E1089587E892E0089544
:10439000EF92FF920F931F93CF93DF938C01EA016B
:1043A0007A01E60EF71ECE15DF0529F4CDB7DEB78C
:1043B000E6E00C94C82E073882E0180748F4C801DC
:1043C00087589E4F0E94F62E89930F5F1F4FEBCFA9
:1043D00080E0FACFEF92FF920F931F93CF93DF937A
:1043E0008C01EA017A01E60EF71ECE15DF0529F4ED
:1043F000CDB7DEB7E6E00C94C82E073882E0180788
:1044000030F46881C80187589E4F0E94142F21966E
:104410000F5F1F4FEACFCF93DF93C9E7D1E060E092
:10442000CE010E94142F2196C11584E0D807B9F758
:10443000DF91CF910895A8E0B0E0E1E2F2E20C94C0
:10444000A82EF82E20E1821708F067C08FEF93E0C6
:104450000E94F62E811161C009E711E0F11033C00E
:10446000FE0131965F0188E011928A95E9F76801B3
:10447000FFEFCF1ADF0AC8010E94F62E89831A8245
:10448000811509F44AC08130C1F4780122E0E20EBE
:10449000F11CC6010E94F62E8A838115F1F19FEF6F
:1044A000980F9330E8F482E0C80ED11CC7010E9437
:1044B000F62E8B83811589F11C8265E0C5010E946F
:1044C000D91E8601D4CF011584E0180731F1C80147
:1044D0000E94F62E0F5F1F4F8111F5CFFA94BECFC9
:1044E0008430A1F402E010E0C701EFEFEE1AFE0AFB
:1044F0000E94F62EF501E00FF11F8083811569F00F
:104500008C3731F4FE01E00FF11F12826701D5CF25
:104510000F5F1F4F0730110539F72896EAE00C941A
:10452000C42ECF93DF93EB0186319C4719F50E948F
:1045300027119D819115A1F08A7A91E0811101C026
:1045400090E09093B902811549F085E30E94FE1036
:104550000E94841180E0DF91CF91089589E2F6CF27
:104560008091B902811521F085E30E940611F0CFF8
:1045700089E2FBCF81E0EFCF0F931F93CF93DF93BF
:10458000C42FD22FFC0185818115C9F04093BC0254
:104590000E94C0259093BB028093BA0280E28C0FE8
:1045A000883040F4C77081E001C0880FCA95EAF7EF
:1045B0000E943D0ADF91CF911F910F9108951091B4
:1045C000BC02141333C08091BA029091BB020E94C6
:1045D000D825883C910550F5C0E2CD0F1D17C1F0DC
:1045E00080E2810F883040F4177081E001C0880FAD
:1045F0001A95EAF70E94440AC83050F491E08D2FD2
:10460000877001C0990F8A95EAF7892F0E943D0AA9
:10461000802F0E94340AC83068F6D77081E001C04C
:10462000880FDA95EAF70E94440AC4CF80E28C0F23
:10463000883008F0BFCFC77081E001C0880FCA95ED
:10464000EAF7F1CF0F93DB01FC01E851FC47E730BB
:10465000F10598F5E056F04D0C94932E06E221EE0C
:1046600041EE6AE17CE7CD010E94BC2280E00F911F
:10467000089507E225EE45EE6BE17CE7F4CF06E214
:1046800021EE40EE68E17CE7EECF07E225EE44EE56
:1046900069E17CE7E8CF06E221EE42EE6CE17CE7DF
:1046A000E2CF07E225EE46EE6DE17CE7DCCF08E2E3
:1046B00021E045EE6EE17CE7D6CF15968C91811115
:1046C0001092BC0281E0D3CFCF93DF939C01FB011A
:1046D00027378CE7380739F028373C47F1F081E07D
:1046E000DF91CF9108958581811591F00E949623E5
:1046F0000E94160D0E949C23D82F0E949923C82F38
:104700000E9496234D2F6C2F0E94550E80E0E8CF1B
:104710000E9496230E94220DEDCF8581811519F00C
:104720000E949923E5CF0E949923F4CF80911E0126
:10473000089580911D01089580911C010895909322
:10474000C2028093C1020895E091C102F091C202B9
:10475000309729F00190F081E02D0995089580E0CF
:1047600008950E94A4230895DC01E091C102F09114
:10477000C202309799F080912701811551F0809104
:10478000E70287FF06C08C9111968C93119786E003
:104790008C930280F381E02DCD0109950895DC0111
:1047A000E091C102F091C202309739F082E08C931F
:1047B0000480F581E02DCD0109950895A3E0B0E0D6
:1047C000E4EEF3E20C94B02E9C018091BF02909134
:1047D000C00282179307A1F03093C0022093BF025A
:1047E000E091C102F091C202309751F083E08983D9
:1047F0003B832A830680F781E02DCE01019609953F
:104800002396E2E00C94CC2EA3E0B0E0EAE0F4E2E0
:104810000C94B02E9C018091BD029091BE02821733
:104820009307A1F03093BE022093BD02E091C10234
:10483000F091C202309751F084E089833B832A8350
:104840000680F781E02DCE01019609952396E2E0DE
:104850000C94CC2EFC01329680912701811521F019
:104860008091E7029EE187FF96E080E0915008F496
:10487000089521912115D1F38F5FF8CF9C01611527
:1048800059F180912701811521F08091E70287FD80
:104890000BC0F9013296285F3F4F81918617F1F0E6
:1048A000E217F307D1F718C0462F4695469546956F
:1048B000603F90F4677081E090E002C0880F991F1C
:1048C0006A95E2F7240F311DF901228130E0282397
:1048D000392381E0232B19F480E0089581E00895C5
:1048E0009C01FC0132968FEF90E04191461751F008
:1048F0008F3F19F4411101C0892F9F5F9630A9F7AE
:104900008F3F09F40895280F311D87FD3A95F9016D
:10491000628308959C01FC013296285F3F4F81918C
:10492000861302C0DF011E92E217F307C1F7089554
:10493000FC01862F869586958695603F60F4E80F8A
:10494000F11D677021E030E001C0220F6A95EAF79F
:104950008281822B82830895FC01862F869586951D
:104960008695603F80F4E80FF11D677081E090E06C
:104970009C0102C0220F331F6A95E2F7B9016095CE
:10498000828168236283089520912701211539F0DF
:104990002091E70227FF03C00E94982408950E94F7
:1049A0007024089520912701211539F02091E70204
:1049B00027FF03C00E94AC2408950E948A24089512
:1049C00020912701FC013296211551F08091E702D8
:1049D00087FF06C08EE1DF011D928A95E9F70895F1
:1049E00086E0F9CFDC01FB0111969C911197818142
:1049F000981322C012968C911297811519F092810A
:104A000089131AC013968C911397811519F093810D
:104A1000891312C015968C911597811519F09581FF
:104A200089130AC014969C91911521F081E024818C
:104A3000291303C080E001C081E0817008950895CA
:104A40000E941F2508958F5F8093C3020E94202536
:104A5000089583E08093C3020E94202508950E9458
:104A60002325089581E08093C3020E9420250895A4
:104A70000E9432250895089508950E943C250895C6
:104A8000089508950E943B250895CF930E944025E4
:104A90000E946F050E944125C0E08C2F0E943C16A9
:104AA000811105C0CF5FC530C1F7CF91089581E076
:104AB000FCCF85B7806885BF85B7806885BF0895BE
:104AC0001F921FB61F9211248F939F93AF93BF9392
:104AD0008091C402811113C08091F9049091FA046D
:104AE000A091FB04B091FC044196A11DB11D8093DF
:104AF000F9049093FA04A093FB04B093FC04BF91D3
:104B0000AF919F918F911F901FBE1F90189580911C
:104B10000105843031F10E948E081092C40288E1B0
:104B200090E020E40FB6F894A895809360000FBE43
:104B30002093600083B7817F846083BF83B78160E7
:104B400083BF7894889583B78E7F83BF0FB6F89420
:104B5000A895809160008861809360001092600049
:104B60000FBE08950E94950C0E949508089582E05A
:104B700084BD93E095BD9AEF97BD80936E00089534
:104B80002FB7F8948091F9049091FA04A091FB0456
:104B9000B091FC042FBF08952FB7F8946091F904E9
:104BA0007091FA048091FB049091FC042FBF08954A
:104BB0009C014FB7F8948091F9049091FA04A09168
:104BC000FB04B091FC044FBF821B930B08957894B3
:104BD0001F921FB61F9211248F939F93AF93BF9381
:104BE0008091F9049091FA04A091FB04B091FC0427
:104BF0000196A11DB11D8093F9049093FA04A0932E
:104C0000FB04B093FC04BF91AF919F918F911F90D3
:104C10001FBE1F90189581E08093E00080E2809392
:104C2000D8001092C9008FE19EE40197F1F700C00F
:104C3000000087E090EBDC0180930A0590930B0560
:104C4000A0930C05B0930D0588E19CE00FB6F89495
:104C5000A895809360000FBE90936000FFCF88E11D
:104C60009CE00FB6F894A895809360000FBE9093D7
:104C70006000FFCF1092B9008CE08093B8000895D7
:104C8000A0E0B0E0E6E4F6E20C94A72EB82EEB012B
:104C90000E94C0256C01EE24E394F12CC431D105AF
:104CA00060F025E0E22EF12CCF3FDC0731F0CE01A1
:104CB00064E170E00E946B2E7B0184EAA82E94E8E8
:104CC000992E1092BC00A092BC000E94C025182F03
:104CD000092F8091BC0087FF0CC08091B900887FAC
:104CE0008830F9F08091B900887F8031D1F00FEFE2
:104CF00008C0812F902F0E94D825E816F90648F7A2
:104D00000EEF1FEFCF3FDC07E1F2C6010E94D8256E
:104D1000C817D907B0F6C801CDB7DEB7EBE00C94E1
:104D2000C32EB092BB009092BC000E94C025182FE9
:104D3000092F8091BC0087FF0AC02091B900287F0D
:104D4000283111F0203499F600E010E0E4CF812FF3
:104D5000902F0E94D825E816F90658F7D1CF0F9367
:104D60001F93CF93DF93EB018093BB0084E8809384
:104D7000BC000E94C025182F092F8091BC0087FF1E
:104D800011C02091B900287F81E090E0283211F411
:104D900080E090E0919581959109DF91CF911F91ED
:104DA0000F910895CF3FDC0741F3812F902F0E9490
:104DB000D825C817D90708F78EEF9FEFEECFA0E0F0
:104DC000B0E0E5EEF6E20C94A82E5B017A01D22E5B
:104DD000C32E622F732F0E9440268C01E501EA0C3E
:104DE000FB1CCE15DF0519F00115110549F084E90A
:104DF0008093BC00C801CDB7DEB7EAE00C94C42EA6
:104E00006D2D7C2D89910E94AF268C01EACFA0E008
:104E1000B0E0EDE0F7E20C94A82EF62E5A016901FD
:104E2000B8010E944026EC01892B69F4B8018F2D4E
:104E30000E94AF26EC017501CA0CDB1CEC14FD04CA
:104E400011F0209749F084E98093BC00CE01CDB7E2
:104E5000DEB7EAE00C94C42EB801F70181917F011E
:104E60000E94AF26EC01EACF84E98093BC0008954C
:104E70008091E5020895282FCB01BA0130910105F8
:104E80003430D9F42F702093E9002FEF3091E800EF
:104E900035FD06C035ED3A95F1F700002A95B1F7DA
:104EA0002091E80025FF09C040E050E00E948929D8
:104EB0008091E8008E778093E8000895BC0143E07C
:104EC00050E084E00E943B270895BC0146E050E09A
:104ED00084E00E943B270895CF93DF93D82FC92FFA
:104EE00080912701811113C048E050E06D2F792F88
:104EF00081E00E943B2780E2ED2FFC2FA5ECB2E081
:104F000001900D928A95E1F7DF91CF9108958091FC
:104F1000E70287FD06C048E081E050E06D2F7C2F5E
:104F2000E8CF40E284E0F9CF792F603231F440E2FB
:104F300050E0682F82E00E943B2708958091000591
:104F4000811109C00E94622B0E94BF2B8091E20058
:104F500084608093E20008951092000508950E94F5
:104F6000322508956091FD0481E0611101C080E067
:104F70000E94292508959091010581E0943009F05F
:104F800080E06091FD040E942F25089542E061ECCD
:104F900081E00E94DE2A42E261EC84E00E94DE2A87
:104FA00042E261EC82E00E94DE2A42E260EC83E0B1
:104FB0000E94DE2A9091010581E0943009F080E0A2
:104FC0006091FD040E942325089580910305893096
:104FD00089F148F4823009F4A1C0833009F45BC040
:104FE000813041F008958A3009F488C08B3009F48B
:104FF0006DC0089580910205813A09F04BC08091FF
:10500000E800877F8093E80080910605909107056E
:10501000892B61F060E080E090E070E00E94292A36
:105020008091E8008B778093E800089560E285EC3A
:1050300092E0F3CF80910205813261F580910605FF
:10504000909107058D7F892B29F58091E800877F56
:105050008093E8008091E80082FF18C09091F300EF
:105060008091F200029731F48091F100813011F0CB
:10507000863021F48091F1008093E5028091E80070
:105080008B778093E8000E94122B08958091010590
:105090008111E0CF089580910205813AD9F780917E
:1050A000060590910705892BA9F78091E800877F75
:1050B0008093E8008091E80080FFFCCF8091270179
:1050C0008093F1008091E8008E77DBCF809102051C
:1050D000813201F78091060590910705892BD1F661
:1050E0008091E800877F8093E8000E94122B8091D6
:1050F0000405809327010E94950C08958091020574
:10510000813241F68091E800877F8093E8000E9419
:10511000122B809105058093E60208958091020587
:10512000813A09F0B7CF8091E800877F8093E8004B
:105130008091E80080FFFCCF8091E602C1CF84B768
:10514000877F84BF0FB6F894A8958091600088612E
:1051500080936000109260000FBE80E890E00FB670
:10516000F89480936100909361000FBE0E943825EF
:1051700008950E94622B0E94BF2BE2EEF0E0808136
:105180008460808378940E94452E08958FE191E099
:105190000E949F23089580910105853031F480910C
:1051A0000105853019F00E94B22508950E948725D7
:1051B0008091FF04811599F30E944525811579F3AB
:1051C0000E9473290E94950CEACFA0E2B0E0EBEEBA
:1051D000F8E20C94B02E80910105843009F583E04B
:1051E0008093E9008091E80082FF1AC08091E80076
:1051F00090E085FF09C040E050E060E270E0CE0141
:1052000001960E94D92991E08091E8008B778093E4
:10521000E800911529F060E2CE0101960E94B119D3
:10522000A096E2E00C94CC2E9A0140910805509192
:1052300009050E941C290895FC01AB01D901892FA1
:10524000992783309105C1F068F48130910509F404
:1052500045C0029761F48BE590E025E538E02D9399
:105260003C93089581329105E1F0829739F180E015
:1052700090E020E030E0F3CFCF019927E13059F002
:105280008230910559F0E1E5F8E0892B81F78491AE
:1052900090E09F01E4CFEDE3F8E0F9CFEFE2F8E032
:1052A000F6CF6330710518F7FB01EE0FFF1FEB54CB
:1052B000FE4F2081318189E090E0D1CF63307105CC
:1052C000B0F6FB01EE0FFF1FE155FE4F208131814B
:1052D00044555E4FFA01808190E0C1CF82E190E0B9
:1052E00020EB38E0BCCF80E189BD82E189BD09B403
:1052F00000FEFDCF8091D8008F7D8093D8008091F3
:10530000E00082608093E0008091E00081FDFCCFAE
:105310000895AF92BF92CF92DF92EF92FF920F93D8
:105320001F93CF936C018B017A010E94312BC82F00
:10533000811123C0E114F10439F0F70180819181DA
:10534000081B190BC80ED91EA12CB12C0115110573
:10535000A1F08091E80085FD21C08091E8008E7762
:105360008093E800E114F10499F0F70180819181C4
:105370008A0D9B1D91838083C5E08C2FCF911F9157
:105380000F91FF90EF90DF90CF90BF90AF90089576
:105390000E94312B8115E9F2C82FEFCFF6018191E0
:1053A0006F018093F10001501109FFEFAF1ABF0A9E
:1053B000CDCFAF92BF92CF92DF92EF92FF920F9339
:1053C0001F93CF936C018B017A010E94312BC82F60
:1053D000811123C0E114F10439F0F701808191813A
:1053E000081B190BC80ED91EA12CB12C01151105D3
:1053F000A1F08091E80085FD21C08091E8008B77C5
:105400008093E800E114F10499F0F7018081918123
:105410008A0D9B1D91838083C5E08C2FCF911F91B6
:105420000F91FF90EF90DF90CF90BF90AF900895D5
:105430000E94312B8115E9F2C82FEFCF8091F10046
:10544000F60181936F0101501109FFEFAF1ABF0AF6
:10545000CDCFFC019B01809108059091090586172D
:10546000970718F0672B61F0C90140E0009771F4CD
:1054700041110CC08091E80082FF35C080E00895A2
:105480008091E8008E778093E800EECF20910105AF
:105490002115A9F12530A9F12091E80023FD2DC0A7
:1054A0002091E80022FDE6CF2091E80020FFDECF2A
:1054B0003091F3002091F200009719F02830310567
:1054C00058F041E02830310509F040E02091E80033
:1054D0002E772093E800CACF41914093F1000197C5
:1054E0002F5F3F4FE9CF80910105811541F0853055
:1054F00041F08091E80083FFBDCF81E0089582E014
:10550000089583E00895FC019B0180910805909126
:1055100009058617970718F0672B61F0C90140E06D
:10552000009771F441110CC08091E80082FF36C0F1
:1055300080E008958091E8008E778093E800EECFB8
:10554000209101052115B1F12530B1F12091E8003C
:1055500023FD2EC02091E80022FDE6CF2091E80037
:1055600020FFDECF3091F3002091F200009719F078
:105570002830310558F041E02830310509F040E08D
:105580002091E8002E772093E800CACF4491409301
:10559000F100319601972F5F3F4FE8CF80910105D1
:1055A000811541F0853041F08091E80083FFBCCF48
:1055B00081E0089582E0089583E00895982F973060
:1055C00028F08F708093E90081E008959093E900BE
:1055D000242F762F50E0981731F07091EC00209135
:1055E000ED005091F00021FD02C09F5FE8CF3091A7
:1055F000EB003E7F3093EB003091ED003D7F309328
:10560000ED003091EB0031603093EB007093EC00D3
:105610002093ED005093F0002091EE0027FDE5CFA0
:1056200080E008958091020587FF13C08091E80013
:1056300082FF06C08091E8008B778093E800089590
:10564000809101058111F2CF0895809101058115A6
:10565000D9F38091E80080FFF8CF8091E8008E7741
:10566000ECCF2091E4003091E50095E6A90120916E
:10567000EC00822F817020FF06C08091E80080FF3F
:1056800006C080E008952091E80022FD1AC08091B4
:105690000105811589F0853089F08091EB0085FD49
:1056A0000FC02091E4003091E50042175307F9F252
:1056B0009A95E1F684E0089582E0089583E00895E4
:1056C00081E008950E94D12B0E94D92BE0EEF0E0FA
:1056D000808181608083E8EDF0E080818F77808336
:1056E00019BCA7EDB0E08C918E7F8C9380818F7E6A
:1056F00080831092000508950F931F93CF93DF933B
:105700000E94D12B0E94D92BC8EDD0E088818F77E1
:10571000888388818068888388818F7D888319BC8D
:10572000109201051092FD041092FF041092FE04E5
:1057300000EE10E0F80180818B7F8083888181609A
:10574000888342E060E080E00E94DE2AE1EEF0E043
:1057500080818E7F8083E2EEF0E0808181608083B3
:10576000808188608083F80180818E7F808388813A
:1057700080618883DF91CF911F910F910895E8EDAB
:10578000F0E080818F7E8083E7EDF0E080818160B2
:10579000808384E082BF81E0809300050E947C2B9F
:1057A0000895E8EDF0E080818E7F80831092E20022
:1057B00008951092DA001092E10008951F920F925E
:1057C0000FB60F9211242F933F934F935F936F93D4
:1057D0007F938F939F93AF93BF93EF93FF938091AA
:1057E000E10082FF0BC08091E20082FF07C0809140
:1057F000E1008B7F8093E1000E94442E8091DA00CB
:1058000080FF19C08091D80080FF15C08091DA0018
:105810008E7F8093DA008091D90080FF94C080E170
:1058200089BD82E189BD09B400FEFDCF81E080938E
:1058300001050E949E278091E10080FF19C08091A0
:10584000E20080FF15C08091E2008E7F8093E2002D
:105850008091E20080618093E2008091D8008062B4
:105860008093D80019BC85E0809301050E94B2277F
:105870008091E10084FF29C08091E20084FF25C06F
:1058800080E189BD82E189BD09B400FEFDCF809130
:10589000D8008F7D8093D8008091E1008F7E809327
:1058A000E1008091E2008F7E8093E2008091E2002F
:1058B00081608093E2008091FD04811509F449C064
:1058C00084E0809301050E94BB278091E10083FF63
:1058D00029C08091E20083FF25C08091E100877F8D
:1058E0008093E10082E0809301051092FD04809195
:1058F000E1008E7F8093E1008091E2008E7F8093B3
:10590000E2008091E20080618093E20042E060E08A
:1059100080E00E94DE2A8091F00088608093F00091
:105920000E94AF27FF91EF91BF91AF919F918F910F
:105930007F916F915F914F913F912F910F900FBE8B
:105940000F901F90189519BC109201050E94AC276A
:1059500072CF8091E30087FF02C083E0B2CF81E085
:10596000B0CF1F920F920FB60F921124EF92FF92B9
:105970000F931F932F933F934F935F936F937F9357
:105980008F939F93AF93BF93CF93EF93FF9309EEC2
:1059900010E0F8018081C091EC008F70C795CC2792
:1059A000C795C82B108280EFE82EF12CF70180817B
:1059B000877F808378940E94FC2CF8011082F70185
:1059C000808188608083CF70F801C083FF91EF9160
:1059D000CF91BF91AF919F918F917F916F915F9187
:1059E0004F913F912F911F910F91FF90EF900F904A
:1059F0000FBE0F901F901895AAE2B0E0E2E0FDE222
:105A00000C94AE2E82E095E0FC0101962091F1000D
:105A1000208325E08A309207B9F70E94E52780911C
:105A2000E80083FF38C080910205909103059A3009
:105A300090F5E92FF0E0E955F04D0C94932E803865
:105A400089F0823841F5809106058F70873018F50E
:105A50008093E9008091EB0085FB882780F9109204
:105A6000E90006C08091FF04880F9091FE04892B05
:105A70009091E800977F9093E8008093F100109256
:105A8000F1008091E8008E7723C0811116C08091CB
:105A90000405813011F18091E80083FF0AC08091F4
:105AA000E800877F8093E8008091EB00806280931C
:105AB000EB00AA96E4E00C94CA2E823061F7809144
:105AC0000405811589F01092E9008091E800877F34
:105AD0008093E8000E94122BDECF81E0933009F022
