:100000000C94D3040C940B050C940B050C940B0569
:100010000C940B050C940B050C940B050C940B0520
:100020000C940B050C940B050C9459120C94951719
:100030000C94B3240C940B050C940B050C940B0539
:100040000C940B050C940B050C940B050C940B05F0
:100050000C940B050C9431130C940B050C940B05AC
:100060000C940B050C940B050C940B050C940B05D0
:100070000C940B050C940B050C940B050C940B05C0
:100080000C940B050C940B050C940B050C940B05B0
:100090000C940B050C940B050C940B050C940B05A0
:1000A0000C940B050C940B050C940B05050109022F
:1000B000A10185020901A1000509190129081500FE
:1000C0002501950875018102050109300931158165
:1000D000257F95027508810609381581257F9501D0
:1000E00075088106050C0A38021581257F95017572
:1000F000088106C0C00660FF0961A1010962150000
:1001000026FF009520750881020963150026FF006F
:10011000952075089102C005010906A1010507197E
:10012000E029E71500250195087501810295017503
:100130000881010507190029FF150026FF00950613
:100140007508810005081901290515002501950587
:1001500075019102950175039101C0000000000036
:10016000000000000000000000000000000000008F
:100170000000000000000000000000000000007E01
:100180000F00D4FFFFFFC700000078000000000050
:100190000000002A2B2800000000000000000000E2
:1001A00000000000000029000000002C1E34202167
:1001B0002224342627252E362D3738271E1F2021AE
:1001C00022232425263333362E37381F040506070D
:1001D00008090A0B0C0D0E0F101112131415161727
:1001E00018191A1B1C1D2F3130232D350405060745
:1001F00008090A0B0C0D0E0F101112131415161707
:1002000018191A1B1C1D2F3130354C61626364654F
:10021000666768696A6B6C6D6E6F70717273747506
:10022000767778797A313233343536373839305217
:100230004542545F2D3D5B5D5C233B27602C2E2F98
:1002400000DA0281FFD9F1DB20A4A62EAF00A0C006
:10025000D30000A1C8D30000AED580A81F408D14E4
:10026000200000AF00AE556E646566003372640016
:10027000326E640031737400307468004C4159452B
:1002800052000004000500060007001400150016C7
:10029000001700080009000A000B001800190000F0
:1002A0000000000C000D000E000F00000000000018
:1002B00000000010001100120013000000000000F8
:1002C0000000001A001B001C0000000000000000DD
:1002D00000000004000500060007001400150016C9
:1002E000001700080009000A000B001800190000A0
:1002F0000000000C000D000E000F000000000000C8
:1003000000000010001100120013000000000000A7
:100310000000001A001B001C00000000000000008C
:100320000000000400050006000700140015001678
:10033000001700080009000A000B0018001900004F
:100340000000000C000D000E000F00000000000077
:100350000000001000110012001300000000000057
:100360000000001A001B001C00000000000000003C
:100370000000000400050006000700140015001628
:10038000001700080009000A000B001800190000FF
:100390000000000C000D000E000F00000000000027
:1003A0000000001000110012001300000000000007
:1003B0000000001A001B001C0000000000000000EC
:1003C0000000001F001E0021002000230022002545
:1003D00000240009025B00030100A0FA09040000E8
:1003E0000103010100092111010001224400070558
:1003F0008103080001090401000203000000092133
:1004000011010001222200070582032000010705D7
:100410000303200001090402000103000000092178
:100420001101000122490007058403200001120187
:1004300000020000000838393432010001020001D6
:100440000C036700620063003200340000001203F6
:100450006B0075007300680069006D006100380072
:1004600000000403090407087F0807003E5B4F5B98
:100470003E003E6B4F6B3E001C3E7C3E1C00183C19
:100480007E3C18001C577D571C001C5E7F5E1C00C4
:1004900000183C180000FFE7C3E7FF00001824180D
:1004A0000000FFE7DBE7FF0030483A060E00262990
:1004B00079292600407F05050700407F05253F007C
:1004C0005A3CE73C5A007F3E1C1C0800081C1C3E9E
:1004D0007F0014227F2214005F5F005F5F00060927
:1004E0007F017F00006689956A006060606060003F
:1004F00094A2FFA2940008047E04080010207E202D
:10050000100008082A1C0800081C2A0808001E10F1
:10051000101010000C1E0C1E0C0030383E3830003D
:10052000060E3E0E060000000000000000005F0006
:100530000000000700070000147F147F1400242A25
:100540007F2A1200231308646200364956205000A7
:10055000000807030000001C224100000041221C8B
:1005600000002A1C7F1C2A0008083E0808000080A2
:1005700070300000080808080800000060600000F3
:100580002010080402003E5149453E0000427F40D1
:1005900000007249494946002141494D3300181471
:1005A000127F10002745454539003C4A4949310032
:1005B0004121110907003649494936004649492970
:1005C0001E0000001400000000403400000000087D
:1005D00014224100141414141400004122140800C1
:1005E0000201590906003E415D594E007C1211126C
:1005F0007C007F49494936003E41414122007F410C
:1006000041413E007F49494941007F0909090100F4
:100610003E41415173007F0808087F0000417F413F
:1006200000002040413F01007F08142241007F402C
:10063000404040007F021C027F007F0408107F00C2
:100640003E4141413E007F09090906003E415121DA
:100650005E007F09192946002649494932000301F5
:100660007F0103003F4040403F001F2040201F000B
:100670003F4038403F0063140814630003047804CB
:1006800003006159494D4300007F4141410002048C
:1006900008102000004141417F00040201020400D3
:1006A00040404040400000030708000020545478B8
:1006B00040007F28444438003844444428003844EB
:1006C00044287F0038545454180000087E09020062
:1006D00018A4A49C78007F080404780000447D409E
:1006E00000002040403D00007F10284400000041F1
:1006F0007F4000007C04780478007C0804047800C3
:10070000384444443800FC182424180018242418C1
:10071000FC007C08040408004854545424000404D9
:100720003F4424003C4040207C001C2040201C0012
:100730003C4030403C004428102844004C909090AD
:100740007C004464544C4400000836410000000022
:100750007700000000413608000002010204020098
:100760003C2623263C00000000000000404040F0F2
:10077000F8F8FF38FFF8F83FF8F8FF38FFF8F8F01E
:1007800040404000000000000080C0C0C080000069
:10079000C0C08000000080C0C000C0C0000080C099
:1007A000C00000000000C0C0C0C0C000C0C0000049
:1007B0000000000000000000000000000000000039
:1007C0000000000000000000000000000000000029
:1007D0000000000000000000000000000000000019
:1007E0000000000000C0F0F8FC3E1E060100000002
:1007F0007F4141417F007F4141417F000080C0E057
:100800007E5B4F5BFEC00000C000DCD7DEDEDED7C3
:10081000DC00C0000000000000000000000000003C
:10082000000000000000000000000000494949FFEE
:10083000FFFFFFE0DFBFBF00BFBFDFE0FFFFFFFF45
:1008400049494900000000001F3F6060E0BF1F00F1
:100850007F7F071E381E077F7F007F7F0E1F3B7143
:100860006000000000007F7F0C0C0C007E7E007F8B
:100870007E0303007F7E03037E7E03037F7E000FE3
:100880003E703C063C703E0F00327B49493F7E0083
:100890007F7E0303001E3F69696F26000000000091
:1008A0000000000000030F1F3F3C78706000000054
:1008B0007F4141417F007F4141417F00307B7F7814
:1008C00030202030787F3B0003000F7F0F0F0F7F19
:1008D0000F00030000000000000000000000000006
:1008E00000000000000000000000000001010107FE
:1008F0000F0F7F0F7F0F0F7E0F0F7F0F7F0F0F07E1
:1009000001010100000000000000000000010100E2
:1009100000000000000000000000000000000000D7
:1009200000000000000000000000000000000000C7
:1009300000000000000000000000000000000000B7
:1009400000000000000000000000000000000000A7
:100950000000000000000000000000000000000097
:100960000000000000000000000000000000000087
:100970000000000000000000000000000000000077
:100980000000000000000000000000000000000067
:100990000000000000000000000000000000000057
:1009A00000000000000011241FBECFEFDAE0DEBF20
:1009B000CDBF04B603FE18C08091720490917304F9
:1009C000A0917404B09175048730904BA740B04B50
:1009D00059F41092720410927304109274041092DD
:1009E0007504E0E0F8E3099511E0A0E0B1E0E4E887
:1009F000FAE502C005900D92A437B107D9F724E0BB
:100A0000A4E7B1E001C01D92A237B207E1F70E944E
:100A1000DC240C94402D0C940000482F209160029F
:100A20009091270257E0291302C080E0089530E03A
:100A3000529FF001539FF00D1124E85DFD4F81811D
:100A4000681306C08081481303C085818111EECFF1
:100A50002F5F3F4F2770E7CFE8EDF0E080818E7F7A
:100A600080831092E2001092DA001092E100A0EE72
:100A7000B0E08C9181608C9380818F77808319BCEA
:100A8000A7EDB0E08C918E7F8C9380818F7E8083E8
:100A90001092100208952091E4003091E50085E65F
:100AA0009091EC0090FF06C09091E80090FF06C086
:100AB00080E008959091E80092FDFACF90911D0298
:100AC000992391F0953091F09091EB0095FD10C035
:100AD0004091E4005091E5002417350709F3815057
:100AE0009A01F1F684E0089582E0089583E0089584
:100AF00081E0089580911F0287FF13C08091E80074
:100B000082FF06C08091E8008B778093E80004C0E4
:100B100080911D028111F2CF089580911D028823DA
:100B2000D9F38091E80080FFF8CF8091E8008E77BC
:100B3000ECCF982F9093E900242F762F50E089175F
:100B400031F07091EC002091ED005091F00021FD0A
:100B500007C09F5F973071F78093E90081E00895A7
:100B60003091EB003E7F3093EB003091ED003D7F04
:100B70003093ED003091EB0031603093EB007093D7
:100B8000EC002093ED005093F0002091EE0027FD43
:100B9000E0CF80E00895B0E0A0E0E1EDF5E00C9456
:100BA000782CC8EDD0E088818F7E8883E7EDF0E077
:100BB00080818160808384E082BF81E08093100225
:100BC00088818E7F888302EE10E0F80110821092F7
:100BD000DA0081EEC82ED12CF601108288818F7741
:100BE000888388818068888388818F7D888319BC09
:100BF00010921D0210921E0210921C0210921B02F3
:100C000090EEE92EF12CF70180818B7F8083888123
:100C10008160888342E060E080E00E949905F601EF
:100C200080818E7F8083F8018081816080838081D4
:100C300088608083F70180818E7F808388818061D6
:100C40008883CDB7DEB7E8E00C94942CFC0180914A
:100C500025029091260286179707A0F0611571056D
:100C600029F49091E8009E779093E80090E0611558
:100C7000710551F4911108C08091E80082FF35C0E0
:100C800080E00895BC01F2CF80911D028823C9F154
:100C90008530C9F18091E80083FD31C08091E80082
:100CA00082FDEACF8091E80080FFE1CF2091F30040
:100CB0008091F200322F282F6115710519F028302C
:100CC000310558F091E02830310509F090E020918D
:100CD000E8002E772093E800CACF81918093F1003D
:100CE000615071092F5F3F4FE7CF80911D0288232C
:100CF00041F0853041F08091E80083FFBDCF81E075
:100D0000089582E0089583E0089508958091120285
:100D100008952FB7F89460910C0270910D028091A4
:100D20000E0290910F022FBF0895DC01FB01119676
:100D30009C9111978181981322C012968C911297E1
:100D4000882319F0928189131AC013968C911397F6
:100D5000882319F09381891312C015968C911597E9
:100D6000882319F0958189130AC014969C919923C0
:100D700021F081E02481291303C080E001C081E0DB
:100D800081700895E0910902F0910A02309739F0DC
:100D900022E0DC012C930480F581E02D0995089573
:100DA000E0910902F0910A02309729F00190F08158
:100DB000E02D0995089580E00895909142018823DF
:100DC00041F09F5F9093420110923F0110923E01CB
:100DD00008959150F7CFE7E3F1E0828591E089270C
:100DE000828710861782089580914001811114C076
:100DF00080914201811110C08091410181110CC08C
:100E00009091DF0196959695969581E02091380115
:100E1000921380E08170089581E0FCCF8091C7013A
:100E200080FD16C081FD16C082FD16C08091C601EE
:100E30008823A1F0883280F428E0829FC001112429
:100E400068E270E00E94122D862F672B39F008951A
:100E500082E0089584E0089588E0089581E008958F
:100E60008091C70180FD14C081FD14C082FD16C0B1
:100E70008091C501882381F08E3180F420E5829F26
:100E8000C00111246EE170E00E94122D862F08959A
:100E900084E1089588E2089588E0089580E5089542
:100EA000282F35EB2303C001112497FF04C080587D
:100EB0009109892F089580589F4FFBCF80E00895B6
:100EC0009091B30192FF10C041E0282F247124308B
:100ED00009F040E031E0282F2871283009F030E097
:100EE000431711F02CE0822793FF10C041E0282F18
:100EF0002471243109F040E031E0282F2871283195
:100F000009F030E0431711F02CE082273091B40152
:100F100030FF10C051E0282F2171213009F050E03E
:100F200041E0282F2871283009F040E0541711F0D3
:100F300029E0822731FF10C041E0282F21712131A3
:100F400009F040E031E0282F2871283109F030E025
:100F5000431711F029E0822794FD877E0895823897
:100F60009105B9F1B0F48133910509F47DC048F4DD
:100F70008932910509F46DC08A32910509F479C06E
:100F800008958533910509F45FC08933910509F10E
:100F90000895833E9105D9F138F4803E910529F1F9
:100FA000823E910579F10895863E9105D9F1873EFB
:100FB000910509F43EC0843E910541F52091B401AC
:100FC00021FF24C08091B30184FD19C087EE90E019
:100FD00008952091B301237009F056C02091B40107
:100FE00023FF14C089E290E008952091B30120FD11
:100FF00038C03091B40130FF09C024FF3FC090E0F9
:1010000080E008952091B30122FDF7CF089520914B
:10101000B30122FD36C03091B40130FD35C024FD4E
:10102000EECFF4CF2091B30123FFF0CF24FDE7CF23
:10103000CDCF2091B30123FD2AC03091B40131FFFF
:10104000EECF84EE90E008952091B30125FDCACF44
:1010500008952091B30125FD1DC02091B40123FF07
:10106000D5CF89E390E008952091B30126FD15C006
:1010700008952091B30126FD13C0089583EE90E0FA
:10108000089582EE90E0089580EE90E0089586EE57
:1010900090E0089585E390E008958AE290E0089555
:1010A00081E390E0B3CF1F93CF93DF930E94AF070C
:1010B000EC01C11582E5D80708F03FC0C11590E5E5
:1010C000D90708F0BEC0C83ED105C0F4C03ED10566
:1010D00080F4C53AD10548F4C430D10550F4C1308C
:1010E000D10539F0D0E0C0E004C0CD3CD105D0F34B
:1010F000D065CE01DF91CF911F910895C11580E495
:10110000D80708F053C0C11590E2D90708F0B1C064
:10111000C11581E0D80730F38D2F0E946007182F8A
:10112000CE0199270E94AF07C12FD0E0DC2FCC273A
:10113000CC27DF71C82BD92BDCCFC03892E5D9077B
:10114000A8F4C03682E5D80708F061C0C03492E543
:10115000D90708F047C0C03282E5D80778F1CF71CF
:10116000D0E0DC2FCC27C16FD06AC3CFC03C92E562
:10117000D90780F48C2F8F71C03AD24508F45AC039
:101180000E946007C82FD0E0DC2FCC27CC27DF716E
:10119000D062AFCFC03E82E5D80708F0A3CFDC2FE6
:1011A000CC27CC27DF71C06FD06AA3CFCE0199279F
:1011B0000E94AF07CC27DF70D06ABCCF2C2F2695BA
:1011C000269590E2299F900111248C2F8370C1E015
:1011D000D0E002C0CC0FDD1F8A95E2F7C22BD32BE3
:1011E000DD6887CF2C2F26952695277080E2289FD3
:1011F000900111248C2F8370C1E0D0E002C0CC0F8D
:10120000DD1F8A95E2F7DC68C22BD32B72CF2C2F1F
:1012100026952695277090E2299F900111248C2F06
:101220008370C1E0D0E002C0CC0FDD1F8A95E2F7E9
:10123000DA68EACFC82FD0E0DC2FCC27C46FD06AA1
:1012400058CF8C2F8F710E94600755E0D695C795B7
:101250005A95E1F7CF70D0E0DC2FCC27282F30E073
:1012600084FF05C044E0220F331F4A95E1F7D0699F
:10127000CBCF8D2F8F710E946007182FCE01992739
:101280000E94AF07C12FD0E0DC2FCC27CC27DF7125
:10129000906250CF982F90958091AA0189238093D6
:1012A000AA010895E6E7F1E09281891301C0128254
:1012B000319691E0EC37F907B9F70895A8E7B1E066
:1012C000EFEF90E02D91821751F0EF3F19F42111CB
:1012D00001C0E92F9F5F9630A9F7EF3F09F4089509
:1012E0000E2E000CFF0BEA58FE4F8283089580916A
:1012F000600290912702981301C008958F5F877054
:10130000FACFA82FA77023E0969587952A95E1F745
:10131000FC01EE0FFF1FE80FF91FE60FF71F50E06B
:1013200040E080E0219130E00A2E02C036952795FA
:101330000A94E2F721703327042E01C0220F0A9489
:10134000EAF7822B4F5F5F4F4330510559F70895FD
:10135000953070F4883060F448E0949F9001112437
:101360006AE871E0820F932F911D0E948109089510
:101370009C5F923020F467E871E090E0F6CF80E067
:101380000895262F277091E001C0990F2A95EAF75A
:1013900023E0769567952A95E1F7FB01EE0FFF1F95
:1013A000E60FF71FE40FF51F50E040E0682F70E0F4
:1013B0008191DF0111979B01042E02C0369527957C
:1013C0000A94E2F7217021952827292328272C93B6
:1013D0004F5F5F4F4330510559F70895282F862FEF
:1013E000953068F4283058F438E0939FB001112408
:1013F000620F711D4AE851E00E94C10908959C5F87
:101400009230E0F7622F70E047E851E0F5CF80932B
:10141000E00108959091E00121E030E0F90101C080
:10142000EE0F8A95EAF7D90102C0AA0FBB1F6A9591
:10143000E2F7EA2B01C0220F4A95EAF7892F8E23A3
:10144000E81305C0292B822F0E94070A08952095D2
:101450002923F9CF21E030E001C0220F8A95EAF775
:1014600020958091E00182230E94070A08959091BF
:10147000DF01809589238093DF01282F277069F48D
:10148000891759F09091B40192FF07C0869586950F
:1014900086950E942A0A1092DF01089521E030E02B
:1014A00001C0220F8A95EAF78091E001822B0E9409
:1014B000070A08958093B2010895982F92959F701E
:1014C00020E011F0892F24E0982F9695969511F041
:1014D0002E5F892F982F969509F02F5F822F089500
:1014E000CF93C82F809117018C1751F00E94890665
:1014F000609318017093190180931A0190931B0156
:10150000C0931701CF910895EF92FF920F931F930D
:10151000CF93DF938C01EB01DC01ED91FC91222351
:1015200009F45FC040911C01411101C044E04150E9
:10153000550B81E090E07C01042E02C0EE0CFF1CF4
:101540000A94E2F7CF01B7010E94122D9B01CB0153
:10155000042E02C0880F991F0A94E2F7E81BF90BCA
:10156000D8011196FC93EE931296ED91FC91CF0168
:10157000B7010E94122DCB0102C0880F991F4A9516
:10158000E2F7E81BF90BD8011396FC93EE93129740
:101590002138BFEF3B07CCF020383105C4F421954A
:1015A0002D836138EFEF7E07A4F0603871059CF45D
:1015B00061956C8380911D01882379F0813079F0E9
:1015C000CDB7DEB7E6E00C94962C21E8E8CF2FE704
:1015D000E6CF61E8EDCF6FE7EBCF1D82F1CF1C8244
:1015E000EFCFE1382FEFF207BCF0E038F105B4F4AB
:1015F000E195EA83D80112968D919C918138BFEFD5
:101600009B0774F0803891056CF48B83F80111828C
:10161000108213821282D4CFE1E8EACFEFE7E8CF5D
:1016200081E8F3CF8FE7F1CF9C01860F971F37FD3D
:1016300007C077FD04C097FF02C08FEF9FE70895B2
:1016400077FFFDCF97FDFBCF80E090E80895E82F6E
:10165000E295EF70F0E031A1282F2F7081E090E04B
:1016600001C0880F2A95EAF7932F982B91A392A196
:101670008095892382A30895E82FE295EF70F0E02A
:1016800031A1282F2F7081E090E001C0880F2A95AA
:10169000EAF7982F9095932391A392A1892B82A387
:1016A000089520E430E043E060E087EF0E949B2A49
:1016B00008950F931F93CF93DF938B01EA019091CD
:1016C0001D02943061F58093E9008FEF9091E8005E
:1016D000815095FD06C095ED9A95F1F700008111B6
:1016E000F5CF8091E80085FF1AC00E944B0581115B
:1016F00011C08091E80085FD06C08091E8008E77DA
:101700008093E800F2CFF80181918F018093F1007E
:10171000219779F78091E8008E778093E800DF9138
:10172000CF911F910F91089546E050E0BC0184E0F5
:101730000E94590B0895CF93DF93EC0148E050E0ED
:10174000BC0181E00E94590B88E0FE01A3E1B2E0F8
:1017500001900D928A95E1F7DF91CF91089581E094
:101760008093E00080E28093D8001092C9008FE15E
:101770009EE40197F1F700C0000087E090EBDC01E8
:101780008093720490937304A0937404B0937504CF
:1017900088E19CE00FB6F894A895809360000FBE96
:1017A00090936000FFCFCF93C82F0E94510B8C2FD6
:1017B0000E94142B8FE792E00197F1F700C0000020
:1017C0000E942C2BC82F95E09A95F1F700000E94FB
:1017D000442B85E68A95F1F7000010926F048C2F58
:1017E000CF910895CF93DF93D82FC62F0E94510B2E
:1017F0008D2F80680E94142B8C2F0E94142B8AEB53
:101800008A95F1F700C00E94442B83E492E001978F
:10181000F1F700C00000DF91CF910895682F843266
:1018200008F063E26093150191E0909316019091A6
:101830000901992339F06150811101C064E08FE002
:101840000E94F20B089590911501911101C095E04D
:10185000282F880F330BA901490F511DCA011816F3
:10186000190614F081E090E00E940E0C0895ACE09F
:10187000B0E0EDE3FCE00C94782C4F835887698747
:101880007A878B879C8780910901882309F446C059
:1018900080916F04811107C060E080E50E94F20B27
:1018A00081E080936F040E94510B80E50E94142B0D
:1018B0008AEB8A95F1F700C00E942C2B0E942C2BFA
:1018C0000E942C2B7C010E942C2B20E0E22AF82A7B
:1018D0000E942C2B8C010E942C2B20E0022B182B19
:1018E0000E94442B85E08A95F1F70000F894B70137
:1018F00080910D0190910E010E94140B90930E01A6
:1019000080930D01B80180910F01909110010E9408
:10191000140B9093100180930F0178940E94890614
:101920000091810110918201209183013091840105
:101930006B017C01C01AD10AE20AF30A9701860101
:10194000083011052105310508F449C06093810173
:101950007093820180938301909384010091180118
:101960001091190120911A0130911B01601B710B1C
:10197000820B930B623371058105910580F41092FF
:101980000E0110920D011092100110920F01109291
:101990001201109211011092140110921301209162
:1019A000170141E0BE01695F7F4F8DE091E00E9429
:1019B000840A2091170180910901282740E0BE0187
:1019C000695F7F4F81E191E00E94840A86E0FE0119
:1019D0003796A2E2B1E001900D928A95E1F786E098
:1019E000FE013796DE01119601900D928A95E1F77E
:1019F00029813A814B815C816D817E8180E090E01C
:101A00002C96E8E00C94942CE0E4F1E083E0DF0114
:101A10001D928A95E9F7ECE3F1E084E0DF011D9285
:101A20008A95E9F708952091390130913A012817F4
:101A3000390731F090933A01809339010E94040DE7
:101A4000089590913701981721F0809337010E94F3
:101A5000040D0895CF936CEC71E089ED91E00E9444
:101A60009506C82F882321F089ED91E00E94C206D7
:101A70009091DA0186E0E9EDF1E0DF01282F1D9277
:101A80002A95E9F79093DA01ACECB1E001900D9260
:101A90008A95E1F781E0C11103C0911101C080E096
:101AA0008170CF910895CF93DF93682F81E06A30E2
:101AB00019F06D3031F480E00E94E20DDF91CF919A
:101AC000089580916D0490916E0426E0FC01A7E6D4
:101AD000B4E001900D922A95E1F7603E08F459C0F8
:101AE00026E0FC0111922A95E9F7C0916D04D0918E
:101AF0006E0446E050E0BE0187E694E00E94332D7C
:101B0000892B59F1CE01875692409C0145E03695CC
:101B100027954A95E1F741E050E0BA0102C0660F0F
:101B2000771F2A95E2F79B0160916502709166022A
:101B3000262B372B059665E0969587956A95E1F7F4
:101B4000FA0102C0EE0FFF1F8A95E2F7CF01822B48
:101B5000932B90936602809365029E01215632403A
:101B600040916402642F70E0C9010E945A2C481B06
:101B7000463010F4240F311D2115F2E03F0710F01C
:101B800030E020E029593D4F30936E0420936D04DE
:101B900095CFF6E06F9FB00111246A597B4F46E064
:101BA00050E00E94A52CA1CFCF93DF93EC01FE0162
:101BB0008491811103C0DF91CF9108950E94530D4C
:101BC0002196F5CFCF93382FE0916D04F0916E04FC
:101BD000E756F24020916402622F70E0CF010E942C
:101BE0005A2C281B822F332361F066E00E94062DB9
:101BF000C82FC15010F4CF91089580E20E94530D78
:101C0000F8CF9F01280F311D2115324018F080E0D8
:101C1000F0E0E0E08E0F9F2F911D89599D4F90932A
:101C20006E0480936D04E7CF0E94D40D81E00E9482
:101C3000E20D08958091AA019091A901892B8093CA
:101C400076019091A801992361F0892B8093760108
:101C5000E8E7F1E097E080E0915019F581111092EA
:101C6000A80148E050E060EA71E086E791E00E9458
:101C7000332D892BA9F088E0E6E7F1E0A0EAB1E096
:101C800001900D928A95E1F7E0910902F0910A0224
:101C9000309731F00280F381E02D86E791E00995DD
:101CA000089521912223C1F28F5FD6CF882321F09E
:101CB0000E944A090E941A0E0895882339F09091D3
:101CC000AA01892B8093AA010E941A0E0895CF932E
:101CD000DF93C9E7D1E060E0CE010E94D22C2196CB
:101CE000C11584E0D807B9F7DF91CF9108950F931C
:101CF0001F93CF93DF93843000F561111EC094E0F1
:101D0000899FE0011124C759DE4F82E090E044230F
:101D100011F090E080E0632F022F142F8C0F9D1F95
:101D20000E94D22C83E090E0112311F081E090E03A
:101D3000602F8C0F9D1F0E94D22CDF91CF911F919D
:101D40000F9108951F93CF93DF93C62F8430E8F44B
:101D50006530D8F44830C8F4632F122F90E1C99F42
:101D6000E001112450E0440F551FC40FD51F90E52A
:101D7000899FC00DD11D1124CE0189960E94D22CBD
:101D8000612FCE018A960E94D22CDF91CF911F91B4
:101D90000895B0E0A0E0EFECFEE00C94762C03ECAC
:101DA00013E0D12CC12CB12C7601A12C19C0FE015D
:101DB000EE0DFF1DEE0FFF1FED57FD4F25913491E6
:101DC0004C2F6A2D8B2D0E94A20E2196C830D10572
:101DD00071F788E0E80EF11CA39485E0A81619F0CD
:101DE000D0E0C0E0E4CFF8012591349141E060E01B
:101DF0008B2D0E94770EF80132962591349140E0A8
:101E000060E08B2D0E94770E0C5F1F4FB39488E229
:101E1000C80ED11C84E0B812C7CFCDB7DEB7EAE058
:101E20000C94922CCF93C82F6FEF811166E285E25C
:101E300090E00E94D22C6FEFC11168E086E290E042
:101E40000E94D22C6FEFC11168E187E290E00E94FE
:101E5000D22CCF91089580E00E94120F60E088E2BA
:101E600090E00E94D22C0E94C90E0E94670E81E071
:101E70000E94120F0895FF920F931F93CF93DF9349
:101E8000843048F5611127C024E0829F800111242D
:101E900007591E4F82E090E0442311F090E080E06B
:101EA000F42E800F911F0E94AE2CC82FD0E0DC2FA3
:101EB000CC2783E090E0FF2011F081E090E0800FDC
:101EC000911F0E94AE2C9E01282BC901CDB7DEB711
:101ED000E5E00C94972C90E080E0F8CF0F931F93EF
:101EE000CF93DF93843030F5653020F5483010F51E
:101EF00020E1629FE001112450E0440F551FC40F00
:101F0000D51F30E5839FC00DD11D1124CE018996C8
:101F10000E94AE2C082F10E0102F0027CE018A96C9
:101F20000E94AE2C9801282BC901DF91CF911F91FF
:101F30000F91089590E080E0F8CF462F672F75301D
:101F400038F4483060F4843050F40E946E0F0895E5
:101F50007D3F41F4411103C041E0843048F090E0FE
:101F600080E008957C3FD9F74111F9CF8430B8F76C
:101F700060E00E943B0F0895CF92DF92FF920F9393
:101F80001F93CF93DF936C010091E0018091B20128
:101F9000082BC3E0D0E010E0FC2EC8010C2E02C0DC
:101FA000959587950A94E2F780FD0CC02197A0F7DC
:101FB000F12C8F2DDF91CF911F910F91FF90DF902A
:101FC000CF900895B6018C2F0E949D0F0E94530858
:101FD000019761F3EECFCF93DF93EC010E94BC0F2A
:101FE000BE010E949D0F0E945308DF91CF9108957A
:101FF000FC0124812223B9F0808191810E94EB0FA2
:1020000092959F70963089F050F49250923058F427
:10201000803F19F030F4883E30F481E008959A5002
:10202000F5CF843FD1F380E00895883EB0F3813F3F
:10203000D1F7F3CFA6E0B0E0E0E2F0E10C947D2C24
:1020400049835A8349815A819923A1F0222391F02F
:10205000CA010E94BC0F182F682F89819A810E94A3
:10206000EE0969817A81812F0E949D0F2696E3E017
:102070000C94992CCA010E94A809182FF2CF85E26E
:1020800090E00E94AE2C863289F486E290E00E94B5
:10209000AE2C883059F487E290E00E94AE2C91E09B
:1020A000883109F090E0892F8170089580E0FCCF9D
:1020B000B0E0A0E0EEE5F0E10C94782C6C017B013F
:1020C00064E670E088E70E94742B8C01E601EC0C5A
:1020D000FD1C17FD0BC0FE01849164E670E00E94B8
:1020E000E02B8C012196CE15DF0599F70E94562C26
:1020F00081E00115110509F080E0CDB7DEB7E8E019
:102100000C94942C8091070290910802911103C0C5
:1021100091E089270895882369F062E070E084E601
:1021200092E00E945810811103C080910702089527
:102130001092070280910702EBCFCF93C091070264
:10214000809108028823D1F00E948906605A754167
:102150008F4F9F4F60930302709304028093050298
:1021600090930602C11108C062E070E082E692E03E
:102170000E945810811105C0C09107028C2FCF9189
:10218000089581E080930702F7CFB0E0A0E0EBEC88
:10219000F0E10C94722C80910802882309F405C1A7
:1021A00087E692E090936E0480936D0482E892E05B
:1021B0000E94140E8CE792E00E94140E8091E001C0
:1021C0000E945D0A8130D9F148F08230D9F1833024
:1021D000E1F186E692E00E94D40D04C088E792E027
:1021E0000E94140E8091650290916602892B09F479
:1021F000C3C080910802882309F4BEC08091020206
:102200008111BAC00E949D10209165023091660232
:102210002115310509F4B0C080E041E050E0082FFD
:1022200010E03A01082E02C0660C771C0A94E2F70F
:10223000B30162237323672B59F48F5FF0CF84E7D8
:1022400092E0CECF80E792E0CBCF8CE692E0C8CF91
:102250009091010290FFAEC0880F880F880F809385
:10226000450110924801895F8093460183E0809385
:10227000490124E630E047E050E063E471E088E79C
:102280000E940E2C892B09F077C0A80185E0440F2D
:10229000551F8A95E1F78091010280FF9DC0E1EE14
:1022A000F1E080E2DF011D928A95E9F7A0E6B1E056
:1022B0000CE511E0882483942D91E80169918E0149
:1022C000640F752F711D69597D4F30E02F513E4FBE
:1022D000F90197E07F01E21AF30A982C01C0990CEA
:1022E000EA94EAF77B01B12CE70189917E0189210B
:1022F000A92EAB18DA2DD770CD2E0D2E000CDD08CF
:10230000C82F01C0CC0FDA95EAF7AC2ED194C19456
:10231000D108D7E0CD22DD240C2C01C086950A948B
:10232000EAF7DC2ED82A80818D298083B39488E057
:10233000B812DACF915031969F3F61F6C1E0A436D2
:10234000BC0709F0B9CF04E610E020E230E041EE2E
:1023500051E060E488E70E942F2C892B69F4E301A7
:10236000C095D0958091650290916602C823D923CB
:10237000D0936602C0936502809107028823A9F07A
:102380000E94890600910302109104022091050227
:1023900030910602601B710B820B930B6F3F7F4FD6
:1023A0008F4F9F4710F40E948210CDB7DEB7EEE04A
:1023B0000C948E2C8295880F80768093450198012D
:1023C000369527953695279520934801815E809311
:1023D0004601209349014DCF49595D4F04E610E075
:1023E00020E230E0B6CF9091B40192FB222720F991
:1023F000281779F080FB92F99093B4016091B301B2
:102400007091B40184E090E00E94F02C82E00E9480
:10241000370A089590E080E00E94BC2C863E9E4FD3
:1024200019F40E943F10089580E00895CF93DF9340
:102430000E94932A879A0E94510B6AE58AE30E94C0
:10244000F20B2FEF80E792E0215080409040E1F7BF
:1024500000C0000082E00E94D30B83E00E94D30BF7
:1024600084E00E94D30B85E00E94D30B86E00E949B
:10247000D30B60E080E10E94F20B80E00E94D30B5E
:10248000D82F81E00E94D30BC82F0E94442BD23456
:1024900019F481E0C13009F080E081708093090176
:1024A000882321F064E08FE00E94F20BDF91CF914E
:1024B00008951F920F920FB60F9211242F933F93FE
:1024C0004F935F936F937F938F939F93AF93BF933C
:1024D000EF93FF938091E10082FF09C08091E200B9
:1024E00082FF05C08091E1008B7F8093E1008091A5
:1024F000DA0080FF24C08091D80080FF20C0809146
:10250000DA008E7F8093DA008091D90080FF9BC033
:1025100080E189BD82E189BD09B400FEFDCF81E083
:1025200080931D0280911002811109C00E942C0528
:102530000E94CB058091E20084608093E20080914C
:10254000E10080FF17C08091E20080FF13C08091FE
:10255000E2008E7F8093E2008091E20080618093B0
:10256000E2008091D80080628093D80019BC85E099
:1025700080931D028091E10084FF29C08091E200D8
:1025800084FF25C080E189BD82E189BD09B400FED8
:10259000FDCF8091D8008F7D8093D8008091E1009D
:1025A0008F7E8093E1008091E2008F7E8093E20035
:1025B0008091E20081608093E20080911E02882376
:1025C00009F447C084E080931D0280911D02809130
:1025D000E10083FF27C08091E20083FF23C0809148
:1025E000E100877F8093E10082E080931D021092DA
:1025F0001E028091E1008E7F8093E1008091E200D5
:102600008E7F8093E2008091E20080618093E200FF
:1026100042E060E080E00E9499058091F0008860CF
:102620008093F000FF91EF91BF91AF919F918F91B7
:102630007F916F915F914F913F912F910F900FBEBE
:102640000F901F90189519BC10921D021092100245
:1026500076CF8091E30087FD02C081E0B4CF83E0B4
:10266000B2CF78941F920F920FB60F9211248F93CE
:102670009F93AF93BF9380910C0290910D02A09114
:102680000E02B0910F020196A11DB11D80930C02A4
:1026900090930D02A0930E02B0930F02BF91AF91E1
:1026A0009F918F910F900FBE0F901F9018959C01D6
:1026B0004FB7F89480910C0290910D02A0910E02F8
:1026C000B0910F024FBF821B930B08952FB7F89460
:1026D00080910C0290910D02A0910E02B0910F0218
:1026E0002FBF0895ACE3B0E0E8E7F3E10C947D2C54
:1026F0004091D9015091DA016091DB017091DC01C8
:102700008091DD019091DE010E94370C2093D90168
:102710003093DA014093DB015093DC016093DD01DB
:102720007093DE0186E0E9EDF1E0DE01599601905B
:102730000D928A95E1F786E0FE017996DE011D96FD
:1027400001900D928A95E1F786E0FE013D96DE014B
:10275000539601900D928A95E1F786E0FE017396FB
:10276000A9EDB1E001900D928A95E1F786E0E9EDDF
:10277000F1E0DE019B9601900D928A95E1F786E0EB
:10278000FE01BB96DE01179601900D928A95E1F746
:1027900086E0FE013796DE01119601900D928A9532
:1027A000E1F786E0FE013196DE015F9601900D9221
:1027B0008A95E1F786E0FE017F96DE01959601900D
:1027C0000D928A95E1F786E0FE01B596A9EDB1E09C
:1027D00001900D928A95E1F786E0E9EDF1E0DE01E6
:1027E000D19601900D928A95E1F780913701882367
:1027F00009F44EC080913C0190913D010E94571315
:1028000020913B012817190608F042C080913E0133
:1028100090913F010E945713893C9105C8F19AA9F4
:102820003CA98DA92EA94BA9411126C0311124C064
:10283000211122C0811120C081E0911101C080E0EE
:102840008170809340010E94F4061091E00188237A
:10285000D9F10E94661390933D0180933C01109240
:102860003F0110923E0180913801111107C0882369
:1028700079F00E944E0A0CC081E0E2CF212F30E0B7
:10288000082E02C0359527950A94E2F720FFF1CF74
:1028900086E0E2EDF1E0DE01D79601900D928A9597
:1028A000E1F78091DA0198AD892B8093DA010E94DB
:1028B0002A0D81112FC08091D8011092D80181700A
:1028C000EC96E3E00C94992C20913801111118C07A
:1028D0002111DECF80913C0190913D010E94571360
:1028E0002091390130913A012817390788F68091F3
:1028F00038010E942A0A10923D0110923C01C8CF73
:10290000812F90E002C0959587952A95E2F780FF88
:10291000BFCFE0CF81E090E0D0CF0E94661320913E
:10292000D401211104C02091D501222321F09093DC
:10293000CB018093CA012091D601211104C02091BE
:10294000D701222321F09093C9018093C80182ED21
:1029500091E00E94C2060895CF931092AA01C6E0AA
:10296000E8E7F1E0DF018C2F1D928A95E9F71092DC
:10297000A9010E941A0EE2EDF1E0DF011D92CA9555
:10298000E9F71092C5011092C6011092C7010E948A
:102990008D14CF910895AAE2B0E0E1EDF4E10C943A
:1029A0007D2CEFE1F2E08091F100819382E0E7324B
:1029B000F807C9F780912002833009F47FC008F539
:1029C000813009F456C0823009F4C0C08091E8001B
:1029D00083FFFAC080911F02909120029A3008F084
:1029E000F3C0E92FF0E0E950FB4E0C94262DB7150B
:1029F000DD15E415DD15E41535165716E4155617E3
:102A000063178A3009F491C08B3009F474C089309F
:102A1000E9F680911F028132C9F6809123029091DC
:102A20002402009711F0029789F68091E800877FD1
:102A30008093E8008091E80082FF3BC08091F30022
:102A40009091F200892798278927029731F4809185
:102A5000F100813011F0863021F48091F1008093F3
:102A600012028091E8008B778093E8000E947A053B
:102A7000ADCF80911F02813A09F0A8CF8091E80084
:102A8000877F8093E8008091230290912402892B14
:102A900061F060E090E080E070E00E9426068091A6
:102AA000E8008B778093E80091CF68E083E192E0C3
:102AB000F3CF80911D028111BDCF88CF80911F027D
:102AC000813A09F083CF8091230290912402892BCF
:102AD00009F07CCF8091E800877F8093E8008091A7
:102AE000E80080FFFCCF80914A018093F100809143
:102AF000E8008E77B9CF80911F02813209F066CF4E
:102B00008091230290912402892B09F05FCF80915C
:102B1000E800877F8093E8000E947A058091210277
:102B200080934A010E94AC1451CF80911F028132E0
:102B300009F04CCF8091E800877F8093E8000E94E5
:102B40007A05809122028093110240CF80911F026A
:102B5000813A09F03BCF8091E800877F8093E800BD
:102B60008091E80080FFFCCF80911102BECF8038B9
:102B700089F0823849F5809123028F70873020F5E3
:102B80008093E9008091EB0085FB882780F9109203
:102B9000E90006C080911B0290911C029111826095
:102BA0009091E800977F9093E8008093F100109255
:102BB000F1008091E8008E7727C0282F2D7F21F427
:102BC0008823A1F0823029F18091E80083FF0AC0B8
:102BD0008091E800877F8093E8008091EB0080621D
:102BE0008093EB00AA96E3E00C94992C809121024B
:102BF000813051F7933009F080E080931C021092ED
:102C0000E9008091E800877F8093E8000E947A05C0
:102C1000DBCF809121028111F2CF809123028F704E
:102C20002FEF280F263080F68093E9002091EB00EB
:102C300020FFE5CF933031F48091EB0080628093E8
:102C4000EB00DDCF9091EB0090619093EB0021E0E1
:102C500030E001C0220F8A95EAF72093EA00109233
:102C6000EA008091EB008860EACF8111ADCF10912E
:102C700021021F778091E3008078812B8093E3000D
:102C80008091E800877F8093E8000E947A05809118
:102C9000E80080FFFCCF8091E30080688093E30030
:102CA00083E0111101C082E080931D028DCF805816
:102CB000823008F089CF20912102309122022C3DF0
:102CC000A3E03A07A1F583E08A838AE289834FB7BC
:102CD000F894DE01139620E03EE051E2E32FF0E0AD
:102CE00050935700E49120FF03C0E295EF703F5FDF
:102CF000EF708E2F90E0EA30C0F0C7968D939D93D1
:102D00002F5F243159F74FBF8091E800877F809370
:102D1000E8006AE270E0CE0101960E9426068091EA
:102D2000E8008B778093E8004FCFC096E7CF809183
:102D3000230290912402432F55274330510509F473
:102D40004FC078F54130510509F445C08BE590E05E
:102D5000E3EDF3E04230510509F036CF2091E80071
:102D6000277F2093E80020912502309126028217C8
:102D7000930708F49C0140E02115310509F063C078
:102D8000411161C08091E80082FDC9CF80911D0290
:102D9000882329F2853019F28091E80083FFF2CF71
:102DA000BECF4132510509F43FC04232510509F00E
:102DB0000BCF8330910508F007CFFC01EE0FFF1F0A
:102DC000E959FE4F0190F081E02D8C599E4FDC01B6
:102DD0008C9190E01DC082E190E0EEE2F4E0BECF85
:102DE000332721303105C1F060F02230310509F080
:102DF000EBCEE0E4F4E0E4918E2F90E0E0E4F4E048
:102E000007C0E2E6F4E0E4918E2F90E0E2E6F4E021
:102E1000009709F4D9CEA2CFEEE4F4E0E4918E2F2E
:102E200090E0EEE4F4E0F4CF8330910508F0CCCEEE
:102E3000880F991FFC01E359FE4F0190F081E02DAE
:102E400089E090E08BCF80911D02882309F467CF41
:102E5000853009F464CF8091E80083FD60CF8091D4
:102E6000E80082FD8FCF8091E80080FF85CF8091C0
:102E7000F3009091F20089279827892721153105C1
:102E800019F08830910550F041E0089709F040E0D2
:102E90008091E8008E778093E8006ECF4491409354
:102EA000F1003196215031090196E8CF803809F0C0
:102EB0008BCE8091E800877F8093E80080911E028E
:102EC0008093F10076CE81117FCE109121021230D5
:102ED00008F07ACE8091E800877F8093E800109315
:102EE0001E020E947A051123D1F084E080931D0216
:102EF00042E061EC81E00E94990542E261EC84E0ED
:102F00000E94990542E261EC82E00E94990542E24A
:102F100060EC83E00E94990580911D0255CE80915E
:102F2000E30087FDE2CF81E0E1CF1F920F920FB661
:102F30000F9211242F933F934F935F936F937F933F
:102F40008F939F93AF93BF93CF93EF93FF93C091D2
:102F5000E900CF708091EC001092E9008091F000C0
:102F6000877F8093F00078940E94CB141092E90040
:102F70008091F00088608093F000C093E900FF9199
:102F8000EF91CF91BF91AF919F918F917F916F9171
:102F90005F914F913F912F910F900FBE0F901F9017
:102FA00018950E94AC142FEF84E39CE021508040E0
:102FB0009040E1F700C0000088E19CE00FB6F89473
:102FC000A895809360000FBE90936000FFCF6623AA
:102FD00009F46CC08D3C41F40E94300781958093C8
:102FE000D5010E948D1408958E3C19F40E9430077B
:102FF000F6CF8F3C31F40E94300781958093D40145
:10300000F0CF803D19F40E943007F8CF893D29F4B4
:103010000E940E078093D601E4CF8A3D21F40E94DE
:103020000E078195F7CF8B3D31F40E940E078195F5
:103030008093D701D6CF8C3D19F40E940E07F8CFAC
:103040002FE2280F2830E8F4815D990B41E050E031
:1030500001C0440F8A95EAF78091D301842B8093B5
:10306000D30181E090E0AC0102C0440F551F2A95C6
:10307000E2F78091DA01842B8093DA010E942A0D15
:1030800008958D3D31F48091C70181608093C7011F
:10309000A8CF8E3D21F48091C7018260F7CF8F3D8C
:1030A00009F08CC08091C7018460F0CF4FE2480FD7
:1030B0008D3C41F59091D50197FF2AC01092D50122
:1030C0008091D401811106C08091D501811102C087
:1030D0001092C5018091D601811106C08091D7015F
:1030E000811102C01092C601483008F07ACF81E009
:1030F00090E001C0880F4A95EAF780959091DA0137
:103100008923BACF8E3CC9F49091D5011916B4F237
:10311000483008F03EC0815D990B21E030E0B901F4
:1031200002C0660F771F8A95E2F7CB0180959091D8
:10313000D30189238093D301C3CF9091D4018F3CD5
:1031400029F497FFE5CF1092D401BACF803D19F44E
:103150001916CCF3DDCF9091D601893D29F41916CB
:10316000BCF61092D601ACCF8A3D19F497FFD0CFB0
:10317000F8CF8B3D39F49091D70197FFC9CF1092CA
:10318000D7019ECF8C3D21F69091D7011916BCF343
:10319000BFCF8D3D31F48091C7018E7F8093C701F1
:1031A0008FCF8E3D21F48091C7018D7FF7CF8F3D6A
:1031B00009F086CF8091C7018B7FF0CF283008F4CB
:1031C00050CF0FCF882309F444C0823879F40E948D
:1031D000D00681FF3EC089E30E945E090E941A0E5C
:1031E00089E30E9452090E941A0E0895833859F407
:1031F0000E94D00680FF2DC083E50E945E090E94D8
:103200001A0E83E5EECF843859F40E94D00682FF6F
:1032100020C087E40E945E090E941A0E87E4E1CF75
:103220009CEF980F913AE8F290E2980F983050F4A2
:10323000877091E001C0990F8A95EAF7892F0E9463
:103240004A09D1CF93E3980F933118F460E00E94BC
:10325000E7170895CF938823D1F0C82F8238C9F497
:103260000E94D00681FD13C089E30E945E090E947E
:103270001A0E2FEF87EE93E0215080409040E1F747
:1032800000C0000089E30E9452090E941A0ECF91EB
:1032900008958338A1F40E94D00680FDF8CF83E51D
:1032A0000E945E090E941A0E2FEF81EE94E02150D9
:1032B00080409040E1F700C0000083E5E4CF84380F
:1032C000A1F40E94D00682FDE2CF87E40E945E094D
:1032D0000E941A0E2FEF81EE94E021508040904022
:1032E000E1F700C0000087E4CECF8CEF8C0F813A6D
:1032F00070F4E8E7F1E08EE791E02191C21711F157
:103300008E179F07D1F78C2F0E945E09BECF80E2F7
:103310008C0F883068F4C77021E030E001C0220FC4
:10332000CA95EAF78091AA01822B8093AA01ADCFBA
:1033300083E38C0F833108F0AACF61E08C2F0E94C9
:10334000E717A5CF8C2F0E9452090E941A0EDBCFDF
:103350001F93CF93DF93182FC5E0D0E0893311F48A
:10336000C0E5D0E0812F0E942A198FE99FE00197E4
:10337000F1F700C000002197C1F7812F0E94E218E9
:10338000DF91CF911F9108950F931F93CF93DF93F8
:10339000C62FD42F122FFC0185818823A9F06093BA
:1033A00063020E9466139093620280936102C77069
:1033B00081E001C0880FCA95EAF70E945D0EDF9197
:1033C000CF911F910F91089580916302681332C0CD
:1033D00080916102909162020E945713883C91058E
:1033E00048F500E20D0FCD17B9F080E28C0F883060
:1033F00040F4C77081E001C0880FCA95EAF70E94C7
:10340000560E0830F0F481E09D2F977001C0880FB0
:103410009A95EAF70E945D0E812F0E94A819083044
:1034200070F6D77081E001C0880FDA95EAF70E9444
:10343000560EC5CFC77081E001C0880FCA95EAF764
:10344000F6CF812F0E94A819BACFA8E0B0E0EBE236
:10345000FAE10C946E2CFC018481882309F4B5C038
:103460008F0121E0408151816281738195810E94A9
:103470001A107C01D8011596DC90DD2009F45DC19D
:1034800097578038910508F058C1BFE0BE1508F481
:103490008CC08FEF93E00E94AE2C811186C0E9E7CB
:1034A000AE2EBB24B394E1104DC02E0123E0420E9A
:1034B000511C86E0D2011D928A95E9F77AE0372EF9
:1034C0007501BFEFEB1AFB0AC5010E94AE2C898380
:1034D0001A82882309F469C0813009F07AC0650135
:1034E000E2E0CE0ED11CC7010E94AE2C8A83882355
:1034F00009F45BC09FEF980F933090F5F3E0AF0EA7
:10350000B11CC6010E94AE2C8B83882309F44DC0E8
:103510001C829E012F5F3F4F7901D7012C912223FE
:1035200079F2213009F0B4C011969C91119712964E
:103530008C91913009F04FC0B2E0EB0EF11C0E946B
:10354000A81950C0A114E4E0BE0679F1C5010E949B
:10355000AE2C811101C0EA94FFEFAF1ABF0AA3CFCE
:1035600056018430B1F6420162E0E62EF12C56019C
:103570002FEFA21AB20AC6010E94AE2CD4018D937D
:103580004D01882391F08C3741F4E2E0F0E0EC0F3C
:10359000FD1FEE0DFF1D1082BCCFBFEFEB1AFB0A23
:1035A0006501E7E0EE16F10411F78091DF01877005
:1035B00061F0D80115968C91882339F08091B4017F
:1035C00082FF03C082E00E94370A2896E2E10C9451
:1035D0008A2C57019ECF923039F5E2E0EE0EF11CB5
:1035E0000E942A19EFEFEE1AFE0A8FE99FE0019779
:1035F000F1F700C00000AFE9BFE01197F1F700C09C
:103600000000EFE9FFE03197F1F700C000008FE91B
:103610009FE00197F1F700C00000AFE9BFE011970C
:10362000F1F700C0000079CF933031F4F2E0EF0EF3
:10363000F11C0E94E218D6CF943021F02FEFE21A4D
:10364000F20AD0CF32E0E30EF11C30E020E0B70107
:103650006F5F7F4FD70111964C918053990B8A3041
:10366000910558F02150310908F4BCCFEFE9FFE093
:103670003197F1F700C00000F5CF329EF001339E84
:10368000F00D11249C012E0F3F1F842F7B01DFCFF3
:10369000E22FF0E0E557FE4F2490822F8695869525
:1036A000869590E0FC01E558FE4F64902770712CE0
:1036B000022E02C0759467940A94E2F731E0632207
:1036C0007724FC01E559FE4F8490912C022E02C014
:1036D000959487940A94E2F7A1E08A229924FC0148
:1036E000E55AFE4FC490D12C02C0D594C7942A95B8
:1036F000E2F7B1E0CB22DD246114710419F081EE10
:103700000E942A198114910419F086EE0E942A1948
:10371000822D0E94A8198114910419F086EE0E944E
:10372000E2186114710419F081EE0E94E218C114CC
:10373000D10409F457CF8CE202CF8091370188235E
:1037400009F46FC0B0E2EB16B2E5FB0608F052C018
:10375000E114E2E5FE0608F007C1E114F0E4FF061B
:10376000E0F5E11420E2F20608F02AC130EEE3169B
:10377000F10450F088EEE816F10408F44DC0E114AD
:1037800091E0F90608F048C0F8018481882309F423
:1037900043C0F7E0EF16FEE7FF0609F4FCC0C701DF
:1037A0008D5C9109439708F4F6C00E94F4068111DC
:1037B00033C0DD2059F0809138012091E0012111C2
:1037C00006C1882309F40CC10E94040D0E946613EF
:1037D00090933F0180933E011FC0E114A0E5FA06DB
:1037E00008F0DDC0F8018681807F09F0E9C08F2DE7
:1037F0009927DBC0B0E8EB16B2E5FB0608F08AC0FB
:10380000E0E6EE16E2E5FE0608F0AEC0F0E4EF16E4
:10381000F2E5FF0608F4B6C08091420187FD1092E0
:103820004201F0921F01E0921E01D8018D919C91FE
:1038300011979093210180932001F7013497E5338C
:10384000F105A8F4E55FFD4FE49115968C9120EB0E
:10385000882311F02E2FE0EBA8E2B1E090E080E0A9
:103860003D913E13C0C0875F9E4FFC01278FD8015A
:1038700015968C9197013A9521153F4108F456C150
:10388000E7E0EE16EEE7FE0609F0B3C00E94700A0C
:10389000D80115968C91882309F4F8C4109263021C
:1038A000C7019057839708F0DFC484E090E00E943E
:1038B000BC2C9093B4018093B301F701E150F04721
:1038C000E232F10508F062C1E859F34E0C94262D5E
:1038D000001E751E081ED21DD61D0C1EDA1D101EE0
:1038E0001C1EE61D6E1EEA1D201EEE1D241E4C1E13
:1038F000F21D281E531EF81D2E1E361EDE1D141E20
:10390000E21D181EFC1D321E421E5C1E6C1ECC1DCC
:10391000041E7C1E20ECE21622E5F20608F47CCFA1
:1039200030EEE31632E5F30608F02ECF2091380191
:10393000C7018F7199272817190609F06DCF8D2DB2
:103940000E94DD06D80116968C911697807F8035EF
:1039500009F062CF15968C91882361F18091420124
:1039600081508093420158CF20913801C7018F7157
:1039700099272817190609F04FCFD1104DCF0E9473
:10398000EB064ACF20913801C7018F71992728177C
:10399000190609F041CF8D2D0E94DD063DCFC701EC
:1039A00055E0969587955A95E1F78F709927209164
:1039B0003801EDCF0E94EB06809142018F5FD1CF9D
:1039C000D80116968C91807F09F426CFDDCE30E0A9
:1039D000082E02C0359527950A94E2F720FFF4CE11
:1039E0000E942A0AF1CE01968630910509F038CF5F
:1039F0003ECF882309F49AC0F701FE57E031F10564
:103A000008F094C0EA5FF24E0C94262D161D231D7B
:103A1000461D4A1D4C1D4E1D501D961D571D661DF1
:103A2000761D7D1D8A1D711D6D1D741D80E00E9417
:103A30000E0C10921C0180E00E94210D8AE892E099
:103A40000E94130DB2CD4091150120911C0120FB65
:103A500047F9269523708091370180FB22F98091E8
:103A6000390190913A0162E370E00E945A2C5FEFB5
:103A7000560F550F550F550F522B60911D01637056
:103A800070E08FE090E00E94E42C8FCD81E00E94F6
:103A9000230C8BCD8FEFFBCF8AE0F9CF86EFF7CFEA
:103AA0009091170181E089270E94700A7ECD809154
:103AB0001C01811101C084E08F5F18160CF081E0B9
:103AC000883008F087E080931C016FCD80911C0145
:103AD000811101C084E08150F0CF81E080931D010D
:103AE00064CD10921D0161CD82E0F8CF9091370135
:103AF00081E089270E94210D58CD80913901909154
:103B00003A01C296893EF3E09F0708F499CF88EE08
:103B100093E096CF8091390190913A01C297843613
:103B2000910508F08DCF84E690E08ACFF701E85147
:103B3000FC47E730F10508F0ABCEEF55F24E0C94A0
:103B4000262DB31DB71DA81DAF1DBB1DBF1DC31D59
:103B500026E241EE61EEC8010E94C41926CD27E29B
:103B600045EE65EEF8CF26E241EE60EEF4CF27E2B7
:103B700045EE64EEF0CF26E241EE62EEECCF27E2B6
:103B800045EE66EEE8CF28E241E0EBCF8091B3014D
:103B900081608093B30195C08091B4018860809367
:103BA000B4018FC08091B3018260F3CF8091B301E3
:103BB0008460EFCF8091B3018860EBCF8091B40136
:103BC0008160EDCF8091B4018260E9CF8091B30133
:103BD0008061DFCF8091B3018062DBCF8091B30140
:103BE0008064D7CF0E94AC148091B3018068D1CF9C
:103BF0008091B3018860DCCF8091B4018260E0CF16
:103C00008091B3018E7FC5CF8091B401877FC7CFEC
:103C10008091B3018D7FBDCF8091B3018B7FB9CFF0
:103C20008091B301877FB5CF8091B4018E7FB7CFEC
:103C30008091B4018D7FB3CF8091B3018F7EA9CFE6
:103C40008091B3018F7DA5CF8091B3018F7BA1CFF0
:103C50000E94AC148091B3018F779BCF8091B30108
:103C6000877FDCCF8091B4018D7FE0CF8091B3015D
:103C700082FB992790F921E0922790FB82F990FB33
:103C800083F987CF8091B401982F909591708E7FA2
:103C9000892B90FB81F983CF9091B301892F8F7B82
:103CA00096FF806476CF0E94AC149091B301892F67
:103CB00097FB87F980586DCF61E08EE090E00E941D
:103CC000D22C6091B3017091B40184E090E00E9425
:103CD000F02C0E94AC1469CC60E0EFCF9091B3015E
:103CE000892F8F7E94FF806154CF9091B301892FEB
:103CF0008E7F90FF81604DCF9091B401892F877F97
:103D000093FF88604CCF89E20E945E090E941A0EE0
:103D10004CCC89E20E945209F9CFB7E7EB16BCE719
:103D2000FB0609F46CC0E8E7EE16ECE7FE0609F4C2
:103D30006CC0F8018581E080F180882309F499C086
:103D4000C7010E94BC0FD82E682FC7010E94EE0940
:103D5000B7018D2D0E949D0F0E9453087C01982E63
:103D6000D8011596BC9015971696AC90A2943FE09A
:103D7000A3228091DF018770F1F0CB2CBB20E1F012
:103D80008F2D807F803451F080E28E0D883098F046
:103D9000A11004C08F2D807E803269F08091B40123
:103DA00082FF09C082E00E94370A8091DF0187709C
:103DB000CC24C3948111C12CDF2CD2942FE0D222C9
:103DC000BBE0BD1508F4FDC1ED2DF0E0E651F14E6C
:103DD0000C94262D3E1F3E1F781F781FE1201F20C8
:103DE000E120E12024209020A320A32081E00E9454
:103DF0004E0A43E062E081E00E940A0AD6CB81E0ED
:103E00000E942A0AF6CF82E0F2CF82E0F9CF9BE54A
:103E1000E9169CE7F90659F1ACE5EA16ACE7FA06B3
:103E2000E1F0BAE5EB16BCE7FB0609F082CF81E0D2
:103E30001BC00E94AC14EFEFF4E32CE0E150F04023
:103E40002040E1F700C000000E94AF0B6FEF7FEF52
:103E500090E080E00E94F02C45C28091B40182FB8A
:103E6000882780F991E089270E94F31162CF80E0D2
:103E7000FBCFC7010E94A809D82E6ACFEF2DEF70A3
:103E8000DE2E8F2D807F19F0D29490EFD9228E2DC7
:103E9000BB20B9F0DD2069F090E29E0D983010F063
:103EA000E11009C08091AA01D82AD092AA010E94EB
:103EB0001A0E8E2D45C08091A901D82AD092A90151
:103EC000F6CF0E94E218DD20E9F180E28E0D883005
:103ED00010F0911004C08D2D0E944A0906C0D094A4
:103EE0008091A901D822D092A9010E941A0E2AC05D
:103EF000FF2DFF70DF2E8F2D807F803219F0D2943E
:103F000080EFD8228E2D992059F021E0921609F4E5
:103F100071C0BB2009F47DC0AA2009F440C0C9CFFC
:103F20008091B40182FD37C0BB2079F1DD2039F0EA
:103F30008091AA01D82AD092AA010E941A0E80E08C
:103F40000E942A19CC20B1F08091DF0180FD12C0BF
:103F5000D80115961C928695869586950E944E0AE4
:103F6000C8010E94251A8091DF0186958695869565
:103F70000E942A0A20E0F801408151816281738108
:103F8000848195810E941A1020CB80E00E94E21863
:103F9000DD20C1F2A0CFBB2099F0A11004C08D2D6F
:103FA0000E945D0ECFCF31E0A312CCCF8091A8014B
:103FB0009D2D9823D91631F2D82AD092A801C2CFCC
:103FC000A110C0CF8D2D0E94560E9091A8018D2D6D
:103FD000892329F08D2D809589238093A8018091D4
:103FE00086019D2D982309F4ADCFD094D822D0928C
:103FF0008601A8CFBB2029F085E08A1508F4A2CF5E
:10400000CECF94E09A1508F49DCF8D2D0E94560EC8
:1040100099CFAA20D1F3893369F4AFEFB7EEE3E08B
:10402000A150B040E040E1F700C000008E2D0E949A
:10403000E21888CF8FE19EE40197F1F7F5CF6B2D61
:104040008E2D0E94E7177ECF8F2D837099F5B110CA
:1040500026C04E2D429546954770440F440F8E2D35
:104060008F70042E01C0880F0A94EAF720E0E4FE66
:1040700007C02FE030E001C0220F4A95EAF72095F3
:104080003F2D369536953370323079F060F440919B
:10409000B201313039F0822B84230E945A0A0E94E7
:1040A000D00650CF842B822BF8CF282B8091B201E1
:1040B0008227F3CF8695BB2011F08F2D8170882346
:1040C00071F34E2D429546954770440F440F8E2D47
:1040D0008F70042E01C0880F0A94EAF720E0E4FEF6
:1040E00007C02FE030E001C0220F4A95EAF7209583
:1040F0003F2D369536953370323069F050F440914B
:10410000E001313029F0822B84230E94070AC7CFB7
:10411000842B822BFACF282B8091E0018227F5CFC8
:104120009F2D9F70F92EBB2039F0892F0E944E0AD7
:104130008E2D0E945D0EB3CF8E2D0E94560E8F2DB8
:104140000E942A0AACCF8E2DA2EF9A1609F43FC026
:10415000A91580F0B0EF9B16F1F0E1EF9E16A1F0EB
:10416000BB2009F468C0AA2009F462C08E2D0E9409
:104170002A1927C0F3EF9F1689F124EF9212F0CF8E
:104180008091B40182FD35C08F2D8F71BB2019F154
:104190000E944E0A16C0BB2089F034E03A1588F020
:1041A0002F2D2F7181E090E001C0880F2A95EAF74A
:1041B0009091E00189270E94070A03C085E08A15D3
:1041C00078F788EF8D0D843008F0BCCE68CF8F2D46
:1041D0008F71BB20E9F20E942A0AF3CF80E0BB2056
:1041E00051F39F2D9F7181E001C0880F9A95EAF7E6
:1041F000E2CFBB2099F09F2D9F71F92E892F0E944D
:104200004E0A8091B40182FF07C0A8E0FA9EC00167
:10421000112483608093DF018F2DBACF81E00E944B
:10422000370AB1E0BA1568F682E00E94370AC9CFB2
:104230008F2D8F71ADCFAA20A1F0893369F4EFEFF4
:10424000F7EE23E0E150F0402040E1F700C000002D
:104250008E2D0E94E218B5CF8FE19EE40197F1F711
:10426000F5CF8F2D8F71B7CFF6E1EF16FCE7FF0684
:10427000D1F48091AA018A7A91E009F490E09093B8
:104280008501882309F43FCD85E33ECD26E1E21682
:104290002CE7F20609F041CD80918501882309F4CD
:1042A00038CD85E337CD37E7E3163CE7F30609F46D
:1042B0009DCD88E7E8168CE7F80609F4A4CDF3E075
:1042C000EF16FCE7FF0609F4C1CD08F0A0CDE1141C
:1042D0003CE7F30609F4ADCD81E0E8168CE7F8067B
:1042E00009F027CD0E94D117CF93DF9380919F01D2
:1042F000807F09F04DC080919E01882309F448C059
:10430000E091600250912702C0919A01D0919901E9
:1043100060919B0170919C0147E05E17C9F18E2F5F
:1043200090E0E49FF0011124E85DFD4F24812223F9
:1043300091F1489FF001499FF00D1124DF01A85D24
:10434000BD4F11962C9111972C1325C02C912D1334
:1043500022C015962C91159721111DC012962D91F2
:104360003C91261B370B283C3105A8F480919F0116
:104370008F70806180939F01E25DFD4F80818F701F
:104380008061808389E991E00E94251A0E94770963
:10439000DF91CF910895FC013196E770BECFA4E183
:1043A000B0E0E5EDF1E20C94742C8C0186E0F801AC
:1043B000DE011F9601900D928A95E1F7F801848144
:1043C000E58099E9A92E91E0B92E90919D01911176
:1043D00028C0882319F1EE20F1F0C8010E94F80FDF
:1043E000F82E8823C1F087E0F801D50101900D92E5
:1043F0008A95E1F780919D01813031F48091990196
:1044000090919A010E94EB0F0E9474218F2D649667
:10441000ECE00C94902CC8010E94251AFF24F39420
:10442000F5CFD080C18082809380F0909E01209152
:104430009B0130919C01A401421B530BFF2009F406
:10444000D8C0483C510508F091C08823F9F29091FA
:104450009A0180919F01282F207F09F055C0C91231
:1044600014C090919901D91210C0E11047C08F700B
:10447000806180939F0189E991E00E94251A8091D3
:104480009F01F8018683F12CC1CFE11037C06C2D5C
:104490008D2D0E940D056C2D8D2D0E940D05E82E91
:1044A0008111F1CFDF86C88A8F8598890E94EB0F32
:1044B000292F22952F70243058F49F70223080F0DD
:1044C000992391F0F8019681907F71F4FE2C9ECF94
:1044D0002A50223068F0C8010E94251AEF2CF6CF2E
:1044E000992311F0882391F3805E8830A0F7EECFF6
:1044F000803F60F3815F833070F7E8CF80919F0148
:10450000816080939F01BFCFC91207C0909199012C
:10451000D91203C0EE2009F48DC0C8010E94F80F23
:10452000882309F478CFEE2009F475CF80919F019C
:10453000803288F02091990130919A01398728873B
:104540009B868A8690919D019C871D868E87CE01D1
:1045500008960E94251A87E0F801A9E9B1E00190C8
:104560000D928A95E1F70E94742158CF90919F0196
:10457000292F207F51F489E991E00E94251A87E0D4
:10458000F50111928A95E9F77ECF882309F43ECF91
:1045900080919A018C1110C080919901D8120CC0A1
:1045A000E1100AC09683C8010E94251A87E0F50130
:1045B00011928A95E9F72ACFC8010E94F80F882343
:1045C00009F429CFEE2009F426CF80919F01803293
:1045D00010F22091990130919A013A8329839C82AB
:1045E0008B8290919D019D831E828F83CE010196C7
:1045F000B0CF483C5105D0F6882309F40FCFFE2CEC
:10460000EE2009F408CF80919A018C1120C080918E
:104610009901D8121CC080919F0180FD0FC0982F76
:10462000907F61F08683903F31F0982F907F905F6C
:104630008F70892B8683C8010E94251A87E0F801B4
:10464000A9E9B1E001900D928A95E1F7DFCEC801AA
:104650000E94F80F81117FCF80919F01816080932C
:104660009F01C8010E94251AD1CEABE1B0E0EBE377
:10467000F3E20C947C2C4E8B5F8B688F798F8A8F42
:104680009B8F192F91111092A9011D8A86E0FE01BE
:104690007696DE011F9601900D928A95E1F70A8DBC
:1046A000002341F021E04F85588969897A89C80142
:1046B0000E941A100B8B1C8B87E0FE013F96DE01D7
:1046C000189601900D928A95E1F7CE0108960E9406
:1046D000CF2181112AC087E0FE013896DE011196B4
:1046E00001900D928A95E1F78C858823F1F0209155
:1046F000270230E0C9010196877099274091600236
:104700004817190659F197E0929FD001939FB00D79
:104710001124A85DBD4FFE01319601900D929A952E
:10472000E1F7809327020E94770917E080916002E9
:10473000909127028917F9F0819FC0011124885DAB
:104740009D4F0E94CF218823B1F08091600290E0BC
:1047500001968770992780936002E8CF0E94AC147D
:10476000109227021092600287E0E9E9F1E0DF0190
:104770001D928A95E9F76B96E4E00C94982CA6E0DC
:10478000B0E0E5ECF3E20C947C2C0E9466138C0103
:104790008091AB019091AC018017910781F0198253
:1047A0001A820E946613682F49815A81792F80E00E
:1047B00090E00E9435231093AC010093AB01269644
:1047C000E4E00C94982CA5E0B0E0E9EEF3E20C9460
:1047D000702CCE0101967C0185E0D7011D928A954F
:1047E000E9F73701570190E0C92E91E0D92E442412
:1047F0004394512CF60181916F010E94270B00C058
:1048000085E0882E81E0982EF40110E000E02191EF
:10481000A22FA295AF70B0E090968C9190E02F708F
:1048200002C0959587952A95E2F780FD0AC0D501CB
:104830008C919201002E01C0220F0A94EAF7822B7C
:104840008C930F5F1F4F0430110509F7F601319764
:1048500080810E943C0BB0EABA95F1F7EFEFAE1AF7
:10486000BE0AF5E0CF16F1E0DF0621F6DD24D39491
:10487000D4018D914D010E94270B00C03D2D002ECB
:1048800001C0330F0A94EAF7F70140E051E0DA0182
:104890002D91AD01822F82958F7090E0DC01909672
:1048A0008C9190E02F7002C0959587952A95E2F73C
:1048B00080FD03C08081832B80833196B1E0453039
:1048C0005B0729F7F401319780810E943C0BE0EAF5
:1048D000EA95F1F70F5F1F4F0830110549F6EDEA31
:1048E000F1E085E0E80EF11C10E0D3018D913D016F
:1048F0009191891721F0DF0111978C9311E0E61453
:10490000F70499F7112349F081E0809380010E9418
:10491000661390937F0180937E01809180018823AC
:10492000E9F080917E0190917F010E9457130597D5
:10493000A8F045E050E06DEA71E080EC91E00E9463
:10494000332D892B49F085E0EDEAF1E0A0ECB1E0F0
:1049500001900D928A95E1F710928001812F2596A2
:10496000E0E10C948C2C1F920F920FB60F92112441
:104970008F939F93AF93BF9380910B02811113C0CC
:1049800080910C0290910D02A0910E02B0910F0245
:104990004196A11DB11D80930C0290930D02A0932E
:1049A0000E02B0930F02BF91AF919F918F910F9024
:1049B0000FBE0F901F901895AEE3B0E0E2EEF4E268
:1049C0000C946E2C85B7806885BF85B7806885BFDD
:1049D00084B7877F84BF0FB6F894A8958091600054
:1049E000886180936000109260000FBE80E890E0C4
:1049F0000FB6F89480936100909361000FBE8EE52E
:104A000097E090937501809374010E942C050E9499
:104A1000CB058091E20084608093E20078948091DD
:104A20001D02882399F01091E9001F708091EC001D
:104A300080FFEFC080E8182B1092E9008091E80019
:104A400083FD0E94CB141F701093E90082E084BDA7
:104A500093E095BD9AEF97BD80936E000E943F1042
:104A6000811102C00E942B0F81E08093BD015398F9
:104A70005B9A52985A9A8FE891E00197F1F700C03B
:104A800000003091BD01EEEBF1E090E09313C3C064
:104A9000809105010E943C0B809106010E943C0B15
:104AA000809107010E943C0B809108010E943C0B01
:104AB00000E011E0E5E0EE2EE1E0FE2ED8018D9160
:104AC0008D010E943C0BE016F106C1F71092AD017A
:104AD0001092C0011092AE011092C1011092AF016C
:104AE0001092C2011092B0011092C3011092B10154
:104AF0001092C4010E940A12811167C066EE7EEF17
:104B000090E080E00E94F02C60E082E090E00E9463
:104B1000D22C60E083E090E00E94D22C1092B2018F
:104B200060E074E184E090E00E94F02C60E086E0B8
:104B300090E00E94D22C6FEF87E090E00E94D22C90
:104B400040E050E0BA0188E090E00E94E42C60E090
:104B500084E290E00E94D22C60E087E190E00E9425
:104B6000D22C60E08CE090E00E94D22C60E08DE0DE
:104B700090E00E94D22C19821A821B821C821D8214
:104B80001E821F82188648E050E068E170E0CE0186
:104B900001960E94C22C40E050E0BA0180E290E011
:104BA0000E94E42C80E00E94120F0E942B0F40E034
:104BB00050E0BA018FE090E00E94E42C40E050E029
:104BC000BA0183E190E00E94E42C82E090E00E9430
:104BD000AE2C8093B50184E090E00E94BC2C9093B1
:104BE000B4018093B3010E94E323EFE3FCE9319722
:104BF000F1F700C000000E94E3238091C00180FF14
:104C000017C06FEF7FEF90E080E00E94F02C0E94D1
:104C1000AF0B80E010CF89B183FB882780F94A9BD6
:104C200005C022E0822B81939F5F30CF20E0FACF36
:104C300083E090E00E94AE2C0E945A0A83E08093A9
:104C4000010280E2809364020E946E2B6BE070E0B0
:104C500087E592E00E9458108823E9F180910102D3
:104C600065E070E081FDCAC082E592E00E945810C4
:104C7000882389F16DE070E080E492E00E94581092
:104C8000882349F10E948906605A75418F4F9F4FD2
:104C900060930302709304028093050290930602CE
:104CA000E7E6F2E080E092E0DF019C011D922150F6
:104CB0003040E1F7F0936E04E0936D048FEF9FEFC7
:104CC000909366028093650281E08093080280934E
:104CD0000702109202020E9416120E940A128823F2
:104CE00079F18FE090E00E94B62C8B01F82E862F90
:104CF0008F770E940E0C001F0027001F612F63702A
:104D0000660F602B60931C0112FB882780F90E94BC
:104D1000210D812F887F09F474C01695169516957C
:104D2000212F30E02F5F3F4F42E3429FC001439F5E
:104D3000900D11240E94130D8F2D837080931D01FF
:104D40008FE291E090930A028093090268E1462E77
:104D5000512CFF24F39476E0A72EB12C80911D02F4
:104D600000E112E1853009F488C00E94E32306EBDC
:104D700011E050ECC52E51E0D52ED601F8019191ED
:104D80008D9121E0EB3BF20709F481C09817B9F34C
:104D9000E12CD6019D906D01F80161908F0169149D
:104DA00021F1812C772473946924862D8721A9F021
:104DB00089AEEAAE0E9466139CAF8BAFF1E0FDAF07
:104DC00091E0892D872109F490E09EAF49AD5AAD5D
:104DD0006BAD7CAD8DAD0E9435238394770C28E0BC
:104DE0008212E3CFF80131979082E39435E0E31229
:104DF000D0CF0E948906772473944EC08DE492E050
:104E000035CF8AE892E096CF80911D02843031F14F
:104E10000E9482100E94721310920B0230E40FB6AF
:104E2000F894A895409260000FBE3093600083B75D
:104E3000817F846083BF83B7816083BF78948895C6
:104E400083B78E7F83BF0FB6F894A89580916000DA
:104E5000886180936000109260000FBE80911C02F8
:104E6000882359F00E94E323E0ECF1E08191811165
:104E700032C341E0E53CF407C9F780911D0285305B
:104E800009F4C2CF0E94AC140E94D0066ECF9813D2
:104E90007FCF0E94BF23712C10E000E092E0692ECA
:104EA0002DEFE22E3CEF332E43E0242E8091BD0106
:104EB000181788F0002319F00E948906702E0E94AE
:104EC0007213882309F4A7C00E9489060E94C510A6
:104ED0000E949D10A4C0C12ED12CE9B1E3FBEE27A6
:104EE000E0F94A9B96C082E08E2BD601A254BE4FB9
:104EF000EC919E2F9370891709F489C0EE0FEE0F85
:104F0000E82BEC93EF70F0E0E45BFE4FC6018454B5
:104F10009E4F4C018081D4019C91890F8C9320E09D
:104F200086309CF1F601E554FE4F80818F5F8083CF
:104F30000E9466131DA73EA6682F8FA798AB29AACB
:104F4000FAAA412F5CEF792F83E091E00E9435238C
:104F5000EFE1FEE43197F1F700C000000E94661314
:104F60001BAB3CAA682F8DAB9EAB2FAA18AE412F6E
:104F70005CEF792F83E090E00E9435238FE19EE47F
:104F80000197F1F700C0000021E0D4018C918B3F24
:104F90009CF5F601E554FE4F8081815080830E948C
:104FA000661319A3EAA2682F8BA39CA36DA2FEA28D
:104FB000412F5DEF792F82E091E00E943523EFE1F0
:104FC000FEE43197F1F700C000000E9466131FA3B2
:104FD000E8A6682F89A79AA76BA61CA6412F5DEFAC
:104FE000792F82E090E00E9435238FE19EE40197C3
:104FF000F1F700C0000021E0D4018C91082E000CD4
:10500000990BB5010E94122DF4018083022B1F5FC2
:105010004DCF80E069CF0E94C510711059CF86E056
:10502000E2EDF1E08E010F5F1F4FD80101900D926C
:105030008A95E1F71092D4011092D5011092D60111
:105040001092D7018B81811104C08C81882309F4CF
:1050500047C08091CA019091CB010E9457139C01D7
:105060009091C501992309F454C225313105C0F14D
:105070009F3F19F09F5F9093C501EB80EE2059F0A0
:105080000E94300791E01E140CF09FEF899F802D45
:1050900011248093D401EC80EE2059F00E94300757
:1050A00091E01E140CF09FEF899F802D11248093B6
:1050B000D5018091D401882399F0E090D501EE20AC
:1050C00079F00E945007882309F4C4C08093D4016A
:1050D0008E2D0E945007882309F4BFC08093D5010C
:1050E0008D81811104C08E81882309F447C080918D
:1050F000C8019091C9010E9457139C019091C6016B
:10510000992309F40BC221353105C0F19F3F19F0F5
:105110009F5F9093C601ED80EE2059F00E940E072C
:1051200091E01E140CF09FEF899F802D1124809335
:10513000D601EE80EE2059F00E940E0791E01E1479
:105140000CF09FEF899F802D11248093D7018091CF
:10515000D601882399F0E090D701EE2079F00E94E3
:105160005007882309F47CC08093D6018E2D0E94BD
:105170005007882309F477C08093D701B80182EDE6
:1051800091E00E949506811113C08091D401811194
:105190006DC08091D501811169C08091D6018111C6
:1051A00065C081E09091D701911101C080E080FD40
:1051B0000E948D1486E0F801A2EDB1E001900D92FD
:1051C0008A95E1F70E94D0069091BF01891721F0DE
:1051D0008093BF010E94890680911D02843009F0EE
:1051E000BDCD83E08093E9008091E80082FFB6CDD9
:1051F0008091E80090E085FF06C00E944B0588235F
:1052000009F436C091E08091E8008B778093E80044
:10521000992309F4A3CDE981E150E53108F04FC0AD
:10522000F0E0EB5EF64D0C94262D54295829912977
:10523000A229AA29B5295F295F295F295F295F294A
:10524000B829BB29BF29E529072A0A2A0C2A312AAD
:10525000522A5C2AF092D4013BCFF092D50140CF84
:10526000F092D60183CFF092D70188CF81E09FCF13
:1052700080E2882E912C68018091E80085FD0AC0AB
:105280008091E8008B778093E8000E944B0588238B
:1052900099F3B8CF8091F100D6018D936D01B1E003
:1052A0008B1A910849F7AECF1A828CE08B8319C014
:1052B0008A81823009F425C128F4813061F08FEFB2
:1052C00089830FC08330A1F08430C9F71B821C8210
:1052D0001D821E8206C00E9489069B838C837D836B
:1052E0006E8340E250E0B80182E00E94590B36CD57
:1052F0004B81DE01149690E080E0242F30E0B9016C
:10530000680F791F6530710560F7E42FE80FF0E052
:10531000E054FE4F50815D9301968C31910579F7F1
:10532000E0CF8A81823019F08530D9F2C8CF6B8105
:105330007C818D819E810E942C2D88E290E00E94CC
:10534000D22CCFCF4C816B818A810E946E0F9D83BE
:105350008E83C7CF2D813E813227232732274C8170
:105360006B818A810E94A20EBCCF0E94C90EB9CF68
:1053700080E18A83B6CF82E08A8387E897CFCA80AC
:10538000DB80DC24CD24DC248C80912C3801C60108
:1053900087589E4F9301201B310B2815390508F0C3
:1053A000A0CFE7E8CE16E2E0DE0660F40E94AE2C65
:1053B000D30114968C93FFEFCF1ADF0A2FEF621AF6
:1053C000720AE5CFF3011482F6CF6A807B807624DF
:1053D000672476248C80912C6301C60187589E4FE8
:1053E0009601261937092815390508F07ACF47E8BC
:1053F000C41642E0D40638F4200F311FD9011496A8
:105400006C910E94D22CBFEFCB1ADB0AE6CF0E9430
:10541000670E67CF84E0ADCFCA80DB80DC24CD246B
:10542000DC248C80912C3801C60189969301201BC5
:10543000310B2815390508F054CFE0E4CE16E1E031
:10544000DE0660F40E94AE2CD30114968C93FFEF1D
:10545000CF1ADF0A2FEF621A720AE6CFF301148225
:10546000F6CF6A807B807624672476248C80912C0A
:105470006301C60189969601261937092815390551
:1054800008F02FCF40E4C41641E0D40638F4200FD2
:10549000311FD90114966C910E94D22CBFEFCB1A08
:1054A000DB0AE7CF41E08C81811101C040E06B81D4
:1054B0008A810E943B0F4BCF2D813E8132272327CB
:1054C000322741E08C81811101C040E06B818A81EB
:1054D0000E94770E06CF09BD19BD09B400FEFDCFAD
:1054E0008091D8008F7D8093D8008091E000826009
:1054F0008093E0008091E00081FDFCCF0E94AC141D
:10550000BCCC88E290E00E94AE2C1B821C821D82E3
:105510001FCF2B30310508F0ADCDE2CD2B3031055A
:1055200008F0F6CD2BCE289A219A229A23982B9810
:1055300080E58CBD089590914B019F3F09F072C0AA
:105540008F3F09F46FC0611145C0109271049091B2
:105550007104423009F442C0433009F443C09460FE
:105560004130E9F141E050E042175307E8F19091F2
:1055700071044031510509F453C0C8F5423051055A
:1055800009F447C04830510509F447C09CB5209143
:105590007104922B9CBD90917004992319F09DB5D4
:1055A00091609DBD80934B01E82FE295EF70F0E094
:1055B00031A1282F2F7081E090E001C0880F2A953B
:1055C000EAF7932F982B91A392A18095892382A328
:1055D00081E0089590E290937104B9CF9860909320
:1055E0007104C0CF9C60FBCF440F551FBDCF40342A
:1055F000510549F04038510541F04032510531F62E
:1056000021E020937004926001C093609093710434
:10561000BDCF91E090937004B9CF21E02093700446
:105620009160F4CF80E00895CF93DF938EBD0E9408
:105630006613EC010DB407FE05C08EB590E0DF9156
:10564000CF9108950E9466138C1B9D0B84369105A3
:1056500088F38EEF9FEFF3CFCF93DF931EBC0E94B2
:105660006613EC010DB407FE05C08EB590E0DF9126
:10567000CF9108950E9466138C1B9D0B8436910573
:1056800088F38EEF9FEFF3CF80914B018F3F29F18D
:10569000E82FE295EF70F0E041A18F7021E030E05B
:1056A000B90102C0660F771F8A95E2F7CB01942FEC
:1056B000982B91A392A1892B82A38FEF80934B010A
:1056C0008DB58E7F8DBD9CB58091710480958923A9
:1056D0008CBD109271041092700408951092B9005C
:1056E0008CE08093B8000895B0E0A0E0EAE7FBE228
:1056F0000C94752CB82EEB010E9466136C01EE24FD
:10570000E394F12CC431D10560F025E0E22EF12CB8
:10571000CF3FDC0731F0CE0164E170E00E945A2CEB
:105720007B0184EAA82E94E8992E1092BC00A092E6
:10573000BC000E9466138C018091BC0087FF0DC0E5
:105740008091B900887F8830F9F08091B900887F16
:105750008031D1F00FEF1FEF08C0C8010E9457132E
:10576000E816F90648F70EEF1FEFCF3FDC07E9F226
:10577000C6010E945713C817D907B8F6C801CDB79C
:10578000DEB7EBE00C94912CB092BB009092BC0081
:105790000E9466138C018091BC0087FF0AC0809133
:1057A000B900887F883111F08034A1F610E000E064
:1057B000E5CFC8010E945713E816F90660F7D3CF6A
:1057C0000F931F93CF93DF93EB018093BB0084E88B
:1057D0008093BC000E9466138C018091BC0087FFFF
:1057E00011C02091B900287F81E090E0283211F4A7
:1057F00090E080E0919581959109DF91CF911F9183
:105800000F910895CF3FDC0741F3C8010E94571361
:10581000C817D90710F78EEF9FEFEFCFB0E0A0E0E9
:10582000E4E1FCE20C94782C6B018A017901B90166
:105830000E94742BE6010C0D1D1DC017D10711F03D
:1058400097FF08C024E92093BC00CDB7DEB7E8E09D
:105850000C94942CB70189910E94E02BEECFB0E01C
:10586000A0E0E5E3FCE20C94782CC62F6A017901F4
:10587000B8010E94742B97FD0CC0B8018C2F0E94B8
:10588000E02BE601EC0CFD1CCE15DF0511F097FFB7
:1058900008C024E92093BC00CDB7DEB7E8E00C9443
:1058A000942CB80189910E94E02BEECF84E980937B
:1058B000BC000895AA1BBB1B51E107C0AA1FBB1F58
:1058C000A617B70710F0A61BB70B881F991F5A958C
:1058D000A9F780959095BC01CD0108952F923F9234
:1058E0004F925F926F927F928F929F92AF92BF92F0
:1058F000CF92DF92EF92FF920F931F93CF93DF939C
:10590000CDB7DEB7CA1BDB0B0FB6F894DEBF0FBEF8
:10591000CDBF09942A88398848885F846E847D8445
:105920008C849B84AA84B984C884DF80EE80FD8047
:105930000C811B81AA81B981CE0FD11D0FB6F894BD
:10594000DEBF0FBECDBFED010895FB01DC0102C03B
:1059500005900D9241505040D8F70895F999FECF27
:1059600092BD81BDF89A992780B50895A6E1B0E06F
:1059700044E050E00C94F82CA8E1B0E042E050E0A4
:105980000C94F82CDC01A40FB51F4150504048F096
:10599000CB01840F951F2E910E94D32C4150504073
:1059A000D0F70895262FF999FECF92BD81BDF89AC0
:1059B000019700B4021639F01FBA20BD0FB6F89453
:1059C000FA9AF99A0FBE08950396272F0E94D32CB6
:1059D0000E94D22C252F0E94D32C242F0C94D32C40
:1059E0000196272F0E94D32C0C94D22CDC01CB01E2
:1059F000FC01F999FECF06C0F2BDE1BDF89A3196DF
:105A000000B40D9241505040B8F70895991B79E0C9
:105A100004C0991F961708F0961B881F7A95C9F73E
:105A20008095089597FB072E16F4009407D077FD14
:105A300009D00E945A2C07FC05D03EF49095819520
:105A40009F4F0895709561957F4F0895EE0FFF1F4A
:105A50000590F491E02D0994692796276927782706
:105A6000872778270895FB01DC0104C08D91019000
:105A7000801921F441505040C8F7881B990B0895B4
:045A8000F894FFCFC8
:105A8400946697C63435F4F5360000000000000033
:105A94000000000000000000000000000000000002
:105AA4000000000000000000B0B0B0B0B0B000864C
:105AB400069B0B940B850600038A02190000000064
:105AC4000000000021007F22000301FF00FF01000D
:105AD400010000FFFF0000010001FF000008101892
