:100000000C94DD040C9415050C9415050C94150541
:100010000C9415050C9415050C9415050C941505F8
:100020000C9415050C9415050C94352F0C94083080
:100030000C94CE280C9415050C9415050C941505FC
:100040000C9415050C9415050C9415050C941505C8
:100050000C9415050C9457290C9415050C94150552
:100060000C9415050C9415050C9415050C941505A8
:100070000C9415050C9415050C9415050C94150598
:100080000C9415050C9415050C9415050C94150588
:100090000C9415050C9415050C9415050C94150578
:1000A0000C9415050C9415050C941505414E4C4700
:1000B000004D4F55530044494749004A4F590000ED
:1000C000556E6465660033726400326E640031738D
:1000D0007400307468004C4159455200001F001EE6
:1000E0000021002000230022002500240004000538
:1000F000000600070014001500160017000800098C
:10010000000A000B0018001900000000000C000D90
:10011000000E000F000000000000000000100011A1
:10012000001200130000000000000000001A001B75
:10013000001C00000000000000000000000400059A
:10014000000600070014001500160017000800093B
:10015000000A000B0018001900000000000C000D40
:10016000000E000F00000000000000000010001151
:10017000001200130000000000000000001A001B25
:10018000001C00000000000000000000000400054A
:1001900000060007001400150016001700080009EB
:1001A000000A000B0018001900000000000C000DF0
:1001B000000E000F00000000000000000010001101
:1001C000001200130000000000000000001A001BD5
:1001D000001C0000000000000000000000040005FA
:1001E000000600070014001500160017000800099B
:1001F000000A000B0018001900000000000C000DA0
:10020000000E000F000000000000000000100011B0
:10021000001200130000000000000000001A001B84
:10022000001C000000000000000000000000AE0004
:10023000AF00DA0281FFD9F1DB20A4A62EAF00A027
:10024000C0D30000A1C8D30000AED580A81F408D48
:1002500014200007087F0807003E5B4F5B3E003E0E
:100260006B4F6B3E001C3E7C3E1C00183C7E3C18D5
:10027000001C577D571C001C5E7F5E1C0000183C54
:10028000180000FFE7C3E7FF00001824180000FF74
:10029000E7DBE7FF0030483A060E002629792926D9
:1002A00000407F05050700407F05253F005A3CE7D9
:1002B0003C5A007F3E1C1C0800081C1C3E7F00149A
:1002C000227F2214005F5F005F5F0006097F017FCD
:1002D00000006689956A0060606060600094A2FF1B
:1002E000A2940008047E04080010207E201000085C
:1002F000082A1C0800081C2A0808001E10101010EC
:10030000000C1E0C1E0C0030383E383000060E3E2D
:100310000E060000000000000000005F000000006A
:100320000700070000147F147F1400242A7F2A127C
:100330000023130864620036495620500000080765
:10034000030000001C224100000041221C00002A82
:100350001C7F1C2A0008083E08080000807030003E
:10036000000808080808000000606000002010086D
:100370000402003E5149453E0000427F40000072A9
:1003800049494946002141494D33001814127F1054
:10039000002745454539003C4A4949310041211172
:1003A000090700364949493600464949291E0000D7
:1003B0000014000000004034000000000814224136
:1003C00000141414141400004122140800020159EE
:1003D0000906003E415D594E007C1211127C007FDF
:1003E00049494936003E41414122007F4141413E59
:1003F000007F49494941007F09090901003E414107
:100400005173007F0808087F0000417F41000020F1
:1004100040413F01007F08142241007F404040409E
:10042000007F021C027F007F0408107F003E4141D4
:10043000413E007F09090906003E4151215E007FCF
:10044000091929460026494949320003017F010361
:10045000003F4040403F001F2040201F003F4038E9
:10046000403F006314081463000304780403006130
:1004700059494D4300007F414141000204081020CA
:1004800000004141417F000402010204004040405D
:100490004040000003070800002054547840007FCB
:1004A0002844443800384444442800384444287FD1
:1004B0000038545454180000087E09020018A4A4FF
:1004C0009C78007F080404780000447D40000020F0
:1004D00040403D00007F102844000000417F400064
:1004E000007C04780478007C0804047800384444D4
:1004F000443800FC182424180018242418FC007C1C
:10050000080404080048545454240004043F4424BC
:10051000003C4040207C001C2040201C003C40301F
:10052000403C004428102844004C9090907C0044AB
:1005300064544C440000083641000000007700007D
:10054000000041360800000201020402003C26239C
:10055000263C00000000000000404040F0F8F8FF9A
:1005600038FFF8F83FF8F8FF38FFF8F8F04040405F
:1005700000000000000080C0C0C0800000C0C0803B
:1005800000000080C0C000C0C0000080C0C00000EB
:10059000000000C0C0C0C0C000C0C000000000001B
:1005A000000000000000000000000000000000004B
:1005B000000000000000000000000000000000003B
:1005C000000000000000000000000000000000002B
:1005D0000000C0F0F8FC3E1E06010000007F414113
:1005E000417F007F4141417F000080C0E07E5B4F42
:1005F0005BFEC00000C000DCD7DEDEDED7DC00C062
:1006000000000000000000000000000000000000EA
:10061000000000000000000000494949FFFFFFFF03
:10062000E0DFBFBF00BFBFDFE0FFFFFFFF49494979
:1006300000000000001F3F6060E0BF1F007F7F07D9
:100640001E381E077F7F007F7F0E1F3B71600000FA
:100650000000007F7F0C0C0C007E7E007F7E030379
:10066000007F7E03037E7E03037F7E000F3E703C8F
:10067000063C703E0F00327B49493F7E007F7E037F
:1006800003001E3F69696F260000000000000000A3
:100690000000030F1F3F3C7870600000007F414165
:1006A000417F007F4141417F00307B7F78302020B7
:1006B00030787F3B0003000F7F0F0F0F7F0F000389
:1006C000000000000000000000000000000000002A
:1006D000000000000000000000010101070F0F7F73
:1006E0000F7F0F0F7E0F0F7F0F7F0F0F070101018D
:1006F00000000000000000000000010100000000F8
:1007000000000000000000000000000000000000E9
:1007100000000000000000000000000000000000D9
:1007200000000000000000000000000000000000C9
:1007300000000000000000000000000000000000B9
:1007400000000000000000000000000000000000A9
:100750000000000000000000000000000000000099
:100760000000000000000000000000000000000089
:100770000000000000000000000000000000000079
:100780000000000000000000000000000000000069
:1007900000000000000000000000002A2B280000DC
:1007A0000000000000000000000000000000290020
:1007B0000000002C1E3420212224342627252E362A
:1007C0002D3738271E1F2021222324252633333698
:1007D0002E37381F0405060708090A0B0C0D0E0FEB
:1007E000101112131415161718191A1B1C1D2F316E
:1007F00030232D350405060708090A0B0C0D0E0FD2
:10080000101112131415161718191A1B1C1D2F314D
:1008100030354C0000000000000000000000000027
:1008200000000000000000000000000000000000C8
:10083000000000000000007E0F00D4FFFFFFC70093
:100840000000780C0367006200630032003400008F
:100850000012036B0075007300680069006D006191
:1008600000380000000403090409025B00030100D2
:10087000A0FA09040000010301010009211101008F
:100880000122440007058103080001090401000258
:100890000300000009211101000122220007058246
:1008A00003200001070503032000010904020001E1
:1008B00003000000092111010001227D00070584C9
:1008C0000320000112010002000000083839343210
:1008D0000100010200010660FF0961A10109621522
:1008E0000026FF009520750881020963150026FF88
:1008F00000952075089102C005010902A101850239
:100900000901A1000509190129081500250195080B
:10091000750181020501093009311581257F950294
:100920007508810609381581257F950175088106AE
:10093000050C0A38021581257F950175088106C0CE
:10094000C005010904A1018507A1000501093009BD
:10095000311601FE26FF0195027510810205091965
:100960000129011500250195017501810295077581
:10097000018101C0C005010906A101050719E0298F
:10098000E71500250195087501810295017508811B
:10099000010507190029FF150026FF0095067508B7
:1009A0008100050819012905150025019505750126
:1009B0009102950175039101C00011241FBECFEF74
:1009C000DAE0DEBFCDBF04B603FE18C08091890413
:1009D00090918A04A0918B04B0918C048730904B45
:1009E000A740B04B59F41092890410928A041092D7
:1009F0008B0410928C04E0E0F8E3099511E0A0E08C
:100A0000B1E0E8E7FBE602C005900D92A238B1071D
:100A1000D9F724E0A2E8B1E001C01D92A938B207DD
:100A2000E1F70E94C0180C94BA350C940000E82F2E
:100A3000E295EF70F0E031A1282F2F7081E090E077
:100A400001C0880F2A95EAF7982F9095932391A3D8
:100A500092A1892B82A30895E82FE295EF70F0E030
:100A600031A1282F2F7081E090E001C0880F2A95D6
:100A7000EAF7932F982B91A392A18095892382A3C3
:100A800008950895CF93DF93809100010E94170588
:100A9000809101010E941705809102010E941705B3
:100AA000809103010E941705C4E0D1E089910E9462
:100AB000170581E0C930D807C9F7DF91CF910895B4
:100AC000A5E0B0E0E6E6F5E00C946532CE010196D3
:100AD0007C0185E0D7011D928A95E9F7370167010E
:100AE00024E0822E21E0922E312C44244394512C78
:100AF000F40181914F010E942C050E94521890E050
:100B0000A92E91E0B92EF50110E000E02191A22F6D
:100B1000A295AF70B0E090968C9190E02F7002C0DB
:100B2000959587952A95E2F780FD0AC0D6018C91AC
:100B30009201002E01C0220F0A94EAF7822B8C93B7
:100B40000F5F1F4F0430110509F7F40131978081C1
:100B50000E94170560E0832D0E9454183394BFEF64
:100B6000CB1ADB0AE5E03E12C3CFCC24C3948CEF52
:100B7000D82ED00ED5018D915D010E942C050E94CA
:100B800052183C2D002E01C0330F0A94EAF7F701EA
:100B900044E051E0DA012D91AD01822F82958F70F2
:100BA00090E0DC0190968C9190E02F7002C09595BA
:100BB00087952A95E2F780FD03C08081832B80838F
:100BC0003196B1E049305B0729F7F5013197808113
:100BD0000E94170560E08D2D0E9454180F5F1F4F73
:100BE0000830110521F6C7010E944105E8E6F2E050
:100BF00085E0E80EF11C10E0D3018D913D0191914B
:100C0000891721F0DF0111978C9311E0E614F704A6
:100C100099F7212F45E06DE672E088E692E00E94A8
:100C200075180E944418812F2596E1E10C948132B9
:100C3000873941F178F4863359F130F4843321F166
:100C4000853321F18FE108958439D1F08639D1F7C8
:100C500081E20895843F71F030F4803FD9F0813F04
:100C600089F781E00895863F49F030F0873F51F7DA
:100C700087E0089584E0089585E0089586E008956A
:100C800080E2089582E2089583E2089584E208955F
:100C900085E2089580E0089596E890937A00982F71
:100CA0009072906890937B008F7190910901892BCD
:100CB00080937C0080917A00806480937A00809198
:100CC0007A0086FDFCCF8091780020917900909188
:100CD0007A009F7790937A00922F08950E941806C9
:100CE0000E944C0608958091250190912601892B40
:100CF00031F48091270190912801892B91F070E0C7
:100D000060E080E00E94002370E060E081E00E94EB
:100D100000231092260110922501109228011092B2
:100D200027010895A6E0B0E0E8E9F6E00C947332FC
:100D30009FEF980F9430A8F4162FE82FF0E0EE0FF5
:100D4000FF1FEA5BFE4F8081918199838A830E9415
:100D50003029682F49815A81792F81E0912F0E9493
:100D60004C0B2696E3E00C948F328091240188236B
:100D700029F060E00E9492061092240108954F929B
:100D80005F926F927F928F929F92AF92BF92CF921B
:100D9000DF92EF92FF92CF93C0E1C12CD12C76016C
:100DA000812C912C540186EF0E946E06092E000CB6
:100DB000AA0BBB0B880E991EAA1EBB1E87EF0E94B2
:100DC0006E06092E000CAA0BBB0BC80ED91EEA1E1C
:100DD000FB1E8FE39FE10197F1F700C00000C150B7
:100DE00011F780E1482E512C612C712CC501B40102
:100DF000A30192010E94073230931E0120931D012E
:100E0000C701B601A30192010E940732309320016D
:100E100020931F01CF91FF90EF90DF90CF90BF9074
:100E2000AF909F908F907F906F905F904F900895BC
:100E3000A6E0B0E0EEE1F7E00C946A328091220186
:100E4000909123010E9448290A97B8F00E94302906
:100E5000909323018093220186EF0E946E067C010D
:100E600087EF0E946E068C0180911C01813009F48D
:100E700061C038F0823009F4F7C02696ECE00C949B
:100E800086320E94730680911D0190911E01E81A1E
:100E9000F90A20911F0130912001021B130B9701C9
:100EA0002A5B3F4F2D38310530F498012A5B3F4FC4
:100EB0002D38310558F10937110534F508382FEF71
:100EC0001207B4F189E7E816F104CCF4E8E8EE166D
:100ED000EFEFFE065CF1A701F7FE04C0442755279B
:100EE0004E195F09980117FF04C022273327201BE2
:100EF000310B241735072CF41E141F04BCF412E028
:100F000006C010161106A4F411E001C010E0809193
:100F10002401811709F4B1CF60E00E94920661E0DC
:100F2000812F0E94920610932401A7CF14E0EFCFE7
:100F300013E0EDCF0E94B5060E94730680911D015B
:100F400090911E01E81AF90A80911F0190912001E9
:100F5000081B190B9701F7FE04C0222733272E190F
:100F60003F09C80117FF04C088279927801B910BF0
:100F70008217930708F067C04C01880C991C880EF3
:100F8000991E73E0969487947A95E1F7820E931EEA
:100F9000F9E78F16910408F470CFA0912101940114
:100FA00028573109B0E00E943B3228E831E040E0A8
:100FB00050E00E94E5316901121613061CF0CC24A2
:100FC000C394D12CB12CA12C9701D6010E943332AD
:100FD000A50194010E94073291E8F92E21388FEF84
:100FE00038074807580744F0F22E203831054105EC
:100FF000510514F08FE7F82E22273327201B310BE1
:10100000D6010E943332A50194010E940732213893
:10101000EFEF3E074E075E071CF120383105410512
:10102000510504F5F11003C0222309F426CFCE01A7
:10103000019636E0FC0111923A95E9F7FB822C8388
:101040000E94DE271ACF4901880C991C820E931E3C
:1010500053E0969487945A95E1F7880E991E98CF9D
:1010600021E8E5CF2FE7E3CF0E94B506C701B0E046
:10107000A0E020911D0130911E01821B930BA1095C
:10108000B10960E07EEF8115FEEF9F07FFEFAF072C
:10109000BF0744F0BC0181159240A105B10514F0D1
:1010A0006FEF71E030E020E040911F01509120018E
:1010B000041B150B2109310901158EEF18078FEF5D
:1010C00028073807ACF10115E2E01E0721053105BC
:1010D00094F59B01245C3F4F2937310510F470E0F3
:1010E00060E09801245C3F4F2937310510F410E08F
:1010F00000E020912501309126012617370741F4A1
:1011000020912701309128012017310709F4B5CE2D
:101110007093260160932501109328010093270105
:1011200080E00E940023B80181E00E940023A5CE48
:1011300000E01EEFCECF0FEF11E0CBCF80911C016E
:101140000895A6E0B0E0E7EAF8E00C94733283304B
:1011500060F490911C01981741F0182F913061F0C4
:1011600040F0923099F010931C012696E3E00C9425
:101170008F320E94B506F7CFCE01019626E0FC0122
:1011800011922A95E9F70E94DE27EDCF0E9473069F
:10119000EACF809121010895809121018E3220F4BF
:1011A0008B5F80932101089582E3FBCF8091210121
:1011B000482F4550550B1416150634F4855043330B
:1011C00051051CF082E301C081E080932101089564
:1011D00083E00895A6E0B0E0E0EFF8E00C9471320F
:1011E00060E08CED90E00E949B1E60E086ED90E058
:1011F0000E949B1E80919E010E94FA0A813009F490
:1012000059C060F0823009F459C0833009F45AC0E3
:1012100060E080EC90E00E94891E05C060E082EDF5
:1012200090E00E949B1E60E08FEB90E00E949B1E6E
:1012300060E08BEB90E00E949B1E0E949E08813034
:1012400009F44AC008F442C0823009F449C00E943F
:10125000C9081F928F9380E591E09F938F931F920F
:1012600086E0F82EFF928E010F5F1F4F1F930F93A2
:101270000E94BA3260E0C8010E94831E80918501FD
:101280001F928F9385E591E09F938F931F92FF921A
:101290001F930F930E94BA3260E0C8010E94831E20
:1012A0000FB6F894DEBF0FBECDBF80E02696E5E016
:1012B0000C948D3260E08EEC90E0B3CF60E08AEC6D
:1012C00090E0AFCF60E086EC90E0ABCF60E086EBE3
:1012D00090E00E949B1EBBCF60E081EB90E0F9CFD5
:1012E00060E08CEA90E0F5CFA6E0B0E0EAE7F9E054
:1012F0000C947232082F162F0E941124882381F03B
:1013000001110EC083E0898384E08A830E94302922
:10131000682F49815A81792F81E0912F0E944C0BCF
:1013200080E02696E4E00C948E320E94BF06089579
:101330009C01FB018581882379F12231FEE73F077B
:10134000F1F040F42031EEE73E0761F021313E47F5
:1013500089F0089523319EE73907B1F024313E47E3
:10136000B9F0089580E00E94A10881E08093850192
:1013700080E0089581E00E94A10882E0F7CF82E03A
:101380000E94A10883E0F2CF0E94CC0884E0EECF57
:101390000E94D60885E0EACF81E00895809184011B
:1013A000811105C0219A299881E0809384010E94CF
:1013B000180708958430C8F46530B8F44830A8F4AC
:1013C000E62FF0E095E0899FE00DF11D112483E008
:1013D000EE0FFF1F8A95E1F7E40FF11DEE0FFF1FDF
:1013E000E351FF4F85919491089581E090E0089535
:1013F000843088F461110FC090E0880F991FE1E0FC
:10140000E427E80FF92FF11DEE0FFF1FE352FF4F06
:1014100085919491089581E090E0089581E0089588
:101420000E940E0A089581E008950E949809089587
:1014300008950E94180A0895A6E0B0E0E2E2FAE0FA
:101440000C94733249835A839E8330918B01898136
:101450009A8131111AC03E81332399F0222389F0F9
:101460000E94E90F182F682F89819A810E94B70F77
:1014700069817A81812F0E94F7162696E3E00C9409
:101480008F320E94D00F182FF3CF0E94E90F69818D
:101490007A81F1CFFC01262F4081518162817381D5
:1014A000848195810E941C0A0895CF93DF93EC01FB
:1014B00061E00E944A0ABE010E94100ADF91CF91AA
:1014C0000895CF93DF93EC0160E00E944A0ABE01C9
:1014D0000E94190ADF91CF91089508950E94B40ED9
:1014E0000E946D0A2FEF84E39CE0215080409040E1
:1014F000E1F700C0000008950E946E0A0E947D2955
:1015000008950E946E0A0E94A12908950F931F93C7
:10151000CF93DF938C0161E00E944A0AEC01B8018D
:101520000E94C81B811106C080E0DF91CF911F91FE
:101530000F910895B801CE010E94150A8823A1F3E6
:10154000B801CE010E942927882371F3B801CE018A
:101550000E94EB1F882341F3B801CE010E94972619
:10156000882311F3B801CE010E94AD218823E1F256
:10157000B801CE010E9474278823B1F2F801858159
:10158000882361F0C330FCE7DF07E9F058F4C115A8
:10159000ECE7DE07A9F0C130DC47B9F0C8010E94D2
:1015A000130AC3CFCB358CE7D807A9F0CC35ECE7CD
:1015B000DE0771F0CA35DC4789F70E944214EECF8E
:1015C0000E947C0AB1CF0E944A140E94810AACCFCB
:1015D0000E943814E3CF0E944614E0CF0E94AB284B
:1015E0000E942A0B0E94A31F08950E942E0B0E94A6
:1015F000B0280895982F92959F7020E011F0892FC0
:1016000024E0982F9695969511F02E5F892F982FAC
:10161000969509F02F5F822F0895089581E008952F
:101620000895CF93DF93D82F0E940E0BC82F8823E5
:1016300019F08D2F0E94100B8C2FDF91CF91089500
:101640000895CF93C82F0E940D0B8C2F0E94110B71
:10165000CF91089580E00E94210B08950E94C32736
:101660000E94210B0895CF930E94C327C82F809119
:1016700086018C1779F0C09386010E943C29609303
:101680008701709388018093890190938A018C2F40
:101690000E94210BCF910895ADE0B0E0E2E5FBE0C0
:1016A0000C947432488759876A877B878C879D871B
:1016B00091110E9470131F8286E0FE013896DE01B0
:1016C000119601900D928A95E1F78D8181110DC0DF
:1016D00029813A814B815C816D817E818F810E945D
:1016E000A1122D96E2E00C949032CE0101960E9458
:1016F000550A8111EDCFF5CFFC012481213021F471
:10170000808191810E9416100895662329F00E941D
:1017100059190E942F1A08950E94B319FACFCF9336
:101720008823D1F0C82F8238C9F40E94D02781FDC8
:1017300013C089E30E9426130E94A9132FEF87EE9E
:1017400093E0215080409040E1F700C0000089E321
:101750000E942E130E94A913CF9108958338A1F4FB
:101760000E94D02780FDF8CF83E50E9426130E94B7
:10177000A9132FEF81EE94E0215080409040E1F7D3
:1017800000C0000083E5E4CF8438A1F40E94D02794
:1017900082FDE2CF87E40E9426130E94A9132FEF57
:1017A00081EE94E0215080409040E1F700C00000BD
:1017B00087E4CECF8CEF8C0F813A90F46C2F809120
:1017C000290190912A010E941928882329F08C2F41
:1017D0000E942E130E94A9138C2F0E942613BACFA9
:1017E00080E28C0F883048F4C77081E001C0880F18
:1017F000CA95EAF70E945113ADCF83E38C0F833172
:1018000008F0AACF61E08C2F0E94850BA5CF88231A
:1018100009F444C0823879F40E94D02781FF3EC089
:1018200089E30E9426130E94A91389E30E942E13C4
:101830000E94A9130895833859F40E94D02780FF8D
:101840002DC083E50E9426130E94A91383E5EECFE5
:10185000843859F40E94D02782FF20C087E40E9478
:1018600026130E94A91387E4E1CF9CEF980F913AC9
:10187000E8F290E2980F983050F4877091E001C040
:10188000990F8A95EAF7892F0E945713D1CF93E3D6
:10189000980F933118F460E00E94850B08951F9310
:1018A000CF93DF93182FEB010E948F0B209739F411
:1018B000812F0E94070CDF91CF911F9108958FE92E
:1018C0009FE00197F1F700C000002197EFCF65E09E
:1018D00070E0893311F460E570E00E944F0C0895C8
:1018E000882321F00E9451130E94A9130895882390
:1018F00021F00E9457130E94A9130895B0E0A0E0C0
:10190000E4E8FCE00C946E326C01D62FC72FFC018A
:101910001581068102950F700E944713E82E8823D7
:10192000E9F0E12E1123D1F08C2F807F803451F02B
:1019300080E28D0F883060F1011104C08C2F807E11
:10194000803231F18091670282FF22C082E00E94E2
:101950000C140E94471391E0E82EE926FC2EF29425
:101960009FE0F922FBE0FF1508F46BC1EF2DF0E0DA
:10197000E454F34F0C942632CA0CCA0C110D110D0D
:10198000210E7B0D210E210E800DE80DF90DF90DB4
:10199000E12CE4CF0C2F0F70C07F11F00295007F77
:1019A000112399F0002359F080E28D0F883010F058
:1019B000D11107C0802F0E9451130E94A9138D2FAF
:1019C00051C0802F0E946213F8CF8D2F0E94070C08
:1019D000002379F080E28D0F883010F0D11104C01F
:1019E000802F0E94571303C0802F0E9468130E940B
:1019F000A913EE2089F00E94431380FD0DC0F6016B
:101A000015820E943D130E942B0FC6010E94830E77
:101A10000E943D130E94370FCDB7DEB7E8E00C946B
:101A20008A322C2F2F70F22EC07FC03219F0F29420
:101A300080EFF822DD2341F0D130D1F1112309F4F8
:101A400044C00023F1F0BBCF8091670282FD15C036
:101A5000112359F0FF2029F08F2D0E9451130E946D
:101A6000A91380E00E948F0BC4CF80E00E94070C76
:101A7000FF2009F4BECF8F2DB4CF112369F00111DF
:101A800004C08F2D0E94700CB4CF013009F0B1CF8B
:101A90008F2D0E948713ADCF0111ABCF8F2D0E94E8
:101AA000770C8F2D0E9493138F2D0E947713A1CF57
:101AB000112321F0063008F09CCFE3CF053008F069
:101AC00098CF8F2D0E94770C94CF0023D1F3D93378
:101AD00069F48FEF97EEE3E081509040E040E1F74A
:101AE00000C000008D2F0E94070C83CF8FE19EE481
:101AF0000197F1F7F5CF612F8D2F0E94850B79CFDC
:101B00008C2F837091F5111122C04D2F429546956F
:101B10004770440F440F8D2F8F70042E01C0880F23
:101B20000A94EAF720E0D4FF07C02FE030E001C0BC
:101B3000220F4A95EAF72095822BC695C695C37069
:101B4000C23069F078F4C13039F00E94070F0E946A
:101B5000C3270E94210B4DCF0E94010FF8CF0E9496
:101B60000D0FF5CF0E94FE0EF2CF8695112311F0D6
:101B70008C2F8170882359F34D2F429546954770DD
:101B8000440F440F8D2F8F70042E01C0880F0A94CC
:101B9000EAF720E0D4FF07C02FE030E001C0220FB9
:101BA0004A95EAF72095822BC695C695C370C23038
:101BB00049F058F4C13019F00E94560FC8CF0E9466
:101BC000500FC5CF0E945C0FC2CF0E94190FBFCF2C
:101BD000CF70112339F08C2F0E942B0F8D2F0E9474
:101BE000700CB5CF8D2F0E94770C8C2F0E94370F71
:101BF000AECFD23F79F170F4D03FD9F0D13F91F020
:101C0000112309F44FC0002309F449C08D2F0E940D
:101C10008F0B17C0D33F29F1D43F91F78091670212
:101C200082FD29C08C2F8F711123C1F00E942B0FD0
:101C300008C0112361F0053020F48C2F8F710E94B1
:101C4000440F88EF8F0D843008F0D3CE80CF06305C
:101C5000C0F7F3CF8C2F8F71112341F30E94370F00
:101C6000F0CF112329F08C2F8F710E94220FE9CF22
:101C70000E941E0FE6CF112349F0CF718C2F0E94D6
:101C80002B0F63E08C2F0E94EE13DBCF81E00E94CC
:101C90000C140230B0F282E00E940C14D2CF8C2FD0
:101CA0008F71C4CF0023A1F0D93369F49FEFE7EE21
:101CB000F3E09150E040F040E1F700C000008D2FCC
:101CC0000E94070CBECF8FE19EE40197F1F7F5CF9C
:101CD0008C2F8F71C3CF0F931F93CF93DF93EC01A2
:101CE000688179818D810E9421108C010E94620F90
:101CF0000E94FD0EB801CE010E947E0CDF91CF91B3
:101D00001F910F910895CF93DF93FC01248122232B
:101D100099F0EC010E94860A811111C00E944713BC
:101D2000882351F08D81882339F08091670282FFEA
:101D300003C082E00E940C14DF91CF910895CE0180
:101D40000E946B0ECE010E94610AF6CF0E947013B2
:101D50000E94A9130E944E1A0E942F1A08950E94F1
:101D600036130E94A60E08950E945F130E94AF0EC4
:101D7000089592959F70963089F050F49250923069
:101D800058F4803F19F030F4883E30F481E0089533
:101D90009A50F5CF843FD1F380E00895883EB0F3A8
:101DA000813FD1F7F3CFFC012481222339F08081D8
:101DB00091810E9416100E94B90E089580E0089546
:101DC000A6E0B0E0E6EEFEE00C9474322696E2E087
:101DD0000C949032A7E0B0E0E0EFFEE00C94743297
:101DE0002796E2E00C94903208950E94F40E089534
:101DF0000E94F50E80939F01089508950E94F80EA9
:101E0000089590919F01892B0E94F80E089590915A
:101E10009F0189230E94F80E089590919F018927C0
:101E20000E94F80E08950E94F40E08950E94130F68
:101E300008950E94160F80939E01089580E00E94ED
:101E4000190F089591E001C0990F8A95EAF7892F3B
:101E50000E94190F089521E030E001C0220F8A95F9
:101E6000EAF780919E01822B0E94190F089521E0CC
:101E700030E001C0220F8A95EAF7209580919E01FB
:101E800082230E94190F089521E030E001C0220F43
:101E90008A95EAF780919E0182270E94190F089582
:101EA00090919E01892B0E94190F089590919E0197
:101EB00089230E94190F089590919E0189270E94FD
:101EC000190F08950895262F277091E001C0990FEA
:101ED0002A95EAF723E0769567952A95E1F7FB01C5
:101EE000EE0FFF1FE60FF71FE40FF51F50E040E075
:101EF000682F70E08191DF0111979B01042E02C0D1
:101F0000369527950A94E2F72170219528272923F1
:101F100028272C934F5F5F4F4330510559F70895A1
:101F2000A82FA77023E0969587952A95E1F7FC01E5
:101F3000EE0FFF1FE80FF91FE60FF71F50E040E01C
:101F400080E0219130E00A2E02C0369527950A9450
:101F5000E2F721703327042E01C0220F0A94EAF71A
:101F6000822B4F5F5F4F4330510559F70895282F5B
:101F7000862F953068F4283058F438E0939FB001EC
:101F80001124620F711D4FE851E00E94630F089504
:101F90009C5F9230E0F7622F70E04CE851E0F5CFA3
:101FA000953070F4883060F448E0949F90011124DB
:101FB0006FE871E0820F932F911D0E94900F08959A
:101FC0009C5F923020F46CE871E090E0F6CF80E006
:101FD0000895CF92DF92FF920F931F93CF93DF93D9
:101FE0006C0100919E0180919F01082BC3E0D0E01D
:101FF00010E0FC2EC8010C2E02C0959587950A941E
:10200000E2F780FD0CC02197A0F7F12C8F2DDF9116
:10201000CF911F910F91FF90DF90CF900895B6015F
:102020008C2F0E941017019771F3F0CFCF93DF939D
:10203000EC010E94E90FBE010E941017DF91CF91C1
:1020400008951F93CF93DF93EB0190918B01992318
:1020500039F0CB010E941610DF91CF911F910895A6
:10206000882369F0CB010E94E90F182F682FCE0159
:102070000E94B70FBE01812F0E941017EDCFCB0138
:102080000E94D00F182FF6CFE1E0F0E0DF0102C090
:10209000AA0FBB1F6A95E2F7BD01DF0102C0AA0FBC
:1020A000BB1F4A95E2F76A2B01C0EE0F2A95EAF7AB
:1020B000962F9823961302C08E2B0895E0958E23B9
:1020C0000895242F462F682F80919E010E9444106E
:1020D0000E94190F08951F93CF93DF93C091A00121
:1020E00017E08091A1018C1304C0DF91CF911F9163
:1020F0000895D0E01C9FF0011D9FF00D1124EE55B6
:10210000FE4F2081318142815381648175818681B6
:102110000E94EA0E2196C770E4CF2091DA01309137
:10212000DB014091DC015091DD016091DE01709195
:10213000DF018091E0010E94EA0E0895CF93DF93C2
:102140008091E001807F09F04DC08091DF018823FC
:1021500009F448C0E091A0015091A101C091DB01B8
:10216000D091DA016091DC017091DD0147E05E17EA
:10217000C9F18E2F90E0E49FF0011124EE55FE4F3F
:102180002481222391F1489FF001499FF00D1124F1
:10219000DF01AE55BE4F11962C9111972C1325C01F
:1021A0002C912D1322C015962C91159721111DC02D
:1021B00012962D913C91261B370B283C3105A8F433
:1021C0008091E0018F7080618093E001E855FE4FBF
:1021D00080818F70806180838AED91E00E94830E00
:1021E0000E946B10DF91CF910895FC013196E7704A
:1021F000BECF482F2091A0019091A10157E0291353
:1022000002C080E0089530E0529FF001539FF00D2E
:102210001124EE55FE4F8181681306C0808148135A
:1022200003C085818111EECF2F5F3F4F2770E7CF2D
:10223000A4E1B0E0EEE1F1E10C946A328C0186E0B9
:10224000F801DE011F9601900D928A95E1F7F801E1
:102250008481E5809AEDA92E91E0B92E9091DE015E
:1022600091111FC08823D1F0EE20A9F0C8010E946F
:10227000D30EF82E882379F087E0F801D50101907C
:102280000D928A95E1F7C5010E947C0B0E949E1079
:102290000E948D105FC0C8010E94830EFF24F3943A
:1022A00059C0C080D18082809380F090DF0120915E
:1022B000DC013091DD01A401421B530BFF2009F426
:1022C000F8C0483C510508F0A6C0882309F442C074
:1022D0009091DB018091E001282F207F09F05BC005
:1022E000D91216C09091DA01C91212C0E1104DC086
:1022F0008F7080618093E0010E948D108AED91E0E3
:102300000E94830E8091E001F8018683F12C22C0A7
:10231000E1103BC06D2D8C2D0E94F9106D2D8C2D80
:102320000E94F910E82E8111F1CFCF86D88A8F85CF
:1023300098890E941610292F22952F70243078F446
:102340009F702230A0F09923B1F0F8019681907F20
:1023500091F4FE2C8F2D6496ECE00C9486322A507A
:10236000223068F0C8010E94830EEF2CF2CF99232F
:1023700011F0882371F3805E8830A0F7EACF803FA8
:1023800040F3815F833070F7E4CF8091E00181609A
:102390008093E001BBCFD91213C09091DA01C9122A
:1023A0000FC0E1100DC08683C8010E94830E87E034
:1023B000F801AAEDB1E001900D928A95E1F768CF9E
:1023C000C8010E94D30E882309F465CFEE2009F4DA
:1023D00062CF8091E001803288F02091DA01309163
:1023E000DB01398728879B868A869091DE019C874E
:1023F0001D868E87CE0108960E94830E87E0F80125
:10240000AAEDB1E001900D928A95E1F70E949E102D
:102410000E948D1043CF9091E001292F207FA1F4DD
:10242000682D9A8A898AA6017A899E2D0E94E00EDB
:102430008AED91E00E94830E87E0F50111928A9562
:10244000E9F70E948D1062CF882309F483CF809131
:10245000DB018D1110C08091DA01C8120CC0E110AF
:102460000AC09683C8010E94830E87E0F50111928D
:102470008A95E9F76FCFC8010E94D30E882309F42B
:102480000ACFEE2009F407CF8091E001803208F4F2
:10249000B5CF2091DA013091DB013A8329839C8208
:1024A0008B829091DE019D831E828F83CE010196E7
:1024B000A3CF483C5105B8F5882309F4EFCEFE2C94
:1024C000EE2009F4E8CE8091DB018D111EC08091D1
:1024D000DA01C8121AC08091E00180FD0DC0982F6A
:1024E000907F51F08683903F09F45ECF982F907FC4
:1024F000905F8F70892B57CF87E0F801AAEDB1E08C
:1025000001900D928A95E1F725CFC8010E94D30E64
:10251000811174CF8091E00181608093E001C80156
:102520000E94830E17CF682D9A8A898AA6017A891C
:102530009E2D0E94E00E87E0F50111928A95E9F741
:10254000A7CEAEE0B0E0E7EAF2E10C947332288760
:1025500039874A875B876C877D878E87CE0108968F
:102560000E9418118823B1F16C85662341F02885FB
:1025700039854A855B857D858E850E94EA0E17E048
:102580008091A0019091A101891709F45BC0819FFE
:10259000C00111248E559E4F0E941811882309F402
:1025A00051C0E091A0011E9FF0011124EE55FE4F95
:1025B00020813181428153816481758186810E94AD
:1025C000EA0E8091A00190E0019687709927809390
:1025D000A001D6CF87E0FE013896DE01119601906A
:1025E0000D928A95E1F78C85882349F22091A1010B
:1025F00030E0C9010196877099274091A0014817E2
:10260000190699F097E0929FD001939FB00D112485
:10261000AE55BE4FFE01319601900D929A95E1F7AD
:102620008093A1010E946B10AACF0E94B40E109259
:10263000A1011092A00187E0EAEDF1E0DF011D9217
:102640008A95E9F72E96E3E00C948F32682F8091FB
:10265000290190912A010E944F280895682F8091A6
:10266000290190912A010E94522808958091290100
:1026700090912A010E94552808958091E90186953C
:102680008695869508958091E901877008959091C7
:10269000E901977081E009F480E008958091F501E7
:1026A00008959091F501892B8093F5010895982F55
:1026B00090958091F50189238093F50108951092FA
:1026C000F50108959091F401892B8093F401089508
:1026D000982F90958091F40189238093F4010895B7
:1026E0001092F401089508950E9473130895909133
:1026F000EA01292F282331F0809589238093EA016C
:102700000E947413089508950E9483130895909170
:10271000EB01292F2823281729F0982B9093EB0100
:102720000E94841308959091EB01292F282331F002
:10273000809589238093EB010E94841308958091F2
:10274000EB01882329F01092EB0180E00E948413B2
:102750000895CF93DF93E0912901F0912A018091B0
:10276000F5018083E0912901F0912A018081909107
:10277000F401892B80839091EB01992381F0E09102
:102780002901F0912A018081892B80838091290180
:1027900090912A010E940D2881110E949F13C091DF
:1027A0002901D0912A0148E050E061EE71E0CE01AC
:1027B0000E94A432892B59F088E0FE01A1EEB1E01D
:1027C00001900D928A95E1F7CE010E94D327DF9107
:1027D000CF91089508950E94EA1308959091670299
:1027E00092FF11C098E0899F90011124622B6093A1
:1027F000E9010E942B0F8091E901869586958695C7
:102800000E94EB1308950E942B0F08951092E90186
:1028100080E00E94EB1308959091E901809589234F
:102820008093E901282F277069F4891759F0909156
:10283000670292FF07C08695869586950E94370F9E
:102840000E94061408959091670292FB222720F9B6
:10285000281769F080FB92F99093670280916602D5
:10286000909167020E946C1482E00E940C140895FB
:102870008091670282FB882780F991E089270E9476
:102880002314089581E00E942314089580E00E949B
:10289000231408956FEF7FEF90E080E00E94A4354D
:1028A000089590E080E00E947035863E9E4F19F4B6
:1028B0000E94621B089580E0089582E090E00E94EB
:1028C0006835089583E090E00E946835089584E0BB
:1028D00090E00E9470350895BC0184E090E00E9471
:1028E000A4350895AB01BC018FE090E00E949835BB
:1028F0000895AB01BC0183E190E00E9498350895F2
:1029000060E070E0CB010E947914089560E070E00F
:10291000CB010E9472140E9480140895A8E0B0E0D8
:10292000E4E9F4E10C94743266EE7EEF90E080E02E
:102930000E94A43560E082E090E00E94863560E06D
:1029400083E090E00E94863510929F0160E074E180
:1029500084E090E00E94A43560E086E090E00E9470
:1029600086356FEF87E090E00E94863540E050E0CA
:10297000BA0188E090E00E94983560E084E290E03F
:102980000E94863560E087E190E00E94863560E035
:102990008CE090E00E94863560E08DE090E00E943F
:1029A000863519821A821B821C821D821E821F821A
:1029B000188648E050E068E170E0CE0101960E9480
:1029C000763540E050E0BA0180E290E00E94983510
:1029D00080E00E947B1B0E94AA1B0E9486142896FE
:1029E000E2E00C9490320E948E140895682F8EE0DD
:1029F00090E00E9486350895A6E0B0E0E2E0F5E1BF
:102A00000C9472320E9430298C018091F6019091D1
:102A1000F7018017910781F019821A820E943029EC
:102A2000682F49815A81792F80E090E00E944C0BF9
:102A30001093F7010093F6012696E4E00C948E3291
:102A40000E943C296093050270930602809307025E
:102A50009093080260930102709302028093030234
:102A60009093040208950E943C296093050270939C
:102A7000060280930702909308026093FD01709311
:102A8000FE018093FF019093000208950895089538
:102A90000E94461508950E949509089588E098E1DE
:102AA0000E94CD180E9447150E944815089581E0A4
:102AB00008950E94571508950E9457150895089586
:102AC0000E945F150E94CE0908950E9424180E945A
:102AD000200B08950E9427290E94BA1B0E943623CA
:102AE0000E9457180E94651580E00E943A1D0E94BE
:102AF0006E240E944B15089580E00E941F240895C3
:102B0000A6E0B0E0E6E8F5E10C946A320E945915BF
:102B1000C82E811111C00E94FC14C12C0E947C158A
:102B20000E945423882309F45DC00E9433150E943B
:102B3000C11F0E94A11E5AC00E94600588EFA82EE6
:102B400081E0B82E750110E0F70101917F01812F1E
:102B50000E9447181F5F153009F441C00817A1F300
:102B60008091090281FD0E944D180E945C15982EEB
:102B700010E088248394812F0E944718082FF501C4
:102B800081915F01081729F1F12CEE24E394D02EF6
:102B9000D8268D2D8E21A9F0992099F0F9821A83DB
:102BA0000E9430299C838B838D8291E0802F8E211F
:102BB00009F490E049815A816B817C818D810E946A
:102BC0004C0BF394EE0CF8E0FF12E3CFF5013197D4
:102BD00000831F5F153079F60E9420159FCF0813E0
:102BE000BFCF99CF0E94C11FC110A3CF0E94701AFE
:102BF0000E942C230E94330B2696ECE00C94863224
:102C00001F93CF93DF930E941517EC01C11582E546
:102C1000D80708F03FC0C11590E5D90708F0BEC03D
:102C2000C83ED105C0F4C03ED10580F4C53AD105F7
:102C300048F4C430D10550F4C130D10539F0D0E0AA
:102C4000C0E004C0CD3CD105D0F3D065CE01DF910A
:102C5000CF911F910895C11580E4D80708F053C0A3
:102C6000C11590E2D90708F0B1C0C11581E0D807BD
:102C700030F38D2F0E94B917182FCE0199270E948B
:102C80001517C12FD0E0DC2FCC27CC27DF71C82B44
:102C9000D92BDCCFC03892E5D907A8F4C03682E53D
:102CA000D80708F061C0C03492E5D90708F047C0E2
:102CB000C03282E5D80778F1CF71D0E0DC2FCC2785
:102CC000C16FD06AC3CFC03C92E5D90780F48C2F86
:102CD0008F71C03AD24508F45AC00E94B917C82F64
:102CE000D0E0DC2FCC27CC27DF71D062AFCFC03E45
:102CF00082E5D80708F0A3CFDC2FCC27CC27DF71E3
:102D0000C06FD06AA3CFCE0199270E941517CC2798
:102D1000DF70D06ABCCF2C2F2695269590E2299F94
:102D2000900111248C2F8370C1E0D0E002C0CC0F41
:102D3000DD1F8A95E2F7C22BD32BDD6887CF2C2FBE
:102D400026952695277080E2289F900111248C2FCC
:102D50008370C1E0D0E002C0CC0FDD1F8A95E2F79E
:102D6000DC68C22BD32B72CF2C2F2695269527708B
:102D700090E2299F900111248C2F8370C1E0D0E054
:102D800002C0CC0FDD1F8A95E2F7DA68EACFC82FC0
:102D9000D0E0DC2FCC27C46FD06A58CF8C2F8F7136
:102DA0000E94B91755E0D695C7955A95E1F7CF70AF
:102DB000D0E0DC2FCC27282F30E084FF05C044E092
:102DC000220F331F4A95E1F7D069CBCF8D2F8F713A
:102DD0000E94B917182FCE0199270E941517C12FED
:102DE000D0E0DC2FCC27CC27DF71906250CF462F6C
:102DF000672F753028F4483080F40E94A425089588
:102E00007D3F39F4411109C041E060E00E94B025E6
:102E100008957C3F11F44423C1F390E080E00895CD
:102E20000E94F7160E940016089582389105B9F1A4
:102E3000B0F48133910509F47DC048F489329105DD
:102E400009F46DC08A32910509F479C0089585337B
:102E5000910509F45FC08933910509F10895833E16
:102E60009105D9F138F4803E910529F1823E910512
:102E700079F10895863E9105D9F1873E910509F4CF
:102E80003EC0843E910541F52091670221FF24C098
:102E90008091660284FD19C087EE90E0089520912C
:102EA0006602237009F056C02091670223FF14C008
:102EB00089E290E008952091660220FD38C03091AB
:102EC000670230FF09C024FF3FC090E080E0089512
:102ED0002091660222FDF7CF08952091660222FD1F
:102EE00036C03091670230FD35C024FDEECFF4CFFF
:102EF0002091660223FFF0CF24FDE7CFCDCF2091B4
:102F0000660223FD2AC03091670231FFEECF84EEC6
:102F100090E008952091660225FDCACF0895209182
:102F2000660225FD1DC02091670223FFD5CF89E3EE
:102F300090E008952091660226FD15C00895209125
:102F4000660226FD13C0089583EE90E0089582EE98
:102F500090E0089580EE90E0089586EE90E0089568
:102F600085E390E008958AE290E0089581E390E09F
:102F7000B3CF9091660292FF10C041E0282F2471D8
:102F8000243009F040E031E0282F2871283009F082
:102F900030E0431711F02CE0822793FF10C041E08E
:102FA000282F2471243109F040E031E0282F2871C6
:102FB000283109F030E0431711F02CE082273091DE
:102FC000670230FF10C051E0282F2171213009F035
:102FD00050E041E0282F2871283009F040E05417D4
:102FE00011F029E0822731FF10C041E0282F217124
:102FF000213109F040E031E0282F2871283109F013
:1030000030E0431711F029E0822794FD877E089570
:1030100080E008950E944A1408950E9460058FE39D
:103020009CE90197F1F700C000000E94600580E074
:103030000E94471880FF04C00E940A180E947D2940
:1030400008950E940D1808950E945114811102C024
:103050000E94F3140E945D14809309020E94671479
:1030600090936702809366020E9421180E94621466
:103070000E94FE0E80919E010E94160F08950895F1
:103080000E943F18089508950E9443180895E82F5C
:10309000F0E0E359FD4F80810895089580EA8A9514
:1030A000F1F7089500C008950E944E1808950E94F7
:1030B0004205A8E6B2E01C92EDE6F2E0108211961D
:1030C0001C921197118212961C92129712821396DB
:1030D0001C921397138214961C92148285E00E940E
:1030E00074180E94401808950895CF92DF92EF92CD
:1030F000FF920F931F93CF936C017B01042F222328
:1031000049F081E080930C020E94302990930B02D9
:1031100080930A02C0910C02C1110AC0C0E08C2F3A
:10312000CF911F910F91FF90EF90DF90CF90089576
:1031300080910A0290910B020E944829059770F332
:1031400010E0A801B601C7010E94A432892B41F00A
:10315000A801B601C7010E94B13210920C02DFCF64
:10316000C0E0FBCF0E940C2C0E946A150E94192C13
:1031700008950E941E2C0E9480150E94382C0895EC
:103180000E94C7280E94F22B0E944E150E94B2187E
:103190000E94B9180E946015FBCF90938301809321
:1031A00082010895282F35EB2303C001112497FFD6
:1031B00004C080589109892F089580589F4FFBCFF4
:1031C0008091130280FF0DC06091300170E0660FA6
:1031D000771F6038710580F56115710579F1862FCB
:1031E000089581FF07C06091300184E0689FB001BD
:1031F0001124EFCF82FF04C06091300188E0F6CF48
:10320000209112022223A9F090912F0160913001A8
:1032100088E0689FB00111242917D8F6269FA001E5
:10322000279F500D1124692F70E0CA010E94D131EF
:10323000D0CF68E070E0D3CF8FE7089581E00895A4
:103240008091130280FF0CC060912C0170E0759595
:103250006795759567956115710549F1862F0895F4
:1032600081FF06C060912C0170E075956795F3CFE2
:1032700060912C0182FD0BC0909111029923A1F065
:1032800060912B0180912C01961738F0682F70E027
:103290006038710500F38FE70895899FC0011124FC
:1032A00070E00E94D131F4CF61E070E0D7CF81E0CF
:1032B00008958D3C31F40E94E018819580931702A7
:1032C00008958E3C19F40E94E018F8CF8F3C31F439
:1032D0000E94E0188195809316020895803D19F4AC
:1032E0000E94E018F8CF893D29F40E9420198093AC
:1032F000180208958A3D21F40E9420198195F7CF84
:103300008B3D31F40E942019819580931902089514
:103310008C3D19F40E942019F8CF9FE2980F983045
:1033200070F4815D990B21E030E001C0220F8A9595
:10333000EAF780911502822B8093150208958D3D46
:1033400031F48091130281608093130208958E3DC1
:1033500021F4809113028260F7CF8F3DB9F78091FD
:1033600013028460F1CF8D3CD9F49091170297FF3E
:103370001DC01092170280911602811106C0809123
:103380001702811102C0109212028091180281115D
:1033900006C080911902811102C010921102089595
:1033A0008E3CD9F49091170219161CF39FE2980FE6
:1033B000983008F03FC0815D990B21E030E0A90111
:1033C00002C0440F551F8A95E2F7CA01809590917B
:1033D0001502892380931502CECF909116028F3C5F
:1033E00029F497FFE3CF10921602C5CF803D19F460
:1033F0001916CCF3DBCF90911802893D29F41916E8
:10340000ACF610921802B7CF8A3D19F497FFCECFD1
:10341000F8CF8B3D39F49091190297FFC7CF1092E6
:103420001902A9CF8C3D09F0C1CF9091190219164C
:10343000B4F3BCCF8D3D31F4809113028E7F809325
:10344000130299CF8E3D21F4809113028D7FF7CF27
:103450008F3D09F090CF809113028B7FF0CF0E94B7
:10346000302920911602211104C020911702222335
:1034700021F09093100280930F02209118022111E5
:1034800004C020911902222321F090930E02809310
:103490000D0284E192E00E94DE27089586E0E4E1D7
:1034A000F2E0DF011D928A95E9F710921202109264
:1034B0001102109213020895FC01828181110EC045
:1034C000838181110BC08481811108C091E08581C5
:1034D000811101C090E0892F8170089581E0FCCFB7
:1034E000A6E0B0E0E6E7FAE10C94733286E0E4E1AE
:1034F000F2E0DE01119601900D928A95E1F71092AB
:1035000016021092170210921802109219028B8163
:10351000811103C08C81882389F080910F029091E2
:1035200010020E944829AC01909112029923D9F10E
:10353000809131018417150608F442C08D818111F4
:1035400003C08E81882391F080910D0290910E022C
:103550000E944829AC0190911102992309F46AC094
:1035600080912D018417150608F472C0BE016F5FAB
:103570007F4F84E192E00E945C28811105C084E1C4
:1035800092E00E945C1A81110E942F1A86E0FE01CF
:103590003196A4E1B2E001900D928A95E1F726966A
:1035A000E3E00C948F32209132018AE0289F900151
:1035B00011242417350710F69F5F9093120202C062
:1035C0009F3FD1F71B81112359F00E94E0189FEF14
:1035D00011160CF491E0899F802D1124809316021E
:1035E0001C81112359F00E94E0189FEF11160CF472
:1035F00091E0899F802D11248093170280911602FB
:10360000882309F49BCF10911702112309F496CF58
:103610000E94D218882351F080931602812F0E94B5
:10362000D218882329F08093170288CF81E0F4CF45
:1036300081E0F9CF20912E018AE0289F900111248A
:103640002417350708F092CF9F5F9093110202C0B4
:103650009F3FD1F71D81112359F00E9420199FEF40
:1036600011160CF491E0899F802D1124809318028B
:103670001E81112359F00E9420199FEF11160CF49E
:1036800091E0899F802D1124809319028091180266
:10369000882309F46BCF10911902112309F466CF26
:1036A0000E94D218882351F080931802812F0E9423
:1036B000D218882329F08093190258CF81E0F4CFE3
:1036C00081E0F9CF85E290E00E946835863289F486
:1036D00086E290E00E946835883059F487E290E0F5
:1036E0000E94683591E0863009F090E0892F817062
:1036F000089580E0FCCFCF93C82F6FEF811166E271
:1037000085E290E00E9486356FEFC11168E086E2A5
:1037100090E00E9486356FEFC11166E087E290E08D
:103720000E948635CF910895089588E290E00E9426
:103730006835682F70E090E080E008950895CF9399
:10374000C62F0E949E1B6C2F88E290E00E94863557
:10375000CF91089580E00E947B1B60E070E0CB0178
:103760000E949F1B0E9428250E94072681E00E943C
:103770007B1B08950E94941B0E94951B0E949E1B18
:103780000E94621B811102C00E94AA1B0895089525
:103790009C01FB018581882351F0A90157574038CE
:1037A000510530F4C9010E94172680E0089581E098
:1037B00008952FEFFC01208308950E94D91B0895DE
:1037C00080E00895B0E0A0E0E8EEFBE10C946C32FC
:1037D000EC01F62E0E94E01B81113EC0E881E15011
:1037E000E53120F5F0E0E950F44E0C9426320C1C43
:1037F000101C4F1C611C691C741C771C771C771CE7
:10380000161C161C7C1C801C841C911C9E1CA11C5C
:10381000A41CB11CBE1CC81C19828CE08A8318C071
:1038200089818230F1F028F4813061F08FEF888354
:103830000FC08330C9F08430C9F71A821B821C8202
:103840001D8206C00E943C299A838B837C836D83F2
:103850006F2DCE010E94DB2ACDB7DEB7EAE00C94D3
:1038600088320E94951BF0CFEA806E0183E0C80E7B
:10387000D11C10E000E0AE2CB12CC501800F911FCF
:10388000059730F78E2D800F0E944718F60181931F
:103890006F010F5F1F4F0C31110579F7D9CF898167
:1038A000823031F0853011F68A810E94C71BD0CF5B
:1038B0006A817B818C819D810E942C320E949F1B9A
:1038C000C7CF4B816A8189810E948D249C838D831F
:1038D000BFCF2C813D813227232732274B816A813C
:1038E00089810E94AF24B4CF0E942825B1CF6F2DCB
:1038F000CE010E94DD1BACCF0E94BA258983A8CFE0
:103900000E94BC2599838ACF6B8170E089819A815E
:10391000AE014C5F5F4F9827892798270E94BF25EB
:1039200097CF6B8170E089819A81AE014C5F5F4FC8
:103930009827892798270E94E2258ACF0E94072688
:1039400087CF0E947924DACF6B8170E089819A81D8
:10395000AE014C5F5F4F9827892798270E945E250C
:1039600077CF6B8170E089819A81AE014C5F5F4FA8
:103970009827892798270E9480256ACF41E08B816C
:10398000811101C040E06A8189810E94CA249ECFD2
:103990002C813D8132272327322741E08B81811101
:1039A00001C040E06A8189810E94FD2451CFAB01B2
:1039B00024E630E0BC0188E70E944C2A21E0892BF4
:1039C00009F020E0822F0895B0E0A0E0EAEEFCE1EB
:1039D0000C946E326C017B0164E670E088E70E9413
:1039E000B2298C01E601EC0CFD1CCE15DF0561F45B
:1039F0000E94942A81E00115110509F080E0CDB7FD
:103A0000DEB7E8E00C948A3217FDF2CFFE01849114
:103A100064E670E00E941E2A8C012196E6CF0F9387
:103A20001F939B0104E610E0AC0160E488E70E946C
:103A30006D2A21E0892B09F020E0822F1F910F9140
:103A400008950E94AC2908950895E2E7F2E080E02D
:103A500092E0DF019C011D9221503040E1F7F0938C
:103A60007704E09376048FEF9FEF90934602809364
:103A700045020895CF930E94241D0E94E808809378
:103A8000410280FD11C080E8809340020E94211D08
:103A90006BE070E088E492E00E94E41C811106C0B3
:103AA000C0E08C2FCF91089580E2EECF809141024B
:103AB00065E070E081FD27C083E492E00E94E41C91
:103AC000882371F36DE070E081E392E00E94E41CD2
:103AD000C82F882329F30E943C29605A75418F4FD3
:103AE0009F4F609372047093730480937404909357
:103AF00075040E94251D81E0809344028093430257
:103B000010924202CECF8EE392E0D8CF20914002B5
:103B100036E0839FC0011124629F800D911D112406
:103B2000811522E0920714F090E080E08E589D4FBE
:103B300090937704809376040895209176043091D1
:103B400077042C56324040914002642F70E0C90146
:103B50000E94BD31481B463010F4240F311D211541
:103B600082E0380710F030E020E02E583D4F3093CF
:103B700077042093760408951F93CF93DF93162F35
:103B80008A3039F481E00E94351EDF91CF911F9178
:103B900008958D3011F480E0F6CFC0917604D09175
:103BA000770496E0FE01AAE1B2E001900D929A95A9
:103BB000E1F7803EB8F086E0FE0111928A95E9F7C0
:103BC00011111CC0C0917604D091770446E050E0FA
:103BD000BE018AE192E00E94A432892BE9F40E949E
:103BE0009D1DD3CFF6E08F9FB00111246D5A7D4FFC
:103BF00046E050E0CE010E949B32E2CFE091760495
:103C0000F09177049F012A5F3F4F2E173F07D1F2B3
:103C1000808180958193F9CFC257D240CE0125E0B3
:103C2000969587952A95E1F721E030E0A90102C039
:103C3000440F551F8A95E2F7CA0140914502509101
:103C40004602842B952B259645E0D695C7954A9537
:103C5000E1F702C0220F331FCA95E2F7822B932BA4
:103C60009093460280934502BACFCF93382FE091CC
:103C70007604F0917704E257F24020914002622FDF
:103C800070E0CF010E94BD31281B822F332369F0E1
:103C900066E00E94B131C82FC15010F4CF91089551
:103CA00060E080E20E94BC1DF7CF9F01280F311D0C
:103CB0002115324018F080E0F0E0E0E08E0F9F2FF9
:103CC000911D8E589D4F9093770480937604E6CF94
:103CD000FF920F931F93CF93DF93EC01F62EFC011D
:103CE00001900020E9F78F0101501109C017D10799
:103CF00028F0CDB7DEB7E5E00C948D326F2D8991B9
:103D00000E94BC1DF3CF0E94681E81E00E94351EF8
:103D100008951F93CF93DF93EC01162FFE0184913A
:103D2000811104C0DF91CF911F910895612F0E94EE
:103D3000BC1D2196F3CF0E94891E81E00E94351E92
:103D4000089580914402811103C080914302089537
:103D50000E943C29605A75418F4F9F4F60937204B7
:103D6000709373048093740490937504809143025C
:103D70008111EBCF62E070E08FE292E00E94E41CE0
:103D8000882319F381E080934302DFCFB0E0A0E005
:103D9000ECECFEE10C946832809145029091460271
:103DA000892B09F4B3C080914402882309F4AEC082
:103DB000809142028111AAC00E94A11E2091450259
:103DC000309146022115310509F4A0C090E041E090
:103DD00050E0092F10E03A01092E02C0660C771C52
:103DE0000A94E2F7B30162237323672B11F49F5FF8
:103DF000F0CF8091410280FF8EC0990F990F990FEB
:103E00009093350110923801995F9093360183E0C9
:103E10008093390167E070E083E391E00E94D71C52
:103E2000882309F473C0A80185E0440F551F8A95C3
:103E3000E1F78091410280FF80C0E0E2F2E080E2A1
:103E4000DF011D928A95E9F7AEE5B1E00AE511E0E0
:103E5000882483942D91E80169918E01640F752F58
:103E6000711D6E587D4F30E0205E3D4FF90187E0B7
:103E70007F01E21AF30A982C01C0990CEA94EAF740
:103E80007B01B12CE70199917E019921A82EAB18F5
:103E9000DA2DD770CD2E0D2E000CDD08C92F01C0F4
:103EA000CC0FDA95EAF7AC2ED194C194D108D7E0C3
:103EB000CD22DD240C2C01C096950A94EAF7DC2E65
:103EC000D92A90819D299083B39498E0B912DACFD2
:103ED000815031968F3F61F6C1E0A236BC0709F0F0
:103EE000B9CF60E270E080E292E00E940F1D88236B
:103EF00069F0E301C095D09580914502909146020A
:103F0000C823D923D0934602C0934502CDB7DEB76C
:103F1000EEE00C9484329295990F9076909335014F
:103F20009801369527953695279520933801915E0F
:103F300090933601209339016DCF60E270E0CA01A1
:103F40008E589D4FD2CF809143029091440291119F
:103F500003C091E089270895882369F062E070E04A
:103F60008DE292E00E94E41C811103C08091430223
:103F700008951092430280914302EBCF0E94EA0819
:103F800008950F931F9380914402882309F160E004
:103F900080E00E94861D0E94BE1F0E94C61E809166
:103FA00043028823A9F00E943C29009172041091D9
:103FB00073042091740430917504601B710B820BA3
:103FC000930B6F3F7F4F8F4F9F4710F40E94A31FAB
:103FD0001F910F910895CF93DF93EC01FB01858131
:103FE000882309F4F5C09E0130572332310508F0CB
:103FF000D5C00E9467149093670280936602FE0109
:10400000E150F047E232F10508F026C0E65FFF4DCF
:104010000C9426326620DA206E2038203C20722054
:104020004020762082204C20D3205020862054200F
:104030008A20B22058208E20B9205E2094209C2017
:1040400044207A2048207E2062209820A820C22088
:10405000D12032206A20E120809166028160809325
:10406000660293C0809167028860809367028DC06A
:10407000809166028260F3CF809166028460EFCF08
:10408000809166028860EBCF809167028160EDCFFE
:10409000809167028260E9CF809166028061DFCF04
:1040A000809166028062DBCF809166028064D7CF08
:1040B0000E94B40E809166028068D1CF8091660222
:1040C0008860DCCF809167028260E0CF80916602D9
:1040D0008E7FC5CF80916702877FC7CF80916602B0
:1040E0008D7FBDCF809166028B7FB9CF80916602B4
:1040F000877FB5CF809167028E7FB7CF80916702AF
:104100008D7FB3CF809166028F7EA9CF80916602AA
:104110008F7DA5CF809166028F7BA1CF0E94B40EC8
:10412000809166028F779BCF80916602877FDCCF7C
:10413000809167028D7FE0CF8091660282FB992794
:1041400090F921E0922790FB82F990FB83F987CFC9
:1041500080916702982F909591708E7F892B90FBAC
:1041600081F983CF90916602892F8F7B96FF8064BF
:1041700076CF0E94B40E90916602892F97FB87F943
:1041800080586DCF81E00E94F61480916602909174
:1041900067020E946C140E94B40E80E0DF91CF9100
:1041A000089580E0F0CF90916602892F8F7E94FF72
:1041B000806155CF90916602892F8E7F90FF81603C
:1041C0004ECF90916702892F877F93FF88604DCFF4
:1041D00081E0E4CFB0E0A0E0E0EFF0E20C946F32D9
:1041E000E82FF0E0ED56F84FD490282F269526952D
:1041F000269530E0F901ED5CF74F0491877010E0EF
:10420000082E02C0159507950A94E2F70170112750
:10421000F901ED5DF74FE490F12C082E02C0F59402
:10422000E7940A94E2F791E0E922FF24F901ED5EB8
:10423000F74FC491D0E002C0D595C7958A95E2F7B3
:10424000C170DD270115110519F081EE0E948F0B59
:10425000E114F10419F086EE0E948F0B8D2D0E945F
:10426000670CE114F10419F086EE0E94070C0115A9
:10427000110519F081EE0E94070CCD2B19F08CE28C
:104280000E94670CCDB7DEB7E7E00C948B32EF925B
:10429000FF920F931F93CF93DF93EC01162F0AE049
:1042A0008881882309F454C0813009F04EC0898187
:1042B000813099F47E0122E0E20EF11C8A810E9495
:1042C000670CE7012196812F815050F3EFE9FFE061
:1042D0003197F1F700C00000F7CF823041F47E0142
:1042E00082E0E80EF11C8A810E948F0BEACF8330B6
:1042F00041F47E01E2E0EE0EF11C8A810E94070C7F
:10430000E0CF843011F02196DDCF2A81229690E013
:1043100080E0AE014F5F5F4F2053330B2A303105F1
:1043200048F0019778F2EFE9FFE03197F1F700C02C
:104330000000F7CF089FB001099F700D1124C9013B
:10434000860F971F2981EA01E4CF0E94EA20BACFA5
:10435000CDB7DEB7E6E00C948C32CF939C01345796
:10436000C1E02034310538F4FB01C581CC2331F0A4
:104370000E94CC21C0E08C2FCF9108950E94D921BA
:10438000FACF80914C02882331F087E492E00E94BA
:10439000EC2710924C02089581110AC080914702C7
:1043A00081608093470281E080934C020E94C1218A
:1043B000089581110AC0809147028E7F8093470241
:1043C00081E080934C020E94C12108958F929F92B8
:1043D000AF92BF92CF92DF92EF92FF92CF93DF9393
:1043E000823008F00AC1482F50E029E0829FF00196
:1043F0001124E65FFE4F8181A82FA295AF70B0E037
:1044000092969C9192978F7061E070E09B0101C041
:10441000220F8A95EAF72095292392962C93818181
:10442000A82FA295AF70B0E091969C9191978F7054
:104430009B0101C0220F8A95EAF7892F822B919662
:104440008C9385E38A95F1F7000090819F3F01F1FD
:10445000A92FA295AF70B0E091968C9191979F7023
:104460009B0101C0220F9A95EAF7822B91968C93BB
:104470009081E92FE295EF70F0E022A19F70DB01BF
:1044800002C0AA0FBB1F9A95E2F7CD01822B82A32F
:1044900089E0849FF001859FF00D1124E65FFE4FB7
:1044A00022812F3F09F1A22FA295AF70B0E0919623
:1044B0003C9191972F7081E090E0BC0101C0660FA4
:1044C0002A95EAF7232F262B91962C932281E22F0F
:1044D000E295EF70F0E032A12F7001C0880F2A95AD
:1044E000EAF78095832382A3B5E3BA95F1F700003C
:1044F00089E0849FE001859FD00D1124C65FDE4FC7
:104500003981E32FE295EF70F0E041A13F7081E047
:1045100090E0BC0102C0660F771F3A95E2F79B015D
:104520002095242321A32981E22FE295EF70F0E06A
:1045300032A12F7001C0880F2A95EAF78095832356
:1045400082A375E37A95F1F7000089810E946E06D7
:104550008D809E80B12CA12C092E000CAA0BBB0BC8
:104560006C017D01C818D908EA08FB08A1E0BEEF7C
:10457000A70196010E945F322B813C8150E040E010
:10458000281939094A095B090E94073212161306D5
:104590001406150684F4AFEFB1E0A70196010E945E
:1045A00051322F81388550E040E0281939094A09F5
:1045B0005B090E940732DA01C90181302EEF9207B0
:1045C0002FEFA207B20724F481E09EEFAFEFBFEF19
:1045D000811562E09607A105B10524F08FEF91E007
:1045E000A0E0B0E0DF91CF91FF90EF90DF90CF900F
:1045F000BF90AF909F908F90089590E080E0F2CFB1
:10460000823080F4E82FF0E0EE0FFF1FE95BFD4FF2
:10461000818192818617970729F07283618381E0F7
:1046200080934C02089580910B018F3F39F080E018
:104630000E94E621BC0180E00E94002380911401C9
:104640008F3F39F081E00E94E621BC0181E00E94A9
:1046500000230E94C12108950E94132308958FE82A
:1046600091E00197F1F700C00000089581E0809388
:104670004E0253985B9A52985A9A0E942F23309177
:104680004E02E0E5F2E090E0391301C0089589B1EF
:1046900083FB882780F94A9B05C022E0822B819307
:1046A0009F5FF2CF20E0FACFA8E1B0E0EAE5F3E2C5
:1046B0000C94673210E000E082E0982E96E0A92E7C
:1046C000B12C2DEF822E772473943CEF632E43E0C0
:1046D000542E80914E02181728F0802F6896EFE034
:1046E0000C948332E12EF12CE9B1E3FBEE27E0F9E3
:1046F0004A9B95C082E08E2BD701A05BBD4FEC9109
:104700009E2F9370981709F488C0EE0FEE0FE82BD8
:10471000EC93EF70F0E0EE59FE4FC701815B9D4FC7
:104720006C018081F6019081890F808320E08630C2
:104730009CF1F701E35BFD4F80818F5F80830E94D6
:1047400030291D876E86682F8F87988B598A7A8AC1
:10475000412F5CEF792F83E091E00E944C0B8FE1B9
:104760009EE40197F1F700C000000E9430291B8BE6
:104770006C8A682F8D8B9E8B5F8A188E412F5CEF21
:10478000792F83E090E00E944C0BEFE1FEE431973B
:10479000F1F700C0000021E0F60180818B3F9CF51D
:1047A000F701E35BFD4F8081815080830E943029B7
:1047B00019838A82682F8B839C839D827E82412FFE
:1047C0005DEF792F82E091E00E944C0B8FE19EE437
:1047D0000197F1F700C000000E9430291F838886EE
:1047E000682F89879A879B861C86412F5DEF792FDA
:1047F00082E090E00E944C0BEFE1FEE43197F1F78C
:1048000000C0000021E0F6018081082E000C990B09
:10481000B5010E94D1318083022B1F5F5ACF80E007
:104820006ACF81E0089581E008950E9413240895DD
:104830008FE891E00197F1F700C000000895CF9252
:10484000DF92EF92FF92CF93DF93D82FC0E0C12C7D
:10485000D12C760140E080915302C81788F04423A0
:1048600041F0C701B6010E94152480915202809345
:104870005102DF91CF91FF90EF90DF90CF9008959C
:104880002C2F30E083B190E095958795959587958D
:1048900080959095682F6170F901EE5AFD4F608305
:1048A000817099270C2E02C0880F991F0A94E2F795
:1048B000092E000CAA0BBB0BC82AD92AEA2AFB2A0C
:1048C0002F5A3D4FF9018081681302C0DD2321F08A
:1048D0008C2F0E94740941E0CF5FBDCF81E08093AF
:1048E000530222982A9A0E94182481E00E941F24D1
:1048F000089584E0089520E1629FB001112450E002
:10490000440F551F640F751F9B0140E5849F200DC8
:10491000311D1124C901899608950F931F93CF93D8
:10492000DF938430C8F46530B8F44830A8F40E94AE
:104930007B248C010E946835C82FD0E0DC2FCC2767
:10494000C80101960E9468359E01282BC901DF919C
:10495000CF911F910F91089590E080E0F8CF0F93D1
:104960001F93CF93DF93843080F4653070F4483028
:1049700060F4E9010E947B248C016D2F0E94863532
:104980006C2FC80101960E948635DF91CF911F914F
:104990000F910895FF920F931F93CF93DF9384306D
:1049A00048F5611127C024E0829F80011124075936
:1049B0001E4F82E090E0442311F090E080E0F42E5E
:1049C000800F911F0E946835C82FD0E0DC2FCC27C4
:1049D00083E090E0FF2011F081E090E0800F911FD4
:1049E0000E9468359E01282BC901CDB7DEB7E5E0EE
:1049F0000C948D3290E080E0F8CF0F931F93CF930B
:104A0000DF93843000F561111EC094E0899FE001BE
:104A10001124C759DE4F82E090E0442311F090E06A
:104A200080E0632F022F142F8C0F9D1F0E9486356C
:104A300083E090E0112311F081E090E0602F8C0F73
:104A40009D1F0E948635DF91CF911F910F91089590
:104A50001F93CF93DF93C0E0D0E011C0412F6D2FA3
:104A60008C2F0E94DA099C01412F6D2F8C2F0E9400
:104A7000AF241F5F183091F7DF5FD53011F010E0E1
:104A8000EDCF41E060E08C2F0E94F8099C0141E0ED
:104A900060E08C2F0E94FD2440E060E08C2F0E949B
:104AA000F8099C0140E060E08C2F0E94FD24CF5F5C
:104AB000C43091F6DF91CF911F910895EF92FF924C
:104AC0000F931F93CF93DF938C01EA017A01E60ED7
:104AD000F71EC8018996CE15DF0529F4CDB7DEB7DC
:104AE000E6E00C948C32003421E0120738F40E9486
:104AF0006835888321960F5F1F4FEBCF1882FACF5E
:104B0000B0E0A0E0E6E8F5E20C946E327C016A01C8
:104B10008C01060F171FEC01CE018996C017D10733
:104B200029F4CDB7DEB7E8E00C948A32C03421E036
:104B3000D20740F4FE01EE19FF09EC0DFD1D608166
:104B40000E9486352196E8CF843038F4653028F409
:104B5000483018F40E948D24089590E080E0089574
:104B6000843028F4611103C00E94CA24089590E0A3
:104B700080E0089580E1089587E892E00895EF923B
:104B8000FF920F931F93CF93DF938C01EA017A0179
:104B9000E60EF71EC80187589E4FCE15DF0529F493
:104BA000CDB7DEB7E6E00C948C32073822E012076E
:104BB00038F40E946835888321960F5F1F4FEACF33
:104BC0001882FACFB0E0A0E0E8EEF5E20C946E3285
:104BD0007C016A018C01060F171FEC01CE0187587A
:104BE0009E4FC017D10729F4CDB7DEB7E8E00C948B
:104BF0008A32C73822E0D20740F4FE01EE19FF09DD
:104C0000EC0DFD1D60810E9486352196E7CFCF9384
:104C1000DF93C9E7D1E060E0CE010E94863521969E
:104C2000C11584E0D807B9F7DF91CF910895A8E0C6
:104C3000B0E0EDE1F6E20C946A32F82E8FE08F15C9
:104C400008F471C08FEF93E00E94683581116BC04A
:104C500009E711E0F11035C0FE0131966F0188E0DF
:104C600011928A95E9F77801FFEFEF1AFF0AC80160
:104C70000E94683589831A82882309F454C08130E0
:104C8000D1F4580182E0A80EB11CC7010E9468351A
:104C90008A83882309F447C09FEF980F9330F0F47C
:104CA000780193E0E90EF11CC5010E9468358B8301
:104CB0008823C9F11C8265E0C6010E944721870153
:104CC000D2CF011594E0190771F1C8010E9468352F
:104CD000811101C0FA940F5F1F4FBCCF7501843062
:104CE00051F74E01E3E08E0E911C02E010E07501D9
:104CF000FFEFEF1AFF0AC5010E946835F4018193A6
:104D00004F01882381F08C3741F4E2E0F0E0EC0FB2
:104D1000FD1FE00FF11F1082CECF0F5F1F4F570115
:104D20000730110521F72896ECE00C948632CF93DA
:104D3000DF9386319C4719F5EB010E944E139D814C
:104D4000992399F08A7A91E009F490E090935402C3
:104D5000811109C089E20E9426130E94A91380E0F4
:104D6000DF91CF91089585E3F6CF809154028111B0
:104D700004C089E20E942E13F0CF85E3FBCF81E0CF
:104D8000EFCF0F931F93CF93DF93C42FD22FFC014C
:104D900085818823C9F0409357020E94302990935F
:104DA00056028093550280E28C0F883040F4C77021
:104DB00081E001C0880FCA95EAF70E94700CDF916C
:104DC000CF911F910F91089510915702141332C083
:104DD00080915502909156020E944829883C910585
:104DE00048F5C0E2CD0F1D17B9F080E2810F883081
:104DF00040F4177081E001C0880F1A95EAF70E940D
:104E0000770CC83010F581E09D2F977001C0880F96
:104E10009A95EAF70E94700C802F0E94670CC830A8
:104E200070F6D77081E001C0880FDA95EAF70E942A
:104E3000770CC5CF80E28C0F883008F6C77081E010
:104E400001C0880FCA95EAF7F2CF802F0E94670C45
:104E5000B6CF0F93FC01E851FC47E730F10508F0AD
:104E60003AC0CB01EA5CF84D0C9426324D2753270B
:104E70003D27472759275F27652706E221EE41EEA8
:104E80006AE17CE70E94C12680E00F91089507E265
:104E900025EE45EE6BE17CE7F5CF06E221EE40EE34
:104EA00068E17CE7EFCF07E225EE44EE69E17CE7BD
:104EB000E9CF06E221EE42EE6CE17CE7E3CF07E2C8
:104EC00025EE46EE6DE17CE7DDCF08E221E045EE20
:104ED0006EE17CE7D7CFFB018581882319F0109222
:104EE0005702D3CF81E0D1CF1F93CF93DF93873782
:104EF0002CE7920729F088379C4769F1C1E015C07B
:104F0000FB01C581CC23B1F00E94B5270E942B0F75
:104F10000E94BB27D82F0E94B827C82F0E94B52710
:104F20004D2F6C2F0E946110C0E08C2FDF91CF912C
:104F30001F9108950E94B5270E94370F0E94BB273A
:104F4000182F0E94B827D82F0E94B527412F6D2F08
:104F50000E946110EACFFB01C581CC2319F00E94A9
:104F6000B827D4CF0E94B827E7CF80913C0108959D
:104F700080913B01089580913A01089590935902E0
:104F8000809358020895E0915802F09159023097A9
:104F900029F00190F081E02D0995089580E00895B1
:104FA0000E94C3270895E0915802F091590230976A
:104FB00021F00280F381E02D09950895E0915802D7
:104FC000F0915902309739F022E0DC012C930480F3
:104FD000F581E02D09950895A6E0B0E0E2EFF7E253
:104FE0000C9474322091580230915902232B89F08D
:104FF000FC0187E08983818192819B838A838381FD
:1050000094819D838C8380818E83CE0101960E9442
:10501000EB2B2696E2E00C949032FC01329697E05E
:1050200080E0915009F4089521912223D1F38F5FFC
:10503000F8CF662349F0FC01329608962191261795
:1050400029F0E817F907D1F780E0089581E0089585
:105050009C01FC0132969FEF80E04191461751F090
:105060009F3F19F4411101C0982F8F5F8630A9F737
:105070009F3F09F40895290F311D97FD3A95F901D5
:1050800062830895FC01329608962191261303C08D
:10509000DF0111971C92E817F907B9F708950E94EC
:1050A000282808950E9442280895029626E0FC01CF
:1050B00011922A95E9F70895DC01FB0111969C9164
:1050C00011978181981322C012968C911297882390
:1050D00019F0928189131AC013968C911397882323
:1050E00019F09381891312C015968C911597882316
:1050F00019F0958189130AC014969C91992321F087
:1051000081E02481291303C080E001C081E0817027
:10511000089508950E9489280895811106C081E0AC
:1051200080935A020E948A28089582E0F9CF83E092
:1051300080935A020E948A2808950E948D2808951B
:1051400081E080935A020E948A2808950E94A02834
:105150000895089508950E94AA280895089508952D
:105160000E94A9280895CF930E94AE280E9460054E
:105170000E94AF28C0E08C2F0E944718811105C003
:10518000CF5FC530C1F7CF91089581E0FCCF85B7DF
:10519000806885BF85B7806885BF08951F920F928C
:1051A0000FB60F9211248F939F93AF93BF9380916B
:1051B0005B02811113C08091780490917904A091D1
:1051C0007A04B0917B044196A11DB11D80937804AF
:1051D00090937904A0937A04B0937B04BF91AF912C
:1051E0009F918F910F900FBE0F901F9018958091F7
:1051F0008004843031F10E94EE0A10925B0288E153
:1052000090E020E40FB6F894A895809360000FBE5C
:105210002093600083B7817F846083BF83B7816000
:1052200083BF7894889583B78E7F83BF0FB6F89439
:10523000A895809160008861809360001092600062
:105240000FBE08950E94B40E0E94F50A089582E0F0
:1052500084BD93E095BD9AEF97BD80936E0008954D
:105260002FB7F8948091780490917904A0917A04F2
:10527000B0917B042FBF08952FB7F8946091780404
:105280007091790480917A0490917B042FBF0895E6
:105290009C014FB7F8948091780490917904A09183
:1052A0007A04B0917B044FBF821B930B08957894CE
:1052B0001F920F920FB60F9211248F939F93AF936B
:1052C000BF938091780490917904A0917A04B09171
:1052D0007B040196A11DB11D8093780490937904FD
:1052E000A0937A04B0937B04BF91AF919F918F916B
:1052F0000F900FBE0F901F90189581E08093E000F3
:1053000080E28093D8001092C9008FE19EE401975B
:10531000F1F700C0000087E090EBDC018093890486
:1053200090938A04A0938B04B0938C0488E19CE052
:105330000FB6F894A895809360000FBE909360001C
:10534000FFCF88E19CE00FB6F894A89580936000A9
:105350000FBE90936000FFCF1092B9008CE0809355
:10536000B8000895B0E0A0E0E8EBF9E20C946B32ED
:10537000B82EEB010E9430296C01EE24E394F12C4D
:10538000C431D10560F025E0E22EF12CCF3FDC07DF
:1053900031F0CE0164E170E00E94BD317B0184EA0E
:1053A000A82E94E8992E1092BC00A092BC000E94F6
:1053B00030298C018091BC0087FF0DC08091B9001D
:1053C000887F8830F9F08091B900887F8031D1F0F2
:1053D0000FEF1FEF08C0C8010E944829E816F90620
:1053E00048F70EEF1FEFCF3FDC07E9F2C6010E943E
:1053F0004829C817D907B8F6C801CDB7DEB7EBE022
:105400000C948732B092BB009092BC000E9430296D
:105410008C018091BC0087FF0AC08091B900887F11
:10542000883111F08034A1F610E000E0E5CFC8012A
:105430000E944829E816F90660F7D3CF0F931F930F
:10544000CF93DF93EB018093BB0084E88093BC0093
:105450000E9430298C018091BC0087FF11C02091EF
:10546000B900287F81E090E0283211F490E080E0DC
:10547000919581959109DF91CF911F910F91089599
:10548000CF3FDC0741F3C8010E944829C817D9075C
:1054900010F78EEF9FEFEFCFB0E0A0E0E2E5FAE289
:1054A0000C946E326B018A017901B9010E94B22914
:1054B000E6010C0D1D1DC017D10711F097FF08C0A4
:1054C00024E92093BC00CDB7DEB7E8E00C948A3223
:1054D000B70189910E941E2AEECFB0E0A0E0E3E779
:1054E000FAE20C946E32C62F6A017901B8010E946B
:1054F000B22997FD0CC0B8018C2F0E941E2AE6012C
:10550000EC0CFD1CCE15DF0511F097FF08C024E957
:105510002093BC00CDB7DEB7E8E00C948A32B80126
:1055200089910E941E2AEECF84E98093BC000895E1
:1055300080916402089508959B01909180049430B5
:10554000F1F48F708093E9008FEF9091E800815023
:1055500095FD06C095ED9A95F1F700008111F5CF04
:105560008091E80085FF0BC0BA01C90150E040E01E
:105570000E94DA2C8091E8008E778093E8000895ED
:1055800046E050E0BC0184E00E949C2A0895CF933D
:10559000DF93EC0148E050E0BC0181E00E949C2ACE
:1055A00088E0FE01ACE5B2E001900D928A95E1F74A
:1055B000DF91CF910895603231F4BC0140E250E0B8
:1055C00082E00E949C2A089580917F04811109C085
:1055D0000E94B92E0E94162F8091E2008460809371
:1055E000E200089510927F0408950E94A028089573
:1055F00060917C0481E0611101C080E00E949728E5
:1056000008959091800481E0943009F080E06091E9
:105610007C040E949D28089542E061EC81E00E9494
:10562000372E42E261EC84E00E94372E42E261ECC8
:1056300082E00E94372E42E260EC83E00E94372E27
:105640009091800481E0943009F080E060917C04C6
:105650000E948D28089580918204833009F467C0E8
:1056600038F4813009F43FC0823009F4A3C00895B2
:105670008A3009F48FC08B3009F474C0893009F086
:1056800055C080918104813209F050C08091850419
:1056900090918604009719F0029709F047C0809115
:1056A000E800877F8093E8008091E80082FF3AC09D
:1056B0008091F3009091F20089279827892702971B
:1056C00031F48091F100813011F0863021F4809125
:1056D000F100809364028091E8008B778093E8006A
:1056E0000E946B2E23C080918104813AF9F480914D
:1056F000E800877F8093E80080918504909186047C
:10570000892B61F468E08CE592E070E00E94782DCE
:105710008091E8008B778093E800089560E090E046
:1057200080E0F3CF809180048111BECF08958091F5
:105730008104813AD9F78091850490918604892B60
:10574000A9F78091E800877F8093E8008091E800C6
:1057500080FFFCCF809145018093F1008091E800AB
:105760008E77BCCF80918104813201F780918504CE
:1057700090918604892BD1F68091E800877F8093F1
:10578000E8000E946B2E80918304809345010E9463
:10579000B40E089580918104813241F68091E80031
:1057A000877F8093E8000E946B2E80918404809311
:1057B0006502089580918104813A09F0B7CF809104
:1057C000E800877F8093E8008091E80080FFFCCFAD
:1057D00080916502C1CF46E050E0BC0184E00E94A8
:1057E0009C2A089584B7877F84BF0FB6F894A89544
:1057F00080916000886180936000109260000FBE0D
:1058000080E890E00FB6F894809361009093610077
:105810000FBE0E94A62808950E94B92E0E94162F3E
:10582000E2EEF0E080818460808378940E9495317C
:1058300008958DE391E00E94BE2708958091800431
:10584000853031F480918004853019F00E9422293E
:1058500008950E94F72880917E04882399F30E947E
:10586000B328882379F30E94C42C0E94B40EEACF97
:10587000A0E2B0E0EEE3FCE20C947432809180048C
:10588000843009F583E08093E9008091E80082FF8D
:105890001AC08091E80090E085FF09C050E040E028
:1058A00060E270E0CE0101960E94292D91E0809186
:1058B000E8008B778093E800992329F060E2CE011D
:1058C00001960E94E21BA096E2E00C9490329A01AD
:1058D00040918704509188040E946F2C0895492FAD
:1058E00055274330510579F158F441305105F1F015
:1058F0004230510519F190E080E050E040E01AC0DC
:105900004132510599F142325105A9F763307105D1
:1059100090F7FB01EE0FFF1FEB58FE4F40815181C6
:105920006E587E4FFB01808190E004C082E190E0E0
:1059300044EC58E0F9015183408308958BE590E0F1
:1059400049E658E0F7CF99278130910561F028F0BA
:10595000029789F6E3E4F8E002C0E5E6F8E0849116
:1059600090E0AF01E7CFE1E5F8E0F9CF63307105F2
:1059700008F0C1CF660F771FFB01E558FE4F40814D
:10598000518189E090E0D6CF80E189BD82E189BD77
:1059900009B400FEFDCF8091D8008F7D8093D800A0
:1059A0008091E00082608093E0008091E00081FDC2
:1059B000FCCF0895AF92BF92CF92DF92FF920F93E8
:1059C0001F93CF93DF936C01EB018A010E948A2E13
:1059D000F82E811123C00115110539F0F8018081DD
:1059E0009181C81BD90BC80ED91EB12CA12C2097B0
:1059F000A9F08091E80085FD22C08091E8008E77B3
:105A00008093E80001151105A1F0F80180819181D2
:105A1000A80EB91EB182A08285E0F82E8F2DDF91ED
:105A2000CF911F910F91FF90DF90CF90BF90AF90DB
:105A300008950E948A2E8823D1F2F82EEFCFF60126
:105A400081916F018093F1002197FFEFAF1ABF0A98
:105A5000CECFAF92BF92CF92DF92FF920F931F9360
:105A6000CF93DF936C01EB018A010E948A2EF82EFE
:105A7000811123C00115110539F0F8018081918150
:105A8000C81BD90BC80ED91EB12CA12C2097A9F088
:105A90008091E80085FD22C08091E8008B7780939B
:105AA000E80001151105A1F0F80180819181A80E8F
:105AB000B91EB182A08285E0F82E8F2DDF91CF91A3
:105AC0001F910F91FF90DF90CF90BF90AF900895FE
:105AD0000E948A2E8823D1F2F82EEFCF8091F10018
