:100000000C94D3040C940B050C940B050C940B0569
:100010000C940B050C940B050C940B050C940B0520
:100020000C940B050C940B050C949B120C94BC16B1
:100030000C94C9220C940B050C940B050C940B0525
:100040000C940B050C940B050C940B050C940B05F0
:100050000C940B050C9473130C940B050C940B056A
:100060000C940B050C940B050C940B050C940B05D0
:100070000C940B050C940B050C940B050C940B05C0
:100080000C940B050C940B050C940B050C940B05B0
:100090000C940B050C940B050C940B050C940B05A0
:1000A0000C940B050C940B050C940B05050109022F
:1000B000A10185020901A1000509190129081500FE
:1000C0002501950875018102050109300931158165
:1000D000257F95027508810609381581257F9501D0
:1000E00075088106050C0A38021581257F95017572
:1000F000088106C0C00660FF0961A1010962150000
:1001000026FF009520750881020963150026FF006F
:10011000952075089102C005010906A1010507197E
:10012000E029E71500250195087501810295017503
:100130000881010507190029FF150026FF00950613
:100140007508810005081901290515002501950587
:1001500075019102950175039101C0000000000036
:10016000000000000000000000000000000000008F
:100170000000000000000000000000000000007E01
:100180000F00D4FFFFFFC700000078000000000050
:100190000000002A2B2800000000000000000000E2
:1001A00000000000000029000000002C1E34202167
:1001B0002224342627252E362D3738271E1F2021AE
:1001C00022232425263333362E37381F040506070D
:1001D00008090A0B0C0D0E0F101112131415161727
:1001E00018191A1B1C1D2F3130232D350405060745
:1001F00008090A0B0C0D0E0F101112131415161707
:1002000018191A1B1C1D2F3130354C61626364654F
:10021000666768696A6B6C6D6E6F70717273747506
:10022000767778797A313233343536373839305217
:100230004542545F2D3D5B5D5C233B27602C2E2F98
:1002400000DA0281FFD9F1DB20A4A62EAF00A0C006
:10025000D30000A1C8D30000AED580A81F408D14E4
:10026000200000AF00AE556E646566003372640016
:10027000326E640031737400307468004C4159452B
:1002800052000004000500060007001400150016C7
:10029000001700080009000A000B001800190000F0
:1002A0000000000C000D000E000F00000000000018
:1002B00000000010001100120013000000000000F8
:1002C0000000001A001B001C0000000000000000DD
:1002D00000000004000500060007001400150016C9
:1002E000001700080009000A000B001800190000A0
:1002F0000000000C000D000E000F000000000000C8
:1003000000000010001100120013000000000000A7
:100310000000001A001B001C00000000000000008C
:100320000000000400050006000700140015001678
:10033000001700080009000A000B0018001900004F
:100340000000000C000D000E000F00000000000077
:100350000000001000110012001300000000000057
:100360000000001A001B001C00000000000000003C
:100370000000000400050006000700140015001628
:10038000001700080009000A000B001800190000FF
:100390000000000C000D000E000F00000000000027
:1003A0000000001000110012001300000000000007
:1003B0000000001A001B001C0000000000000000EC
:1003C0000000001F001E0021002000230022002545
:1003D00000240009025B00030100A0FA09040000E8
:1003E0000103010100092111010001224400070558
:1003F0008103080001090401000203000000092133
:1004000011010001222200070582032000010705D7
:100410000303200001090402000103000000092178
:100420001101000122490007058403200001120187
:1004300000020000000838393432010001020001D6
:100440000C036700620063003200340000001203F6
:100450006B0075007300680069006D006100380072
:1004600000000403090407087F0807003E5B4F5B98
:100470003E003E6B4F6B3E001C3E7C3E1C00183C19
:100480007E3C18001C577D571C001C5E7F5E1C00C4
:1004900000183C180000FFE7C3E7FF00001824180D
:1004A0000000FFE7DBE7FF0030483A060E00262990
:1004B00079292600407F05050700407F05253F007C
:1004C0005A3CE73C5A007F3E1C1C0800081C1C3E9E
:1004D0007F0014227F2214005F5F005F5F00060927
:1004E0007F017F00006689956A006060606060003F
:1004F00094A2FFA2940008047E04080010207E202D
:10050000100008082A1C0800081C2A0808001E10F1
:10051000101010000C1E0C1E0C0030383E3830003D
:10052000060E3E0E060000000000000000005F0006
:100530000000000700070000147F147F1400242A25
:100540007F2A1200231308646200364956205000A7
:10055000000807030000001C224100000041221C8B
:1005600000002A1C7F1C2A0008083E0808000080A2
:1005700070300000080808080800000060600000F3
:100580002010080402003E5149453E0000427F40D1
:1005900000007249494946002141494D3300181471
:1005A000127F10002745454539003C4A4949310032
:1005B0004121110907003649494936004649492970
:1005C0001E0000001400000000403400000000087D
:1005D00014224100141414141400004122140800C1
:1005E0000201590906003E415D594E007C1211126C
:1005F0007C007F49494936003E41414122007F410C
:1006000041413E007F49494941007F0909090100F4
:100610003E41415173007F0808087F0000417F413F
:1006200000002040413F01007F08142241007F402C
:10063000404040007F021C027F007F0408107F00C2
:100640003E4141413E007F09090906003E415121DA
:100650005E007F09192946002649494932000301F5
:100660007F0103003F4040403F001F2040201F000B
:100670003F4038403F0063140814630003047804CB
:1006800003006159494D4300007F4141410002048C
:1006900008102000004141417F00040201020400D3
:1006A00040404040400000030708000020545478B8
:1006B00040007F28444438003844444428003844EB
:1006C00044287F0038545454180000087E09020062
:1006D00018A4A49C78007F080404780000447D409E
:1006E00000002040403D00007F10284400000041F1
:1006F0007F4000007C04780478007C0804047800C3
:10070000384444443800FC182424180018242418C1
:10071000FC007C08040408004854545424000404D9
:100720003F4424003C4040207C001C2040201C0012
:100730003C4030403C004428102844004C909090AD
:100740007C004464544C4400000836410000000022
:100750007700000000413608000002010204020098
:100760003C2623263C00000000000000404040F0F2
:10077000F8F8FF38FFF8F83FF8F8FF38FFF8F8F01E
:1007800040404000000000000080C0C0C080000069
:10079000C0C08000000080C0C000C0C0000080C099
:1007A000C00000000000C0C0C0C0C000C0C0000049
:1007B0000000000000000000000000000000000039
:1007C0000000000000000000000000000000000029
:1007D0000000000000000000000000000000000019
:1007E0000000000000C0F0F8FC3E1E060100000002
:1007F0007F4141417F007F4141417F000080C0E057
:100800007E5B4F5BFEC00000C000DCD7DEDEDED7C3
:10081000DC00C0000000000000000000000000003C
:10082000000000000000000000000000494949FFEE
:10083000FFFFFFE0DFBFBF00BFBFDFE0FFFFFFFF45
:1008400049494900000000001F3F6060E0BF1F00F1
:100850007F7F071E381E077F7F007F7F0E1F3B7143
:100860006000000000007F7F0C0C0C007E7E007F8B
:100870007E0303007F7E03037E7E03037F7E000FE3
:100880003E703C063C703E0F00327B49493F7E0083
:100890007F7E0303001E3F69696F26000000000091
:1008A0000000000000030F1F3F3C78706000000054
:1008B0007F4141417F007F4141417F00307B7F7814
:1008C00030202030787F3B0003000F7F0F0F0F7F19
:1008D0000F00030000000000000000000000000006
:1008E00000000000000000000000000001010107FE
:1008F0000F0F7F0F7F0F0F7E0F0F7F0F7F0F0F07E1
:1009000001010100000000000000000000010100E2
:1009100000000000000000000000000000000000D7
:1009200000000000000000000000000000000000C7
:1009300000000000000000000000000000000000B7
:1009400000000000000000000000000000000000A7
:100950000000000000000000000000000000000097
:100960000000000000000000000000000000000087
:100970000000000000000000000000000000000077
:100980000000000000000000000000000000000067
:100990000000000000000000000000000000000057
:1009A00000000000000011241FBECFEFDAE0DEBF20
:1009B000CDBF04B603FE18C0809166049091670411
:1009C000A0916804B09169048730904BA740B04B68
:1009D00059F4109266041092670410926804109201
:1009E0006904E0E0F8E3099511E0A0E0B1E0EAE78E
:1009F000F6E502C005900D92A836B107D9F724E0BC
:100A0000A8E6B1E001C01D92A636B207E1F70E9448
:100A1000F2220C943B2B0C940000482F209154029E
:100A200090911B0257E0291302C080E0089530E046
:100A3000529FF001539FF00D1124E45EFD4F818120
:100A4000681306C08081481303C085818111EECFF1
:100A50002F5F3F4F2770E7CFE8EDF0E080818E7F7A
:100A600080831092E2001092DA001092E100A0EE72
:100A7000B0E08C9181608C9380818F77808319BCEA
:100A8000A7EDB0E08C918E7F8C9380818F7E8083E8
:100A90001092040208952091E4003091E50085E66B
:100AA0009091EC0090FF06C09091E80090FF06C086
:100AB00080E008959091E80092FDFACF90911102A4
:100AC000992391F0953091F09091EB0095FD10C035
:100AD0004091E4005091E5002417350709F3815057
:100AE0009A01F1F684E0089582E0089583E0089584
:100AF00081E008958091130287FF13C08091E80080
:100B000082FF06C08091E8008B778093E80004C0E4
:100B1000809111028111F2CF0895809111028823F2
:100B2000D9F38091E80080FFF8CF8091E8008E77BC
:100B3000ECCF982F9093E900242F762F50E089175F
:100B400031F07091EC002091ED005091F00021FD0A
:100B500007C09F5F973071F78093E90081E00895A7
:100B60003091EB003E7F3093EB003091ED003D7F04
:100B70003093ED003091EB0031603093EB007093D7
:100B8000EC002093ED005093F0002091EE0027FD43
:100B9000E0CF80E00895B0E0A0E0E1EDF5E00C9456
:100BA000732AC8EDD0E088818F7E8883E7EDF0E07E
:100BB00080818160808384E082BF81E08093040231
:100BC00088818E7F888302EE10E0F80110821092F7
:100BD000DA0081EEC82ED12CF601108288818F7741
:100BE000888388818068888388818F7D888319BC09
:100BF00010921102109212021092100210920F0223
:100C000090EEE92EF12CF70180818B7F8083888123
:100C10008160888342E060E080E00E949905F601EF
:100C200080818E7F8083F8018081816080838081D4
:100C300088608083F70180818E7F808388818061D6
:100C40008883CDB7DEB7E8E00C948F2AFC01809151
:100C5000190290911A0286179707A0F06115710585
:100C600029F49091E8009E779093E80090E0611558
:100C7000710551F4911108C08091E80082FF35C0E0
:100C800080E00895BC01F2CF809111028823C9F160
:100C90008530C9F18091E80083FD31C08091E80082
:100CA00082FDEACF8091E80080FFE1CF2091F30040
:100CB0008091F200322F282F6115710519F028302C
:100CC000310558F091E02830310509F090E020918D
:100CD000E8002E772093E800CACF81918093F1003D
:100CE000615071092F5F3F4FE7CF80911102882338
:100CF00041F0853041F08091E80083FFBDCF81E075
:100D0000089582E0089583E0089508958091060291
:100D100008952FB7F89460910002709101028091BC
:100D20000202909103022FBF0895DC01FB0111968E
:100D30009C9111978181981322C012968C911297E1
:100D4000882319F0928189131AC013968C911397F6
:100D5000882319F09381891312C015968C911597E9
:100D6000882319F0958189130AC014969C919923C0
:100D700021F081E02481291303C080E001C081E0DB
:100D800081700895E091FD01F091FE01309739F0F6
:100D900022E0DC012C930480F581E02D0995089573
:100DA000E091FD01F091FE01309729F00190F08172
:100DB000E02D0995089580E008958091BC0180FDA3
:100DC00016C081FD16C082FD16C08091BB0188232C
:100DD000A1F0883280F428E0829FC001112468E2EB
:100DE00070E00E940D2B862F672B39F0089582E06A
:100DF000089584E0089588E0089581E00895809141
:100E0000BC0180FD14C081FD14C082FD16C080911C
:100E1000BA01882381F08E3180F420E5829FC001E1
:100E200011246EE170E00E940D2B862F089584E15D
:100E3000089588E2089588E0089580E50895282FB0
:100E400035EB2303C001112497FF04C0805891099A
:100E5000892F089580589F4FFBCF80E0089590918F
:100E6000A80192FF10C041E0282F2471243009F01E
:100E700040E031E0282F2871283009F030E0431796
:100E800011F02CE0822793FF10C041E0282F24713D
:100E9000243109F040E031E0282F2871283109F091
:100EA00030E0431711F02CE082273091A90130FF88
:100EB00010C051E0282F2171213009F050E041E0AD
:100EC000282F2871283009F040E0541711F029E04C
:100ED000822731FF10C041E0282F2171213109F014
:100EE00040E031E0282F2871283109F030E0431725
:100EF00011F029E0822794FD877E089582389105BC
:100F0000B9F1B0F48133910509F47DC048F4893218
:100F1000910509F46DC08A32910509F479C00895EC
:100F20008533910509F45FC08933910509F108956E
:100F3000833E9105D9F138F4803E910529F1823E36
:100F4000910579F10895863E9105D9F1873E910585
:100F500009F43EC0843E910541F52091A90121FF8D
:100F600024C08091A80184FD19C087EE90E0089507
:100F70002091A801237009F056C02091A90123FFF8
:100F800014C089E290E008952091A80120FD38C0A6
:100F90003091A90130FF09C024FF3FC090E080E0FC
:100FA00008952091A80122FDF7CF08952091A8016E
:100FB00022FD36C03091A90130FD35C024FDEECFB1
:100FC000F4CF2091A80123FFF0CF24FDE7CFCDCFB0
:100FD0002091A80123FD2AC03091A90131FFEECF55
:100FE00084EE90E008952091A80125FDCACF0895D0
:100FF0002091A80125FD1DC02091A90123FFD5CF77
:1010000089E390E008952091A80126FD15C0089578
:101010002091A80126FD13C0089583EE90E0089565
:1010200082EE90E0089580EE90E0089586EE90E0E4
:10103000089585E390E008958AE290E0089581E3C1
:1010400090E0B3CF1F93CF93DF930E947E07EC0114
:10105000C11582E5D80708F03FC0C11590E5D90752
:1010600008F0BEC0C83ED105C0F4C03ED10580F432
:10107000C53AD10548F4C430D10550F4C130D1058A
:1010800039F0D0E0C0E004C0CD3CD105D0F3D0654C
:10109000CE01DF91CF911F910895C11580E4D8074B
:1010A00008F053C0C11590E2D90708F0B1C0C115CE
:1010B00081E0D80730F38D2F0E942F07182FCE0123
:1010C00099270E947E07C12FD0E0DC2FCC27CC27A8
:1010D000DF71C82BD92BDCCFC03892E5D907A8F433
:1010E000C03682E5D80708F061C0C03492E5D90760
:1010F00008F047C0C03282E5D80778F1CF71D0E060
:10110000DC2FCC27C16FD06AC3CFC03C92E5D90792
:1011100080F48C2F8F71C03AD24508F45AC00E94D7
:101120002F07C82FD0E0DC2FCC27CC27DF71D0626F
:10113000AFCFC03E82E5D80708F0A3CFDC2FCC2785
:10114000CC27DF71C06FD06AA3CFCE0199270E9450
:101150007E07CC27DF70D06ABCCF2C2F2695269532
:1011600090E2299F900111248C2F8370C1E0D0E080
:1011700002C0CC0FDD1F8A95E2F7C22BD32BDD68AE
:1011800087CF2C2F26952695277080E2289F9001E7
:1011900011248C2F8370C1E0D0E002C0CC0FDD1F82
:1011A0008A95E2F7DC68C22BD32B72CF2C2F2695C1
:1011B0002695277090E2299F900111248C2F83702F
:1011C000C1E0D0E002C0CC0FDD1F8A95E2F7DA68FB
:1011D000EACFC82FD0E0DC2FCC27C46FD06A58CF1D
:1011E0008C2F8F710E942F0755E0D695C7955A9581
:1011F000E1F7CF70D0E0DC2FCC27282F30E084FF40
:1012000005C044E0220F331F4A95E1F7D069CBCFE8
:101210008D2F8F710E942F07182FCE0199270E94C2
:101220007E07C12FD0E0DC2FCC27CC27DF71906266
:1012300050CF982F909580919F01892380939F0193
:101240000895EAE6F1E09281891301C01282319695
:1012500091E0E037F907B9F70895ACE6B1E0EFEFB8
:1012600090E02D91821751F0EF3F19F4211101C048
:10127000E92F9F5F9630A9F7EF3F09F408950E2EEE
:10128000000CFF0BE659FE4F8283089580915402B3
:1012900090911B02981301C008958F5F8770FACF59
:1012A000A82FA77023E0969587952A95E1F7FC0172
:1012B000EE0FFF1FE80FF91FE60FF71F50E040E0A9
:1012C00080E0219130E00A2E02C0369527950A94DD
:1012D000E2F721703327042E01C0220F0A94EAF7A7
:1012E000822B4F5F5F4F4330510559F7089595307A
:1012F00070F4883060F448E0949F900111246EE708
:1013000071E0820F932F911D0E94500908959C5FF8
:10131000923020F46BE771E090E0F6CF80E0089522
:10132000262F277091E001C0990F2A95EAF723E054
:10133000769567952A95E1F7FB01EE0FFF1FE60F03
:10134000F71FE40FF51F50E040E0682F70E0819137
:10135000DF0111979B01042E02C0369527950A9450
:10136000E2F7217021952827292328272C934F5F06
:101370005F4F4330510559F70895282F862F953038
:1013800068F4283058F438E0939FB0011124620FBC
:10139000711D4EE751E00E94900908959C5F9230C4
:1013A000E0F7622F70E04BE751E0F5CF8093D40176
:1013B00008959091D40121E030E0F90101C0EE0FD1
:1013C0008A95EAF7D90102C0AA0FBB1F6A95E2F716
:1013D000EA2B01C0220F4A95EAF7892F8E23E813E2
:1013E00005C0292B822F0E94D60908952095292314
:1013F000F9CF21E030E001C0220F8A95EAF720956D
:101400008091D40182230E94D6090895909194017D
:101410008095892380939401282F277069F4891778
:1014200059F09091A90192FF07C0869586958695FF
:101430000E94F90910929401089521E030E001C062
:10144000220F8A95EAF78091D401822B0E94D60957
:1014500008958093A7010895982F92959F7020E09A
:1014600011F0892F24E0982F9695969511F02E5F14
:10147000892F982F969509F02F5F822F0895CF938B
:10148000C82F809117018C1751F00E948906609334
:1014900018017093190180931A0190931B01C09356
:1014A0001701CF910895EF92FF920F931F93CF935F
:1014B000DF938C01EB01DC01ED91FC91222309F417
:1014C0005FC040911C01411101C044E04150550BE7
:1014D00081E090E07C01042E02C0EE0CFF1C0A9417
:1014E000E2F7CF01B7010E940D2B9B01CB01042E27
:1014F00002C0880F991F0A94E2F7E81BF90BD80184
:101500001196FC93EE931296ED91FC91CF01B701E9
:101510000E940D2BCB0102C0880F991F4A95E2F75C
:10152000E81BF90BD8011396FC93EE931297213820
:10153000BFEF3B07CCF020383105C4F421952D8353
:101540006138EFEF7E07A4F0603871059CF4619577
:101550006C8380911D01882379F0813079F0CDB7BB
:10156000DEB7E6E00C94912A21E8E8CF2FE7E6CF3A
:1015700061E8EDCF6FE7EBCF1D82F1CF1C82EFCF9B
:10158000E1382FEFF207BCF0E038F105B4F4E19553
:10159000EA83D80112968D919C918138BFEF9B0709
:1015A00074F0803891056CF48B83F80111821082FD
:1015B00013821282D4CFE1E8EACFEFE7E8CF81E8E7
:1015C000F3CF8FE7F1CF9C01860F971F37FD07C040
:1015D00077FD04C097FF02C08FEF9FE7089577FF64
:1015E000FDCF97FDFBCF80E090E80895E82FE295CE
:1015F000EF70F0E031A1282F2F7081E090E001C062
:10160000880F2A95EAF7932F982B91A392A18095A2
:10161000892382A30895E82FE295EF70F0E031A1CD
:10162000282F2F7081E090E001C0880F2A95EAF7FB
:10163000982F9095932391A392A1892B82A308952B
:1016400020E430E043E060E087EF0E9496280895B0
:101650000F931F93CF93DF938B01EA0190911102B7
:10166000943061F58093E9008FEF9091E80081500C
:1016700095FD06C095ED9A95F1F700008111F5CF23
:101680008091E80085FF1AC00E944B05811111C0AE
:101690008091E80085FD06C08091E8008E778093F8
:1016A000E800F2CFF80181918F018093F10021973A
:1016B00079F78091E8008E778093E800DF91CF91F1
:1016C0001F910F91089546E050E0BC0184E00E9414
:1016D000280B0895CF93DF93EC0148E050E0BC0164
:1016E00081E00E94280B88E0FE01A7E0B2E00190B3
:1016F0000D928A95E1F7DF91CF91089581E0809373
:10170000E00080E28093D8001092C9008FE19EE44F
:101710000197F1F700C0000087E090EBDC018093B7
:10172000660490936704A0936804B093690488E109
:101730009CE00FB6F894A895809360000FBE90933C
:101740006000FFCFCF93C82F0E94200B8C2F0E94E8
:101750000F298FE792E00197F1F700C000000E9487
:101760002729C82F95E09A95F1F700000E943F299C
:1017700085E68A95F1F70000109263048C2FCF91D3
:101780000895CF93DF93D82FC62F0E94200B8D2F63
:1017900080680E940F298C2F0E940F298AEB8A955E
:1017A000F1F700C00E943F2983E492E00197F1F72E
:1017B00000C00000DF91CF910895682F843208F0B7
:1017C00063E26093150191E09093160190910901F5
:1017D000992339F06150811101C064E08FE00E94CB
:1017E000C10B089590911501911101C095E0282F2A
:1017F000880F330BA901490F511DCA01181619068C
:1018000014F081E090E00E94DD0B0895ACE0B0E0C0
:10181000ECE0FCE00C94732A4F83588769877A8741
:101820008B879C8780910901882309F446C08091A9
:101830006304811107C060E080E50E94C10B81E074
:10184000809363040E94200B80E50E940F298AEB9D
:101850008A95F1F700C00E9427290E9427290E943B
:1018600027297C010E94272920E0E22AF82A0E94E9
:1018700027298C010E94272920E0022B182B0E9487
:101880003F2985E08A95F1F70000F894B70180912F
:101890000D0190910E010E94E30A90930E01809336
:1018A0000D01B80180910F01909110010E94E30A8F
:1018B0009093100180930F0178940E948906009103
:1018C00075011091760120917701309178016B01BB
:1018D0007C01C01AD10AE20AF30A97018601083096
:1018E00011052105310508F449C060937501709315
:1018F00076018093770190937801009118011091FF
:10190000190120911A0130911B01601B710B820B90
:10191000930B623371058105910580F410920E01DD
:1019200010920D011092100110920F0110921201ED
:1019300010921101109214011092130120911701BD
:1019400041E0BE01695F7F4F8DE091E00E94530A44
:101950002091170180910901282740E0BE01695FAD
:101960007F4F81E191E00E94530A86E0FE013796A5
:10197000A2E2B1E001900D928A95E1F786E0FE01C6
:101980003796DE01119601900D928A95E1F7298133
:101990003A814B815C816D817E8180E090E02C9664
:1019A000E8E00C948F2ACF9361EC71E08EEC91E02B
:1019B0000E949506C82F882321F08EEC91E00E94AA
:1019C000C2069091CF0186E0EEECF1E0DF01282F16
:1019D0001D922A95E9F79093CF01A1ECB1E0019017
:1019E0000D928A95E1F781E0C11103C0911101C008
:1019F00080E08170CF910895A6E3B0E0E2E0FDE0E1
:101A00000C94792A4091CE015091CF016091D00180
:101A10007091D1018091D2019091D3010E94060C66
:101A20002093CE013093CF014093D0015093D10148
:101A30006093D2017093D30186E0EEECF1E0DE0119
:101A4000599601900D928A95E1F786E0FE0179960C
:101A5000DE011D9601900D928A95E1F786E0FE0168
:101A60003D96DE01539601900D928A95E1F786E04E
:101A7000FE017396AEECB1E001900D928A95E1F70C
:101A800086E0EEECF1E0DE019B9601900D928A95E6
:101A9000E1F786E0FE01BB96DE01179601900D92FC
:101AA0008A95E1F786E0FE013796DE0111960190F6
:101AB0000D928A95E1F786E0FE013196DE015F9690
:101AC00001900D928A95E1F786E0FE017F96DE0196
:101AD000959601900D928A95E1F786E0FE01B59604
:101AE000AEECB1E001900D928A95E1F786E0E7EC6B
:101AF000F1E0DE01D19601900D928A95E1F7809197
:101B0000CF019AA9892B8093CF010E94D30C811118
:101B100009C08091CD011092CD018170E696E2E07E
:101B20000C94952A81E090E0F6CFCF93DF93682F55
:101B300081E06A3019F06D3031F480E00E94240EAB
:101B4000DF91CF910895809161049091620426E025
:101B5000FC01ABE5B4E001900D922A95E1F7603EFF
:101B600008F459C026E0FC0111922A95E9F7C091CA
:101B70006104D091620446E050E0BE018BE594E040
:101B80000E942E2B892B59F1CE018B5592409C013E
:101B900045E0369527954A95E1F741E050E0BA01D6
:101BA00002C0660F771F2A95E2F79B0160915902E8
:101BB00070915A02262B372B059665E096958795EE
:101BC0006A95E1F7FA0102C0EE0FFF1F8A95E2F76E
:101BD000CF01822B932B90935A02809359029E013E
:101BE0002555324040915802642F70E0C9010E948F
:101BF000552A481B463010F4240F311D2115F2E000
:101C00003F0710F030E020E0255A3D4F309362044A
:101C10002093610495CFF6E06F9FB00111246A59BB
:101C20007B4F46E050E00E94A02AA1CFCF93DF93E4
:101C3000EC01FE018491811103C0DF91CF910895E1
:101C40000E94950D2196F5CFCF93382FE091610436
:101C5000F0916204EB55F24020915802622F70E03F
:101C6000CF010E94552A281B822F332361F066E0A2
:101C70000E94012BC82FC15010F4CF91089580E22B
:101C80000E94950DF8CF9F01280F311D211532407C
:101C900018F080E0F0E0E0E08E0F9F2F911D855A54
:101CA0009D4F9093620480936104E7CF0E94160ECB
:101CB00081E00E94240E089580919F0190919E01E1
:101CC000892B80936A0190919D01992361F0892B62
:101CD00080936A01ECE6F1E097E080E0915019F51D
:101CE000811110929D0148E050E065E971E08AE6BB
:101CF00091E00E942E2B892BA9F088E0EAE6F1E022
:101D0000A5E9B1E001900D928A95E1F7E091FD011E
:101D1000F091FE01309731F00280F381E02D8AE6E8
:101D200091E00995089521912223C1F28F5FD6CFCA
:101D3000882321F00E9419090E945C0E08958823CF
:101D400039F090919F01892B80939F010E945C0E36
:101D50000895CF93DF93C9E7D1E060E0CE010E9400
:101D6000CD2A2196C11584E0D807B9F7DF91CF912C
:101D700008950F931F93CF93DF93843000F5611183
:101D80001EC094E0899FE0011124C759DE4F82E014
:101D900090E0442311F090E080E0632F022F142F95
:101DA0008C0F9D1F0E94CD2A83E090E0112311F03B
:101DB00081E090E0602F8C0F9D1F0E94CD2ADF9163
:101DC000CF911F910F9108951F93CF93DF93C62F4B
:101DD0008430E8F46530D8F44830C8F4632F122F0B
:101DE00090E1C99FE001112450E0440F551FC40F3A
:101DF000D51F90E5899FC00DD11D1124CE01899674
:101E00000E94CD2A612FCE018A960E94CD2ADF91B1
:101E1000CF911F910895B0E0A0E0E1E1FFE00C94C4
:101E2000712A03EC13E0D12CC12CB12C7601A12C2A
:101E300019C0FE01EE0DFF1DEE0FFF1FED57FD4F08
:101E4000259134914C2F6A2D8B2D0E94E40E219602
:101E5000C830D10571F788E0E80EF11CA39485E045
:101E6000A81619F0D0E0C0E0E4CFF8012591349134
:101E700041E060E08B2D0E94B90EF8013296259169
:101E8000349140E060E08B2D0E94B90E0C5F1F4F33
:101E9000B39488E2C80ED11C84E0B812C7CFCDB786
:101EA000DEB7EAE00C948D2ACF93C82F6FEF811133
:101EB00066E285E290E00E94CD2A6FEFC11168E0F2
:101EC00086E290E00E94CD2A6FEFC11162E187E2C5
:101ED00090E00E94CD2ACF91089580E00E94540F97
:101EE00060E088E290E00E94CD2A0E940B0F0E94E1
:101EF000A90E81E00E94540F0895FF920F931F9343
:101F0000CF93DF93843048F5611127C024E0829F8E
:101F10008001112407591E4F82E090E0442311F004
:101F200090E080E0F42E800F911F0E94A92AC82F14
:101F3000D0E0DC2FCC2783E090E0FF2011F081E09F
:101F400090E0800F911F0E94A92A9E01282BC901B1
:101F5000CDB7DEB7E5E00C94922A90E080E0F8CFB0
:101F60000F931F93CF93DF93843030F5653020F5C6
:101F7000483010F520E1629FE001112450E0440F49
:101F8000551FC40FD51F30E5839FC00DD11D1124EF
:101F9000CE0189960E94A92A082F10E0102F002751
:101FA000CE018A960E94A92A9801282BC901DF91A7
:101FB000CF911F910F91089590E080E0F8CF462FC8
:101FC000672F753038F4483060F4843050F40E9444
:101FD000B00F08957D3F41F4411103C041E08430CA
:101FE00048F090E080E008957C3FD9F74111F9CFA7
:101FF0008430B8F760E00E947D0F0895CF92DF92A1
:10200000FF920F931F93CF93DF936C010091D40144
:102010008091A701082BC3E0D0E010E0FC2EC8019E
:102020000C2E02C0959587950A94E2F780FD0CC0AE
:102030002197A0F7F12C8F2DDF91CF911F910F9158
:10204000FF90DF90CF900895B6018C2F0E94DF0F94
:102050000E942208019761F3EECFCF93DF93EC014A
:102060000E94FE0FBE010E94DF0F0E942208DF9136
:10207000CF910895FC0124812223B9F080819181C0
:102080000E942D1092959F70963089F050F49250D6
:10209000923058F4803F19F030F4883E30F481E0FB
:1020A00008959A50F5CF843FD1F380E00895883E9B
:1020B000B0F3813FD1F7F3CFA6E0B0E0E2E6F0E184
:1020C0000C94782A49835A8349815A819923A1F033
:1020D000222391F0CA010E94FE0F182F682F8981D8
:1020E0009A810E94BD0969817A81812F0E94DF0F48
:1020F0002696E3E00C94942ACA010E947709182FCF
:10210000F2CF85E290E00E94A92A863289F486E225
:1021100090E00E94A92A883059F487E290E00E945A
:10212000A92A91E0823109F090E0892F8170089509
:1021300080E0FCCFB0E0A0E0E0EAF0E10C94732A8C
:102140006C017B0164E670E088E70E946F298C01D6
:10215000E601EC0CFD1C17FD0BC0FE01849164E64A
:1021600070E00E94DB298C012196CE15DF0599F7DE
:102170000E94512A81E00115110509F080E0CDB7D8
:10218000DEB7E8E00C948F2A8091FB019091FC016E
:10219000911103C091E089270895882369F062E0D6
:1021A00070E084E692E00E949A10811103C0809151
:1021B000FB0108951092FB018091FB01EBCFCF93BF
:1021C000C091FB018091FC018823D1F00E94890617
:1021D000605A75418F4F9F4F6093F7017093F801DC
:1021E0008093F9019093FA01C11108C062E070E098
:1021F00082E692E00E949A10811105C0C091FB0115
:102200008C2FCF91089581E08093FB01F7CFB0E050
:10221000A0E0EDE0F1E10C946D2A8091FC018823AF
:1022200009F405C18BE592E0909362048093610408
:1022300082E892E00E94560E8CE792E00E94560ED1
:102240008091D4010E942C0A8130D9F148F082306B
:10225000D9F18330E1F186E692E00E94160E04C0C7
:1022600088E792E00E94560E8091590290915A029E
:10227000892B09F4C3C08091FC01882309F4BEC0F6
:102280008091F6018111BAC00E94DF10209159029D
:1022900030915A022115310509F4B0C080E041E0C7
:1022A00050E0082F10E03A01082E02C0660C771C9F
:1022B0000A94E2F7B30162237323672B59F48F5F0B
:1022C000F0CF84E792E0CECF80E792E0CBCF8CE6F0
:1022D00092E0C8CF9091F50190FFAEC0880F880FB3
:1022E000880F8093390110923C01895F80933A01F5
:1022F00083E080933D0124E630E047E050E067E36F
:1023000071E088E70E94092A892B09F077C0A801AB
:1023100085E0440F551F8A95E1F78091F50180FF14
:102320009DC0E5EDF1E080E2DF011D928A95E9F7BD
:10233000A4E5B1E000E511E0882483942D91E80143
:1023400069918E01640F752F711D655A7D4F30E0C4
:102350002B523E4FF90197E07F01E21AF30A982CC5
:1023600001C0990CEA94EAF77B01B12CE70189914D
:102370007E018921A92EAB18DA2DD770CD2E0D2E16
:10238000000CDD08C82F01C0CC0FDA95EAF7AC2E9F
:10239000D194C194D108D7E0CD22DD240C2C01C00A
:1023A00086950A94EAF7DC2ED82A80818D298083CD
:1023B000B39488E0B812DACF915031969F3F61F61E
:1023C000C1E0A835BC0709F0B9CF04E610E020E26F
:1023D00030E045ED51E060E488E70E942A2A892B2D
:1023E00069F4E301C095D0958091590290915A0209
:1023F000C823D923D0935A02C09359028091FB017C
:102400008823A9F00E9489060091F7011091F80134
:102410002091F9013091FA01601B710B820B930B33
:102420006F3F7F4F8F4F9F4710F40E94C410CDB76E
:10243000DEB7EEE00C94892A8295880F807680932F
:1024400039019801369527953695279520933C01BB
:10245000815E80933A0120933D014DCF455A5D4FF7
:1024600004E610E020E230E0B6CF9091A90192FBA3
:10247000222720F9281779F080FB92F99093A9017F
:102480006091A8017091A90184E090E00E94EB2A7C
:1024900082E00E94060A089590E080E00E94B72A38
:1024A000863E9E4F19F40E948110089580E00895A1
:1024B000CF93DF930E948E28879A0E94200B6AE5B3
:1024C0008AE30E94C10B2FEF80E792E02150804009
:1024D0009040E1F700C0000082E00E94A20B83E080
:1024E0000E94A20B84E00E94A20B85E00E94A20B36
:1024F00086E00E94A20B60E080E10E94C10B80E0B8
:102500000E94A20BD82F81E00E94A20BC82F0E942C
:102510003F29D23419F481E0C13009F080E08170A4
:1025200080930901882321F064E08FE00E94C10BB1
:10253000DF91CF9108951F920F920FB60F92112441
:102540002F933F934F935F936F937F938F939F93BB
:10255000AF93BF93EF93FF938091E10082FF09C097
:102560008091E20082FF05C08091E1008B7F809323
:10257000E1008091DA0080FF24C08091D80080FFC4
:1025800020C08091DA008E7F8093DA008091D9009C
:1025900080FF9BC080E189BD82E189BD09B400FE56
:1025A000FDCF81E08093110280910402811109C066
:1025B0000E942C050E94CB058091E20084608093EC
:1025C000E2008091E10080FF17C08091E20080FF6F
:1025D00013C08091E2008E7F8093E2008091E20040
:1025E00080618093E2008091D80080628093D8005F
:1025F00019BC85E0809311028091E10084FF29C01D
:102600008091E20084FF25C080E189BD82E189BD1F
:1026100009B400FEFDCF8091D8008F7D8093D80053
:102620008091E1008F7E8093E1008091E2008F7EB7
:102630008093E2008091E20081608093E2008091CB
:102640001202882309F447C084E08093110280912C
:1026500011028091E10083FF27C08091E20083FF97
:1026600023C08091E100877F8093E10082E0809326
:102670001102109212028091E1008E7F8093E1009E
:102680008091E2008E7F8093E2008091E200806181
:102690008093E20042E060E080E00E949905809132
:1026A000F00088608093F000FF91EF91BF91AF91AF
:1026B0009F918F917F916F915F914F913F912F915A
:1026C0000F900FBE0F901F90189519BC1092110219
:1026D0001092040276CF8091E30087FD02C081E072
:1026E000B4CF83E0B2CF78941F920F920FB60F92BF
:1026F00011248F939F93AF93BF9380910002909189
:102700000102A0910202B09103020196A11DB11D28
:102710008093000290930102A0930202B0930302FF
:10272000BF91AF919F918F910F900FBE0F901F900F
:1027300018959C014FB7F894809100029091010286
:10274000A0910202B09103024FBF821B930B089528
:102750002FB7F8948091000290910102A09102029B
:10276000B09103022FBF08950E94A8132091C901C0
:10277000211104C02091CA01222321F09093C001AD
:102780008093BF012091CB01211104C02091CC0185
:10279000222321F09093BE018093BD0187EC91E04C
:1027A0000E94C2060895CF9310929F01C6E0ECE606
:1027B000F1E0DF018C2F1D928A95E9F710929E01BE
:1027C0000E945C0EE7ECF1E0DF011D92CA95E9F78B
:1027D0001092BA011092BB011092BC010E94B41376
:1027E000CF910895AAE2B0E0E8EFF3E10C94782AE3
:1027F000E3E1F2E08091F100819382E0EB31F807B0
:10280000C9F780911402833009F47FC008F5813044
:1028100009F456C0823009F4C0C08091E80083FFFB
:10282000FAC080911302909114029A3008F0F3C01C
:10283000E92FF0E0E25EFB4E0C94212BDE14041530
:102840000B1504150B155C157E150B157D168A16D8
:102850008A3009F491C08B3009F474C08930E9F6EC
:10286000809113028132C9F680911702909118026B
:10287000009711F0029789F68091E800877F809396
:10288000E8008091E80082FF3BC08091F3009091C6
:10289000F200892798278927029731F48091F10067
:1028A000813011F0863021F48091F100809306028E
:1028B0008091E8008B778093E8000E947A05ADCF85
:1028C00080911302813A09F0A8CF8091E800877FB8
:1028D0008093E8008091170290911802892B61F093
:1028E00060E090E080E070E00E9426068091E800C1
:1028F0008B778093E80091CF68E087E092E0F3CF98
:10290000809111028111BDCF88CF80911302813A4D
:1029100009F083CF8091170290911802892B09F05A
:102920007CCF8091E800877F8093E8008091E80069
:1029300080FFFCCF80913E018093F1008091E80000
:102940008E77B9CF80911302813209F066CF8091E2
:10295000170290911802892B09F05FCF8091E8004F
:10296000877F8093E8000E947A058091150280930A
:102970003E010E94D31351CF80911302813209F09E
:102980004CCF8091E800877F8093E8000E947A0511
:10299000809116028093050240CF80911302813A04
:1029A00009F03BCF8091E800877F8093E800809119
:1029B000E80080FFFCCF80910502BECF803889F00F
:1029C000823849F5809117028F70873020F5809307
:1029D000E9008091EB0085FB882780F91092E900DF
:1029E00006C080910F029091100291118260909127
:1029F000E800977F9093E8008093F1001092F10037
:102A00008091E8008E7727C0282F2D7F21F488231E
:102A1000A1F0823029F18091E80083FF0AC0809103
:102A2000E800877F8093E8008091EB0080628093CC
:102A3000EB00AA96E3E00C94942A80911502813071
:102A400051F7933009F080E0809310021092E90072
:102A50008091E800877F8093E8000E947A05DBCFB1
:102A6000809115028111F2CF809117028F702FEFA4
:102A7000280F263080F68093E9002091EB0020FF9C
:102A8000E5CF933031F48091EB0080628093EB00CE
:102A9000DDCF9091EB0090619093EB0021E030E06E
:102AA00001C0220F8A95EAF72093EA001092EA000B
:102AB0008091EB008860EACF8111ADCF10911502B3
:102AC0001F778091E3008078812B8093E3008091D1
:102AD000E800877F8093E8000E947A058091E800F3
:102AE00080FFFCCF8091E30080688093E30083E067
:102AF000111101C082E0809311028DCF8058823085
:102B000008F089CF20911502309116022C3DA3E0E8
:102B10003A07A1F583E08A838AE289834FB7F89464
:102B2000DE01139620E03EE051E2E32FF0E0509307
:102B30005700E49120FF03C0E295EF703F5FEF7014
:102B40008E2F90E0EA30C0F0C7968D939D932F5F53
:102B5000243159F74FBF8091E800877F8093E800C8
:102B60006AE270E0CE0101960E9426068091E8009C
:102B70008B778093E8004FCFC096E7CF8091170204
:102B800090911802432F55274330510509F44FC047
:102B900078F54130510509F445C08BE590E0E3ED4F
:102BA000F3E04230510509F036CF2091E800277F4D
:102BB0002093E8002091190230911A02821793079E
:102BC00008F49C0140E02115310509F063C0411172
:102BD00061C08091E80082FDC9CF809111028823F5
:102BE00029F2853019F28091E80083FFF2CFBECF41
:102BF0004132510509F43FC04232510509F00BCF73
:102C00008330910508F007CFFC01EE0FFF1FE55A56
:102C1000FE4F0190F081E02D885A9E4FDC018C918F
:102C200090E01DC082E190E0EEE2F4E0BECF3327F9
:102C300021303105C1F060F02230310509F0EBCED2
:102C4000E0E4F4E0E4918E2F90E0E0E4F4E007C0EB
:102C5000E2E6F4E0E4918E2F90E0E2E6F4E0009703
:102C600009F4D9CEA2CFEEE4F4E0E4918E2F90E007
:102C7000EEE4F4E0F4CF8330910508F0CCCE880F79
:102C8000991FFC01EF59FE4F0190F081E02D89E082
:102C900090E08BCF80911102882309F467CF8530B3
:102CA00009F464CF8091E80083FD60CF8091E80053
:102CB00082FD8FCF8091E80080FF85CF8091F30067
:102CC0009091F2008927982789272115310519F05D
:102CD0008830910550F041E0089709F040E080917C
:102CE000E8008E778093E8006ECF44914093F10026
:102CF0003196215031090196E8CF803809F08BCE0A
:102D00008091E800877F8093E80080911202809391
:102D1000F10076CE81117FCE10911502123008F0AD
:102D20007ACE8091E800877F8093E80010931202AA
:102D30000E947A051123D1F084E08093110242E0D1
:102D400061EC81E00E94990542E261EC84E00E941E
:102D5000990542E261EC82E00E94990542E260EC52
:102D600083E00E9499058091110255CE8091E30085
:102D700087FDE2CF81E0E1CF1F920F920FB60F9255
:102D800011242F933F934F935F936F937F938F9370
:102D90009F93AF93BF93CF93EF93FF93C091E900BD
:102DA000CF708091EC001092E9008091F000877F55
:102DB0008093F00078940E94F2131092E9008091C1
:102DC000F00088608093F000C093E900FF91EF91DC
:102DD000CF91BF91AF919F918F917F916F915F91B3
:102DE0004F913F912F910F900FBE0F901F9018950C
:102DF0000E94D3132FEF84E39CE021508040904049
:102E0000E1F700C0000088E19CE00FB6F894A895B7
:102E1000809360000FBE90936000FFCF662309F49B
:102E20006CC08D3C41F40E94FF0681958093CA01DD
:102E30000E94B41308958E3C19F40E94FF06F6CF49
:102E40008F3C31F40E94FF0681958093C901F0CF39
:102E5000803D19F40E94FF06F8CF893D29F40E94B5
:102E6000DD068093CB01E4CF8A3D21F40E94DD068C
:102E70008195F7CF8B3D31F40E94DD0681958093DB
:102E8000CC01D6CF8C3D19F40E94DD06F8CF2FE29D
:102E9000280F2830E8F4815D990B41E050E001C033
:102EA000440F8A95EAF78091C801842B8093C8016A
:102EB00081E090E0AC0102C0440F551F2A95E2F773
:102EC0008091CF01842B8093CF010E94D30C089571
:102ED0008D3D31F48091BC0181608093BC01A8CF0D
:102EE0008E3D21F48091BC018260F7CF8F3D09F0C7
:102EF0008CC08091BC018460F0CF4FE2480F8D3CC4
:102F000041F59091CA0197FF2AC01092CA018091A1
:102F1000C901811106C08091CA01811102C01092BD
:102F2000BA018091CB01811106C08091CC01811141
:102F300002C01092BB01483008F07ACF81E090E0E7
:102F400001C0880F4A95EAF780959091CF018923B7
:102F5000BACF8E3CC9F49091CA011916B4F2483028
:102F600008F03EC0815D990B21E030E0B90102C05C
:102F7000660F771F8A95E2F7CB0180959091C80183
:102F800089238093C801C3CF9091C9018F3C29F454
:102F900097FFE5CF1092C901BACF803D19F41916F9
:102FA000CCF3DDCF9091CB01893D29F41916BCF605
:102FB0001092CB01ACCF8A3D19F497FFD0CFF8CF58
:102FC0008B3D39F49091CC0197FFC9CF1092CC0181
:102FD0009ECF8C3D21F69091CC011916BCF3BFCF4A
:102FE0008D3D31F48091BC018E7F8093BC018FCFE9
:102FF0008E3D21F48091BC018D7FF7CF8F3D09F08C
:1030000086CF8091BC018B7FF0CF283008F450CF61
:103010000FCF882309F444C0823879F40E94D00687
:1030200081FF3EC089E30E942D090E945C0E89E366
:103030000E9421090E945C0E0895833859F40E9471
:10304000D00680FF2DC083E50E942D090E945C0EF2
:1030500083E5EECF843859F40E94D00682FF20C069
:1030600087E40E942D090E945C0E87E4E1CF9CEF6B
:10307000980F913AE8F290E2980F983050F48770E8
:1030800091E001C0990F8A95EAF7892F0E941909EA
:10309000D1CF93E3980F933118F460E00E940E179C
:1030A0000895CF938823D1F0C82F8238C9F40E94A5
:1030B000D00681FD13C089E30E942D090E945C0E99
:1030C0002FEF87EE93E0215080409040E1F700C061
:1030D000000089E30E9421090E945C0ECF910895AF
:1030E0008338A1F40E94D00680FDF8CF83E50E94CA
:1030F0002D090E945C0E2FEF81EE94E0215080405C
:103100009040E1F700C0000083E5E4CF8438A1F4EB
:103110000E94D00682FDE2CF87E40E942D090E9422
:103120005C0E2FEF81EE94E0215080409040E1F75B
:1031300000C0000087E4CECF8CEF8C0F813A70F492
:10314000ECE6F1E082E791E02191C21711F18E17D0
:103150009F07D1F78C2F0E942D09BECF80E28C0FE4
:10316000883068F4C77021E030E001C0220FCA95B2
:10317000EAF780919F01822B80939F01ADCF83E37B
:103180008C0F833108F0AACF61E08C2F0E940E17BC
:10319000A5CF8C2F0E9421090E945C0EDBCF1F93CC
:1031A000CF93DF93182FC5E0D0E0893311F4C0E549
:1031B000D0E0812F0E9451188FE99FE00197F1F72D
:1031C00000C000002197C1F7812F0E940918DF91EC
:1031D000CF911F9108950F931F93CF93DF93C62F25
:1031E000D42F122FFC0185818823A9F06093570208
:1031F0000E94A8139093560280935502C77081E0F5
:1032000001C0880FCA95EAF70E949F0EDF91CF9107
:103210001F910F91089580915702681332C08091D9
:103220005502909156020E949913883C910548F5E9
:1032300000E20D0FCD17B9F080E28C0F883040F41A
:10324000C77081E001C0880FCA95EAF70E94980E06
:103250000830F0F481E09D2F977001C0880F9A9597
:10326000EAF70E949F0E812F0E94CF18083070F657
:10327000D77081E001C0880FDA95EAF70E94980EB6
:10328000C5CFC77081E001C0880FCA95EAF7F6CFB5
:10329000812F0E94CF18BACFA8E0B0E0E2E5F9E1B3
:1032A0000C94692AFC018481882309F4B6C08F013B
:1032B00021E0408151816281738195810E945C107F
:1032C0007C01D80115968C91882309F45EC1C70151
:1032D00097578038910508F058C1BFE0BE1508F433
:1032E0008CC08FEF93E00E94A92A811186C069E704
:1032F000A62EBB24B394E1104DC02E0123E0420E54
:10330000511C86E0D2011D928A95E9F75AE0352ECC
:103310007501BFEFEB1AFB0AC5010E94A92A898338
:103320001A82882309F469C0813009F07AC06501E6
:10333000E2E0CE0ED11CC7010E94A92A8A8388230D
:1033400009F45BC09FEF980F933090F5F3E0AF0E58
:10335000B11CC6010E94A92A8B83882309F44DC0A1
:103360001C829E012F5F3F4F7901D7012C912223B0
:1033700079F2213009F0B4C011969C911197129600
:103380008C91913009F04FC0B2E0EB0EF11C0E941D
:10339000CF1850C0A114E4E0BE0679F1C5010E9427
:1033A000A92A811101C0EA94FFEFAF1ABF0AA3CF87
:1033B00056018430B1F6420142E0E42EF12C560170
:1033C0002FEFA21AB20AC6010E94A92AD4018D9336
:1033D0004D01882391F08C3741F4E2E0F0E0EC0FEE
:1033E000FD1FEE0DFF1D1082BCCFBFEFEB1AFB0AD5
:1033F0006501E7E0EE16F10411F780919401877002
:1034000061F0D80115968C91882339F08091A9013B
:1034100082FF03C082E00E94060A2896E2E10C9433
:10342000852A57019ECF923039F5E2E0EE0EF11C6D
:103430000E945118EFEFEE1AFE0A8FE99FE0019704
:10344000F1F700C00000AFE9BFE01197F1F700C04D
:103450000000EFE9FFE03197F1F700C000008FE9CD
:103460009FE00197F1F700C00000AFE9BFE01197BE
:10347000F1F700C0000079CF933031F4F2E0EF0EA5
:10348000F11C0E940918D6CF943021F02FEFE21AD8
:10349000F20AD0CF32E0E30EF11C30E020E0B701B9
:1034A0006F5F7F4FD70111964C918053990B8A30F3
:1034B000910558F02150310908F4BCCFEFE9FFE045
:1034C0003197F1F700C00000F5CF329EF001339E36
:1034D000F00D11249C012E0F3F1F842F7B01DFCFA5
:1034E000E22FF0E0E557FE4F2490822F86958695D7
:1034F000869590E0FC01E558FE4F64902770712C92
:10350000022E02C0759467940A94E2F731E06322B8
:103510007724FC01E559FE4F8490912C022E02C0C5
:10352000959487940A94E2F7A1E08A229924FC01F9
:10353000E55AFE4FC490D12C02C0D594C7942A9569
:10354000E2F7B1E0CB22DD246114710419F081EEC1
:103550000E9451188114910419F086EE0E945118AE
:10356000822D0E94CF188114910419F086EE0E94DA
:1035700009186114710419F081EE0E940918C11430
:10358000D10409F457CF8CE202CFF0921F01E092F0
:103590001E01F80180819181909321018093200187
:1035A000F7013497E533F105B0F4E55FFD4FE491A1
:1035B000D80115968C9120EB882311F02E2FE0EB8B
:1035C000A8E2B1E090E080E03D913E1357C0875FF4
:1035D0009E4FFC01278FD80115968C9197013A9543
:1035E00021153F4108F4B8C0E7E0EE16EEE7FE060D
:1035F00009F04AC00E943F0AD80115968C91882391
:1036000009F45AC410925702C7019057839708F0E3
:1036100041C484E090E00E94B72A9093A90180936E
:10362000A801F701E150F047E232F10508F0C4C00B
:10363000E45EF44E0C94212B161C8B1C1E1CE81B04
:10364000EC1B221CF01B261C321CFC1B841C001CC7
:10365000361C041C3A1C621C081C3E1C691C0E1CF7
:10366000441C4C1CF41B2A1CF81B2E1C121C481C4E
:10367000581C721C821CE21B1A1C921C019686307C
:10368000910509F0A1CFA7CF882309F465C0F70100
:10369000FE57E031F10508F05FC0EF5AF44E0C948C
:1036A000212B611B671B7C1B801B821B841B861BC1
:1036B000AC1B8D1B9C1BAC1BAC1BAC1BA71BA31B0F
:1036C000AA1B80E00E94DD0B10921C0196CE409157
:1036D000150150911C0150FB47F95695537080918C
:1036E0001D018370880F880F582B60E070E08FE019
:1036F00090E00E94DF2A81CE81E00E94F20B7DCE15
:103700008FEFFBCF8AE0F9CF86EFF7CF90911701CB
:1037100081E089270E943F0A70CE80911C018111AF
:1037200001C084E08F5F18160CF081E0883008F04B
:1037300087E080931C0161CE80911C01811101C042
:1037400084E08150F0CF81E080931D0156CE10922D
:103750001D0153CE82E0F8CFF701E851FC47E73076
:10376000F10508F049CFE954F44E0C94212BC91B04
:10377000CD1BBE1BC51BD11BD51BD91B26E241EEA1
:1037800061EEC8010E94EB1838CE27E245EE65EEE7
:10379000F8CF26E241EE60EEF4CF27E245EE64EE8C
:1037A000F0CF26E241EE62EEECCF27E245EE66EE88
:1037B000E8CF28E241E0EBCF8091A80181608093BF
:1037C000A80195C08091A90188608093A9018FC04C
:1037D0008091A8018260F3CF8091A8018460EFCF2F
:1037E0008091A8018860EBCF8091A9018160EDCF25
:1037F0008091A9018260E9CF8091A8018061DFCF2B
:103800008091A8018062DBCF8091A8018064D7CF2E
:103810000E94D3138091A8018068D1CF8091A80124
:103820008860DCCF8091A9018260E0CF8091A801FF
:103830008E7FC5CF8091A901877FC7CF8091A801D6
:103840008D7FBDCF8091A8018B7FB9CF8091A801DA
:10385000877FB5CF8091A9018E7FB7CF8091A901D5
:103860008D7FB3CF8091A8018F7EA9CF8091A801D1
:103870008F7DA5CF8091A8018F7BA1CF0E94D3130C
:103880008091A8018F779BCF8091A801877FDCCFA3
:103890008091A9018D7FE0CF8091A80182FB9927BB
:1038A00090F921E0922790FB82F990FB83F987CF72
:1038B0008091A901982F909591708E7F892B90FB14
:1038C00081F983CF9091A801892F8F7B96FF806427
:1038D00076CF0E94D3139091A801892F97FB87F987
:1038E00080586DCF61E08EE090E00E94CD2A60911B
:1038F000A8017091A90184E090E00E94EB2A0E9447
:10390000D3137BCD60E0EFCF9091A801892F8F7EFC
:1039100094FF806154CF9091A801892F8E7F90FFF2
:1039200081604DCF9091A901892F877F93FF886097
:103930004CCF89E20E942D090E945C0E5ECD89E287
:103940000E942109F9CFB7E7EB16BCE7FB0609F4A3
:103950006CC0E8E7EE16ECE7FE0609F46CC0F8016F
:103960008581E080F180882309F499C0C7010E9415
:10397000FE0FD82E682FC7010E94BD09B7018D2DFB
:103980000E94DF0F0E9422087C01982ED801159614
:10399000BC9015971696AC90A2943FE0A32280911C
:1039A00094018770F1F0CB2CBB20E1F08F2D807F4C
:1039B000803451F080E28E0D883098F0A11004C060
:1039C0008F2D807E803269F08091A90182FF09C02D
:1039D00082E00E94060A809194018770CC24C394EF
:1039E0008111C12CDF2CD2942FE0D222BBE0BD1577
:1039F00008F4FDC1ED2DF0E0E050F34E0C94212BC6
:103A0000541D541D8E1D8E1DF71E351EF71EF71EEC
:103A10003A1EA61EB91EB91E81E00E941D0A43E08F
:103A200062E081E00E94D909E8CC81E00E94F909B6
:103A3000F6CF82E0F2CF82E0F9CF9BE5E9169CE772
:103A4000F90659F1ACE5EA16ACE7FA06E1F0BAE599
:103A5000EB16BCE7FB0609F082CF81E01BC00E9499
:103A6000D313EFEFF4E32CE0E150F0402040E1F716
:103A700000C000000E947E0B6FEF7FEF90E080E0BF
:103A80000E94EB2A45C28091A90182FB882780F918
:103A900091E089270E94351262CF80E0FBCFC701F9
:103AA0000E947709D82E6ACFEF2DEF70DE2E8F2D72
:103AB000807F19F0D29490EFD9228E2DBB20B9F0DF
:103AC000DD2069F090E29E0D983010F0E11009C001
:103AD00080919F01D82AD0929F010E945C0E8E2D6A
:103AE00045C080919E01D82AD0929E01F6CF0E94B7
:103AF0000918DD20E9F180E28E0D883010F0911078
:103B000004C08D2D0E94190906C0D09480919E0199
:103B1000D822D0929E010E945C0E2AC0FF2DFF7019
:103B2000DF2E8F2D807F803219F0D29480EFD82243
:103B30008E2D992059F021E0921609F471C0BB2016
:103B400009F47DC0AA2009F440C0C9CF8091A90121
:103B500082FD37C0BB2079F1DD2039F080919F01D3
:103B6000D82AD0929F010E945C0E80E00E945118DA
:103B7000CC20B1F08091940180FD12C0D80115963F
:103B80001C928695869586950E941D0AC8010E9402
:103B90004C19809194018695869586950E94F90925
:103BA00020E0F80140815181628173818481958197
:103BB0000E945C1032CC80E00E940918DD20C1F226
:103BC000A0CFBB2099F0A11004C08D2D0E949F0EA4
:103BD000CFCF31E0A312CCCF80919D019D2D9823B2
:103BE000D91631F2D82AD0929D01C2CFA110C0CFF0
:103BF0008D2D0E94980E90919D018D2D892329F085
:103C00008D2D8095892380939D0180917A019D2D32
:103C1000982309F4ADCFD094D822D0927A01A8CFBE
:103C2000BB2029F085E08A1508F4A2CFCECF94E01E
:103C30009A1508F49DCF8D2D0E94980E99CFAA2039
:103C4000D1F3893369F4AFEFB7EEE3E0A150B040B0
:103C5000E040E1F700C000008E2D0E94091888CFD7
:103C60008FE19EE40197F1F7F5CF6B2D8E2D0E9429
:103C70000E177ECF8F2D837099F5B11026C04E2D73
:103C8000429546954770440F440F8E2D8F70042E39
:103C900001C0880F0A94EAF720E0E4FE07C02FE095
:103CA00030E001C0220F4A95EAF720953F2D369566
:103CB00036953370323079F060F44091A70131309D
:103CC00039F0822B84230E94290A0E94D00650CF0B
:103CD000842B822BF8CF282B8091A7018227F3CF4A
:103CE0008695BB2011F08F2D8170882371F34E2DA6
:103CF000429546954770440F440F8E2D8F70042EC9
:103D000001C0880F0A94EAF720E0E4FE07C02FE024
:103D100030E001C0220F4A95EAF720953F2D3695F5
:103D200036953370323069F050F44091D40131301F
:103D300029F0822B84230E94D609C7CF842B822BA3
:103D4000FACF282B8091D4018227F5CF9F2D9F7029
:103D5000F92EBB2039F0892F0E941D0A8E2D0E945A
:103D60009F0EB3CF8E2D0E94980E8F2D0E94F909C1
:103D7000ACCF8E2DA2EF9A1609F43FC0A91580F0A2
:103D8000B0EF9B16F1F0E1EF9E16A1F0BB2009F415
:103D900068C0AA2009F462C08E2D0E94511827C065
:103DA000F3EF9F1689F124EF9212F0CF8091A901D1
:103DB00082FD35C08F2D8F71BB2019F10E941D0A25
:103DC00016C0BB2089F034E03A1588F02F2D2F71F2
:103DD00081E090E001C0880F2A95EAF79091D40124
:103DE00089270E94D60903C085E08A1578F788EFF5
:103DF0008D0D843008F0BCCE68CF8F2D8F71BB2025
:103E0000E9F20E94F909F3CF80E0BB2051F39F2D26
:103E10009F7181E001C0880F9A95EAF7E2CFBB203D
:103E200099F09F2D9F71F92E892F0E941D0A809174
:103E3000A90182FF07C0A8E0FA9EC0011124836097
:103E4000809394018F2DBACF81E00E94060AB1E0E1
:103E5000BA1568F682E00E94060AC9CF8F2D8F71CD
:103E6000ADCFAA20A1F0893369F4EFEFF7EE23E09C
:103E7000E150F0402040E1F700C000008E2D0E948C
:103E80000918B5CF8FE19EE40197F1F7F5CF8F2D9B
:103E90008F71B7CFF6E1EF16FCE7FF06D1F4809102
:103EA0009F018A7A91E009F490E090937901882348
:103EB00009F43FCD85E33ECD26E1E2162CE7F2067C
:103EC00009F041CD80917901882309F438CD85E34B
:103ED00037CD37E7E3163CE7F30609F49DCD88E7D5
:103EE000E8168CE7F80609F4A4CDF3E0EF16FCE73A
:103EF000FF0609F4C1CD08F0A0CDE1143CE7F306BC
:103F000009F4ADCD81E0E8168CE7F80609F027CD7D
:103F10000E94F816CF93DF9380919301807F09F080
:103F20004DC080919201882309F448C0E091540269
:103F300050911B02C0918E01D0918D0160918F0133
:103F40007091900147E05E17C9F18E2F90E0E49FD9
:103F5000F0011124E45EFD4F2481222391F1489F5A
:103F6000F001499FF00D1124DF01A45EBD4F1196B1
:103F70002C9111972C1325C02C912D1322C015962E
:103F80002C91159721111DC012962D913C91261B45
:103F9000370B283C3105A8F4809193018F70806124
:103FA00080939301EE5DFD4F80818F7080618083EF
:103FB0008DE891E00E944C190E944609DF91CF9153
:103FC0000895FC013196E770BECFA4E1B0E0EBEEBE
:103FD000FFE10C946F2A8C0186E0F801DE011F9648
:103FE00001900D928A95E1F7F8018481E5809DE8C2
:103FF000A92E91E0B92E90919101911128C08823AA
:1040000019F1EE20F1F0C8010E943A10F82E882331
:10401000C1F087E0F801D50101900D928A95E1F792
:1040200080919101813031F480918D0190918E01C8
:104030000E942D100E948A1F8F2D6496ECE00C9434
:104040008B2AC8010E944C19FF24F394F5CFD0802D
:10405000C18082809380F090920120918F013091F5
:104060009001A401421B530BFF2009F4D8C0483C27
:10407000510508F091C08823F9F290918E0180914A
:104080009301282F207F09F055C0C91214C09091C8
:104090008D01D91210C0E11047C08F7080618093EC
:1040A00093018DE891E00E944C1980919301F801F1
:1040B0008683F12CC1CFE11037C06C2D8D2D0E946D
:1040C0000D056C2D8D2D0E940D05E82E8111F1CF6F
:1040D000DF86C88A8F8598890E942D10292F229506
:1040E0002F70243058F49F70223080F0992391F083
:1040F000F8019681907F71F4FE2C9ECF2A502230D9
:1041000068F0C8010E944C19EF2CF6CF992311F0EA
:10411000882391F3805E8830A0F7EECF803F60F374
:10412000815F833070F7E8CF809193018160809345
:104130009301BFCFC91207C090918D01D91203C05E
:10414000EE2009F48DC0C8010E943A10882309F4BA
:1041500078CFEE2009F475CF80919301803288F0FA
:1041600020918D0130918E01398728879B868A8620
:10417000909191019C871D868E87CE0108960E94A2
:104180004C1987E0F801ADE8B1E001900D928A95F5
:10419000E1F70E948A1F58CF90919301292F207F29
:1041A00051F48DE891E00E944C1987E0F5011192DD
:1041B0008A95E9F77ECF882309F43ECF80918E015E
:1041C0008C1110C080918D01D8120CC0E1100AC072
:1041D0009683C8010E944C1987E0F50111928A95D7
:1041E000E9F72ACFC8010E943A10882309F429CFA1
:1041F000EE2009F426CF80919301803210F22091B5
:104200008D0130918E013A8329839C828B8290911B
:1042100091019D831E828F83CE010196B0CF483CD1
:104220005105D0F6882309F40FCFFE2CEE2009F4B7
:1042300008CF80918E018C1120C080918D01D81201
:104240001CC08091930180FD0FC0982F907F61F07A
:104250008683903F31F0982F907F905F8F70892BED
:104260008683C8010E944C1987E0F801ADE8B1E0EF
:1042700001900D928A95E1F7DFCEC8010E943A10B5
:1042800081117FCF80919301816080939301C80158
:104290000E944C19D1CEABE1B0E0E1E5F1E20C9423
:1042A000772A4E8B5F8B688F798F8A8F9B8F192F20
:1042B000911110929E011D8A86E0FE017696DE0124
:1042C0001F9601900D928A95E1F70A8D002341F027
:1042D00021E04F85588969897A89C8010E945C105C
:1042E0000B8B1C8B87E0FE013F96DE011896019038
:1042F0000D928A95E1F7CE0108960E94E51F811183
:104300002AC087E0FE013896DE01119601900D92D9
:104310008A95E1F78C858823F1F020911B0230E02B
:10432000C9010196877099274091540248171906D0
:1043300059F197E0929FD001939FB00D1124A45E94
:10434000BD4FFE01319601900D929A95E1F7809351
:104350001B020E94460917E08091540290911B02B3
:104360008917F9F0819FC0011124845E9D4F0E943E
:10437000E51F8823B1F08091540290E00196877088
:10438000992780935402E8CF0E94D31310921B0206
:104390001092540287E0EDE8F1E0DF011D928A956A
:1043A000E9F76B96E4E00C94932AA6E0B0E0EBED1D
:1043B000F1E20C94772A0E94A8138C018091A0014D
:1043C0009091A1018017910781F019821A820E94B1
:1043D000A813682F49815A81792F80E090E00E94CC
:1043E0004B211093A1010093A0012696E4E00C94C8
:1043F000932AA5E0B0E0EFEFF1E20C946B2ACE0136
:1044000001967C0185E0D7011D928A95E9F7370175
:10441000570190E0C92E91E0D92E44244394512CA9
:10442000F60181916F010E94F60A00C085E0882E96
:1044300081E0982EF40110E000E02191A22FA295D6
:10444000AF70B0E090968C9190E02F7002C095957F
:1044500087952A95E2F780FD0AC0D5018C919201DB
:10446000002E01C0220F0A94EAF7822B8C930F5F73
:104470001F4F0430110509F7F601319780810E9422
:104480000B0BB0EABA95F1F7EFEFAE1ABE0AF5E002
:10449000CF16F1E0DF0621F6DD24D394D4018D910F
:1044A0004D010E94F60A00C03D2D002E01C0330FC1
:1044B0000A94EAF7F70140E051E0DA012D91AD01ED
:1044C000822F82958F7090E0DC0190968C9190E025
:1044D0002F7002C0959587952A95E2F780FD03C05D
:1044E0008081832B80833196B1E045305B0729F7CB
:1044F000F401319780810E940B0BE0EAEA95F1F715
:104500000F5F1F4F0830110549F6E2EAF1E085E040
:10451000E80EF11C10E0D3018D913D0191918917B6
:1045200021F0DF0111978C9311E0E614F70499F75D
:10453000112349F081E0809374010E94A8139093A5
:10454000730180937201809174018823E9F0809156
:104550007201909173010E9499130597A8F045E0AC
:1045600050E062EA71E085EB91E00E942E2B892BEE
:1045700049F085E0E2EAF1E0A5EBB1E001900D92AF
:104580008A95E1F710927401812F2596E0E10C9451
:10459000872A1F920F920FB60F9211248F939F9329
:1045A000AF93BF938091FF01811113C080910002EE
:1045B00090910102A0910202B09103024196A11DC7
:1045C000B11D8093000290930102A0930202B09368
:1045D0000302BF91AF919F918F910F900FBE0F90EB
:1045E0001F901895AEE3B0E0E8EFF2E20C94692A70
:1045F00085B7806885BF85B7806885BF84B7877FAA
:1046000084BF0FB6F894A89580916000886180936C
:104610006000109260000FBE80E890E00FB6F89442
:1046200080936100909361000FBE8DE297E09093BC
:104630006901809368010E942C050E94CB0580913E
:10464000E20084608093E2007894809111028823D4
:1046500099F01091E9001F708091EC0080FFEFC08D
:1046600080E8182B1092E9008091E80083FD0E94F9
:10467000F2131F701093E90082E084BD93E095BDB2
:104680009AEF97BD80936E000E948110811102C045
:104690000E946D0F81E08093B20153985B9A52980B
:1046A0005A9A8FE891E00197F1F700C0000030912D
:1046B000B201E3EBF1E090E09313C3C080910501F8
:1046C0000E940B0B809106010E940B0B8091070149
:1046D0000E940B0B809108010E940B0B00E011E07F
:1046E000E5E0EE2EE1E0FE2ED8018D918D010E94D5
:1046F0000B0BE016F106C1F71092A2011092B50162
:104700001092A3011092B6011092A4011092B70169
:104710001092A5011092B8011092A6011092B90151
:104720000E944C12811167C066EE7EEF90E080E03F
:104730000E94EB2A60E082E090E00E94CD2A60E0D7
:1047400083E090E00E94CD2A1092A70160E074E11E
:1047500084E090E00E94EB2A60E086E090E00E9416
:10476000CD2A6FEF87E090E00E94CD2A40E050E034
:10477000BA0188E090E00E94DF2A60E084E290E0E5
:104780000E94CD2A60E087E190E00E94CD2A60E09F
:104790008CE090E00E94CD2A60E08DE090E00E94E5
:1047A000CD2A19821A821B821C821D821E821F82C0
:1047B000188648E050E068E170E0CE0101960E9462
:1047C000BD2A40E050E0BA0180E290E00E94DF2A7A
:1047D00080E00E94540F0E946D0F40E050E0BA014B
:1047E0008FE090E00E94DF2A40E050E0BA0183E1D0
:1047F00090E00E94DF2A82E090E00E94A92A809344
:10480000AA0184E090E00E94B72A9093A9018093C6
:10481000A8010E94F921EFE3FCE93197F1F700C00C
:1048200000000E94F9218091B50180FF17C06FEF51
:104830007FEF90E080E00E94EB2A0E947E0B80E0F8
:1048400010CF89B183FB882780F94A9B05C022E0FD
:10485000822B81939F5F30CF20E0FACF83E090E0FE
:104860000E94A92A0E94290A83E08093F50180E230
:10487000809358020E9469296BE070E087E592E01E
:104880000E949A108823E9F18091F50165E070E0BB
:1048900081FDB2C082E592E00E949A10882389F1DE
:1048A0006DE070E080E492E00E949A10882349F164
:1048B0000E948906605A75418F4F9F4F6093F701A0
:1048C0007093F8018093F9019093FA01EBE5F2E01F
:1048D00080E092E0DF019C011D9221503040E1F721
:1048E000F0936204E09361048FEF9FEF90935A027C
:1048F0008093590281E08093FC018093FB01109228
:10490000F6010E9458120E944C128823B9F08FE0E1
:1049100090E00E94B12A8B01862F8F770E94DD0BD9
:10492000001F0027001F612F6370660F602B6093CC
:104930001C0116951695137010931D018FE291E0DE
:104940009093FE018093FD0168E1462E512CFF24D7
:10495000F39476E0A72EB12C8091110200E112E1D0
:10496000853009F485C00E94F9210BEA11E055EB6E
:10497000C52E51E0D52ED601F80191918D9121E0FF
:10498000E03BF20709F47EC09817B9F3E12CD60199
:104990009D906D01F80161908F01691421F1812CC6
:1049A000772473946924862D8721A9F089AEEAAE15
:1049B0000E94A8139CAF8BAFF1E0FDAF91E0892D71
:1049C000872109F490E09EAF49AD5AAD6BAD7CAD47
:1049D0008DAD0E944B218394770C28E08212E3CFA7
:1049E000F80131979082E39435E0E312D0CF0E9432
:1049F0008906772473944BC08DE492E04DCF80916B
:104A00001102843031F10E94C4100E94FC0C1092FB
:104A1000FF0130E40FB6F894A895409260000FBEF5
:104A20003093600083B7817F846083BF83B78160E8
:104A300083BF7894889583B78E7F83BF0FB6F89431
:104A4000A89580916000886180936000109260005A
:104A50000FBE80911002882359F00E94F921E5EBE6
:104A6000F1E08191811132C341E0EA3BF407C9F7DB
:104A700080911102853009F4C2CF0E94D3130E94A5
:104A8000D00671CF981382CF0E94D521712C10E0EF
:104A900000E092E0692E2DEFE22E3CEF332E43E052
:104AA000242E8091B201181788F0002319F00E947B
:104AB0008906702E0E94FC0C882309F4A7C00E946E
:104AC00089060E9407110E94DF10A4C0C12ED12CBC
:104AD000E9B1E3FBEE27E0F94A9B96C082E08E2B1A
:104AE000D601AD54BE4FEC919E2F9370891709F4F7
:104AF00089C0EE0FEE0FE82BEC93EF70F0E0E05C76
:104B0000FE4FC6018F549E4F4C018081D4019C9171
:104B1000890F8C9320E086309CF1F601E055FE4F22
:104B200080818F5F80830E94A8131DA73EA6682FF7
:104B30008FA798AB29AAFAAA412F5CEF792F83E0BF
:104B400091E00E944B21EFE1FEE43197F1F700C0C4
:104B500000000E94A8131BAB3CAA682F8DAB9EAB34
:104B60002FAA18AE412F5CEF792F83E090E00E94CE
:104B70004B218FE19EE40197F1F700C0000021E096
:104B8000D4018C918B3F9CF5F601E055FE4F80815E
:104B9000815080830E94A81319A3EAA2682F8BA3D7
:104BA0009CA36DA2FEA2412F5DEF792F82E091E0E0
:104BB0000E944B21EFE1FEE43197F1F700C00000C5
:104BC0000E94A8131FA3E8A6682F89A79AA76BA61F
:104BD0001CA6412F5DEF792F82E090E00E944B21CF
:104BE0008FE19EE40197F1F700C0000021E0D401BD
:104BF0008C91082E000C990BB5010E940D2BF4012D
:104C00008083022B1F5F4DCF80E069CF0E94071188
:104C1000711059CF86E0E7ECF1E08E010F5F1F4F76
:104C2000D80101900D928A95E1F71092C901109276
:104C3000CA011092CB011092CC018B81811104C06A
:104C40008C81882309F447C08091BF019091C001F5
:104C50000E9499139C019091BA01992309F454C2BE
:104C600025313105C0F19F3F19F09F5F9093BA0144
:104C7000EB80EE2059F00E94FF0691E01E140CF02C
:104C80009FEF899F802D11248093C901EC80EE2035
:104C900059F00E94FF0691E01E140CF09FEF899FCF
:104CA000802D11248093CA018091C901882399F035
:104CB000E090CA01EE2079F00E941F07882309F4D2
:104CC000C4C08093C9018E2D0E941F07882309F458
:104CD000BFC08093CA018D81811104C08E81882359
:104CE00009F447C08091BD019091BE010E949913C3
:104CF0009C019091BB01992309F40BC22135310528
:104D0000C0F19F3F19F09F5F9093BB01ED80EE20B3
:104D100059F00E94DD0691E01E140CF09FEF899F70
:104D2000802D11248093CB01EE80EE2059F00E945B
:104D3000DD0691E01E140CF09FEF899F802D112459
:104D40008093CC018091CB01882399F0E090CC0135
:104D5000EE2079F00E941F07882309F47CC080931D
:104D6000CB018E2D0E941F07882309F477C0809302
:104D7000CC01B80187EC91E00E949506811113C027
:104D80008091C90181116DC08091CA01811169C0F2
:104D90008091CB01811165C081E09091CC0191118E
:104DA00001C080E080FD0E94B41386E0F801A7EC0A
:104DB000B1E001900D928A95E1F70E94D0069091A2
:104DC000B401891721F08093B4010E948906809173
:104DD0001102843009F0C0CD83E08093E900809116
:104DE000E80082FFB9CD8091E80090E085FF06C021
:104DF0000E944B05882309F436C091E08091E800B9
:104E00008B778093E800992309F4A6CDE981E150DE
:104E1000E53108F04FC0F0E0E05FF84D0C94212B35
:104E20004F2753278C279D27A527B0275A275A2776
:104E30005A275A275A27B327B627BA27E027022826
:104E4000052807282C284D285728F092C9013BCF68
:104E5000F092CA0140CFF092CB0183CFF092CC0107
:104E600088CF81E09FCF80E2882E912C68018091CD
:104E7000E80085FD0AC08091E8008B778093E80008
:104E80000E944B05882399F3B8CF8091F100D60199
:104E90008D936D01B1E08B1A910849F7AECF1A825C
:104EA0008CE08B8319C08A81823009F425C128F4F3
:104EB000813061F08FEF89830FC08330A1F084309F
:104EC000C9F71B821C821D821E8206C00E948906B1
:104ED0009B838C837D836E8340E250E0B80182E047
:104EE0000E94280B39CD4B81DE01149690E080E0C2
:104EF000242F30E0B901680F791F6530710560F724
:104F0000E42FE80FF0E0EB54FE4F50815D930196E3
:104F10008C31910579F7E0CF8A81823019F08530A4
:104F2000D9F2C8CF6B817C818D819E810E94272B15
:104F300088E290E00E94CD2ACFCF4C816B818A819C
:104F40000E94B00F9D838E83C7CF2D813E81322773
:104F5000232732274C816B818A810E94E40EBCCFCB
:104F60000E940B0FB9CF80E18A83B6CF82E08A839B
:104F700087E897CFCA80DB80DC24CD24DC248C80BA
:104F8000912C3801C60187589E4F9301201B310B8D
:104F90002815390508F0A0CFE7E8CE16E2E0DE06D6
:104FA00060F40E94A92AD30114968C93FFEFCF1AC4
:104FB000DF0A2FEF621A720AE5CFF3011482F6CFEF
:104FC0006A807B807624672476248C80912C630110
:104FD000C60187589E4F96012619370928153905AD
:104FE00008F07ACF47E8C41642E0D40638F4200F20
:104FF000311FD90114966C910E94CD2ABFEFCB1AB4
:10500000DB0AE6CF0E94A90E67CF84E0ADCFCA804D
:10501000DB80DC24CD24DC248C80912C3801C6017B
:1050200089969301201B310B2815390508F054CFC0
:10503000E0E4CE16E1E0DE0660F40E94A92AD30186
:1050400014968C93FFEFCF1ADF0A2FEF621A720AC1
:10505000E6CFF3011482F6CF6A807B807624672442
:1050600076248C80912C6301C601899696012619BD
:1050700037092815390508F02FCF40E4C41641E060
:10508000D40638F4200F311FD90114966C910E9478
:10509000CD2ABFEFCB1ADB0AE7CF41E08C8181112B
:1050A00001C040E06B818A810E947D0F4BCF2D8132
:1050B0003E8132272327322741E08C81811101C0B4
:1050C00040E06B818A810E94B90E06CF09BD19BDEF
:1050D00009B400FEFDCF8091D8008F7D8093D80069
:1050E0008091E00082608093E0008091E00081FD8B
:1050F000FCCF0E94D313BCCC88E290E00E94A92A86
:105100001B821C821D821FCF2B30310508F0ADCDD4
:10511000E2CD2B30310508F0F6CD2BCE289A219A1E
:10512000229A23982B9880E58CBD089590913F0199
:105130009F3F09F072C08F3F09F46FC0611145C0F5
:105140001092650490916504423009F442C04330E6
:1051500009F443C094604130E9F141E050E0421766
:105160005307E8F1909165044031510509F453C0AB
:10517000C8F54230510509F447C04830510509F4DB
:1051800047C09CB520916504922B9CBD909164040E
:10519000992319F09DB591609DBD80933F01E82F43
:1051A000E295EF70F0E031A1282F2F7081E090E0C0
:1051B00001C0880F2A95EAF7932F982B91A392A10B
:1051C0008095892382A381E0089590E290936504FD
:1051D000B9CF986090936504C0CF9C60FBCF440F1B
:1051E000551FBDCF4034510549F04038510541F0BD
:1051F0004032510531F621E020936404926001C0F1
:10520000936090936504BDCF91E090936404B9CF0F
:1052100021E0209364049160F4CF80E00895CF935F
:10522000DF938EBD0E94A813EC010DB407FE05C0EC
:105230008EB590E0DF91CF9108950E94A8138C1B4A
:105240009D0B8436910588F38EEF9FEFF3CFCF93BC
:10525000DF931EBC0E94A813EC010DB407FE05C02D
:105260008EB590E0DF91CF9108950E94A8138C1B1A
:105270009D0B8436910588F38EEF9FEFF3CF8091DD
:105280003F018F3F29F1E82FE295EF70F0E041A157
:105290008F7021E030E0B90102C0660F771F8A9558
:1052A000E2F7CB01942F982B91A392A1892B82A393
:1052B0008FEF80933F018DB58E7F8DBD9CB5809122
:1052C0006504809589238CBD109265041092640456
:1052D00008951092B9008CE08093B8000895B0E072
:1052E000A0E0E5E7F9E20C94702AB82EEB010E94E9
:1052F000A8136C01EE24E394F12CC431D10560F0C5
:1053000025E0E22EF12CCF3FDC0731F0CE0164E145
:1053100070E00E94552A7B0184EAA82E94E8992E19
:105320001092BC00A092BC000E94A8138C01809136
:10533000BC0087FF0DC08091B900887F8830F9F0EC
:105340008091B900887F8031D1F00FEF1FEF08C046
:10535000C8010E949913E816F90648F70EEF1FEFEF
:10536000CF3FDC07E9F2C6010E949913C817D9079D
:10537000B8F6C801CDB7DEB7EBE00C948C2AB0923A
:10538000BB009092BC000E94A8138C018091BC00CD
:1053900087FF0AC08091B900887F883111F080347E
:1053A000A1F610E000E0E5CFC8010E949913E816CD
:1053B000F90660F7D3CF0F931F93CF93DF93EB01E1
:1053C0008093BB0084E88093BC000E94A8138C01EA
:1053D0008091BC0087FF11C02091B900287F81E037
:1053E00090E0283211F490E080E091958195910948
:1053F000DF91CF911F910F910895CF3FDC0741F3CB
:10540000C8010E949913C817D90710F78EEF9FEFB4
:10541000EFCFB0E0A0E0EFE0FAE20C94732A6B016A
:105420008A017901B9010E946F29E6010C0D1D1D49
:10543000C017D10711F097FF08C024E92093BC00E2
:10544000CDB7DEB7E8E00C948F2AB70189910E94AE
:10545000DB29EECFB0E0A0E0E0E3FAE20C94732A9F
:10546000C62F6A017901B8010E946F2997FD0CC00F
:10547000B8018C2F0E94DB29E601EC0CFD1CCE1537
:10548000DF0511F097FF08C024E92093BC00CDB7D9
:10549000DEB7E8E00C948F2AB80189910E94DB29DD
:1054A000EECF84E98093BC000895AA1BBB1B51E199
:1054B00007C0AA1FBB1FA617B70710F0A61BB70B84
:1054C000881F991F5A95A9F780959095BC01CD0129
:1054D00008952F923F924F925F926F927F928F9298
:1054E0009F92AF92BF92CF92DF92EF92FF920F9373
:1054F0001F93CF93DF93CDB7DEB7CA1BDB0B0FB67D
:10550000F894DEBF0FBECDBF09942A883988488839
:105510005F846E847D848C849B84AA84B984C884CF
:10552000DF80EE80FD800C811B81AA81B981CE0FC6
:10553000D11D0FB6F894DEBF0FBECDBFED010895AB
:10554000FB01DC0102C005900D9241505040D8F79C
:105550000895F999FECF92BD81BDF89A992780B53B
:105560000895A6E1B0E044E050E00C94F32AA8E1ED
:10557000B0E042E050E00C94F32ADC01A40FB51F28
:105580004150504048F0CB01840F951F2E910E944E
:10559000CE2A41505040D0F70895262FF999FECFDA
:1055A00092BD81BDF89A019700B4021639F01FBA76
:1055B00020BD0FB6F894FA9AF99A0FBE0895039693
:1055C000272F0E94CE2A0E94CD2A252F0E94CE2A64
:1055D000242F0C94CE2A0196272F0E94CE2A0C94B9
:1055E000CD2ADC01CB01FC01F999FECF06C0F2BD4A
:1055F000E1BDF89A319600B40D9241505040B8F791
:105600000895991B79E004C0991F961708F0961B1E
:10561000881F7A95C9F78095089597FB072E16F491
:10562000009407D077FD09D00E94552A07FC05D0C9
:105630003EF4909581959F4F0895709561957F4FA9
:105640000895EE0FFF1F0590F491E02D099469274E
:10565000962769277827872778270895FB01DC019B
:1056600004C08D910190801921F441505040C8F739
:0A567000881B990B0895F894FFCFF2
:10567A00946697C63435F4F5360000000000000041
:10568A000000000000000000000000000000000010
:10569A000000000000000000B0B0B0B0B0B000865A
:1056AA00066A0B630B85060021007F22000301FFB7
:1056BA0000FF0100010000FFFF0000010001FF00E0
:1056CA0000081018181008004422491701F500AC08
:0856DA0000E503FE031E0400BD
:00000001FF
