:100000000C94DA040C9412050C9412050C9412054D
:100010000C9412050C9412050C9412050C94120504
:100020000C9412050C9412050C947B2F0C944E30FA
:100030000C9414290C9412050C9412050C941205BE
:100040000C9412050C9412050C9412050C941205D4
:100050000C9412050C949D290C9412050C94120515
:100060000C9412050C9412050C9412050C941205B4
:100070000C9412050C9412050C9412050C941205A4
:100080000C9412050C9412050C9412050C94120594
:100090000C9412050C9412050C9412050C94120584
:1000A0000C9412050C9412050C941205414E4C4709
:1000B000004D4F55530044494749004A4F590000ED
:1000C000556E6465660033726400326E640031738D
:1000D0007400307468004C4159455200001F001EE6
:1000E0000021002000230022002500240004000538
:1000F000000600070014001500160017000800098C
:10010000000A000B0018001900000000000C000D90
:10011000000E000F000000000000000000100011A1
:10012000001200130000000000000000001A001B75
:10013000001C00000000000000000000000400059A
:10014000000600070014001500160017000800093B
:10015000000A000B0018001900000000000C000D40
:10016000000E000F00000000000000000010001151
:10017000001200130000000000000000001A001B25
:10018000001C00000000000000000000000400054A
:1001900000060007001400150016001700080009EB
:1001A000000A000B0018001900000000000C000DF0
:1001B000000E000F00000000000000000010001101
:1001C000001200130000000000000000001A001BD5
:1001D000001C0000000000000000000000040005FA
:1001E000000600070014001500160017000800099B
:1001F000000A000B0018001900000000000C000DA0
:10020000000E000F000000000000000000100011B0
:10021000001200130000000000000000001A001B84
:10022000001C000000000000000000000000AE0004
:10023000AF00DA0281FFD9F1DB20A4A62EAF00A027
:10024000C0D30000A1C8D30000AED580A81F408D48
:1002500014200007087F0807003E5B4F5B3E003E0E
:100260006B4F6B3E001C3E7C3E1C00183C7E3C18D5
:10027000001C577D571C001C5E7F5E1C0000183C54
:10028000180000FFE7C3E7FF00001824180000FF74
:10029000E7DBE7FF0030483A060E002629792926D9
:1002A00000407F05050700407F05253F005A3CE7D9
:1002B0003C5A007F3E1C1C0800081C1C3E7F00149A
:1002C000227F2214005F5F005F5F0006097F017FCD
:1002D00000006689956A0060606060600094A2FF1B
:1002E000A2940008047E04080010207E201000085C
:1002F000082A1C0800081C2A0808001E10101010EC
:10030000000C1E0C1E0C0030383E383000060E3E2D
:100310000E060000000000000000005F000000006A
:100320000700070000147F147F1400242A7F2A127C
:100330000023130864620036495620500000080765
:10034000030000001C224100000041221C00002A82
:100350001C7F1C2A0008083E08080000807030003E
:10036000000808080808000000606000002010086D
:100370000402003E5149453E0000427F40000072A9
:1003800049494946002141494D33001814127F1054
:10039000002745454539003C4A4949310041211172
:1003A000090700364949493600464949291E0000D7
:1003B0000014000000004034000000000814224136
:1003C00000141414141400004122140800020159EE
:1003D0000906003E415D594E007C1211127C007FDF
:1003E00049494936003E41414122007F4141413E59
:1003F000007F49494941007F09090901003E414107
:100400005173007F0808087F0000417F41000020F1
:1004100040413F01007F08142241007F404040409E
:10042000007F021C027F007F0408107F003E4141D4
:10043000413E007F09090906003E4151215E007FCF
:10044000091929460026494949320003017F010361
:10045000003F4040403F001F2040201F003F4038E9
:10046000403F006314081463000304780403006130
:1004700059494D4300007F414141000204081020CA
:1004800000004141417F000402010204004040405D
:100490004040000003070800002054547840007FCB
:1004A0002844443800384444442800384444287FD1
:1004B0000038545454180000087E09020018A4A4FF
:1004C0009C78007F080404780000447D40000020F0
:1004D00040403D00007F102844000000417F400064
:1004E000007C04780478007C0804047800384444D4
:1004F000443800FC182424180018242418FC007C1C
:10050000080404080048545454240004043F4424BC
:10051000003C4040207C001C2040201C003C40301F
:10052000403C004428102844004C9090907C0044AB
:1005300064544C440000083641000000007700007D
:10054000000041360800000201020402003C26239C
:10055000263C00000000000000404040F0F8F8FF9A
:1005600038FFF8F83FF8F8FF38FFF8F8F04040405F
:1005700000000000000080C0C0C0800000C0C0803B
:1005800000000080C0C000C0C0000080C0C00000EB
:10059000000000C0C0C0C0C000C0C000000000001B
:1005A000000000000000000000000000000000004B
:1005B000000000000000000000000000000000003B
:1005C000000000000000000000000000000000002B
:1005D0000000C0F0F8FC3E1E06010000007F414113
:1005E000417F007F4141417F000080C0E07E5B4F42
:1005F0005BFEC00000C000DCD7DEDEDED7DC00C062
:1006000000000000000000000000000000000000EA
:10061000000000000000000000494949FFFFFFFF03
:10062000E0DFBFBF00BFBFDFE0FFFFFFFF49494979
:1006300000000000001F3F6060E0BF1F007F7F07D9
:100640001E381E077F7F007F7F0E1F3B71600000FA
:100650000000007F7F0C0C0C007E7E007F7E030379
:10066000007F7E03037E7E03037F7E000F3E703C8F
:10067000063C703E0F00327B49493F7E007F7E037F
:1006800003001E3F69696F260000000000000000A3
:100690000000030F1F3F3C7870600000007F414165
:1006A000417F007F4141417F00307B7F78302020B7
:1006B00030787F3B0003000F7F0F0F0F7F0F000389
:1006C000000000000000000000000000000000002A
:1006D000000000000000000000010101070F0F7F73
:1006E0000F7F0F0F7E0F0F7F0F7F0F0F070101018D
:1006F00000000000000000000000010100000000F8
:1007000000000000000000000000000000000000E9
:1007100000000000000000000000000000000000D9
:1007200000000000000000000000000000000000C9
:1007300000000000000000000000000000000000B9
:1007400000000000000000000000000000000000A9
:100750000000000000000000000000000000000099
:100760000000000000000000000000000000000089
:100770000000000000000000000000000000000079
:100780000000000000000000000000000000000069
:1007900000000000000000000000002A2B280000DC
:1007A0000000000000000000000000000000290020
:1007B0000000002C1E3420212224342627252E362A
:1007C0002D3738271E1F2021222324252633333698
:1007D0002E37381F0405060708090A0B0C0D0E0FEB
:1007E000101112131415161718191A1B1C1D2F316E
:1007F00030232D350405060708090A0B0C0D0E0FD2
:10080000101112131415161718191A1B1C1D2F314D
:1008100030354C0000000000000000000000000027
:1008200000000000000000000000000000000000C8
:10083000000000000000007E0F00D4FFFFFFC70093
:100840000000780C0367006200630032003400008F
:100850000012036B0075007300680069006D006191
:1008600000380000000403090409025B00030100D2
:10087000A0FA09040000010301010009211101008F
:100880000122440007058103080001090401000258
:100890000300000009211101000122220007058246
:1008A00003200001070503032000010904020001E1
:1008B00003000000092111010001227700070584CF
:1008C0000320000112010002000000083839343210
:1008D0000100010200010660FF0961A10109621522
:1008E0000026FF009520750881020963150026FF88
:1008F00000952075089102C005010902A101850239
:100900000901A1000509190129081500250195080B
:10091000750181020501093009311581257F950294
:100920007508810609381581257F950175088106AE
:10093000050C0A38021581257F950175088106C0CE
:10094000C005010904A1018507A1000501093009BD
:10095000311601FE26FF0195027510810205091965
:1009600001292015002501952075018102C0C005CF
:10097000010906A101050719E029E71500250195E0
:100980000875018102950175088101050719002983
:10099000FF150026FF00950675088100050819015E
:1009A000290515002501950575019102950175032D
:1009B0009101C00011241FBECFEFDAE0DEBFCDBF32
:1009C00004B603FE18C080918C0490918D04A09110
:1009D0008E04B0918F048730904BA740B04B59F4F0
:1009E00010928C0410928D0410928E0410928F0439
:1009F000E0E0F8E3099511E0A0E0B1E0E4E0FCE616
:100A000002C005900D92A238B107D9F724E0A2E800
:100A1000B1E001C01D92AC38B207E1F70E94E618C0
:100A20000C9400360C940000E82FE295EF70F0E093
:100A300031A1282F2F7081E090E001C0880F2A9506
:100A4000EAF7982F9095932391A392A1892B82A3E3
:100A50000895E82FE295EF70F0E031A1282F2F7074
:100A600081E090E001C0880F2A95EAF7932F982B38
:100A700091A392A18095892382A308950895CF938D
:100A8000DF93809100010E941405809101010E9472
:100A90001405809102010E941405809103010E94B7
:100AA0001405C4E0D1E089910E94140581E0C930A9
:100AB000D807C9F7DF91CF910895A5E0B0E0E3E64C
:100AC000F5E00C94AB32CE0101967C0185E0D701B4
:100AD0001D928A95E9F73701670124E0822E21E013
:100AE000922E312C44244394512CF40181914F01D6
:100AF0000E9429050E94781890E0A92E91E0B92E55
:100B0000F50110E000E02191A22FA295AF70B0E0B6
:100B100090968C9190E02F7002C0959587952A95BC
:100B2000E2F780FD0AC0D6018C919201002E01C02F
:100B3000220F0A94EAF7822B8C930F5F1F4F043029
:100B4000110509F7F401319780810E94140560E0D6
:100B5000832D0E947A183394BFEFCB1ADB0AE5E0AD
:100B60003E12C3CFCC24C3948CEFD82ED00ED50127
:100B70008D915D010E9429050E9478183C2D002E60
:100B800001C0330F0A94EAF7F70144E051E0DA01BB
:100B90002D91AD01822F82958F7090E0DC019096AF
:100BA0008C9190E02F7002C0959587952A95E2F779
:100BB00080FD03C08081832B80833196B1E0493072
:100BC0005B0729F7F501319780810E94140560E0E9
:100BD0008D2D0E947A180F5F1F4F0830110521F6E6
:100BE000C7010E943E05EBE6F2E085E0E80EF11C4D
:100BF00010E0D3018D913D019191891721F0DF0122
:100C000011978C9311E0E614F70499F7212F45E032
:100C100060E772E08BE692E00E949B180E946A18DF
:100C2000812F2596E1E10C94C732873941F178F4A0
:100C3000863359F130F4843321F1853321F18FE18A
:100C400008958439D1F08639D1F781E20895843F3F
:100C500071F030F4803FD9F0813F89F781E0089549
:100C6000863F49F030F0873F51F787E0089584E0F0
:100C7000089585E0089586E0089580E2089582E26F
:100C8000089583E2089584E2089585E2089580E05E
:100C9000089596E890937A00982F907290689093B8
:100CA0007B008F7190910901892B80937C0080914A
:100CB0007A00806480937A0080917A0086FDFCCF70
:100CC000809178002091790090917A009F7790939D
:100CD0007A00922F08950E9415060E9449060895F1
:100CE0008091250190912601892B31F48091270173
:100CF00090912801892B91F070E060E080E00E94E3
:100D0000402370E060E081E00E94402310922601C1
:100D10001092250110922801109227010895A6E053
:100D2000B0E0E5E9F6E00C94B9329FEF980F94300B
:100D3000A8F4162FE82FF0E0EE0FFF1FEA5BFE4F3E
:100D40008081918199838A830E947629682F4981C5
:100D50005A81792F81E0912F0E94720B2696E3E051
:100D60000C94D53280912401882329F060E00E9400
:100D70008F061092240108954F925F926F927F9296
:100D80008F929F92AF92BF92CF92DF92EF92FF929B
:100D9000CF93C0E1C12CD12C7601812C912C540130
:100DA00086EF0E946B06092E000CAA0BBB0B880E67
:100DB000991EAA1EBB1E87EF0E946B06092E000C0F
:100DC000AA0BBB0BC80ED91EEA1EFB1E8FE39FE1C8
:100DD0000197F1F700C00000C15011F780E1482EE3
:100DE000512C612C712CC501B401A30192010E9408
:100DF0004D3230931E0120931D01C701B601A3019E
:100E000092010E944D323093200120931F01CF9117
:100E1000FF90EF90DF90CF90BF90AF909F908F901A
:100E20007F906F905F904F900895A6E0B0E0EBE167
:100E3000F7E00C94B03280912201909123010E943E
:100E40008E290A97B8F00E94762990932301809307
:100E5000220186EF0E946B067C0187EF0E946B06E1
:100E60008C0180911C01813009F45FC038F0823020
:100E700009F4F6C02696ECE00C94CC320E94700681
:100E800080911D0190911E01E81AF90A80911F01BD
:100E900090912001081B190BC701809681349105A0
:100EA00028F4C80180968134910558F10833110562
:100EB00034F5093C8FEF1807B4F1E8E3EE16F104BE
:100EC000CCF4F9ECEF16FFEFFF065CF1A701F7FE9B
:100ED00004C0442755274E195F09C80117FF04C0F5
:100EE00088279927801B910B841795072CF41E14D3
:100EF0001F04BCF412E006C010161106A4F411E0A1
:100F000001C010E080912401811709F4B3CF60E0A3
:100F10000E948F0661E0812F0E948F0610932401AA
:100F2000A9CF14E0EFCF13E0EDCF0E94B2060E94EC
:100F3000700680911D0190911E01E81AF90A8091B6
:100F40001F0190912001081B190B9701F7FE04C0A7
:100F5000222733272E193F09C80117FF04C088270D
:100F60009927801B910B8217930708F03FC04C0113
:100F7000880C991C880E991EE3E096948794EA9554
:100F8000E1F7820E931E88E38816910408F472CF6D
:100F9000A0912101940127533109B0E00E948132D0
:100FA0002FEA30E040E050E00E942B326901121637
:100FB00013061CF0CC24C394D12CB12CA12C970186
:100FC000D6010E947932A50194010E944D32213848
:100FD000EFEF3E074E075E07B4F0F22E20383105E2
:100FE0004105510594F02FE7F22E0FC04901880CFE
:100FF000991C820E931E63E0969487946A95E1F79C
:10100000880E991EC0CF31E8F32E22273327201BEC
:10101000310BD6010E947932A50194010E944D3214
:101020002138FFEF3F074F075F07B4F02038310545
:10103000410551059CF4F11003C0222309F41ACF95
:10104000CE01019636E0FC0111923A95E9F7FB8258
:101050002C830E941E280ECF21E8F2CF2FE7F0CF7D
:101060000E94B206970150E040E080911D019091EE
:101070001E01281B390B410951094801B12CA12C33
:1010800060911F0170912001861A970AA108B1088A
:10109000E2E0F1E057FD02C0ECEEF0E0AFEFB1E0CE
:1010A0000E9497329F0150E040E00E944D32EE24B2
:1010B000E3949EEFF92E2130FEEF3F07FFEF4F073D
:1010C0005F0754F07901211532404105510524F0A4
:1010D000EE24EA94FF24F394E6EEF0E0B7FE02C0BB
:1010E000E5E1F1E0AFEFB1E0A50194010E94973294
:1010F0009F0150E040E00E944D322130EEEF3E076C
:10110000EFEF4E075E07D4F12115F2E03F074105EE
:101110005105BCF5C701CC968937910510F4F12C27
:10112000E12C8CE390E0821B930B00271127021B1C
:10113000130B8937910510F410E000E08091250130
:10114000909126018E159F0541F480912701909181
:1011500028018017910709F48DCEF0922601E092C4
:1011600025011093280100932701B70180E00E9418
:101170004023B80181E00E9440237CCE21E03EEF75
:10118000C9CF2FEF31E0C6CF80911C010895A6E0B2
:10119000B0E0EDECF8E00C94B932833060F490915B
:1011A0001C01981741F0182F913061F040F09230F7
:1011B00099F010931C012696E3E00C94D5320E941E
:1011C000B206F7CFCE01019626E0FC0111922A95D6
:1011D000E9F70E941E28EDCF0E947006EACF8091A9
:1011E00021010895809121018E3220F48B5F80933C
:1011F0002101089582E3FBCF80912101482F4550C2
:10120000550B1416150634F48550433351051CF064
:1012100082E301C081E080932101089583E0089575
:10122000A6E0B0E0E6E1F9E00C94B73260E08CEDC6
:1012300090E00E94C11E60E086ED90E00E94C11E19
:1012400080919E010E94200B813009F459C060F00A
:10125000823009F459C0833009F45AC060E080EC50
:1012600090E00E94AF1E05C060E082ED90E00E9419
:10127000C11E60E08FEB90E00E94C11E60E08BEB2E
:1012800090E00E94C11E0E94C408813009F44AC047
:1012900008F442C0823009F449C00E94EF081F924E
:1012A0008F9380E591E09F938F931F9286E0F82EB5
:1012B000FF928E010F5F1F4F1F930F930E94003309
:1012C00060E0C8010E94A91E809185011F928F9342
:1012D00085E591E09F938F931F92FF921F930F9349
:1012E0000E94003360E0C8010E94A91E0FB6F89466
:1012F000DEBF0FBECDBF80E02696E5E00C94D33272
:1013000060E08EEC90E0B3CF60E08AEC90E0AFCF8D
:1013100060E086EC90E0ABCF60E086EB90E00E946E
:10132000C11EBBCF60E081EB90E0F9CF60E08CEABA
:1013300090E0F5CFA6E0B0E0E0EAF9E00C94B83236
:10134000082F162F0E945124882381F001110EC00E
:1013500083E0898384E08A830E947629682F49810B
:101360005A81792F81E0912F0E94720B80E026969E
:10137000E4E00C94D4320E94BC0608959C01FB0169
:101380008581882379F12231FEE73F07F1F040F4AF
:101390002031EEE73E0761F021313E4789F00895A4
:1013A00023319EE73907B1F024313E47B9F0089563
:1013B00080E00E94C70881E08093850180E0089565
:1013C00081E00E94C70882E0F7CF82E00E94C70850
:1013D00083E0F2CF0E94F20884E0EECF0E94FC0886
:1013E00085E0EACF81E0089580918401811105C0F4
:1013F000219A299881E0809384010E94150708951D
:101400008430C8F46530B8F44830A8F4E62FF0E032
:1014100095E0899FE00DF11D112483E0EE0FFF1F81
:101420008A95E1F7E40FF11DEE0FFF1FE351FF4F27
:1014300085919491089581E090E00895843088F436
:1014400061110FC090E0880F991FE1E0E427E80FD9
:10145000F92FF11DEE0FFF1FE352FF4F859194917D
:10146000089581E090E0089581E008950E94340A93
:10147000089581E008950E94BE09089508950E948C
:101480003E0A0895A6E0B0E0E8E4FAE00C94B93230
:1014900049835A839E8330918B0189819A813111CE
:1014A0001AC03E81332399F0222389F00E940F1045
:1014B000182F682F89819A810E94DD0F69817A81B6
:1014C000812F0E941D172696E3E00C94D5320E94CE
:1014D000F60F182FF3CF0E940F1069817A81F1CF98
:1014E000FC01262F40815181628173818481958125
:1014F0000E94420A0895CF93DF93EC0161E00E94BD
:10150000700ABE010E94360ADF91CF910895CF93F1
:10151000DF93EC0160E00E94700ABE010E943F0A66
:10152000DF91CF91089508950E94DA0E0E94930AE8
:101530002FEF84E39CE0215080409040E1F700C011
:10154000000008950E94940A0E94C32908950E94F1
:10155000940A0E94E72908950F931F93CF93DF9376
:101560008C0161E00E94700AEC01B8010E94EE1B40
:10157000811106C080E0DF91CF911F910F910895F6
:10158000B801CE010E943B0A8823A1F3B801CE0125
:101590000E946927882371F3B801CE010E941120AF
:1015A000882341F3B801CE010E94D726882311F386
:1015B000B801CE010E94D3218823E1F2B801CE0107
:1015C0000E94B4278823B1F2F8018581882361F055
:1015D000C330FCE7DF07E9F058F4C115ECE7DE079C
:1015E000A9F0C130DC47B9F0C8010E94390AC3CF65
:1015F000CB358CE7D807A9F0CC35ECE7DE0771F0E6
:10160000CA35DC4789F70E946814EECF0E94A20A0F
:10161000B1CF0E9470140E94A70AACCF0E945E1442
:10162000E3CF0E946C14E0CF0E94F1280E94500B7F
:101630000E94C91F08950E94540B0E94F628089525
:10164000982F92959F7020E011F0892F24E0982F19
:101650009695969511F02E5F892F982F969509F003
:101660002F5F822F0895089581E008950895CF9304
:10167000DF93D82F0E94340BC82F882319F08D2FA9
:101680000E94360B8C2FDF91CF9108950895CF9350
:10169000C82F0E94330B8C2F0E94370BCF910895D7
:1016A00080E00E94470B08950E9403280E94470B88
:1016B0000895CF930E940328C82F809186018C172C
:1016C00079F0C09386010E9482296093870170930C
:1016D00088018093890190938A018C2F0E94470B87
:1016E000CF910895ADE0B0E0E8E7FBE00C94BA32AA
:1016F000488759876A877B878C879D8791110E94CD
:1017000096131F8286E0FE013896DE011196019045
:101710000D928A95E1F78D8181110DC029813A8161
:101720004B815C816D817E818F810E94C7122D96D5
:10173000E2E00C94D632CE0101960E947B0A811120
:10174000EDCFF5CFFC012481213021F480819181FE
:101750000E943C100895662329F00E947F190E9480
:10176000551A08950E94D919FACFCF938823D1F042
:10177000C82F8238C9F40E94102881FD13C089E364
:101780000E944C130E94CF132FEF87EE93E021505D
:1017900080409040E1F700C0000089E30E945413AC
:1017A0000E94CF13CF9108958338A1F40E9410288E
:1017B00080FDF8CF83E50E944C130E94CF132FEFDA
:1017C00081EE94E0215080409040E1F700C000009D
:1017D00083E5E4CF8438A1F40E94102882FDE2CF93
:1017E00087E40E944C130E94CF132FEF81EE94E008
:1017F000215080409040E1F700C0000087E4CECF48
:101800008CEF8C0F813A90F46C2F8091290190918C
:101810002A010E945F28882329F08C2F0E945413EC
:101820000E94CF138C2F0E944C13BACF80E28C0FF2
:10183000883048F4C77081E001C0880FCA95EAF784
:101840000E947713ADCF83E38C0F833108F0AACFCA
:1018500061E08C2F0E94AB0BA5CF882309F444C014
:10186000823879F40E94102881FF3EC089E30E94EB
:101870004C130E94CF1389E30E9454130E94CF138C
:101880000895833859F40E94102880FF2DC083E505
:101890000E944C130E94CF1383E5EECF843859F495
:1018A0000E94102882FF20C087E40E944C130E94EF
:1018B000CF1387E4E1CF9CEF980F913AE8F290E2E2
:1018C000980F983050F4877091E001C0990F8A9575
:1018D000EAF7892F0E947D13D1CF93E3980F9331BC
:1018E00018F460E00E94AB0B08951F93CF93DF9331
:1018F000182FEB010E94B50B209739F4812F0E941D
:101900002D0CDF91CF911F9108958FE99FE00197F2
:10191000F1F700C000002197EFCF65E070E0893358
:1019200011F460E570E00E94750C0895882321F0A1
:101930000E9477130E94CF130895882321F00E94FC
:101940007D130E94CF130895B0E0A0E0EAEAFCE026
:101950000C94B4326C01D62FC72FFC01158106817F
:1019600002950F700E946D13E82E8823E9F0E12E96
:101970001123D1F08C2F807F803451F080E28D0FC5
:10198000883060F1011104C08C2F807E803231F1EB
:1019900080916A0282FF22C082E00E9432140E947B
:1019A0006D1391E0E82EE926FC2EF2949FE0F922D7
:1019B000FBE0FF1508F46BC1EF2DF0E0EE51F34FA3
:1019C0000C946C32F00CF00C370D370D470EA10D56
:1019D000470E470EA60D0E0E1F0E1F0EE12CE4CF74
:1019E0000C2F0F70C07F11F00295007F112399F02A
:1019F000002359F080E28D0F883010F0D11107C01C
:101A0000802F0E9477130E94CF138D2F51C0802FFB
:101A10000E948813F8CF8D2F0E942D0C002379F09F
:101A200080E28D0F883010F0D11104C0802F0E9409
:101A30007D1303C0802F0E948E130E94CF13EE20CF
:101A400089F00E94691380FD0DC0F60115820E9485
:101A500063130E94510FC6010E94A90E0E946313D6
:101A60000E945D0FCDB7DEB7E8E00C94D0322C2F8A
:101A70002F70F22EC07FC03219F0F29480EFF8225E
:101A8000DD2341F0D130D1F1112309F444C000230A
:101A9000F1F0BBCF80916A0282FD15C0112359F08D
:101AA000FF2029F08F2D0E9477130E94CF1380E032
:101AB0000E94B50BC4CF80E00E942D0CFF2009F4DA
:101AC000BECF8F2DB4CF112369F0011104C08F2D2B
:101AD0000E94960CB4CF013009F0B1CF8F2D0E9437
:101AE000AD13ADCF0111ABCF8F2D0E949D0C8F2D6B
:101AF0000E94B9138F2D0E949D13A1CF112321F0B5
:101B0000063008F09CCFE3CF053008F098CF8F2D3A
:101B10000E949D0C94CF0023D1F3D93369F48FEF49
:101B200097EEE3E081509040E040E1F700C0000014
:101B30008D2F0E942D0C83CF8FE19EE40197F1F74A
:101B4000F5CF612F8D2F0E94AB0B79CF8C2F837037
:101B500091F5111122C04D2F429546954770440FC3
:101B6000440F8D2F8F70042E01C0880F0A94EAF75E
:101B700020E0D4FF07C02FE030E001C0220F4A95DB
:101B8000EAF72095822BC695C695C370C23069F0DE
:101B900078F4C13039F00E942D0F0E9403280E9472
:101BA000470B4DCF0E94270FF8CF0E94330FF5CF80
:101BB0000E94240FF2CF8695112311F08C2F817093
:101BC000882359F34D2F429546954770440F440F93
:101BD0008D2F8F70042E01C0880F0A94EAF720E041
:101BE000D4FF07C02FE030E001C0220F4A95EAF78A
:101BF0002095822BC695C695C370C23049F058F423
:101C0000C13019F00E947C0FC8CF0E94760FC5CF5B
:101C10000E94820FC2CF0E943F0FBFCFCF7011230F
:101C200039F08C2F0E94510F8D2F0E94960CB5CF4A
:101C30008D2F0E949D0C8C2F0E945D0FAECFD23F46
:101C400079F170F4D03FD9F0D13F91F0112309F42C
:101C50004FC0002309F449C08D2F0E94B50B17C057
:101C6000D33F29F1D43F91F780916A0282FD29C0C8
:101C70008C2F8F711123C1F00E94510F08C01123C6
:101C800061F0053020F48C2F8F710E946A0F88EF6D
:101C90008F0D843008F0D3CE80CF0630C0F7F3CF5D
:101CA0008C2F8F71112341F30E945D0FF0CF112310
:101CB00029F08C2F8F710E94480FE9CF0E94440FAA
:101CC000E6CF112349F0CF718C2F0E94510F63E0B2
:101CD0008C2F0E941414DBCF81E00E94321402305A
:101CE000B0F282E00E943214D2CF8C2F8F71C4CF19
:101CF0000023A1F0D93369F49FEFE7EEF3E09150B0
:101D0000E040F040E1F700C000008D2F0E942D0C54
:101D1000BECF8FE19EE40197F1F7F5CF8C2F8F7145
:101D2000C3CF0F931F93CF93DF93EC016881798129
:101D30008D810E9447108C010E94880F0E94230F02
:101D4000B801CE010E94A40CDF91CF911F910F9199
:101D50000895CF93DF93FC012481222399F0EC01B5
:101D60000E94AC0A811111C00E946D13882351F0AA
:101D70008D81882339F080916A0282FF03C082E05E
:101D80000E943214DF91CF910895CE010E94910EEE
:101D9000CE010E94870AF6CF0E9496130E94CF13AD
:101DA0000E94741A0E94551A08950E945C130E94A2
:101DB000CC0E08950E9485130E94D50E0895929529
:101DC0009F70963089F050F49250923058F4803FD2
:101DD00019F030F4883E30F481E008959A50F5CF40
:101DE000843FD1F380E00895883EB0F3813FD1F77E
:101DF000F3CFFC012481222339F0808191810E945C
:101E00003C100E94DF0E089580E00895A6E0B0E047
:101E1000ECE0FFE00C94BA322696E2E00C94D63265
:101E2000A7E0B0E0E6E1FFE00C94BA322796E2E0EA
:101E30000C94D63208950E941A0F08950E941B0F29
:101E400080939F01089508950E941E0F0895909118
:101E50009F01892B0E941E0F089590919F01892355
:101E60000E941E0F089590919F0189270E941E0FC6
:101E700008950E941A0F08950E94390F08950E9434
:101E80003C0F80939E01089580E00E943F0F0895CB
:101E900091E001C0990F8A95EAF7892F0E943F0FC0
:101EA000089521E030E001C0220F8A95EAF7809181
:101EB0009E01822B0E943F0F089521E030E001C077
:101EC000220F8A95EAF7209580919E0182230E9435
:101ED0003F0F089521E030E001C0220F8A95EAF714
:101EE00080919E0182270E943F0F089590919E014C
:101EF000892B0E943F0F089590919E0189230E9493
:101F00003F0F089590919E0189270E943F0F0895E9
:101F10000895262F277091E001C0990F2A95EAF7BE
:101F200023E0769567952A95E1F7FB01EE0FFF1FF9
:101F3000E60FF71FE40FF51F50E040E0682F70E058
:101F40008191DF0111979B01042E02C036952795E0
:101F50000A94E2F7217021952827292328272C931A
:101F60004F5F5F4F4330510559F70895A82FA77071
:101F700023E0969587952A95E1F7FC01EE0FFF1F68
:101F8000E80FF91FE60FF71F50E040E080E02191D5
:101F900030E00A2E02C0369527950A94E2F72170A8
:101FA0003327042E01C0220F0A94EAF7822B4F5FD9
:101FB0005F4F4330510559F70895282F862F9530EC
:101FC00068F4283058F438E0939FB0011124620F70
:101FD000711D4FE851E00E94890F08959C5F923077
:101FE000E0F7622F70E04CE851E0F5CF953070F4E7
:101FF000883060F448E0949F900111246FE871E00C
:10200000820F932F911D0E94B60F08959C5F92300E
:1020100020F46CE871E090E0F6CF80E00895CF9274
:10202000DF92FF920F931F93CF93DF936C01009188
:102030009E0180919F01082BC3E0D0E010E0FC2EB0
:10204000C8010C2E02C0959587950A94E2F780FD91
:102050000CC02197A0F7F12C8F2DDF91CF911F910C
:102060000F91FF90DF90CF900895B6018C2F0E94C2
:102070003617019771F3F0CFCF93DF93EC010E94F5
:102080000F10BE010E943617DF91CF9108951F9364
:10209000CF93DF93EB0190918B01992339F0CB0122
:1020A0000E943C10DF91CF911F910895882369F021
:1020B000CB010E940F10182F682FCE010E94DD0F58
:1020C000BE01812F0E943617EDCFCB010E94F60F83
:1020D000182FF6CFE1E0F0E0DF0102C0AA0FBB1F2E
:1020E0006A95E2F7BD01DF0102C0AA0FBB1F4A9546
:1020F000E2F76A2B01C0EE0F2A95EAF7962F982394
:10210000961302C08E2B0895E0958E230895242FF8
:10211000462F682F80919E010E946A100E943F0FF7
:1021200008951F93CF93DF93C091A00117E0809192
:10213000A1018C1304C0DF91CF911F910895D0E0CD
:102140001C9FF0011D9FF00D1124EE55FE4F2081C4
:102150003181428153816481758186810E94100F93
:102160002196C770E4CF2091DA013091DB014091D4
:10217000DC015091DD016091DE017091DF01809101
:10218000E0010E94100F0895CF93DF938091E0014A
:10219000807F09F04DC08091DF01882309F448C099
:1021A000E091A0015091A101C091DB01D091DA0131
:1021B0006091DC017091DD0147E05E17C9F18E2F5F
:1021C00090E0E49FF0011124EE55FE4F248122237C
:1021D00091F1489FF001499FF00D1124DF01AE55A8
:1021E000BE4F11962C9111972C1325C02C912D13B5
:1021F00022C015962C91159721111DC012962D9174
:102200003C91261B370B283C3105A8F48091E00156
:102210008F7080618093E001E855FE4F80818F7060
:10222000806180838AED91E00E94A90E0E94911046
:10223000DF91CF910895FC013196E770BECF482F12
:102240002091A0019091A10157E0291302C080E0E4
:10225000089530E0529FF001539FF00D1124EE5588
:10226000FE4F8181681306C08081481303C08581B9
:102270008111EECF2F5F3F4F2770E7CFA4E1B0E091
:10228000E4E4F1E10C94B0328C0186E0F801DE0167
:102290001F9601900D928A95E1F7F8018481E580FF
:1022A0009AEDA92E91E0B92E9091DE0191111FC0F7
:1022B0008823D1F0EE20A9F0C8010E94F90EF82E73
:1022C000882379F087E0F801D50101900D928A9575
:1022D000E1F7C5010E94A20B0E94C4100E94B31036
:1022E0005FC0C8010E94A90EFF24F39459C0C080AA
:1022F000D18082809380F090DF012091DC013091C9
:10230000DD01A401421B530BFF2009F4F8C0483C37
:10231000510508F0A6C0882309F442C09091DB0162
:102320008091E001282F207F09F05BC0D91216C0F0
:102330009091DA01C91212C0E1104DC08F70806116
:102340008093E0010E94B3108AED91E00E94A90EF3
:102350008091E001F8018683F12C22C0E1103BC09E
:102360006D2D8C2D0E941F116D2D8C2D0E941F1123
:10237000E82E8111F1CFCF86D88A8F8598890E9467
:102380003C10292F22952F70243078F49F70223032
:10239000A0F09923B1F0F8019681907F91F4FE2C82
:1023A0008F2D6496ECE00C94CC322A50223068F0E9
:1023B000C8010E94A90EEF2CF2CF992311F08823B7
:1023C00071F3805E8830A0F7EACF803F40F3815FF1
:1023D000833070F7E4CF8091E00181608093E00169
:1023E000BBCFD91213C09091DA01C9120FC0E1100E
:1023F0000DC08683C8010E94A90E87E0F801AAEDEE
:10240000B1E001900D928A95E1F768CFC8010E9472
:10241000F90E882309F465CFEE2009F462CF80918C
:10242000E001803288F02091DA013091DB013987B8
:1024300028879B868A869091DE019C871D868E87E1
:10244000CE0108960E94A90E87E0F801AAEDB1E03E
:1024500001900D928A95E1F70E94C4100E94B3107A
:1024600043CF9091E001292F207FA1F4682D9A8A13
:10247000898AA6017A899E2D0E94060F8AED91E035
:102480000E94A90E87E0F50111928A95E9F70E9452
:10249000B31062CF882309F483CF8091DB018D11C3
:1024A00010C08091DA01C8120CC0E1100AC09683F6
:1024B000C8010E94A90E87E0F50111928A95E9F7FB
:1024C0006FCFC8010E94F90E882309F40ACFEE20CD
:1024D00009F407CF8091E001803208F4B5CF209154
:1024E000DA013091DB013A8329839C828B829091BF
:1024F000DE019D831E828F83CE010196A3CF483CCF
:102500005105B8F5882309F4EFCEFE2CEE2009F42E
:10251000E8CE8091DB018D111EC08091DA01C812D6
:102520001AC08091E00180FD0DC0982F907F51F07E
:102530008683903F09F45ECF982F907F905F8F70D5
:10254000892B57CF87E0F801AAEDB1E001900D92F9
:102550008A95E1F725CFC8010E94F90E811174CF49
:102560008091E00181608093E001C8010E94A90E82
:1025700017CF682D9A8A898AA6017A899E2D0E9492
:10258000060F87E0F50111928A95E9F7A7CEAEE034
:10259000B0E0EDECF2E10C94B932288739874A8734
:1025A0005B876C877D878E87CE0108960E943E11DF
:1025B0008823B1F16C85662341F0288539854A85E9
:1025C0005B857D858E850E94100F17E08091A001AC
:1025D0009091A101891709F45BC0819FC00111246A
:1025E0008E559E4F0E943E11882309F451C0E09100
:1025F000A0011E9FF0011124EE55FE4F2081318174
:10260000428153816481758186810E94100F80917F
:10261000A00190E00196877099278093A001D6CF02
:1026200087E0FE013896DE01119601900D928A95A1
:10263000E1F78C85882349F22091A10130E0C9019E
:102640000196877099274091A0014817190699F0C3
:1026500097E0929FD001939FB00D1124AE55BE4FCD
:10266000FE01319601900D929A95E1F78093A101B8
:102670000E949110AACF0E94DA0E1092A10110922E
:10268000A00187E0EAEDF1E0DF011D928A95E9F70C
:102690002E96E3E00C94D532682F80912901909119
:1026A0002A010E9495280895682F80912901909110
:1026B0002A010E94982808958091290190912A0169
:1026C0000E949B2808958091E901869586958695BC
:1026D00008958091E901877008959091E9019770BC
:1026E00081E009F480E008958091F50108959091CA
:1026F000F501892B8093F5010895982F909580918D
:10270000F50189238093F50108951092F50108954C
:102710009091F401892B8093F4010895982F90955E
:102720008091F40189238093F40108951092F401BB
:10273000089508950E94991308959091EA01292F10
:10274000282331F0809589238093EA010E949A130F
:10275000089508950E94A91308959091EB01292FDF
:102760002823281729F0982B9093EB010E94AA1395
:1027700008959091EB01292F282331F0809589232A
:102780008093EB010E94AA1308958091EB018823A6
:1027900029F01092EB0180E00E94AA130895CF93D4
:1027A000DF93E0912901F0912A018091F501808366
:1027B000E0912901F0912A0180819091F401892B07
:1027C00080839091EB01992381F0E0912901F091B0
:1027D0002A018081892B80838091290190912A018F
:1027E0000E94532881110E94C513C0912901D091E4
:1027F0002A0148E050E061EE71E0CE010E94EA3229
:10280000892B59F088E0FE01A1EEB1E001900D9214
:102810008A95E1F7CE010E941328DF91CF910895A8
:1028200008950E941014089590916A0292FF11C0B9
:1028300098E0899F90011124622B6093E9010E9426
:10284000510F8091E9018695869586950E94111415
:1028500008950E94510F08951092E90180E00E94AE
:10286000111408959091E901809589238093E901DD
:10287000282F277069F4891759F090916A0292FF06
:1028800007C08695869586950E945D0F0E942C1440
:10289000089590916A0292FB222720F9281769F087
:1028A00080FB92F990936A028091690290916A028A
:1028B0000E94921482E00E943214089580916A026C
:1028C00082FB882780F991E089270E9449140895A6
:1028D00081E00E944914089580E00E9449140895FF
:1028E0006FEF7FEF90E080E00E94EA35089590E07E
:1028F00080E00E94B635863E9E4F19F40E94881BE8
:10290000089580E0089582E090E00E94AE35089539
:1029100083E090E00E94AE35089584E090E00E944C
:10292000B6350895BC0184E090E00E94EA35089530
:10293000AB01BC018FE090E00E94DE350895AB0151
:10294000BC0183E190E00E94DE35089560E070E014
:10295000CB010E949F14089560E070E0CB010E94BB
:1029600098140E94A6140895A8E0B0E0EAEBF4E100
:102970000C94BA3266EE7EEF90E080E00E94EA3579
:1029800060E082E090E00E94CC3560E083E090E07F
:102990000E94CC3510929F0160E074E184E090E0E9
:1029A0000E94EA3560E086E090E00E94CC356FEF4F
:1029B00087E090E00E94CC3540E050E0BA0188E02A
:1029C00090E00E94DE3560E084E290E00E94CC3529
:1029D00060E087E190E00E94CC3560E08CE090E020
:1029E0000E94CC3560E08DE090E00E94CC351982E9
:1029F0001A821B821C821D821E821F82188648E05A
:102A000050E068E170E0CE0101960E94BC3540E0E4
:102A100050E0BA0180E290E00E94DE3580E00E9442
:102A2000A11B0E94D01B0E94AC142896E2E00C94DB
:102A3000D6320E94B4140895682F8EE090E00E9470
:102A4000CC350895A6E0B0E0E8E2F5E10C94B832A8
:102A50000E9476298C018091F6019091F7018017F0
:102A6000910781F019821A820E947629682F498184
:102A70005A81792F80E090E00E94720B1093F70149
:102A80000093F6012696E4E00C94D4320E94822949
:102A900060930502709306028093070290930802E8
:102AA00060930102709302028093030290930402E8
:102AB00008950E9482296093050270930602809314
:102AC0000702909308026093FD017093FE018093CA
:102AD000FF01909300020895089508950E946C15D7
:102AE00008950E94BB0908958EE298E10E94F318B0
:102AF0000E946D150E946E15089581E008950E9450
:102B00007D1508950E947D15089508950E948515EC
:102B10000E94F40908950E944A180E94460B0895E5
:102B20000E946D290E94E01B0E9476230E947D185E
:102B30000E948B1580E00E94601D0E94AE240E94BE
:102B40007115089580E00E945F240895A6E0B0E02A
:102B5000ECEAF5E10C94B0320E947F15C82E811189
:102B600011C00E942215C12C0E94A2150E9494231C
:102B7000882309F45DC00E9459150E94E71F0E9436
:102B8000C71E5AC00E945D0588EFA82E81E0B82EAE
:102B9000750110E0F70101917F01812F0E946D18EE
:102BA0001F5F153009F441C00817A1F38091090295
:102BB00081FD0E9473180E948215982E10E08824CF
:102BC0008394812F0E946D18082FF50181915F0178
:102BD000081729F1F12CEE24E394D02ED8268D2D60
:102BE0008E21A9F0992099F0F9821A830E94762902
:102BF0009C838B838D8291E0802F8E2109F490E05D
:102C000049815A816B817C818D810E94720BF39482
:102C1000EE0CF8E0FF12E3CFF501319700831F5F60
:102C2000153079F60E9446159FCF0813BFCF99CF74
:102C30000E94E71FC110A3CF0E94961A0E946C2326
:102C40000E94590B2696ECE00C94CC321F93CF9344
:102C5000DF930E943B17EC01C11582E5D80708F00D
:102C60003FC0C11590E5D90708F0BEC0C83ED105E8
:102C7000C0F4C03ED10580F4C53AD10548F4C43053
:102C8000D10550F4C130D10539F0D0E0C0E004C026
:102C9000CD3CD105D0F3D065CE01DF91CF911F910E
:102CA0000895C11580E4D80708F053C0C11590E21B
:102CB000D90708F0B1C0C11581E0D80730F38D2FD6
:102CC0000E94DF17182FCE0199270E943B17C12FB2
:102CD000D0E0DC2FCC27CC27DF71C82BD92BDCCF61
:102CE000C03892E5D907A8F4C03682E5D80708F0C5
:102CF00061C0C03492E5D90708F047C0C03282E510
:102D0000D80778F1CF71D0E0DC2FCC27C16FD06A23
:102D1000C3CFC03C92E5D90780F48C2F8F71C03AA5
:102D2000D24508F45AC00E94DF17C82FD0E0DC2F2C
:102D3000CC27CC27DF71D062AFCFC03E82E5D80769
:102D400008F0A3CFDC2FCC27CC27DF71C06FD06A6F
:102D5000A3CFCE0199270E943B17CC27DF70D06A02
:102D6000BCCF2C2F2695269590E2299F9001112407
:102D70008C2F8370C1E0D0E002C0CC0FDD1F8A959C
:102D8000E2F7C22BD32BDD6887CF2C2F2695269513
:102D9000277080E2289F900111248C2F8370C1E05E
:102DA000D0E002C0CC0FDD1F8A95E2F7DC68C22BB1
:102DB000D32B72CF2C2F26952695277090E2299F32
:102DC000900111248C2F8370C1E0D0E002C0CC0FA1
:102DD000DD1F8A95E2F7DA68EACFC82FD0E0DC2F52
:102DE000CC27C46FD06A58CF8C2F8F710E94DF1709
:102DF00055E0D695C7955A95E1F7CF70D0E0DC2F16
:102E0000CC27282F30E084FF05C044E0220F331F79
:102E10004A95E1F7D069CBCF8D2F8F710E94DF17D4
:102E2000182FCE0199270E943B17C12FD0E0DC2F2D
:102E3000CC27CC27DF71906250CF462F672F75309B
:102E400028F4483080F40E94E42508957D3F39F449
:102E5000411109C041E060E00E94F02508957C3FE7
:102E600011F44423C1F390E080E008950E941D17FF
:102E70000E942616089582389105B9F1B0F4813385
:102E8000910509F47DC048F48932910509F46DC0BB
:102E90008A32910509F479C008958533910509F4C2
:102EA0005FC08933910509F10895833E9105D9F1F9
:102EB00038F4803E910529F1823E910579F108951B
:102EC000863E9105D9F1873E910509F43EC0843EC6
:102ED000910541F520916A0221FF24C08091690289
:102EE00084FD19C087EE90E0089520916902237057
:102EF00009F056C020916A0223FF14C089E290E0D5
:102F000008952091690220FD38C030916A0230FF97
:102F100009C024FF3FC090E080E00895209169023D
:102F200022FDF7CF08952091690222FD36C030912D
:102F30006A0230FD35C024FDEECFF4CF2091690246
:102F400023FFF0CF24FDE7CFCDCF2091690223FDF1
:102F50002AC030916A0231FFEECF84EE90E00895EE
:102F60002091690225FDCACF08952091690225FDAF
:102F70001DC020916A0223FFD5CF89E390E0089518
:102F80002091690226FD15C008952091690226FD51
:102F900013C0089583EE90E0089582EE90E00895C6
:102FA00080EE90E0089586EE90E0089585E390E04D
:102FB00008958AE290E0089581E390E0B3CF909184
:102FC000690292FF10C041E0282F2471243009F0DB
:102FD00040E031E0282F2871283009F030E0431715
:102FE00011F02CE0822793FF10C041E0282F2471BC
:102FF000243109F040E031E0282F2871283109F010
:1030000030E0431711F02CE0822730916A0230FF44
:1030100010C051E0282F2171213009F050E041E02B
:10302000282F2871283009F040E0541711F029E0CA
:10303000822731FF10C041E0282F2171213109F092
:1030400040E031E0282F2871283109F030E04317A3
:1030500011F029E0822794FD877E089580E008958D
:103060000E94701408950E945D058FE39CE901970A
:10307000F1F700C000000E945D0580E00E946D181D
:1030800080FF04C00E9430180E94C32908950E9446
:10309000331808950E947714811102C00E941915F7
:1030A0000E948314809309020E948D1490936A02F7
:1030B000809369020E9447180E9488140E94240F7E
:1030C00080919E010E943C0F089508950E9465180A
:1030D000089508950E9469180895E82FF0E0E059D6
:1030E000FD4F80810895089580EA8A95F1F708954B
:1030F00000C008950E94741808950E943F05ABE631
:10310000B2E01C92E0E7F2E0108211961C92119757
:10311000118212961C921297128213961C92139788
:10312000138214961C92148285E00E949A180E94C1
:10313000661808950895CF92DF92EF92FF920F9351
:103140001F93CF936C017B01042F222349F081E070
:1031500080930C020E94762990930B0280930A02BE
:10316000C0910C02C1110AC0C0E08C2FCF911F91F9
:103170000F91FF90EF90DF90CF90089580910A0219
:1031800090910B020E948E29059770F310E0A80120
:10319000B601C7010E94EA32892B41F0A801B601AD
:1031A000C7010E94F73210920C02DFCFC0E0FBCFC4
:1031B0000E94522C0E9490150E945F2C08950E943C
:1031C000642C0E94A6150E947E2C08950E940D2951
:1031D0000E94382C0E9474150E94D8180E94DF1893
:1031E0000E948615FBCF90938301809382010895FE
:1031F000282F35EB2303C001112497FF04C080580A
:103200009109892F089580589F4FFBCF8091130219
:1032100080FF0DC06091300170E0660F771F60384D
:10322000710580F56115710579F1862F089581FF8B
:1032300007C06091300184E0689FB0011124EFCF96
:1032400082FF04C06091300188E0F6CF2091120225
:103250002223A9F090912F016091300188E0689FAE
:10326000B00111242917D8F6269FA001279F500DE1
:103270001124692F70E0CA010E941732D0CF68E094
:1032800070E0D3CF8FE7089581E008958091130215
:1032900080FF0CC060912C0170E075956795759565
:1032A00067956115710549F1862F089581FF06C064
:1032B00060912C0170E075956795F3CF60912C01BA
:1032C00082FD0BC0909111029923A1F060912B0116
:1032D00080912C01961738F0682F70E060387105E6
:1032E00000F38FE70895899FC001112470E00E94C8
:1032F0001732F4CF61E070E0D7CF81E008958D3CC4
:1033000031F40E94061981958093170208958E3C2E
:1033100019F40E940619F8CF8F3C31F40E94061967
:103320008195809316020895803D19F40E94061934
:10333000F8CF893D29F40E94461980931802089518
:103340008A3D21F40E9446198195F7CF8B3D31F4D7
:103350000E94461981958093190208958C3D19F4B5
:103360000E944619F8CF9FE2980F983070F4815D63
:10337000990B21E030E001C0220F8A95EAF7809195
:103380001502822B8093150208958D3D31F48091B2
:10339000130281608093130208958E3D21F4809181
:1033A00013028260F7CF8F3DB9F7809113028460DA
:1033B000F1CF8D3CD9F49091170297FF1DC0109268
:1033C000170280911602811106C0809117028111A7
:1033D00002C01092120280911802811106C08091E1
:1033E0001902811102C01092110208958E3CD9F485
:1033F0009091170219161CF39FE2980F983008F06D
:103400003FC0815D990B21E030E0A90102C0440F6B
:10341000551F8A95E2F7CA0180959091150289237C
:1034200080931502CECF909116028F3C29F497FF1E
:10343000E3CF10921602C5CF803D19F41916CCF3D4
:10344000DBCF90911802893D29F41916ACF6109241
:103450001802B7CF8A3D19F497FFCECFF8CF8B3D36
:1034600039F49091190297FFC7CF10921902A9CF92
:103470008C3D09F0C1CF909119021916B4F3BCCF5D
:103480008D3D31F4809113028E7F8093130299CF8A
:103490008E3D21F4809113028D7FF7CF8F3D09F08F
:1034A00090CF809113028B7FF0CF0E9476292091DC
:1034B0001602211104C020911702222321F09093BB
:1034C000100280930F0220911802211104C0209154
:1034D0001902222321F090930E0280930D0284E1C1
:1034E00092E00E941E28089586E0E4E1F2E0DF0108
:1034F0001D928A95E9F71092120210921102109211
:1035000013020895FC01828181110EC08381811113
:103510000BC08481811108C091E08581811101C0B7
:1035200090E0892F8170089581E0FCCFA6E0B0E0A3
:10353000ECE9FAE10C94B93286E0E4E1F2E0DE0174
:10354000119601900D928A95E1F710921602109251
:10355000170210921802109219028B81811103C078
:103560008C81882389F080910F02909110020E9433
:103570008E29AC01909112029923D9F180913101E9
:103580008417150608F442C08D81811103C08E8115
:10359000882391F080910D0290910E020E948E2955
:1035A000AC0190911102992309F46AC080912D0118
:1035B0008417150608F472C0BE016F5F7F4F84E167
:1035C00092E00E94A228811105C084E192E00E944D
:1035D000821A81110E94551A86E0FE013196A4E1FB
:1035E000B2E001900D928A95E1F72696E3E00C9403
:1035F000D532209132018AE0289F900111242417AE
:10360000350710F69F5F9093120202C09F3FD1F7DB
:103610001B81112359F00E9406199FEF11160CF41B
:1036200091E0899F802D1124809316021C81112323
:1036300059F00E9406199FEF11160CF491E0899F32
:10364000802D11248093170280911602882309F49B
:103650009BCF10911702112309F496CF0E94F818FE
:10366000882351F080931602812F0E94F818882336
:1036700029F08093170288CF81E0F4CF81E0F9CF61
:1036800020912E018AE0289F9001112424173507EC
:1036900008F092CF9F5F9093110202C09F3FD1F735
:1036A0001D81112359F00E9446199FEF11160CF449
:1036B00091E0899F802D1124809318021E8111238F
:1036C00059F00E9446199FEF11160CF491E0899F62
:1036D000802D11248093190280911802882309F407
:1036E0006BCF10911902112309F466CF0E94F818CC
:1036F000882351F080931802812F0E94F8188823A4
:1037000029F08093190258CF81E0F4CF81E0F9CFFE
:1037100085E290E00E94AE35863289F486E290E040
:103720000E94AE35883059F487E290E00E94AE35B1
:1037300091E0823109F090E0892F8170089580E056
:10374000FCCFCF93C82F6FEF811166E285E290E046
:103750000E94CC356FEFC11168E086E290E00E94D4
:10376000CC356FEFC11162E187E290E00E94CC3569
:10377000CF910895089588E290E00E94AE35682FB9
:1037800070E090E080E008950895CF93C62F0E94E6
:10379000C41B6C2F88E290E00E94CC35CF91089535
:1037A00080E00E94A11B60E070E0CB010E94C51B7D
:1037B0000E9468250E94472681E00E94A11B08956F
:1037C0000E94BA1B0E94BB1B0E94C41B0E94881B44
:1037D000811102C00E94D01B089508959C01FB0135
:1037E0008581882351F0A90157574038510530F49D
:1037F000C9010E94572680E0089581E008952FEFC7
:10380000FC01208308950E94FF1B089580E0089525
:10381000B0E0A0E0EEE0FCE10C94B232EC01F62E58
:103820000E94061C81113EC0E881E150E53120F57F
:10383000F0E0E35EF34E0C946C32321C361C751CC7
:10384000871C8F1C9A1C9D1C9D1C9D1C3C1C3C1C99
:10385000A21CA61CAA1CB71CC41CC71CCA1CD71CB3
:10386000E41CEE1C19828CE08A8318C089818230A6
:10387000F1F028F4813061F08FEF88830FC083303E
:10388000C9F08430C9F71A821B821C821D8206C0CF
:103890000E9482299A838B837C836D836F2DCE0156
:1038A0000E94212BCDB7DEB7EAE00C94CE320E9405
:1038B000BB1BF0CFEA806E0183E0C80ED11C10E084
:1038C00000E0AE2CB12CC501800F911F059730F799
:1038D0008E2D800F0E946D18F60181936F010F5F8E
:1038E0001F4F0C31110579F7D9CF8981823031F022
:1038F000853011F68A810E94ED1BD0CF6A817B81D1
:103900008C819D810E9472320E94C51BC7CF4B8162
:103910006A8189810E94CD249C838D83BFCF2C81B5
:103920003D813227232732274B816A8189810E947A
:10393000EF24B4CF0E946825B1CF6F2DCE010E9435
:10394000031CACCF0E94FA258983A8CF0E94FC25D6
:1039500099838ACF6B8170E089819A81AE014C5F37
:103960005F4F9827892798270E94FF2597CF6B8163
:1039700070E089819A81AE014C5F5F4F982789275B
:1039800098270E9422268ACF0E94472687CF0E942E
:10399000B924DACF6B8170E089819A81AE014C5FE6
:1039A0005F4F9827892798270E949E2577CF6B81A4
:1039B00070E089819A81AE014C5F5F4F982789271B
:1039C00098270E94C0256ACF41E08B81811101C0F8
:1039D00040E06A8189810E940A259ECF2C813D8129
:1039E00032272327322741E08B81811101C040E03B
:1039F0006A8189810E943D2551CFAB0124E630E0E8
:103A0000BC0188E70E94922A21E0892B09F020E07E
:103A1000822F0895B0E0A0E0E0E1FDE10C94B43223
:103A20006C017B0164E670E088E70E94F8298C0154
:103A3000E601EC0CFD1CCE15DF0561F40E94DA2ACC
:103A400081E00115110509F080E0CDB7DEB7E8E0AF
:103A50000C94D03217FDF2CFFE01849164E670E041
:103A60000E94642A8C012196E6CF0F931F939B013D
:103A700004E610E0AC0160E488E70E94B32A21E08C
:103A8000892B09F020E0822F1F910F9108950E9449
:103A9000F22908950895E5E7F2E080E092E0DF0181
:103AA0009C011D9221503040E1F7F0937A04E0939D
:103AB00079048FEF9FEF909346028093450208951B
:103AC000CF930E944A1D0E940E098093410280FDFF
:103AD00011C080E8809340020E94471D6BE070E0B7
:103AE00088E492E00E940A1D811106C0C0E08C2F7C
:103AF000CF91089580E2EECF8091410265E070E0C1
:103B000081FD27C083E492E00E940A1D882371F39F
:103B10006DE070E081E392E00E940A1DC82F8823C7
:103B200029F30E948229605A75418F4F9F4F6093FD
:103B300075047093760480937704909378040E94C0
:103B40004B1D81E080934402809343021092420215
:103B5000CECF8EE392E0D8CF2091400236E0839F13
:103B6000C0011124629F800D911D1124811522E056
:103B7000920714F090E080E08B589D4F90937A0468
:103B80008093790408952091790430917A042F5616
:103B9000324040914002642F70E0C9010E9403321C
:103BA000481B463010F4240F311D211582E03807E0
:103BB00010F030E020E02B583D4F30937A042093F2
:103BC000790408951F93CF93DF93162F8A3039F429
:103BD00081E00E945B1EDF91CF911F9108958D308F
:103BE00011F480E0F6CFC0917904D0917A0496E088
:103BF000FE01AAE1B2E001900D929A95E1F7803EB4
:103C0000B8F086E0FE0111928A95E9F711111CC007
:103C1000C0917904D0917A0446E050E0BE018AE177
:103C200092E00E94EA32892BE9F40E94C31DD3CFAF
:103C3000F6E08F9FB00111246D5A7D4F46E050E0B1
:103C4000CE010E94E132E2CFE0917904F0917A0452
:103C50009F012A5F3F4F2E173F07D1F28081809549
:103C60008193F9CFC557D240CE0125E0969587952F
:103C70002A95E1F721E030E0A90102C0440F551F69
:103C80008A95E2F7CA014091450250914602842B81
:103C9000952B259645E0D695C7954A95E1F702C044
:103CA000220F331FCA95E2F7822B932B9093460283
:103CB00080934502BACFCF93382FE0917904F091E9
:103CC0007A04E557F24020914002622F70E0CF0164
:103CD0000E940332281B822F332369F066E00E9482
:103CE000F731C82FC15010F4CF91089560E080E201
:103CF0000E94E21DF7CF9F01280F311D2115324090
:103D000018F080E0F0E0E0E08E0F9F2F911D8B58BF
:103D10009D4F90937A0480937904E6CFFF920F939E
:103D20001F93CF93DF93EC01F62EFC01019000204E
:103D3000E9F78F0101501109C017D10728F0CDB75D
:103D4000DEB7E5E00C94D3326F2D89910E94E21D1D
:103D5000F3CF0E948E1E81E00E945B1E08951F9388
:103D6000CF93DF93EC01162FFE018491811104C0E3
:103D7000DF91CF911F910895612F0E94E21D21963E
:103D8000F3CF0E94AF1E81E00E945B1E08958091D8
:103D90004402811103C08091430208950E94822948
:103DA000605A75418F4F9F4F6093750470937604EE
:103DB0008093770490937804809143028111EBCF34
:103DC00062E070E08FE292E00E940A1D882319F3FE
:103DD00081E080934302DFCFB0E0A0E0E2EFFEE1BC
:103DE0000C94AE328091450290914602892B09F4E1
:103DF000B3C080914402882309F4AEC0809142028E
:103E00008111AAC00E94C71E20914502309146022E
:103E10002115310509F4A0C090E041E050E0092FE0
:103E200010E03A01092E02C0660C771C0A94E2F7F2
:103E3000B30162237323672B11F49F5FF0CF80914E
:103E4000410280FF8EC0990F990F990F9093350111
:103E500010923801995F9093360183E08093390185
:103E600067E070E083E391E00E94FD1C882309F481
:103E700073C0A80185E0440F551F8A95E1F7809132
:103E8000410280FF80C0E0E2F2E080E2DF011D92AB
:103E90008A95E9F7AEE5B1E00AE511E0882483945C
:103EA0002D91E80169918E01640F752F711D6B587A
:103EB0007D4F30E0205E3D4FF90187E07F01E21A3F
:103EC000F30A982C01C0990CEA94EAF77B01B12C13
:103ED000E70199917E019921A82EAB18DA2DD770B0
:103EE000CD2E0D2E000CDD08C92F01C0CC0FDA95A8
:103EF000EAF7AC2ED194C194D108D7E0CD22DD24CD
:103F00000C2C01C096950A94EAF7DC2ED92A9081F0
:103F10009D299083B39498E0B912DACF81503196FD
:103F20008F3F61F6C1E0A236BC0709F0B9CF60E26D
:103F300070E080E292E00E94351D882369F0E30181
:103F4000C095D0958091450290914602C823D9230F
:103F5000D0934602C0934502CDB7DEB7EEE00C9495
:103F6000CA329295990F90769093350198013695C3
:103F700027953695279520933801915E90933601C9
:103F8000209339016DCF60E270E0CA018B589D4FDC
:103F9000D2CF8091430290914402911103C091E0ED
:103FA00089270895882369F062E070E08DE292E04D
:103FB0000E940A1D811103C080914302089510924E
:103FC000430280914302EBCF0E94100908950F93A2
:103FD0001F9380914402882309F160E080E00E94F1
:103FE000AC1D0E94E41F0E94EC1E809143028823B6
:103FF000A9F00E9482290091750410917604209105
:10400000770430917804601B710B820B930B6F3F28
:104010007F4F8F4F9F4710F40E94C91F1F910F9130
:104020000895CF93DF93EC01FB018581882309F488
:10403000F5C09E0130572332310508F0D5C00E94EB
:104040008D1490936A0280936902FE01E150F0475B
:10405000E232F10508F026C0E05DFF4D0C946C32B1
:104060008C20002194205E206220982066209C20D5
:10407000A8207220F9207620AC207A20B020D82009
:104080007E20B420DF208420BA20C2206A20A02015
:104090006E20A4208820BE20CE20E820F7205820C3
:1040A000902007218091690281608093690293C00A
:1040B00080916A02886080936A028DC08091690253
:1040C0008260F3CF809169028460EFCF80916902B2
:1040D0008860EBCF80916A028160EDCF80916A02A7
:1040E0008260E9CF809169028061DFCF80916902AF
:1040F0008062DBCF809169028064D7CF0E94DA0EA4
:10410000809169028068D1CF809169028860DCCF9C
:1041100080916A028260E0CF809169028E7FC5CF74
:1041200080916A02877FC7CF809169028D7FBDCF62
:10413000809169028B7FB9CF80916902877FB5CF6B
:1041400080916A028E7FB7CF80916A028D7FB3CF54
:10415000809169028F7EA9CF809169028F7DA5CF62
:10416000809169028F7BA1CF0E94DA0E8091690253
:104170008F779BCF80916902877FDCCF80916A0225
:104180008D7FE0CF8091690282FB992790F921E031
:10419000922790FB82F990FB83F987CF80916A0286
:1041A000982F909591708E7F892B90FB81F983CF0A
:1041B00090916902892F8F7B96FF806476CF0E9451
:1041C000DA0E90916902892F97FB87F980586DCF9D
:1041D00081E00E941C158091690290916A020E9400
:1041E00092140E94DA0E80E0DF91CF91089580E072
:1041F000F0CF90916902892F8F7E94FF806155CF17
:1042000090916902892F8E7F90FF81604ECF9091AF
:104210006A02892F877F93FF88604DCF81E0E4CFCA
:10422000B0E0A0E0E6E1F1E20C94B532E82FF0E076
:10423000ED56F84FD490282F26952695269530E0F8
:10424000F901ED5CF74F0491877010E0082E02C071
:10425000159507950A94E2F701701127F901ED5DB4
:10426000F74FE490F12C082E02C0F594E7940A94DD
:10427000E2F791E0E922FF24F901ED5EF74FC491E6
:10428000D0E002C0D595C7958A95E2F7C170DD27C9
:104290000115110519F081EE0E94B50BE114F1042E
:1042A00019F086EE0E94B50B8D2D0E948D0CE11445
:1042B000F10419F086EE0E942D0C0115110519F07C
:1042C00081EE0E942D0CCD2B19F08CE20E948D0CFA
:1042D000CDB7DEB7E7E00C94D132EF92FF920F93A7
:1042E0001F93CF93DF93EC01162F0AE08881882378
:1042F00009F454C0813009F04EC08981813099F4AD
:104300007E0122E0E20EF11C8A810E948D0CE70101
:104310002196812F815050F3EFE9FFE03197F1F7BB
:1043200000C00000F7CF823041F47E0182E0E80E49
:10433000F11C8A810E94B50BEACF833041F47E01E3
:10434000E2E0EE0EF11C8A810E942D0CE0CF843059
:1043500011F02196DDCF2A81229690E080E0AE0117
:104360004F5F5F4F2053330B2A30310548F00197E0
:1043700078F2EFE9FFE03197F1F700C00000F7CFE6
:10438000089FB001099F700D1124C901860F971F66
:104390002981EA01E4CF0E941021BACFCDB7DEB760
:1043A000E6E00C94D232CF939C013457C1E0203424
:1043B000310538F4FB01C581CC2331F00E94F22194
:1043C000C0E08C2FCF9108950E940B22FACF8091EC
:1043D0004F02882331F087E492E00E942C2810924B
:1043E0004F0208958032B0F4E82FE695E695E69501
:1043F000F0E0E95BFD4F877021E030E001C0220F63
:104400008A95EAF78081822B808381E080934F0236
:104410000E94E72108958032C0F4E82FE695E695E2
:10442000E695F0E0E95BFD4F282F277081E090E0F2
:1044300001C0880F2A95EAF78095908189238083AF
:1044400081E080934F020E94E72108958F929F920E
:10445000AF92BF92CF92DF92EF92FF92CF93DF9312
:10446000823008F00AC1482F50E029E0829FF00115
:104470001124E65FFE4F8181A82FA295AF70B0E0B6
:1044800092969C9192978F7061E070E09B0101C0C1
:10449000220F8A95EAF72095292392962C93818101
:1044A000A82FA295AF70B0E091969C9191978F70D4
:1044B0009B0101C0220F8A95EAF7892F822B9196E2
:1044C0008C9385E38A95F1F7000090819F3F01F17D
:1044D000A92FA295AF70B0E091968C9191979F70A3
:1044E0009B0101C0220F9A95EAF7822B91968C933B
:1044F0009081E92FE295EF70F0E022A19F70DB013F
:1045000002C0AA0FBB1F9A95E2F7CD01822B82A3AE
:1045100089E0849FF001859FF00D1124E65FFE4F36
:1045200022812F3F09F1A22FA295AF70B0E09196A2
:104530003C9191972F7081E090E0BC0101C0660F23
:104540002A95EAF7232F262B91962C932281E22F8E
:10455000E295EF70F0E032A12F7001C0880F2A952C
:10456000EAF78095832382A3B5E3BA95F1F70000BB
:1045700089E0849FE001859FD00D1124C65FDE4F46
:104580003981E32FE295EF70F0E041A13F7081E0C7
:1045900090E0BC0102C0660F771F3A95E2F79B01DD
:1045A0002095242321A32981E22FE295EF70F0E0EA
:1045B00032A12F7001C0880F2A95EAF780958323D6
:1045C00082A375E37A95F1F7000089810E946B065A
:1045D0008D809E80B12CA12C092E000CAA0BBB0B48
:1045E0006C017D01C818D908EA08FB08A1E0BEEFFC
:1045F000A70196010E94A5322B813C8150E040E04A
:10460000281939094A095B090E944D32121613060E
:104610001406150684F4AFEFB1E0A70196010E94DD
:1046200097322F81388550E040E0281939094A092E
:104630005B090E944D32DA01C90181302EEF9207E9
:104640002FEFA207B20724F481E09EEFAFEFBFEF98
:10465000811562E09607A105B10524F08FEF91E086
:10466000A0E0B0E0DF91CF91FF90EF90DF90CF908E
:10467000BF90AF909F908F90089590E080E0F2CF30
:10468000823080F4E82FF0E0EE0FFF1FE55BFD4F76
:10469000808191818617970729F07183608381E07B
:1046A00080934F02089580910B018F3F39F080E095
:1046B0000E942622BC0180E00E94402380911401C8
:1046C0008F3F39F081E00E942622BC0181E00E94E8
:1046D00040230E94E72108950E94532308958FE804
:1046E00091E00197F1F700C00000089581E0809308
:1046F000510253985B9A52985A9A0E946F233091B4
:104700005102E3E5F2E090E0391301C0089589B168
:1047100083FB882780F94A9B05C022E0822B819386
:104720009F5FF2CF20E0FACFA8E1B0E0EAE9F3E240
:104730000C94AD3210E000E082E0982E96E0A92EB5
:10474000B12C2DEF822E772473943CEF632E43E03F
:10475000542E80915102181728F0802F6896EFE0B0
:104760000C94C932E12EF12CE9B1E3FBEE27E0F91C
:104770004A9B95C082E08E2BD701AD5ABD4FEC917C
:104780009E2F9370981709F488C0EE0FEE0FE82B58
:10479000EC93EF70F0E0EE59FE4FC7018E5A9D4F3B
:1047A0006C018081F6019081890F808320E0863042
:1047B0009CF1F701E05BFD4F80818F5F80830E9459
:1047C00076291D876E86682F8F87988B598A7A8AFB
:1047D000412F5CEF792F83E091E00E94720B8FE113
:1047E0009EE40197F1F700C000000E9476291B8B20
:1047F0006C8A682F8D8B9E8B5F8A188E412F5CEFA1
:10480000792F83E090E00E94720BEFE1FEE4319794
:10481000F1F700C0000021E0F60180818B3F9CF59C
:10482000F701E05BFD4F8081815080830E947629F3
:1048300019838A82682F8B839C839D827E82412F7D
:104840005DEF792F82E091E00E94720B8FE19EE490
:104850000197F1F700C000000E9476291F83888627
:10486000682F89879A879B861C86412F5DEF792F59
:1048700082E090E00E94720BEFE1FEE43197F1F7E5
:1048800000C0000021E0F6018081082E000C990B89
:10489000B5010E9417328083022B1F5F5ACF80E040
:1048A0006ACF81E0089581E008950E94532408951D
:1048B0008FE891E00197F1F700C000000895CF92D2
:1048C000DF92EF92FF92CF93DF93D82FC0E0C12CFD
:1048D000D12C760140E080915602C81788F044231D
:1048E00041F0C701B6010E94552480915502809382
:1048F0005402DF91CF91FF90EF90DF90CF90089519
:104900002C2F30E083B190E095958795959587950C
:1049100080959095682F6170F901EB5AFD4F608387
:10492000817099270C2E02C0880F991F0A94E2F714
:10493000092E000CAA0BBB0BC82AD92AEA2AFB2A8B
:104940002C5A3D4FF9018081681302C0DD2321F00C
:104950008C2F0E949A0941E0CF5FBDCF81E0809308
:10496000560222982A9A0E94582481E00E945F24CD
:10497000089584E0089520E1629FB001112450E081
:10498000440F551F640F751F9B0140E5849F200D48
:10499000311D1124C901899608950F931F93CF9358
:1049A000DF938430C8F46530B8F44830A8F40E942E
:1049B000BB248C010E94AE35C82FD0E0DC2FCC2761
:1049C000C80101960E94AE359E01282BC901DF91D6
:1049D000CF911F910F91089590E080E0F8CF0F9351
:1049E0001F93CF93DF93843080F4653070F44830A8
:1049F00060F4E9010E94BB248C016D2F0E94CC352C
:104A00006C2FC80101960E94CC35DF91CF911F9188
:104A10000F910895FF920F931F93CF93DF938430EC
:104A200048F5611127C024E0829F800111240759B5
:104A30001E4F82E090E0442311F090E080E0F42EDD
:104A4000800F911F0E94AE35C82FD0E0DC2FCC27FD
:104A500083E090E0FF2011F081E090E0800F911F53
:104A60000E94AE359E01282BC901CDB7DEB7E5E027
:104A70000C94D33290E080E0F8CF0F931F93CF9344
:104A8000DF93843000F561111EC094E0899FE0013E
:104A90001124C759DE4F82E090E0442311F090E0EA
:104AA00080E0632F022F142F8C0F9D1F0E94CC35A6
:104AB00083E090E0112311F081E090E0602F8C0FF3
:104AC0009D1F0E94CC35DF91CF911F910F910895CA
:104AD0001F93CF93DF93C0E0D0E011C0412F6D2F23
:104AE0008C2F0E94000A9C01412F6D2F8C2F0E9459
:104AF000EF241F5F183091F7DF5FD53011F010E021
:104B0000EDCF41E060E08C2F0E941E0A9C0141E045
:104B100060E08C2F0E943D2540E060E08C2F0E94D9
:104B20001E0A9C0140E060E08C2F0E943D25CF5F73
:104B3000C43091F6DF91CF911F910895EF92FF92CB
:104B40000F931F93CF93DF938C01EA017A01E60E56
:104B5000F71EC8018996CE15DF0529F4CDB7DEB75B
:104B6000E6E00C94D232003421E0120738F40E94BF
:104B7000AE35888321960F5F1F4FEBCF1882FACF97
:104B8000B0E0A0E0E6ECF5E20C94B4327C016A01FE
:104B90008C01060F171FEC01CE018996C017D107B3
:104BA00029F4CDB7DEB7E8E00C94D032C03421E070
:104BB000D20740F4FE01EE19FF09EC0DFD1D6081E6
:104BC0000E94CC352196E8CF843038F4653028F443
:104BD000483018F40E94CD24089590E080E00895B4
:104BE000843028F4611103C00E940A25089590E0E2
:104BF00080E0089580E1089587E892E00895EF92BB
:104C0000FF920F931F93CF93DF938C01EA017A01F8
:104C1000E60EF71EC80187589E4FCE15DF0529F412
:104C2000CDB7DEB7E6E00C94D232073822E01207A7
:104C300038F40E94AE35888321960F5F1F4FEACF6C
:104C40001882FACFB0E0A0E0E8E2F6E20C94B432C9
:104C50007C016A018C01060F171FEC01CE018758F9
:104C60009E4FC017D10729F4CDB7DEB7E8E00C940A
:104C7000D032C73822E0D20740F4FE01EE19FF0916
:104C8000EC0DFD1D60810E94CC352196E7CFCF93BE
:104C9000DF93C9E7D1E060E0CE010E94CC352196D8
:104CA000C11584E0D807B9F7DF91CF910895A8E046
:104CB000B0E0EDE5F6E20C94B032F82E8FE08F15FF
:104CC00008F471C08FEF93E00E94AE3581116BC084
:104CD00009E711E0F11035C0FE0131966F0188E05F
:104CE00011928A95E9F77801FFEFEF1AFF0AC801E0
:104CF0000E94AE3589831A82882309F454C081301A
:104D0000D1F4580182E0A80EB11CC7010E94AE3553
:104D10008A83882309F447C09FEF980F9330F0F4FB
:104D2000780193E0E90EF11CC5010E94AE358B833A
:104D30008823C9F11C8265E0C6010E946D218701AC
:104D4000D2CF011594E0190771F1C8010E94AE3568
:104D5000811101C0FA940F5F1F4FBCCF75018430E1
:104D600051F74E01E3E08E0E911C02E010E0750158
:104D7000FFEFEF1AFF0AC5010E94AE35F4018193DF
:104D80004F01882381F08C3741F4E2E0F0E0EC0F32
:104D9000FD1FE00FF11F1082CECF0F5F1F4F570195
:104DA0000730110521F72896ECE00C94CC32CF9314
:104DB000DF9386319C4719F5EB010E9474139D81A6
:104DC000992399F08A7A91E009F490E09093570240
:104DD000811109C089E20E944C130E94CF1380E028
:104DE000DF91CF91089585E3F6CF8091570281112D
:104DF00004C089E20E945413F0CF85E3FBCF81E029
:104E0000EFCF0F931F93CF93DF93C42FD22FFC01CB
:104E100085818823C9F040935A020E947629909395
:104E200059028093580280E28C0F883040F4C7709A
:104E300081E001C0880FCA95EAF70E94960CDF91C5
:104E4000CF911F910F91089510915A02141332C0FF
:104E500080915802909159020E948E29883C9105B8
:104E600048F5C0E2CD0F1D17B9F080E2810F883000
:104E700040F4177081E001C0880F1A95EAF70E948C
:104E80009D0CC83010F581E09D2F977001C0880FF0
:104E90009A95EAF70E94960C802F0E948D0CC830DC
:104EA00070F6D77081E001C0880FDA95EAF70E94AA
:104EB0009D0CC5CF80E28C0F883008F6C77081E06A
:104EC00001C0880FCA95EAF7F2CF802F0E948D0C9F
:104ED000B6CF0F93FC01E851FC47E730F10508F02D
:104EE0003AC0CB01EA58F84D0C946C328D279327C9
:104EF0007D27872799279F27A52706E221EE41EEE8
:104F00006AE17CE70E94012780E00F91089507E2A3
:104F100025EE45EE6BE17CE7F5CF06E221EE40EEB3
:104F200068E17CE7EFCF07E225EE44EE69E17CE73C
:104F3000E9CF06E221EE42EE6CE17CE7E3CF07E247
:104F400025EE46EE6DE17CE7DDCF08E221E045EE9F
:104F50006EE17CE7D7CFFB018581882319F01092A1
:104F60005A02D3CF81E0D1CF1F93CF93DF938737FE
:104F70002CE7920729F088379C4769F1C1E015C0FA
:104F8000FB01C581CC23B1F00E94F5270E94510F8F
:104F90000E94FB27D82F0E94F827C82F0E94F527D0
:104FA0004D2F6C2F0E948710C0E08C2FDF91CF9186
:104FB0001F9108950E94F5270E945D0F0E94FB2714
:104FC000182F0E94F827D82F0E94F527412F6D2F08
:104FD0000E948710EACFFB01C581CC2319F00E9403
:104FE000F827D4CF0E94F827E7CF80913C0108959D
:104FF00080913B01089580913A01089590935C025D
:1050000080935B020895E0915B02F0915C0230971F
:1050100029F00190F081E02D0995089580E0089530
:105020000E9403280895E0915B02F0915C023097A2
:1050300021F00280F381E02D09950895E0915B0253
:10504000F0915C02309739F022E0DC012C9304806F
:10505000F581E02D09950895A9E0B0E0E2E3F8E2DA
:105060000C94BA3220915B0230915C02232BB9F090
:10507000FC0187E08983848195819B838A83868173
:1050800097819D838C8380818E8381818F838281B0
:10509000888783818987CE0101960E94312C2996C9
:1050A000E2E00C94D632FC01329697E080E0915019
:1050B00009F4089521912223D1F38F5FF8CF66235D
:1050C00049F0FC01329608962191261729F0E8173D
:1050D000F907D1F780E0089581E008959C01FC0173
:1050E00032969FEF80E04191461751F09F3F19F4AF
:1050F000411101C0982F8F5F8630A9F79F3F09F4B7
:105100000895290F311D97FD3A95F901628308959D
:10511000FC01329608962191261303C0DF011197F6
:105120001C92E817F907B9F708950E946E280895B0
:105130000E9488280895029626E0FC0111922A9583
:10514000E9F70895DC01FB0111969C91119781818B
:10515000981322C012968C911297882319F092818D
:1051600089131AC013968C911397882319F0938191
:10517000891312C015968C911597882319F0958183
:1051800089130AC014969C91992321F081E024810F
:10519000291303C080E001C081E081700895089563
:1051A0000E94CF280895811106C081E080935D029E
:1051B0000E94D028089582E0F9CF83E080935D02B9
:1051C0000E94D02808950E94D328089581E08093FA
:1051D0005D020E94D02808950E94E628089508954F
:1051E00008950E94F0280895089508950E94EF28D8
:1051F0000895CF930E94F4280E945D050E94F5282F
:10520000C0E08C2F0E946D18811105C0CF5FC530A2
:10521000C1F7CF91089581E0FCCF85B7806885BF45
:1052200085B7806885BF08951F920F920FB60F92C1
:1052300011248F939F93AF93BF9380915E0281114E
:1052400013C080917B0490917C04A0917D04B09167
:105250007E044196A11DB11D80937B0490937C0434
:10526000A0937D04B0937E04BF91AF919F918F91E5
:105270000F900FBE0F901F9018958091830484307B
:1052800031F10E94140B10925E0288E190E020E45C
:105290000FB6F894A895809360000FBE209360002D
:1052A00083B7817F846083BF83B7816083BF789435
:1052B000889583B78E7F83BF0FB6F894A8958091A9
:1052C0006000886180936000109260000FBE0895B6
:1052D0000E94DA0E0E941B0B089582E084BD93E0C9
:1052E00095BD9AEF97BD80936E0008952FB7F894FF
:1052F00080917B0490917C04A0917D04B0917E0408
:105300002FBF08952FB7F89460917B0470917C04AF
:1053100080917D0490917E042FBF08959C014FB72A
:10532000F89480917B0490917C04A0917D04B091CD
:105330007E044FBF821B930B089578941F920F92A7
:105340000FB60F9211248F939F93AF93BF938091C9
:105350007B0490917C04A0917D04B0917E04019621
:10536000A11DB11D80937B0490937C04A0937D04C8
:10537000B0937E04BF91AF919F918F910F900FBE1C
:105380000F901F90189581E08093E00080E2809359
:10539000D8001092C9008FE19EE40197F1F700C098
:1053A000000087E090EBDC0180938C0490938D04E7
:1053B000A0938E04B0938F0488E19CE00FB6F8941C
:1053C000A895809360000FBE90936000FFCF88E1A6
:1053D0009CE00FB6F894A895809360000FBE909360
:1053E0006000FFCF1092B9008CE08093B800089560
:1053F000B0E0A0E0EEEFF9E20C94B132B82EEB0190
:105400000E9476296C01EE24E394F12CC431D1057D
:1054100060F025E0E22EF12CCF3FDC0731F0CE0129
:1054200064E170E00E9403327B0184EAA82E94E8D4
:10543000992E1092BC00A092BC000E9476298C018B
:105440008091BC0087FF0DC08091B900887F8830B3
:10545000F9F08091B900887F8031D1F00FEF1FEF14
:1054600008C0C8010E948E29E816F90648F70EEF19
:105470001FEFCF3FDC07E9F2C6010E948E29C81753
:10548000D907B8F6C801CDB7DEB7EBE00C94CD3242
:10549000B092BB009092BC000E9476298C01809152
:1054A000BC0087FF0AC08091B900887F883111F065
:1054B0008034A1F610E000E0E5CFC8010E948E29FB
:1054C000E816F90660F7D3CF0F931F93CF93DF93BE
:1054D000EB018093BB0084E88093BC000E94762996
:1054E0008C018091BC0087FF11C02091B900287FFA
:1054F00081E090E0283211F490E080E09195819570
:105500009109DF91CF911F910F910895CF3FDC0753
:1055100041F3C8010E948E29C817D90710F78EEFF2
:105520009FEFEFCFB0E0A0E0E8E9FAE20C94B432EC
:105530006B018A017901B9010E94F829E6010C0D7D
:105540001D1DC017D10711F097FF08C024E9209353
:10555000BC00CDB7DEB7E8E00C94D032B70189913A
:105560000E94642AEECFB0E0A0E0E9EBFAE20C94EE
:10557000B432C62F6A017901B8010E94F82997FD5B
:105580000CC0B8018C2F0E94642AE601EC0CFD1CB3
:10559000CE15DF0511F097FF08C024E92093BC0069
:1055A000CDB7DEB7E8E00C94D032B80189910E9403
:1055B000642AEECF84E98093BC000895809167024D
:1055C000089508959B01909183049430F1F48F70B5
:1055D0008093E9008FEF9091E800815095FD06C01F
:1055E00095ED9A95F1F700008111F5CF8091E800D3
:1055F00085FF0BC0BA01C90150E040E00E94202D98
:105600008091E8008E778093E800089546E050E0AE
:10561000BC0184E00E94E22A0895CF93DF93EC015D
:1056200048E050E0BC0181E00E94E22A88E0FE01EF
:10563000AFE5B2E001900D928A95E1F7DF91CF914D
:105640000895603231F4BC0140E250E082E00E94F3
:10565000E22A089580918204811109C00E94FF2EE0
:105660000E945C2F8091E20084608093E2000895A4
:105670001092820408950E94E628089560917F04A4
:1056800081E0611101C080E00E94DD2808959091C1
:10569000830481E0943009F080E060917F040E94EF
:1056A000E328089542E061EC81E00E947D2E42E211
:1056B00061EC84E00E947D2E42E261EC82E00E9477
:1056C0007D2E42E260EC83E00E947D2E9091830467
:1056D00081E0943009F080E060917F040E94D3283B
:1056E000089580918504833009F467C038F48130CF
:1056F00009F43FC0823009F4A3C008958A3009F448
:105700008FC08B3009F474C0893009F055C0809186
:105710008404813209F050C08091880490918904FA
:10572000009719F0029709F047C08091E800877F41
:105730008093E8008091E80082FF3AC08091F300F6
:105740009091F200892798278927029731F4809158
:10575000F100813011F0863021F48091F1008093C6
:1057600067028091E8008B778093E8000E94B12E59
:1057700023C080918404813AF9F48091E800877F06
:105780008093E8008091880490918904892B61F4CA
:1057900068E08FE592E070E00E94BE2D8091E80005
:1057A0008B778093E800089560E090E080E0F3CF8D
:1057B000809183048111BECF089580918404813A41
:1057C000D9F78091880490918904892BA9F7809159
:1057D000E800877F8093E8008091E80080FFFCCF9D
:1057E000809145018093F1008091E8008E77BCCFD5
:1057F00080918404813201F780918804909189041A
:10580000892BD1F68091E800877F8093E8000E9481
:10581000B12E80918604809345010E94DA0E08958E
:1058200080918404813241F68091E800877F8093E3
:10583000E8000E94B12E8091870480936802089549
:1058400080918404813A09F0B7CF8091E800877F86
:105850008093E8008091E80080FFFCCF809168028F
:10586000C1CF49E050E0BC0184E00E94E22A0895E3
:1058700084B7877F84BF0FB6F894A89580916000A5
:10588000886180936000109260000FBE80E890E015
:105890000FB6F89480936100909361000FBE0E9450
:1058A000EC2808950E94FF2E0E945C2FE2EEF0E0AB
:1058B00080818460808378940E94DB3108958DE339
:1058C00091E00E94FE27089580918304853031F491
:1058D00080918304853019F00E94682908950E9400
:1058E0003D2980918104882399F30E94F928882317
:1058F00079F30E940A2D0E94DA0EEACFA0E2B0E00E
:10590000E4E8FCE20C94BA3280918304843009F517
:1059100083E08093E9008091E80082FF1AC08091C3
:10592000E80090E085FF09C050E040E060E270E0F0
:10593000CE0101960E946F2D91E08091E8008B7757
:105940008093E800992329F060E2CE0101960E943D
:10595000081CA096E2E00C94D6329A0140918A0489
:1059600050918B040E94B52C0895492F5527433040
:10597000510579F158F441305105F1F042305105AB
:1059800019F190E080E050E040E01AC0413251054A
:1059900099F142325105A9F76330710590F7FB0187
:1059A000EE0FFF1FEB58FE4F408151816E587E4F26
:1059B000FB01808190E004C082E190E044EC58E07B
:1059C000F9015183408308958BE590E049E658E062
:1059D000F7CF99278130910561F028F0029789F679
:1059E000E3E4F8E002C0E5E6F8E0849190E0AF017E
:1059F000E7CFE1E5F8E0F9CF6330710508F0C1CFFA
:105A0000660F771FFB01E558FE4F4081518189E009
:105A100090E0D6CF80E189BD82E189BD09B400FE66
:105A2000FDCF8091D8008F7D8093D8008091E000D9
:105A300082608093E0008091E00081FDFCCF0895BA
:105A4000AF92BF92CF92DF92FF920F931F93CF93AB
:105A5000DF936C01EB018A010E94D02EF82E811198
:105A600023C00115110539F0F80180819181C81B0F
:105A7000D90BC80ED91EB12CA12C2097A9F080916A
:105A8000E80085FD22C08091E8008E778093E800D1
:105A900001151105A1F0F80180819181A80EB91EB0
:105AA000B182A08285E0F82E8F2DDF91CF911F91DA
:105AB0000F91FF90DF90CF90BF90AF9008950E941C
:105AC000D02E8823D1F2F82EEFCFF60181916F010D
:105AD0008093F1002197FFEFAF1ABF0ACECFAF92AC
