:100000000C94DA040C9412050C9412050C9412054D
:100010000C9412050C9412050C9412050C94120504
:100020000C9412050C9412050C94C6100C94E71451
:100030000C9498210C9412050C9412050C94120542
:100040000C9412050C9412050C9412050C941205D4
:100050000C9412050C949E110C9412050C9412052C
:100060000C9412050C9412050C9412050C941205B4
:100070000C9412050C9412050C9412050C941205A4
:100080000C9412050C9412050C9412050C94120594
:100090000C9412050C9412050C9412050C94120584
:1000A0000C9412050C9412050C941205050109021A
:1000B000A10185020901A1000509190129081500FE
:1000C0002501950875018102050109300931158165
:1000D000257F95027508810609381581257F9501D0
:1000E00075088106050C0A38021581257F95017572
:1000F000088106C0C005010904A1018507A100050A
:1001000001093009311601FE26FF019502751081A3
:100110000205091901292015002501952075018185
:1001200002C0C00660FF0961A1010962150026FF37
:10013000009520750881020963150026FF009520AF
:1001400075089102C005010906A101050719E029FA
:10015000E715002501950875018102950175088153
:10016000010507190029FF150026FF0095067508EF
:10017000810005081901290515002501950575015E
:100180009102950175039101C0000000000000007C
:10019000000000000000000000000000000000005F
:1001A000000000000000000000000000007E0F00C2
:1001B000D4FFFFFFC700000078000000000000002F
:1001C000002A2B28000000000000000000000000B2
:1001D0000000000029000000002C1E3420212224F1
:1001E000342627252E362D3738271E1F202122237F
:1001F0002425263333362E37381F04050607080911
:100200000A0B0C0D0E0F10111213141516171819D6
:100210001A1B1C1D2F3130232D3504050607080934
:100220000A0B0C0D0E0F10111213141516171819B6
:100230001A1B1C1D2F3130354C00DA0281FFD9F119
:10024000DB20A4A62EAF00A0C0D30000A1C8D3001D
:1002500000AED580A81F408D14200000AF00AE5521
:100260006E6465660033726400326E6400317374CC
:1002700000307468004C415945520000414E4C47D3
:10028000004D4F55530044494749004A4F5900001B
:1002900004000500060007001400150016001700F2
:1002A000080009000A000B001800190000000000F7
:1002B0000C000D000E000F00000000000000000008
:1002C00010001100120013000000000000000000E8
:1002D0001A001B001C0000000000000000000000CD
:1002E00004000500060007001400150016001700A2
:1002F000080009000A000B001800190000000000A7
:100300000C000D000E000F000000000000000000B7
:100310001000110012001300000000000000000097
:100320001A001B001C00000000000000000000007C
:100330000400050006000700140015001600170051
:10034000080009000A000B00180019000000000056
:100350000C000D000E000F00000000000000000067
:100360001000110012001300000000000000000047
:100370001A001B001C00000000000000000000002C
:100380000400050006000700140015001600170001
:10039000080009000A000B00180019000000000006
:1003A0000C000D000E000F00000000000000000017
:1003B00010001100120013000000000000000000F7
:1003C0001A001B001C0000000000000000000000DC
:1003D0001F001E0021002000230022002500240011
:1003E00009025B00030100A0FA09040000010301F7
:1003F00001000921110100012244000705810308C1
:10040000000109040100020300000009211101009C
:1004100001222200070582032000010705030320B3
:10042000000109040200010300000009211101007C
:100430000122770007058403200001120100020059
:10044000000008383934320100010200010C036752
:10045000006200630032003400000012036B00757C
:10046000007300680069006D00610038000000043E
:1004700003090407087F0807003E5B4F5B3E003E10
:100480006B4F6B3E001C3E7C3E1C00183C7E3C18B3
:10049000001C577D571C001C5E7F5E1C0000183C32
:1004A000180000FFE7C3E7FF00001824180000FF52
:1004B000E7DBE7FF0030483A060E002629792926B7
:1004C00000407F05050700407F05253F005A3CE7B7
:1004D0003C5A007F3E1C1C0800081C1C3E7F001478
:1004E000227F2214005F5F005F5F0006097F017FAB
:1004F00000006689956A0060606060600094A2FFF9
:10050000A2940008047E04080010207E2010000839
:10051000082A1C0800081C2A0808001E10101010C9
:10052000000C1E0C1E0C0030383E383000060E3E0B
:100530000E060000000000000000005F0000000048
:100540000700070000147F147F1400242A7F2A125A
:100550000023130864620036495620500000080743
:10056000030000001C224100000041221C00002A60
:100570001C7F1C2A0008083E08080000807030001C
:10058000000808080808000000606000002010084B
:100590000402003E5149453E0000427F4000007287
:1005A00049494946002141494D33001814127F1032
:1005B000002745454539003C4A4949310041211150
:1005C000090700364949493600464949291E0000B5
:1005D0000014000000004034000000000814224114
:1005E00000141414141400004122140800020159CC
:1005F0000906003E415D594E007C1211127C007FBD
:1006000049494936003E41414122007F4141413E36
:10061000007F49494941007F09090901003E4141E4
:100620005173007F0808087F0000417F41000020CF
:1006300040413F01007F08142241007F404040407C
:10064000007F021C027F007F0408107F003E4141B2
:10065000413E007F09090906003E4151215E007FAD
:10066000091929460026494949320003017F01033F
:10067000003F4040403F001F2040201F003F4038C7
:10068000403F00631408146300030478040300610E
:1006900059494D4300007F414141000204081020A8
:1006A00000004141417F000402010204004040403B
:1006B0004040000003070800002054547840007FA9
:1006C0002844443800384444442800384444287FAF
:1006D0000038545454180000087E09020018A4A4DD
:1006E0009C78007F080404780000447D40000020CE
:1006F00040403D00007F102844000000417F400042
:10070000007C04780478007C0804047800384444B1
:10071000443800FC182424180018242418FC007CF9
:10072000080404080048545454240004043F44249A
:10073000003C4040207C001C2040201C003C4030FD
:10074000403C004428102844004C9090907C004489
:1007500064544C440000083641000000007700005B
:10076000000041360800000201020402003C26237A
:10077000263C00000000000000404040F0F8F8FF78
:1007800038FFF8F83FF8F8FF38FFF8F8F04040403D
:1007900000000000000080C0C0C0800000C0C08019
:1007A00000000080C0C000C0C0000080C0C00000C9
:1007B000000000C0C0C0C0C000C0C00000000000F9
:1007C0000000000000000000000000000000000029
:1007D0000000000000000000000000000000000019
:1007E0000000000000000000000000000000000009
:1007F0000000C0F0F8FC3E1E06010000007F4141F1
:10080000417F007F4141417F000080C0E07E5B4F1F
:100810005BFEC00000C000DCD7DEDEDED7DC00C03F
:1008200000000000000000000000000000000000C8
:10083000000000000000000000494949FFFFFFFFE1
:10084000E0DFBFBF00BFBFDFE0FFFFFFFF49494957
:1008500000000000001F3F6060E0BF1F007F7F07B7
:100860001E381E077F7F007F7F0E1F3B71600000D8
:100870000000007F7F0C0C0C007E7E007F7E030357
:10088000007F7E03037E7E03037F7E000F3E703C6D
:10089000063C703E0F00327B49493F7E007F7E035D
:1008A00003001E3F69696F26000000000000000081
:1008B0000000030F1F3F3C7870600000007F414143
:1008C000417F007F4141417F00307B7F7830202095
:1008D00030787F3B0003000F7F0F0F0F7F0F000367
:1008E0000000000000000000000000000000000008
:1008F000000000000000000000010101070F0F7F51
:100900000F7F0F0F7E0F0F7F0F7F0F0F070101016A
:1009100000000000000000000000010100000000D5
:1009200000000000000000000000000000000000C7
:1009300000000000000000000000000000000000B7
:1009400000000000000000000000000000000000A7
:100950000000000000000000000000000000000097
:100960000000000000000000000000000000000087
:100970000000000000000000000000000000000077
:100980000000000000000000000000000000000067
:100990000000000000000000000000000000000057
:1009A0000000000000000000000000000000000047
:1009B0000000000011241FBECFEFDAE0DEBFCDBF84
:1009C00004B603FE18C08091760490917704A0913C
:1009D0007804B09179048730904BA740B04B59F41C
:1009E0001092760410927704109278041092790491
:1009F000E0E0F8E3099511E0A0E0B1E0E4E4FFE510
:100A000002C005900D92AE37B107D9F724E0AEE7EA
:100A1000B1E001C01D92A637B207E1F70E94C121E3
:100A20000C94A02F0C940000482F209172049091F8
:100A3000390457E0291302C080E0089530E0529F46
:100A4000F001539FF00D1124E65CFB4F8181681388
:100A500006C08081481303C085818111EECF2F5FCE
:100A60003F4F2770E7CFE8EDF0E080818E7F8083F5
:100A70001092E2001092DA001092E100A0EEB0E0D5
:100A80008C9181608C9380818F77808319BCA7EDD6
:100A9000B0E08C918E7F8C9380818F7E80831092CA
:100AA000170208952091E4003091E50085E69091C9
:100AB000EC0090FF06C09091E80090FF06C080E037
:100AC00008959091E80092FDFACF90912402992325
:100AD00091F0953091F09091EB0095FD10C0409110
:100AE000E4005091E5002417350709F381509A017D
:100AF000F1F684E0089582E0089583E0089581E0AE
:100B000008958091260287FF13C08091E80082FF3C
:100B100006C08091E8008B778093E80004C0809144
:100B200024028111F2CF0895809124028823D9F301
:100B30008091E80080FFF8CF8091E8008E77ECCFBD
:100B4000982F9093E900242F762F50E0891731F0E9
:100B50007091EC002091ED005091F00021FD07C054
:100B60009F5F973071F78093E90081E0089530919D
:100B7000EB003E7F3093EB003091ED003D7F3093F2
:100B8000ED003091EB0031603093EB007093EC009E
:100B90002093ED005093F0002091EE0027FDE0CF70
:100BA00080E00895B0E0A0E0E8EDF5E00C94B82B0B
:100BB000C8EDD0E088818F7E8883E7EDF0E080810A
:100BC0008160808384E082BF81E080931702888106
:100BD0008E7F888302EE10E0F80110821092DA0016
:100BE00081EEC82ED12CF601108288818F77888300
:100BF00088818068888388818F7D888319BC109262
:100C0000240210922502109223021092220290EEEA
:100C1000E92EF12CF70180818B7F808388818160B0
:100C2000888342E060E080E00E94A005F6018081B8
:100C30008E7F8083F80180818160808380818860DD
:100C40008083F70180818E7F8083888180618883A3
:100C5000CDB7DEB7E8E00C94D42BFC0180912C02D8
:100C600090912D0286179707A0F06115710529F460
:100C70009091E8009E779093E80090E061157105EF
:100C800051F4911108C08091E80082FF35C080E0E6
:100C90000895BC01F2CF809124028823C9F18530E8
:100CA000C9F18091E80083FD31C08091E80082FDA8
:100CB000EACF8091E80080FFE1CF2091F30080919E
:100CC000F200322F282F6115710519F028303105F7
:100CD00058F091E02830310509F090E02091E800CB
:100CE0002E772093E800CACF81918093F100615064
:100CF00071092F5F3F4FE7CF80912402882341F095
:100D0000853041F08091E80083FFBDCF81E00895F8
:100D100082E0089583E0089508958091190208956E
:100D20002FB7F8946091130270911402809115020C
:100D3000909116022FBF0895E0911002F0911102D8
:100D4000309739F022E0DC012C930480F581E02D0E
:100D500009950895E0911002F0911102309729F061
:100D60000190F081E02D0995089580E00895E82F25
:100D7000F0E0EE0FFF1FE85FFD4F80819181861745
:100D8000970729F07183608381E080930C020895B6
:100D90008091CF0180FD16C081FD16C082FD16C076
:100DA0008091CE018823A1F0883280F428E0829FD0
:100DB000C001112468E270E00E94522C862F672B3C
:100DC00039F0089582E0089584E0089588E0089558
:100DD00081E008958091CF0180FD14C081FD14C091
:100DE00082FD16C08091CD01882381F08E3180F480
:100DF00020E5829FC00111246EE170E00E94522C18
:100E0000862F089584E1089588E2089588E0089582
:100E100080E50895282F35EB2303C001112497FFA7
:100E200004C080589109892F089580589F4FFBCFA7
:100E300080E008959091BA0192FF10C041E0282F00
:100E40002471243009F040E031E0282F2871283047
:100E500009F030E0431711F02CE0822793FF10C017
:100E600041E0282F2471243109F040E031E0282F9F
:100E70002871283109F030E0431711F02CE0822767
:100E80003091BB0130FF10C051E0282F217121307B
:100E900009F050E041E0282F2871283009F040E0A7
:100EA000541711F029E0822731FF10C041E0282FAC
:100EB0002171213109F040E031E0282F28712831DB
:100EC00009F030E0431711F029E0822794FD877E76
:100ED000089582389105B9F1B0F48133910509F490
:100EE0007DC048F48932910509F46DC08A329105BC
:100EF00009F479C008958533910509F45FC08933F9
:100F0000910509F10895833E9105D9F138F4803EA9
:100F1000910529F1823E910579F10895863E91056A
:100F2000D9F1873E910509F43EC0843E910541F513
:100F30002091BB0121FF24C08091BA0184FD19C01A
:100F400087EE90E008952091BA01237009F056C011
:100F50002091BB0123FF14C089E290E00895209105
:100F6000BA0120FD38C03091BB0130FF09C024FF19
:100F70003FC090E080E008952091BA0122FDF7CFB4
:100F800008952091BA0122FD36C03091BB0130FD99
:100F900035C024FDEECFF4CF2091BA0123FFF0CF6E
:100FA00024FDE7CFCDCF2091BA0123FD2AC0309197
:100FB000BB0131FFEECF84EE90E008952091BA019D
:100FC00025FDCACF08952091BA0125FD1DC02091AD
:100FD000BB0123FFD5CF89E390E008952091BA01AA
:100FE00026FD15C008952091BA0126FD13C008956D
:100FF00083EE90E0089582EE90E0089580EE90E018
:10100000089586EE90E0089585E390E008958AE2E1
:1010100090E0089581E390E0B3CF1F93CF93DF93E7
:101020000E946907EC01C11582E5D80708F03FC0AE
:10103000C11590E5D90708F0BEC0C83ED105C0F47F
:10104000C03ED10580F4C53AD10548F4C430D1057D
:1010500050F4C130D10539F0D0E0C0E004C0CD3C3F
:10106000D105D0F3D065CE01DF91CF911F910895C6
:10107000C11580E4D80708F053C0C11590E2D90724
:1010800008F0B1C0C11581E0D80730F38D2F0E9460
:101090001A07182FCE0199270E946907C12FD0E0A7
:1010A000DC2FCC27CC27DF71C82BD92BDCCFC03865
:1010B00092E5D907A8F4C03682E5D80708F061C0E8
:1010C000C03492E5D90708F047C0C03282E5D8079E
:1010D00078F1CF71D0E0DC2FCC27C16FD06AC3CFBD
:1010E000C03C92E5D90780F48C2F8F71C03AD2456D
:1010F00008F45AC00E941A07C82FD0E0DC2FCC2772
:10110000CC27DF71D062AFCFC03E82E5D80708F0B0
:10111000A3CFDC2FCC27CC27DF71C06FD06AA3CF41
:10112000CE0199270E946907CC27DF70D06ABCCF17
:101130002C2F2695269590E2299F900111248C2F23
:101140008370C1E0D0E002C0CC0FDD1F8A95E2F7CA
:10115000C22BD32BDD6887CF2C2F269526952770A1
:1011600080E2289F900111248C2F8370C1E0D0E091
:1011700002C0CC0FDD1F8A95E2F7DC68C22BD32BAF
:1011800072CF2C2F26952695277090E2299F9001EB
:1011900011248C2F8370C1E0D0E002C0CC0FDD1F82
:1011A0008A95E2F7DA68EACFC82FD0E0DC2FCC27A7
:1011B000C46FD06A58CF8C2F8F710E941A0755E0E8
:1011C000D695C7955A95E1F7CF70D0E0DC2FCC27A4
:1011D000282F30E084FF05C044E0220F331F4A95DA
:1011E000E1F7D069CBCF8D2F8F710E941A07182F8E
:1011F000CE0199270E946907C12FD0E0DC2FCC27B0
:10120000CC27DF71906250CF982F90958091B101DB
:1012100089238093B1010895E0E8F1E09281891378
:1012200001C01282319691E0E638F907B9F70895C6
:10123000A2E8B1E0EFEF90E02D91821751F0EF3F7F
:1012400019F4211101C0E92F9F5F9630A9F7EF3FF4
:1012500009F408950E2E000CFF0BE058FE4F828318
:1012600008958091720490913904981301C00895F3
:101270008F5F8770FACFA82FA77023E09695879588
:101280002A95E1F7FC01EE0FFF1FE80FF91FE60FAB
:10129000F71F50E040E080E0219130E00A2E02C0CC
:1012A000369527950A94E2F721703327042E01C062
:1012B000220F0A94EAF7822B4F5F5F4F43305105AC
:1012C00059F70895953070F4883060F448E0949FA1
:1012D0009001112460E971E0820F932F911D0E940B
:1012E0003B0908959C5F923020F46DE871E090E036
:1012F000F6CF80E00895262F277091E001C0990F66
:101300002A95EAF723E0769567952A95E1F7FB01A0
:10131000EE0FFF1FE60FF71FE40FF51F50E040E050
:10132000682F70E08191DF0111979B01042E02C0AC
:10133000369527950A94E2F72170219528272923CD
:1013400028272C934F5F5F4F4330510559F708957D
:10135000282F862F953068F4283058F438E0939F72
:10136000B0011124620F711D40E951E00E947B0918
:1013700008959C5F9230E0F7622F70E04DE851E0F5
:10138000F5CF8093DA0108959091DA0121E030E001
:10139000F90101C0EE0F8A95EAF7D90102C0AA0F40
:1013A000BB1F6A95E2F7EA2B01C0220F4A95EAF7C4
:1013B000892F8E23E81305C0292B822F0E94C10993
:1013C000089520952923F9CF21E030E001C0220FB4
:1013D0008A95EAF720958091DA0182230E94C1095B
:1013E00008959091A601809589238093A601282FC6
:1013F000277069F4891759F09091BB0192FF07C0DB
:101400008695869586950E94E4091092A601089516
:1014100021E030E001C0220F8A95EAF78091DA01DD
:10142000822B0E94C10908958093B9010895982FD5
:1014300092959F7020E011F0892F24E0982F9695C7
:10144000969511F02E5F892F982F969509F02F5FB2
:10145000822F08958091200190912101892B31F4F0
:101460008091220190912301892B91F070E060E03E
:1014700080E00E94B70670E060E081E00E94B7065D
:10148000109221011092200110922301109222014A
:101490000895873909F44AC090F4863309F44CC0A2
:1014A00040F4843309F444C0853309F443C08FE128
:1014B0000EC08439C9F18639D1F781E208C0843F72
:1014C00069F128F5803FD1F1813F89F781E096E805
:1014D00090937A00982F9072906890937B008F7110
:1014E000806480937C0080917A00806480937A008D
:1014F00080917A0086FDFCCF809178002091790060
:1015000090917A009F7790937A00922F0895863F6A
:1015100049F030F0873F59F687E0D9CF84E0D7CF44
:1015200085E0D5CF86E0D3CF80E2D1CF82E2CFCFA6
:1015300083E2CDCF84E2CBCF85E2C9CF80E0C7CFB5
:10154000E82FE295EF70F0E031A1282F2F7081E0B5
:1015500090E001C0880F2A95EAF7932F982B91A36A
:1015600092A18095892382A30895E82FE295EF70D8
:10157000F0E031A1282F2F7081E090E001C0880FAA
:101580002A95EAF7982F9095932391A392A1892BFE
:1015900082A30895CF93DF93682F81E06A3019F01A
:1015A0006D3031F480E00E94590BDF91CF910895A6
:1015B000809137049091380426E0FC01A1E3B4E067
:1015C00001900D922A95E1F7603E08F459C026E09B
:1015D000FC0111922A95E9F7C0913704D0913804A3
:1015E00046E050E0BE0181E394E00E94E52C892BA7
:1015F00059F1CE01815392409C0145E036952795E3
:101600004A95E1F741E050E0BA0102C0660F771F4A
:101610002A95E2F79B0160912F0270913002262BF0
:10162000372B059665E0969587956A95E1F7FA015F
:1016300002C0EE0FFF1F8A95E2F7CF01822B932B9A
:101640009093300280932F029E012B5232404091A2
:101650002E02642F70E0C9010E949A2B481B46306D
:1016600010F4240F311D2115F2E03F0710F030E097
:1016700020E02F5C3D4F309338042093370495CF02
:10168000F6E06F9FB00111246D587B4F46E050E0AB
:101690000E94E52BA1CFCF93DF93EC01FE01849153
:1016A000811103C0DF91CF9108950E94CA0A21964B
:1016B000F5CFCF93382FE0913704F0913804E15300
:1016C000F24020912E02622F70E0CF010E949A2BEF
:1016D000281B822F332361F066E00E94462CC82F1E
:1016E000C15010F4CF91089580E20E94CA0AF8CF49
:1016F0009F01280F311D2115324018F080E0F0E0E5
:10170000E0E08E0F9F2F911D8F5C9D4F90933804CA
:1017100080933704E7CF0E944B0B81E00E94590B66
:1017200008958091B1019091B001892B809380013F
:101730009091AF01992361F0892B80938001E2E8B9
:10174000F1E097E080E0915019F581111092AF011E
:1017500048E050E067EA71E080E891E00E94E52C03
:10176000892BA9F088E0E0E8F1E0A7EAB1E0019078
:101770000D928A95E1F7E0911002F09111023097F5
:1017800031F00280F381E02D80E891E00995089521
:1017900021912223C1F28F5FD6CF882321F00E94AE
:1017A00004090E94910B0895882339F09091B101AA
:1017B000892B8093B1010E94910B08950F931F9381
:1017C000CF93DF93EC01FC0101900020E9F78F013A
:1017D00001501109C017D10740F081E00E94590B58
:1017E000DF91CF911F910F91089589910E94CA0AAC
:1017F000F1CF0F931F93CF93DF938B01EA01909169
:101800002402943061F58093E9008FEF9091E80015
:10181000815095FD06C095ED9A95F1F70000811174
:10182000F5CF8091E80085FF1AC00E945205811112
:1018300011C08091E80085FD06C08091E8008E7798
:101840008093E800F2CFF80181918F018093F1003D
:10185000219779F78091E8008E778093E800DF91F7
:10186000CF911F910F91089546E050E0BC0184E0B4
:101870000E94F90B0895CF93DF93EC0148E050E00C
:10188000BC0181E00E94F90B88E0FE01AAE1B2E010
:1018900001900D928A95E1F7DF91CF910895A9E02B
:1018A000B0E0E5E5FCE00C94BE2B80910C028823AF
:1018B00051F18091100290911102892B11F187E072
:1018C000898380910802909109029B838A83809189
:1018D0000A0290910B029D838C83809104028E8377
:1018E000809105028F83809106028887809107028C
:1018F000898749E050E0BE016F5F7F4F84E00E941E
:10190000F90B10920C022996E2E00C94DA2B81E09C
:101910008093E00080E28093D8001092C9008FE1AC
:101920009EE40197F1F700C0000087E090EBDC0136
:101930008093760490937704A0937804B09379040D
:1019400088E19CE00FB6F894A895809360000FBEE4
:1019500090936000FFCFCF93DF93C9E7D1E060E0C1
:10196000CE010E94122C2196C11584E0D807B9F748
:10197000DF91CF9108950F931F93CF93DF9384301E
:1019800000F561111EC094E0899FE0011124C75940
:10199000DE4F82E090E0442311F090E080E0632F7E
:1019A000022F142F8C0F9D1F0E94122C83E090E0B9
:1019B000112311F081E090E0602F8C0F9D1F0E9499
:1019C000122CDF91CF911F910F9108951F93CF9308
:1019D000DF93C62F8430E8F46530D8F44830C8F47B
:1019E000632F122F90E1C99FE001112450E0440FB2
:1019F000551FC40FD51F90E5899FC00DD11D11241F
:101A0000CE0189960E94122C612FCE018A960E94E7
:101A1000122CDF91CF911F910895B0E0A0E0E3E197
:101A2000FDE00C94B62B00ED13E0D12CC12CB12CB1
:101A30007601A12C19C0FE01EE0DFF1DEE0FFF1F58
:101A4000E057FD4F259134914C2F6A2D8B2D0E942C
:101A5000E60C2196C830D10571F788E0E80EF11C3C
:101A6000A39485E0A81619F0D0E0C0E0E4CFF80117
:101A70002591349141E060E08B2D0E94BB0CF80170
:101A800032962591349140E060E08B2D0E94BB0C92
:101A90000C5F1F4FB39488E2C80ED11C84E0B812CB
:101AA000C7CFCDB7DEB7EAE00C94D22BCF93C82FC7
:101AB0006FEF811166E285E290E00E94122C6FEFD9
:101AC000C11168E086E290E00E94122C6FEFC11114
:101AD00067E187E290E00E94122CCF91089580E0A8
:101AE0000E94560D60E088E290E00E94122C0E9455
:101AF0000D0D0E94AB0C81E00E94560D0895FF92DF
:101B00000F931F93CF93DF93843048F5611127C063
:101B100024E0829F8001112407591E4F82E090E04B
:101B2000442311F090E080E0F42E800F911F0E947A
:101B3000EE2BC82FD0E0DC2FCC2783E090E0FF20F5
:101B400011F081E090E0800F911F0E94EE2B9E012A
:101B5000282BC901CDB7DEB7E5E00C94D72B90E078
:101B600080E0F8CF0F931F93CF93DF93843030F54D
:101B7000653020F5483010F520E1629FE001112426
:101B800050E0440F551FC40FD51F30E5839FC00D93
:101B9000D11D1124CE0189960E94EE2B082F10E052
:101BA000102F0027CE018A960E94EE2B9801282B39
:101BB000C901DF91CF911F910F91089590E080E0CE
:101BC000F8CF462F672F753038F4483060F48430F2
:101BD00050F40E94B20D08957D3F41F4411103C0BD
:101BE00041E0843048F090E080E008957C3FD9F7F0
:101BF0004111F9CF8430B8F760E00E947F0D08955D
:101C0000CF92DF92FF920F931F93CF93DF936C01DC
:101C10000091DA018091B901082BC3E0D0E010E017
:101C2000FC2EC8010C2E02C0959587950A94E2F708
:101C300080FD0CC02197A0F7F12C8F2DDF91CF9163
:101C40001F910F91FF90DF90CF900895B6018C2FD8
:101C50000E94E10D0E940D08019761F3EECFCF9332
:101C6000DF93EC010E94000EBE010E94E10D0E9474
:101C70000D08DF91CF910895FC0124812223B9F052
:101C8000808191810E942F0E92959F70963089F0ED
:101C900050F49250923058F4803F19F030F4883E5E
:101CA00030F481E008959A50F5CF843FD1F380E07D
:101CB0000895883EB0F3813FD1F7F3CFA6E0B0E0BE
:101CC000E4E6FEE00C94BD2B49835A8349815A8196
:101CD0009923A1F0222391F0CA010E94000E182F2F
:101CE000682F89819A810E94A80969817A81812F50
:101CF0000E94E10D2696E3E00C94D92BCA010E94C4
:101D00006209182FF2CF85E290E00E94EE2B863216
:101D100089F486E290E00E94EE2B883059F487E245
:101D200090E00E94EE2B91E0873109F090E0892F3E
:101D30008170089580E0FCCFB0E0A0E0E2EAFEE030
:101D40000C94B82B6C017B0164E670E088E70E947C
:101D5000B42A8C01E601EC0CFD1C17FD0BC0FE0142
:101D6000849164E670E00E94202B8C012196CE15B0
:101D7000DF0599F70E94962B81E00115110509F006
:101D800080E0CDB7DEB7E8E00C94D42B809102025E
:101D900090910302911103C091E08927089588234F
:101DA00069F062E070E08DE592E00E949C0E811186
:101DB00003C08091020208951092020280910202F3
:101DC000EBCFCF93C0910202809103028823D1F020
:101DD0000E949006605A75418F4F9F4F6093FE019D
:101DE0007093FF018093000290930102C11108C01B
:101DF00062E070E08BE592E00E949C0E811105C0CC
:101E0000C09102028C2FCF91089581E0809302024D
:101E1000F7CFA6E0B0E0EFE0FFE00C94B12B8091AB
:101E20000302882309F472C181E392E0909338049D
:101E3000809337048BE792E00E948B0B85E792E05A
:101E40000E948B0B8091DA010E94170A813009F4FD
:101E50009DC058F0823009F49CC0833009F49CC0C6
:101E60008FE592E00E944B0B04C081E792E00E9454
:101E70008B0B8FE892E00E948B0B8BE892E00E9424
:101E80008B0B80911101813009F48EC008F487C05A
:101E9000823009F48CC0809116011F928F938CE2DE
:101EA00091E09F938F931F9286E08F938E010F5F37
:101EB0001F4F1F930F930E94F22CC8010E94DE0B4C
:101EC0000FB6F894DEBF0FBECDBF80911101EAE1DD
:101ED000F1E0813031F0EBE1F1E0823011F0E9E145
:101EE000F1E080811F928F9381E391E09F938F9324
:101EF0001F9256E0F52EFF921F930F930E94F22C33
:101F0000C8010E94DE0B8091DB011F928F9386E354
:101F100091E09F938F931F92FF921F930F930E94C4
:101F2000F22CC8010E94DE0B0FB6F894DEBF0FBE84
:101F3000CDBF80912F0290913002892B09F4CDC042
:101F400080910302882309F4C8C08091FD018111AA
:101F5000C4C00E94E10E20912F0230913002211561
:101F6000310509F4BAC080E041E050E0082F10E0EC
:101F70007A01082E02C0EE0CFF1C0A94E2F7B701AA
:101F800062237323672BB1F48F5FF0CF8DE692E06D
:101F90006ECF89E692E06BCF85E692E068CF86E867
:101FA00092E00E948B0B77CF81E892E0FACF8CE72A
:101FB00092E0F7CF9091FC0190FFACC0880F880FA2
:101FC000880F8093260110922901895F8093270151
:101FD00083E080932A0124E630E047E050E064E2A9
:101FE00071E088E70E944E2B892B09F076C0A8018A
:101FF00095E0440F551F9A95E1F78091FC0180FF11
:102000009BC0ECEDF1E080E2DF011D928A95E9F7DB
:102010000BE611E087E6C82E81E0D82E6624639493
:10202000F80181918F01D6016D916D01640F752FBB
:10203000711D6F5C7D4F90E084529E4FFC0137E034
:10204000DF01A81BB90B762C01C0770CAA95EAF723
:102050005B01912CD5012D915D012721A32FA91999
:10206000A7708A2E0A2E000CBB0B522E01C0550CF5
:102070008A94EAF7B195A195B109A770BB2701C071
:102080002695AA95EAF72529A0818A2E822A8082A0
:10209000939428E09212DECF315031963F3F81F683
:1020A00081E00F36180709F0BBCF04E610E020E20C
:1020B00030E04CED51E060E488E70E946F2B892B03
:1020C00061F4E094F09480912F0290913002E82224
:1020D000F922F0923002E0922F02809102028823CE
:1020E000A9F00E9490060091FE011091FF0120913D
:1020F000000230910102601B710B820B930B6F3F4A
:102100007F4F8F4F9F4710F40E94C60E2696EFE038
:102110000C94CD2B8295880F8076809326019801B0
:10212000369527953695279520932901815E8093D2
:10213000270120932A014FCF4F5C5D4F04E610E04A
:1021400020E230E0B8CF9091BB0192FB222720F92A
:10215000281779F080FB92F99093BB016091BA0146
:102160007091BB0184E090E00E94302C82E00E94DC
:10217000F109089590E080E00E94FC2B863E9E4F7E
:1021800019F40E94830E089580E008951F920F9223
:102190000FB60F9211242F933F934F935F936F933A
:1021A0007F938F939F93AF93BF93EF93FF93809110
:1021B000E10082FF09C08091E20082FF05C08091AA
:1021C000E1008B7F8093E1008091DA0080FF24C0E2
:1021D0008091D80080FF20C08091DA008E7F8093AC
:1021E000DA008091D90080FF9BC080E189BD82E147
:1021F00089BD09B400FEFDCF81E080932402809167
:102200001702811109C00E9433050E94D2058091F6
:10221000E20084608093E2008091E10080FF17C0BB
:102220008091E20080FF13C08091E2008E7F809356
:10223000E2008091E20080618093E2008091D8000A
:1022400080628093D80019BC85E08093240280913D
:10225000E10084FF29C08091E20084FF25C080E175
:1022600089BD82E189BD09B400FEFDCF8091D8000F
:102270008F7D8093D8008091E1008F7E8093E10074
:102280008091E2008F7E8093E2008091E200816085
:102290008093E20080912502882309F447C084E0FE
:1022A00080932402809124028091E10083FF27C063
:1022B0008091E20083FF23C08091E100877F8093BB
:1022C000E10082E080932402109225028091E100D7
:1022D0008E7F8093E1008091E2008E7F8093E20008
:1022E0008091E20080618093E20042E060E080E063
:1022F0000E94A0058091F00088608093F000FF911B
:10230000EF91BF91AF919F918F917F916F915F916D
:102310004F913F912F910F900FBE0F901F901895E6
:1023200019BC109224021092170276CF8091E3001C
:1023300087FD02C081E0B4CF83E0B2CF78941F92D2
:102340000F920FB60F9211248F939F93AF93BF9369
:102350008091130290911402A0911502B09116027F
:102360000196A11DB11D8093130290931402A093B6
:102370001502B0931602BF91AF919F918F910F906C
:102380000FBE0F901F9018959C014FB7F894809145
:10239000130290911402A0911502B09116024FBF42
:1023A000821B930B08952FB7F8948091130290919C
:1023B0001402A0911502B09116022FBF08950E9439
:1023C000D3112091D601211104C02091D7012223DD
:1023D00021F09093D3018093D2012091D801211153
:1023E00004C02091D901222321F09093D101809340
:1023F000D00184ED91E00E949C060895CF93109245
:10240000B101C6E0E2E8F1E0DF018C2F1D928A9570
:10241000E9F71092B0010E94910BE4EDF1E0DF01C9
:102420001D92CA95E9F71092CD011092CE0110923B
:10243000CF010E94DF11CF910895AAE2B0E0E3E25C
:10244000F2E10C94BD2BE6E2F2E08091F100819381
:1024500082E0EE32F807C9F780912702833009F451
:102460007FC008F5813009F456C0823009F4C0C03D
:102470008091E80083FFFAC08091260290912702A4
:102480009A3008F0F3C0E92FF0E0E75BFD4E0C94C2
:10249000A72C09132F1336132F1336138713A913E1
:1024A0003613A814B5148A3009F491C08B3009F49E
:1024B00074C08930E9F6809126028132C9F6809194
:1024C0002A0290912B02009711F0029789F68091D1
:1024D000E800877F8093E8008091E80082FF3BC09E
:1024E0008091F3009091F20089279827892702971D
:1024F00031F48091F100813011F0863021F4809127
:10250000F100809319028091E8008B778093E800B6
:102510000E948105ADCF80912602813A09F0A8CFB3
:102520008091E800877F8093E80080912A02909153
:102530002B02892B61F060E090E080E070E00E9467
:102540002D068091E8008B778093E80091CF68E0BA
:102550008AE192E0F3CF809124028111BDCF88CF30
:1025600080912602813A09F083CF80912A029091CE
:102570002B02892B09F07CCF8091E800877F809324
:10258000E8008091E80080FFFCCF80912B018093D0
:10259000F1008091E8008E77B9CF809126028132D8
:1025A00009F066CF80912A0290912B02892B09F0C5
:1025B0005FCF8091E800877F8093E8000E948105CB
:1025C0008091280280932B010E94FE1151CF8091AF
:1025D0002602813209F04CCF8091E800877F8093FA
:1025E000E8000E948105809129028093180240CF63
:1025F00080912602813A09F03BCF8091E800877FE5
:102600008093E8008091E80080FFFCCF8091180261
:10261000BECF803889F0823849F580912A028F70C8
:10262000873020F58093E9008091EB0085FB8827B7
:1026300080F91092E90006C0809122029091230255
:10264000911182609091E800977F9093E8008093C9
:10265000F1001092F1008091E8008E7727C0282FBA
:102660002D7F21F48823A1F0823029F18091E800A8
:1026700083FF0AC08091E800877F8093E800809103
:10268000EB0080628093EB00AA96E3E00C94D92BD8
:1026900080912802813051F7933009F080E08093D7
:1026A00023021092E9008091E800877F8093E80080
:1026B0000E948105DBCF809128028111F2CF8091A9
:1026C0002A028F702FEF280F263080F68093E900C2
:1026D0002091EB0020FFE5CF933031F48091EB00A7
:1026E00080628093EB00DDCF9091EB00906190933E
:1026F000EB0021E030E001C0220F8A95EAF7209339
:10270000EA001092EA008091EB008860EACF811124
:10271000ADCF109128021F778091E3008078812B44
:102720008093E3008091E800877F8093E8000E9417
:1027300081058091E80080FFFCCF8091E3008068F4
:102740008093E30083E0111101C082E080932402B2
:102750008DCF8058823008F089CF209128023091A7
:1027600029022C3DA3E03A07A1F583E08A838AE29F
:1027700089834FB7F894DE01139620E03EE051E2E2
:10278000E32FF0E050935700E49120FF03C0E2955F
:10279000EF703F5FEF708E2F90E0EA30C0F0C79689
:1027A0008D939D932F5F243159F74FBF8091E8009F
:1027B000877F8093E8006AE270E0CE0101960E9474
:1027C0002D068091E8008B778093E8004FCFC0966C
:1027D000E7CF80912A0290912B02432F5527433057
:1027E000510509F44FC078F54130510509F445C051
:1027F0008BE590E0E0EEF3E04230510509F036CF92
:102800002091E800277F2093E80020912C0230914E
:102810002D028217930708F49C0140E02115310531
:1028200009F063C0411161C08091E80082FDC9CF09
:1028300080912402882329F2853019F28091E800E2
:1028400083FFF2CFBECF4132510509F43FC042327F
:10285000510509F00BCF8330910508F007CFFC013B
:10286000EE0FFF1FEE58FE4F0190F081E02D8159D1
:102870009E4FDC018C9190E01DC082E190E0EBE383
:10288000F4E0BECF332721303105C1F060F02230B3
:10289000310509F0EBCEEDE4F4E0E4918E2F90E009
:1028A000EDE4F4E007C0EFE6F4E0E4918E2F90E071
:1028B000EFE6F4E0009709F4D9CEA2CFEBE5F4E01F
:1028C000E4918E2F90E0EBE5F4E0F4CF83309105B6
:1028D00008F0CCCE880F991FFC01E858FE4F0190FC
:1028E000F081E02D89E090E08BCF80912402882355
:1028F00009F467CF853009F464CF8091E80083FD47
:1029000060CF8091E80082FD8FCF8091E80080FF4A
:1029100085CF8091F3009091F2008927982789272D
:102920002115310519F08830910550F041E00897E4
:1029300009F040E08091E8008E778093E8006ECF48
:1029400044914093F1003196215031090196E8CF2E
:10295000803809F08BCE8091E800877F8093E80073
:10296000809125028093F10076CE81117FCE109167
:102970002802123008F07ACE8091E800877F809399
:10298000E800109325020E9481051123D1F084E014
:102990008093240242E061EC81E00E94A00542E2C3
:1029A00061EC84E00E94A00542E261EC82E00E94BA
:1029B000A00542E260EC83E00E94A0058091240221
:1029C00055CE8091E30087FDE2CF81E0E1CF1F92F9
:1029D0000F920FB60F9211242F933F934F935F9353
:1029E0006F937F938F939F93AF93BF93CF93EF9307
:1029F000FF93C091E900CF708091EC001092E90044
:102A00008091F000877F8093F00078940E941D12DF
:102A10001092E9008091F00088608093F000C093EC
:102A2000E900FF91EF91CF91BF91AF919F918F916D
:102A30007F916F915F914F913F912F910F900FBEBA
:102A40000F901F9018950E94FE112FEF84E39CE0D9
:102A5000215080409040E1F700C0000088E19CE0F8
:102A60000FB6F894A895809360000FBE9093600015
:102A7000FFCF662309F45DC08D3C41F40E94EA0655
:102A800081958093D7010E94DF1108958E3C19F43F
:102A90000E94EA06F6CF8F3C31F40E94EA06819547
:102AA0008093D601F0CF803D19F40E94EA06F8CF5A
:102AB000893D29F40E94C8068093D801E4CF8A3D5D
:102AC00021F40E94C8068195F7CF8B3D31F40E9416
:102AD000C80681958093D901D6CF8C3D19F40E9408
:102AE000C806F8CF9FE2980F983070F4815D990B7B
:102AF00021E030E001C0220F8A95EAF78091D501EC
:102B0000822B8093D501BFCF8D3D31F48091CF01D1
:102B100081608093CF01B7CF8E3D21F48091CF01AA
:102B20008260F7CF8F3D09F0AECF8091CF018460F6
:102B3000F0CF8D3CD9F49091D70197FF1DC0109232
:102B4000D7018091D601811106C08091D7018111F2
:102B500002C01092CD018091D801811194CF809153
:102B6000D901811190CF1092CE018DCF8E3CD9F436
:102B70009091D70119161CF39FE2980F983008F036
:102B80003FC0815D990B21E030E0A90102C0440FF4
:102B9000551F8A95E2F7CA0180959091D501892346
:102BA0008093D501CECF9091D6018F3C29F497FF29
:102BB000E3CF1092D601C5CF803D19F41916CCF39E
:102BC000DBCF9091D801893D29F41916ACF610920B
:102BD000D801B7CF8A3D19F497FFCECFF8CF8B3D00
:102BE00039F49091D90197FFC7CF1092D901A9CF9D
:102BF0008C3D09F0C1CF9091D9011916B4F3BCCF27
:102C00008D3D31F48091CF018E7F8093CF0199CF9C
:102C10008E3D21F48091CF018D7FF7CF8F3D09F05C
:102C200090CF8091CF018B7FF0CF882309F444C0EF
:102C3000823879F40E94AA0681FF3EC089E30E948F
:102C400018090E94910B89E30E940C090E94910BC4
:102C50000895833859F40E94AA0680FF2DC083E5A9
:102C60000E9418090E94910B83E5EECF843859F435
:102C70000E94AA0682FF20C087E40E9418090E94D1
:102C8000910B87E4E1CF9CEF980F913AE8F290E244
:102C9000980F983050F4877091E001C0990F8A9591
:102CA000EAF7892F0E940409D1CF93E3980F93315B
:102CB00018F460E00E9439150895CF938823D1F06D
:102CC000C82F8238C9F40E94AA0681FD13C089E387
:102CD0000E9418090E94910B2FEF87EE93E021507C
:102CE00080409040E1F700C0000089E30E940C0999
:102CF0000E94910BCF9108958338A1F40E94AA06F7
:102D000080FDF8CF83E50E9418090E94910B2FEFF8
:102D100081EE94E0215080409040E1F700C0000037
:102D200083E5E4CF8438A1F40E94AA0682FDE2CFB5
:102D300087E40E9418090E94910B2FEF81EE94E026
:102D4000215080409040E1F700C0000087E4CECFE2
:102D50008CEF8C0F813A70F4E2E8F1E088E891E0C2
:102D60002191C21711F18E179F07D1F78C2F0E9466
:102D70001809BECF80E28C0F883068F4C77021E05C
:102D800030E001C0220FCA95EAF78091B101822B91
:102D90008093B101ADCF83E38C0F833108F0AACFCC
:102DA00061E08C2F0E943915A5CF8C2F0E940C0951
:102DB0000E94910BDBCF1F93CF93DF93182FC5E0B9
:102DC000D0E0893311F4C0E5D0E0812F0E945D1678
:102DD0008FE99FE00197F1F700C000002197C1F74C
:102DE000812F0E941516DF91CF911F9108950F93A7
:102DF0001F93CF93DF93C62FD42F122FFC01858111
:102E00008823A9F0609375040E94D31190937404F1
:102E100080937304C77081E001C0880FCA95EAF7F8
:102E20000E94D40BDF91CF911F910F910895809153
:102E30007504681332C080917304909174040E94E9
:102E4000C411883C910548F500E20D0FCD17B9F08B
:102E500080E28C0F883040F4C77081E001C0880F99
:102E6000CA95EAF70E94CD0B0830F0F481E09D2F5F
:102E7000977001C0880F9A95EAF70E94D40B812FB2
:102E80000E94DB16083070F6D77081E001C0880F11
:102E9000DA95EAF70E94CD0BC5CFC77081E001C07B
:102EA000880FCA95EAF7F6CF812F0E94DB16BACFBA
:102EB000CF93DF93C1E1D1E081E08B870E94D311F2
:102EC0009D878C87DF91CF9108959091110191306A
:102ED00039F1EBE1F1E0923019F096E0E9E1F1E04F
:102EE0002081482F880F550B240F352F311D921745
:102EF000130609F02CF4922F2B3531050CF09AE5CE
:102F000090830E949D2081E09EEF90932101809309
:102F1000200190932301809322010E945817089565
:102F200094E0EAE1F1E0DCCFA8E0B0E0EAE9F7E123
:102F30000C94AE2BFC018481882309F4B1C08F016D
:102F400021E0408151816281738195810E945E0EF2
:102F50007C01F8018581882309F4FFC59701375763
:102F60002038310508F053C1FFE0FE1508F489C090
:102F70008FEF93E00E94EE2B811183C059E7A52EBD
:102F8000BB24B394E1104AC02E0143E0440E511C0F
:102F900086E0F20111928A95E9F74AE0342E750134
:102FA000FFEFEF1AFF0AC5010E94EE2B89831A82F8
:102FB000882309F466C0813009F076C0650122E0FB
:102FC000C20ED11CC7010E94EE2B8A83882309F40C
:102FD00058C09FEF980F933078F533E0A30EB11CE3
:102FE000C6010E94EE2B8B83882309F44AC01C8201
:102FF000AE014F5F5F4F7A01F7012081222379F202
:10300000213009F0AFC091818281913009F04EC02A
:10301000F2E0EF0EF11C0E94DB164FC0A11424E079
:10302000B20679F1C5010E94EE2B811101C0EA942C
:103030003FEFA31AB30AA6CF56018430C9F6420166
:1030400032E0E32EF12C56014FEFA41AB40AC60168
:103050000E94EE2BF40181934F01882391F08C376D
:1030600041F4E2E0F0E0EC0FFD1FEE0DFF1D1082D9
:10307000BFCFFFEFEF1AFF0A650127E0E216F10468
:1030800011F78091A601877059F0F8018581882396
:1030900039F08091BB0182FF03C082E00E94F109F8
:1030A0002896E2E10C94CA2B5701A2CF923039F551
:1030B00022E0E20EF11C0E945D163FEFE31AF30AD4
:1030C0008FE99FE00197F1F700C00000EFE9FFE012
:1030D0003197F1F700C000008FE99FE00197F1F709
:1030E00000C00000EFE9FFE03197F1F700C00000F9
:1030F0008FE99FE00197F1F700C000007DCF93308A
:1031000031F432E0E30EF11C0E941516D6CF943054
:1031100021F04FEFE41AF40AD0CF52E0E50EF11C93
:1031200030E020E0B7016F5F7F4FF70141818053AE
:10313000990B8A30910558F02150310908F4BDCF20
:103140008FE99FE00197F1F700C00000F5CF329EB4
:10315000F001339EF00D11249C012E0F3F1F842F90
:103160007B01E0CFE22FF0E0E754FE4F2490822F66
:1031700086958695869590E0FC01E755FE4F649014
:103180002770712C022E02C0759467940A94E2F79E
:10319000E1E06E227724FC01E756FE4F8490912CEB
:1031A000022E02C0959487940A94E2F7F1E08F22F0
:1031B0009924FC01E757FE4FC490D12C02C0D5944E
:1031C000C7942A95E2F721E0C222DD24611471043C
:1031D00019F081EE0E945D168114910419F086EEBB
:1031E0000E945D16822D0E94DB168114910419F055
:1031F00086EE0E9415166114710419F081EE0E948A
:103200001516C114D10409F458CF8CE204CFF7018C
:10321000E051FE47E830F10508F067C0EE5EF64E7B
:103220000C94A72C1A19261931193C1949195D1942
:103230006219671980911101882321F00E94A7204B
:103240001092110181E08093DB011BCF809111016D
:10325000813029F00E94A72081E08093110182E053
:10326000F2CF80911101823029F00E94A72082E0E4
:103270008093110183E0E7CF809116018E3238F4FC
:103280008B5F809316010E94581784E0DCCF82E3A5
:10329000F8CF80911601E82FE550FF0B1E161F0690
:1032A0002CF48550F3971CF082E301C081E08093F9
:1032B00016010E94581785E0C6CF82E00E9465176C
:1032C00086E0C1CF8EEF0E94651787E0BCCF86E312
:1032D0008093190188E180931A018CE080931B018F
:1032E00080E00E94651788E0AECFF701E851FC4707
:1032F000E730F10548F5E158F64E0C94A72C9119EA
:10330000951986198D1999199D19A11926E241EE71
:1033100061EEC8010E94F716B4CE27E245EE65EED5
:10332000F8CF26E241EE60EEF4CF27E245EE64EE00
:10333000F0CF26E241EE62EEECCF27E245EE66EEFC
:10334000E8CF28E241E0EBCF1092750497013057A7
:103350002332310508F039C384E090E00E94FC2B51
:103360009093BB018093BA01F701E150F047E2323C
:10337000F10508F026C0E154F64E0C94A72C1B1A58
:10338000901A231AED19F119271AF5192B1A371A61
:10339000011A891A051A3B1A091A3F1A671A0D1AD7
:1033A000431A6E1A131A491A511AF9192F1AFD19CC
:1033B000331A171A4D1A5D1A771A871AE7191F1A46
:1033C000971A8091BA0181608093BA0195C080916B
:1033D000BB0188608093BB018FC08091BA0182607D
:1033E000F3CF8091BA018460EFCF8091BA018860F9
:1033F000EBCF8091BB018160EDCF8091BB018260FA
:10340000E9CF8091BA018061DFCF8091BA018062FB
:10341000DBCF8091BA018064D7CF0E94FE118091EA
:10342000BA018068D1CF8091BA018860DCCF8091E9
:10343000BB018260E0CF8091BA018E7FC5CF8091C1
:10344000BB01877FC7CF8091BA018D7FBDCF8091AF
:10345000BA018B7FB9CF8091BA01877FB5CF8091B8
:10346000BB018E7FB7CF8091BB018D7FB3CF8091A1
:10347000BA018F7EA9CF8091BA018F7DA5CF8091AF
:10348000BA018F7BA1CF0E94FE118091BA018F7784
:103490009BCF8091BA01877FDCCF8091BB018D7F6C
:1034A000E0CF8091BA0182FB992790F921E0922721
:1034B00090FB82F990FB83F987CF8091BB01982F15
:1034C000909591708E7F892B90FB81F983CF90919D
:1034D000BA01892F8F7B96FF806476CF0E94FE1100
:1034E0009091BA01892F97FB87F980586DCF61E0E1
:1034F0008EE090E00E94122C6091BA017091BB01A5
:1035000084E090E00E94302C0E94FE11BACD60E071
:10351000EFCF9091BA01892F8F7E94FF806154CFB5
:103520009091BA01892F8E7F90FF81604DCF90914D
:10353000BB01892F877F93FF88604CCF89E20E946F
:1035400018090E94910B9DCD89E20E940C09F9CFC8
:10355000882349F081E00E94080A43E062E081E0AC
:103560000E94C4098ECD81E00E94E409F6CF882331
:1035700011F082E0F0CF82E0F7CF9BE5E9169CE7FF
:10358000F90661F1ECE5EE16ECE7FE06E9F0FAE586
:10359000EF16FCE7FF0609F06CC281E01CC00E9438
:1035A000FE112FEF34E34CE0215030404040E1F772
:1035B00000C000000E94870C6FEF7FEF90E080E07A
:1035C0000E94302C0E9423158091BB0182FB88272A
:1035D00080F991E089270E94A3104BC280E0FBCFC5
:1035E000C7010E946209D82E53C2FF2DFF70DF2E43
:1035F0008F2D807F19F0D29490EFD9228E2DBB2091
:10360000B9F0DD2069F090E29E0D983010F0E110E5
:1036100009C08091B101D82AD092B1010E94910BCA
:103620008E2D46C08091B001D82AD092B001F6CF3D
:103630000E941516DD2009F443C080E28E0D88300B
:1036400010F0911004C08D2D0E94040906C0D09482
:103650008091B001D822D092B0010E94910B30C06D
:103660002F2D2F70D22E8F2D807F803219F0D29483
:1036700080EFD8228E2D992059F031E0931609F46D
:1036800070C0BB2009F47CC0AA2009F43FC0C8CF99
:103690008091BB0182FD36C0BB2069F0DD2039F08E
:1036A0008091B101D82AD092B1010E94910B80E0A3
:1036B0000E945D1605C080E00E941516D110C3CF90
:1036C000CC20A9F08091A60180FD11C0F8011582DF
:1036D0008695869586950E94080AC8010E949417CF
:1036E0008091A6018695869586950E94E40920E042
:1036F000F8014081518162817381848195810E94AA
:103700005E0ECECCBB2099F0A11004C08D2D0E947E
:10371000D40BD6CF41E0A412D3CF8091AF019D2D21
:103720009823D91669F2D82AD092AF01C9CFA11037
:10373000C7CF8D2D0E94CD0B9091AF018D2D892388
:1037400029F08D2D809589238093AF0180918C0184
:103750009D2D982309F4B4CFD094D822D0928C0117
:10376000AFCFBB2029F055E05A1508F4A9CFCECF32
:1037700084E08A1508F4A4CF8D2D0E94CD0BA0CF34
:10378000AA20D1F3893369F49FEFE7EEF3E091507B
:10379000E040F040E1F700C000008E2D0E941516B9
:1037A0008FCF8FE19EE40197F1F7F5CF6B2D8E2D32
:1037B0000E94391585CF8F2D837099F5B11026C0E1
:1037C0004E2D429546954770440F440F8E2D8F70B5
:1037D000042E01C0880F0A94EAF720E0E4FE07C037
:1037E0002FE030E001C0220F4A95EAF720953F2DE7
:1037F000369536953370323079F060F44091B901E6
:10380000313039F0822B84230E94140A0E94AA06C8
:1038100057CF842B822BF8CF282B8091B901822798
:10382000F3CF8695BB2011F08F2D8170882371F323
:103830004E2D429546954770440F440F8E2D8F7044
:10384000042E01C0880F0A94EAF720E0E4FE07C0C6
:103850002FE030E001C0220F4A95EAF720953F2D76
:10386000369536953370323069F050F44091DA0174
:10387000313029F0822B84230E94C109C7CF842BC9
:10388000822BFACF282B8091DA018227F5CF9F2D4A
:103890009F70F92EBB2039F0892F0E94080A8E2DC7
:1038A0000E94D40BB3CF8E2D0E94CD0B8F2D0E9482
:1038B000E409ACCF8E2DE2EF9E16C1F1E91580F040
:1038C000F0EF9F16E1F021EF9216A1F0BB2009F472
:1038D00063C0AA2009F45DC08E2D0E945D1696CFAC
:1038E00033EF931651F144EF9412F0CF8091BB0166
:1038F00082FD2FC08F2D8F71BB20C9F21BC0BB2052
:1039000081F054E05A1508F481CF2F2D2F7181E0FA
:1039100090E001C0880F2A95EAF79091DA01892793
:10392000ABCF85E08A1508F471CFEFCF8F2D8F7163
:10393000B110BDCF0E94080A69CF80E0BB2009F416
:103940009BCF9F2D9F7181E001C0880F9A95EAF768
:1039500093CFBB2099F09F2D9F71F92E892F0E9444
:10396000080A8091BB0182FF07C0E8E0FE9EC0010B
:10397000112483608093A6018F2DDCCF81E00E940B
:10398000F109F1E0FA1508F041CF82E00E94F10957
:103990003DCF8F2D8F71CECFAA20A1F0893369F44E
:1039A0002FEF37EE43E0215030404040E1F700C0B8
:1039B00000008E2D0E94151629CF8FE19EE40197FD
:1039C000F1F7F5CF8F2D8F7172CFF6E1EF16FCE78F
:1039D000FF0649F58091B1018A7A91E009F490E0FF
:1039E00090938B01882309F4A9CD85E3A8CD3FE10D
:1039F0003E1508F446CBAE2DA695A695A695B0E04B
:103A0000AC5FBD4FEE2DE77021E030E001C0220F2A
:103A1000EA95EAF78C91822B8C9381E080930C02DB
:103A20000E944F0C2ECB9701345720343105F8F209
:103A3000F7E7EF16FCE7FF0609F48ACD28E7E21660
:103A40002CE7F20609F493CD882399F033E0E316CE
:103A50003CE7F30609F4B0CD08F08FCDE1145CE744
:103A6000F50609F49CCD81E0E8168CE7F80609F428
:103A7000A9CDF8018581E080F180882309F4B0CDDB
:103A8000C7010E94000ED82E682FC7010E94A80906
:103A9000B7018D2D0E94E10D0E940D087C01982E2A
:103AA000F801B580A680A2942FE0A2228091A60101
:103AB0008770F1F0CB2CBB20E1F08F2D807F80341C
:103AC00051F080E28E0D883098F0A11004C08F2D47
:103AD000807E803269F08091BB0182FF09C082E064
:103AE0000E94F1098091A6018770CC24C3948111B2
:103AF000C12CEF2DE295EF70EC3008F0E1CDF0E055
:103B0000EC57F24E0C94A72CF51AF51A301B301B0B
:103B1000601BD61B601B601BDB1B471C5A1C5A1CFE
:103B2000970134572034310508F082CF4FE14E150C
:103B300008F4A7CAAE2DA695A695A695B0E0AC5FF1
:103B4000BD4FEE2DE77081E090E001C0880FEA954F
:103B5000EAF780959C9189235FCFF701E851FC47F4
:103B6000E730F10508F4C7CB26E1E2162CE7F206B0
:103B7000B9F680918B01882309F4E6CC85E3E5CC86
:103B8000CF93DF938091A501807F09F04DC0809194
:103B9000A401882309F448C0E091720450913904CB
:103BA000C091A001D0919F016091A1017091A201EB
:103BB00047E05E17C9F18E2F90E0E49FF0011124D9
:103BC000E65CFB4F2481222391F1489FF001499F3D
:103BD000F00D1124DF01A65CBB4F11962C911197BB
:103BE0002C1325C02C912D1322C015962C911597BE
:103BF00021111DC012962D913C91261B370B283C9C
:103C00003105A8F48091A5018F7080618093A50192
:103C1000E05CFB4F80818F70806180838FE991E051
:103C20000E9494170E943109DF91CF910895FC0101
:103C30003196E770BECFA4E1B0E0E1E2FEE10C9482
:103C4000B42B8C0186E0F801DE011F9601900D92E5
:103C50008A95E1F7F8018481E5809FE9A92E91E03A
:103C6000B92E9091A301911128C0882319F1EE205B
:103C7000F1F0C8010E943C0EF82E8823C1F087E0C5
:103C8000F801D50101900D928A95E1F78091A30189
:103C9000813031F480919F019091A0010E942F0EFC
:103CA0000E94C01D8F2D6496ECE00C94D02BC801AF
:103CB0000E949417FF24F394F5CFD080C1808280B6
:103CC0009380F090A4012091A1013091A201A40160
:103CD000421B530BFF2009F4D8C0483C510508F0A3
:103CE00091C08823F9F29091A0018091A501282F1D
:103CF000207F09F055C0C91214C090919F01D912BC
:103D000010C0E11047C08F7080618093A5018FE9DA
:103D100091E00E9494178091A501F8018683F12C0F
:103D2000C1CFE11037C06C2D8D2D0E9414056C2D74
:103D30008D2D0E941405E82E8111F1CFDF86C88AEF
:103D40008F8598890E942F0E292F22952F7024305D
:103D500058F49F70223080F0992391F0F8019681F9
:103D6000907F71F4FE2C9ECF2A50223068F0C8015B
:103D70000E949417EF2CF6CF992311F0882391F32A
:103D8000805E8830A0F7EECF803F60F3815F8330A4
:103D900070F7E8CF8091A50181608093A501BFCF26
:103DA000C91207C090919F01D91203C0EE2009F4F7
:103DB0008DC0C8010E943C0E882309F478CFEE2004
:103DC00009F475CF8091A501803288F020919F0180
:103DD0003091A001398728879B868A869091A3011C
:103DE0009C871D868E87CE0108960E94941787E0D7
:103DF000F801AFE9B1E001900D928A95E1F70E94D8
:103E0000C01D58CF9091A501292F207F51F48FE933
:103E100091E00E94941787E0F50111928A95E9F7E5
:103E20007ECF882309F43ECF8091A0018C1110C071
:103E300080919F01D8120CC0E1100AC09683C8017E
:103E40000E94941787E0F50111928A95E9F72ACF2D
:103E5000C8010E943C0E882309F429CFEE2009F402
:103E600026CF8091A501803210F220919F013091E0
:103E7000A0013A8329839C828B829091A3019D8328
:103E80001E828F83CE010196B0CF483C5105D0F6FB
:103E9000882309F40FCFFE2CEE2009F408CF80917F
:103EA000A0018C1120C080919F01D8121CC080916C
:103EB000A50180FD0FC0982F907F61F08683903F11
:103EC00031F0982F907F905F8F70892B8683C80187
:103ED0000E94941787E0F801AFE9B1E001900D92DC
:103EE0008A95E1F7DFCEC8010E943C0E81117FCF99
:103EF0008091A50181608093A501C8010E9494175B
:103F0000D1CEABE1B0E0E7E8FFE10C94BC2B4E8BE7
:103F10005F8B688F798F8A8F9B8F192F91111092E9
:103F2000B0011D8A86E0FE017696DE011F960190A3
:103F30000D928A95E1F70A8D002341F021E04F852B
:103F4000588969897A89C8010E945E0E0B8B1C8B87
:103F500087E0FE013F96DE01189601900D928A954A
:103F6000E1F7CE0108960E941B1E81112AC087E04E
:103F7000FE013896DE01119601900D928A95E1F7C7
:103F80008C858823F1F02091390430E0C901019635
:103F900087709927409172044817190659F197E0E4
:103FA000929FD001939FB00D1124A65CBB4FFE01E0
:103FB000319601900D929A95E1F7809339040E9411
:103FC000310917E080917204909139048917F9F052
:103FD000819FC0011124865C9B4F0E941B1E882379
:103FE000B1F08091720490E00196877099278093D8
:103FF0007204E8CF0E94FE111092390410927204EC
:1040000087E0EFE9F1E0DF011D928A95E9F76B9611
:10401000E4E00C94D82BA6E0B0E0E1E1F0E20C94EF
:10402000B82BF82E00E040E0EE24E39463E0D62EB7
:1040300074E0C72E80910D02081750F0442321F040
:1040400080910F0280930E022696E8E00C94D42B08
:10405000202F30E083B190E09595879595958795D1
:1040600080959095182F1170C901FC01E15FFD4FFB
:104070001083825F9D4FFC018081181302C0FF20D6
:1040800099F0011110C0D982CA820E94D311682F01
:104090008B839C83ED821E8349815A81792F81E035
:1040A000912F0E94811F41E00F5FC4CFA6E0B0E0D6
:1040B000ECE5F0E20C94BC2B0E94D3118C018091B2
:1040C000B2019091B3018017910781F019821A8291
:1040D0000E94D311682F49815A81792F80E090E0A6
:1040E0000E94811F1093B3010093B2012696E4E071
:1040F0000C94D82BA6E0B0E0E0E8F0E20C94BD2BE5
:104100009FEF980F9430A8F4162FE82FF0E0EE0FF1
:10411000FF1FE55CFE4F8081918199838A830E9415
:10412000D311682F49815A81792F81E0912F0E9404
:10413000811F2696E3E00C94D92B80911F018823E0
:1041400029F060E00E947A2010921F010895A6E0F5
:10415000B0E0EDEAF0E20C94BE2B809111018130C9
:1041600051F030F0823089F02696E2E00C94DA2BA0
:104170000E949D20F9CFCE01019626E0FC0111920C
:104180002A95E9F70E949C06EFCF0E942A0AECCFFD
:10419000A5E0B0E0EEECF0E20C94B02BCE0101967D
:1041A0007C0185E0D7011D928A95E9F73701570117
:1041B00090E0C92E91E0D92E44244394512CF6016D
:1041C00081916F010E94A00A00C085E0882E81E0E5
:1041D000982EF40110E000E02191A22FA295AF707B
:1041E000B0E090968C9190E02F7002C095958795E5
:1041F0002A95E2F780FD0AC0D5018C919201002E2C
:1042000001C0220F0A94EAF7822B8C930F5F1F4F95
:104210000430110509F7F601319780810E94B50A33
:10422000B0EABA95F1F7EFEFAE1ABE0AF5E0CF1695
:10423000F1E0DF0621F6DD24D394D4018D914D0108
:104240000E94A00A00C03D2D002E01C0330F0A9429
:10425000EAF7F70140E051E0DA012D91AD01822F3C
:1042600082958F7090E0DC0190968C9190E02F7099
:1042700002C0959587952A95E2F780FD03C080815D
:10428000832B80833196B1E045305B0729F7F40139
:10429000319780810E94B50AE0EAEA95F1F70F5F55
:1042A0001F4F0830110549F6E4EBF1E085E0E80E18
:1042B000F11C10E0D3018D913D019191891721F0FE
:1042C000DF0111978C9311E0E614F70499F711239D
:1042D00049F081E080938A010E94D3119093890173
:1042E0008093880180918A018823E9F08091880178
:1042F000909189010E94C4110597A8F045E050E013
:1043000064EB71E087EC91E00E94E52C892B49F089
:1043100085E0E4EBF1E0A7ECB1E001900D928A9525
:10432000E1F710928A01812F2596E0E10C94CC2BC5
:104330001F920F920FB60F9211248F939F93AF93FA
:10434000BF9380911202811113C08091130290914A
:104350001402A0911502B09116024196A11DB11D43
:104360008093130290931402A0931502B093160247
:10437000BF91AF919F918F910F900FBE0F901F90A3
:104380001895AFE3B0E0E7ECF1E20C94AE2B85B703
:10439000806885BF85B7806885BF84B7877F84BF05
:1043A0000FB6F894A89580916000886180936000B2
:1043B000109260000FBE80E890E00FB6F8948093F2
:1043C0006100909361000FBE88E197E090937F01B8
:1043D00080937E010E9433050E94D2058091E20005
:1043E00084608093E200789480912402882399F07D
:1043F0001091E9001F708091EC0080FFEFC080E811
:10440000182B1092E9008091E80083FD0E941D1294
:104410001F701093E90082E084BD93E095BD9AEF90
:1044200097BD80936E000E94830E811102C00E948E
:104430006F0D81E08093C40153985B9A52985A9A09
:104440008FE891E00197F1F700C000003091C401BE
:10445000E5ECF1E090E09313C3C0809105010E9468
:10446000B50A809106010E94B50A809107010E9459
:10447000B50A809108010E94B50A00E011E075E0DC
:10448000E72E71E0F72ED8018D918D010E94B50ABB
:10449000E016F106C1F71092B4011092C701109214
:1044A000B5011092C8011092B6011092C901109284
:1044B000B7011092CA011092B8011092CB010E946C
:1044C000BA10811167C066EE7EEF90E080E00E9436
:1044D000302C60E082E090E00E94122C60E083E0EB
:1044E00090E00E94122C1092B90160E074E184E027
:1044F00090E00E94302C60E086E090E00E94122C58
:104500006FEF87E090E00E94122C40E050E0BA018B
:1045100088E090E00E94242C60E084E290E00E9419
:10452000122C60E087E190E00E94122C60E08CE0A9
:1045300090E00E94122C60E08DE090E00E94122C2E
:1045400019821A821B821C821D821E821F8218867B
:1045500048E050E068E170E0CE0101960E94022C34
:1045600040E050E0BA0180E290E00E94242C80E01C
:104570000E94560D0E946F0D40E050E0BA018FE09E
:1045800090E00E94242C40E050E0BA0183E190E0EA
:104590000E94242C82E090E00E94EE2B8093BC01CC
:1045A00084E090E00E94FC2B9093BB018093BA01C1
:1045B0000E94C820EFE3FCE93197F1F700C000004A
:1045C0000E94C8208091C70180FF17C06FEF7FEF66
:1045D00090E080E00E94302C0E94870C80E010CF99
:1045E00089B183FB882780F94A9B05C022E0822B92
:1045F00081939F5F30CF20E0FACF83E090E00E946C
:10460000EE2B0E94140A83E08093FC0180E28093E9
:104610002E020E94AE2A6BE070E080E592E00E94DC
:104620009C0E8823E9F18091FC0165E070E081FD3A
:10463000FFC08BE492E00E949C0E882389F16DE01C
:1046400070E089E392E00E949C0E882349F10E9469
:104650009006605A75418F4F9F4F6093FE01709393
:10466000FF018093000290930102E1E3F2E080E019
:1046700092E0DF019C011D9221503040E1F7F09360
:104680003804E09337048FEF9FEF909330028093CC
:104690002F0281E080930302809302021092FD01B9
:1046A00081E080930D0222982A9A8FE891E0019789
:1046B000F1F700C0000081E00E940B2010E1C12C46
:1046C000D12C7601812C912C540186EF0E94490A4D
:1046D000092E000CAA0BBB0B880E991EAA1EBB1E2E
:1046E00087EF0E94490A092E000CAA0BBB0BC80ECB
:1046F000D91EEA1EFB1EAFE3BFE11197F1F700C020
:104700000000115011F760E1462E512C612C712CE4
:10471000C501B401A30192010E94882C30931301BA
:1047200020931201C701B601A30192010E94882CB7
:1047300030931501209314010E94BA108823E1F0F0
:1047400083E190E00E94F62B2AEF260F253510F426
:10475000609319012CEF270F273510F470931A017D
:104760002EEF280F293510F480931B018FEF890F4E
:10477000823310F49093160189E091E09093110236
:104780008093100258E1252E312C8091240240E4C0
:10479000F42E00E112E1853009F484C00E94C820A3
:1047A0000DEB11E037ECE32E31E0F32ED701F801E9
:1047B00091918D9131E0E23CF30709F47DC09817A7
:1047C000B9F3D12C88248394D701CD907D01F801D1
:1047D00091908F019C1419F1B12CAA24A3949C24CC
:1047E000892D8A21A1F0B9AEDAAE0E94D3119CAF17
:1047F0008BAF8DAE91E08A2D8C2109F490E09EAFB5
:1048000049AD5AAD6BAD7CAD8DAD0E94811FB394A7
:10481000AA0CF8E0BF12E4CFF8013197C082D3941C
:1048200025E0D212D1CF0E949006BB24B39449C098
:1048300086E492E000CF80912402843019F10E9436
:10484000C60E109212020FB6F894A895209260003E
:104850000FBEF092600083B7817F846083BF83B70F
:10486000816083BF7894889583B78E7F83BF0FB6AE
:10487000F894A89580916000886180936000109200
:1048800060000FBE80912302882361F00E94C8203F
:10489000E7ECF1E08191811129C62CEC31E02E1773
:1048A0003F07C1F780912402853009F4C4CF0E94EC
:1048B000FE110E94AA0672CF981383CF0E94562041
:1048C000B12C80E00E940B2010E000E0B2E0AB2EA3
:1048D0008DEF982E882483949CEF792E23E0622E0E
:1048E0008091C401181750F0002309F4A8C00E9459
:1048F00090060E94090F0E94E10EA5C0E12EF12C46
:10490000E9B1E3FBEE27E0F94A9B97C082E08E2BEA
:10491000D701AB53BE4FEC919E2F9370891709F4CA
:104920008AC0EE0FEE0FE82BEC93EF70F0E0EB5B3C
:10493000FE4FC7018D539E4F6C018081D6019C9123
:10494000890F8C9320E086309CF1F701EE53FE4FE7
:1049500080818F5F80830E94D3111DA77EA6682F60
:104960008FA798AB69AA8AAA412F5CEF792F83E0C1
:1049700091E00E94811FEFE1FEE43197F1F700C062
:1049800000000E94D3111BAB7CAA682F8DAB9EAB9D
:104990006FAA18AE412F5CEF792F83E090E00E9460
:1049A000811F8FE19EE40197F1F700C0000021E034
:1049B000D6018C918B3F9CF5F701EE53FE4F808121
:1049C000815080830E94D31119A39AA2682F8BA3D0
:1049D0009CA3ADA28EA2412F5DEF792F82E091E0E2
:1049E0000E94811FEFE1FEE43197F1F700C0000063
:1049F0000E94D3111FA398A6682F89A79AA7ABA6D8
:104A00001CA6412F5DEF792F82E090E00E94811F6C
:104A10008FE19EE40197F1F700C0000021E0D6018C
:104A20008C91082E000C990B66E070E00E94522CCD
:104A3000F6018083022B1F5F53CF80E068CF0E9476
:104A4000090FB11058CF86E0E4EDF1E08E010F5F61
:104A50001F4FD80101900D928A95E1F7B090D501D2
:104A6000E090D601D090D701F090D801C090D90144
:104A70001092D6011092D7011092D8011092D9014C
:104A8000E11003C0DD2009F445C08091D20190916E
:104A9000D3010E94C4119C019091CD01992309F486
:104AA00053C525313105B0F19F3F19F09F5F9093B9
:104AB000CD01EE2059F00E94EA0691E01E140CF0A0
:104AC0009FEF899F802D11248093D601DD2059F01E
:104AD0000E94EA069FEF1D140CF491E0899F802D3F
:104AE00011248093D7018091D601882399F0A0905A
:104AF000D701AA2079F00E940A07882309F471C01F
:104B00008093D6018A2D0E940A07882309F46BC07E
:104B10008093D701F11003C0CC2009F443C08091E9
:104B2000D0019091D1010E94C4119C019091CE01BD
:104B3000992309F40EC521353105A0F19F3F19F0E5
:104B40009F5F9093CE01FF2059F00E94C80691E02C
:104B50001F140CF09FEF899F802D11248093D801A2
:104B6000CC2059F00E94C8069FEF1C140CF491E071
:104B7000899F802D11248093D9018091D8018823A9
:104B800089F0A090D901AA2069F00E940A07882321
:104B900061F18093D8018A2D0E940A07882339F198
:104BA0008093D9018091D5018B1123C08091D601CA
:104BB000882311F0E8121DC08091D701882311F0DD
:104BC000D81217C08091D901882311F08C1111C01F
:104BD0009091D801992319F081E0F9120BC080E07F
:104BE00009C081E08DCF81E093CF81E0D2CF81E019
:104BF000D7CF81E080FD13C08091D601811131C1F2
:104C00008091D70181112DC18091D801811129C1D5
:104C100081E09091D901911101C080E080FD0E9456
:104C2000DF1186E0F801A4EDB1E001900D928A95C4
:104C3000E1F7F5E5EF2EF1E0FF2E1FAECC24C39493
:104C4000D12CD70111968C918F3F09F4B5C0E82F74
:104C5000E295EF70F0E022A1982F9F70B60101C09D
:104C6000660F9A95EAF7462F4095242322A391A137
:104C7000962B91A3B5E3BA95F1F70000D7019C916B
:104C80009F3FC1F0A92FA295AF70B0E091965C91C3
:104C900091979F70960101C0220F9A95EAF7952F80
:104CA000922B91969C93919792969C919297922B8E
:104CB00092969C93D70112969C919F3FC9F0A92F81
:104CC000A295AF70B0E091965C9191979F7096011C
:104CD00001C0220F9A95EAF7952F922B91969C93FB
:104CE000919792969C9192972095292392962C9336
:104CF000B5E3BA95F1F7000091A1942391A392A195
:104D0000492342A3E5E3EA95F1F700000E94490A2E
:104D1000D70115964D905C90712C612C092E000CDA
:104D2000AA0BBB0B4C015D0184189508A608B708B7
:104D3000A1E0BEEFA50194010E94E02CF7012381C0
:104D4000348150E040E024193509460957090E9492
:104D5000882C121613061406150694F4AFEFB1E072
:104D6000A50194010E94D22CD70117962D913C9158
:104D700050E040E024193509460957090E94882C63
:104D8000DA01C9018130EEEF9E07EFEFAE07BE07F3
:104D900024F481E09EEFAFEFBFEFBC01CD016115C0
:104DA000F2E07F078105910524F06FEF71E080E06C
:104DB00090E08FAD0E94B70629E0E20EF11C3FADF6
:104DC000313009F050C00E944F0C0E94AA06909109
:104DD000C601891721F08093C6010E949006809138
:104DE0002402843009F07EC083E08093E900809142
:104DF000E80082FF77C08091E80090E085FF0AC05C
:104E00000E945205E0E2EE2EF12C6801882309F49D
:104E100037C091E08091E8008B778093E800992378
:104E200009F460C0E981E150E53108F042C0F0E0EA
:104E3000E45EF84D0C94A72C4E2752277228842844
:104E40008C289728592759275927592759279A28AD
:104E50009D28A128C728E928EC28EE281329342901
:104E60003E2981E0DBCEF1E0FFAFEBCE8091F10097
:104E7000D6018D936D01B1E0EB1AF10809F4C9CFA9
:104E80008091E80085FDF2CF8091E8008B778093D8
:104E9000E8000E945205882399F3BBCF1A828CE068
:104EA0008B831AC08A81823009F446C328F481308A
:104EB00069F08FEF898310C0833009F4F9C0843022
:104EC000C1F71B821C821D821E8206C00E949006B2
:104ED0009B838C837D836E8340E250E0B80182E047
:104EE0000E94F90B8091CC01811105C0219A29986B
:104EF00081E08093CC0180911C018823D9F08091BE
:104F00001D0190911E010E94C411803D974090F0B8
:104F100010921C010E94BA10882361F0409119017F
:104F200050911A0160911B017091160183E190E08C
:104F30000E94242C80911701909118010E94C411A5
:104F40000A9708F422CC0E94D31190931801809301
:104F5000170186EF0E94490A6C0187EF0E94490AF7
:104F60007C0180911101813009F410C208F495C1CF
:104F7000823009F00ACC0E949D20960150E040E06A
:104F80008091120190911301281B390B410951099D
:104F90004701B12CA12C8091140190911501881A20
:104FA000990AA108B108ECEEF0E057FF02C0E2E078
:104FB000F1E0AFEFB1E00E94D22C9F0150E040E061
:104FC0000E94882C01E01EEF2130BEEF3B07BFEFAF
:104FD0004B075B0744F0890121153240410551051B
:104FE00014F00FEF11E0E5E1F1E0B7FC02C0E6EEEE
:104FF000F0E0AFEFB1E0A50194010E94D22C9F0137
:1050000050E040E00E94882C2130FEEF3F07FFEF88
:105010004F075F070CF48AC2211582E0380741056B
:1050200051050CF086C2EE24FF24E21AF30A209107
:105030001B0130E0AFEFB1E00E94BC2C24E630E071
:1050400040E050E00E94882CC9013195219531093A
:10505000201731072CF40817190714F410E000E0AA
:105060002E153F052CF4E816F90614F4F12CE12C6A
:1050700080912001909121018017910741F4809146
:105080002201909123018E159F0509F47ECB109388
:10509000210100932001F0922301E0922201B80146
:1050A00080E00E94B706B70181E00E94B7066DCB91
:1050B0004B81DE01149690E080E0242F30E0B901AE
:1050C000680F791F6530710508F006CFE42FE80FEF
:1050D000F0E0E953FE4F50815D9301968C319105CC
:1050E00071F7FACE8A81823021F0853009F4F4CE4E
:1050F000E0CE6B817C818D819E810E94AD2C88E207
:1051000090E00E94122CE8CE4C816B818A810E9433
:10511000B20D9D838E83E0CE2D813E8132272327E1
:1051200032274C816B818A810E94E60CD5CE0E9489
:105130000D0DD2CE80E18A83CFCE82E08A8387E8CC
:10514000AFCEEA80FB80FE24EF24FE24AC80B12C9D
:105150006801C70187589E4F9601201B310B2A1505
:105160003B0508F0B9CEE7E8EE16E2E0FE0660F493
:105170000E94EE2BD60114968C93FFEFEF1AFF0AD4
:105180002FEFC21AD20AE5CFF6011482F6CFCA80F9
:10519000DB80DC24CD24DC24AC80B12C7601C7017B
:1051A00087589E4F97012C193D092A153B0508F099
:1051B00093CE47E8E41642E0F40638F4200F311F9E
:1051C000D90114966C910E94122CBFEFEB1AFB0AC6
:1051D000E6CF0E94AB0C80CE84E0ADCFEA80FB80AE
:1051E000FE24EF24FE24AC80B12C6801C70189960F
:1051F0009601201B310B2A153B0508F06DCEE0E42B
:10520000EE16E1E0FE0660F40E94EE2BD601149645
:105210008C93FFEFEF1AFF0A2FEFC21AD20AE6CFE4
:10522000F6011482F6CFCA80DB80DC24CD24DC2496
:10523000AC80B12C7601C701899697012C193D09E4
:105240002A153B0508F048CE40E4E41641E0F40698
:1052500038F4200F311FD90114966C910E94122C42
:10526000BFEFEB1AFB0AE7CF41E08C81811101C04F
:1052700040E06B818A810E947F0D4BCF2D813E8162
:1052800032272327322741E08C81811101C040E081
:105290006B818A810E94BB0C1FCE0E942A0A8091DA
:1052A000120190911301C81AD90A809114019091AA
:1052B0001501E81AF90A8601D7FE04C00027112754
:1052C0000C191D092091190130E0A6EEB0E00E94F2
:1052D000BC2C24E630E040E050E00E94882CB9016C
:1052E0002017310754F0C701F7FE04C0882799271B
:1052F0008E199F0968177907ACF5ACEAB0E00E94F7
:10530000D22C6C33FAE57F07810591050CF004C1BE
:1053100024E630E040E050E00E94882CC9012E15C0
:105320003F05F4F0319521953109E216F30664F159
:105330008C159D0584F0C216D30624F1C701F7FE33
:1053400004C0882799278E199F09801791072CF48C
:105350001C141D04BCF412E006C01E141F04A4F4A7
:1053600011E001C010E080911F01811709F40DCAFE
:1053700060E00E947A2061E0812F0E947A201093E1
:105380001F0103CA14E0EFCF13E0EDCF0E949D2070
:105390000E942A0A8091120190911301C81AD90A19
:1053A0008091140190911501E81AF90A9601D7FE2F
:1053B00004C0222733272C193D09C701F7FE04C07A
:1053C000882799278E199F098217930708F07DC0B7
:1053D0005C01AA0CBB1CA80EB91E73E0B694A7947E
:1053E0007A95E1F7A20EB31E20911A0130E0A6EEE5
:1053F000B0E00E94BC2C24E630E040E050E00E9487
:10540000882CC9012A153B0508F0BFC9D501A21B8C
:10541000B30B41E050E0863E910528F486EE90E023
:10542000AC01421B530B2091160130E00E94BC2CB2
:105430009A0150E040E00E94662C490112161306C2
:105440001CF088248394912C2501712C612C9601E9
:10545000D4010E94B42CA30195010E94882C91E8EC
:10546000D92E21388FEF38074807580744F0D22E3D
:10547000203831054105510514F08FE7D82E222739
:1054800033272E193F09D4010E94B42CA3019201A5
:105490000E94882C21389FEF39074907590714F1DA
:1054A0002038310541055105FCF4D11003C02223F9
:1054B00009F46BC986E0D8011D928A95E9F7DB8271
:1054C0002C83C8010E949C0660C95901AA0CBB1C10
:1054D000A20EB31E53E0B694A7945A95E1F7A80E16
:1054E000B91E82CF21E8E6CF2FE7E4CF09BD19BD71
:1054F00009B400FEFDCF8091D8008F7D8093D80045
:105500008091E00082608093E0008091E00081FD66
:10551000FCCF0E94FE11C6C997EEE916F1040CF00B
:105520001FCF86EE90E02AE13FEFFFCE21E03EEF75
:105530007ACD2FEF31E077CD88E290E00E94EE2B1C
:105540001B821C821D82E6CD2B30310508F0AECACD
:10555000E1CA2B30310508F0F3CA24CB1092B90010
:105560008CE08093B8000895B0E0A0E0EAEBFAE2A6
:105570000C94B52BB82EEB010E94D3116C01EE24D4
:10558000E394F12CC431D10560F025E0E22EF12C3A
:10559000CF3FDC0731F0CE0164E170E00E949A2B2E
:1055A0007B0184EAA82E94E8992E1092BC00A09268
:1055B000BC000E94D3118C018091BC0087FF0DC0FC
:1055C0008091B900887F8830F9F08091B900887F98
:1055D0008031D1F00FEF1FEF08C0C8010E94C41145
:1055E000E816F90648F70EEF1FEFCF3FDC07E9F2A8
:1055F000C6010E94C411C817D907B8F6C801CDB7B3
:10560000DEB7EBE00C94D12BB092BB009092BC00C3
:105610000E94D3118C018091BC0087FF0AC0809149
:10562000B900887F883111F08034A1F610E000E0E5
:10563000E5CFC8010E94C411E816F90660F7D3CF80
:105640000F931F93CF93DF93EB018093BB0084E80C
:105650008093BC000E94D3118C018091BC0087FF15
:1056600011C02091B900287F81E090E0283211F428
:1056700090E080E0919581959109DF91CF911F9104
:105680000F910895CF3FDC0741F3C8010E94C41178
:10569000C817D90710F78EEF9FEFEFCFB0E0A0E06B
:1056A000E4E5FBE20C94B82B6B018A017901B901A6
:1056B0000E94B42AE6010C0D1D1DC017D10711F080
:1056C00097FF08C024E92093BC00CDB7DEB7E8E01F
:1056D0000C94D42BB70189910E94202BEECFB0E01F
:1056E000A0E0E5E7FBE20C94B82BC62F6A01790134
:1056F000B8010E94B42A97FD0CC0B8018C2F0E94FB
:10570000202BE601EC0CFD1CCE15DF0511F097FFF8
:1057100008C024E92093BC00CDB7DEB7E8E00C94C4
:10572000D42BB80189910E94202BEECF84E980937D
:10573000BC000895AA1BBB1B51E107C0AA1FBB1FD9
:10574000A617B70710F0A61BB70B881F991F5A950D
:10575000A9F780959095BC01CD0108952F923F92B5
:105760004F925F926F927F928F929F92AF92BF9271
:10577000CF92DF92EF92FF920F931F93CF93DF931D
:10578000CDB7DEB7CA1BDB0B0FB6F894DEBF0FBE7A
:10579000CDBF09942A88398848885F846E847D84C7
:1057A0008C849B84AA84B984C884DF80EE80FD80C9
:1057B0000C811B81AA81B981CE0FD11D0FB6F8943F
:1057C000DEBF0FBECDBFED010895FB01DC0102C0BD
:1057D00005900D9241505040D8F70895F999FECFA9
:1057E00092BD81BDF89A992780B50895A6E1B0E0F1
:1057F00044E050E00C94382CA8E1B0E042E050E0E6
:105800000C94382CDC01A40FB51F4150504048F0D7
:10581000CB01840F951F2E910E94132C41505040B4
:10582000D0F70895262FF999FECF92BD81BDF89A41
:10583000019700B4021639F01FBA20BD0FB6F894D4
:10584000FA9AF99A0FBE08950396272F0E94132CF7
:105850000E94122C252F0E94132C242F0C94132C01
:105860000196272F0E94132C0C94122CDC01CB01E3
:10587000FC01F999FECF06C0F2BDE1BDF89A319660
:1058800000B40D9241505040B8F70895991B79E04B
:1058900004C0991F961708F0961B881F7A95C9F7C0
:1058A0008095089597FB072E16F4009407D077FD96
:1058B00009D00E949A2B07FC05D03EF49095819563
:1058C0009F4F0895709561957F4F0895A1E21A2E1C
:1058D000AA1BBB1BFD010DC0AA1FBB1FEE1FFF1F94
:1058E000A217B307E407F50720F0A21BB30BE40BE4
:1058F000F50B661F771F881F991F1A9469F760952B
:105900007095809590959B01AC01BD01CF010895E4
:10591000052E97FB1EF400940E949F2C57FD07D084
:105920000E94662C07FC03D04EF40C949F2C5095DB
:105930004095309521953F4F4F4F5F4F089590957B
:105940008095709561957F4F8F4F9F4F0895EE0F13
:10595000FF1F0590F491E02D099469279627692788
:1059600078278727782708950E94BC2C332312F4C8
:105970008A1B9B0B0C94CD2CA29FB001B39FC0013E
:10598000A39F700D811D1124911DB29F700D811D6B
:105990001124911D08950E94BC2CB7FF0895821B0D
:1059A000930B08950E94BC2CA59F900DB49F900D61
:1059B000A49F800D911D11240895B7FF0C94D22C43
:1059C0000E94D22C821B930B0895FB01DC0104C0C2
:1059D0008D910190801921F441505040C8F7881BE7
:1059E000990B0895AEE0B0E0E8EFFCE20C94BC2B1C
:1059F0000D891E898F89988D26E02C831A8309834F
:105A000097FF02C080E090E801979E838D83AE01EE
:105A1000455E5F4F698D7A8DCE0101960E94222DE1
:105A20004D815E8157FD0AC02F813885421753078B
:105A30000CF49A01020F131FF80110822E96E4E075
:105A40000C94D82BABE0B0E0E8E2FDE20C94AE2B76
:105A50007C013B018A01FC0117821682838181FF50
:105A6000C8C1CE0101965C01F7019381F30193FD5A
:105A7000859193FF81913F01882309F453C18532B9
:105A800039F493FD859193FF81913F01853229F48B
:105A9000B70190E00E94122FE7CF912C212C312CDE
:105AA000FFE1F31538F08B3211F190F4803209F1F7
:105AB000833229F137FC3CC020ED280F2A3050F505
:105AC00036FE20C08AE0989E200D1124922E06C03A
:105AD0008D3291F0803371F7689430F8F30193FDC3
