:100000000C94DA040C9412050C9412050C9412054D
:100010000C9412050C9412050C9412050C94120504
:100020000C9412050C9412050C947D2F0C945030F6
:100030000C9416290C9412050C9412050C941205BC
:100040000C9412050C9412050C9412050C941205D4
:100050000C9412050C949F290C9412050C94120513
:100060000C9412050C9412050C9412050C941205B4
:100070000C9412050C9412050C9412050C941205A4
:100080000C9412050C9412050C9412050C94120594
:100090000C9412050C9412050C9412050C94120584
:1000A0000C9412050C9412050C941205414E4C4709
:1000B000004D4F55530044494749004A4F590000ED
:1000C000556E6465660033726400326E640031738D
:1000D0007400307468004C4159455200001F001EE6
:1000E0000021002000230022002500240004000538
:1000F000000600070014001500160017000800098C
:10010000000A000B0018001900000000000C000D90
:10011000000E000F000000000000000000100011A1
:10012000001200130000000000000000001A001B75
:10013000001C00000000000000000000000400059A
:10014000000600070014001500160017000800093B
:10015000000A000B0018001900000000000C000D40
:10016000000E000F00000000000000000010001151
:10017000001200130000000000000000001A001B25
:10018000001C00000000000000000000000400054A
:1001900000060007001400150016001700080009EB
:1001A000000A000B0018001900000000000C000DF0
:1001B000000E000F00000000000000000010001101
:1001C000001200130000000000000000001A001BD5
:1001D000001C0000000000000000000000040005FA
:1001E000000600070014001500160017000800099B
:1001F000000A000B0018001900000000000C000DA0
:10020000000E000F000000000000000000100011B0
:10021000001200130000000000000000001A001B84
:10022000001C000000000000000000000000AE0004
:10023000AF00DA0281FFD9F1DB20A4A62EAF00A027
:10024000C0D30000A1C8D30000AED580A81F408D48
:1002500014200007087F0807003E5B4F5B3E003E0E
:100260006B4F6B3E001C3E7C3E1C00183C7E3C18D5
:10027000001C577D571C001C5E7F5E1C0000183C54
:10028000180000FFE7C3E7FF00001824180000FF74
:10029000E7DBE7FF0030483A060E002629792926D9
:1002A00000407F05050700407F05253F005A3CE7D9
:1002B0003C5A007F3E1C1C0800081C1C3E7F00149A
:1002C000227F2214005F5F005F5F0006097F017FCD
:1002D00000006689956A0060606060600094A2FF1B
:1002E000A2940008047E04080010207E201000085C
:1002F000082A1C0800081C2A0808001E10101010EC
:10030000000C1E0C1E0C0030383E383000060E3E2D
:100310000E060000000000000000005F000000006A
:100320000700070000147F147F1400242A7F2A127C
:100330000023130864620036495620500000080765
:10034000030000001C224100000041221C00002A82
:100350001C7F1C2A0008083E08080000807030003E
:10036000000808080808000000606000002010086D
:100370000402003E5149453E0000427F40000072A9
:1003800049494946002141494D33001814127F1054
:10039000002745454539003C4A4949310041211172
:1003A000090700364949493600464949291E0000D7
:1003B0000014000000004034000000000814224136
:1003C00000141414141400004122140800020159EE
:1003D0000906003E415D594E007C1211127C007FDF
:1003E00049494936003E41414122007F4141413E59
:1003F000007F49494941007F09090901003E414107
:100400005173007F0808087F0000417F41000020F1
:1004100040413F01007F08142241007F404040409E
:10042000007F021C027F007F0408107F003E4141D4
:10043000413E007F09090906003E4151215E007FCF
:10044000091929460026494949320003017F010361
:10045000003F4040403F001F2040201F003F4038E9
:10046000403F006314081463000304780403006130
:1004700059494D4300007F414141000204081020CA
:1004800000004141417F000402010204004040405D
:100490004040000003070800002054547840007FCB
:1004A0002844443800384444442800384444287FD1
:1004B0000038545454180000087E09020018A4A4FF
:1004C0009C78007F080404780000447D40000020F0
:1004D00040403D00007F102844000000417F400064
:1004E000007C04780478007C0804047800384444D4
:1004F000443800FC182424180018242418FC007C1C
:10050000080404080048545454240004043F4424BC
:10051000003C4040207C001C2040201C003C40301F
:10052000403C004428102844004C9090907C0044AB
:1005300064544C440000083641000000007700007D
:10054000000041360800000201020402003C26239C
:10055000263C00000000000000404040F0F8F8FF9A
:1005600038FFF8F83FF8F8FF38FFF8F8F04040405F
:1005700000000000000080C0C0C0800000C0C0803B
:1005800000000080C0C000C0C0000080C0C00000EB
:10059000000000C0C0C0C0C000C0C000000000001B
:1005A000000000000000000000000000000000004B
:1005B000000000000000000000000000000000003B
:1005C000000000000000000000000000000000002B
:1005D0000000C0F0F8FC3E1E06010000007F414113
:1005E000417F007F4141417F000080C0E07E5B4F42
:1005F0005BFEC00000C000DCD7DEDEDED7DC00C062
:1006000000000000000000000000000000000000EA
:10061000000000000000000000494949FFFFFFFF03
:10062000E0DFBFBF00BFBFDFE0FFFFFFFF49494979
:1006300000000000001F3F6060E0BF1F007F7F07D9
:100640001E381E077F7F007F7F0E1F3B71600000FA
:100650000000007F7F0C0C0C007E7E007F7E030379
:10066000007F7E03037E7E03037F7E000F3E703C8F
:10067000063C703E0F00327B49493F7E007F7E037F
:1006800003001E3F69696F260000000000000000A3
:100690000000030F1F3F3C7870600000007F414165
:1006A000417F007F4141417F00307B7F78302020B7
:1006B00030787F3B0003000F7F0F0F0F7F0F000389
:1006C000000000000000000000000000000000002A
:1006D000000000000000000000010101070F0F7F73
:1006E0000F7F0F0F7E0F0F7F0F7F0F0F070101018D
:1006F00000000000000000000000010100000000F8
:1007000000000000000000000000000000000000E9
:1007100000000000000000000000000000000000D9
:1007200000000000000000000000000000000000C9
:1007300000000000000000000000000000000000B9
:1007400000000000000000000000000000000000A9
:100750000000000000000000000000000000000099
:100760000000000000000000000000000000000089
:100770000000000000000000000000000000000079
:100780000000000000000000000000000000000069
:1007900000000000000000000000002A2B280000DC
:1007A0000000000000000000000000000000290020
:1007B0000000002C1E3420212224342627252E362A
:1007C0002D3738271E1F2021222324252633333698
:1007D0002E37381F0405060708090A0B0C0D0E0FEB
:1007E000101112131415161718191A1B1C1D2F316E
:1007F00030232D350405060708090A0B0C0D0E0FD2
:10080000101112131415161718191A1B1C1D2F314D
:1008100030354C0000000000000000000000000027
:1008200000000000000000000000000000000000C8
:10083000000000000000007E0F00D4FFFFFFC70093
:100840000000780C0367006200630032003400008F
:100850000012036B0075007300680069006D006191
:1008600000380000000403090409025B00030100D2
:10087000A0FA09040000010301010009211101008F
:100880000122440007058103080001090401000258
:100890000300000009211101000122220007058246
:1008A00003200001070503032000010904020001E1
:1008B00003000000092111010001227700070584CF
:1008C0000320000112010002000000083839343210
:1008D0000100010200010660FF0961A10109621522
:1008E0000026FF009520750881020963150026FF88
:1008F00000952075089102C005010902A101850239
:100900000901A1000509190129081500250195080B
:10091000750181020501093009311581257F950294
:100920007508810609381581257F950175088106AE
:10093000050C0A38021581257F950175088106C0CE
:10094000C005010904A1018507A1000501093009BD
:10095000311601FE26FF0195027510810205091965
:1009600001292015002501952075018102C0C005CF
:10097000010906A101050719E029E71500250195E0
:100980000875018102950175088101050719002983
:10099000FF150026FF00950675088100050819015E
:1009A000290515002501950575019102950175032D
:1009B0009101C00011241FBECFEFDAE0DEBFCDBF32
:1009C00004B603FE18C080918C0490918D04A09110
:1009D0008E04B0918F048730904BA740B04B59F4F0
:1009E00010928C0410928D0410928E0410928F0439
:1009F000E0E0F8E3099511E0A0E0B1E0E8E0FCE612
:100A000002C005900D92A238B107D9F724E0A2E800
:100A1000B1E001C01D92AC38B207E1F70E94E818BE
:100A20000C9402360C940000E82FE295EF70F0E091
:100A300031A1282F2F7081E090E001C0880F2A9506
:100A4000EAF7982F9095932391A392A1892B82A3E3
:100A50000895E82FE295EF70F0E031A1282F2F7074
:100A600081E090E001C0880F2A95EAF7932F982B38
:100A700091A392A18095892382A308950895CF938D
:100A8000DF93809100010E941405809101010E9472
:100A90001405809102010E941405809103010E94B7
:100AA0001405C4E0D1E089910E94140581E0C930A9
:100AB000D807C9F7DF91CF910895A5E0B0E0E3E64C
:100AC000F5E00C94AD32CE0101967C0185E0D701B2
:100AD0001D928A95E9F73701670124E0822E21E013
:100AE000922E312C44244394512CF40181914F01D6
:100AF0000E9429050E947A1890E0A92E91E0B92E53
:100B0000F50110E000E02191A22FA295AF70B0E0B6
:100B100090968C9190E02F7002C0959587952A95BC
:100B2000E2F780FD0AC0D6018C919201002E01C02F
:100B3000220F0A94EAF7822B8C930F5F1F4F043029
:100B4000110509F7F401319780810E94140560E0D6
:100B5000832D0E947C183394BFEFCB1ADB0AE5E0AB
:100B60003E12C3CFCC24C3948CEFD82ED00ED50127
:100B70008D915D010E9429050E947A183C2D002E5E
:100B800001C0330F0A94EAF7F70144E051E0DA01BB
:100B90002D91AD01822F82958F7090E0DC019096AF
:100BA0008C9190E02F7002C0959587952A95E2F779
:100BB00080FD03C08081832B80833196B1E0493072
:100BC0005B0729F7F501319780810E94140560E0E9
:100BD0008D2D0E947C180F5F1F4F0830110521F6E4
:100BE000C7010E943E05EBE6F2E085E0E80EF11C4D
:100BF00010E0D3018D913D019191891721F0DF0122
:100C000011978C9311E0E614F70499F7212F45E032
:100C100060E772E08BE692E00E949D180E946C18DB
:100C2000812F2596E1E10C94C932873941F178F49E
:100C3000863359F130F4843321F1853321F18FE18A
:100C400008958439D1F08639D1F781E20895843F3F
:100C500071F030F4803FD9F0813F89F781E0089549
:100C6000863F49F030F0873F51F787E0089584E0F0
:100C7000089585E0089586E0089580E2089582E26F
:100C8000089583E2089584E2089585E2089580E05E
:100C9000089596E890937A00982F907290689093B8
:100CA0007B008F7190910901892B80937C0080914A
:100CB0007A00806480937A0080917A0086FDFCCF70
:100CC000809178002091790090917A009F7790939D
:100CD0007A00922F08950E9415060E9449060895F1
:100CE0008091250190912601892B31F48091270173
:100CF00090912801892B91F070E060E080E00E94E3
:100D0000422370E060E081E00E94422310922601BD
:100D10001092250110922801109227010895A6E053
:100D2000B0E0E5E9F6E00C94BB329FEF980F943009
:100D3000A8F4162FE82FF0E0EE0FFF1FEA5BFE4F3E
:100D40008081918199838A830E947829682F4981C3
:100D50005A81792F81E0912F0E94740B2696E3E04F
:100D60000C94D73280912401882329F060E00E94FE
:100D70008F061092240108954F925F926F927F9296
:100D80008F929F92AF92BF92CF92DF92EF92FF929B
:100D9000CF93C0E1C12CD12C7601812C912C540130
:100DA00086EF0E946B06092E000CAA0BBB0B880E67
:100DB000991EAA1EBB1E87EF0E946B06092E000C0F
:100DC000AA0BBB0BC80ED91EEA1EFB1E8FE39FE1C8
:100DD0000197F1F700C00000C15011F780E1482EE3
:100DE000512C612C712CC501B401A30192010E9408
:100DF0004F3230931E0120931D01C701B601A3019C
:100E000092010E944F323093200120931F01CF9115
:100E1000FF90EF90DF90CF90BF90AF909F908F901A
:100E20007F906F905F904F900895A6E0B0E0EBE167
:100E3000F7E00C94B23280912201909123010E943C
:100E400090290A97B8F00E94782990932301809303
:100E5000220186EF0E946B067C0187EF0E946B06E1
:100E60008C0180911C01813009F45FC038F0823020
:100E700009F4F6C02696ECE00C94CE320E9470067F
:100E800080911D0190911E01E81AF90A80911F01BD
:100E900090912001081B190BC701809681349105A0
:100EA00028F4C80180968134910558F10833110562
:100EB00034F5093C8FEF1807B4F1E8E3EE16F104BE
:100EC000CCF4F9ECEF16FFEFFF065CF1A701F7FE9B
:100ED00004C0442755274E195F09C80117FF04C0F5
:100EE00088279927801B910B841795072CF41E14D3
:100EF0001F04BCF412E006C010161106A4F411E0A1
:100F000001C010E080912401811709F4B3CF60E0A3
:100F10000E948F0661E0812F0E948F0610932401AA
:100F2000A9CF14E0EFCF13E0EDCF0E94B2060E94EC
:100F3000700680911D0190911E01E81AF90A8091B6
:100F40001F0190912001081B190B9701F7FE04C0A7
:100F5000222733272E193F09C80117FF04C088270D
:100F60009927801B910B8217930708F03FC04C0113
:100F7000880C991C880E991EE3E096948794EA9554
:100F8000E1F7820E931E88E38816910408F472CF6D
:100F9000A0912101940127533109B0E00E948332CE
:100FA0002FEA30E040E050E00E942D326901121635
:100FB00013061CF0CC24C394D12CB12CA12C970186
:100FC000D6010E947B32A50194010E944F32213844
:100FD000EFEF3E074E075E07B4F0F22E20383105E2
:100FE0004105510594F02FE7F22E0FC04901880CFE
:100FF000991C820E931E63E0969487946A95E1F79C
:10100000880E991EC0CF31E8F32E22273327201BEC
:10101000310BD6010E947B32A50194010E944F3210
:101020002138FFEF3F074F075F07B4F02038310545
:10103000410551059CF4F11003C0222309F41ACF95
:10104000CE01019636E0FC0111923A95E9F7FB8258
:101050002C830E9420280ECF21E8F2CF2FE7F0CF7B
:101060000E94B206970150E040E080911D019091EE
:101070001E01281B390B410951094801B12CA12C33
:1010800060911F0170912001861A970AA108B1088A
:10109000E2E0F1E057FD02C0ECEEF0E0AFEFB1E0CE
:1010A0000E9499329F0150E040E00E944F32E12CB3
:1010B0009EEFF92E2115FEEF3F07FFEF4F075F0769
:1010C00054F07901211532404105510524F0EE24F8
:1010D000EA94FF24F394E6EEF0E0B7FE02C0E5E107
:1010E000F1E0AFEFB1E0A50194010E9499329F01B8
:1010F00050E040E00E944F322115EEEF3E07EFEF47
:101100004E075E070CF43FC02115F2E03F07410592
:101110005105B4F521158EEF3807A9F100271127E5
:10112000021B130BC701CC968937910510F4F12CE3
:10113000E12CC801CC968937910510F410E000E04D
:1011400080912501909126018E159F0541F4809193
:101150002701909128018017910709F48BCEF09216
:101160002601E09225011093280100932701B70181
:1011700080E00E944223B80181E00E9442237ACE9F
:101180002FEF31E0CBCF0FEF11E0CCCF80911C01DE
:101190000895A6E0B0E0EFECF8E00C94BB328330A9
:1011A00060F490911C01981741F0182F913061F074
:1011B00040F0923099F010931C012696E3E00C94D5
:1011C000D7320E94B206F7CFCE01019626E0FC018D
:1011D00011922A95E9F70E942028EDCF0E9470060F
:1011E000EACF809121010895809121018E3220F46F
:1011F0008B5F80932101089582E3FBCF80912101D1
:10120000482F4550550B1416150634F485504333BA
:1012100051051CF082E301C081E080932101089513
:1012200083E00895A6E0B0E0E8E1F9E00C94B9327B
:1012300060E08CED90E00E94C31E60E086ED90E0DF
:101240000E94C31E80919E010E94220B813009F4EE
:1012500059C060F0823009F459C0833009F45AC093
:1012600060E080EC90E00E94B11E05C060E082ED7D
:1012700090E00E94C31E60E08FEB90E00E94C31ECE
:1012800060E08BEB90E00E94C31E0E94C608813094
:1012900009F44AC008F442C0823009F449C00E94EF
:1012A000F1081F928F9380E591E09F938F931F9297
:1012B00086E0F82EFF928E010F5F1F4F1F930F9352
:1012C0000E94023360E0C8010E94AB1E809185013C
:1012D0001F928F9385E591E09F938F931F92FF92CA
:1012E0001F930F930E94023360E0C8010E94AB1E5F
:1012F0000FB6F894DEBF0FBECDBF80E02696E5E0C6
:101300000C94D53260E08EEC90E0B3CF60E08AECD4
:1013100090E0AFCF60E086EC90E0ABCF60E086EB92
:1013200090E00E94C31EBBCF60E081EB90E0F9CF5C
:1013300060E08CEA90E0F5CFA6E0B0E0E2EAF9E008
:101340000C94BA32082F162F0E945324882381F060
:1013500001110EC083E0898384E08A830E9478298A
:10136000682F49815A81792F81E0912F0E94740B57
:1013700080E02696E4E00C94D6320E94BC060895E4
:101380009C01FB018581882379F12231FEE73F072B
:10139000F1F040F42031EEE73E0761F021313E47A5
:1013A00089F0089523319EE73907B1F024313E4793
:1013B000B9F0089580E00E94C90881E0809385011A
:1013C00080E0089581E00E94C90882E0F7CF82E0C2
:1013D0000E94C90883E0F2CF0E94F40884E0EECFB7
:1013E0000E94FE0885E0EACF81E0089580918401A3
:1013F000811105C0219A299881E0809384010E947F
:10140000150708958430C8F46530B8F44830A8F45E
:10141000E62FF0E095E0899FE00DF11D112483E0B7
:10142000EE0FFF1F8A95E1F7E40FF11DEE0FFF1F8E
:10143000E351FF4F85919491089581E090E00895E4
:10144000843088F461110FC090E0880F991FE1E0AB
:10145000E427E80FF92FF11DEE0FFF1FE352FF4FB6
:1014600085919491089581E090E0089581E0089538
:101470000E94360A089581E008950E94C0090895E7
:1014800008950E94400A0895A6E0B0E0EAE4FAE078
:101490000C94BB3249835A839E8330918B0189819E
:1014A0009A8131111AC03E81332399F0222389F0A9
:1014B0000E941110182F682F89819A810E94DF0FD6
:1014C00069817A81812F0E941F172696E3E00C9490
:1014D000D7320E94F80F182FF3CF0E9411106981A4
:1014E0007A81F1CFFC01262F408151816281738185
:1014F000848195810E94440A0895CF93DF93EC0183
:1015000061E00E94720ABE010E94380ADF91CF9109
:101510000895CF93DF93EC0160E00E94720ABE0150
:101520000E94410ADF91CF91089508950E94DC0E38
:101530000E94950A2FEF84E39CE021508040904068
:10154000E1F700C0000008950E94960A0E94C52994
:1015500008950E94960A0E94E92908950F931F9307
:10156000CF93DF938C0161E00E94720AEC01B80115
:101570000E94F01B811106C080E0DF91CF911F9186
:101580000F910895B801CE010E943D0A8823A1F36E
:10159000B801CE010E946B27882371F3B801CE01F8
:1015A0000E941320882341F3B801CE010E94D9265E
:1015B000882311F3B801CE010E94D5218823E1F2DE
:1015C000B801CE010E94B6278823B1F2F8018581C7
:1015D000882361F0C330FCE7DF07E9F058F4C11558
:1015E000ECE7DE07A9F0C130DC47B9F0C8010E9482
:1015F0003B0AC3CFCB358CE7D807A9F0CC35ECE755
:10160000DE0771F0CA35DC4789F70E946A14EECF15
:101610000E94A40AB1CF0E9472140E94A90AACCF02
:101620000E946014E3CF0E946E14E0CF0E94F32862
:101630000E94520B0E94CB1F08950E94560B0E94DD
:10164000F8280895982F92959F7020E011F0892F27
:1016500024E0982F9695969511F02E5F892F982F5C
:10166000969509F02F5F822F0895089581E00895DF
:101670000895CF93DF93D82F0E94360BC82F88236D
:1016800019F08D2F0E94380B8C2FDF91CF91089588
:101690000895CF93C82F0E94350B8C2F0E94390BD1
:1016A000CF91089580E00E94490B08950E9405287B
:1016B0000E94490B0895CF930E940528C82F80915E
:1016C00086018C1779F0C09386010E94842960936B
:1016D0008701709388018093890190938A018C2FF0
:1016E0000E94490BCF910895ADE0B0E0EAE7FBE03E
:1016F0000C94BC32488759876A877B878C879D8783
:1017000091110E9498131F8286E0FE013896DE0137
:10171000119601900D928A95E1F78D8181110DC08E
:1017200029813A814B815C816D817E818F810E940C
:10173000C9122D96E2E00C94D832CE0101960E9497
:101740007D0A8111EDCFF5CFFC012481213021F4F8
:10175000808191810E943E100895662329F00E94A5
:1017600081190E94571A08950E94DB19FACFCF936E
:101770008823D1F0C82F8238C9F40E94122881FD35
:1017800013C089E30E944E130E94D1132FEF87EEFE
:1017900093E0215080409040E1F700C0000089E3D1
:1017A0000E9456130E94D113CF9108958338A1F45B
:1017B0000E94122880FDF8CF83E50E944E130E94FC
:1017C000D1132FEF81EE94E0215080409040E1F75B
:1017D00000C0000083E5E4CF8438A1F40E94122801
:1017E00082FDE2CF87E40E944E130E94D1132FEFB7
:1017F00081EE94E0215080409040E1F700C000006D
:1018000087E4CECF8CEF8C0F813A90F46C2F8091CF
:10181000290190912A010E946128882329F08C2FA8
:101820000E9456130E94D1138C2F0E944E13BACFE0
:1018300080E28C0F883048F4C77081E001C0880FC7
:10184000CA95EAF70E947913ADCF83E38C0F8331F9
:1018500008F0AACF61E08C2F0E94AD0BA5CF8823A2
:1018600009F444C0823879F40E94122881FF3EC0F6
:1018700089E30E944E130E94D11389E30E945613FC
:101880000E94D1130895833859F40E94122880FFD2
:101890002DC083E50E944E130E94D11383E5EECF45
:1018A000843859F40E94122882FF20C087E40E94E5
:1018B0004E130E94D11387E4E1CF9CEF980F913A29
:1018C000E8F290E2980F983050F4877091E001C0F0
:1018D000990F8A95EAF7892F0E947F13D1CF93E35E
:1018E000980F933118F460E00E94AD0B08951F9398
:1018F000CF93DF93182FEB010E94B70B209739F499
:10190000812F0E942F0CDF91CF911F9108958FE9B5
:101910009FE00197F1F700C000002197EFCF65E04D
:1019200070E0893311F460E570E00E94770C08954F
:10193000882321F00E9479130E94D11308958823EF
:1019400021F00E947F130E94D1130895B0E0A0E01F
:10195000ECEAFCE00C94B6326C01D62FC72FFC01E8
:101960001581068102950F700E946F13E82E88235F
:10197000E9F0E12E1123D1F08C2F807F803451F0DB
:1019800080E28D0F883060F1011104C08C2F807EC1
:10199000803231F180916A0282FF22C082E00E948F
:1019A00034140E946F1391E0E82EE926FC2EF29485
:1019B0009FE0F922FBE0FF1508F46BC1EF2DF0E08A
:1019C000EC51F34F0C946E32F20CF20C390D390DD0
:1019D000490EA30D490E490EA80D100E210E210E21
:1019E000E12CE4CF0C2F0F70C07F11F00295007F27
:1019F000112399F0002359F080E28D0F883010F008
:101A0000D11107C0802F0E9479130E94D1138D2F0E
:101A100051C0802F0E948A13F8CF8D2F0E942F0C67
:101A2000002379F080E28D0F883010F0D11104C0CE
:101A3000802F0E947F1303C0802F0E9490130E946A
:101A4000D113EE2089F00E946B1380FD0DC0F601CA
:101A500015820E9465130E94530FC6010E94AB0EAF
:101A60000E9465130E945F0FCDB7DEB7E8E00C94CB
:101A7000D2322C2F2F70F22EC07FC03219F0F29488
:101A800080EFF822DD2341F0D130D1F1112309F4A8
:101A900044C00023F1F0BBCF80916A0282FD15C0E3
:101AA000112359F0FF2029F08F2D0E9479130E94F5
:101AB000D11380E00E94B70BC4CF80E00E942F0CAE
:101AC000FF2009F4BECF8F2DB4CF112369F001118F
:101AD00004C08F2D0E94980CB4CF013009F0B1CF13
:101AE0008F2D0E94AF13ADCF0111ABCF8F2D0E9470
:101AF0009F0C8F2D0E94BB138F2D0E949F13A1CF8F
:101B0000112321F0063008F09CCFE3CF053008F018
:101B100098CF8F2D0E949F0C94CF0023D1F3D933FF
:101B200069F48FEF97EEE3E081509040E040E1F7F9
:101B300000C000008D2F0E942F0C83CF8FE19EE408
:101B40000197F1F7F5CF612F8D2F0E94AD0B79CF63
:101B50008C2F837091F5111122C04D2F429546951F
:101B60004770440F440F8D2F8F70042E01C0880FD3
:101B70000A94EAF720E0D4FF07C02FE030E001C06C
:101B8000220F4A95EAF72095822BC695C695C37019
:101B9000C23069F078F4C13039F00E942F0F0E94F2
:101BA00005280E94490B4DCF0E94290FF8CF0E94B3
:101BB000350FF5CF0E94260FF2CF8695112311F035
:101BC0008C2F8170882359F34D2F4295469547708D
:101BD000440F440F8D2F8F70042E01C0880F0A947C
:101BE000EAF720E0D4FF07C02FE030E001C0220F69
:101BF0004A95EAF72095822BC695C695C370C230E8
:101C000049F058F4C13019F00E947E0FC8CF0E94ED
:101C1000780FC5CF0E94840FC2CF0E94410FBFCF63
:101C2000CF70112339F08C2F0E94530F8D2F0E94FB
:101C3000980CB5CF8D2F0E949F0C8C2F0E945F0FA8
:101C4000AECFD23F79F170F4D03FD9F0D13F91F0CF
:101C5000112309F44FC0002309F449C08D2F0E94BD
:101C6000B70B17C0D33F29F1D43F91F780916A0297
:101C700082FD29C08C2F8F711123C1F00E94530F58
:101C800008C0112361F0053020F48C2F8F710E9461
:101C90006C0F88EF8F0D843008F0D3CE80CF0630E4
:101CA000C0F7F3CF8C2F8F71112341F30E945F0F88
:101CB000F0CF112329F08C2F8F710E944A0FE9CFAA
:101CC0000E94460FE6CF112349F0CF718C2F0E945E
:101CD000530F63E08C2F0E941614DBCF81E00E942B
:101CE00034140230B0F282E00E943414D2CF8C2F30
:101CF0008F71C4CF0023A1F0D93369F49FEFE7EED1
:101D0000F3E09150E040F040E1F700C000008D2F7B
:101D10000E942F0CBECF8FE19EE40197F1F7F5CF23
:101D20008C2F8F71C3CF0F931F93CF93DF93EC0151
:101D3000688179818D810E9449108C010E948A0FEF
:101D40000E94250FB801CE010E94A60CDF91CF9111
:101D50001F910F910895CF93DF93FC0124812223DB
:101D600099F0EC010E94AE0A811111C00E946F131C
:101D7000882351F08D81882339F080916A0282FF97
:101D800003C082E00E943414DF91CF910895CE0108
:101D90000E94930ECE010E94890AF6CF0E949813EA
:101DA0000E94D1130E94761A0E94571A08950E9429
:101DB0005E130E94CE0E08950E9487130E94D70ED4
:101DC000089592959F70963089F050F49250923019
:101DD00058F4803F19F030F4883E30F481E00895E3
:101DE0009A50F5CF843FD1F380E00895883EB0F358
:101DF000813FD1F7F3CFFC012481222339F0808188
:101E000091810E943E100E94E10E089580E00895A5
:101E1000A6E0B0E0EEE0FFE00C94BC322696E2E0F3
:101E20000C94D832A7E0B0E0E8E1FFE00C94BC32BB
:101E30002796E2E00C94D83208950E941C0F089572
:101E40000E941D0F80939F01089508950E94200F06
:101E5000089590919F01892B0E94200F08959091E1
:101E60009F0189230E94200F089590919F01892747
:101E70000E94200F08950E941C0F08950E943B0F9E
:101E800008950E943E0F80939E01089580E00E9475
:101E9000410F089591E001C0990F8A95EAF7892FC3
:101EA0000E94410F089521E030E001C0220F8A9581
:101EB000EAF780919E01822B0E94410F089521E054
:101EC00030E001C0220F8A95EAF7209580919E01AB
:101ED00082230E94410F089521E030E001C0220FCB
:101EE0008A95EAF780919E0182270E94410F08950A
:101EF00090919E01892B0E94410F089590919E011F
:101F000089230E94410F089590919E0189270E9484
:101F1000410F08950895262F277091E001C0990F71
:101F20002A95EAF723E0769567952A95E1F7FB0174
:101F3000EE0FFF1FE60FF71FE40FF51F50E040E024
:101F4000682F70E08191DF0111979B01042E02C080
:101F5000369527950A94E2F72170219528272923A1
:101F600028272C934F5F5F4F4330510559F7089551
:101F7000A82FA77023E0969587952A95E1F7FC0195
:101F8000EE0FFF1FE80FF91FE60FF71F50E040E0CC
:101F900080E0219130E00A2E02C0369527950A9400
:101FA000E2F721703327042E01C0220F0A94EAF7CA
:101FB000822B4F5F5F4F4330510559F70895282F0B
:101FC000862F953068F4283058F438E0939FB0019C
:101FD0001124620F711D4FE851E00E948B0F08958C
:101FE0009C5F9230E0F7622F70E04CE851E0F5CF53
:101FF000953070F4883060F448E0949F900111248B
:102000006FE871E0820F932F911D0E94B80F089521
:102010009C5F923020F46CE871E090E0F6CF80E0B5
:102020000895CF92DF92FF920F931F93CF93DF9388
:102030006C0100919E0180919F01082BC3E0D0E0CC
:1020400010E0FC2EC8010C2E02C0959587950A94CD
:10205000E2F780FD0CC02197A0F7F12C8F2DDF91C6
:10206000CF911F910F91FF90DF90CF900895B6010F
:102070008C2F0E943817019771F3F0CFCF93DF9325
:10208000EC010E941110BE010E943817DF91CF9120
:1020900008951F93CF93DF93EB0190918B019923C8
:1020A00039F0CB010E943E10DF91CF911F9108952E
:1020B000882369F0CB010E941110182F682FCE01E0
:1020C0000E94DF0FBE01812F0E943817EDCFCB0198
:1020D0000E94F80F182FF6CFE1E0F0E0DF0102C018
:1020E000AA0FBB1F6A95E2F7BD01DF0102C0AA0F6C
:1020F000BB1F4A95E2F76A2B01C0EE0F2A95EAF75B
:10210000962F9823961302C08E2B0895E0958E2368
:102110000895242F462F682F80919E010E946C10F5
:102120000E94410F08951F93CF93DF93C091A001A8
:1021300017E08091A1018C1304C0DF91CF911F9112
:102140000895D0E01C9FF0011D9FF00D1124EE5565
:10215000FE4F208131814281538164817581868166
:102160000E94120F2196C770E4CF2091DA013091BE
:10217000DB014091DC015091DD016091DE01709145
:10218000DF018091E0010E94120F0895CF93DF9349
:102190008091E001807F09F04DC08091DF018823AC
:1021A00009F448C0E091A0015091A101C091DB0168
:1021B000D091DA016091DC017091DD0147E05E179A
:1021C000C9F18E2F90E0E49FF0011124EE55FE4FEF
:1021D0002481222391F1489FF001499FF00D1124A1
:1021E000DF01AE55BE4F11962C9111972C1325C0CF
:1021F0002C912D1322C015962C91159721111DC0DD
:1022000012962D913C91261B370B283C3105A8F4E2
:102210008091E0018F7080618093E001E855FE4F6E
:1022200080818F70806180838AED91E00E94AB0E87
:102230000E949310DF91CF910895FC013196E770D1
:10224000BECF482F2091A0019091A10157E0291302
:1022500002C080E0089530E0529FF001539FF00DDE
:102260001124EE55FE4F8181681306C0808148130A
:1022700003C085818111EECF2F5F3F4F2770E7CFDD
:10228000A4E1B0E0E6E4F1E10C94B2328C0186E026
:10229000F801DE011F9601900D928A95E1F7F80191
:1022A0008481E5809AEDA92E91E0B92E9091DE010E
:1022B00091111FC08823D1F0EE20A9F0C8010E941F
:1022C000FB0EF82E882379F087E0F801D501019004
:1022D0000D928A95E1F7C5010E94A40B0E94C610D9
:1022E0000E94B5105FC0C8010E94AB0EFF24F3949A
:1022F00059C0C080D18082809380F090DF0120910E
:10230000DC013091DD01A401421B530BFF2009F4D5
:10231000F8C0483C510508F0A6C0882309F442C023
:102320009091DB018091E001282F207F09F05BC0B4
:10233000D91216C09091DA01C91212C0E1104DC035
:102340008F7080618093E0010E94B5108AED91E06A
:102350000E94AB0E8091E001F8018683F12C22C02F
:10236000E1103BC06D2D8C2D0E9421116D2D8C2D07
:102370000E942111E82E8111F1CFCF86D88A8F8556
:1023800098890E943E10292F22952F70243078F4CE
:102390009F702230A0F09923B1F0F8019681907FD0
:1023A00091F4FE2C8F2D6496ECE00C94CE322A50E2
:1023B000223068F0C8010E94AB0EEF2CF2CF9923B7
:1023C00011F0882371F3805E8830A0F7EACF803F58
:1023D00040F3815F833070F7E4CF8091E00181604A
:1023E0008093E001BBCFD91213C09091DA01C912DA
:1023F0000FC0E1100DC08683C8010E94AB0E87E0BC
:10240000F801AAEDB1E001900D928A95E1F768CF4D
:10241000C8010E94FB0E882309F465CFEE2009F461
:1024200062CF8091E001803288F02091DA01309112
:10243000DB01398728879B868A869091DE019C87FD
:102440001D868E87CE0108960E94AB0E87E0F801AC
:10245000AAEDB1E001900D928A95E1F70E94C610B5
:102460000E94B51043CF9091E001292F207FA1F465
:10247000682D9A8A898AA6017A899E2D0E94080F62
:102480008AED91E00E94AB0E87E0F50111928A95EA
:10249000E9F70E94B51062CF882309F483CF8091B9
:1024A000DB018D1110C08091DA01C8120CC0E1105F
:1024B0000AC09683C8010E94AB0E87E0F501119215
:1024C0008A95E9F76FCFC8010E94FB0E882309F4B3
:1024D0000ACFEE2009F407CF8091E001803208F4A2
:1024E000B5CF2091DA013091DB013A8329839C82B8
:1024F0008B829091DE019D831E828F83CE01019697
:10250000A3CF483C5105B8F5882309F4EFCEFE2C43
:10251000EE2009F4E8CE8091DB018D111EC0809180
:10252000DA01C8121AC08091E00180FD0DC0982F19
:10253000907F51F08683903F09F45ECF982F907F73
:10254000905F8F70892B57CF87E0F801AAEDB1E03B
:1025500001900D928A95E1F725CFC8010E94FB0EEC
:10256000811174CF8091E00181608093E001C80106
:102570000E94AB0E17CF682D9A8A898AA6017A89A4
:102580009E2D0E94080F87E0F50111928A95E9F7C8
:10259000A7CEAEE0B0E0EFECF2E10C94BB322887BE
:1025A00039874A875B876C877D878E87CE0108963F
:1025B0000E9440118823B1F16C85662341F0288583
:1025C00039854A855B857D858E850E94120F17E0CF
:1025D0008091A0019091A101891709F45BC0819FAE
:1025E000C00111248E559E4F0E944011882309F48A
:1025F00051C0E091A0011E9FF0011124EE55FE4F45
:1026000020813181428153816481758186810E945C
:10261000120F8091A00190E0019687709927809316
:10262000A001D6CF87E0FE013896DE011196019019
:102630000D928A95E1F78C85882349F22091A101BA
:1026400030E0C9010196877099274091A001481791
:10265000190699F097E0929FD001939FB00D112435
:10266000AE55BE4FFE01319601900D929A95E1F75D
:102670008093A1010E949310AACF0E94DC0E1092B9
:10268000A1011092A00187E0EAEDF1E0DF011D92C7
:102690008A95E9F72E96E3E00C94D732682F809163
:1026A000290190912A010E9497280895682F80910E
:1026B000290190912A010E949A2808958091290168
:1026C00090912A010E949D2808958091E9018695A4
:1026D0008695869508958091E90187700895909177
:1026E000E901977081E009F480E008958091F50197
:1026F00008959091F501892B8093F5010895982F05
:1027000090958091F50189238093F50108951092A9
:10271000F50108959091F401892B8093F4010895B7
:10272000982F90958091F40189238093F401089566
:102730001092F401089508950E949B1308959091BA
:10274000EA01292F282331F0809589238093EA011B
:102750000E949C13089508950E94AB1308959091D0
:10276000EB01292F2823281729F0982B9093EB01B0
:102770000E94AC1308959091EB01292F282331F08A
:10278000809589238093EB010E94AC13089580917A
:10279000EB01882329F01092EB0180E00E94AC133A
:1027A0000895CF93DF93E0912901F0912A01809160
:1027B000F5018083E0912901F0912A0180819091B7
:1027C000F401892B80839091EB01992381F0E091B2
:1027D0002901F0912A018081892B80838091290130
:1027E00090912A010E94552881110E94C713C0911F
:1027F0002901D0912A0148E050E061EE71E0CE015C
:102800000E94EC32892B59F088E0FE01A1EEB1E084
:1028100001900D928A95E1F7CE010E941528DF9173
:10282000CF91089508950E941214089590916A021C
:1028300092FF11C098E0899F90011124622B609350
:10284000E9010E94530F8091E9018695869586954E
:102850000E94131408950E94530F08951092E901E5
:1028600080E00E94131408959091E90180958923D6
:102870008093E901282F277069F4891759F0909106
:102880006A0292FF07C08695869586950E945F0F23
:102890000E942E14089590916A0292FB222720F93B
:1028A000281769F080FB92F990936A02809169027F
:1028B00090916A020E94941482E00E943414089558
:1028C00080916A0282FB882780F991E089270E9423
:1028D0004B14089581E00E944B14089580E00E94FB
:1028E0004B1408956FEF7FEF90E080E00E94EC358D
:1028F000089590E080E00E94B835863E9E4F19F41E
:102900000E948A1B089580E0089582E090E00E9472
:10291000B035089583E090E00E94B035089584E0DA
:1029200090E00E94B8350895BC0184E090E00E94D8
:10293000EC350895AB01BC018FE090E00E94E035DA
:102940000895AB01BC0183E190E00E94E035089559
:1029500060E070E0CB010E94A114089560E070E097
:10296000CB010E949A140E94A8140895A8E0B0E038
:10297000ECEBF4E10C94BC3266EE7EEF90E080E08C
:102980000E94EC3560E082E090E00E94CE3560E08D
:1029900083E090E00E94CE3510929F0160E074E1E8
:1029A00084E090E00E94EC3560E086E090E00E94D8
:1029B000CE356FEF87E090E00E94CE3540E050E0EA
:1029C000BA0188E090E00E94E03560E084E290E0A7
:1029D0000E94CE3560E087E190E00E94CE3560E055
:1029E0008CE090E00E94CE3560E08DE090E00E94A7
:1029F000CE3519821A821B821C821D821E821F8282
:102A0000188648E050E068E170E0CE0101960E942F
:102A1000BE3540E050E0BA0180E290E00E94E0352F
:102A200080E00E94A31B0E94D21B0E94AE14289635
:102A3000E2E00C94D8320E94B6140895682F8EE01C
:102A400090E00E94CE350895A6E0B0E0EAE2F5E11C
:102A50000C94BA320E9478298C018091F6019091F1
:102A6000F7018017910781F019821A820E94782954
:102A7000682F49815A81792F80E090E00E94740B81
:102A80001093F7010093F6012696E4E00C94D632F9
:102A90000E948429609305027093060280930702C6
:102AA00090930802609301027093020280930302E4
:102AB0009093040208950E94842960930502709304
:102AC000060280930702909308026093FD017093C1
:102AD000FE018093FF0190930002089508950895E8
:102AE0000E946E1508950E94BD09089580E398E143
:102AF0000E94F5180E946F150E947015089581E0DC
:102B000008950E947F1508950E947F1508950895E5
:102B10000E9487150E94F60908950E944C180E9491
:102B2000480B08950E946F290E94E21B0E9478239F
:102B30000E947F180E948D1580E00E94621D0E94F5
:102B4000B0240E947315089580E00E9461240895C6
:102B5000A6E0B0E0EEEAF5E10C94B2320E948115F5
:102B6000C82E811111C00E942415C12C0E94A415E9
:102B70000E949623882309F45DC00E945B150E9481
:102B8000E91F0E94C91E5AC00E945D0588EFA82E49
:102B900081E0B82E750110E0F70101917F01812FCE
:102BA0000E946F181F5F153009F441C00817A1F388
:102BB0008091090281FD0E9475180E948415982E4B
:102BC00010E088248394812F0E946F18082FF5014C
:102BD00081915F01081729F1F12CEE24E394D02EA6
:102BE000D8268D2D8E21A9F0992099F0F9821A838B
:102BF0000E9478299C838B838D8291E0802F8E2187
:102C000009F490E049815A816B817C818D810E9419
:102C1000740BF394EE0CF8E0FF12E3CFF50131975B
:102C200000831F5F153079F60E9448159FCF081367
:102C3000BFCF99CF0E94E91FC110A3CF0E94981A5D
:102C40000E946E230E945B0B2696ECE00C94CE3221
:102C50001F93CF93DF930E943D17EC01C11582E5CE
:102C6000D80708F03FC0C11590E5D90708F0BEC0ED
:102C7000C83ED105C0F4C03ED10580F4C53AD105A7
:102C800048F4C430D10550F4C130D10539F0D0E05A
:102C9000C0E004C0CD3CD105D0F3D065CE01DF91BA
:102CA000CF911F910895C11580E4D80708F053C053
:102CB000C11590E2D90708F0B1C0C11581E0D8076D
:102CC00030F38D2F0E94E117182FCE0199270E9413
:102CD0003D17C12FD0E0DC2FCC27CC27DF71C82BCC
:102CE000D92BDCCFC03892E5D907A8F4C03682E5ED
:102CF000D80708F061C0C03492E5D90708F047C092
:102D0000C03282E5D80778F1CF71D0E0DC2FCC2734
:102D1000C16FD06AC3CFC03C92E5D90780F48C2F35
:102D20008F71C03AD24508F45AC00E94E117C82FEB
:102D3000D0E0DC2FCC27CC27DF71D062AFCFC03EF4
:102D400082E5D80708F0A3CFDC2FCC27CC27DF7192
:102D5000C06FD06AA3CFCE0199270E943D17CC2720
:102D6000DF70D06ABCCF2C2F2695269590E2299F44
:102D7000900111248C2F8370C1E0D0E002C0CC0FF1
:102D8000DD1F8A95E2F7C22BD32BDD6887CF2C2F6E
:102D900026952695277080E2289F900111248C2F7C
:102DA0008370C1E0D0E002C0CC0FDD1F8A95E2F74E
:102DB000DC68C22BD32B72CF2C2F2695269527703B
:102DC00090E2299F900111248C2F8370C1E0D0E004
:102DD00002C0CC0FDD1F8A95E2F7DA68EACFC82F70
:102DE000D0E0DC2FCC27C46FD06A58CF8C2F8F71E6
:102DF0000E94E11755E0D695C7955A95E1F7CF7037
:102E0000D0E0DC2FCC27282F30E084FF05C044E041
:102E1000220F331F4A95E1F7D069CBCF8D2F8F71E9
:102E20000E94E117182FCE0199270E943D17C12F4C
:102E3000D0E0DC2FCC27CC27DF71906250CF462F1B
:102E4000672F753028F4483080F40E94E6250895F5
:102E50007D3F39F4411109C041E060E00E94F22554
:102E600008957C3F11F44423C1F390E080E008957D
:102E70000E941F170E942816089582389105B9F103
:102E8000B0F48133910509F47DC048F4893291058D
:102E900009F46DC08A32910509F479C0089585332B
:102EA000910509F45FC08933910509F10895833EC6
:102EB0009105D9F138F4803E910529F1823E9105C2
:102EC00079F10895863E9105D9F1873E910509F47F
:102ED0003EC0843E910541F520916A0221FF24C045
:102EE0008091690284FD19C087EE90E008952091D9
:102EF0006902237009F056C020916A0223FF14C0B2
:102F000089E290E008952091690220FD38C0309157
:102F10006A0230FF09C024FF3FC090E080E00895BE
:102F20002091690222FDF7CF08952091690222FDC8
:102F300036C030916A0230FD35C024FDEECFF4CFAB
:102F40002091690223FFF0CF24FDE7CFCDCF209160
:102F5000690223FD2AC030916A0231FFEECF84EE70
:102F600090E008952091690225FDCACF089520912F
:102F7000690225FD1DC020916A0223FFD5CF89E398
:102F800090E008952091690226FD15C008952091D2
:102F9000690226FD13C0089583EE90E0089582EE45
:102FA00090E0089580EE90E0089586EE90E0089518
:102FB00085E390E008958AE290E0089581E390E04F
:102FC000B3CF9091690292FF10C041E0282F247185
:102FD000243009F040E031E0282F2871283009F032
:102FE00030E0431711F02CE0822793FF10C041E03E
:102FF000282F2471243109F040E031E0282F287176
:10300000283109F030E0431711F02CE0822730918D
:103010006A0230FF10C051E0282F2171213009F0E1
:1030200050E041E0282F2871283009F040E0541783
:1030300011F029E0822731FF10C041E0282F2171D3
:10304000213109F040E031E0282F2871283109F0C2
:1030500030E0431711F029E0822794FD877E089520
:1030600080E008950E94721408950E945D058FE328
:103070009CE90197F1F700C000000E945D0580E027
:103080000E946F1880FF04C00E9432180E94C52958
:1030900008950E94351808950E947914811102C084
:1030A0000E941B150E948514809309020E948F14B0
:1030B00090936A02809369020E9449180E948A14C0
:1030C0000E94260F80919E010E943E0F0895089550
:1030D0000E946718089508950E946B180895E82FBC
:1030E000F0E0E059FD4F80810895089580EA8A95C7
:1030F000F1F7089500C008950E94761808950E947F
:103100003F05ABE6B2E01C92E0E7F2E010821196D8
:103110001C921197118212961C921297128213968A
:103120001C921397138214961C92148285E00E94BD
:103130009C180E94681808950895CF92DF92EF922C
:10314000FF920F931F93CF936C017B01042F2223D7
:1031500049F081E080930C020E94782990930B0241
:1031600080930A02C0910C02C1110AC0C0E08C2FEA
:10317000CF911F910F91FF90EF90DF90CF90089526
:1031800080910A0290910B020E949029059770F39A
:1031900010E0A801B601C7010E94EC32892B41F072
:1031A000A801B601C7010E94F93210920C02DFCFCC
:1031B000C0E0FBCF0E94542C0E9492150E94612C0B
:1031C00008950E94662C0E94A8150E94802C0895E4
:1031D0000E940F290E943A2C0E9476150E94DA184C
:1031E0000E94E1180E948815FBCF90938301809381
:1031F00082010895282F35EB2303C001112497FF86
:1032000004C080589109892F089580589F4FFBCFA3
:103210008091130280FF0DC06091300170E0660F55
:10322000771F6038710580F56115710579F1862F7A
:10323000089581FF07C06091300184E0689FB0016C
:103240001124EFCF82FF04C06091300188E0F6CFF7
:10325000209112022223A9F090912F016091300158
:1032600088E0689FB00111242917D8F6269FA00195
:10327000279F500D1124692F70E0CA010E94193256
:10328000D0CF68E070E0D3CF8FE7089581E0089554
:103290008091130280FF0CC060912C0170E0759545
:1032A0006795759567956115710549F1862F0895A4
:1032B00081FF06C060912C0170E075956795F3CF92
:1032C00060912C0182FD0BC0909111029923A1F015
:1032D00060912B0180912C01961738F0682F70E0D7
:1032E0006038710500F38FE70895899FC0011124AC
:1032F00070E00E941932F4CF61E070E0D7CF81E036
:1033000008958D3C31F40E9408198195809317022D
:1033100008958E3C19F40E940819F8CF8F3C31F4BF
:103320000E9408198195809316020895803D19F432
:103330000E940819F8CF893D29F40E94481980930A
:10334000180208958A3D21F40E9448198195F7CF0B
:103350008B3D31F40E94481981958093190208959C
:103360008C3D19F40E944819F8CF9FE2980F9830CD
:1033700070F4815D990B21E030E001C0220F8A9545
:10338000EAF780911502822B8093150208958D3DF6
:1033900031F48091130281608093130208958E3D71
:1033A00021F4809113028260F7CF8F3DB9F78091AD
:1033B00013028460F1CF8D3CD9F49091170297FFEE
:1033C0001DC01092170280911602811106C08091D3
:1033D0001702811102C0109212028091180281110D
:1033E00006C080911902811102C010921102089545
:1033F0008E3CD9F49091170219161CF39FE2980F96
:10340000983008F03FC0815D990B21E030E0A901C0
:1034100002C0440F551F8A95E2F7CA01809590912A
:103420001502892380931502CECF909116028F3C0E
:1034300029F497FFE3CF10921602C5CF803D19F40F
:103440001916CCF3DBCF90911802893D29F4191697
:10345000ACF610921802B7CF8A3D19F497FFCECF81
:10346000F8CF8B3D39F49091190297FFC7CF109296
:103470001902A9CF8C3D09F0C1CF909119021916FC
:10348000B4F3BCCF8D3D31F4809113028E7F8093D5
:10349000130299CF8E3D21F4809113028D7FF7CFD7
:1034A0008F3D09F090CF809113028B7FF0CF0E9467
:1034B000782920911602211104C02091170222239D
:1034C00021F09093100280930F0220911802211195
:1034D00004C020911902222321F090930E028093C0
:1034E0000D0284E192E00E942028089586E0E4E144
:1034F000F2E0DF011D928A95E9F710921202109214
:103500001102109213020895FC01828181110EC0F4
:10351000838181110BC08481811108C091E0858174
:10352000811101C090E0892F8170089581E0FCCF66
:10353000A6E0B0E0EEE9FAE10C94BB3286E0E4E10B
:10354000F2E0DE01119601900D928A95E1F710925A
:1035500016021092170210921802109219028B8113
:10356000811103C08C81882389F080910F02909192
:1035700010020E949029AC01909112029923D9F176
:10358000809131018417150608F442C08D818111A4
:1035900003C08E81882391F080910D0290910E02DC
:1035A0000E949029AC0190911102992309F46AC0FC
:1035B00080912D018417150608F472C0BE016F5F5B
:1035C0007F4F84E192E00E94A428811105C084E12C
:1035D00092E00E94841A81110E94571A86E0FE012F
:1035E0003196A4E1B2E001900D928A95E1F726961A
:1035F000E3E00C94D732209132018AE0289F9001B9
:1036000011242417350710F69F5F9093120202C011
:103610009F3FD1F71B81112359F00E9408199FEF9A
:1036200011160CF491E0899F802D112480931602CD
:103630001C81112359F00E9408199FEF11160CF4F8
:1036400091E0899F802D11248093170280911602AA
:10365000882309F49BCF10911702112309F496CF08
:103660000E94FA18882351F080931602812F0E943D
:10367000FA18882329F08093170288CF81E0F4CFCD
:1036800081E0F9CF20912E018AE0289F900111243A
:103690002417350708F092CF9F5F9093110202C064
:1036A0009F3FD1F71D81112359F00E9448199FEFC8
:1036B00011160CF491E0899F802D1124809318023B
:1036C0001E81112359F00E9448199FEF11160CF426
:1036D00091E0899F802D1124809319028091180216
:1036E000882309F46BCF10911902112309F466CFD6
:1036F0000E94FA18882351F080931802812F0E94AB
:10370000FA18882329F08093190258CF81E0F4CF6A
:1037100081E0F9CF85E290E00E94B035863289F4ED
:1037200086E290E00E94B035883059F487E290E05C
:103730000E94B03591E0823109F090E0892F8170CC
:10374000089580E0FCCFCF93C82F6FEF811166E220
:1037500085E290E00E94CE356FEFC11168E086E20D
:1037600090E00E94CE356FEFC11162E187E290E0F8
:103770000E94CE35CF910895089588E290E00E948E
:10378000B035682F70E090E080E008950895CF9301
:10379000C62F0E94C61B6C2F88E290E00E94CE3597
:1037A000CF91089580E00E94A31B60E070E0CB0100
:1037B0000E94C71B0E946A250E94492681E00E9440
:1037C000A31B08950E94BC1B0E94BD1B0E94C61B28
:1037D0000E948A1B811102C00E94D21B0895089585
:1037E0009C01FB018581882351F0A901575740387E
:1037F000510530F4C9010E94592680E0089581E006
:1038000008952FEFFC01208308950E94011C089564
:1038100080E00895B0E0A0E0E0E1FCE10C94B43277
:10382000EC01F62E0E94081C81113EC0E881E15097
:10383000E53120F5F0E0E15EF34E0C946E32341C7D
:10384000381C771C891C911C9C1C9F1C9F1C9F1C56
:103850003E1C3E1CA41CA81CAC1CB91CC61CC91CCC
:10386000CC1CD91CE61CF01C19828CE08A8318C081
:1038700089818230F1F028F4813061F08FEF888304
:103880000FC08330C9F08430C9F71A821B821C82B2
:103890001D8206C00E9484299A838B837C836D835A
:1038A0006F2DCE010E94232BCDB7DEB7EAE00C943A
:1038B000D0320E94BD1BF0CFEA806E0183E0C80EBB
:1038C000D11C10E000E0AE2CB12CC501800F911F7F
:1038D000059730F78E2D800F0E946F18F6018193A7
:1038E0006F010F5F1F4F0C31110579F7D9CF898117
:1038F000823031F0853011F68A810E94EF1BD0CFE3
:103900006A817B818C819D810E9474320E94C71BD9
:10391000C7CF4B816A8189810E94CF249C838D838C
:10392000BFCF2C813D813227232732274B816A81EB
:1039300089810E94F124B4CF0E946A25B1CF6F2DF6
:10394000CE010E94051CACCF0E94FC258983A8CF24
:103950000E94FE2599838ACF6B8170E089819A81CC
:10396000AE014C5F5F4F9827892798270E94012658
:1039700097CF6B8170E089819A81AE014C5F5F4F78
:103980009827892798270E9424268ACF0E944926B3
:1039900087CF0E94BB24DACF6B8170E089819A8146
:1039A000AE014C5F5F4F9827892798270E94A0257A
:1039B00077CF6B8170E089819A81AE014C5F5F4F58
:1039C0009827892798270E94C2256ACF41E08B81DA
:1039D000811101C040E06A8189810E940C259ECF3F
:1039E0002C813D8132272327322741E08B818111B1
:1039F00001C040E06A8189810E943F2551CFAB011F
:103A000024E630E0BC0188E70E94942A21E0892B5B
:103A100009F020E0822F0895B0E0A0E0E2E1FDE1AE
:103A20000C94B6326C017B0164E670E088E70E947A
:103A3000FA298C01E601EC0CFD1CCE15DF0561F4C2
:103A40000E94DC2A81E00115110509F080E0CDB764
:103A5000DEB7E8E00C94D23217FDF2CFFE0184917C
:103A600064E670E00E94662A8C012196E6CF0F93EF
:103A70001F939B0104E610E0AC0160E488E70E941C
:103A8000B52A21E0892B09F020E0822F1F910F91A8
:103A900008950E94F42908950895E5E7F2E080E092
:103AA00092E0DF019C011D9221503040E1F7F0933C
:103AB0007A04E09379048FEF9FEF9093460280930E
:103AC00045020895CF930E944C1D0E9410098093D7
:103AD000410280FD11C080E8809340020E94491D90
:103AE0006BE070E088E492E00E940C1D811106C03A
:103AF000C0E08C2FCF91089580E2EECF80914102FB
:103B000065E070E081FD27C083E492E00E940C1D17
:103B1000882371F36DE070E081E392E00E940C1D58
:103B2000C82F882329F30E948429605A75418F4F3A
:103B30009F4F6093750470937604809377049093FD
:103B400078040E944D1D81E08093440280934302DB
:103B500010924202CECF8EE392E0D8CF2091400265
:103B600036E0839FC0011124629F800D911D1124B6
:103B7000811522E0920714F090E080E08B589D4F71
:103B800090937A0480937904089520917904309178
:103B90007A042F56324040914002642F70E0C901F0
:103BA0000E940532481B463010F4240F311D2115A8
:103BB00082E0380710F030E020E02B583D4F309382
:103BC0007A042093790408951F93CF93DF93162FDF
:103BD0008A3039F481E00E945D1EDF91CF911F9100
:103BE00008958D3011F480E0F6CFC0917904D09122
:103BF0007A0496E0FE01AAE1B2E001900D929A9556
:103C0000E1F7803EB8F086E0FE0111928A95E9F76F
:103C100011111CC0C0917904D0917A0446E050E0A3
:103C2000BE018AE192E00E94EC32892BE9F40E9405
:103C3000C51DD3CFF6E08F9FB00111246D5A7D4F83
:103C400046E050E0CE010E94E332E2CFE0917904F9
:103C5000F0917A049F012A5F3F4F2E173F07D1F260
:103C6000808180958193F9CFC557D240CE0125E060
:103C7000969587952A95E1F721E030E0A90102C0E9
:103C8000440F551F8A95E2F7CA01409145025091B1
:103C90004602842B952B259645E0D695C7954A95E7
:103CA000E1F702C0220F331FCA95E2F7822B932B54
:103CB0009093460280934502BACFCF93382FE0917C
:103CC0007904F0917A04E557F24020914002622F86
:103CD00070E0CF010E940532281B822F332369F048
:103CE00066E00E94F931C82FC15010F4CF910895B9
:103CF00060E080E20E94E41DF7CF9F01280F311D94
:103D00002115324018F080E0F0E0E0E08E0F9F2FA8
:103D1000911D8B589D4F90937A0480937904E6CF40
:103D2000FF920F931F93CF93DF93EC01F62EFC01CC
:103D300001900020E9F78F0101501109C017D10748
:103D400028F0CDB7DEB7E5E00C94D5326F2D899120
:103D50000E94E41DF3CF0E94901E81E00E945D1E30
:103D600008951F93CF93DF93EC01162FFE018491EA
:103D7000811104C0DF91CF911F910895612F0E949E
:103D8000E41D2196F3CF0E94B11E81E00E945D1ECA
:103D9000089580914402811103C0809143020895E7
:103DA0000E948429605A75418F4F9F4F609375041C
:103DB0007093760480937704909378048091430203
:103DC0008111EBCF62E070E08FE292E00E940C1D67
:103DD000882319F381E080934302DFCFB0E0A0E0B5
:103DE000E4EFFEE10C94B0328091450290914602DE
:103DF000892B09F4B3C080914402882309F4AEC032
:103E0000809142028111AAC00E94C91E20914502E0
:103E1000309146022115310509F4A0C090E041E03F
:103E200050E0092F10E03A01092E02C0660C771C01
:103E30000A94E2F7B30162237323672B11F49F5FA7
:103E4000F0CF8091410280FF8EC0990F990F990F9A
:103E50009093350110923801995F9093360183E079
:103E60008093390167E070E083E391E00E94FF1CDA
:103E7000882309F473C0A80185E0440F551F8A9573
:103E8000E1F78091410280FF80C0E0E2F2E080E251
:103E9000DF011D928A95E9F7AEE5B1E00AE511E090
:103EA000882483942D91E80169918E01640F752F08
:103EB000711D6B587D4F30E0205E3D4FF90187E06A
:103EC0007F01E21AF30A982C01C0990CEA94EAF7F0
:103ED0007B01B12CE70199917E019921A82EAB18A5
:103EE000DA2DD770CD2E0D2E000CDD08C92F01C0A4
:103EF000CC0FDA95EAF7AC2ED194C194D108D7E073
:103F0000CD22DD240C2C01C096950A94EAF7DC2E14
:103F1000D92A90819D299083B39498E0B912DACF81
:103F2000815031968F3F61F6C1E0A236BC0709F09F
:103F3000B9CF60E270E080E292E00E94371D8823F2
:103F400069F0E301C095D0958091450290914602B9
:103F5000C823D923D0934602C0934502CDB7DEB71C
:103F6000EEE00C94CC329295990F907690933501B7
:103F70009801369527953695279520933801915EBF
:103F800090933601209339016DCF60E270E0CA0151
:103F90008B589D4FD2CF8091430290914402911152
:103FA00003C091E089270895882369F062E070E0FA
:103FB0008DE292E00E940C1D811103C080914302AA
:103FC00008951092430280914302EBCF0E941209A0
:103FD00008950F931F9380914402882309F160E0B4
:103FE00080E00E94AE1D0E94E61F0E94EE1E80919E
:103FF00043028823A9F00E9484290091750410913E
:1040000076042091770430917804601B710B820B49
:10401000930B6F3F7F4F8F4F9F4710F40E94CB1F32
:104020001F910F910895CF93DF93EC01FB018581E0
:10403000882309F4F5C09E0130572332310508F07A
:10404000D5C00E948F1490936A0280936902FE018A
:10405000E150F047E232F10508F026C0EE5CFF4D7A
:104060000C946E328E2002219620602064209A20CB
:1040700068209E20AA207420FB207820AE207C207F
:10408000B220DA208020B620E1208620BC20C42087
:104090006C20A2207020A6208A20C020D020EA20F8
:1040A000F9205A2092200921809169028160809331
:1040B000690293C080916A02886080936A028DC011
:1040C000809169028260F3CF809169028460EFCFB2
:1040D000809169028860EBCF80916A028160EDCFA8
:1040E00080916A028260E9CF809169028061DFCFAE
:1040F000809169028062DBCF809169028064D7CFB2
:104100000E94DC0E809169028068D1CF80916902A3
:104110008860DCCF80916A028260E0CF8091690282
:104120008E7FC5CF80916A02877FC7CF8091690259
:104130008D7FBDCF809169028B7FB9CF809169025D
:10414000877FB5CF80916A028E7FB7CF80916A0258
:104150008D7FB3CF809169028F7EA9CF8091690254
:104160008F7DA5CF809169028F7BA1CF0E94DC0E4D
:10417000809169028F779BCF80916902877FDCCF26
:1041800080916A028D7FE0CF8091690282FB99273E
:1041900090F921E0922790FB82F990FB83F987CF79
:1041A00080916A02982F909591708E7F892B90FB59
:1041B00081F983CF90916902892F8F7B96FF80646C
:1041C00076CF0E94DC0E90916902892F97FB87F9C8
:1041D00080586DCF81E00E941E15809169029091F8
:1041E0006A020E9494140E94DC0E80E0DF91CF915D
:1041F000089580E0F0CF90916902892F8F7E94FF1F
:10420000806155CF90916902892F8E7F90FF8160E8
:104210004ECF90916A02892F877F93FF88604DCFA0
:1042200081E0E4CFB0E0A0E0E8E1F1E20C94B73245
:10423000E82FF0E0ED56F84FD490282F26952695DC
:10424000269530E0F901ED5CF74F0491877010E09E
:10425000082E02C0159507950A94E2F70170112700
:10426000F901ED5DF74FE490F12C082E02C0F594B2
:10427000E7940A94E2F791E0E922FF24F901ED5E68
:10428000F74FC491D0E002C0D595C7958A95E2F763
:10429000C170DD270115110519F081EE0E94B70BE1
:1042A000E114F10419F086EE0E94B70B8D2D0E94E7
:1042B0008F0CE114F10419F086EE0E942F0C011509
:1042C000110519F081EE0E942F0CCD2B19F08CE214
:1042D0000E948F0CCDB7DEB7E7E00C94D332EF929B
:1042E000FF920F931F93CF93DF93EC01162F0AE0F9
:1042F0008881882309F454C0813009F04EC0898137
:10430000813099F47E0122E0E20EF11C8A810E9444
:104310008F0CE7012196812F815050F3EFE9FFE0E8
:104320003197F1F700C00000F7CF823041F47E01F1
:1043300082E0E80EF11C8A810E94B70BEACF83303D
:1043400041F47E01E2E0EE0EF11C8A810E942F0C06
:10435000E0CF843011F02196DDCF2A81229690E0C3
:1043600080E0AE014F5F5F4F2053330B2A303105A1
:1043700048F0019778F2EFE9FFE03197F1F700C0DC
:104380000000F7CF089FB001099F700D1124C901EB
:10439000860F971F2981EA01E4CF0E941221BACF2C
:1043A000CDB7DEB7E6E00C94D432CF939C013457FE
:1043B000C1E02034310538F4FB01C581CC2331F054
:1043C0000E94F421C0E08C2FCF9108950E940D220D
:1043D000FACF80914F02882331F087E492E00E9467
:1043E0002E2810924F0208958032B0F4E82FE695FF
:1043F000E695E695F0E0E95BFD4F877021E030E05F
:1044000001C0220F8A95EAF78081822B808381E0A8
:1044100080934F020E94E92108958032C0F4E82F72
:10442000E695E695E695F0E0E95BFD4F282F2770CD
:1044300081E090E001C0880F2A95EAF7809590818D
:104440008923808381E080934F020E94E9210895AF
:104450008F929F92AF92BF92CF92DF92EF92FF9294
:10446000CF93DF93823008F00AC1482F50E029E053
:10447000829FF0011124E65FFE4F8181A82FA29553
:10448000AF70B0E092969C9192978F7061E070E06F
:104490009B0101C0220F8A95EAF720952923929665
:1044A0002C938181A82FA295AF70B0E091969C913A
:1044B00091978F709B0101C0220F8A95EAF7892F8F
:1044C000822B91968C9385E38A95F1F70000908179
:1044D0009F3F01F1A92FA295AF70B0E091968C910A
:1044E00091979F709B0101C0220F9A95EAF7822B4A
:1044F00091968C939081E92FE295EF70F0E022A1E4
:104500009F70DB0102C0AA0FBB1F9A95E2F7CD0195
:10451000822B82A389E0849FF001859FF00D1124F6
:10452000E65FFE4F22812F3F09F1A22FA295AF70C7
:10453000B0E091963C9191972F7081E090E0BC01A2
:1045400001C0660F2A95EAF7232F262B91962C930C
:104550002281E22FE295EF70F0E032A12F7001C0CE
:10456000880F2A95EAF78095832382A3B5E3BA954D
:10457000F1F7000089E0849FE001859FD00D1124B0
:10458000C65FDE4F3981E32FE295EF70F0E041A185
:104590003F7081E090E0BC0102C0660F771F3A9542
:1045A000E2F79B012095242321A32981E22FE295A4
:1045B000EF70F0E032A12F7001C0880F2A95EAF762
:1045C0008095832382A375E37A95F1F700008981B2
:1045D0000E946B068D809E80B12CA12C092E000CB0
:1045E000AA0BBB0B6C017D01C818D908EA08FB08AF
:1045F000A1E0BEEFA70196010E94A7322B813C816A
:1046000050E040E0281939094A095B090E944F32FD
:10461000121613061406150684F4AFEFB1E0A701D5
:1046200096010E9499322F81388550E040E0281988
:1046300039094A095B090E944F32DA01C901813008
:104640002EEF92072FEFA207B20724F481E09EEF2E
:10465000AFEFBFEF811562E09607A105B10524F029
:104660008FEF91E0A0E0B0E0DF91CF91FF90EF906D
:10467000DF90CF90BF90AF909F908F90089590E083
:1046800080E0F2CF823080F4E82FF0E0EE0FFF1FE1
:10469000E55BFD4F808191818617970729F0718333
:1046A000608381E080934F02089580910B018F3FDA
:1046B00039F080E00E942822BC0180E00E94422361
:1046C000809114018F3F39F081E00E942822BC01C3
:1046D00081E00E9442230E94E92108950E9455230F
:1046E00008958FE891E00197F1F700C00000089568
:1046F00081E08093510253985B9A52985A9A0E9493
:10470000712330915102E3E5F2E090E0391301C0EA
:10471000089589B183FB882780F94A9B05C022E070
:10472000822B81939F5FF2CF20E0FACFA8E1B0E027
:10473000ECE9F3E20C94AF3210E000E082E0982E56
:1047400096E0A92EB12C2DEF822E772473943CEFA6
:10475000632E43E0542E80915102181728F0802FC9
:104760006896EFE00C94CB32E12EF12CE9B1E3FB3B
:10477000EE27E0F94A9B95C082E08E2BD701AD5A17
:10478000BD4FEC919E2F9370981709F488C0EE0FDF
:10479000EE0FE82BEC93EF70F0E0EE59FE4FC701FF
:1047A0008E5A9D4F6C018081F6019081890F808324
:1047B00020E086309CF1F701E05BFD4F80818F5F48
:1047C00080830E9478291D876E86682F8F87988B3B
:1047D000598A7A8A412F5CEF792F83E091E00E9419
:1047E000740B8FE19EE40197F1F700C000000E9476
:1047F00078291B8B6C8A682F8D8B9E8B5F8A188E15
:10480000412F5CEF792F83E090E00E94740BEFE181
:10481000FEE43197F1F700C0000021E0F60180814D
:104820008B3F9CF5F701E05BFD4F808181508083D9
:104830000E94782919838A82682F8B839C839D82AA
:104840007E82412F5DEF792F82E091E00E94740B10
:104850008FE19EE40197F1F700C000000E947829E3
:104860001F838886682F89879A879B861C86412F9D
:104870005DEF792F82E090E00E94740BEFE1FEE49F
:104880003197F1F700C0000021E0F6018081082E89
:10489000000C990BB5010E9419328083022B1F5F17
:1048A0005ACF80E06ACF81E0089581E008950E94A8
:1048B000552408958FE891E00197F1F700C00000BA
:1048C0000895CF92DF92EF92FF92CF93DF93D82F8C
:1048D000C0E0C12CD12C760140E080915602C8176F
:1048E00088F0442341F0C701B6010E94572480910B
:1048F000550280935402DF91CF91FF90EF90DF90AB
:10490000CF9008952C2F30E083B190E09595879556
:104910009595879580959095682F6170F901EB5A70
:10492000FD4F6083817099270C2E02C0880F991F5C
:104930000A94E2F7092E000CAA0BBB0BC82AD92A4D
:10494000EA2AFB2A2C5A3D4FF9018081681302C0E4
:10495000DD2321F08C2F0E949C0941E0CF5FBDCF69
:1049600081E08093560222982A9A0E945A2481E07C
:104970000E946124089584E0089520E1629FB001BF
:10498000112450E0440F551F640F751F9B0140E533
:10499000849F200D311D1124C901899608950F931C
:1049A0001F93CF93DF938430C8F46530B8F4483058
:1049B000A8F40E94BD248C010E94B035C82FD0E01D
:1049C000DC2FCC27C80101960E94B0359E01282B10
:1049D000C901DF91CF911F910F91089590E080E080
:1049E000F8CF0F931F93CF93DF93843080F465301B
:1049F00070F4483060F4E9010E94BD248C016D2FF1
:104A00000E94CE356C2FC80101960E94CE35DF91F1
:104A1000CF911F910F910895FF920F931F93CF9302
:104A2000DF93843048F5611127C024E0829F800124
:104A3000112407591E4F82E090E0442311F090E0CA
:104A400080E0F42E800F911F0E94B035C82FD0E077
:104A5000DC2FCC2783E090E0FF2011F081E090E094
:104A6000800F911F0E94B0359E01282BC901CDB740
:104A7000DEB7E5E00C94D53290E080E0F8CF0F93FC
:104A80001F93CF93DF93843000F561111EC094E033
:104A9000899FE0011124C759DE4F82E090E0442352
:104AA00011F090E080E0632F022F142F8C0F9D1FD8
:104AB0000E94CE3583E090E0112311F081E090E078
:104AC000602F8C0F9D1F0E94CE35DF91CF911F91DB
:104AD0000F9108951F93CF93DF93C0E0D0E011C0F2
:104AE000412F6D2F8C2F0E94020A9C01412F6D2FA8
:104AF0008C2F0E94F1241F5F183091F7DF5FD530B3
:104B000011F010E0EDCF41E060E08C2F0E94200A10
:104B10009C0141E060E08C2F0E943F2540E060E076
:104B20008C2F0E94200A9C0140E060E08C2F0E94A4
:104B30003F25CF5FC43091F6DF91CF911F9108954B
:104B4000EF92FF920F931F93CF93DF938C01EA01B3
:104B50007A01E60EF71EC8018996CE15DF0529F405
:104B6000CDB7DEB7E6E00C94D432003421E0120772
:104B700038F40E94B035888321960F5F1F4FEBCF2A
:104B80001882FACFB0E0A0E0E8ECF5E20C94B6327F
:104B90007C016A018C01060F171FEC01CE0189967A
:104BA000C017D10729F4CDB7DEB7E8E00C94D232B4
:104BB000C03421E0D20740F4FE01EE19FF09EC0DEC
:104BC000FD1D60810E94CE352196E8CF843038F4F7
:104BD000653028F4483018F40E94CF24089590E0FE
:104BE00080E00895843028F4611103C00E940C25F0
:104BF000089590E080E0089580E1089587E892E0CC
:104C00000895EF92FF920F931F93CF93DF938C0140
:104C1000EA017A01E60EF71EC80187589E4FCE15AD
:104C2000DF0529F4CDB7DEB7E6E00C94D4320738BF
:104C300022E0120738F40E94B035888321960F5F76
:104C40001F4FEACF1882FACFB0E0A0E0EAE2F6E226
:104C50000C94B6327C016A018C01060F171FEC011F
:104C6000CE0187589E4FC017D10729F4CDB7DEB7C4
:104C7000E8E00C94D232C73822E0D20740F4FE01BB
:104C8000EE19FF09EC0DFD1D60810E94CE352196C5
:104C9000E7CFCF93DF93C9E7D1E060E0CE010E9478
:104CA000CE352196C11584E0D807B9F7DF91CF91B1
:104CB0000895A8E0B0E0EFE5F6E20C94B232F82EE9
:104CC0008FE08F1508F471C08FEF93E00E94B0352C
:104CD00081116BC009E711E0F11035C0FE0131967A
:104CE0006F0188E011928A95E9F77801FFEFEF1ADA
:104CF000FF0AC8010E94B03589831A82882309F40B
:104D000054C08130D1F4580182E0A80EB11CC70113
:104D10000E94B0358A83882309F447C09FEF980F1B
:104D20009330F0F4780193E0E90EF11CC5010E9484
:104D3000B0358B838823C9F11C8265E0C6010E94CF
:104D40006F218701D2CF011594E0190771F1C801D5
:104D50000E94B035811101C0FA940F5F1F4FBCCF84
:104D60007501843051F74E01E3E08E0E911C02E094
:104D700010E07501FFEFEF1AFF0AC5010E94B03580
:104D8000F40181934F01882381F08C3741F4E2E0F4
:104D9000F0E0EC0FFD1FE00FF11F1082CECF0F5F90
:104DA0001F4F57010730110521F72896ECE00C94AE
:104DB000CE32CF93DF9386319C4719F5EB010E94E9
:104DC00076139D81992399F08A7A91E009F490E015
:104DD00090935702811109C089E20E944E130E94EC
:104DE000D11380E0DF91CF91089585E3F6CF8091D4
:104DF0005702811104C089E20E945613F0CF85E367
:104E0000FBCF81E0EFCF0F931F93CF93DF93C42F9E
:104E1000D22FFC0185818823C9F040935A020E9459
:104E20007829909359028093580280E28C0F883041
:104E300040F4C77081E001C0880FCA95EAF70E946C
:104E4000980CDF91CF911F910F91089510915A0204
:104E5000141332C080915802909159020E949029F7
:104E6000883C910548F5C0E2CD0F1D17B9F080E2EE
:104E7000810F883040F4177081E001C0880F1A95C7
:104E8000EAF70E949F0CC83010F581E09D2F9770C3
:104E900001C0880F9A95EAF70E94980C802F0E9413
:104EA0008F0CC83070F6D77081E001C0880FDA959A
:104EB000EAF70E949F0CC5CF80E28C0F883008F67D
:104EC000C77081E001C0880FCA95EAF7F2CF802F42
:104ED0000E948F0CB6CF0F93FC01E851FC47E730DE
:104EE000F10508F03AC0CB01E858F84D0C946E3249
:104EF0008F2795277F2789279B27A127A72706E2AA
:104F000021EE41EE6AE17CE70E94032780E00F91E9
:104F1000089507E225EE45EE6BE17CE7F5CF06E26A
:104F200021EE40EE68E17CE7EFCF07E225EE44EEAC
:104F300069E17CE7E9CF06E221EE42EE6CE17CE735
:104F4000E3CF07E225EE46EE6DE17CE7DDCF08E238
:104F500021E045EE6EE17CE7D7CFFB018581882318
:104F600019F010925A02D3CF81E0D1CF1F93CF9383
:104F7000DF9387372CE7920729F088379C4769F140
:104F8000C1E015C0FB01C581CC23B1F00E94F72719
:104F90000E94530F0E94FD27D82F0E94FA27C82F86
:104FA0000E94F7274D2F6C2F0E948910C0E08C2F94
:104FB000DF91CF911F9108950E94F7270E945F0F04
:104FC0000E94FD27182F0E94FA27D82F0E94F7274A
:104FD000412F6D2F0E948910EACFFB01C581CC23A0
:104FE00019F00E94FA27D4CF0E94FA27E7CF8091C8
:104FF0003C01089580913B01089580913A01089504
:1050000090935C0280935B020895E0915B02F091C3
:105010005C02309729F00190F081E02D0995089508
:1050200080E008950E9405280895E0915B02F091C8
:105030005C02309721F00280F381E02D09950895FC
:10504000E0915B02F0915C02309739F022E0DC01E4
:105050002C930480F581E02D09950895A9E0B0E036
:10506000E4E3F8E20C94BC3220915B0230915C02E4
:10507000232BB9F0FC0187E08983848195819B8390
:105080008A83868197819D838C8380818E838181B1
:105090008F838281888783818987CE0101960E94D0
:1050A000332C2996E2E00C94D832FC01329697E03A
:1050B00080E0915009F4089521912223D1F38F5F6C
:1050C000F8CF662349F0FC01329608962191261705
:1050D00029F0E817F907D1F780E0089581E00895F5
:1050E0009C01FC0132969FEF80E04191461751F000
:1050F0009F3F19F4411101C0982F8F5F8630A9F7A7
:105100009F3F09F40895290F311D97FD3A95F90144
:1051100062830895FC01329608962191261303C0FC
:10512000DF0111971C92E817F907B9F708950E945B
:10513000702808950E948A280895029626E0FC01AE
:1051400011922A95E9F70895DC01FB0111969C91D3
:1051500011978181981322C012968C9112978823FF
:1051600019F0928189131AC013968C911397882392
:1051700019F09381891312C015968C911597882385
:1051800019F0958189130AC014969C91992321F0F6
:1051900081E02481291303C080E001C081E0817097
:1051A000089508950E94D1280895811106C081E0D4
:1051B00080935D020E94D228089582E0F9CF83E0B7
:1051C00080935D020E94D22808950E94D5280895F8
:1051D00081E080935D020E94D22808950E94E82811
:1051E0000895089508950E94F22808950895089555
:1051F0000E94F1280895CF930E94F6280E945D0531
:105200000E94F728C0E08C2F0E946F18811105C002
:10521000CF5FC530C1F7CF91089581E0FCCF85B74E
:10522000806885BF85B7806885BF08951F920F92FB
:105230000FB60F9211248F939F93AF93BF938091DA
:105240005E02811113C080917B0490917C04A09137
:105250007D04B0917E044196A11DB11D80937B0415
:1052600090937C04A0937D04B0937E04BF91AF9192
:105270009F918F910F900FBE0F901F901895809166
:105280008304843031F10E94160B10925E0288E193
:1052900090E020E40FB6F894A895809360000FBECC
:1052A0002093600083B7817F846083BF83B7816070
:1052B00083BF7894889583B78E7F83BF0FB6F894A9
:1052C000A8958091600088618093600010926000D2
:1052D0000FBE08950E94DC0E0E941D0B089582E00F
:1052E00084BD93E095BD9AEF97BD80936E000895BD
:1052F0002FB7F89480917B0490917C04A0917D0459
:10530000B0917E042FBF08952FB7F89460917B046D
:1053100070917C0480917D0490917E042FBF08954C
:105320009C014FB7F89480917B0490917C04A091EC
:105330007D04B0917E044FBF821B930B0895789437
:105340001F920F920FB60F9211248F939F93AF93DA
:10535000BF9380917B0490917C04A0917D04B091D7
:105360007E040196A11DB11D80937B0490937C0463
:10537000A0937D04B0937E04BF91AF919F918F91D4
:105380000F900FBE0F901F90189581E08093E00062
:1053900080E28093D8001092C9008FE19EE40197CB
:1053A000F1F700C0000087E090EBDC0180938C04F3
:1053B00090938D04A0938E04B0938F0488E19CE0B9
:1053C0000FB6F894A895809360000FBE909360008C
:1053D000FFCF88E19CE00FB6F894A8958093600019
:1053E0000FBE90936000FFCF1092B9008CE08093C5
:1053F000B8000895B0E0A0E0E0E0FAE20C94B33227
:10540000B82EEB010E9478296C01EE24E394F12C74
:10541000C431D10560F025E0E22EF12CCF3FDC074E
:1054200031F0CE0164E170E00E9405327B0184EA34
:10543000A82E94E8992E1092BC00A092BC000E9465
:1054400078298C018091BC0087FF0DC08091B90044
:10545000887F8830F9F08091B900887F8031D1F061
:105460000FEF1FEF08C0C8010E949029E816F90647
:1054700048F70EEF1FEFCF3FDC07E9F2C6010E94AD
:105480009029C817D907B8F6C801CDB7DEB7EBE049
:105490000C94CF32B092BB009092BC000E9478294D
:1054A0008C018091BC0087FF0AC08091B900887F81
:1054B000883111F08034A1F610E000E0E5CFC8019A
:1054C0000E949029E816F90660F7D3CF0F931F9337
:1054D000CF93DF93EB018093BB0084E88093BC0003
:1054E0000E9478298C018091BC0087FF11C0209117
:1054F000B900287F81E090E0283211F490E080E04C
:10550000919581959109DF91CF911F910F91089508
:10551000CF3FDC0741F3C8010E949029C817D90783
:1055200010F78EEF9FEFEFCFB0E0A0E0EAE9FAE2EC
:105530000C94B6326B018A017901B9010E94FA29F3
:10554000E6010C0D1D1DC017D10711F097FF08C013
:1055500024E92093BC00CDB7DEB7E8E00C94D2324A
:10556000B70189910E94662AEECFB0E0A0E0EBEB94
:10557000FAE20C94B632C62F6A017901B8010E9492
:10558000FA2997FD0CC0B8018C2F0E94662AE6010B
:10559000EC0CFD1CCE15DF0511F097FF08C024E9C7
:1055A0002093BC00CDB7DEB7E8E00C94D232B8014E
:1055B00089910E94662AEECF84E98093BC00089509
:1055C00080916702089508959B019091830494301F
:1055D000F1F48F708093E9008FEF9091E800815093
:1055E00095FD06C095ED9A95F1F700008111F5CF74
:1055F0008091E80085FF0BC0BA01C90150E040E08E
:105600000E94222D8091E8008E778093E800089513
:1056100046E050E0BC0184E00E94E42A0895CF9364
:10562000DF93EC0148E050E0BC0181E00E94E42AF5
:1056300088E0FE01AFE5B2E001900D928A95E1F7B6
:10564000DF91CF910895603231F4BC0140E250E027
:1056500082E00E94E42A089580918204811109C0A9
:105660000E94012F0E945E2F8091E200846080934F
:10567000E20008951092820408950E94E828089597
:1056800060917F0481E0611101C080E00E94DF2809
:1056900008959091830481E0943009F080E0609156
:1056A0007F040E94E528089542E061EC81E00E94B9
:1056B0007F2E42E261EC84E00E947F2E42E261ECA8
:1056C00082E00E947F2E42E260EC83E00E947F2E07
:1056D0009091830481E0943009F080E060917F0430
:1056E0000E94D528089580918504833009F467C00D
:1056F00038F4813009F43FC0823009F4A3C0089522
:105700008A3009F48FC08B3009F474C0893009F0F5
:1057100055C080918404813209F050C08091880482
:1057200090918904009719F0029709F047C0809181
:10573000E800877F8093E8008091E80082FF3AC00C
:105740008091F3009091F20089279827892702978A
:1057500031F48091F100813011F0863021F4809194
:10576000F100809367028091E8008B778093E800D6
:105770000E94B32E23C080918404813AF9F4809171
:10578000E800877F8093E8008091880490918904E5
:10579000892B61F468E08FE592E070E00E94C02DF3
:1057A0008091E8008B778093E800089560E090E0B6
:1057B00080E0F3CF809183048111BECF0895809162
:1057C0008404813AD9F78091880490918904892BC7
:1057D000A9F78091E800877F8093E8008091E80036
:1057E00080FFFCCF809145018093F1008091E8001B
:1057F0008E77BCCF80918404813201F78091880438
:1058000090918904892BD1F68091E800877F80935D
:10581000E8000E94B32E80918604809345010E9487
:10582000DC0E089580918404813241F68091E80075
:10583000877F8093E8000E94B32E80918704809335
:105840006802089580918404813A09F0B7CF80916D
:10585000E800877F8093E8008091E80080FFFCCF1C
:1058600080916802C1CF49E050E0BC0184E00E9411
:10587000E42A089584B7877F84BF0FB6F894A8956B
:1058800080916000886180936000109260000FBE7C
:1058900080E890E00FB6F8948093610090936100E7
:1058A0000FBE0E94EE2808950E94012F0E945E2FD5
:1058B000E2EEF0E080818460808378940E94DD31A4
:1058C00008958DE391E00E9400280895809183045B
:1058D000853031F480918304853019F00E946A2963
:1058E00008950E943F2980918104882399F30E94A2
:1058F000FB28882379F30E940C2D0E94DC0EEACF4E
:10590000A0E2B0E0E6E8FCE20C94BC3280918304B3
:10591000843009F583E08093E9008091E80082FFFC
:105920001AC08091E80090E085FF09C050E040E097
:1059300060E270E0CE0101960E94712D91E08091AD
:10594000E8008B778093E800992329F060E2CE018C
:1059500001960E940A1CA096E2E00C94D8329A01AB
:1059600040918A0450918B040E94B72C0895492FCE
:1059700055274330510579F158F441305105F1F084
:105980004230510519F190E080E050E040E01AC04B
:105990004132510599F142325105A9F76330710541
:1059A00090F7FB01EE0FFF1FEB58FE4F4081518136
:1059B0006E587E4FFB01808190E004C082E190E050
:1059C00044EC58E0F9015183408308958BE590E061
:1059D00049E658E0F7CF99278130910561F028F02A
:1059E000029789F6E3E4F8E002C0E5E6F8E0849186
:1059F00090E0AF01E7CFE1E5F8E0F9CF6330710562
:105A000008F0C1CF660F771FFB01E558FE4F4081BC
:105A1000518189E090E0D6CF80E189BD82E189BDE6
:105A200009B400FEFDCF8091D8008F7D8093D8000F
:105A30008091E00082608093E0008091E00081FD31
:105A4000FCCF0895AF92BF92CF92DF92FF920F9357
:105A50001F93CF93DF936C01EB018A010E94D22E3A
:105A6000F82E811123C00115110539F0F80180814C
:105A70009181C81BD90BC80ED91EB12CA12C20971F
:105A8000A9F08091E80085FD22C08091E8008E7722
:105A90008093E80001151105A1F0F8018081918142
:105AA000A80EB91EB182A08285E0F82E8F2DDF915D
:105AB000CF911F910F91FF90DF90CF90BF90AF904B
:105AC00008950E94D22E8823D1F2F82EEFCFF6014E
:105AD00081916F018093F1002197FFEFAF1ABF0A08
