:100000000C94F1050C9429060C9429060C942906ED
:100010000C9429060C9429060C9429060C942906A4
:100020000C9429060C9429060C9481120C94FC174C
:100030000C942C260C9429060C9429060C94290661
:100040000C9429060C9429060C9429060C94290674
:100050000C9429060C9459130C9429060C94290627
:100060000C9429060C9429060C9429060C94290654
:100070000C9429060C9429060C9429060C94290644
:100080000C9429060C9429060C9429060C94290634
:100090000C9429060C9429060C9429060C94290624
:1000A0000C9429060C9429060C94290605010902D2
:1000B000A10185020901A1000509190129081500FE
:1000C0002501950875018102050109300931158165
:1000D000257F95027508810609381581257F9501D0
:1000E00075088106050C0A38021581257F95017572
:1000F000088106C0C005010904A1018507A100050A
:1001000001093009311601FE26FF019502751081A3
:100110000205091901292015002501952075018185
:1001200002C0C00660FF0961A1010962150026FF37
:10013000009520750881020963150026FF009520AF
:1001400075089102C005010906A101050719E029FA
:10015000E715002501950875018102950175088153
:10016000010507190029FF150026FF0095067508EF
:10017000810005081901290515002501950575015E
:100180009102950175039101C000DA0281FFD9F156
:10019000DB20A4A62EAF00A0C0D30000A1C8D300CE
:1001A00000AED580A81F408D142000FD377A585A24
:1001B000000004E6D6B446020021011600000074D7
:1001C0002FE5A3E0078E01CD5D003D8889A654751B
:1001D0000A36E182AEFA7A1AA6FCA2ED4954B48A34
:1001E0005E7177BBD05FB821B59A6DEC0545EFCE57
:1001F0006A71C023FEA9DB302F7EF37E4BD3DE165F
:100200008165ED3864402735EEC25E716E65A90BDD
:1002100093730FE5807891E2D531997B268DC1C922
:1002200096BC1DBD0090DC793640338D6608B0F772
:100230001F0DFB5C512FA78DC43FF3B144D1C0000B
:100240002FB4AE88C1B4817B76663457078F879F01
:100250006608F00EBEEC8144347225907F9C74DCFD
:10026000AB835E4F538991E1E8DACD5B0EF90AC5A5
:10027000B02F5CE668E91E266AFEEED26059DE8881
:100280007047450B740647703D8553CA8EEF52A3E5
:10029000693ED65057CD45DB8E152B4A3BEC82E8A4
:1002A00098057C06EA934DDB118885FB537FE1635B
:1002B000AD0E079163EA91C5857659336E48CE41FC
:1002C0002D1954D2904C03CE952B6AA51D9EAAB62B
:1002D000D50839D515A4C3645AE28BA1D49AEAD9BA
:1002E000B2054505EEE16005126C0EE92C4890CB95
:1002F000AECF08C94261863A2BB6BCF70046B8C8F3
:10030000AF79F19081D244863423C6352A87F380B1
:1003100013A9ED678FCC68E50ADD09FE23FB3FECEE
:10032000501CE767444586F495EFAD1D30769E94EA
:10033000152FED12F66A2EE2BBC8E9E0C39B0F80D1
:100340005B4052E910B624AB61566D91431847BC2F
:100350006F3529C390B5A0B17C29E6605ED5F8E67B
:100360008AF5A90E454D6E8747C10CA34C41066026
:10037000809F3D1D38DE5EA7480CEF0DFAA3990E55
:10038000E39EAD02534882C131A1267B3834BBB312
:1003900046132BF819280000000000988F21C7355C
:1003A00018AE400001E9038F0F00001705D80BB10C
:1003B000C467FB020000000004595A00AF00AE55AC
:1003C0006E6465660033726400326E64003173746B
:1003D00000307468004C415945520000414E4C4772
:1003E000004D4F55530044494749004A4F590000BA
:1003F0000400050006000700140015001600170091
:10040000080009000A000B00180019000000000095
:100410000C000D000E000F000000000000000000A6
:100420001000110012001300000000000000000086
:100430001A001B001C00000000000000000000006B
:100440000400050006000700140015001600170040
:10045000080009000A000B00180019000000000045
:100460000C000D000E000F00000000000000000056
:100470001000110012001300000000000000000036
:100480001A001B001C00000000000000000000001B
:1004900004000500060007001400150016001700F0
:1004A000080009000A000B001800190000000000F5
:1004B0000C000D000E000F00000000000000000006
:1004C00010001100120013000000000000000000E6
:1004D0001A001B001C0000000000000000000000CB
:1004E00004000500060007001400150016001700A0
:1004F000080009000A000B001800190000000000A5
:100500000C000D000E000F000000000000000000B5
:100510001000110012001300000000000000000095
:100520001A001B001C00000000000000000000007A
:100530001F001E00210020002300220025002400AF
:1005400009025B00030100A0FA0904000001030195
:10055000010009211101000122440007058103085F
:10056000000109040100020300000009211101003B
:100570000122220007058203200001070503032052
:10058000000109040200010300000009211101001B
:1005900001227700070584032000011201000200F8
:1005A000000008383934320100010203011C0376CF
:1005B00000690061006C003A006600360034006398
:1005C00000320062003300630000000C0367006229
:1005D00000630032003400000012036B00750073EA
:1005E00000680069006D0061003800000004030924
:1005F0000407087F0807003E5B4F5B3E003E6B4FE1
:100600006B3E001C3E7C3E1C00183C7E3C18001CCF
:10061000577D571C001C5E7F5E1C0000183C1800B4
:1006200000FFE7C3E7FF00001824180000FFE7DB26
:10063000E7FF0030483A060E0026297929260040B7
:100640007F05050700407F05253F005A3CE73C5ADF
:10065000007F3E1C1C0800081C1C3E7F0014227FEB
:100660002214005F5F005F5F0006097F017F0000CA
:100670006689956A0060606060600094A2FFA29441
:100680000008047E04080010207E20100008082ABC
:100690001C0800081C2A0808001E10101010000C6E
:1006A0001E0C1E0C0030383E383000060E3E0E0682
:1006B0000000000000000000005F000000000700D4
:1006C000070000147F147F1400242A7F2A120023BD
:1006D00013086462003649562050000008070300E2
:1006E00000001C224100000041221C00002A1C7F47
:1006F0001C2A0008083E080800008070300000082E
:1007000008080808000000606000002010080402CB
:10071000003E5149453E0000427F40000072494979
:100720004946002141494D33001814127F1000271B
:1007300045454539003C4A494931004121110907E5
:1007400000364949493600464949291E000000142F
:100750000000000040340000000008142241001492
:10076000141414140000412214080002015909064F
:10077000003E415D594E007C1211127C007F4949B8
:100780004936003E41414122007F4141413E007FC8
:1007900049494941007F09090901003E414151731E
:1007A000007F0808087F0000417F41000020404191
:1007B0003F01007F08142241007F40404040007FFD
:1007C000021C027F007F0408107F003E4141413E31
:1007D000007F09090906003E4151215E007F091989
:1007E00029460026494949320003017F0103003FA1
:1007F0004040403F001F2040201F003F4038403F06
:100800000063140814630003047804030061594969
:100810004D4300007F4141410002040810200000C8
:100820004141417F00040201020400404040404039
:10083000000003070800002054547840007F28443B
:10084000443800384444442800384444287F003861
:10085000545454180000087E09020018A4A49C787F
:10086000007F080404780000447D400000204040E0
:100870003D00007F102844000000417F4000007CC4
:1008800004780478007C0804047800384444443830
:1008900000FC182424180018242418FC007C0804E8
:1008A00004080048545454240004043F4424003CE9
:1008B0004040207C001C2040201C003C4030403C3C
:1008C000004428102844004C9090907C00446454CC
:1008D0004C44000008364100000000770000000092
:1008E00041360800000201020402003C2623263C97
:1008F00000000000000000404040F0F8F8FF38FF22
:10090000F8F83FF8F8FF38FFF8F8F04040400000F2
:100910000000000080C0C0C0800000C0C080000097
:100920000080C0C000C0C0000080C0C00000000047
:1009300000C0C0C0C0C000C0C00000000000000077
:1009400000000000000000000000000000000000A7
:100950000000000000000000000000000000000097
:100960000000000000000000000000000000000087
:10097000C0F0F8FC3E1E06010000007F4141417FAF
:10098000007F4141417F000080C0E07E5B4F5BFE05
:10099000C00000C000DCD7DEDEDED7DC00C0000017
:1009A0000000000000000000000000000000000047
:1009B00000000000000000494949FFFFFFFFE0DFA1
:1009C000BFBF00BFBFDFE0FFFFFFFF494949000095
:1009D0000000001F3F6060E0BF1F007F7F071E38E0
:1009E0001E077F7F007F7F0E1F3B716000000000AD
:1009F000007F7F0C0C0C007E7E007F7E0303007F57
:100A00007E03037E7E03037F7E000F3E703C063C28
:100A1000703E0F00327B49493F7E007F7E0303001A
:100A20001E3F69696F260000000000000000000002
:100A3000030F1F3F3C7870600000007F4141417F01
:100A4000007F4141417F00307B7F7830202030782B
:100A50007F3B0003000F7F0F0F0F7F0F000300008D
:100A60000000000000000000000000000000000086
:100A700000000000000000010101070F0F7F0F7F41
:100A80000F0F7E0F0F7F0F7F0F0F07010101000077
:100A90000000000000000000010100000000000054
:100AA0000000000000000000000000000000000046
:100AB0000000000000000000000000000000000036
:100AC0000000000000000000000000000000000026
:100AD0000000000000000000000000000000000016
:100AE0000000000000000000000000000000000006
:100AF00000000000000000000000000000000000F6
:100B000000000000000000000000000000000000E5
:100B100000000000000000000000000000000000D5
:100B200000000000000000000000000000000000C5
:100B300000000000000000000000000000000000B5
:100B400000000000000000000000000000000000A5
:100B500000000000007E0F00D4FFFFFFC700000070
:100B60007800000000000000002A2B280000000090
:100B7000000000000000000000000000290000004C
:100B8000002C1E3420212224342627252E362D37F2
:100B900038271E1F202122232425263333362E37C3
:100BA000381F0405060708090A0B0C0D0E0F10115B
:100BB00012131415161718191A1B1C1D2F31302368
:100BC0002D350405060708090A0B0C0D0E0F101130
:100BD00012131415161718191A1B1C1D2F31303536
:100BE0004C0011241FBECFEFDAE0DEBFCDBF04B64C
:100BF00003FE18C08091850590918605A091870518
:100C0000B09188058730904BA740B04B59F41092B3
:100C10008505109286051092870510928805E0E000
:100C2000F8E3099511E0A0E0B1E0EAE9F7E602C0D7
:100C300005900D92AA36B107D9F725E0AAE6B1E0F2
:100C400001C01D92A538B207E1F70E9455260C9409
:100C5000CB330C940000482F2091840590913B05E4
:100C600059E0291302C080E0089530E0529FF0015E
:100C7000539FF00D1124E45CFA4F8181681306C084
:100C80008081481303C085818111EECF2F5F3F4FD4
:100C90002770E7CFE8EDF0E080818E7F80831092AF
:100CA000E2001092DA001092E100A0EEB0E08C9128
:100CB00081608C9380818F77808319BCA7EDB0E031
:100CC0008C918E7F8C9380818F7E8083109218030D
:100CD00008952091E4003091E50085E69091EC00C4
:100CE00090FF06C09091E80090FF06C080E0089554
:100CF0009091E80092FDFACF90912603992391F00C
:100D0000953091F09091EB0095FD10C04091E4007A
:100D10005091E5002417350709F381509A01F1F647
:100D200084E0089582E0089583E0089581E00895C5
:100D30008091280387FF13C08091E80082FF06C0DE
:100D40008091E8008B778093E80004C080912603AF
:100D50008111F2CF0895809126038823D9F38091E1
:100D6000E80080FFF8CF8091E8008E77ECCF982FD5
:100D70009093E900242F762F50E0891731F070917D
:100D8000EC002091ED005091F00021FD07C09F5F25
:100D9000973071F78093E90081E008953091EB007E
:100DA0003E7F3093EB003091ED003D7F3093ED00BE
:100DB0003091EB0031603093EB007093EC002093A6
:100DC000ED005093F0002091EE0027FDE0CF80E091
:100DD0000895B0E0A0E0EFEEF6E00C947A32C8EDB2
:100DE000D0E088818F7E8883E7EDF0E080818160AC
:100DF000808384E082BF81E08093180388818E7FA6
:100E0000888302EE10E0F80110821092DA0081EE81
:100E1000C82ED12CF601108288818F778883888133
:100E20008068888388818F7D888319BC109226030F
:100E300010922703109225031092240390EEE92EBE
:100E4000F12CF70180818B7F80838881816088838A
:100E500042E060E080E00E94B706F60180818E7F6C
:100E60008083F801808181608083808188608083B5
:100E7000F70180818E7F8083888180618883CDB7F0
:100E8000DEB7E8E00C949632FC0180912E0390913D
:100E90002F0386179707A0F06115710529F490912B
:100EA000E8009E779093E80090E06115710551F499
:100EB000911108C08091E80082FF35C080E008955C
:100EC000BC01F2CF809126038823C9F18530C9F196
:100ED0008091E80083FD31C08091E80082FDEACF77
:100EE0008091E80080FFE1CF2091F3008091F20033
:100EF000322F282F6115710519F02830310558F06F
:100F000091E02830310509F090E02091E8002E773B
:100F10002093E800CACF81918093F100615071095C
:100F20002F5F3F4FE7CF80912603882341F0853024
:100F300041F08091E80083FFBDCF81E0089582E019
:100F4000089583E008950895089580911B030895FE
:100F50002FB7F894609114037091150380911603D4
:100F6000909117032FBF0895ECE6F1E09281891369
:100F700001C01282319691E0E237F907B9F708957E
:100F8000AEE6B1E0EFEF90E02D91821751F0EF3F28
:100F900019F4211101C0E92F9F5F9630A9F7EF3FA7
:100FA00009F408950E2E000CFF0BE459FE4F8283C6
:100FB0000895E0911103F0911203309739F022E087
:100FC000DC012C930680F781E02D09950895E091CE
:100FD0001103F0911203309729F00190F081E02D78
:100FE0000995089580E008958091060380FD16C05C
:100FF00081FD16C082FD16C0809105038823A1F0F3
:10100000883280F428E0829FC001112468E270E0F9
:101010000E942C33862F672B39F0089582E00895C3
:1010200084E0089588E0089581E0089580910603A2
:1010300080FD14C081FD14C082FD16C080910403A0
:10104000882381F08E3180F420E5829FC001112435
:101050006EE170E00E942C33862F089584E108959C
:1010600088E2089588E0089580E50895282F35EBFB
:101070002303C001112497FF04C080589109892FD0
:10108000089580589F4FFBCFBC014091FC02809196
:10109000FD02942F891301C00895292F30E0F90132
:1010A000EE0FFF1FEC50FD4F0190F081E02DE61791
:1010B000F70799F487E0869FF001879FF00D1124D0
:1010C000ED5AFD4F81E084839413E6CF2F5F3F4FAD
:1010D000237033272093FC0208952F5F3F4F922FF8
:1010E0009370D8CF1092500210924F02E3E5F2E0D5
:1010F0008581811102C014821682379682E0EB3816
:10110000F807B1F7089523E9611122E989B190E068
:101110002F7002C0959587952A95E2F78170089502
:1011200023E9611122E93AB12F7081E090E001C01A
:10113000880F2A95EAF7982F909593239AB99BB137
:10114000892B8BB9089590914902E92FF0E0209105
:101150004A022150330B23703327E217F307A9F01B
:10116000E55BFD4F282F2F7780818078822B60FBF5
:1011700087F980839F5F9370909349028091470223
:101180008F5F8093470281E0089580E00895E82F03
:10119000F0E0EE0FFF1FEE5BFD4F8081918186171F
:1011A000970729F07183608381E080934602089558
:1011B00080E008959091A90192FF10C041E0282F8E
:1011C0002471243009F040E031E0282F28712830C4
:1011D00009F030E0431711F02CE0822793FF10C094
:1011E00041E0282F2471243109F040E031E0282F1C
:1011F0002871283109F030E0431711F02CE08227E4
:101200003091AA0130FF10C051E0282F2171213008
:1012100009F050E041E0282F2871283009F040E023
:10122000541711F029E0822731FF10C041E0282F28
:101230002171213109F040E031E0282F2871283157
:1012400009F030E0431711F029E0822794FD877EF2
:10125000089582389105B9F1B0F48133910509F40C
:101260007DC048F48932910509F46DC08A32910538
:1012700009F479C008958533910509F45FC0893375
:10128000910509F10895833E9105D9F138F4803E26
:10129000910529F1823E910579F10895863E9105E7
:1012A000D9F1873E910509F43EC0843E910541F590
:1012B0002091AA0121FF24C08091A90184FD19C0B9
:1012C00087EE90E008952091A901237009F056C09F
:1012D0002091AA0123FF14C089E290E00895209193
:1012E000A90120FD38C03091AA0130FF09C024FFB8
:1012F0003FC090E080E008952091A90122FDF7CF42
:1013000008952091A90122FD36C03091AA0130FD37
:1013100035C024FDEECFF4CF2091A90123FFF0CFFB
:1013200024FDE7CFCDCF2091A90123FD2AC0309124
:10133000AA0131FFEECF84EE90E008952091A9013B
:1013400025FDCACF08952091A90125FD1DC020913A
:10135000AA0123FFD5CF89E390E008952091A90148
:1013600026FD15C008952091A90126FD13C00895FA
:1013700083EE90E0089582EE90E0089580EE90E094
:10138000089586EE90E0089585E390E008958AE25E
:1013900090E0089581E390E0B3CF1F93CF93DF9364
:1013A0000E942909EC01C11582E5D80708F03FC069
:1013B000C11590E5D90708F0BEC0C83ED105C0F4FC
:1013C000C03ED10580F4C53AD10548F4C430D105FA
:1013D00050F4C130D10539F0D0E0C0E004C0CD3CBC
:1013E000D105D0F3D065CE01DF91CF911F91089543
:1013F000C11580E4D80708F053C0C11590E2D907A1
:1014000008F0B1C0C11581E0D80730F38D2F0E94DC
:10141000DA08182FCE0199270E942909C12FD0E0A0
:10142000DC2FCC27CC27DF71C82BD92BDCCFC038E1
:1014300092E5D907A8F4C03682E5D80708F061C064
:10144000C03492E5D90708F047C0C03282E5D8071A
:1014500078F1CF71D0E0DC2FCC27C16FD06AC3CF39
:10146000C03C92E5D90780F48C2F8F71C03AD245E9
:1014700008F45AC00E94DA08C82FD0E0DC2FCC272D
:10148000CC27DF71D062AFCFC03E82E5D80708F02D
:10149000A3CFDC2FCC27CC27DF71C06FD06AA3CFBE
:1014A000CE0199270E942909CC27DF70D06ABCCFD2
:1014B0002C2F2695269590E2299F900111248C2FA0
:1014C0008370C1E0D0E002C0CC0FDD1F8A95E2F747
:1014D000C22BD32BDD6887CF2C2F2695269527701E
:1014E00080E2289F900111248C2F8370C1E0D0E00E
:1014F00002C0CC0FDD1F8A95E2F7DC68C22BD32B2C
:1015000072CF2C2F26952695277090E2299F900167
:1015100011248C2F8370C1E0D0E002C0CC0FDD1FFE
:101520008A95E2F7DA68EACFC82FD0E0DC2FCC2723
:10153000C46FD06A58CF8C2F8F710E94DA0855E0A3
:10154000D695C7955A95E1F7CF70D0E0DC2FCC2720
:10155000282F30E084FF05C044E0220F331F4A9556
:10156000E1F7D069CBCF8D2F8F710E94DA08182F49
:10157000CE0199270E942909C12FD0E0DC2FCC276A
:10158000CC27DF71906250CF8091A001882331F089
:101590001092A00110929F0110929E010895982F21
:1015A00090958091190389238093190308951092CF
:1015B00095011092940110929301089590919201D7
:1015C000292F282321F08095892380939201089563
:1015D0008091840590913B05981301C008958F5F19
:1015E0008770FACFA82FA77023E0969587952A9544
:1015F000E1F7FC01EE0FFF1FE80FF91FE60FF71FE1
:1016000050E040E080E0219130E00A2E02C03695A3
:1016100027950A94E2F721703327042E01C0220F88
:101620000A94EAF7822B4F5F5F4F4330510559F719
:101630000895903FB9F0953070F4883060F448E038
:10164000949F900111246AE771E0820F932F911DFE
:101650000E94F20A08959C5F923020F467E771E0DF
:1016600090E0F6CF80E00895262F277091E001C02A
:10167000990F2A95EAF723E0769567952A95E1F781
:10168000FB01EE0FFF1FE60FF71FE40FF51F50E001
:1016900040E0682F70E08191DF0111979B01042EDB
:1016A00002C0369527950A94E2F7217021952827E4
:1016B000292328272C934F5F5F4F4330510559F75B
:1016C0000895282F903F89F0862F622F953070F46F
:1016D000283060F448E0949F90011124620F732F2A
:1016E000711D4AE751E00E94340B08959C5F9230CF
:1016F000E0F770E047E751E0F6CF809314020895D9
:101700009091140221E030E0F90101C0EE0F8A95BA
:10171000EAF7D90102C0AA0FBB1F6A95E2F7EA2BCC
:1017200001C0220F4A95EAF7892F8E23E81305C0DE
:10173000292B822F0E947D0B089520952923F9CF14
:1017400021E030E001C0220F8A95EAF720958091D0
:10175000140282230E947D0B08959091950180953B
:10176000892380939501282F277069F4891759F0F0
:101770009091AA0192FF07C08695869586950E9452
:10178000A00B0E94D70A089521E030E001C0220F8B
:101790008A95EAF780911402822B0E947D0B0895AE
:1017A0008093A8010895982F92959F7020E011F0E2
:1017B000892F24E0982F9695969511F02E5F892F0A
:1017C000982F969509F02F5F822F08959C013A95E6
:1017D00021153F4150F5FC01EE27F170BC01662751
:1017E0007270AC01442754709C012227387094FF1A
:1017F0000EC080E0EF2B09F080E1672B09F08062DA
:10180000452B09F08064232B89F08068089581E0DE
:10181000EF2B09F480E0672B09F08260452B09F07B
:101820008460232B19F08860089580E008958091EA
:10183000220190912301892B31F480912401909110
:101840002501892B91F070E060E080E00E94C708DC
:1018500070E060E081E00E94C708109223011092BE
:10186000220110922501109224010895E82FE2959B
:10187000EF70F0E031A1282F2F7081E090E001C0DF
:10188000880F2A95EAF7932F982B91A392A1809520
:10189000892382A30895E82FE295EF70F0E031A14B
:1018A000282F2F7081E090E001C0880F2A95EAF779
:1018B000982F9095932391A392A1892B82A30895A9
:1018C0000F931F93CF93DF938B01EA01909126032F
:1018D000943061F58093E9008FEF9091E80081509A
:1018E00095FD06C095ED9A95F1F700008111F5CFB1
:1018F0008091E80085FF1AC00E946906811111C01D
:101900008091E80085FD06C08091E8008E77809385
:10191000E800F2CFF80181918F018093F1002197C7
:1019200079F78091E8008E778093E800DF91CF917E
:101930001F910F91089546E050E0BC0184E00E94A1
:10194000600C0895CF93DF93EC0148E050E0BC01B8
:1019500081E00E94600C88E0FE01ACE1B3E0019000
:101960000D928A95E1F7DF91CF910895A9E0B0E05B
:10197000ECEBFCE00C94803280914602882351F11C
:101980008091110390911203892B11F187E08983D3
:1019900080914202909143029B838A83809144020A
:1019A000909145029D838C8380913E028E8380912D
:1019B0003F028F838091400288878091410289870E
:1019C00049E050E0BE016F5F7F4F84E00E94600CF1
:1019D000109246022996E2E00C949C3281E08093BA
:1019E000E00080E28093D8001092C9008FE19EE46D
:1019F0000197F1F700C0000087E090EBDC018093D5
:101A0000850590938605A0938705B093880588E1A6
:101A10009CE00FB6F894A895809360000FBE909359
:101A20006000FFCFCF93DF93682F81E06A3019F019
:101A30006D3031F480E00E94A10DDF91CF910895C7
:101A40008091390590913A0526E0FC01A3E3B5E0C9
:101A500001900D922A95E1F7603E08F459C026E006
:101A6000FC0111922A95E9F7C0913905D0913A0508
:101A700046E050E0BE0183E395E00E94B733892B36
:101A800059F1CE01835393409C0145E0369527954B
:101A90004A95E1F741E050E0BA0102C0660F771FB6
:101AA0002A95E2F79B016091310370913203262B56
:101AB000372B059665E0969587956A95E1F7FA01CB
:101AC00002C0EE0FFF1F8A95E2F7CF01822B932B06
:101AD00090933203809331039E012D523340409105
:101AE0003003642F70E0C9010E945C32481B46300D
:101AF00010F4240F311D2115F2E03F0710F030E003
:101B000020E02D5C3C4F30933A052093390595CF6A
:101B1000F6E06F9FB00111246F507A4F46E050E01D
:101B20000E94A732A1CFCF93DF93EC01FE018491F5
:101B3000811103C0DF91CF9108950E94120D21966B
:101B4000F5CFCF93382FE0913905F0913A05E35363
:101B5000F34020913003622F70E0CF010E945C328D
:101B6000281B822F332361F066E00E942033C82FA8
:101B7000C15010F4CF91089580E20E94120DF8CF69
:101B80009F01280F311D2115324018F080E0F0E050
:101B9000E0E08E0F9F2F911D8D5C9C4F90933A0536
:101BA00080933905E7CF0E94930D81E00E94A10D3B
:101BB0000895CF93C82F6FEF811168E485E290E01C
:101BC0000E94E4326FEFC11161E586E290E00E946D
:101BD000E4326FEFC1116AE487E290E00E94E432E0
:101BE000CF910895CF93DF93C9ECD1E060E0CE01AF
:101BF0000E94E4322196C11584E0D807B9F7DF913D
:101C0000CF9108950F931F93CF93DF93843000F506
:101C100061111EC094E0899FE0011124C759DE4F75
:101C200082E090E0442311F090E080E0632F022FE7
:101C3000142F8C0F9D1F0E94E43283E090E011234B
:101C400011F081E090E0602F8C0F9D1F0E94E43224
:101C5000DF91CF911F910F9108951F93CF93DF9341
:101C6000C62F8430E8F46530D8F44830C8F4632FC8
:101C7000122F90E1C99FE001112450E0440F551F3D
:101C8000C40FD51F90E5899FC00DD11D1124CE0131
:101C900089960E94E432612FCE018A960E94E43236
:101CA000DF91CF911F91089585E290E00E94C032AC
:101CB000883489F486E290E00E94C032813559F47C
:101CC00087E290E00E94C03291E08A3409F090E00F
:101CD000892F8170089580E0FCCFFF920F931F93AE
:101CE000CF93DF93843048F5611127C024E0829FB1
:101CF0008001112407591E4F82E090E0442311F027
:101D000090E080E0F42E800F911F0E94C032C82F17
:101D1000D0E0DC2FCC2783E090E0FF2011F081E0C1
:101D200090E0800F911F0E94C0329E01282BC901B4
:101D3000CDB7DEB7E5E00C94993290E080E0F8CFC3
:101D40000F931F93CF93DF93843030F5653020F5E8
:101D5000483010F520E1629FE001112450E0440F6B
:101D6000551FC40FD51F30E5839FC00DD11D112411
:101D7000CE0189960E94C032082F10E0102F002754
:101D8000CE018A960E94C0329801282BC901DF91AA
:101D9000CF911F910F91089590E080E0F8CF462FEA
:101DA0002091BF013091C001232BD1F4703F39F451
:101DB000603FB1F48091C2019091C3010895672FF3
:101DC000753038F4483060F4843050F40E94A00E2E
:101DD00008957D3F41F4411103C041E0843048F053
:101DE00090E080E008957C3FD9F74111F9CF84302D
:101DF000B8F760E00E946D0E0895CF92DF92FF92D7
:101E00000F931F93CF93DF936C0100911402809185
:101E1000A801082BC3E0D0E010E0FC2EC8010C2E76
:101E200002C0959587950A94E2F780FD0CC0219732
:101E3000A0F7F12C8F2DDF91CF911F910F91FF9083
:101E4000DF90CF900895B6018C2F0E94CF0E0E9494
:101E5000CD09019761F3EECFCF93DF93EC010E94A0
:101E6000FD0EBE010E94CF0E0E94CD09DF91CF91E1
:101E70000895FC0124812223F1F087819085009749
:101E800089F00E94CD0992959F709630B1F078F458
:101E90009250923080F4803F19F058F4883E58F404
:101EA00081E00895808191810E942C0FECCF9A509F
:101EB000F0CF843FA9F380E00895883E88F3813F06
:101EC000D1F7EECFA6E0B0E0E8E6FFE00C947F3279
:101ED000FC01878190850097E9F4CF0126E0DE01BF
:101EE000119601900D922A95E1F7FC0125818981D7
:101EF0009A81222399F0662389F00E94FD0E182F03
:101F0000682F89819A810E94610B69817A81812F72
:101F10000E94CF0E2696E3E00C949B320E94190B90
:101F2000182FF3CFAAE0B0E0E8E9FFE00C94743298
:101F3000809002039090030381E090E0909303036C
:101F40008093020390E3E92E95E0F92EB12CA12CA9
:101F5000712C6501612C1AC0F801EC0DFD1DEE0F0E
:101F6000FF1FE051FC4F25913491402F662D872DA6
:101F70000E942D0E0F5F1F4F0830110569F788E092
:101F8000C80ED11C639495E0691619F010E000E0CA
:101F9000E3CFF7012591349141E060E0872D0E9465
:101FA000020EF70132962591349140E060E0872DD2
:101FB0000E94020EE4E0EE0EF11C7394F8E2AF0E04
:101FC000B11C84E07812C5CFFE0131967F018AE012
:101FD00011928A95E9F709E711E04AE050E0B8016B
:101FE000C7010E940833065F1F4F093CF1E01F073D
:101FF000A1F790920303809202032A96EEE00C94DC
:10200000903280E00E94D90D60E088E290E00E946A
:10201000E4320E94920F0E94F20D81E00E94D90DDD
:102020000895AB0124E630E0BC0188E70E94CC3182
:1020300021E0892B09F020E0822F089580913C0255
:1020400090913D02911103C091E089270895882362
:1020500069F062E070E08DEB93E00E941110811155
:1020600003C080913C02089510923C0280913C0292
:10207000EBCFCF93C0913C0280913D028823D1F0F9
:102080000E94A807605A75418F4F9F4F6093380296
:102090007093390280933A0290933B02C11108C0B9
:1020A00062E070E08BEB93E00E941110811105C09B
:1020B000C0913C028C2FCF91089581E080933C0227
:1020C000F7CFAAE0B0E0E7E6F0E10C947A32E4EC76
:1020D000F1E080E5DF011D928A95E9F7E3E5F2E0A2
:1020E00088E3DF011D928A95E9F784ECC82E81E030
:1020F000D82E7F0109E711E0F701D182C0824AE0C2
:1021000050E0B801CE0101960E94B03288E0FE0195
:102110003196D60101900D928A95E1F789859A85CD
:10212000D70113969C938E931297BAE0CB0ED11CD5
:10213000E7E0EE0EF11C065F1F4F093CF1E01F07C0
:10214000D9F62A96E8E00C9496329091AA0192FB77
:10215000222720F9281779F080FB92F99093AA01A1
:102160006091A9017091AA0184E090E00E9402337D
:1021700082E00E94AD0B089590E080E00E94CE3294
:10218000863E9E4F19F40E94540E089580E00895F3
:10219000A6E0B0E0EEECF0E10C947C32262F8983CF
:1021A0008AE38A83FE0131966436C0F1862F64E6A5
:1021B0000E942033805D8B8343E011E0140F4E0FAB
:1021C0005F2F511D3AE0822F632F0E9420330E941F
:1021D0002033905DDA019C93AF01410F511D822F96
:1021E0006AE00E942033905DDA019C93A1E0A10F88
:1021F000AE0FBF2FB11D1C92DF010D900020E9F73B
:10220000CD0101977C018F010E151F0560F081E063
:102210000E94A10D2696E6E00C94983212E06A30F6
:10222000D8F242E0CACFD8018D918D010E94120DE3
:10223000EBCFB0E0A0E0EFE1F1E10C9474328091DB
:102240003D02882309F43FC183E393E090933A056C
:10225000809339058BED93E00E94D30D85ED93E0DB
:102260000E94D30D809114020E94D30B813009F497
:1022700069C058F0823009F468C0833009F468C03E
:102280008FEB93E00E94930D04C081ED93E00E94D8
:10229000D30D8FEE93E00E94D30D8BEE93E00E945E
:1022A000D30D80911301813009F45AC008F453C052
:1022B000823009F458C06091180183E50E94C8106B
:1022C00080911301ECE1F1E0813031F0EDE1F1E0DA
:1022D000823011F0EBE1F1E0608184E40E94C810EB
:1022E0006091150285E40E94C8108091310390919D
:1022F0003203892B09F4CEC080913D02882309F472
:10230000C9C0809137028111C5C00E943910209147
:102310003103309132032115310509F4BBC080E04F
:1023200041E050E0082F10E03A01082E02C0660C90
:10233000771C0A94E2F7B30162237323672BB1F48D
:102340008F5FF0CF8DEC93E0A2CF89EC93E09FCF2D
:1023500085EC93E09CCF86EE93E00E94D30DABCF4B
:1023600081EE93E0FACF8CED93E0F7CF90913602B7
:1023700090FFAEC0880F880F880F809328011092BD
:102380002B01895F8093290183E080932C0124E64F
:1023900030E047E050E066E271E088E70E94883173
:1023A000892B09F077C0A80185E0440F551F8A9555
:1023B000E1F78091360280FF9DC0E6E1F2E080E225
:1023C000DF011D928A95E9F7A6E5B1E002E511E08B
:1023D000882483942D91E80169918E01640F752FF3
:1023E000711D6D5C7C4F30E02A5E3D4FF90197E036
:1023F0007F01E21AF30A982C01C0990CEA94EAF7DB
:102400007B01B12CE70189917E018921A92EAB18AE
:10241000DA2DD770CD2E0D2E000CDD08C82F01C08F
:10242000CC0FDA95EAF7AC2ED194C194D108D7E05D
:10243000CD22DD240C2C01C086950A94EAF7DC2E0F
:10244000D82A80818D298083B39488E0B812DACFAE
:10245000915031969F3F61F6C1E0AA35BC0709F063
:10246000B9CF04E610E020E230E046E152E060E45B
:1024700088E70E941232892B69F4E301C095D09558
:102480008091310390913203C823D923D093320332
:10249000C093310380913C028823A9F00E94A807D1
:1024A000009138021091390220913A0230913B029A
:1024B000601B710B820B930B6F3F7F4F8F4F9F47BA
:1024C00010F40E941E10CDB7DEB7EEE00C949032EF
:1024D0008295880F807680932801980136952795FC
:1024E0003695279520932B01815E809329012093B7
:1024F0002C014DCF4D5C5C4F04E610E020E230E053
:10250000B6CF1F920F920FB60F9211242F933F93C5
:102510004F935F936F937F938F939F93AF93BF93EB
:10252000EF93FF938091E10082FF09C08091E20068
:1025300082FF05C08091E1008B7F8093E100809154
:10254000DA0080FF24C08091D80080FF20C08091F5
:10255000DA008E7F8093DA008091D90080FF9BC0E3
:1025600080E189BD82E189BD09B400FEFDCF81E033
:102570008093260380911803811109C00E944A06A6
:102580000E94E9068091E20084608093E2008091DD
:10259000E10080FF17C08091E20080FF13C08091AE
:1025A000E2008E7F8093E2008091E2008061809360
:1025B000E2008091D80080628093D80019BC85E049
:1025C000809326038091E10084FF29C08091E2007E
:1025D00084FF25C080E189BD82E189BD09B400FE88
:1025E000FDCF8091D8008F7D8093D8008091E1004D
:1025F0008F7E8093E1008091E2008F7E8093E200E5
:102600008091E20081608093E2008091270388231B
:1026100009F447C084E080932603809126038091CB
:10262000E10083FF27C08091E20083FF23C08091F7
:10263000E100877F8093E10082E08093260310927F
:1026400027038091E1008E7F8093E1008091E2007A
:102650008E7F8093E2008091E20080618093E200AF
:1026600042E060E080E00E94B7068091F000886060
:102670008093F000FF91EF91BF91AF919F918F9167
:102680007F916F915F914F913F912F910F900FBE6E
:102690000F901F90189519BC1092260310921803E2
:1026A00076CF8091E30087FD02C081E0B4CF83E064
:1026B000B2CF78941F920F920FB60F9211248F937E
:1026C0009F93AF93BF938091140390911503A091B2
:1026D0001603B09117030196A11DB11D8093140339
:1026E00090931503A0931603B0931703BF91AF9176
:1026F0009F918F910F900FBE0F901F9018959C0186
:102700004FB7F8948091140390911503A09116038C
:10271000B09117034FBF821B930B08952FB7F89406
:102720008091140390911503A0911603B0911703A3
:102730002FBF08950E948E1320910D03211104C014
:1027400020910E03222321F090930A038093090322
:1027500020910F03211104C020911003222321F0A6
:1027600090930803809307038BE093E00E94D907BE
:10277000089590910D03662309F471C091110CC066
:1027800090910E03911108C090911003911104C013
:1027900090910F03992331F098E09093040391E016
:1027A000909305038D3C41F40E9416088195809317
:1027B0000E030E949A1308958E3C19F40E94160885
:1027C000F6CF8F3C31F40E941608819580930D035B
:1027D000F0CF803D19F40E941608F8CF893D29F406
:1027E0000E94F40780930F03E4CF8A3D21F40E94F6
:1027F000F4078195F7CF8B3D31F40E94F407819562
:1028000080931003D6CF8C3D19F40E94F407F8CFC3
:102810009FE2980F983070F4815D990B21E030E0D1
:1028200001C0220F8A95EAF780910C03822B8093D6
:102830000C03BFCF8D3D31F48091060381608093FE
:102840000603B7CF8E3D21F4809106038260F7CF57
:102850008F3D09F0AECF809106038460F0CF8D3CB0
:10286000D9F490910E0397FF1DC010920E03809132
:102870000D03811106C080910E03811102C01092D8
:10288000040380910F03811194CF80911003811173
:1028900090CF109205038DCF8E3CD9F490910E030A
:1028A00019161CF39FE2980F983008F03CC0815D28
:1028B000990B21E030E0A90102C0440F551F8A9511
:1028C000E2F7CA01809590910C03892380930C0351
:1028D000CECF8F3C29F497FFE5CF10920D03C7CFE1
:1028E000803D19F41916CCF3DDCF90910F03893D8B
:1028F00029F41916BCF610920F03B9CF8A3D19F4CA
:1029000097FFD0CFF8CF8B3D39F49091100397FF0C
:10291000C9CF10921003ABCF8C3D21F690911003DC
:102920001916BCF3BFCF8D3D31F4809106038E7F25
:10293000809306039CCF8E3D21F4809106038D7F0A
:10294000F7CF8F3D09F093CF809106038B7FF0CFB7
:102950009091A001292F282361F0809589238093ED
:10296000A001882339F00E948E1390939F018093D9
:102970009E01089590E080E0F8CFCF93C0911903B5
:1029800080915102C82B8091A0018823C9F00E9438
:102990008E1320919E0130919F01821B930B8838EA
:1029A000934110F00E94C40A8091A001C82BEEE66A
:1029B000F1E097E080E0915031F581110E94C40A66
:1029C000C0936C0148E050E066E971E08CE691E06C
:1029D0000E94B733892BA9F088E0ECE6F1E0A6E984
:1029E000B1E001900D928A95E1F7E0911103F09129
:1029F0001203309731F00280F381E02D8CE691E0F4
:102A00000995CF91089521912223A9F28F5FD3CF09
:102A1000CF93C6E0EEE6F1E0DF018C2F1D928A95A0
:102A2000E9F7109251020E94BD14EBE0F3E0DF01E0
:102A30001D92CA95E9F710920403109205031092B3
:102A400006030E949A13CF910895AAE2B0E0EBE248
:102A5000F5E10C947F32E8E2F3E08091F10081939C
:102A600083E0E033F807C9F780912903833009F444
:102A70007FC008F5813009F456C0823009F4C2C025
:102A80008091E80083FFFCC0809128039091290386
:102A90009A3008F0F5C0E92FF0E0EF5AFA4E0C94A6
:102AA0008133131639164016391640169116B3168F
:102AB0004016BD17CA178A3009F493C08B3009F449
:102AC00074C08930E9F6809128038132C9F680917B
:102AD0002C0390912D03009711F0029789F68091B5
:102AE000E800877F8093E8008091E80082FF3BC088
:102AF0008091F3009091F200892798278927029707
:102B000031F48091F100813011F0863021F4809110
:102B1000F10080931B038091E8008B778093E8009D
:102B20000E949806ADCF80912803813A09F0A8CF82
:102B30008091E800877F8093E80080912C0390913A
:102B40002D03892B61F060E090E080E070E00E944E
:102B500044078091E8008B778093E80091CF68E08C
:102B60008CE193E0F3CF809126038111BDCF88CF14
:102B700080912803813A09F083CF80912C039091B2
:102B80002D03892B09F07CCF8091E800877F80930B
:102B9000E8008091E80080FFFCCF80912E018093B7
:102BA000F1008091E8008E77B9CF809128038132BF
:102BB00009F066CF80912C0390912D03892B09F0A9
:102BC0005FCF8091E800877F8093E8000E9498069D
:102BD00080912A0380932E01109219030E940815F8
:102BE0004FCF80912803813209F04ACF8091E800CD
:102BF000877F8093E8000E94980680912B03809342
:102C00001A033ECF80912803813A09F039CF809191
:102C1000E800877F8093E8008091E80080FFFCCF88
:102C200080911A03BCCF803889F0823849F58091B1
:102C30002C038F70873020F58093E9008091EB00A2
:102C400085FB882780F91092E90006C08091240353
:102C500090912503911182609091E800977F909365
:102C6000E8008093F1001092F1008091E8008E77E7
:102C700027C0282F2D7F21F48823A1F0823029F14D
:102C80008091E80083FF0AC08091E800877F8093ED
:102C9000E8008091EB0080628093EB00AA96E3E06D
:102CA0000C949B3280912A03813051F7933009F0C4
:102CB00080E0809325031092E9008091E800877FEF
:102CC0008093E8000E949806DBCF80912A0381114F
:102CD000F2CF80912C038F702FEF280F263080F6D3
:102CE0008093E9002091EB0020FFE5CF933031F491
:102CF0008091EB0080628093EB00DDCF9091EB0040
:102D000090619093EB0021E030E001C0220F8A95A2
:102D1000EAF72093EA001092EA008091EB008860C5
:102D2000EACF8111ADCF10912A031F778091E30084
:102D30008078812B8093E3008091E800877F8093E7
:102D4000E8000E9498068091E80080FFFCCF809107
:102D5000E30080688093E30083E0111101C082E00A
:102D6000809326038DCF8058823008F089CF209140
:102D70002A0330912B032C3DA3E03A07A1F583E011
:102D80008A838AE289834FB7F894DE01139620E0A4
:102D90003EE051E2E32FF0E050935700E49120FF32
:102DA00003C0E295EF703F5FEF708E2F90E0EA3046
:102DB000C0F0C7968D939D932F5F243159F74FBF75
:102DC0008091E800877F8093E8006AE270E0CE019E
:102DD00001960E9444078091E8008B778093E80079
:102DE0004FCFC096E7CF80912C0390912D03432FB6
:102DF00055274330510509F44FC078F5413051054E
:102E000009F445C08BE590E0E0E4F5E0423051057F
:102E100009F036CF2091E800277F2093E800209129
:102E20002E0330912F038217930708F49C0140E092
:102E30002115310509F06EC041116CC08091E80088
:102E400082FDC9CF80912603882329F2853019F2AB
:102E50008091E80083FFF2CFBECF4132510509F4E3
:102E60004AC04232510509F00BCF8330910508F07A
:102E700007CFFC01EE0FFF1FE35AFE4F0190F081D8
:102E8000E02D865A9E4FDC018C9190E020C082E1BB
:102E900090E0EBE9F5E0BECF332721303105D9F0E2
:102EA00078F022303105F9F02330310509F0E8CE11
:102EB000EDEAF5E0E4918E2F90E0EDEAF5E007C051
:102EC000EDEEF5E0E4918E2F90E0EDEEF5E0009769
:102ED00009F4D6CE9FCFE9EDF5E0E4918E2F90E096
:102EE000E9EDF5E0F4CFEBECF5E0E4918E2F90E026
:102EF000EBECF5E0ECCF8330910508F0C1CE880F04
:102F0000991FFC01ED59FE4F0190F081E02D89E001
:102F100090E080CF80912603882309F45CCF853030
:102F200009F459CF8091E80083FD55CF8091E800E6
:102F300082FD84CF8091E80080FF7ACF8091F300FA
:102F40009091F2008927982789272115310519F0DA
:102F50008830910550F041E0089709F040E08091F9
:102F6000E8008E778093E80063CF44914093F100AE
:102F70003196215031090196E8CF803809F080CE92
:102F80008091E800877F8093E800809127038093F9
:102F9000F1006BCE811174CE10912A03123008F02B
:102FA0006FCE8091E800877F8093E800109327031D
:102FB0000E9498061123D1F084E08093260342E01A
:102FC00061EC81E00E94B70642E261EC84E00E947D
:102FD000B70642E261EC82E00E94B70642E260EC92
:102FE00083E00E94B706809126034ACE8091E300D9
:102FF00087FDE2CF81E0E1CF1F920F920FB60F92D3
:1030000011242F933F934F935F936F937F938F93ED
:103010009F93AF93BF93CF93EF93FF93C091E9003A
:10302000CF708091EC001092E9008091F000877FD2
:103030008093F00078940E9425151092E900809109
:10304000F00088608093F000C093E900FF91EF9159
:10305000CF91BF91AF919F918F917F916F915F9130
:103060004F913F912F910F900FBE0F901F90189589
:10307000109219030E9408152FEF84E39CE0215061
:1030800080409040E1F700C0000088E19CE00FB66E
:10309000F894A895809360000FBE90936000FFCFD6
:1030A000882341F0809590915102892380935102A9
:1030B0000E94BD140895882339F090915102892B04
:1030C000809351020E94BD140895882321F00E942C
:1030D000CF0A0E94BD140895882339F090911903F6
:1030E000892B809319030E94BD140895882309F445
:1030F00044C0823879F40E94E70781FF3EC089E32B
:103100000E94C0070E94BD1489E30E94B4070E9478
:10311000BD140895833859F40E94E70780FF2DC03D
:1031200083E50E94C0070E94BD1483E5EECF84387A
:1031300059F40E94E70782FF20C087E40E94C0077D
:103140000E94BD1487E4E1CF9CEF980F913AE8F21A
:1031500090E2980F983050F4877091E001C0990F79
:103160008A95EAF7892F0E94CF0AD1CF93E3980F6F
:10317000933118F460E00E94B9130895CF93882327
:10318000D1F0C82F8238C9F40E94E70781FD13C02F
:1031900089E30E94C0070E94BD142FEF87EE93E0E1
:1031A000215080409040E1F700C0000089E30E9478
:1031B000B4070E94BD14CF9108958338A1F40E94F2
:1031C000E70780FDF8CF83E50E94C0070E94BD1489
:1031D0002FEF81EE94E0215080409040E1F700C055
:1031E000000083E5E4CF8438A1F40E94E70782FD64
:1031F000E2CF87E40E94C0070E94BD142FEF81EE4A
:1032000094E0215080409040E1F700C0000087E446
:10321000CECF8CEF8C0F813A70F4EEE6F1E084E7CC
:1032200091E02191C21711F18E179F07D1F78C2FD2
:103230000E94C007BECF80E28C0F883068F4C77050
:1032400021E030E001C0220FCA95EAF7809119030E
:10325000822B80931903ADCF83E38C0F833108F069
:10326000AACF61E08C2F0E94B913A5CF8C2F0E94AA
:10327000B4070E94BD14DBCF1F93CF93DF93182FA9
:10328000EB010E94BE18209739F4812F0E94761816
:10329000DF91CF911F9108958FE99FE00197F1F79A
:1032A00000C000002197EFCFB0E0A0E0EAE5F9E12F
:1032B0000C947832EC018AE0A82E2881222309F4AC
:1032C000CEC0213009F04FC089818130A9F48E0130
:1032D0000E5F1F4F8A8160E570E0893311F065E071
:1032E00070E00E943C19E8018FE19EE40197F1F73C
:1032F00000C000002196E1CF823039F48E010E5FCC
:103300001F4F8A810E94BE18EECF833039F48E01A0
:103310000E5F1F4F8A810E947618E5CF843011F02E
:103320002196E2CF2A81229690E080E0AE014F5FA5
:103330005F4F2053330B2A30310550F00097A1F234
:10334000EFE9FFE03197F1F700C000000197F6CFF9
:10335000A89EB001A99E700D1124C901860F971F68
:103360002981EA01E3CFE22FF0E0EF59F44FB49066
:10337000822F86958695869590E0FC01EF5AF44F52
:10338000E4902770F12C022E02C0F594E7940A9481
:10339000E2F7E1E0EE22FF24FC01EF5BF44FC49082
:1033A000D12C022E02C0D594C7940A94E2F7F1E022
:1033B000CF22DD24FC01EF5CF44F049110E002C049
:1033C000159507952A95E2F701701127E114F1048C
:1033D00049F081EE0E94BE188FE19EE40197F1F75B
:1033E00000C00000C114D10449F086EE0E94BE184E
:1033F000EFE1FEE43197F1F700C0000065E070E016
:103400008B2D0E943C198FE19EE40197F1F700C0DB
:103410000000C114D10449F086EE0E947618EFE155
:10342000FEE43197F1F700C00000E114F10449F027
:1034300081EE0E9476188FE19EE40197F1F700C0BB
:1034400000000115110509F455CF65E070E08CE22C
:103450000E943C19EFE1FEE43197F1F749CFCDB777
:10346000DEB7EAE00C9494329091AA0192FF10C06A
:1034700098E0899F90011124622B609395010E942E
:10348000C40B0E948E13909394018093930108952E
:103490000E94C40B0895CF93DF93C3E1D1E081E094
:1034A0008B870E948E139D878C87DF91CF91089523
:1034B00090911301913039F1EDE1F1E0923019F082
:1034C00096E0EBE1F1E02081482F880F550B240FA7
:1034D000352F311D9217130609F02CF4922F2B353E
:1034E00031050CF09AE590830E94302581E09EEF33
:1034F00090932301809322019093250180932401CE
:103500000E944B1A089594E0ECE1F1E0DCCFA4E0D6
:10351000B0E0EDE8FAE10C947632FC01248122233C
:1035200009F4EDC07C0161E00E94620FF701258182
:10353000AC01222309F40CC457574038510508F058
:10354000B1C0182F803108F0CBC08FEF93E00E94FC
:10355000C0328111C5C049ECA42EBB24B394111113
:1035600033C019821A821B821C82CC24CA94450162
:103570003FEF831A930AC5010E94C03289831A82E1
:10358000882309F4ADC0813009F086C085010E5F43
:103590001F4FC4010E94C032D82E8A83882309F4A9
:1035A0009FC0C8010E94C032982E8FEF8D0D8330CE
:1035B000D0F40F5F1F4F9B82992021F0CE0101961E
:1035C0000E9454195801D3CFA114F4E0BF0609F4A6
:1035D00087C0C5010E94C032811101C011502FEF78
:1035E000A21AB20ABCCF8BEF8D0D833070F5C501E6
:1035F00003969B828C01992029F385010C5F1F4F54
:103600000E94C0328C838823E9F2AB80BC8041E009
:10361000A4164FEFB40610F0BA2CAA2456E0D51623
:1036200081F087E0D81649F0C5010E94B124EFE18E
:10363000FEE43197F1F700C00000C5010E94792433
:10364000C1CFC5010E94B124BDCFF4E0DF12BACFD3
:1036500085010C5F1F4FC50103960E94C03299205F
:1036600009F43EC0882309F43BC08150990BC89EE1
:103670009001C99E300D1124492D4150550BCA01AE
:10368000820F931F019708F49DCFEFE9FFE0319778
:10369000F1F700C00000F6CFCE0101960E94541948
:1036A000840190CFFC01E051FE47E830F10508F0BD
:1036B0007AC0E35AF44E0C948133651B831B8E1B36
:1036C000991BA61BBB1BC01BC51B80911301882324
:1036D00021F00E943A251092130181E08093150297
:1036E00080919501877059F0F7018581882339F021
:1036F0008091AA0182FF03C082E00E94AD0B249654
:10370000ECE00C94923280911301813029F00E94F8
:103710003A2581E08093130182E0E0CF809113018C
:10372000823029F00E943A2582E08093130183E0E1
:10373000D5CF809118018E3238F48B5F80931801B9
:103740000E944B1A84E0CACF82E3F8CF809118011F
:10375000482F4550550B1416150634F48550433345
:1037600051051CF082E301C081E0809318010E94A2
:103770004B1A85E0B3CF82E00E94581A86E0AECFA4
:103780008EEF0E94581A87E0A9CF86E380931B0131
:1037900088E180931C018CE080931D0180E00E94F1
:1037A000581A88E09BCFAC01545740345105D0F4EF
:1037B000803208F095CFE82FE695E695E695F0E0A3
:1037C000E25CFD4F877021E030E001C0220F8A9556
:1037D000EAF78081822B808381E0809346020E94F9
:1037E000B60C7ECF87375CE7950709F462C088374F
:1037F000ECE79E0709F468C0222381F08330FCE7E0
:103800009F0709F483C008F064C081153CE7930763
:1038100009F46DC081309C4709F47EC0F7018781AF
:103820009085009709F486C00E94CD098C01F701AC
:10383000A580B680B2942FE0B22280919501877066
:1038400001F1DA2CAA20F1F0812F807F803461F021
:1038500080E2800F8830A8F0812F807E803221F4B2
:10386000023078F0BB2069F08091AA0182FF09C084
:1038700082E00E94AD0B809195018770DD24D39486
:103880008111D12CE12FE295EF70EC3008F0C8C027
:10389000F0E0E35BF34E0C948133B11CB11CEA1CE5
:1038A000EA1C101D9B1D101D101DA01D0A1E1B1EB5
:1038B0001B1E81E0222351F00E94C40B43E062E012
:1038C00081E00E94800B0CCF82E0F4CF0E94A00B1D
:1038D000F5CF8B355CE7950759F18C35ECE79E0702
:1038E000E9F08A359C4709F099CF81E01EC010921B
:1038F00019030E9408152FEF34E34CE021503040AB
:103900004040E1F700C000000E94EE0C6FEF7FEF37
:1039100090E080E00E9402330E9438188091AA0152
:1039200082FB882780F991E089270E94A51076CF35
:1039300080E0FBCF858100811181882369F0C80177
:103940000E94FD0ED82E682FC8010E94610BB8019D
:103950008D2D0E94CF0E68CFC8010E94190BD82E62
:10396000F6CFF12FFF70CF2E107F19F0C29490EF99
:10397000C922AA20B9F0CC2069F080E2800F8830FB
:1039800010F0011109C080911903C82AC0921903CF
:103990000E94BD14802F42C080915102C82AC0925B
:1039A0005102F6CF802F0E947618CC20C9F180E218
:1039B000800F883010F0011104C08C2D0E94CF0AB6
:1039C00006C0C09480915102C822C09251020E9448
:1039D000BD1426C0212F2F70C22E107F103219F077
:1039E000C29480EFC822002349F0013009F47EC060
:1039F000AA2009F48AC0BB20C9F1CCCF8091AA01CA
:103A000082FD30C0AA2041F1CC2039F01091190379
:103A10001C29109319030E94BD1480E00E94BE1857
:103A2000DD20A9F08091950180FD11C0F70115827C
:103A30008695869586950E94C40BC7010E94871AB9
:103A4000809195018695869586950E94A00B60E0F1
:103A5000C7010E94620F53CE80E00E947618CC20EE
:103A6000F9F2ABCFAA2069F1B11004C08C2D0E94ED
:103A70006C18D6CF31E0B31210C01091A0018C2D7C
:103A80008123C81669F20E948E1390939F01809340
:103A90009E011C291093A001C3CF45E0B412C0CFF2
:103AA0008C2D0E946C188C2D0E94A814809192017C
:103AB0009C2D9823C91609F4B3CF8C2980939201C9
:103AC000AFCFB1100AC08C2D0E9465188C2D0E94BA
:103AD000A8148C2D0E94DE0AA3CF51E0B512A0CF0E
:103AE000809119038C2109F49BCFEDCFAA2029F0F6
:103AF00085E08B1508F494CFB9CF94E09B1508F4BA
:103B00008FCF8C2D0E9465188BCFBB20D1F309334A
:103B100069F4EFEFF7EE23E0E150F0402040E1F7E9
:103B200000C00000802F0E9476187ACF8FE19EE4BB
:103B30000197F1F7F5CF6A2D802F0E94B91370CF4E
:103B4000812F837091F5A11025C0402F4295469595
:103B50004770440F440F802F8F70042E01C0880FD0
:103B60000A94EAF720E004FF07C02FE030E001C02C
:103B7000220F4A95EAF72095169516951370123084
:103B800079F060F43091A801113039F0822B832351
:103B90000E94D00B0E94E70743CF832B822BF8CFE4
:103BA000282B8091A8018227F3CF8695AA2011F0B7
:103BB000812F8170882371F3402F4295469547707D
:103BC000440F440F802F8F70042E01C0880F0A9479
:103BD000EAF720E004FF07C02FE030E001C0220F29
:103BE0004A95EAF72095169516951370123069F0EC
:103BF00050F430911402113029F0822B83230E945B
:103C00007D0BC8CF832B822BFACF282B80911402F7
:103C10008227F5CF1F70AA2039F0812F0E94C40B94
:103C2000802F0E946C18B6CF802F0E946518812FBC
:103C30000E94A00BAFCF023F99F170F4003FC9F092
:103C4000013F91F0AA2009F46AC0BB2009F464C0C6
:103C5000802F0E94BE189ECF033F49F1043F91F789
:103C60008091AA0182FD2FC0812F8F71AA2001F3BC
:103C70001BC0AA2081F094E09B1508F48BCF1F7124
:103C800081E090E0012E01C0880F0A94EAF790913C
:103C900014028927B4CFE5E0EB1508F47BCFEFCF12
:103CA000812F8F71A110C4CF0E94C40B73CF80E00D
:103CB000AA2009F4A4CF1F7181E0012E01C0880F52
:103CC0000A94EAF79CCFAA20D1F0809195018770E1
:103CD000843049F40E94D70A812F8F710E94A00B73
:103CE0000E94E707B4CEF4E0FB15D0F31F71812FDB
:103CF0000E94C40B63E0812F0E94341AF1CF24E0AC
:103D00002B1530F40E94D70A64E0812F8F71F4CF15
:103D100081E00E94AD0BE4CF812F8F71C5CFBB2016
:103D2000A1F0093369F43FEF47EE53E031504040D2
:103D30005040E1F700C00000802F0E9476182ACF83
:103D40008FE19EE40197F1F7F5CF812F8F7170CF4E
:103D500054574034510508F045CD803208F0C0CCAE
:103D6000E82FE695E695E695F0E0E25CFD4F87707A
:103D700021E030E0A90102C0440F551F8A95E2F707
:103D8000CA0180959081892326CDCF93DF938091BE
:103D90008F01807F09F04DC080918E01882309F446
:103DA00048C0E091840550913B05C0918A01D091B3
:103DB000890160918B0170918C0149E05E17C9F116
:103DC0008E2F90E0E49FF0011124E45CFA4F2481EF
:103DD000222391F1489FF001499FF00D1124DF014A
:103DE000A45CBA4F11962C9111972C1325C02C91DD
:103DF0002D1322C015962C91159721111DC01296D6
:103E00002D913C91261B370B283C3105A8F480915D
:103E10008F018F70806180938F01EE5BFA4F8081FC
:103E20008F708061808389E891E00E94871A0E94E8
:103E3000E80ADF91CF910895FC013196E770BECF7B
:103E4000A8E1B0E0E6E2FFE10C9476328C0186E076
:103E5000F801DE01539601900D928A95E1F7F80181
:103E60008481E58099E8A92E91E0B92E90918D0189
:103E7000911128C0882319F1EE20F1F0C8010E94A9
:103E8000390FF82E8823C1F089E0F801D50101909F
:103E90000D928A95E1F780918D01813031F4809106
:103EA000890190918A010E942C0F0E94C51E8F2DBE
:103EB0006896ECE00C949232C8010E94871AFF24A5
:103EC000F394F5CFD080C18082809380F0908E01F2
:103ED00020918B0130918C01A401421B530BFF20D8
:103EE00009F40CC1483C510508F0B5C08823F9F22B
:103EF00090918A0180918F01282F207F09F05EC068
:103F0000C9121DC090918901D91219C04091900128
:103F100050919101278130854217530781F4E110B8
:103F200047C08F70806180938F0189E891E00E9483
:103F3000871A80918F01F8018683F12CB8CFE110A8
:103F400037C06C2D8D2D0E942B066C2D8D2D0E945F
:103F50002B06E82E8111F1CFDB8ACC8A8B899C89D4
:103F60000E942C0F292F22952F70243058F49F7017
:103F7000223080F0992391F0F8019681907F71F4BE
:103F8000FE2C95CF2A50223068F0C8010E94871A73
:103F9000EF2CF6CF992311F0882391F3805E8830BF
:103FA000A0F7EECF803F60F3815F833070F7E8CFFA
:103FB00080918F01816080938F01BFCFC9121CC097
:103FC00090918901D91218C04091900150919101AE
:103FD000278130854217530779F4E1100DC086839D
:103FE000C8010E94871A89E0F801A9E8B1E00190B0
:103FF0000D928A95E1F75BCFC8010E94390F8823A3
:1040000009F45ACFEE2009F457CF80918F01803206
:10401000B8F02091890130918A013B872A879D86DB
:104020008C8690918D019E871F86888B8091900150
:10403000909191019A8B898BCE010A960E94871AE2
:1040400089E0F801A9E8B1E001900D928A95E1F7C5
:104050000E94C51E34CF90918F01292F207F51F4EB
:1040600089E891E00E94871A89E0F50111928A950A
:10407000E9F763CF882309F41ACF80918A018C1164
:1040800019C080918901D81215C0409190015091BA
:104090009101278130854217530761F4E1100AC06E
:1040A0009683C8010E94871A89E0F50111928A95CA
:1040B000E9F7FDCEC8010E94390F882309F4FCCE30
:1040C000EE2009F4F9CE80918F01803208F4B8CF48
:1040D0002091890130918A013A8329839C828B82C5
:1040E00090918D019D831E828F838091900190918C
:1040F000910199878887CE010196A0CF483C510550
:1041000098F6882309F4DBCEFE2CEE2009F4D4CEF9
:1041100080918A018C1120C080918901D8121CC025
:10412000209190013091910187819085281739075E
:1041300099F490918F0190FD56CF907F09F453CF61
:1041400080918F018683903F09F44ACF982F907F0A
:10415000905F8F70892B43CFC8010E94390F811166
:104160006FCF80918F01816080938F01C8010E9481
:10417000871A9DCEA2E1B0E0E0ECF0E20C947E3232
:104180000A871B872C873D874E875F87688B798BD3
:104190008A8BCE010A960E94201F81112AC089E0D5
:1041A000FE013A96DE01119601900D928A95E1F793
:1041B0008E858823F1F020913B0530E0C9010196FE
:1041C00087709927409184054817190659F199E09D
:1041D000929FD001939FB00D1124A45CBA4FFE01B1
:1041E000319601900D929A95E1F780933B050E94DC
:1041F000E80A19E08091840590913B05891709F13F
:10420000819FC0011124845C9A4F0E94201F882343
:10421000C1F08091840590E0019687709927809382
:104220008405E8CF109219030E94081510923B05EF
:104230001092840589E0E9E8F1E0DF011D928A959A
:10424000E9F76296E4E00C949A32B0E0A0E0EBE289
:10425000F1E20C94793280918B02882369F0C0914D
:104260005202C12C8DE0D82E80918B02C81748F0E5
:1042700010928B0210925202CDB7DEB7E9E00C9497
:104280009532BB24B394BC0EB0925202EC2EF12CAA
:10429000CD9DE0011124C457DD4F8C81882361F14D
:1042A0008F819885892B21F489859A85019659F407
:1042B000088119812A813B814C815D816E817F81DA
:1042C00088850E94BA20DE9CF001DF9CF00D11244D
:1042D000E457FD4F148210925102C1100DC0CE015F
:1042E0000E94390F811108C08FE19EE40197F1F718
:1042F00000C00000CC24C394CB2DB6CF1092FF0297
:104300001092FE0210922D018091FD028093FC021A
:104310000E9472080E9425210895B0E0A0E0E3E920
:10432000F1E20C947132C091FC0297E0992E01E009
:1043300010E02DE0322E34E0432E5524539480912A
:10434000FD028C1309C00E9425210E947208CDB77E
:10435000DEB7E1E10C948D32D0E0FE01EE0FFF1FDD
:10436000EC50FD4F80819181989ED001999EB00DB7
:104370001124AD5ABD4F14962C911497211159C098
:1043800060908B02ECE8F2E030E020E0812C5D01EF
:10439000261508F04CC0E384F484D501CD90DC9060
:1043A0006FEF7FEF712C472D50E0DA01AA0FBB1F92
:1043B000AC0DBD1D0D90BC91A02D109731F0EA16EB
:1043C000FB0609F4BA017394EECF6F3F7607A9F1AB
:1043D000D80102C0AA0FBB1F6A95E2F78A2AB8016A
:1043E000072C02C0660F771F0A94E2F7AB01415019
:1043F00051098416150601F5329EF001339EF00D29
:104400001124E457FD4F989ED001999EB00D1124C0
:10441000AD5ABD4F12962D913C911397308727834B
:104420004482108211829287818715965C920E9445
:1044300044082196C37083CF14822F5F3F4F3D966F
:10444000A7CFAEE1B0E0E7E2F2E20C9470324B8B22
:104450005C8B6D8B7E8B8F8B988F9111109251029C
:10446000188A198A1A8A86E0FE017396DE011A9666
:1044700001900D928A95E1F78091AA0182FF24C0F4
:104480000E948E132091930130919401821B930B13
:104490008838934158F18091950182FB882780F9F3
:1044A00091E0892780FF03C082E00E94AD0B0E944B
:1044B0008E1320919E0130919F01821B930B8838AF
:1044C000934110F00E94C40A8E85811111C00A85A3
:1044D0001B852C853D854E855F85688979898A890C
:1044E0000E94BA206E96E2E10C948C3280E0DACF22
:1044F00061E0CE010A960E94620F6C018F8540E553
:10450000C4164CE7D40651F48823F1F081E080937F
:104510002D0181E090E080FDDACFE4CF61E5C616A1
:104520006CE7D60629F4882379F00E947E21F1CF2A
:1045300072E5C7167CE7D70639F4882329F0809105
:104540002D01882319F3F1CF83E5E82E82E0F82EC0
:10455000512CB12CA12C88248394912CCE0101964E
:104560009A8F898F44244394F701408151816624B6
:104570006A94762C20E0822F90E0FC01EE0FFF1F62
:10458000E40FF51F608171816115710539F0C61660
:10459000D70609F0C3012F5F3C01EDCF10E0FFEF1C
:1045A0006F167F0609F443C0F701448110912D0175
:1045B000812F411180E0182F1170F701358086811D
:1045C0009F85992309F4F5C0112309F4F2C0311035
:1045D00014C0A401062C01C0440F0A94EAF7842BEE
:1045E000868380914F0290915002C29730F462E32B
:1045F00070E07093500260934F02C40102C0880FB4
:10460000991F2A95E2F70197F701268128171906C5
:1046100071F48091FE029091FF02009709F44AC064
:104620000E947F13C39708F445C0F7014482512AC2
:10463000FFEFAF1ABF0A27E0E20EF11C38E0A31625
:10464000B10409F091CF8F85882309F412C1552058
:1046500009F40FC10E948E139093FF028093FE0213
:1046600080918B02883010F591E0980F90938B0227
:1046700099E0FE013A96DE01119601900D929A950D
:10468000E1F74DE0849FC001112484579D4F29E03C
:10469000FE013196DC0101900D922A95E1F72FEF92
:1046A0003FEFFC0132872187D486C38681E05826FC
:1046B000852D31CF8091FC025091FD02982FF0E0C2
:1046C000E0E0851314C09093FC02EE15FF0509F499
:1046D000AECF90E0FC01EE0FFF1FEC50FD4FB1821A
:1046E000A0820196837099278093FD02A0CF682E47
:1046F000712CF301EE0FFF1FEC50FD4F2081318133
:10470000F7E0F29FD001F39FB00D1124AD5ABD4FD9
:104710002D913C9111973E8F2D8F40E020E030E0AD
:10472000E32FF0E0EE0FFF1F6D8D7E8DE60FF71F7C
:104730002080318021143104E1F0F7010190F081F3
:10474000E02DFC8FEB8F20E005C02616370609F41C
:10475000412F2F5FE22FF0E0EE0FFF1F6B8D7C8D5E
:10476000E60FF71F608171816115710571F73F5F79
:10477000D7CF4423D9F0FD01231708F4F701448271
:10478000EE16FF0621F49093FC02142F50CF9813DD
:1047900007C0AE17BF0721F4C3010196982F93708D
:1047A00093012F5F3F4F822F83708BCFF0E0E0E0CB
:1047B000F7CF90E0311020C0B40102C0660F771F20
:1047C0002A95E2F79B01215031092817390731F466
:1047D000442309F44CC0C5010E944408C401062CBE
:1047E00001C0880F0A94EAF7982F9095F701868107
:1047F00089238683132D1BCFAC01062C02C055954F
:1048000047950A94E2F7BA01617077279C0121501D
:10481000310982239323892B31F5672B21F1F7018D
:1048200082819381892BE1F0E98DFA8D27E0119245
:104830002A95E9F70E948E13282F8B839C8334E0FE
:104840003D83F70182819381782F88879987098139
:104850001A813C8144E05E816F81892F0E94BA20D9
:10486000F7011582BBCFF42FF1703F2EB7CF312E59
:10487000B5CF9091FC028091FD02981719F00E942B
:104880008D2114CF0E9425211092FF021092FE026A
:104890000E9472080BCFA6E0B0E0E1E5F4E20C94D0
:1048A0007F3223B130E035952795359527952095B2
:1048B0003095122F1170109301039091000319137A
:1048C00002C0882391F083E0898384E08A830E9478
:1048D0008E13682F49815A81792F81E0912F0E9490
:1048E000212280910103809300032696E3E00C943B
:1048F0009B32A6E0B0E0EFE7F4E20C947E328C014C
:104900009093C3018093C201011580E21807C0F49F
:10491000802F0E947618C8010E94E60B9801205E45
:1049200031092830310518F00115110531F40E94C4
:1049300065182696E4E00C949A320E945018F9CF3C
:1049400080EF89838A830E948E138160682F9C8305
:104950008B8349815A817C8181E090E00E942122F1
:10496000E8CFA6E0B0E0E7EBF4E20C947E328C01F5
:104970009093C3018093C201011580E21807C0F42F
:10498000C8010E94E60B9801205E310928303105EC
:1049900018F00115110549F40E946C18802F0E942F
:1049A000BE182696E4E00C949A320E945B18F6CF6B
:1049B00080EF89838A830E948E138160682F9C8395
:1049C0008B8349815A817C8181E091E00E94212280
:1049D000E8CFA6E0B0E0EFEEF4E20C947E320E9465
:1049E0008E138C018091A1019091A20180179107F3
:1049F00081F019821A820E948E13682F49815A8190
:104A0000792F80E090E00E9421221093A201009370
:104A1000A1012696E4E00C949A32A6E0B0E0E3E12E
:104A2000F5E20C947F329FEF980F9430A8F4162F84
:104A3000E82FF0E0EE0FFF1FE85CFE4F80819181D0
:104A400099838A830E948E13682F49815A81792F16
:104A500081E0912F0E9421222696E3E00C949B3264
:104A600080912101882329F060E00E940D25109299
:104A700021010895A6E0B0E0E0E4F5E20C94803274
:104A800080911301813051F030F0823089F0269608
:104A9000E2E00C949C320E943025F9CFCE010196C1
:104AA00026E0FC0111922A95E9F70E94D907EFCF81
:104AB0000E94170CECCFA5E0B0E0E1E6F5E20C9423
:104AC0007232CE0101967C0185E0D7011D928A9554
:104AD000E9F73701570190E0C92E91E0D92E44241F
:104AE0004394512CF60181916F010E94360C00C055
:104AF00085E0882E81E0982EF40110E000E02191FD
:104B0000A22FA295AF70B0E090968C9190E02F709C
:104B100002C0959587952A95E2F780FD0AC0D501D8
:104B20008C919201002E01C0220F0A94EAF7822B89
:104B30008C930F5F1F4F0430110509F7F601319771
:104B400080810E944B0CB0EABA95F1F7EFEFAE1AF4
:104B5000BE0AF5E0CF16F1E0DF0621F6DD24D3949E
:104B6000D4018D914D010E94360C00C03D2D002EC8
:104B700001C0330F0A94EAF7F70140E051E0DA018F
:104B80002D91AD01822F82958F7090E0DC0190967F
:104B90008C9190E02F7002C0959587952A95E2F749
:104BA00080FD03C08081832B80833196B1E0453046
:104BB0005B0729F7F401319780810E944B0CE0EAF2
:104BC000EA95F1F70F5F1F4F0830110549F6E3EA48
:104BD000F1E085E0E80EF11C10E0D3018D913D017C
:104BE0009191891721F0DF0111978C9311E0E61460
:104BF000F70499F7112371F081E0809376010E9408
:104C00008E139093750180937401812F2596E0E1B6
:104C10000C948E32809176018823B9F380917401CF
:104C2000909175010E947F13059778F345E050E05D
:104C300063EA71E08AEB91E00E94B733892B49F077
:104C400085E0E3EAF1E0AAEBB1E001900D928A95EC
:104C5000E1F710927601D9CF1F920F920FB60F9203
:104C600011248F939F93AF93BF938091130381116E
:104C700013C08091140390911503A0911603B09175
:104C800017034196A11DB11D809314039093150342
:104C9000A0931603B0931703BF91AF919F918F918B
:104CA0000F900FBE0F901F901895ACE3B0E0EBE5AE
:104CB000F6E20C94703285B7806885BF85B780684E
:104CC00085BF84B7877F84BF0FB6F894A89580917D
:104CD0006000886180936000109260000FBE80E8E1
:104CE00090E00FB6F89480936100909361000FBE3E
:104CF00088ED98E090936B0180936A010E946110A7
:104D00000E944A060E94E9068091E2008460809336
:104D1000E200789480912603882399F01091E900AD
:104D20001F708091EC0080FFF7C080E8182B109274
:104D3000E9008091E80083FD0E9425151F70109303
:104D4000E90082E084BD93E095BD9AEF97BD809322
:104D50006E000E94540E811102C00E940110E7E40F
:104D6000F2E088E0DF011D928A95E9F781E0809307
:104D7000B30160E080E00E94900861E080E00E9462
:104D80009008EFE8F1E03197F1F700C0000010E083
:104D90008091B301181708F4C1C0809105010E94E9
:104DA0004B0C809106010E944B0C809107010E94E0
:104DB0004B0C809108010E944B0C00E011E0D801DF
:104DC0008D918D010E944B0CB1E005301B07B9F7A6
:104DD0001092A3011092BA011092A4011092BB018B
:104DE0001092A5011092BC011092A6011092BD0173
:104DF0001092A7011092BE010E94BC10811168C0E0
:104E000066EE7EEF90E080E00E94023360E082E098
:104E100090E00E94E43281E08093A80161E083E0A9
:104E200090E00E94E43260E074E184E090E00E944F
:104E3000023360E086E090E00E94E43260E087E0C8
:104E400090E00E94E43240E050E0BA0188E090E057
:104E50000E94F63260E084E290E00E94E43260E07A
:104E600087E190E00E94E43260E08CE090E00E94F4
:104E7000E43260E08DE090E00E94E43219821A8210
:104E80001B821C821D821E821F82188648E050E011
:104E900068E170E0CE0101960E94D43240E050E01B
:104EA000BA0180E290E00E94F63280E00E94D90DC3
:104EB0000E94011040E050E0BA018FE090E00E94B3
:104EC000F63240E050E0BA0183E190E00E94F63211
:104ED00082E090E00E94C0328093AB0184E090E0D9
:104EE0000E94CE329093AA018093A9010E945B2573
:104EF000EFE3FCE93197F1F700C000000E945B2569
:104F00008091BA0180FF1CC06FEF7FEF90E080E0DE
:104F10000E9402330E94EE0C80E008CF60E0812FF7
:104F20000E948308082F61E0812F0E948308E12FEF
:104F3000F0E0EE54FE4F880F802B80831F5F28CF58
:104F400083E090E00E94C0320E94D00B83E0809307
:104F5000360280E2809330030E9454316BE070E0AF
:104F600080EA91E00E9411108823E9F180913602D5
:104F700065E070E081FD07C18BE991E00E941110AE
:104F8000882389F16DE070E089E891E00E941110BA
:104F9000882349F10E94A807605A75418F4F9F4F9F
:104FA000609338027093390280933A0290933B02E7
:104FB000E3E3F3E080E092E0DF019C011D922150E9
:104FC0003040E1F7F0933A05E09339058FEF9FEF1A
:104FD000909332038093310381E080933D0280936C
:104FE0003C021092370222982A9A81E00E944B24B8
:104FF00010E1812C912C5401C12CD12C760186EF2B
:105000000E940431092E000CAA0BBB0BC80ED91E3E
:10501000EA1EFB1E87EF0E940431092E000CAA0B2A
:10502000BB0B880E991EAA1EBB1E8FE39FE1019742
:10503000F1F700C00000115011F720E1422E512C71
:10504000612C712CC701B601A30192010E94623349
:105050003093150120931401C501B401A3019201FD
:105060000E94623330931701209316010E94BC10F6
:105070008823E1F083E190E00E94C8322AEF260FF6
:10508000253510F460931B012CEF270F273510F402
:1050900070931C012EEF280F293510F480931D0109
:1050A0008FEF890F823310F49093180189E091E01B
:1050B00090931203809311038E010F5F1F4F5E01C7
:1050C00091E2A90EB11C80912603853079F480E12C
:1050D000E82E92E1F92E80912603853009F456C01E
:1050E000109219030E9408150E94E7070E945B2591
:1050F000ACEAEA2EA1E0FA2EBAEBCB2EB1E0DB2E21
:1051000021EB31E0D601F70191918D912E173F07E8
:1051100009F477C09817C1F3912C44244394D60125
:105120008D906D01F70151907F01581419F1712C88
:10513000662463945824852D8621A1F07FAA98AE19
:105140000E948E139AAF89AF4BAE91E0882D8621D5
:1051500009F490E09CAF4FA958AD69AD7AAD8BAD25
:105160000E9421227394660CF8E07F12E4CFF701CD
:1051700031978082939425E09212D1CF0E94A807A4
:10518000DD24D39443C086E991E0F8CE80912603D4
:10519000843031F10E941E1010921303A8E1B0E098
:1051A000E0E40FB6F894A895A09360000FBEE093DA
:1051B000600083B7817F846083BF83B7816083BFD2
:1051C0007894889583B78E7F83BF0FB6F894A8959F
:1051D00080916000886180936000109260000FBE33
:1051E00080912503882309F476CF0E945B25EAEBA2
:1051F000F1E081918111A5C621E0EF3BF207C9F7EB
:105200006ACF981389CF0E94E924D12C80912D0177
:105210008823F9F08091FE029091FF020097C9F077
:105220000E947F1320914F023091500228173907B6
:1052300080F49091FC028091FD029817E9F00E94A1
:105240008D211092500210924F021092FF02109284
:10525000FE0280E00E944B248091B401882351F02B
:105260001092B4018091490280934A0280914702D2
:1052700080934802C12C45C00E9425211092FF0254
:105280001092FE020E947208E4CF61E08C2D0E9411
:105290008308F82E60E08C2D0E948308EF2DEE0F1E
:1052A0008E2B2C2D30E0D901AE54BE4FEC919E2FA9
:1052B0009370891729F1EE0FEE0FE82BEC93EF7046
:1052C000F0E0EE5BFE4FC9018F549E4F7C01808160
:1052D000D7019C90980E9C92B5E060E0B91524F03F
:1052E000EBEF9E1624F461E08C2D0E94A308892D1B
:1052F000990C990B66E070E00E942C33D7018C93D7
:10530000C3948091B301C81608F4BFCF90E06CEF4E
:10531000C62E73E0972E88248394EDEF7E2EF2E064
:105320006F2E80914A0220914902281709F421C664
:10533000E82FF0E0E55BFD4F908197FBEE24E0F86D
:10534000F92EE894F7F88F5F837080934A0280917A
:1053500048028F5F80934802E11008C00E948E13BC
:10536000FBA6CCA69EA78DA79FA607C00E948E1362
:10537000FBA67CA69EA78DA76FA688AA4BA55CA5B9
:105380006DA57EA58FA598A90E942122EFE1FEE4DC
:105390003197F1F700C00000EE20C1F00E948E139B
:1053A000F9AA7AAA9CAB8BAB6DAA1EAA49A95AA9E5
:1053B0006BA97CA98DA99EA90E9421228FE19EE460
:1053C0000197F1F700C0000091E0ABCF0E948E136F
:1053D000F9AACAAA9CAB8BAB9DAAE7CF0E94A807EB
:1053E0000E9419110E943910CAC581E022C681E0CD
:1053F00028C681E068C681E06EC681E080FD13C0EA
:1054000080910D03811172C080910E0381116EC0D5
:1054100080910F0381116AC081E090911003911176
:1054200001C080E080FD0E949A1386E0F801ABE0A5
:10543000B3E001900D928A95E1F70E94B60C0E94AC
:10544000E7079091B501891721F08093B5010E947B
:10545000A80780912603843009F0EFC083E0809391
:10546000E9008091E80082FFE8C08091E80090E0C8
:1054700085FF0AC00E94690650E2E52EF12C680102
:10548000882309F43FC091E08091E8008B778093F6
:10549000E800992309F4D1C0E090BF01F090C00169
:1054A0008981E114F10409F43BC08E3F09F0BFC0CB
:1054B0008A81833020F08550833008F0B8C0EA81BB
:1054C000EE3008F0B4C0F0E0E859F54D0C948133AB
:1054D000292D412D482D822D932DAE2DBF2DD22D5E
:1054E000102E152E172B172B172B1D2E81E09ACF60
:1054F0008091F100D6018D936D01B1E0EB1AF108B6
:1055000009F4C1CF8091E80085FDF2CF8091E800D9
:105510008B778093E8000E946906882399F3B3CFC4
:105520008C3009F4B0C168F5843009F496C158F4A0
:10553000823009F46CC008F081C1813009F463C085
:105540008FEF898374C0863009F49AC108F48DC145
:105550008B30B1F78091020390910303892B09F4FA
:1055600066C040E250E0B80182E00E94600CEFEFBC
:10557000F1EE24E0E150F0402040E1F700C00000EF
:10558000C9CC803109F4B1C190F58E3009F482C1E3
:1055900008F47CC18091020390910303892B09F4E4
:1055A00046C0EA80FB80FE24EF24FE24CC80D12C70
:1055B00048013DE1C316D104D0F5C70187539E4F82
:1055C0009401201B310B2C153D0588F547E3E416AB
:1055D00042E0F40628F4D40114966C910E94E4325F
:1055E000BFEFEB1AFB0AEFEF8E1A9E0AE6CF82316D
:1055F00009F480C108F47CC1833109F4A5C18E3F50
:1056000009F09ECF5CCF1A8289E08B8310C08A811B
:10561000823009F491C5833009F4F9C0813009F072
:105620008FCF0E94A8079B838C837D836E8340E28B
:1056300050E0B80182E00E94600C8091C1018111AC
:1056400005C0219A299881E08093C10180911E01B3
:105650008823D9F080911F01909120010E947F132F
:10566000803D974090F010921E010E94BC1088234C
:1056700061F040911B0150911C0160911D017091DE
:10568000180183E190E00E94F63280911901909117
:105690001A010E947F130A9708F415CD0E948E13F9
:1056A00090931A018093190186EF0E9404317C01C6
:1056B00087EF0E9404313C0180911301813009F48D
:1056C0008FC308F410C3823009F0FDCC0E9430254E
:1056D000970150E040E08091140190911501281B42
:1056E000390B410951092301712C612C809116015C
:1056F00090911701481A590A61087108ECEEF0E020
:1057000057FF02C0E2E0F1E0AFEFB1E00E94AC333E
:105710009F0150E040E00E946233CC24C3949EEF8E
:10572000D92E2130BEEF3B07BFEF4B075B0754F08C
:105730006901211532404105510524F0CC24CA9459
:10574000DD24D394E5E1F1E077FC02C0E6EEF0E081
:10575000AFEFB1E0A30192010E94AC339F0150E092
:1057600040E00E9462332130FEEF3F07FFEF4F071A
:105770005F070CF4DBC4211582E0380741055105B1
:105780000CF0D7C4EE24FF24E21AF30A20911D0185
:1057900030E0AFEFB1E00E94963324E630E040E025
:1057A00050E00E946233C9013195219531092C15D1
:1057B0003D052CF4C816D90614F4D12CC12C2E1595
:1057C0003F052CF4E816F90614F4F12CE12C809135
:1057D0002201909123018C159D0541F480912401B3
:1057E000909125018E159F0509F46DCCD09223016F
:1057F000C0922201F0922501E0922401B60180E0DE
:105800000E94C708B70181E00E94C7085CCC809164
:10581000020390910303892B09F409CF8091BA0107
:105820008B838091BB018C838091BC018D8380919F
:10583000BD018E838091BE018F83F9CE8A81823033
:1058400009F07ECE6B817C818D819E810E948733A1
:1058500088E290E00E94E432EACE4C816B818A813A
:105860000E94A00E9D838E83E2CE2D813E81322741
:10587000232732274C816B818A810E942D0ED7CE3F
:105880000E94920FD4CE80E18A83D1CE82E08A83B7
:1058900087E3BBCEEA80FB80FE24EF24FE248C80CD
:1058A000912C6801EDE18E16910408F0C0CEC7017D
:1058B00087539E4F9601201B310B2815390508F0A0
:1058C000B6CEF7E3EF16F2E0FF0660F40E94C032B6
:1058D000D60114968C93FFEFEF1AFF0A2FEFC21A2E
:1058E000D20AE5CFF6011482F6CF0E94F20D9FCEC8
:1058F00084E0CACFEA80FB80FE24EF24FE248C8063
:10590000912C6801FDE18F16910408F090CEC7013B
:1059100089969601201B310B2815390508F087CE92
:1059200020E4E21621E0F20660F40E94C032D601C3
:1059300014968C93FFEFEF1AFF0A2FEFC21AD20AC8
:10594000E6CFF6011482F6CFCA80DB80DC24CD24BA
:10595000DC248C80912C3DE18316910408F067CE05
:1059600040E4C41641E0D40608F061CE80E491E042
:105970008C199D098815990508F459CE260189E2EC
:10598000480E511C8091020390910303892BD9F595
:10599000F12CE12CC0FE10C0C60188960E94C032D6
:1059A0009D8189279827892781159C4711F48FEFBE
:1059B0008D83EE24E394F12CC601880D991D3401EA
:1059C00080FF17C0B1E06B1A710835E0232E312C2F
:1059D0002C0E3D1E260C371CC201880D991D0E94FD
:1059E000C032F101908181159C4719F48FEFD101EC
:1059F0008C93F801EE0DFF1D2FEFCF01801B910B53
:105A00008615970510F076011BC084819581892742
:105A10009827892781159C4711F424832583329682
:105A2000ECCFE0E4EE16E1E0FE0638F4200F311F83
:105A3000D90114966C910E94E432BFEFEB1AFB0A75
:105A4000C701899697012C193D092815390548F396
:105A5000EECD88E0E0E3F1E0D50101900D928A956A
:105A6000E1F780E2D8011D928A95E9F786E0898303
:105A700088E0F501DE01159601900D928A95E1F717
:105A8000D6CD80E1898382E08A831B821C82CFCDC0
:105A90008C81682F70E0762F66278B81860F972F79
:105AA000911D092E000CAA0BBB0B25E0880F991F36
:105AB000AA1FBB1F2A95D1F7AC01BD01405E5F4F05
:105AC0006F4F7F4F481759076A077B0708F4AFCD20
:105AD0008031E2E09E07A105B10508F0A8CD413173
