:100000000C9497050C94CF050C94CF050C94CF0558
:100010000C94CF050C94CF050C94CF050C94CF0510
:100020000C94CF050C94CF050C94F4320C94C73388
:100030000C941F2C0C94CF050C94CF050C94CF0579
:100040000C94CF050C94CF050C94CF050C94CF05E0
:100050000C94CF050C94A82C0C94CF050C94CF05D0
:100060000C94CF050C94CF050C94CF050C94CF05C0
:100070000C94CF050C94CF050C94CF050C94CF05B0
:100080000C94CF050C94CF050C94CF050C94CF05A0
:100090000C94CF050C94CF050C94CF050C94CF0590
:1000A0000C94CF050C94CF050C94CF05414E4C47D2
:1000B000004D4F55530044494749004A4F590000ED
:1000C000556E6465660033726400326E640031738D
:1000D0007400307468004C4159455200001F001EE6
:1000E0000021002000230022002500240004000538
:1000F000000600070014001500160017000800098C
:10010000000A000B0018001900000000000C000D90
:10011000000E000F000000000000000000100011A1
:10012000001200130000000000000000001A001B75
:10013000001C00000000000000000000000400059A
:10014000000600070014001500160017000800093B
:10015000000A000B0018001900000000000C000D40
:10016000000E000F00000000000000000010001151
:10017000001200130000000000000000001A001B25
:10018000001C00000000000000000000000400054A
:1001900000060007001400150016001700080009EB
:1001A000000A000B0018001900000000000C000DF0
:1001B000000E000F00000000000000000010001101
:1001C000001200130000000000000000001A001BD5
:1001D000001C0000000000000000000000040005FA
:1001E000000600070014001500160017000800099B
:1001F000000A000B0018001900000000000C000DA0
:10020000000E000F000000000000000000100011B0
:10021000001200130000000000000000001A001B84
:10022000001C0000000000000000000000FD377A04
:10023000585A000004E6D6B4460200210116000018
:1002400000742FE5A3E00303011C5D003D8889A62F
:1002500054750A36E182AEFA7A1AA6FCA2ED495428
:10026000B48A5E7177BBD05FB821B59A6DEC054555
:10027000EFCE6A71C023FEA9DB302F7EF37E4BD315
:10028000DE126BE7EE1EA5DD985543A028C1493567
:10029000AC126367305C3DEEF2124F0C3294CCBC72
:1002A00017D5A4229E09839F69D6063599DCAB2316
:1002B000EA4ACA80FFC98C1203E2A83FC07B97A11B
:1002C0008A34C7C2A523A1199AC75CE4774DD08DA3
:1002D000056133FB43C4EE22D704D76C7644004556
:1002E00059E6844E960C4A2DEAE35768EC635602B1
:1002F000165D497A6981156CD20FDBDD5C6694D698
:1003000096A8EF0DF60126076D2AF7F2DB195DE4DA
:100310005344D4CF2FD86FBFCF988AB324477F10D0
:10032000C3EB4217DC6C746A16A031F9F87BFEA9A6
:1003300047F0494D6C322E9A6292D5BD17574AA8A4
:10034000D9942DC43B60534685EE6C7536155982A1
:100350009D83671E36DEDBA7A67DFD66584CE81A36
:1003600064A197A1BDD42D2C002F662E6CF34BB445
:10037000A90001B802840600007B4BBA29B1C4670A
:10038000FB020000000004595A00AE00AF00DA0280
:1003900081FFD9F1DB20A4A62EAF00A0C0D30000BE
:1003A000A1C8D30000AED580A81F408D142000073F
:1003B000087F0807003E5B4F5B3E003E6B4F6B3E85
:1003C000001C3E7C3E1C00183C7E3C18001C577DE7
:1003D000571C001C5E7F5E1C0000183C180000FFCC
:1003E000E7C3E7FF00001824180000FFE7DBE7FF82
:1003F0000030483A060E00262979292600407F055C
:10040000050700407F05253F005A3CE73C5A007F26
:100410003E1C1C0800081C1C3E7F0014227F221476
:10042000005F5F005F5F0006097F017F0000668953
:10043000956A0060606060600094A2FFA29400086A
:10044000047E04080010207E20100008082A1C08E2
:1004500000081C2A0808001E10101010000C1E0CAA
:100460001E0C0030383E383000060E3E0E060000EE
:10047000000000000000005F00000000070007000F
:1004800000147F147F1400242A7F2A1200231308EB
:10049000646200364956205000000807030000003F
:1004A0001C224100000041221C00002A1C7F1C2A43
:1004B0000008083E080800008070300000080808A6
:1004C0000808000000606000002010080402003EE0
:1004D0005149453E0000427F40000072494949466B
:1004E000002141494D33001814127F100027454563
:1004F0004539003C4A49493100412111090700367C
:100500004949493600464949291E000000140000A7
:1005100000004034000000000814224100141414AC
:100520001414000041221408000201590906003E7B
:10053000415D594E007C1211127C007F49494936B9
:10054000003E41414122007F4141413E007F4949F7
:100550004941007F09090901003E41415173007F73
:100560000808087F0000417F4100002040413F0112
:10057000007F08142241007F40404040007F021C61
:10058000027F007F0408107F003E4141413E007F12
:1005900009090906003E4151215E007F09192946DB
:1005A0000026494949320003017F0103003F4040D2
:1005B000403F001F2040201F003F4038403F006365
:1005C00014081463000304780403006159494D437F
:1005D00000007F4141410002040810200000414119
:1005E000417F0004020102040040404040400000FE
:1005F00003070800002054547840007F2844443802
:1006000000384444442800384444287F0038545477
:1006100054180000087E09020018A4A49C78007FEA
:10062000080404780000447D4000002040403D0064
:10063000007F102844000000417F4000007C0478C7
:100640000478007C0804047800384444443800FCF2
:10065000182424180018242418FC007C080404081A
:100660000048545454240004043F4424003C4040B7
:10067000207C001C2040201C003C4030403C0044BA
:1006800028102844004C9090907C004464544C44C2
:1006900000000836410000000077000000004136ED
:1006A0000800000201020402003C2623263C000050
:1006B0000000000000404040F0F8F8FF38FFF8F874
:1006C0003FF8F8FF38FFF8F8F04040400000000025
:1006D000000080C0C0C0800000C0C080000000805A
:1006E000C0C000C0C0000080C0C00000000000C04A
:1006F000C0C0C0C000C0C00000000000000000007A
:1007000000000000000000000000000000000000E9
:1007100000000000000000000000000000000000D9
:100720000000000000000000000000000000C0F019
:10073000F8FC3E1E06010000007F4141417F007F22
:100740004141417F000080C0E07E5B4F5BFEC00006
:1007500000C000DCD7DEDEDED7DC00C00000000019
:100760000000000000000000000000000000000089
:100770000000000000494949FFFFFFFFE0DFBFBF65
:1007800000BFBFDFE0FFFFFFFF4949490000000055
:10079000001F3F6060E0BF1F007F7F071E381E07FD
:1007A0007F7F007F7F0E1F3B716000000000007F95
:1007B0007F0C0C0C007E7E007F7E0303007F7E0397
:1007C000037E7E03037F7E000F3E703C063C703E3E
:1007D0000F00327B49493F7E007F7E0303001E3FAE
:1007E00069696F2600000000000000000000030F90
:1007F0001F3F3C7870600000007F4141417F007FD7
:100800004141417F00307B7F7830202030787F3B32
:100810000003000F7F0F0F0F7F0F00030000000089
:1008200000000000000000000000000000000000C8
:100830000000000000010101070F0F7F0F7F0F0F65
:100840007E0F0F7F0F7F0F0F0701010100000000D7
:100850000000000000000101000000000000000096
:100860000000000000000000000000000000000088
:100870000000000000000000000000000000000078
:100880000000000000000000000000000000000068
:100890000000000000000000000000000000000058
:1008A0000000000000000000000000000000000048
:1008B0000000000000000000000000000000000038
:1008C0000000000000000000000000000000000028
:1008D0000000000000000000000000000000000018
:1008E0000000000000000000000000000000000008
:1008F000000000000000002A2B280000000000007B
:100900000000000000000000000029000000002C92
:100910001E3420212224342627252E362D37382731
:100920001E1F202122232425263333362E37381F3D
:100930000405060708090A0B0C0D0E0F10111213FF
:100940001415161718191A1B1C1D2F3130232D359D
:100950000405060708090A0B0C0D0E0F10111213DF
:100960001415161718191A1B1C1D2F3130354C0081
:100970000000000000000000000000000000000077
:100980000000000000000000000000000000000067
:100990000000007E0F00D4FFFFFFC7000000781C9E
:1009A000037600690061006C003A0066003600348E
:1009B000006300320062003300630000000C036734
:1009C000006200630032003400000012036B007507
:1009D000007300680069006D0061003800000004C9
:1009E00003090409025B00030100A0FA09040000E6
:1009F0000103010100092111010001224400070542
:100A0000810308000109040100020300000009211C
:100A100011010001222200070582032000010705C1
:100A20000303200001090402000103000000092162
:100A30001101000122770007058403200001120143
:100A400000020000000838393432010001020301BD
:100A50000660FF0961A1010962150026FF009520CB
:100A6000750881020963150026FF0095207508911D
:100A700002C005010902A10185020901A1000509C1
:100A80001901290815002501950875018102050144
:100A9000093009311581257F9502750881060938CD
:100AA0001581257F950175088106050C0A38021508
:100AB00081257F950175088106C0C005010904A143
:100AC000018507A1000501093009311601FE26FF45
:100AD00001950275108102050919012920150025CB
:100AE00001952075018102C0C005010906A101051B
:100AF0000719E029E7150025019508750181029580
:100B000001750881010507190029FF150026FF005E
:100B100095067508810005081901290515002501AC
:100B2000950575019102950175039101C00011248D
:100B30001FBECFEFDAE0DEBFCDBF04B603FE18C0A4
:100B40008091990490919A04A0919B04B0919C0487
:100B50008730904BA740B04B59F4109299041092F3
:100B60009A0410929B0410929C04E0E0F8E309952B
:100B700011E0A0E0B1E0E8EAFDE602C005900D92C8
:100B8000AE37B107D9F724E0AEE7B1E001C01D925E
:100B9000A939B207E1F70E94A41A0C94D2360C943A
:100BA0000000E82FE295EF70F0E031A1282F2F70C0
:100BB00081E090E001C0880F2A95EAF7982F909580
:100BC000932391A392A1892B82A30895E82FE29504
:100BD000EF70F0E031A1282F2F7081E090E001C08C
:100BE000880F2A95EAF7932F982B91A392A18095CD
:100BF000892382A308950895CF93DF938091000104
:100C00000E94D105809101010E94D10580910201CD
:100C10000E94D105809103010E94D105C4E0D1E07A
:100C200089910E94D10581E0C930D807C9F7DF91C9
:100C3000CF910895A5E0B0E0E0E2F6E00C94243610
:100C4000CE0101967C0185E0D7011D928A95E9F7D6
:100C50003701670124E0822E21E0922E312C4424BA
:100C60004394512CF40181914F010E94E6050E94AA
:100C70003A1A90E0A92E91E0B92EF50110E000E0BB
:100C80002191A22FA295AF70B0E090968C9190E048
:100C90002F7002C0959587952A95E2F780FD0AC0CE
:100CA000D6018C919201002E01C0220F0A94EAF71E
:100CB000822B8C930F5F1F4F0430110509F7F4014D
:100CC000319780810E94D10560E0832D0E943C1AFB
:100CD0003394BFEFCB1ADB0AE5E03E12C3CFCC243E
:100CE000C3948CEFD82ED00ED5018D915D010E945A
:100CF000E6050E943A1A3C2D002E01C0330F0A94DB
:100D0000EAF7F70144E051E0DA012D91AD01822FBD
:100D100082958F7090E0DC0190968C9190E02F701E
:100D200002C0959587952A95E2F780FD03C08081E2
:100D3000832B80833196B1E049305B0729F7F501B9
:100D4000319780810E94D10560E08D2D0E943C1A70
:100D50000F5F1F4F0830110521F6C7010E94FB05E8
:100D6000E6E7F2E085E0E80EF11C10E0D3018D919A
:100D70003D019191891721F0DF0111978C9311E0CA
:100D8000E614F70499F7212F45E06BE772E086E758
:100D900092E00E945D1A0E94181A812F2596E1E1C7
:100DA0000C944036873941F178F4863359F130F4A8
:100DB000843321F1853321F18FE108958439D1F015
:100DC0008639D1F781E20895843F71F030F4803F95
:100DD000D9F0813F89F781E00895863F49F030F0EE
:100DE000873F51F787E0089584E0089585E00895EE
:100DF00086E0089580E2089582E2089583E20895EE
:100E000084E2089585E2089580E0089596E890933D
:100E10007A00982F9072906890937B008F719091D8
:100E20000901892B80937C0080917A0080648093F3
:100E30007A0080917A0086FDFCCF80917800209125
:100E4000790090917A009F7790937A00922F08957D
:100E50000E94D2060E940607089580912101909178
:100E60002201892B31F48091230190912401892B57
:100E700091F070E060E080E00E94842070E060E02B
:100E800081E00E9484201092220110922101109290
:100E90002401109223010895A6E0B0E0E2E5F7E016
:100EA0000C9432369FEF980F9430A8F4162FE82F49
:100EB000F0E0EE0FFF1FE45BFE4F8081918199838C
:100EC0008A830E94812C682F49815A81792F81E081
:100ED000912F0E94B40C2696E3E00C944E3680913C
:100EE0002001882329F060E00E944C071092200125
:100EF00008954F925F926F927F928F929F92AF92DE
:100F0000BF92CF92DF92EF92FF92CF93C0E1C12CBC
:100F1000D12C7601812C912C540186EF0E94280758
:100F2000092E000CAA0BBB0B880E991EAA1EBB1E15
:100F300087EF0E942807092E000CAA0BBB0BC80ED6
:100F4000D91EEA1EFB1E8FE39FE10197F1F700C057
:100F50000000C15011F780E1482E512C612C712CFA
:100F6000C501B401A30192010E94C63530931A0154
:100F700020931901C701B601A30192010E94C63551
:100F800030931C0120931B01CF91FF90EF90DF90D5
:100F9000CF90BF90AF909F908F907F906F905F9019
:100FA0004F900895A6E0B0E0E8EDF7E00C94293604
:100FB00080911E0190911F010E94992C0A97B8F010
:100FC0000E94812C90931F0180931E0186EF0E9446
:100FD00028077C0187EF0E9428078C018091180167
:100FE000813009F45FC038F0823009F4F6C02696EB
:100FF000ECE00C9445360E942D07809119019091E8
:101000001A01E81AF90A80911B0190911C01081B32
:10101000190BC70180968134910528F4C801809688
:101020008134910558F10833110534F5093C8FEFEF
:101030001807B4F1E8E3EE16F104CCF4F9ECEF167E
:10104000FFEFFF065CF1A701F7FE04C04427552718
:101050004E195F09C80117FF04C088279927801B14
:10106000910B841795072CF41E141F04BCF412E096
:1010700006C010161106A4F411E001C010E0809122
:101080002001811709F4B3CF60E00E944C0761E0B2
:10109000812F0E944C0710932001A9CF14E0EFCFBD
:1010A00013E0EDCF0E946F070E942D078091190178
:1010B00090911A01E81AF90A80911B0190911C0184
:1010C000081B190B9701F7FE04C0222733272E199E
:1010D0003F09C80117FF04C088279927801B910B7F
:1010E0008217930708F03FC04C01880C991C880EAA
:1010F000991EE3E096948794EA95E1F7820E931E99
:1011000088E38816910408F472CFA0911D01940120
:1011100027533109B0E00E94FA352FEA30E040E071
:1011200050E00E94A4356901121613061CF0CC246D
:10113000C394D12CB12CA12C9701D6010E94F23579
:10114000A50194010E94C6352138EFEF3E074E07F6
:101150005E07B4F0F22E203831054105510594F0B8
:101160002FE7F22E0FC04901880C991C820E931EA6
:1011700063E0969487946A95E1F7880E991EC0CF34
:1011800031E8F32E22273327201B310BD6010E9492
:10119000F235A50194010E94C6352138FFEF3F07C3
:1011A0004F075F07B4F020383105410551059CF425
:1011B000F11003C0222309F41ACFCE01019636E0C4
:1011C000FC0111923A95E9F7FB822C830E94132BC4
:1011D0000ECF21E8F2CF2FE7F0CF0E946F079701E3
:1011E00050E040E08091190190911A01281B390BC1
:1011F000410951094801B12CA12C60911B0170914A
:101200001C01861A970AA108B108E2E0F1E057FD37
:1012100002C0ECEEF0E0AFEFB1E00E9410369F01AB
:1012200050E040E00E94C635E12C9EEFF92E2115DA
:10123000FEEF3F07FFEF4F075F0754F079012115DD
:1012400032404105510524F0EE24EA94FF24F39442
:10125000E6EEF0E0B7FE02C0E5E1F1E0AFEFB1E0AD
:10126000A50194010E9410369F0150E040E00E94C9
:10127000C6352115EEEF3E07EFEF4E075E070CF483
:101280003FC02115F2E03F0741055105B4F5211596
:101290008EEF3807A9F100271127021B130BC70196
:1012A000CC968937910510F4F12CE12CC801CC962D
:1012B0008937910510F410E000E0809121019091B0
:1012C00022018E159F0541F4809123019091240104
:1012D0008017910709F48BCEF0922201E092210150
:1012E0001093240100932301B70180E00E94842021
:1012F000B80181E00E9484207ACE2FEF31E0CBCF7D
:101300000FEF11E0CCCF809118010895A6E0B0E076
:10131000ECE8F9E00C943236833060F490911801D7
:10132000981741F0182F913061F040F0923099F009
:10133000109318012696E3E00C944E360E946F0736
:10134000F7CFCE01019626E0FC0111922A95E9F72C
:101350000E94132BEDCF0E942D07EACF80911D0133
:10136000089580911D018E3220F48B5F80931D01C2
:10137000089582E3FBCF80911D01482F4550550B06
:101380001416150634F48550433351051CF082E3DE
:1013900001C081E080931D010895A6E0B0E0E3ED77
:1013A000F9E00C943336262F89838AE38A836436E6
:1013B000B8F1862F64E60E947035805D8B83A3E0D0
:1013C000E1E0EA0F81E090E08C0F9D1F8A0F911DF4
:1013D000DC013AE0822F632F0E9470350E94703545
:1013E000905D9C93A1E0B0E0AC0FBD1FAE0FB11DAE
:1013F000822F6AE00E947035905D9C93EF5F81E0E0
:1014000090E08C0F9D1F8E0F911DFC01108260E0FB
:10141000CE0101960E94001E2696E2E00C944F3603
:10142000E2E06A30F8F2A2E0CBCF83E0089560E01A
:101430008CED90E00E94181E60E086ED90E00E9426
:10144000181E80919A010E94620C813071F150F057
:10145000823079F1833089F160E080EC90E00E9485
:10146000061E05C060E082ED90E00E94181E60E05C
:101470008FEB90E00E94181E60E08BEB90E00E94E2
:10148000181E0E948309813011F1D8F0823019F1C1
:101490000E94AE09682F83E50E94CD096091810109
:1014A00085E40E94CD0980E0089560E08EEC90E034
:1014B000DCCF60E08AEC90E0D8CF60E086EC90E092
:1014C000D4CF60E086EB90E00E94181EE1CF60E090
:1014D00081EB90E0F9CF60E08CEA90E0F5CFA6E0F8
:1014E000B0E0E5E7FAE00C943136082F162F0E94A1
:1014F0006A22882381F001110EC083E0898384E091
:101500008A830E94812C682F49815A81792F81E03A
:10151000912F0E94B40C80E02696E4E00C944D36A6
:101520000E94790708959C01FB018581882379F148
:101530002231FEE73F07F1F040F42031EEE73E07AD
:1015400061F021313E4789F0089523319EE7390744
:10155000B1F024313E47B9F0089580E00E94860939
:1015600081E08093810180E0089581E00E948609F6
:1015700082E0F7CF82E00E94860983E0F2CF0E94EA
:10158000B10984E0EECF0E94BB0985E0EACF81E09B
:10159000089580918001811105C0219A299881E0E8
:1015A000809380010E94D20708958430C8F465308A
:1015B000B8F44830A8F4E62FF0E095E0899FE00DFC
:1015C000F11D112483E0EE0FFF1F8A95E1F7E40F70
:1015D000F11DEE0FFF1FE351FF4F85919491089588
:1015E00081E090E00895843088F461110FC090E0AC
:1015F000880F991FE1E0E427E80FF92FF11DEE0FA6
:10160000FF1FE352FF4F85919491089581E090E090
:1016100008959C013A9521153F4150F5FC01EE27B4
:10162000F170BC0166277270AC01442754709C01B4
:101630002227387094FF0EC080E0EF2B09F080E184
:10164000672B09F08062452B09F08064232B89F019
:101650008068089581E0EF2B09F480E0672B09F0A2
:101660008260452B09F08460232B19F0886008956F
:1016700080E00895CF93DF93EB010E94090BFE01F8
:101680000995DF91CF910895CF93DF93EC01805EB0
:101690009109089720F06BE370E1209711F464EE54
:1016A0007DE0CE010E943A0B8C2F0E94070DDF9146
:1016B000CF910895CF93DF93EC010E947B0DCE0173
:1016C000805E9109089720F062E470E1209711F4A0
:1016D0006BEE7DE0CE010E943A0BDF91CF91089531
:1016E00081E008950E94700B089581E008950E94A2
:1016F000930A089508950E947A0B0895A6E0B0E039
:10170000E4E8FBE00C94323649835A839E8330919F
:10171000870189819A8131111AC03E81332399F062
:10172000222389F00E949111182F682F89819A81B4
:101730000E945A1169817A81812F0E94F1182696A0
:10174000E3E00C944E360E947611182FF3CF0E94DE
:10175000911169817A81F1CFFC01262F408151815D
:1017600062817381848195810E947E0B0895CF935D
:10177000DF93EC0161E00E94AC0BBE010E94720B92
:10178000DF91CF910895CF93DF93EC0160E00E9449
:10179000AC0BBE010E947B0BDF91CF91089581E0DD
:1017A00008950E94CF0B0895CF93C82F0E94571021
:1017B0008C2F0E94D10B2FEF84E39CE021508040BE
:1017C0009040E1F700C00000CF91089581E00E94B1
:1017D000D40B0E94CE2C089580E00E94D40B0E946E
:1017E000F22C08950F931F93CF93DF93EC018B019D
:1017F0000E94C629811106C080E0DF91CF911F9120
:101800000F910895B801CE010E94701C8823A1F3A6
:10181000B801CE010E94770B882371F3B801CE0185
:101820000E94781F882341F3B801CE010E94172936
:10183000882311F3F8018581882361F0C330FCE728
:10184000DF07E9F058F4C115ECE7DE07A9F0C13075
:10185000DC47B9F0C8010E94750BCFCFCB358CE7C0
:10186000D807A9F0CC35ECE7DE0771F0CA35DC47C4
:1018700089F70E942916EECF0E94E60BBDCF0E9489
:1018800031160E94EC0BB8CF0E941F16E3CF0E94C6
:101890002D16E0CFCF93DF93EC0161E00E94AC0BFB
:1018A000BE010E94F20BDF91CF9108950E94FC2BA4
:1018B0000E94920C0E942F1F08950E94960C0E9475
:1018C000012C0895982F92959F7020E011F0892F98
:1018D00024E0982F9695969511F02E5F892F982FDA
:1018E000969509F02F5F822F0895089581E008955D
:1018F0000895CF93DF93D82F0E94760CC82F8823AA
:1019000019F08D2F0E94780C8C2FDF91CF910895C4
:101910000895CF93C82F0E94750C8C2F0E94790CCC
:10192000CF91089580E00E94890C08950E94F82AC2
:101930000E94890C0895CF930E94F82AC82F8091A5
:1019400082018C1779F0C09382010E948D2C6093E4
:1019500083017093840180938501909386018C2F7D
:101960000E94890CCF910895ADE0B0E0EAEBFCE075
:101970000C943336488759876A877B878C879D8785
:1019800091110E9426151F8286E0FE013896DE0125
:10199000119601900D928A95E1F78091750282FF70
:1019A0000CC00E94E714882319F082E00E94F3150E
:1019B0000E94CE1481110E9479158D8181110DC074
:1019C00029813A814B815C816D817E818F810E946A
:1019D00049142D96E2E00C944F36CE0101960E94F8
:1019E000B70B8111EDCFF5CFFC012481213021F41B
:1019F000808191810E94BE110895662329F00E9482
:101A0000E5250E94D12608950E945526FACFCF934E
:101A10008823D1F0C82F8238C9F40E94052B81FD9C
:101A200013C089E30E94922B0E94C4152FEF87EE0A
:101A300093E0215080409040E1F700C0000089E32E
:101A40000E949A2B0E94C415CF9108958338A1F467
:101A50000E94052B80FDF8CF83E50E94922B0E9407
:101A6000C4152FEF81EE94E0215080409040E1F7C3
:101A700000C0000083E5E4CF8438A1F40E94052B68
:101A800082FDE2CF87E40E94922B0E94C4152FEFC3
:101A900081EE94E0215080409040E1F700C00000CA
:101AA00087E4CECF8CEF8C0F813A70F48C2F0E949C
:101AB000572B882329F08C2F0E949A2B0E94C41543
:101AC0008C2F0E94922BBECF80E28C0F883048F47E
:101AD000C77081E001C0880FCA95EAF70E94071518
:101AE000B1CF83E38C0F833108F0AECF61E08C2F50
:101AF0000E94FD0CA9CF882309F444C0823879F4F0
:101B00000E94052B81FF3EC089E30E94922B0E9418
:101B1000C41589E30E949A2B0E94C4150895833846
:101B200059F40E94052B80FF2DC083E50E94922B63
:101B30000E94C41583E5EECF843859F40E94052B2A
:101B400082FF20C087E40E94922B0E94C41587E484
:101B5000E1CF9CEF980F913AE8F290E2980F98301D
:101B600050F4877091E001C0990F8A95EAF7892FA8
:101B70000E940D15D1CF93E3980F933118F460E0D4
:101B80000E94FD0C08951F93CF93DF93182FEB0154
:101B90000E94070D209739F4812F0E947B0DDF9161
:101BA000CF911F9108958FE99FE00197F1F700C051
:101BB00000002197EFCF65E070E0893311F460E514
:101BC00070E00E94C30D0895882321F00E9407153C
:101BD0000E94C4150895882321F00E940D150E94CB
:101BE000C4150895B0E0A0E0E8EFFDE00C942D36B8
:101BF0006C01D62FC72FFC01F580068102950F706E
:101C00000E94FD14E82E8823F9F0EF2CFF20E1F06C
:101C10008C2F807F803461F080E28D0F883060F1FE
:101C20008C2F807E803221F4D23030F1002321F1DC
:101C30008091750282FF20C082E00E94F3150E940D
:101C4000FD1491E0E82EE9261C2F12951F701C3020
:101C500008F07CC1E12FF0E0E05DF14F0C94E53538
:101C60003E0E3E0E6E0E6E0EA60F000FA60FA60FB6
:101C7000050F6D0F7E0F7E0FE12CE6CF1C2F1F701E
:101C8000C07F11F01295107FFF2099F0112359F0B9
:101C900080E28D0F883010F0D11107C0812F0E9493
:101CA00007150E94C4158D2F39C0812F0E94181569
:101CB000F8CF8D2F0E947B0D1123C1F180E28D0F93
:101CC000883010F0D11104C0812F0E940D1503C07F
:101CD000812F0E941E150E94C41528C01C2F1F7042
:101CE000C07FC03211F01295107FDD2349F0D13052
:101CF00009F463C0FF2009F46DC0002399F1D3CF2C
:101D00008091750282FD2AC0FF2059F0112329F02D
:101D1000812F0E9407150E94C41580E00E94070DC4
:101D200005C080E00E947B0D1111CECFEE2089F01E
:101D30000E94E31480FD0DC0F60115820E94DD149F
:101D40000E94CE10C6010E9418100E94DD140E944D
:101D5000DA10CDB7DEB7E8E00C944936FF20C1F0C9
:101D6000011104C0812F0E94E40DE0CF013021F465
:101D7000812F0E944915DACF0530C1F6812F0E94CC
:101D8000E40D812F0E946015812F0E942D15CECF6A
:101D900001110AC0812F0E94EB0D812F0E94601556
:101DA000812F0E943915C2CF013009F0BFCF0E94A8
:101DB0000415812309F4BACFEDCFFF2021F00630BE
:101DC00008F0B4CFCFCF053008F0B0CF812F0E94FC
:101DD000EB0DACCF0023D1F3D93369F4FFEF27EE3D
:101DE00083E0F15020408040E1F700C000008D2FDB
:101DF0000E947B0D9BCFEFE1FEE43197F1F7F5CF29
:101E00006F2D8D2F0E94FD0C91CF8C2F837091F53B
:101E1000F11022C04D2F429546954770440F440F54
:101E20008D2F8F70042E01C0880F0A94EAF720E0EE
:101E3000D4FF07C02FE030E001C0220F4A95EAF737
:101E40002095822BC695C695C370C23069F078F490
:101E5000C13039F00E94AA100E94F82A0E94890C11
:101E600065CF0E94A410F8CF0E94B010F5CF0E9459
:101E7000A110F2CF8695FF2011F08C2F817088235E
:101E800059F34D2F429546954770440F440F8D2FBF
:101E90008F70042E01C0880F0A94EAF720E0D4FF67
:101EA00007C02FE030E001C0220F4A95EAF72095E5
:101EB000822BC695C695C370C23049F058F4C13024
:101EC00019F00E94F910C8CF0E94F310C5CF0E94EC
:101ED000FF10C2CF0E94BC10BFCFCF70FF2039F0DF
:101EE0008C2F0E94CE108D2F0E94E40DB5CF8D2F28
:101EF0000E94EB0D8C2F0E94DA10AECFD23F71F111
:101F000070F4D03FD9F0D13F91F0FF2009F45FC0C9
:101F1000002309F459C08D2F0E94070D17C0D33F2D
:101F200021F1D43F91F78091750282FD28C08C2F5A
:101F30008F71FF20B9F00E94CE1008C0FF2059F029
:101F4000053020F48C2F8F710E94E7101850143048
:101F500008F0ECCE81CF0630C8F7F4CF8C2F8F710C
:101F6000FF2049F30E94DA10F1CFFF2029F08C2FD7
:101F70008F710E94C510EACF0E94C110E7CFFF20E9
:101F8000B9F00E94E314843041F40E94E9158C2FCB
:101F90008F710E94DA10E12C5FCF0530E0F7CF712E
:101FA0008C2F0E94CE1063E08C2F0E94CB15F3CFB4
:101FB000053030F00E94E91564E08C2F8F71F5CF69
:101FC00081E00E94F315E7CF8C2F8F71B4CF0023EF
:101FD000A1F0D93369F4FFEF27EE83E0F150204000
:101FE0008040E1F700C000008D2F0E947B0DAECF36
:101FF000EFE1FEE43197F1F7F5CF8C2F8F71B2CF7F
:102000000F931F93CF93DF93EC01688179818D81CA
:102010000E94C9118C010E9405110E94A010B801F4
:10202000CE010E94F20DDF91CF911F910F91089583
:10203000CF93DF93FC012481222399F0EC010E94CD
:102040004A0C811111C00E94FD14882351F08D812A
:10205000882339F08091750282FF03C082E00E94DC
:10206000F315DF91CF910895CE010E940010CE01AB
:102070000E94C30BF6CF882321F00E9418150E94FE
:10208000C4150895882321F00E941E150E94C415CE
:1020900008950E9426150E94C4150E94F0260E94F1
:1020A000D12608950E94A22B0E94491008950E94F3
:1020B00015150E945210089592959F70963089F0E0
:1020C00050F49250923058F4803F19F030F4883E2A
:1020D00030F481E008959A50F5CF843FD1F380E049
:1020E0000895883EB0F3813FD1F7F3CFFC012481FE
:1020F000222339F0808191810E94BE110E945C10E0
:10210000089580E00895A6E0B0E0E9E8F0E10C94DD
:1021100033362696E2E00C944F36A7E0B0E0E3E9D0
:10212000F0E10C9433362796E2E00C944F36089594
:102130000E94971008950E94981080939B01089523
:1021400008950E949B10089590919B01892B0E94F5
:102150009B10089590919B0189230E949B100895E4
:1021600090919B0189270E949B1008950E949710CF
:1021700008950E94B61008950E94B91080939A01A4
:10218000089580E00E94BC10089591E001C0990F6D
:102190008A95EAF7892F0E94BC10089521E030E06B
:1021A00001C0220F8A95EAF780919A01822B0E9442
:1021B000BC10089521E030E001C0220F8A95EAF7B3
:1021C000209580919A0182230E94BC10089521E0FD
:1021D00030E001C0220F8A95EAF780919A018227A8
:1021E0000E94BC10089590919A01892B0E94BC1006
:1021F000089590919A0189230E94BC1008959091AE
:102200009A0189270E94BC1008950895262F2770EF
:1022100091E001C0990F2A95EAF723E0769567953A
:102220002A95E1F7FB01EE0FFF1FE60FF71FE40F02
:10223000F51F50E040E0682F70E08191DF011197B9
:102240009B01042E02C0369527950A94E2F721706F
:1022500021952827292328272C934F5F5F4F433050
:10226000510559F70895A82FA77023E096958795F3
:102270002A95E1F7FC01EE0FFF1FE80FF91FE60FAB
:10228000F71F50E040E080E0219130E00A2E02C0CC
:10229000369527950A94E2F721703327042E01C062
:1022A000220F0A94EAF7822B4F5F5F4F43305105AC
:1022B00059F70895282F903F89F0862F622F953087
:1022C00070F4283060F448E0949F90011124620F6C
:1022D000732F711D4BE851E00E94061108959C5F19
:1022E0009230E0F770E048E851E0F6CF903FB9F067
:1022F000953070F4883060F448E0949F9001112488
:102300006BE871E0820F932F911D0E9433110895A5
:102310009C5F923020F468E871E090E0F6CF80E0B6
:102320000895CF92DF92FF920F931F93CF93DF9385
:102330006C0100919A0180919B01082BC3E0D0E0D1
:1023400010E0FC2EC8010C2E02C0959587950A94CA
:10235000E2F780FD0CC02197A0F7F12C8F2DDF91C3
:10236000CF911F910F91FF90DF90CF900895B6010C
:102370008C2F0E941919019771F3F0CFCF93DF933F
:10238000EC010E949111BE010E941919DF91CF91B9
:1023900008951F93CF93DF93EB01909187019923C9
:1023A00039F0CB010E94BE11DF91CF911F910895AA
:1023B000882369F0CB010E949111182F682FCE015C
:1023C0000E945A11BE01812F0E941919EDCFCB0135
:1023D0000E947611182FF6CFE1E0F0E0DF0102C095
:1023E000AA0FBB1F6A95E2F7BD01DF0102C0AA0F69
:1023F000BB1F4A95E2F76A2B01C0EE0F2A95EAF758
:10240000962F9823961302C08E2B0895E0958E2365
:102410000895242F462F682F80919A010E94EC1175
:102420000E94BC1008951F93CF93DF93C0919C012D
:1024300017E080919D018C1304C0DF91CF911F9113
:102440000895D0E01C9FF0011D9FF00D1124E2566D
:10245000FE4F208131814281538164817581868163
:102460000E948D102196C770E4CF2091D601309143
:10247000D7014091D8015091D9016091DA01709152
:10248000DB018091DC010E948D100895CF93DF93D2
:102490008091DC01807F09F04DC08091DB018823B1
:1024A00009F448C0E0919C0150919D01C091D70171
:1024B000D091D6016091D8017091D90147E05E17A3
:1024C000C9F18E2F90E0E49FF0011124E256FE4FF7
:1024D0002481222391F1489FF001499FF00D11249E
:1024E000DF01A256BE4F11962C9111972C1325C0D7
:1024F0002C912D1322C015962C91159721111DC0DA
:1025000012962D913C91261B370B283C3105A8F4DF
:102510008091DC018F7080618093DC01EC55FE4F6F
:1025200080818F708061808386ED91E00E94181019
:102530000E941312DF91CF910895FC013196E7704C
:10254000BECF482F20919C0190919D0157E0291307
:1025500002C080E0089530E0529FF001539FF00DDB
:102560001124E256FE4F8181681306C08081481312
:1025700003C085818111EECF2F5F3F4F2770E7CFDA
:10258000A4E1B0E0E6ECF2E10C9429368C0186E09F
:10259000F801DE011F9601900D928A95E1F7F8018E
:1025A0008481E58096EDA92E91E0B92E9091DA0113
:1025B00091111FC08823D1F0EE20A9F0C8010E941C
:1025C0007610F82E882379F087E0F801D501019084
:1025D0000D928A95E1F7C5010E94F40C0E94461203
:1025E0000E9435125FC0C8010E941810FF24F394A6
:1025F00059C0C080D18082809380F090DB0120910F
:10260000D8013091D901A401421B530BFF2009F4DA
:10261000F8C0483C510508F0A6C0882309F442C020
:102620009091D7018091DC01282F207F09F05BC0B9
:10263000D91216C09091D601C91212C0E1104DC036
:102640008F7080618093DC010E94351286ED91E0ED
:102650000E9418108091DC01F8018683F12C22C0C1
:10266000E1103BC06D2D8C2D0E94A1126D2D8C2D83
:102670000E94A112E82E8111F1CFCF86D88A8F85D2
:1026800098890E94BE11292F22952F70243078F44A
:102690009F702230A0F09923B1F0F8019681907FCD
:1026A00091F4FE2C8F2D6496ECE00C9445362A5064
:1026B000223068F0C8010E941810EF2CF2CF992345
:1026C00011F0882371F3805E8830A0F7EACF803F55
:1026D00040F3815F833070F7E4CF8091DC0181604B
:1026E0008093DC01BBCFD91213C09091D601C912DF
:1026F0000FC0E1100DC08683C8010E94181087E04A
:10270000F801A6EDB1E001900D928A95E1F768CF4E
:10271000C8010E947610882309F465CFEE2009F4E1
:1027200062CF8091DC01803288F02091D601309117
:10273000D701398728879B868A869091DA019C8702
:102740001D868E87CE0108960E94181087E0F8013A
:10275000A6EDB1E001900D928A95E1F70E94461234
:102760000E94351243CF9091DC01292F207FA1F4E4
:10277000682D9A8A898AA6017A899E2D0E948310E3
:1027800086ED91E00E94181087E0F50111928A957C
:10279000E9F70E94351262CF882309F483CF809134
:1027A000D7018D1110C08091D601C8120CC0E11064
:1027B0000AC09683C8010E94181087E0F5011192A3
:1027C0008A95E9F76FCFC8010E947610882309F433
:1027D0000ACFEE2009F407CF8091DC01803208F4A3
:1027E000B5CF2091D6013091D7013A8329839C82BD
:1027F0008B829091DA019D831E828F83CE01019698
:10280000A3CF483C5105B8F5882309F4EFCEFE2C40
:10281000EE2009F4E8CE8091D7018D111EC0809181
:10282000D601C8121AC08091DC0180FD0DC0982F1E
:10283000907F51F08683903F09F45ECF982F907F70
:10284000905F8F70892B57CF87E0F801A6EDB1E03C
:1028500001900D928A95E1F725CFC8010E9476106C
:10286000811174CF8091DC0181608093DC01C8010B
:102870000E94181017CF682D9A8A898AA6017A8932
:102880009E2D0E94831087E0F50111928A95E9F749
:10289000A7CEAEE0B0E0EFE4F4E10C943236288746
:1028A00039874A875B876C877D878E87CE0108963C
:1028B0000E94C0128823B1F16C85662341F02885FF
:1028C00039854A855B857D858E850E948D1017E050
:1028D00080919C0190919D01891709F45BC0819FB3
:1028E000C001112482569E4F0E94C012882309F411
:1028F00051C0E0919C011E9FF0011124E256FE4F51
:1029000020813181428153816481758186810E9459
:102910008D1080919C0190E001968770992780939B
:102920009C01D6CF87E0FE013896DE01119601901A
:102930000D928A95E1F78C85882349F220919D01BB
:1029400030E0C90101968770992740919C01481792
:10295000190699F097E0929FD001939FB00D112432
:10296000A256BE4FFE01319601900D929A95E1F765
:1029700080939D010E941312AACF0E9457101092BB
:102980009D0110929C0187E0E6EDF1E0DF011D92D0
:102990008A95E9F72E96E3E00C944E360E94812C3E
:1029A0002091E8013091E901821B930B9C0181E0A9
:1029B0002838334108F480E008958091E701869536
:1029C0008695869508958091E701877008950E9405
:1029D000812C2091E5013091E601821B930B883810
:1029E000934148F08091E70182FB882780F991E0CC
:1029F00089278170089580E0FCCF9091E70197705E
:102A000081E009F480E008958091F50108959091A6
:102A1000F501892B8093F5010895982F9095809169
:102A2000F50189238093F50108951092F501089529
:102A30009091F401892B8093F4010895982F90953B
:102A40008091F40189238093F40108951092F40198
:102A5000089508950E94291508959091EA01292F5B
:102A60002823281729F0892B8093EA010E942A1530
:102A700008959091EA01292F282331F08095892328
:102A80008093EA010E942A15089508950E94451531
:102A90000895CF939091EB019823981779F0C82F60
:102AA0000E94812C9093E9018093E8018091EB01D1
:102AB0008C2B8093EB018C2F0E944615CF910895AB
:102AC0009091EB01292F282381F080958923809311
:102AD000EB01882359F00E94812C9093E9018093A7
:102AE000E8018091EB010E944615089590E080E096
:102AF000F4CF8091EB01882349F01092EB01109202
:102B0000E9011092E80180E00E94461508950F93B4
:102B10001F93CF93DF930091250110912601C0915F
:102B2000F5018091F401C82B8091EB01882369F0B5
:102B30000E94CE1481110E9479158091EB01C82B5F
:102B40000E94482B81110E947915F801C083C09121
:102B50002501D091260148E050E06DED71E0CE01F5
:102B60000E946336892B59F088E0FE01ADEDB1E09B
:102B700001900D928A95E1F7CE010E94082BDF911A
:102B8000CF911F910F9108950E9487150895089580
:102B90000E94C71508959091750292FF17C098E0A2
:102BA000899F90011124622B6093E7010E94CE104F
:102BB0000E94812C9093E6018093E5018091E701CA
:102BC0008695869586950E94C81508950E94CE1018
:102BD00008951092E7011092E6011092E50180E05D
:102BE0000E94C81508959091E701809589238093EC
:102BF000E701282F277069F4891759F09091750221
:102C000092FF07C08695869586950E94DA100E94ED
:102C1000E91508959091750292FB222720F9281753
:102C200069F080FB92F99093750280917402909103
:102C300075020E94531682E00E94F3150895809158
:102C4000750282FB882780F991E089270E940A1685
:102C5000089581E00E940A16089580E00E940A16F5
:102C600008956FEF7FEF90E080E00E94BC360895FA
:102C700090E080E00E948836863E9E4F19F40E94C4
:102C80006129089580E0089582E090E00E948036F6
:102C9000089583E090E00E948036089584E090E0FB
:102CA0000E9488360895BC0184E090E00E94BC3602
:102CB0000895AB01BC018FE090E00E94B03608950A
:102CC000AB01BC0183E190E00E94B036089560E062
:102CD00070E0CB010E946016089560E070E0CB01C7
:102CE0000E9459160E9467160895A8E0B0E0EBE72D
:102CF000F6E10C94333666EE7EEF90E080E00E94C1
:102D0000BC3660E082E090E00E949E3681E08093D5
:102D10009B0161E083E090E00E949E3660E074E1F8
:102D200084E090E00E94BC3660E086E090E00E9483
:102D30009E3660E087E090E00E949E3640E050E0E2
:102D4000BA0188E090E00E94B03660E084E290E052
:102D50000E949E3660E087E190E00E949E3660E02F
:102D60008CE090E00E949E3660E08DE090E00E9452
:102D70009E3619821A821B821C821D821E821F822D
:102D8000188648E050E068E170E0CE0101960E94AC
:102D90008E3640E050E0BA0180E290E00E94B0360A
:102DA00080E00E947A290E94A9290E946D16289627
:102DB000E2E00C944F360E9475160895A6E0B0E04C
:102DC000E4EEF6E10C9431360E94812C8C01809166
:102DD000F6019091F7018017910781F019821A820C
:102DE0000E94812C682F49815A81792F80E090E0E0
:102DF0000E94B40C1093F7010093F6012696E4E0CC
:102E00000C944D360E948D2C60930502709306023F
:102E1000809307029093080260930102709302026C
:102E2000809303029093040208950E948D2C609376
:102E30000502709306028093070290930802609344
:102E4000FD017093FE018093FF01909300020895AD
:102E5000089508950E94281708950E94900A0895E1
:102E600081E19AE10E94B11A0E94B61A0E942917C4
:102E70000E942A17089581E008950E943B17089543
:102E80000E943B17089508950E9443170E94C90AA3
:102E900008950E943816811102C00E94DB160E941C
:102EA0004416809309020E944E16909375028093F7
:102EB00074020E9467220E9449160E94A11080910C
:102EC0009A010E94B91008950E94782C0E94B92995
:102ED0000E94B9200E943F1A0E9449170E94880C44
:102EE00080E00E94B71C0E9498220E94B0200E949D
:102EF0002D170895A6E0B0E0E0E8F7E10C9429363C
:102F00000E943D17C82E811111C00E94DE16C12CEF
:102F10000E949E220E941F21882309F45DC00E9406
:102F200015170E944D1F0E941E1E5AC00E941A06AD
:102F300088EFA82E81E0B82E750110E0F70101910D
:102F40007F01812F0E942F1A1F5F153009F441C0A5
:102F50000817A1F38091090281FD0E94351A0E9491
:102F60004017982E10E088248394812F0E942F1AF6
:102F7000082FF50181915F01081729F1F12CEE244A
:102F8000E394D02ED8268D2D8E21A9F0992099F08A
:102F9000F9821A830E94812C9C838B838D8291E01D
:102FA000802F8E2109F490E049815A816B817C81C8
:102FB0008D810E94B40CF394EE0CF8E0FF12E3CF85
:102FC000F501319700831F5F153079F60E940217D3
:102FD0009FCF0813BFCF99CF0E944D1FC110A3CF21
:102FE0000E9412270E94B3200E949B0C2696ECE0C0
:102FF0000C9445361F93CF93DF930E941E19EC016A
:10300000C11582E5D80708F03FC0C11590E5D90782
:1030100008F0BEC0C83ED105C0F4C03ED10580F462
:10302000C53AD10548F4C430D10550F4C130D105BA
:1030300039F0D0E0C0E004C0CD3CD105D0F3D0657C
:10304000CE01DF91CF911F910895C11580E4D8077B
:1030500008F053C0C11590E2D90708F0B1C0C115FE
:1030600081E0D80730F38D2F0E94C219182FCE01AE
:1030700099270E941E19C12FD0E0DC2FCC27CC2726
:10308000DF71C82BD92BDCCFC03892E5D907A8F463
:10309000C03682E5D80708F061C0C03492E5D90790
:1030A00008F047C0C03282E5D80778F1CF71D0E090
:1030B000DC2FCC27C16FD06AC3CFC03C92E5D907C3
:1030C00080F48C2F8F71C03AD24508F45AC00E9408
:1030D000C219C82FD0E0DC2FCC27CC27DF71D062FB
:1030E000AFCFC03E82E5D80708F0A3CFDC2FCC27B6
:1030F000CC27DF71C06FD06AA3CFCE0199270E9481
:103100001E19CC27DF70D06ABCCF2C2F26952695B0
:1031100090E2299F900111248C2F8370C1E0D0E0B0
:1031200002C0CC0FDD1F8A95E2F7C22BD32BDD68DE
:1031300087CF2C2F26952695277080E2289F900117
:1031400011248C2F8370C1E0D0E002C0CC0FDD1FB2
:103150008A95E2F7DC68C22BD32B72CF2C2F2695F1
:103160002695277090E2299F900111248C2F83705F
:10317000C1E0D0E002C0CC0FDD1F8A95E2F7DA682B
:10318000EACFC82FD0E0DC2FCC27C46FD06A58CF4D
:103190008C2F8F710E94C21955E0D695C7955A950C
:1031A000E1F7CF70D0E0DC2FCC27282F30E084FF70
:1031B00005C044E0220F331F4A95E1F7D069CBCF19
:1031C0008D2F8F710E94C219182FCE0199270E944E
:1031D0001E19C12FD0E0DC2FCC27CC27DF719062E5
:1031E00050CF462F2091110230911202232BF1F47F
:1031F000703F39F4603FD1F4809180029091810258
:103200000895672F753028F4483080F40E943724E1
:1032100008957D3F39F4411109C041E060E00E940A
:10322000432408957C3F11F44423C1F390E080E0EF
:1032300008950E94F1180E94FA17089582389105A6
:10324000B9F1B0F48133910509F47DC048F48932B5
:10325000910509F46DC08A32910509F479C0089589
:103260008533910509F45FC08933910509F108950B
:10327000833E9105D9F138F4803E910529F1823ED3
:10328000910579F10895863E9105D9F1873E910522
:1032900009F43EC0843E910541F52091750221FF5D
:1032A00024C08091740284FD19C087EE90E00895D7
:1032B00020917402237009F056C02091750223FFFB
:1032C00014C089E290E008952091740220FD38C076
:1032D0003091750230FF09C024FF3FC090E080E0CC
:1032E00008952091740222FDF7CF08952091740271
:1032F00022FD36C03091750230FD35C024FDEECF81
:10330000F4CF2091740223FFF0CF24FDE7CFCDCF7F
:103310002091740223FD2AC03091750231FFEECF57
:1033200084EE90E008952091740225FDCACF08959F
:103330002091740225FD1DC02091750223FFD5CF79
:1033400089E390E008952091740226FD15C0089548
:103350002091740226FD13C0089583EE90E0089535
:1033600082EE90E0089580EE90E0089586EE90E081
:10337000089585E390E008958AE290E0089581E35E
:1033800090E0B3CF9091740292FF10C041E0282FDB
:103390002471243009F040E031E0282F28712830D2
:1033A00009F030E0431711F02CE0822793FF10C0A2
:1033B00041E0282F2471243109F040E031E0282F2A
:1033C0002871283109F030E0431711F02CE08227F2
:1033D0003091750230FF10C051E0282F217121304B
:1033E00009F050E041E0282F2871283009F040E032
:1033F000541711F029E0822731FF10C041E0282F37
:103400002171213109F040E031E0282F2871283165
:1034100009F030E0431711F029E0822794FD877E00
:10342000089580E0089508950E94131A089508955C
:103430000E94171A0895E82FF0E0E558FD4F20810B
:1034400030E081E090E002C0880F991F6A95E2F7B2
:103450002823392381E0232B09F480E00895E82F05
:10346000F0E0E558FD4F80810895089580EA8A953F
:10347000F1F7089500C008950E94361A08950E9439
:10348000FC05A6E7B2E01C92EBE7F2E01082119691
:103490001C921197118212961C9212971282139607
:1034A0001C921397138214961C92148285E00E943A
:1034B0005C1A0E94141A08950895B0E0A0E0E3E6B3
:1034C000FAE10C942D366C017B01042FC22F2223CC
:1034D00079F081E080930C020E94812C90930B0282
:1034E00080930A0280E0CDB7DEB7E8E00C9449365D
:1034F000D0910C02DD23B1F380910A0290910B026E
:103500000E94992C059770F310E0A801B601C7013D
:103510000E946336892B31F0A801B601C7010E94D1
:103520007036CD2F10920C028C2FDDCF0E94C52F4C
:103530000E9464170E94D22F08950E94D72F0E94E4
:103540007A170E94F12F08950E94182C0E94AB2F29
:103550000E9430170E94961A0E949D1A0E944417DA
:10356000FBCF90937F0180937E0108950895A8E09A
:10357000B0E0EDEBFAE10C942F36603209F03DC07B
:10358000DC011196EC911197EE3008F036C08C01F9
:10359000F0E0E353F54E0C94E535DB1A011B091BF3
:1035A000451B5F1B7E1B9A1BAD1BF71BFC1BFD1AEB
:1035B000FD1AFD1A031C88E0E4E4F1E0DE01119637
:1035C00001900D928A95E1F780E2F80111928A95B7
:1035D000E9F786E0D8018C9311961C921197129608
:1035E0001C92129713961C92139788E0FE01319655
:1035F000149601900D928A95E1F72896E6E00C94D6
:103600004B368CE5FD01808381E081831282138239
:10361000F4CFDC0113968C911397682F70E0762F0E
:10362000662712968C91860F972F911D092E000CFC
:10363000AA0BBB0B25E0880F991FAA1FBB1F2A9559
:10364000D1F7AC01BD01405E5F4F6F4F7F4F481710
:1036500059076A077B0788F28C35E1E09E07A105D0
:10366000B10558F64D35F1E05F076105710520F0B1
:103670004CE551E060E070E0481B590BBC01635D14
:103680007D4FC8010E945A36B8CFDC011296FC90DB
:1036900012971396EC9040E06E2D8F2D0E94F3222E
:1036A000F8019083818341E06E2D8F2D0E94F322DB
:1036B000D80112969C93129713968C939ECFFC017F
:1036C000258136813227232732272115FCE73F0742
:1036D00041F48091130290911402892B11F430E08F
:1036E00020E041E0D80114968C91811101C040E0A6
:1036F000F801638182810E9426237FCF40E250E05F
:103700006FEF70E00E94793680911302D8018C939C
:103710008091110211968C93119712961C92129718
:1037200013961C92139714961C92149781E0159689
:103730008C9363CF81E090E090931202809311020A
:1037400082E390E09093100280930F020E94812CFC
:1037500090930E0280930D0250CF809111029091B0
:103760001202892B91F160E080E00E941B1AE82E82
:1037700061E080E00E941B1AF82E80910D0290916A
:103780000E020E94992C8536910550F1EE2041F1F0
:10379000FF2031F10E94812C90930E0280930D0244
:1037A00080910F02909110020197909310028093E4
:1037B0000F02892B51F4109212021092110281E033
:1037C00090E0909314028093130280911302F80109
:1037D000808380911102818380910F0282830DCFBB
:1037E00082E390E09093100280930F02EECF10924C
:1037F00014021092130201CF40E250E06FEF70E02C
:103800000E947936FACEDC0112968C9112978111C2
:10381000F4CE80E2F80111928A95E9F71C92119694
:103820001C92119712961C92E8CEA6E0B0E0EBE154
:10383000FCE10C94333690938102809380028115D1
:1038400020E2920730F40E94440B2696E2E00C94AA
:103850004F3680EF89838A830E94812C8160682F94
:103860009C838B8349815A817C8181E091E00E9415
:10387000B40CEBCFA6E0B0E0E0E4FCE10C9433360E
:103880009093810280938002811520E2920730F4A8
:103890000E945A0B2696E2E00C944F3680EF898303
:1038A0008A830E94812C8160682F9C838B8349814D
:1038B0005A817C8181E090E00E94B40CEBCFCF93E1
:1038C000DF93EC010E94151C8FE19EE40197F1F754
:1038D00000C00000CE010E943A1CDF91CF910895F4
:1038E00081E00895AB0124E630E0BC0188E70E9446
:1038F0007C2D21E0892B09F020E0822F0895AB0177
:1039000024E630E0BC0188E70E94C02D21E0892B2D
:1039100009F020E0822F08950F931F939B0104E686
:1039200010E0AC0160E488E70E94062E21E0892BBC
:1039300009F020E0822F1F910F9108950E94482DD9
:1039400008950895E2E8F2E080E092E0DF019C0152
:103950001D9221503040E1F7F0938704E0938604F4
:103960008FEF9FEF90934102809340020895CF9391
:103970000E94A11C0E94150A80933C0280FD11C088
:1039800080E880933B020E949E1C6BE070E084EA1A
:1039900093E00E947F1C811106C0C0E08C2FCF9164
:1039A000089580E2EECF80913C0265E070E081FDF9
:1039B00027C08FE993E00E947F1C882371F36DE09C
:1039C00070E08DE893E00E947F1CC82F882329F3C4
:1039D0000E948D2C605A75418F4F9F4F60938204D7
:1039E0007093830480938404909385040E94A21CA6
:1039F00081E080933F0280933E0210923D02CECF41
:103A00008AE993E0D8CF20913B0236E0839FC00142
:103A10001124629F800D911D1124811522E09207CF
:103A200014F090E080E08E579D4F90938704809330
:103A30008604089520918604309187042C573240E3
:103A400040913B02642F70E0C9010E947C35481B05
:103A5000463010F4240F311D211582E0380710F094
:103A600030E020E02E573D4F3093870420938604AA
:103A700008951F93CF93DF93162F8A3039F481E096
:103A80000E94B21DDF91CF911F9108958D3011F4E6
:103A900080E0F6CFC0918604D091870496E0FE01C5
:103AA000A5E1B2E001900D929A95E1F7803EB8F061
:103AB00086E0FE0111928A95E9F711111CC0C091B0
:103AC0008604D091870446E050E0BE0185E192E093
:103AD0000E946336892BE9F40E941A1DD3CFF6E0C9
:103AE0008F9FB001112461557C4F46E050E0CE011C
:103AF0000E945A36E2CFE0918604F09187049F013C
:103B00002A5F3F4F2E173F07D1F280818095819326
:103B1000F9CFC258D240CE0125E0969587952A95D7
:103B2000E1F721E030E0A90102C0440F551F8A955A
:103B3000E2F7CA014091400250914102842B952B3B
:103B4000259645E0D695C7954A95E1F702C0220F24
:103B5000331FCA95E2F7822B932B909341028093F7
:103B60004002BACFCF93382FE0918604F0918704BA
:103B7000E258F24020913B02622F70E0CF010E9498
:103B80007C35281B822F332369F066E00E94703554
:103B9000C82FC15010F4CF91089560E080E20E94D8
:103BA000391DF7CF9F01280F311D2115324018F024
:103BB00080E0F0E0E0E08E0F9F2F911D8E579D4F2B
:103BC0009093870480938604E6CFFF920F931F9310
:103BD000CF93DF93EC01F62EFC0101900020E9F772
:103BE0008F0101501109C017D10728F0CDB7DEB7FA
:103BF000E5E00C944C366F2D89910E94391DF3CF6E
:103C00000E94E51D81E00E94B21D08951F93CF938D
:103C1000DF93EC01162FFE018491811104C0DF9126
:103C2000CF911F910895612F0E94391D2196F3CFE6
:103C30000E94061E81E00E94B21D089580913F02FD
:103C4000811103C080913E0208950E948D2C605A1C
:103C500075418F4F9F4F60938204709383048093CC
:103C600084049093850480913E028111EBCF62E041
:103C700070E08BE893E00E947F1C882319F381E0B9
:103C800080933E02DFCFA4E0B0E0E9E4FEE10C94D3
:103C900023362091400230914102232BF1F0909184
:103CA0003F029923D1F090913D02911116C08C836F
:103CB0000E941E1E10E01B8244244394512C03E0FA
:103CC000E0E2FE2E8091400290914102009729F09F
:103CD000112351F0FC81F11107C02496E2E10C940C
:103CE0003F362B812F5F2B833B81C32ED12C52017A
:103CF00002C0AA0CBB1C3A95E2F795012823392390
:103D0000232B79F380913C0280FD3CC08B8182950E
:103D1000880F8076809329019601369527953695F0
:103D2000279520932C01815E80932A0120932D01F9
:103D300067E070E087E291E00E94721C882369F2DC
:103D4000C60155E0880F991F5A95E1F720913C0272
:103D500020FD26C060E270E08E579D4F0E948C1CB3
:103D6000882309F4BACFC50180959095A0904002B0
:103D7000B0904102A822B922B0924102A092400222
:103D80001F5FA0CF8B81880F880F880F8093290138
:103D900010922C01895F80932A0100932D01C8CFD6
:103DA000ABE1B2E0EF2D1D92EA95E9F72AE531E0AB
:103DB0003A83298366E571E0A981BA812D91BA839E
:103DC000A983FB012190BF01280E392E311CA101CE
:103DD0004E575D4F1A0130E0255E3D4FF90147E037
:103DE000942EAF01421B530B742C01C0770C4A95E3
:103DF000EAF76101812CD601ED906D01E720492D94
:103E000048194770642E042E000C550BBE2D01C0BE
:103E1000BB0F6A94EAF76B2E519541955109477093
:103E2000552701C0E6944A95EAF76E28E0806E288F
:103E30006082839448E08412DECF9A9431965FEFDB
:103E40009512CFCFAEE5B1E0E981FA81AE17BF0799
:103E500009F0B2CF60E270E08BE192E07FCF809119
:103E60003E0290913F02911103C091E0892708958D
:103E7000882369F062E070E089E893E00E947F1C8B
:103E8000811103C080913E02089510923E028091FC
:103E90003E02EBCF0E94170A08950F931F93809163
:103EA0003F02882311F160E080E00E94031D0E9420
:103EB0004A1F80E00E94431E80913E028823A9F0A1
:103EC0000E948D2C0091820410918304209184041F
:103ED00030918504601B710B820B930B6F3F7F4FFA
:103EE0008F4F9F4710F40E942F1F1F910F9108952D
:103EF000CF939C013457C1E02034310538F4FB01E5
:103F0000C581CC2331F00E94D31FC0E08C2FCF910C
:103F100008950E94EC1FFACF823050F567E0869F2B
:103F2000F0011124E65FFE4F9081A92FA295AF709A
:103F3000B0E091964C9191979F7021E030E0B901EB
:103F400002C0660F771F9A95E2F7CB018095842314
:103F500091968C938081E82FE295EF70F0E092A12A
:103F60008F7001C0220F8A95EAF72095292322A39A
:103F70000895823050F497E0899FF0011124E65FA4
:103F8000FE4F80810E942807089590E080E0089508
:103F900080914A02882331F082E492E00E94212B32
:103FA00010924A0208958032B0F4E82FE695E69523
:103FB000E695F0E0EE5BFD4F877021E030E001C058
:103FC000220F8A95EAF78081822B808381E080939B
:103FD0004A020E94C81F08958032C0F4E82FE69577
:103FE000E695E695F0E0EE5BFD4F282F277081E027
:103FF00090E001C0880F2A95EAF780959081892387
:10400000808381E080934A020E94C81F08958F92A6
:104010009F92AF92BF92CF92DF92EF92FF92CF9397
:10402000DF93823008F05EC0C82F0E94B91F27E0DE
:10403000C29FE0011124C65FDE4F8B809C80B12CB3
:10404000A12C092E000CAA0BBB0B6C017D01C8181A
:10405000D908EA08FB08A1E0BEEFA70196010E947B
:104060001E3629813A8150E040E0281939094A0971
:104070005B090E94C635121613061406150684F451
:10408000AFEFB1E0A70196010E9410362D813E816D
:1040900050E040E0281939094A095B090E94C635F9
:1040A000DA01C90181302EEF92072FEFA207B20784
:1040B00024F481E09EEFAFEFBFEF811522E092077D
:1040C000A105B10524F08FEF91E0A0E0B0E0DF9111
:1040D000CF91FF90EF90DF90CF90BF90AF909F90E7
:1040E0008F90089590E080E0F2CF80910A018F3F99
:1040F00019F080E00E948C1F809111018F3F19F010
:1041000081E00E948C1F0895823080F4E82FF0E057
:10411000EE0FFF1FEA5BFD4F8081918186179707A5
:1041200029F07183608381E080934A020895809131
:104130000A018F3F39F080E00E940720BC0180E037
:104140000E948420809111018F3F39F081E00E940C
:104150000720BC0181E00E9484200E94C81F0895AE
:104160000E94752008950E94972008950E943B1791
:104170000895ECE4F2E088E0DF011D928A95E9F70A
:104180000E94F3210895FC0123812150330B2370F9
:104190003327928181E09217130609F080E0089599
:1041A0000F931F93CF93DF93EC01162F042F0E94E0
:1041B000C320811117C08A81FE01E80FF11D1F770E
:1041C00064816078612B00FB67F964838F5F837083
:1041D0008A8388818F5F888381E0DF91CF911F91EF
:1041E0000F91089580E0F9CFFC01A38182818A17A5
:1041F000B1F0AE0FBF2FB11D14968C9187FB99279C
:1042000090F98F77DB018C93DA019C9383818F5F28
:104210008370838381818F5F818381E0089580E053
:104220000895462F682F8CE492E00E94D0200895D4
:10423000AB01BC018CE492E00E94F4200895AEE052
:10424000B0E0E5E2F1E20C942C3680914B02882339
:1042500051F010924B0280914E0280934F02809158
:104260004C0280934D020E9432220E94B620182FE9
:10427000882309F44CC010E08CEFF82E93E0E92E6F
:10428000DD24D3942DEFC22E32E0B32E36C01E852E
:104290008D85882309F440C00E94812C1983CA822D
:1042A0009C838B83BD82DE8249815A816B817C81B4
:1042B0008D819E810E94B40C8FE19EE40197F1F7FD
:1042C00000C000008D851E85882371F10E94812C1D
:1042D0001F83C8869A878987BB861C864F8158852D
:1042E00069857A858B859C850E94B40C8FE19EE45C
:1042F0000197F1F700C00000102FBE01635F7F4FF0
:10430000CE010E960E941821082F8111C0CF812F57
:104310002E96E9E00C9448360E94812C1983FA828B
:104320009C838B83ED82BFCF0E94812C1F83F886F4
:104330009A878987EB86D1CF8FE891E00197F1F7D3
:1043400000C00000089523E9611122E93AB12F70FD
:1043500081E090E001C0880F2A95EAF7982F9095A8
:1043600093239AB99BB1892B8BB9089523E96111E5
:1043700022E989B190E02F7002C0959587952A9522
:10438000E2F7817008950895CF93DF93C0E08091A4
:104390005402C81760F00E949C21C0E08091540232
:1043A000C81778F00E94C321DF91CF91089560E093
:1043B0008C2F0E94A32161E08C2F0E94A321CF5F4C
:1043C000E6CF60E08C2F0E94B621D82F61E08C2FC1
:1043D0000E94B621EC2FF0E0EA5AFD4F880F8D2B9A
:1043E0008083CF5FDBCF81E0809354020E94C421A1
:1043F00008951F93CF93DF93E42FEE0F6E2BC82FFA
:10440000D0E0DE01AA5ABD4FEC919E2F9370691740
:1044100029F1182FEE0FEE0FE62BEC93EF70F0E082
:10442000E25AFE4FCB5ADD4F80819881890F8883F5
:10443000863024F060E0812F0E94112188818B3F1B
:1044400024F461E0812F0E9411218881082E000C44
:10445000990B66E070E00E9490358883DF91CF91E0
:104460001F910895CF93DF93C0E080915402C81745
:1044700018F0DF91CF91089561E08C2F0E94B62152
:10448000D82F60E08C2F0E94B6214D2F682F8C2FE3
:104490000E94F921CF5FE9CF0E943116089580E094
:1044A0000E942F1A817008950E941A068FE39CE9DA
:1044B0000197F1F700C000000E941A060E944F22E7
:1044C000882321F00E944C220E94CE2C08950E9445
:1044D0005422089581E0089581E008950E946C229D
:1044E0000895CF93DF93C3B1D0E0D595C795D59507
:1044F000C795C095D0956C2F6170609358029091CC
:104500005702691302C0882381F080E00E946F0A7D
:10451000BE0161707727072E000C880B990B0E9453
:104520006E228091580280935702DF91CF910895B7
:1045300022982A9A81E00E947122089580E00E94C8
:104540007122089584E0089520E1629FB001112452
:1045500050E0440F551F640F751F9B0140E5849F79
:10456000200D311D1124C901899608950F931F93C1
:10457000CF93DF938430C8F46530B8F44830A8F4A2
:104580000E94A4228C010E948036C82FD0E0DC2F2C
:10459000CC27C80101960E9480369E01282BC901B4
:1045A000DF91CF911F910F91089590E080E0F8CFB7
:1045B0000F931F93CF93DF93843080F4653070F4B2
:1045C000483060F4E9010E94A4228C016D2F0E9402
:1045D0009E366C2FC80101960E949E36DF91CF91C6
:1045E0001F910F910895FF920F931F93CF93DF9325
:1045F000843048F5611127C024E0829F8001112496
:1046000007591E4F82E090E0442311F090E080E0D3
:10461000F42E800F911F0E948036C82FD0E0DC2F2F
:10462000CC2783E090E0FF2011F081E090E0800F44
:10463000911F0E9480369E01282BC901CDB7DEB79D
:10464000E5E00C944C3690E080E0F8CF0F931F9398
:10465000CF93DF93843000F561111EC094E0899FF1
:10466000E0011124C759DE4F82E090E0442311F0AD
:1046700090E080E0632F022F142F8C0F9D1F0E946B
:104680009E3683E090E0112311F081E090E0602FEE
:104690008C0F9D1F0E949E36DF91CF911F910F912D
:1046A0000895EF92FF921F93CF93DF93E090130250
:1046B000F090140281E090E0909314028093130232
:1046C000C0E0D0E011C0412F6D2F8C2F0E94D50A81
:1046D0009C01412F6D2F8C2F0E94D8221F5F183014
:1046E00091F7DF5FD53011F010E0EDCF41E060E0F1
:1046F0008C2F0E94F30A9C0141E060E08C2F0E9405
:10470000262340E060E08C2F0E94F30A9C0140E0E9
:1047100060E08C2F0E942623CF5FC43091F6F09288
:104720001402E0921302DF91CF911F91FF90EF905E
:104730000895EF92FF920F931F93CF93DF938C0115
:10474000EA017A01E60EF71EC8018996CE15DF054B
:1047500029F4CDB7DEB7E6E00C944B36003421E007
:10476000120738F40E948036888321960F5F1F4F0E
:10477000EBCF1882FACFB0E0A0E0E1ECF3E20C94CA
:104780002536803421E09207F0F420E431E0281B44
:10479000390B26173707B8F07A016B018C013C0101
:1047A00039E2630E711C809113029091140228016A
:1047B000460E571E892B61F0E801CE0189964C16F2
:1047C0005D0609F046C0CDB7DEB7E0E10C94413696
:1047D000D0E0C0E000FF11C0C80188960E9480367A
:1047E000F701908189279827892781159C4719F41B
:1047F0008FEFF7018083C1E0D0E0560140FE13C087
:10480000F1E0AF1AB10847018A0C9B1CC3018C0D63
:104810009D1D0E948036F401908181159C4719F4FA
:104820008FEFF4018083CE0DDF1D2FEFCE018E19A7
:104830009F098A159B0508F0BFCF88819981892738
:104840009827892781159C4711F42883298322966C
:10485000EDCFC03421E0D20740F4FE01E01BF10BA4
:10486000EE0DFF1D60810E949E362196A6CF8430FA
:1048700038F4653028F4483018F40E94B6220895C0
:1048800090E080E00895843028F4611103C00E9414
:10489000F322089590E080E0089580E1089587E88C
:1048A00092E00895EF92FF920F931F93CF93DF93BF
:1048B0008C01EA017A01E60EF71EC80187589E4F67
:1048C000CE15DF0529F4CDB7DEB7E6E00C944B3604
:1048D000073822E0120738F40E9480368883219638
:1048E0000F5F1F4FEACF1882FACFB0E0A0E0EBE7EE
:1048F000F4E20C942D367C016A018C01060F171F1F
:10490000EC01CE0187589E4FC017D10729F4CDB7CF
:10491000DEB7E8E00C944936C73822E0D20740F40D
:10492000FE01EE19FF09EC0DFD1D60810E949E360F
:104930002196E7CFCF93DF93C9E7D1E060E0CE01C6
:104940000E949E362196C11584E0D807B9F7DF9101
:10495000CF910895A4E0B0E0E0EBF4E20C942C36A3
:10496000F82E2FE0281708F4A5C08FEF93E00E94DF
:10497000803681119FC009E711E0F11036C019821D
:104980001A821B821C82BB24BA9478015FEFE51A5D
:10499000F50AC8010E94803689831A82882309F4A7
:1049A00089C0813009F07FC0680182E0C80ED11C47
:1049B000C7010E948036E82E8A83882309F47AC0D2
:1049C000C6010E948036F82E8FEF8E0D8330D8F40A
:1049D0006801E3E0CE0ED11CFB82FF2021F0CE0166
:1049E00001960E9413298601D0CF011544E01407D7
:1049F00009F460C0C8010E948036811101C0FA9498
:104A00000F5F1F4FBACF8BEF8E0D833030F5C8018B
:104A10000396FB826C01FF2031F36801F4E0CF0EB6
:104A2000D11C0E9480368C838823E9F28B819C8183
:104A300081302FEF920710F0982F882746E0E41678
:104A400031F057E0E51631F00E945F1CCCCF0E9498
:104A5000151CC9CF0E943A1CC6CF84E0E812C3CF10
:104A60006801E4E0CE0ED11CC80103960E94803696
:104A7000FF2001F18823F1F08150990BB89E90013D
:104A8000B99E300D11244F2D4150550BCA01820F94
:104A9000931F019708F4A7CFEFE9FFE03197F1F7F3
:104AA00000C00000F6CF65E0CE0101960E94A82864
:104AB000670199CF2496E9E00C944836282F35EB0E
:104AC0002303C001112497FF04C080589109892F46
:104AD000089580589F4FFBCF80915F0280FF0DC0EB
:104AE0006091330170E0660F771F6038710580F5C3
:104AF0006115710579F1862F089581FF07C06091D6
:104B0000330184E0689FB0011124EFCF82FF04C01D
:104B10006091330188E0F6CF20915E022223A9F054
:104B2000909132016091330188E0689FB0011124B7
:104B30002917D8F6269FA001279F500D1124692F11
:104B400070E0CA010E949035D0CF68E070E0D3CF0A
:104B50008FE7089581E0089580915F0280FF0CC087
:104B600060912F0170E07595679575956795611552
:104B7000710549F1862F089581FF06C060912F01CC
:104B800070E075956795F3CF60912F0182FD0BC0A2
:104B900090915D029923A1F060912E0180912F01E7
:104BA000961738F0682F70E06038710500F38FE7D2
:104BB0000895899FC001112470E00E949035F4CFC0
:104BC00061E070E0D7CF81E0089590916202911189
:104BD0000CC090916302911108C0909165029111EF
:104BE00004C090916402992331F098E090935E02A2
:104BF00091E090935D028D3C31F40E946C2581958B
:104C00008093630208958E3C19F40E946C25F8CFBE
:104C10008F3C31F40E946C25819580936202089547
:104C2000803D19F40E946C25F8CF893D29F40E943B
:104C3000AC258093640208958A3D21F40E94AC253E
:104C40008195F7CF8B3D31F40E94AC2581958093FF
:104C5000650208958C3D19F40E94AC25F8CF9FE2BF
:104C6000980F983070F4815D990B21E030E001C01D
:104C7000220F8A95EAF780916102822B809361026C
:104C800008958D3D31F480915F02816080935F02D1
:104C900008958E3D21F480915F028260F7CF8F3DB1
:104CA000B9F780915F028460F1CF8D3CD9F4909187
:104CB000630297FF1DC0109263028091620281110E
:104CC00006C080916302811102C010925E02809141
:104CD0006402811106C080916502811102C01092A8
:104CE0005D0208958E3CD9F49091630219161CF36D
:104CF0009FE2980F983008F03FC0815D990B21E04A
:104D000030E0A90102C0440F551F8A95E2F7CA019D
:104D1000809590916102892380936102CECF90911A
:104D200062028F3C29F497FFE3CF10926202C5CF55
:104D3000803D19F41916CCF3DBCF90916402893DC4
:104D400029F41916ACF610926402B7CF8A3D19F413
:104D500097FFCECFF8CF8B3D39F49091650297FF46
:104D6000C7CF10926502A9CF8C3D09F0C1CF9091B9
:104D700065021916B4F3BCCF8D3D31F480915F020A
:104D80008E7F80935F0299CF8E3D21F480915F02E8
:104D90008D7FF7CF8F3D09F090CF80915F028B7FA1
:104DA000F0CF0E94812C20916202211104C0209139
:104DB0006302222321F090935C0280935B02209196
:104DC0006402211104C020916502222321F09093F6
:104DD0005A028093590280E692E00E94132B0895B4
:104DE00086E0E0E6F2E0DF011D928A95E9F7109295
:104DF0005E0210925D0210925F020895FC018281B2
:104E000081110EC0838181110BC08481811108C082
:104E100091E08581811101C090E0892F8170089512
:104E200081E0FCCFA6E0B0E0E8E1F7E20C94323696
:104E300086E0E0E6F2E0DE01119601900D928A959F
:104E4000E1F71092620210926302109264021092D3
:104E500065028B81811103C08C81882389F0809148
:104E60005B0290915C020E94992CAC0190915E02D1
:104E70009923D9F1809134018417150608F442C0B2
:104E80008D81811103C08E81882391F08091590218
:104E900090915A020E94992CAC0190915D02992345
:104EA00009F46AC0809130018417150608F472C0B5
:104EB000BE016F5F7F4F80E692E00E94AD2B8111B3
:104EC00005C080E692E00E94FE2681110E94D12654
:104ED00086E0FE013196A0E6B2E001900D928A953F
:104EE000E1F72696E3E00C944E36209135018AE0F6
:104EF000289F900111242417350710F69F5F909387
:104F00005E0202C09F3FD1F71B81112359F00E941E
:104F10006C259FEF11160CF491E0899F802D1124D0
:104F2000809362021C81112359F00E946C259FEF2F
:104F300011160CF491E0899F802D11248093630257
:104F400080916202882309F49BCF109163021123A0
:104F500009F496CF0E945E25882351F08093620267
:104F6000812F0E945E25882329F08093630288CFD9
:104F700081E0F4CF81E0F9CF209131018AE0289FD0
:104F8000900111242417350708F092CF9F5F90936A
:104F90005D0202C09F3FD1F71D81112359F00E948D
:104FA000AC259FEF11160CF491E0899F802D112400
:104FB000809364021E81112359F00E94AC259FEF5B
:104FC00011160CF491E0899F802D112480936502C5
:104FD00080916402882309F46BCF1091650211233C
:104FE00009F466CF0E945E25882351F08093640205
:104FF000812F0E945E25882329F08093650258CF77
:1050000081E0F4CF81E0F9CFB0E0A0E0EAE0F8E29F
:105010000C942C36E82FF0E0E151F74FB490282F94
:1050200026952695269530E0F901E157F64F049133
:10503000877010E0082E02C0159507950A94E2F7D4
:1050400001701127F901E158F64FE490F12C082E78
:1050500002C0F594E7940A94E2F791E0E922FF2474
:10506000F901E159F64FC491D0E002C0D595C7953A
:105070008A95E2F7C170DD27C62ED12C01151105E6
:1050800049F5E114F10431F086EE0E94070DC601E6
:10509000009771F5B6018B2D0E94C30DC6010097D4
:1050A00079F5E114F104A1F50115110531F081EE56
:1050B0000E947B0DC6010097C9F5CD2B31F08CE223
:1050C0000E94DB0DC114D104C9F5CDB7DEB7E9E00C
:1050D0000C94483681EE0E94070DC601009789F2B4
:1050E000EFE9FFE03197F1F700C000000197F6CF3C
:1050F000EFE9FFE03197F1F700C000000197C8CF5A
:10510000EFE9FFE03197F1F700C000000197C7CF4A
:1051100086EE0E947B0DC601009731F2EFE9FFE0B9
:105120003197F1F700C000000197F6CFEFE9FFE0FB
:105130003197F1F700C000000197BDCF8FE99FE0E4
:105140000197F1F700C0000091E0C91AD108BACF69
:10515000EF92FF920F931F93CF93DF93EC01162FE3
:105160000AE08881882309F459C0813009F052C0CF
:105170008981813071F47E0182E0E80EF11C8A8120
:105180000E94DB0DE701812F90E00097D9F5219671
:10519000E8CF823041F47E01E2E0EE0EF11C8A811C
:1051A0000E94070DEFCF833041F47E01F2E0EF0E55
:1051B000F11C8A810E947B0DE5CF843011F021968D
:1051C000E2CF2A81229690E080E0AE014F5F5F4FF0
:1051D0002053330B2A30310550F00097A1F2EFE94C
:1051E000FFE03197F1F700C000000197F6CF089F6C
:1051F000B001099F700D1124C901860F971F2981E5
:10520000EA01E3CFEFE9FFE03197F1F700C00000DA
:105210000197BBCF612F0E940428B9CFCDB7DEB76D
:10522000E6E00C944B3665E00E94A82808951F9391
:10523000CF93DF9387372CE7920729F088379C4775
:1052400069F1C1E015C0FB01C581CC23B1F00E941A
:1052500058290E94CE100E945E29D82F0E945B29F7
:10526000C82F0E9458294D2F6C2F0E940912C0E0B0
:105270008C2FDF91CF911F9108950E9458290E9491
:10528000DA100E945E29182F0E945B29D82F0E94F5
:105290005829412F6D2F0E940912EACFFB01C581C9
:1052A000CC2319F00E945B29D4CF0E945B29E7CF61
:1052B00080913801089580913701089580913601D9
:1052C000089585E290E00E948036873589F486E271
:1052D00090E00E9480368A3059F487E290E00E9484
:1052E000803691E0883909F090E0892F8170089527
:1052F00080E0FCCFCF93C82F6FEF811167E585E287
:1053000090E00E949E366FEFC1116AE086E290E065
:105310000E949E366FEFC11168E987E290E00E941B
:105320009E36CF910895089588E290E00E948036DD
:10533000682F70E090E080E008950895CF93C62F25
:105340000E949D296C2F88E290E00E949E36CF91AA
:10535000089580E00E947A2960E070E0CB010E940D
:105360009E290E9451230E949A2481E00E947A295A
:1053700008950E9493290E9494290E949D290E94C9
:105380006129811102C00E94A92908959C01FB0195
:105390008581882351F0A90157574038510530F4D1
:1053A000C9010E94AA2480E0089581E008952FEFAA
:1053B000FC0120830895EF92FF920F931F93CF93E8
:1053C000DF93EC01162F8881209111023091120297
:1053D000232B79F08E3F09F06BC08981833020F058
:1053E0008550833008F064C0612FCE010E94B71A47
:1053F0005FC08B3009F4E1C0D0F4843009F486C07A
:1054000060F4823009F446C008F073C08130F1F1D5
:10541000612FCE010E94D7294BC0863009F489C084
:1054200008F47CC08A30A0F78FEF888341C08031B8
:1054300009F49BC000F58D3009F482C008F47CC0EB
:105440008E3009F481C08F3019F78091130290914A
:105450001402892B69F189819A81982789279827D5
:105460006B8170E06D31710518F5AE014C5F5F4FD7
:105470000E9475241DC0823109F47DC008F478C0F3
:10548000833109F489C08E3F19F6AECF198289E0C5
:105490008A830EC089818230A1F08330A9F08130E7
:1054A00009F0B6CF0E948D2C9A838B837C836D8309
:1054B000612FCE010E94942ECDB7DEB7E6E00C94AA
:1054C0004B360E949429F0CF8091130290911402E0
:1054D000892B71F37E0122E0E20EF11C00E0802FA7
:1054E0000E942F1AF70181937F010F5F0530B9F7F2
:1054F000DFCF8981823009F08BCF6A817B818C81FB
:105500009D810E94EB350E949E29D2CF4B816A81FA
:1055100089810E94B6229C838D83CACF2C813D81D4
:105520003227232732274B816A8189810E94D82222
:10553000BFCF0E945123BCCF0E944D248983B8CF96
:105540000E944F249983A4CF89819A819827892723
:1055500098276B8170E06D31710508F0A9CFAE011D
:105560004C5F5F4F0E945224A3CF0E949A24A0CF89
:105570000E94A222E3CF89819A81982789279827C0
:105580006B8170E06D31710508F092CFAE014C5F18
:105590005F4F0E9499238CCF89819A819827892710
:1055A00098276B8170E06D31710508F081CFAE01F5
:1055B0004C5F5F4F0E94BB237BCF80911302909181
:1055C0001402892B09F474CFCE010E94942EFFEFB0
:1055D00021EE84E0F15020408040E1F700C000005F
:1055E0000E94CE2C65CF9093670280936602089547
:1055F000E0916602F0916702309729F00190F08106
:10560000E02D0995089580E008950E94F82A0895F4
:10561000E0916602F0916702309721F00280F381F9
:10562000E02D09950895E0916602F09167023097A8
:1056300039F022E0DC012C930680F781E02D0995FA
:105640000895A9E0B0E0E7E2FBE20C943336209144
:10565000660230916702232BB9F0FC0187E0898351
:10566000848195819B838A83868197819D838C83A6
:1056700080818E8381818F838281888783818987DE
:10568000CE0101960E94A42F2996E2E00C944F3699
:10569000E0912501F0912601329697E080E091504B
:1056A00009F4089521912223D1F38F5FF8CF882345
:1056B00071F02091250130912601F9013296285F81
:1056C0003F4F9191981729F0E217F307D1F780E047
:1056D000089581E008959C01FC0132969FEF80E0DF
:1056E0004191461751F09F3F19F4411101C0982F85
:1056F0008F5F8630A9F79F3F09F40895290F311D68
:1057000097FD3A95F90162830895FC013296089657
:105710002191261303C0DF0111971C92E817F907A6
:10572000B9F70895682F80912501909126010E9474
:105730006B2B0895682F80912501909126010E947E
:10574000852B0895E0912501F0912601329686E09F
:10575000DF011D928A95E9F70895DC01FB0111969E
:105760009C9111978181981322C012968C91129767
:10577000882319F0928189131AC013968C9113977C
:10578000882319F09381891312C015968C9115976F
:10579000882319F0958189130AC014969C91992346
:1057A00021F081E02481291303C080E001C081E061
:1057B0008170089508950E94DA2B0895811106C022
:1057C00081E0809368020E94DB2B089582E0F9CF8C
:1057D00083E0809368020E94DB2B08950E94DE2BF9
:1057E000089581E0809368020E94DB2B08950E9457
:1057F000F12B0895089508950E94FB2B08950895B4
:1058000008950E94FA2B0895CF930E94FF2B0E94C7
:105810001A060E94002CC0E08C2F0E942F1A8111C2
:1058200005C0CF5FC530C1F7CF91089581E0FCCFAF
:1058300085B7806885BF85B7806885BF08951F924A
:105840000F920FB60F9211248F939F93AF93BF9334
:1058500080916902811113C080918804909189041C
:10586000A0918A04B0918B044196A11DB11D809333
:10587000880490938904A0938A04B0938B04BF9109
:10588000AF919F918F910F900FBE0F901F90189521
:1058900080919004843031F10E94560C109269027C
:1058A00088E190E020E40FB6F894A895809360001A
:1058B0000FBE2093600083B7817F846083BF83B76E
:1058C000816083BF7894889583B78E7F83BF0FB63E
:1058D000F894A89580916000886180936000109290
:1058E00060000FBE08950E9457100E945D0C08953D
:1058F00082E084BD93E095BD9AEF97BD80936E00E2
:1059000008952FB7F8948091880490918904A0910C
:105910008A04B0918B042FBF08952FB7F89460913B
:1059200088047091890480918A0490918B042FBF20
:1059300008959C014FB7F894809188049091890450
:10594000A0918A04B0918B044FBF821B930B0895E2
:1059500078941F920F920FB60F9211248F939F93FA
:10596000AF93BF938091880490918904A0918A0499
:10597000B0918B040196A11DB11D80938804909372
:105980008904A0938A04B0938B04BF91AF919F9137
:105990008F910F900FBE0F901F90189581E080930C
:1059A000E00080E28093D8001092C9008FE19EE46D
:1059B0000197F1F700C0000087E090EBDC018093D5
:1059C000990490939A04A0939B04B0939C0488E15B
:1059D0009CE00FB6F894A895809360000FBE90935A
:1059E0006000FFCF88E19CE00FB6F894A895809303
:1059F00060000FBE90936000FFCFEF92FF920F9375
:105A00001F93CF93DF93182FEB011092BC0084EA11
:105A10008093BC000E94812C7C018091BC0087FF98
:105A20000DC08091B900887F8830A9F08091B900BD
:105A3000887F803181F08FEF9FEF08C0C7010E94FF
:105A4000992CC817D90748F78EEF9FEFCDB7DEB76F
:105A5000E6E00C944B361093BB0084E88093BC00C6
:105A60000E94812C8C018091BC0087FF0AC080912C
:105A7000B900887F883111F08034E9F690E080E049
:105A8000E5CFC8010E94992CC817D90760F7DCCF71
:105A90001092B9008CE08093B80008950F931F9383
:105AA000CF93DF93EB018093BB0084E88093BC002D
:105AB0000E94812C8C018091BC0087FF11C0209135
:105AC000B900287F81E090E0283211F490E080E076
:105AD000919581959109DF91CF911F910F91089533
