:100000000C949A050C94D2050C94D2050C94D2054C
:100010000C94D2050C94D2050C94D2050C94D20504
:100020000C94D2050C94D2050C94AC320C947F3312
:100030000C94D72B0C94D2050C94D2050C94D205B9
:100040000C94D2050C94D2050C94D2050C94D205D4
:100050000C94D2050C94602C0C94D2050C94D2050F
:100060000C94D2050C94D2050C94D2050C94D205B4
:100070000C94D2050C94D2050C94D2050C94D205A4
:100080000C94D2050C94D2050C94D2050C94D20594
:100090000C94D2050C94D2050C94D2050C94D20584
:1000A0000C94D2050C94D2050C94D205414E4C47C9
:1000B000004D4F55530044494749004A4F590000ED
:1000C000556E6465660033726400326E640031738D
:1000D0007400307468004C4159455200001F001EE6
:1000E0000021002000230022002500240004000538
:1000F000000600070014001500160017000800098C
:10010000000A000B0018001900000000000C000D90
:10011000000E000F000000000000000000100011A1
:10012000001200130000000000000000001A001B75
:10013000001C00000000000000000000000400059A
:10014000000600070014001500160017000800093B
:10015000000A000B0018001900000000000C000D40
:10016000000E000F00000000000000000010001151
:10017000001200130000000000000000001A001B25
:10018000001C00000000000000000000000400054A
:1001900000060007001400150016001700080009EB
:1001A000000A000B0018001900000000000C000DF0
:1001B000000E000F00000000000000000010001101
:1001C000001200130000000000000000001A001BD5
:1001D000001C0000000000000000000000040005FA
:1001E000000600070014001500160017000800099B
:1001F000000A000B0018001900000000000C000DA0
:10020000000E000F000000000000000000100011B0
:10021000001200130000000000000000001A001B84
:10022000001C0000000000000000000000FD377A04
:10023000585A000004E6D6B4460200210116000018
:1002400000742FE5A3E00303011C5D003D8889A62F
:1002500054750A36E182AEFA7A1AA6FCA2ED495428
:10026000B48A5E7177BBD05FB821B59A6DEC054555
:10027000EFCE6A71C023FEA9DB302F7EF37E4BD315
:10028000DE126BE7EE1EA5DD985543A028C1493567
:10029000AC126367305C3DEEF2124F0C3294CCBC72
:1002A00017D5A4229E09839F69D6063599DCAB2316
:1002B000EA4ACA80FFC98C1203E2A83FC07B97A11B
:1002C0008A34C7C2A523A1199AC75CE4774DD08DA3
:1002D000056133FB43C4EE22D704D76C7644004556
:1002E00059E6844E960C4A2DEAE35768EC635602B1
:1002F000165D497A6981156CD20FDBDD5C6694D698
:1003000096A8EF0DF60126076D2AF7F2DB195DE4DA
:100310005344D4CF2FD86FBFCF988AB324477F10D0
:10032000C3EB4217DC6C746A16A031F9F87BFEA9A6
:1003300047F0494D6C322E9A6292D5BD17574AA8A4
:10034000D9942DC43B60534685EE6C7536155982A1
:100350009D83671E36DEDBA7A67DFD66584CE81A36
:1003600064A197A1BDD42D2C002F662E6CF34BB445
:10037000A90001B802840600007B4BBA29B1C4670A
:10038000FB020000000004595A00AE00AF00DA0280
:1003900081FFD9F1DB20A4A62EAF00A0C0D30000BE
:1003A000A1C8D30000AED580A81F408D142000073F
:1003B000087F0807003E5B4F5B3E003E6B4F6B3E85
:1003C000001C3E7C3E1C00183C7E3C18001C577DE7
:1003D000571C001C5E7F5E1C0000183C180000FFCC
:1003E000E7C3E7FF00001824180000FFE7DBE7FF82
:1003F0000030483A060E00262979292600407F055C
:10040000050700407F05253F005A3CE73C5A007F26
:100410003E1C1C0800081C1C3E7F0014227F221476
:10042000005F5F005F5F0006097F017F0000668953
:10043000956A0060606060600094A2FFA29400086A
:10044000047E04080010207E20100008082A1C08E2
:1004500000081C2A0808001E10101010000C1E0CAA
:100460001E0C0030383E383000060E3E0E060000EE
:10047000000000000000005F00000000070007000F
:1004800000147F147F1400242A7F2A1200231308EB
:10049000646200364956205000000807030000003F
:1004A0001C224100000041221C00002A1C7F1C2A43
:1004B0000008083E080800008070300000080808A6
:1004C0000808000000606000002010080402003EE0
:1004D0005149453E0000427F40000072494949466B
:1004E000002141494D33001814127F100027454563
:1004F0004539003C4A49493100412111090700367C
:100500004949493600464949291E000000140000A7
:1005100000004034000000000814224100141414AC
:100520001414000041221408000201590906003E7B
:10053000415D594E007C1211127C007F49494936B9
:10054000003E41414122007F4141413E007F4949F7
:100550004941007F09090901003E41415173007F73
:100560000808087F0000417F4100002040413F0112
:10057000007F08142241007F40404040007F021C61
:10058000027F007F0408107F003E4141413E007F12
:1005900009090906003E4151215E007F09192946DB
:1005A0000026494949320003017F0103003F4040D2
:1005B000403F001F2040201F003F4038403F006365
:1005C00014081463000304780403006159494D437F
:1005D00000007F4141410002040810200000414119
:1005E000417F0004020102040040404040400000FE
:1005F00003070800002054547840007F2844443802
:1006000000384444442800384444287F0038545477
:1006100054180000087E09020018A4A49C78007FEA
:10062000080404780000447D4000002040403D0064
:10063000007F102844000000417F4000007C0478C7
:100640000478007C0804047800384444443800FCF2
:10065000182424180018242418FC007C080404081A
:100660000048545454240004043F4424003C4040B7
:10067000207C001C2040201C003C4030403C0044BA
:1006800028102844004C9090907C004464544C44C2
:1006900000000836410000000077000000004136ED
:1006A0000800000201020402003C2623263C000050
:1006B0000000000000404040F0F8F8FF38FFF8F874
:1006C0003FF8F8FF38FFF8F8F04040400000000025
:1006D000000080C0C0C0800000C0C080000000805A
:1006E000C0C000C0C0000080C0C00000000000C04A
:1006F000C0C0C0C000C0C00000000000000000007A
:1007000000000000000000000000000000000000E9
:1007100000000000000000000000000000000000D9
:100720000000000000000000000000000000C0F019
:10073000F8FC3E1E06010000007F4141417F007F22
:100740004141417F000080C0E07E5B4F5BFEC00006
:1007500000C000DCD7DEDEDED7DC00C00000000019
:100760000000000000000000000000000000000089
:100770000000000000494949FFFFFFFFE0DFBFBF65
:1007800000BFBFDFE0FFFFFFFF4949490000000055
:10079000001F3F6060E0BF1F007F7F071E381E07FD
:1007A0007F7F007F7F0E1F3B716000000000007F95
:1007B0007F0C0C0C007E7E007F7E0303007F7E0397
:1007C000037E7E03037F7E000F3E703C063C703E3E
:1007D0000F00327B49493F7E007F7E0303001E3FAE
:1007E00069696F2600000000000000000000030F90
:1007F0001F3F3C7870600000007F4141417F007FD7
:100800004141417F00307B7F7830202030787F3B32
:100810000003000F7F0F0F0F7F0F00030000000089
:1008200000000000000000000000000000000000C8
:100830000000000000010101070F0F7F0F7F0F0F65
:100840007E0F0F7F0F7F0F0F0701010100000000D7
:100850000000000000000101000000000000000096
:100860000000000000000000000000000000000088
:100870000000000000000000000000000000000078
:100880000000000000000000000000000000000068
:100890000000000000000000000000000000000058
:1008A0000000000000000000000000000000000048
:1008B0000000000000000000000000000000000038
:1008C0000000000000000000000000000000000028
:1008D0000000000000000000000000000000000018
:1008E0000000000000000000000000000000000008
:1008F000000000000000002A2B280000000000007B
:100900000000000000000000000029000000002C92
:100910001E3420212224342627252E362D37382731
:100920001E1F202122232425263333362E37381F3D
:100930000405060708090A0B0C0D0E0F10111213FF
:100940001415161718191A1B1C1D2F3130232D359D
:100950000405060708090A0B0C0D0E0F10111213DF
:100960001415161718191A1B1C1D2F3130354C0081
:100970000000000000000000000000000000000077
:100980000000000000000000000000000000000067
:100990000000007E0F00D4FFFFFFC7000000781C9E
:1009A000037600690061006C003A0066003600348E
:1009B000006300320062003300630000000C036734
:1009C000006200630032003400000012036B007507
:1009D000007300680069006D0061003800000004C9
:1009E00003090409025B00030100A0FA09040000E6
:1009F0000103010100092111010001224400070542
:100A0000810308000109040100020300000009211C
:100A100011010001222200070582032000010705C1
:100A20000303200001090402000103000000092162
:100A300011010001227D000705840320000112013D
:100A400000020000000838393432010001020301BD
:100A50000660FF0961A1010962150026FF009520CB
:100A6000750881020963150026FF0095207508911D
:100A700002C005010902A10185020901A1000509C1
:100A80001901290815002501950875018102050144
:100A9000093009311581257F9502750881060938CD
:100AA0001581257F950175088106050C0A38021508
:100AB00081257F950175088106C0C005010904A143
:100AC000018507A1000501093009311601FE26FF45
:100AD00001950275108102050919012901150025EA
:100AE00001950175018102950775018101C0C0055D
:100AF000010906A101050719E029E715002501955F
:100B00000875018102950175088101050719002901
:100B1000FF150026FF0095067508810005081901DC
:100B200029051500250195057501910295017503AB
:100B30009101C00011241FBECFEFDAE0DEBFCDBFB0
:100B400004B603FE18C08091960490919704A0917A
:100B50009804B09199048730904BA740B04B59F45A
:100B6000109296041092970410929804109299048F
:100B7000E0E0F8E3099511E0A0E0B1E0E8E1FDE68E
:100B800002C005900D92AE37B107D9F724E0AEE769
:100B9000B1E001C01D92A639B207E1F70E947C1AAC
:100BA0000C948A360C940000E82FE295EF70F0E088
:100BB00031A1282F2F7081E090E001C0880F2A9585
:100BC000EAF7982F9095932391A392A1892B82A362
:100BD0000895E82FE295EF70F0E031A1282F2F70F3
:100BE00081E090E001C0880F2A95EAF7932F982BB7
:100BF00091A392A18095892382A308950895CF930C
:100C0000DF93809100010E94D405809101010E9430
:100C1000D405809102010E94D405809103010E94B5
:100C2000D405C4E0D1E089910E94D40581E0C930A7
:100C3000D807C9F7DF91CF910895A5E0B0E0E3E2CE
:100C4000F6E00C94DC35CE0101967C0185E0D701FD
:100C50001D928A95E9F73701670124E0822E21E091
:100C6000922E312C44244394512CF40181914F0154
:100C70000E94E9050E94121A90E0A92E91E0B92E77
:100C8000F50110E000E02191A22FA295AF70B0E035
:100C900090968C9190E02F7002C0959587952A953B
:100CA000E2F780FD0AC0D6018C919201002E01C0AE
:100CB000220F0A94EAF7822B8C930F5F1F4F0430A8
:100CC000110509F7F401319780810E94D40560E095
:100CD000832D0E94141A3394BFEFCB1ADB0AE5E090
:100CE0003E12C3CFCC24C3948CEFD82ED00ED501A6
:100CF0008D915D010E94E9050E94121A3C2D002E83
:100D000001C0330F0A94EAF7F70144E051E0DA0139
:100D10002D91AD01822F82958F7090E0DC0190962D
:100D20008C9190E02F7002C0959587952A95E2F7F7
:100D300080FD03C08081832B80833196B1E04930F0
:100D40005B0729F7F501319780810E94D40560E0A7
:100D50008D2D0E94141A0F5F1F4F0830110521F6C8
:100D6000C7010E94FE05E3E7F2E085E0E80EF11C12
:100D700010E0D3018D913D019191891721F0DF01A0
:100D800011978C9311E0E614F70499F7212F45E0B1
:100D900068E772E083E792E00E94351A0E94F0193A
:100DA000812F2596E1E10C94F835873941F178F4EB
:100DB000863359F130F4843321F1853321F18FE109
:100DC00008958439D1F08639D1F781E20895843FBE
:100DD00071F030F4803FD9F0813F89F781E00895C8
:100DE000863F49F030F0873F51F787E0089584E06F
:100DF000089585E0089586E0089580E2089582E2EE
:100E0000089583E2089584E2089585E2089580E0DC
:100E1000089596E890937A00982F90729068909336
:100E20007B008F7190910901892B80937C008091C8
:100E30007A00806480937A0080917A0086FDFCCFEE
:100E4000809178002091790090917A009F7790931B
:100E50007A00922F08950E94D5060E9409070895EE
:100E60008091210190912201892B31F480912301FD
:100E700090912401892B91F070E060E080E00E9465
:100E8000422070E060E081E00E9442201092220146
:100E90001092210110922401109223010895A6E0DE
:100EA000B0E0E5E5F7E00C94EA359FEF980F943059
:100EB000A8F4162FE82FF0E0EE0FFF1FE45BFE4FC3
:100EC0008081918199838A830E94392C682F49817E
:100ED0005A81792F81E0912F0E948C0C2696E3E0B5
:100EE0000C94063680912001882329F060E00E944E
:100EF0004F071092200108954F925F926F927F9258
:100F00008F929F92AF92BF92CF92DF92EF92FF9219
:100F1000CF93C0E1C12CD12C7601812C912C5401AE
:100F200086EF0E942B07092E000CAA0BBB0B880E24
:100F3000991EAA1EBB1E87EF0E942B07092E000CCC
:100F4000AA0BBB0BC80ED91EEA1EFB1E8FE39FE146
:100F50000197F1F700C00000C15011F780E1482E61
:100F6000512C612C712CC501B401A30192010E9486
:100F70007E3530931A0120931901C701B601A301F0
:100F800092010E947E3530931C0120931B01CF916A
:100F9000FF90EF90DF90CF90BF90AF909F908F9099
:100FA0007F906F905F904F900895A6E0B0E0EBEDDA
:100FB000F7E00C94E13580911E0190911F010E9491
:100FC000512C0A97B8F00E94392C90931F018093FE
:100FD0001E0186EF0E942B077C0187EF0E942B07E2
:100FE0008C0180911801813009F461C038F08230A1
:100FF00009F4F7C02696ECE00C94FD350E9430070A
:101000008091190190911A01E81AF90A20911B01A7
:1010100030911C01021B130B97012A5B3F4F2D38A7
:10102000310530F498012A5B3F4F2D38310558F1D6
:101030000937110534F508382FEF1207B4F189E7A5
:10104000E816F104CCF4E8E8EE16EFEFFE065CF1EA
:10105000A701F7FE04C0442755274E195F099801E0
:1010600017FF04C022273327201B310B2417350715
:101070002CF41E141F04BCF412E006C01016110656
:10108000A4F411E001C010E080912001811709F45F
:10109000B1CF60E00E944F0761E0812F0E944F07AF
:1010A00010932001A7CF14E0EFCF13E0EDCF0E9403
:1010B00072070E9430078091190190911A01E81A75
:1010C000F90A80911B0190911C01081B190B9701D3
:1010D000F7FE04C0222733272E193F09C80117FF46
:1010E00004C088279927801B910B8217930708F06B
:1010F00067C04C01880C991C880E991E73E0969469
:1011000087947A95E1F7820E931EF9E78F16910482
:1011100008F470CFA0911D01940128573109B0E067
:101120000E94B23528E831E040E050E00E945C3592
:101130006901121613061CF0CC24C394D12CB12CD7
:10114000A12C9701D6010E94AA35A50194010E9405
:101150007E3591E8F92E21388FEF38074807580778
:1011600044F0F22E203831054105510514F08FE787
:10117000F82E22273327201B310BD6010E94AA35D7
:10118000A50194010E947E352138EFEF3E074E07FE
:101190005E071CF1203831054105510504F5F110B9
:1011A00003C0222309F426CFCE01019636E0FC01CC
:1011B00011923A95E9F7FB822C830E94D12A1ACF2B
:1011C0004901880C991C820E931E53E096948794D3
:1011D0005A95E1F7880E991E98CF21E8E5CF2FE7C1
:1011E000E3CF0E947207C701B0E0A0E0209119018F
:1011F00030911A01821B930BA109B10960E07EEFC7
:101200008115FEEF9F07FFEFAF07BF0744F0BC015A
:1012100081159240A105B10514F06FEF71E030E047
:1012200020E040911B0150911C01041B150B21096A
:10123000310901158EEF18078FEF28073807ACF139
:101240000115E2E01E072105310594F59B01245CA0
:101250003F4F2937310510F470E060E09801245CBD
:101260003F4F2937310510F410E000E020912101B3
:10127000309122012617370741F420912301309144
:1012800024012017310709F4B5CE70932201609331
:101290002101109324010093230180E00E94422049
:1012A000B80181E00E944220A5CE00E01EEFCECF23
:1012B0000FEF11E0CBCF809118010895A6E0B0E0C8
:1012C000E4E6F9E00C94EA35833060F4909118017B
:1012D000981741F0182F913061F040F0923099F05A
:1012E000109318012696E3E00C9406360E947207CC
:1012F000F7CFCE01019626E0FC0111922A95E9F77D
:101300000E94D12AEDCF0E943007EACF80911D01C3
:10131000089580911D018E3220F48B5F80931D0112
:10132000089582E3FBCF80911D01482F4550550B56
:101330001416150634F48550433351051CF082E32E
:1013400001C081E080931D010895A6E0B0E0EBEAC2
:10135000F9E00C94EB35262F89838AE38A8364367F
:10136000B8F1862F64E60E942835805D8B83A3E068
:10137000E1E0EA0F81E090E08C0F9D1F8A0F911D44
:10138000DC013AE0822F632F0E9428350E94283525
:10139000905D9C93A1E0B0E0AC0FBD1FAE0FB11DFE
:1013A000822F6AE00E942835905D9C93EF5F81E078
:1013B00090E08C0F9D1F8E0F911DFC01108260E04C
:1013C000CE0101960E94D81D2696E2E00C940736C5
:1013D000E2E06A30F8F2A2E0CBCF83E0089560E06B
:1013E0008CED90E00E94F01D60E086ED90E00E94A0
:1013F000F01D80919A010E943A0C813071F150F0F9
:10140000823079F1833089F160E080EC90E00E94D5
:10141000DE1D05C060E082ED90E00E94F01D60E0FE
:101420008FEB90E00E94F01D60E08BEB90E00E945B
:10143000F01D0E945B09813011F1D8F0823019F162
:101440000E948609682F83E50E94A50960918101A9
:1014500085E40E94A50980E0089560E08EEC90E0AC
:10146000DCCF60E08AEC90E0D8CF60E086EC90E0E2
:10147000D4CF60E086EB90E00E94F01DE1CF60E009
:1014800081EB90E0F9CF60E08CEA90E0F5CFA6E048
:10149000B0E0EDE4FAE00C94E935082F162F0E9435
:1014A0002822882381F001110EC083E0898384E023
:1014B0008A830E94392C682F49815A81792F81E0D3
:1014C000912F0E948C0C80E02696E4E00C94053667
:1014D0000E947C0708959C01FB018581882379F196
:1014E0002231FEE73F07F1F040F42031EEE73E07FE
:1014F00061F021313E4789F0089523319EE7390795
:10150000B1F024313E47B9F0089580E00E945E09B1
:1015100081E08093810180E0089581E00E945E096E
:1015200082E0F7CF82E00E945E0983E0F2CF0E9462
:10153000890984E0EECF0E94930985E0EACF81E03B
:10154000089580918001811105C0219A299881E038
:10155000809380010E94D50708958430C8F46530D7
:10156000B8F44830A8F4E62FF0E095E0899FE00D4C
:10157000F11D112483E0EE0FFF1F8A95E1F7E40FC0
:10158000F11DEE0FFF1FE351FF4F859194910895D8
:1015900081E090E00895843088F461110FC090E0FC
:1015A000880F991FE1E0E427E80FF92FF11DEE0FF6
:1015B000FF1FE352FF4F85919491089581E090E0E1
:1015C00008959C013A9521153F4150F5FC01EE2705
:1015D000F170BC0166277270AC01442754709C0105
:1015E0002227387094FF0EC080E0EF2B09F080E1D5
:1015F000672B09F08062452B09F08064232B89F06A
:101600008068089581E0EF2B09F480E0672B09F0F2
:101610008260452B09F08460232B19F088600895BF
:1016200080E00895CF93DF93EB010E94E10AFE0171
:101630000995DF91CF910895CF93DF93EC01805E00
:101640009109089720F063E170E1209711F46CEBA9
:101650007DE0CE010E94120B8C2F0E94DF0CDF91E7
:10166000CF910895CF93DF93EC010E94530DCE01EB
:10167000805E9109089720F06AE170E1209711F4EB
:1016800063EC7DE0CE010E94120BDF91CF910895B3
:1016900081E008950E94480B089581E008950E941A
:1016A0006B0A089508950E94520B0895A6E0B0E0D9
:1016B000ECE5FBE00C94EA3549835A839E83309134
:1016C000870189819A8131111AC03E81332399F0B3
:1016D000222389F00E946911182F682F89819A812D
:1016E0000E94321169817A81812F0E94C918269641
:1016F000E3E00C9406360E944E11182FF3CF0E949F
:10170000691169817A81F1CFFC01262F40815181D5
:1017100062817381848195810E94560B0895CF93D5
:10172000DF93EC0161E00E94840BBE010E944A0B32
:10173000DF91CF910895CF93DF93EC0160E00E9499
:10174000840BBE010E94530BDF91CF91089581E07D
:1017500008950E94A70B0895CF93C82F0E942F10C1
:101760008C2F0E94A90B2FEF84E39CE02150804036
:101770009040E1F700C00000CF91089581E00E9401
:10178000AC0B0E94862C089580E00E94AC0B0E9456
:10179000AA2C08950F931F93CF93DF93EC018B0135
:1017A0000E948429811106C080E0DF91CF911F91B2
:1017B0000F910895B801CE010E94481C8823A1F31F
:1017C000B801CE010E944F0B882371F3B801CE01FE
:1017D0000E94501F882341F3B801CE010E94D528F2
:1017E000882311F3F8018581882361F0C330FCE779
:1017F000DF07E9F058F4C115ECE7DE07A9F0C130C6
:10180000DC47B9F0C8010E944D0BCFCFCB358CE738
:10181000D807A9F0CC35ECE7DE0771F0CA35DC4714
:1018200089F70E940116EECF0E94BE0BBDCF0E9429
:1018300009160E94C40BB8CF0E94F715E3CF0E948F
:101840000516E0CFCF93DF93EC0161E00E94840B9B
:10185000BE010E94CA0BDF91CF9108950E94B42B64
:101860000E946A0C0E94071F08950E946E0C0E943D
:10187000B92B0895982F92959F7020E011F0892F31
:1018800024E0982F9695969511F02E5F892F982F2A
:10189000969509F02F5F822F0895089581E00895AD
:1018A0000895CF93DF93D82F0E944E0CC82F882322
:1018B00019F08D2F0E94500C8C2FDF91CF9108953D
:1018C0000895CF93C82F0E944D0C8C2F0E94510C6D
:1018D000CF91089580E00E94610C08950E94B62A7D
:1018E0000E94610C0895CF930E94B62AC82F809160
:1018F00082018C1779F0C09382010E94452C60937D
:1019000083017093840180938501909386018C2FCD
:101910000E94610CCF910895ADE0B0E0E2E9FCE0F7
:101920000C94EB35488759876A877B878C879D871E
:1019300091110E94FE141F8286E0FE013896DE019E
:10194000119601900D928A95E1F78091720282FFC3
:101950000CC00E94BF14882319F082E00E94CB15AE
:101960000E94A61481110E9451158D8181110DC014
:1019700029813A814B815C816D817E818F810E94BA
:1019800021142D96E2E00C940736CE0101960E94B8
:101990008F0B8111EDCFF5CFFC012481213021F493
:1019A000808191810E9496110895662329F00E94FA
:1019B000A3250E948F2608950E941326FACFCF9365
:1019C0008823D1F0C82F8238C9F40E94C32A81FD30
:1019D00013C089E30E944A2B0E949C152FEF87EECB
:1019E00093E0215080409040E1F700C0000089E37F
:1019F0000E94522B0E949C15CF9108958338A1F428
:101A00000E94C32A80FDF8CF83E50E944A2B0E94E2
:101A10009C152FEF81EE94E0215080409040E1F73B
:101A200000C0000083E5E4CF8438A1F40E94C32AFB
:101A300082FDE2CF87E40E944A2B0E949C152FEF83
:101A400081EE94E0215080409040E1F700C000001A
:101A500087E4CECF8CEF8C0F813A70F48C2F0E94EC
:101A60000F2B882329F08C2F0E94522B0E949C154B
:101A70008C2F0E944A2BBECF80E28C0F883048F416
:101A8000C77081E001C0880FCA95EAF70E94DF1491
:101A9000B1CF83E38C0F833108F0AECF61E08C2FA0
:101AA0000E94D50CA9CF882309F444C0823879F468
:101AB0000E94C32A81FF3EC089E30E944A2B0E94F4
:101AC0009C1589E30E94522B0E949C15089583382F
:101AD00059F40E94C32A80FF2DC083E50E944A2B3F
:101AE0000E949C1583E5EECF843859F40E94C32AE6
:101AF00082FF20C087E40E944A2B0E949C1587E445
:101B0000E1CF9CEF980F913AE8F290E2980F98306D
:101B100050F4877091E001C0990F8A95EAF7892FF8
:101B20000E94E514D1CF93E3980F933118F460E04D
:101B30000E94D50C08951F93CF93DF93182FEB01CC
:101B40000E94DF0C209739F4812F0E94530DDF9102
:101B5000CF911F9108958FE99FE00197F1F700C0A1
:101B600000002197EFCF65E070E0893311F460E564
:101B700070E00E949B0D0895882321F00E94DF14DD
:101B80000E949C150895882321F00E94E5140E946C
:101B90009C150895B0E0A0E0E0EDFDE00C94E53583
:101BA0006C01D62FC72FFC01F580068102950F70BE
:101BB0000E94D514E82E8823F9F0EF2CFF20E1F0E5
:101BC0008C2F807F803461F080E28D0F883060F14F
:101BD0008C2F807E803221F4D23030F1002321F12D
:101BE0008091720282FF20C082E00E94CB150E9489
:101BF000D51491E0E82EE9261C2F12951F701C3099
:101C000008F07CC1E12FF0E0E85FF14F0C949D35C6
:101C1000160E160E460E460E7E0FD80E7E0F7E0F47
:101C2000DD0E450F560F560FE12CE6CF1C2F1F700F
:101C3000C07F11F01295107FFF2099F0112359F009
:101C400080E28D0F883010F0D11107C0812F0E94E3
:101C5000DF140E949C158D2F39C0812F0E94F01433
:101C6000F8CF8D2F0E94530D1123C1F180E28D0F0B
:101C7000883010F0D11104C0812F0E94E51403C0F8
:101C8000812F0E94F6140E949C1528C01C2F1F70E3
:101C9000C07FC03211F01295107FDD2349F0D130A2
:101CA00009F463C0FF2009F46DC0002399F1D3CF7C
:101CB0008091720282FD2AC0FF2059F0112329F081
:101CC000812F0E94DF140E949C1580E00E94DF0C8F
:101CD00005C080E00E94530D1111CECFEE2089F097
:101CE0000E94BB1480FD0DC0F60115820E94B51440
:101CF0000E94A610C6010E94F00F0E94B5140E9417
:101D0000B210CDB7DEB7E8E00C940136FF20C1F089
:101D1000011104C0812F0E94BC0DE0CF013021F4DD
:101D2000812F0E942115DACF0530C1F6812F0E9444
:101D3000BC0D812F0E943815812F0E940515CECF32
:101D400001110AC0812F0E94C30D812F0E943815F6
:101D5000812F0E941115C2CF013009F0BFCF0E9420
:101D6000DC14812309F4BACFEDCFFF2021F0063037
:101D700008F0B4CFCFCF053008F0B0CF812F0E944C
:101D8000C30DACCF0023D1F3D93369F4FFEF27EEB5
:101D900083E0F15020408040E1F700C000008D2F2B
:101DA0000E94530D9BCFEFE1FEE43197F1F7F5CFA1
:101DB0006F2D8D2F0E94D50C91CF8C2F837091F5B4
:101DC000F11022C04D2F429546954770440F440FA5
:101DD0008D2F8F70042E01C0880F0A94EAF720E03F
:101DE000D4FF07C02FE030E001C0220F4A95EAF788
:101DF0002095822BC695C695C370C23069F078F4E1
:101E0000C13039F00E9482100E94B62A0E94610CF3
:101E100065CF0E947C10F8CF0E948810F5CF0E94F9
:101E20007910F2CF8695FF2011F08C2F81708823D6
:101E300059F34D2F429546954770440F440F8D2F0F
:101E40008F70042E01C0880F0A94EAF720E0D4FFB7
:101E500007C02FE030E001C0220F4A95EAF7209535
:101E6000822BC695C695C370C23049F058F4C13074
:101E700019F00E94D110C8CF0E94CB10C5CF0E948C
:101E8000D710C2CF0E949410BFCFCF70FF2039F07F
:101E90008C2F0E94A6108D2F0E94BC0DB5CF8D2FC8
:101EA0000E94C30D8C2F0E94B210AECFD23F71F1B1
:101EB00070F4D03FD9F0D13F91F0FF2009F45FC01A
:101EC000002309F459C08D2F0E94DF0C17C0D33FA7
:101ED00021F1D43F91F78091720282FD28C08C2FAE
:101EE0008F71FF20B9F00E94A61008C0FF2059F0A2
:101EF000053020F48C2F8F710E94BF1018501430C1
:101F000008F0ECCE81CF0630C8F7F4CF8C2F8F715C
:101F1000FF2049F30E94B210F1CFFF2029F08C2F4F
:101F20008F710E949D10EACF0E949910E7CFFF2089
:101F3000B9F00E94BB14843041F40E94C1158C2F6B
:101F40008F710E94B210E12C5FCF0530E0F7CF71A6
:101F50008C2F0E94A61063E08C2F0E94A315F3CF54
:101F6000053030F00E94C11564E08C2F8F71F5CFE1
:101F700081E00E94CB15E7CF8C2F8F71B4CF002367
:101F8000A1F0D93369F4FFEF27EE83E0F150204050
:101F90008040E1F700C000008D2F0E94530DAECFAE
:101FA000EFE1FEE43197F1F7F5CF8C2F8F71B2CFCF
:101FB0000F931F93CF93DF93EC01688179818D811B
:101FC0000E94A1118C010E94DD100E947810B801BE
:101FD000CE010E94CA0DDF91CF911F910F910895FC
:101FE000CF93DF93FC012481222399F0EC010E941E
:101FF000220C811111C00E94D514882351F08D81CB
:10200000882339F08091720282FF03C082E00E942F
:10201000CB15DF91CF910895CE010E94D80FCE014C
:102020000E949B0BF6CF882321F00E94F0140E949F
:102030009C150895882321F00E94F6140E949C1597
:1020400008950E94FE140E949C150E94AE260E94D4
:102050008F2608950E945A2B0E94211008950E94F5
:10206000ED140E942A10089592959F70963089F081
:1020700050F49250923058F4803F19F030F4883E7A
:1020800030F481E008959A50F5CF843FD1F380E099
:102090000895883EB0F3813FD1F7F3CFFC0124814E
:1020A000222339F0808191810E9496110E94341080
:1020B000089580E00895A6E0B0E0E1E6F0E10C9438
:1020C000EB352696E2E00C940736A7E0B0E0EBE6AD
:1020D000F0E10C94EB352796E2E00C940736089576
:1020E0000E946F1008950E94701080939B010895C4
:1020F00008950E947310089590919B01892B0E946E
:102100007310089590919B0189230E947310089584
:1021100090919B0189270E94731008950E946F106F
:1021200008950E948E1008950E94911080939A0144
:10213000089580E00E949410089591E001C0990FE5
:102140008A95EAF7892F0E949410089521E030E0E3
:1021500001C0220F8A95EAF780919A01822B0E9492
:102160009410089521E030E001C0220F8A95EAF72B
:10217000209580919A0182230E949410089521E075
:1021800030E001C0220F8A95EAF780919A018227F8
:102190000E949410089590919A01892B0E949410A6
:1021A000089590919A0189230E9494100895909126
:1021B0009A0189270E94941008950895262F277068
:1021C00091E001C0990F2A95EAF723E0769567958B
:1021D0002A95E1F7FB01EE0FFF1FE60FF71FE40F53
:1021E000F51F50E040E0682F70E08191DF0111970A
:1021F0009B01042E02C0369527950A94E2F72170C0
:1022000021952827292328272C934F5F5F4F4330A0
:10221000510559F70895A82FA77023E09695879543
:102220002A95E1F7FC01EE0FFF1FE80FF91FE60FFB
:10223000F71F50E040E080E0219130E00A2E02C01C
:10224000369527950A94E2F721703327042E01C0B2
:10225000220F0A94EAF7822B4F5F5F4F43305105FC
:1022600059F70895282F903F89F0862F622F9530D7
:1022700070F4283060F448E0949F90011124620FBC
:10228000732F711D4BE851E00E94DE1008959C5F92
:102290009230E0F770E048E851E0F6CF903FB9F0B7
:1022A000953070F4883060F448E0949F90011124D8
:1022B0006BE871E0820F932F911D0E940B1108951E
:1022C0009C5F923020F468E871E090E0F6CF80E007
:1022D0000895CF92DF92FF920F931F93CF93DF93D6
:1022E0006C0100919A0180919B01082BC3E0D0E022
:1022F00010E0FC2EC8010C2E02C0959587950A941B
:10230000E2F780FD0CC02197A0F7F12C8F2DDF9113
:10231000CF911F910F91FF90DF90CF900895B6015C
:102320008C2F0E94F118019771F3F0CFCF93DF93B8
:10233000EC010E946911BE010E94F118DF91CF915A
:1023400008951F93CF93DF93EB0190918701992319
:1023500039F0CB010E949611DF91CF911F91089522
:10236000882369F0CB010E946911182F682FCE01D4
:102370000E943211BE01812F0E94F118EDCFCB01D6
:102380000E944E11182FF6CFE1E0F0E0DF0102C00D
:10239000AA0FBB1F6A95E2F7BD01DF0102C0AA0FB9
:1023A000BB1F4A95E2F76A2B01C0EE0F2A95EAF7A8
:1023B000962F9823961302C08E2B0895E0958E23B6
:1023C0000895242F462F682F80919A010E94C411EE
:1023D0000E94941008951F93CF93DF93C0919C01A6
:1023E00017E080919D018C1304C0DF91CF911F9164
:1023F0000895D0E01C9FF0011D9FF00D1124E256BE
:10240000FE4F2081318142815381648175818681B3
:102410000E9465102196C770E4CF2091D6013091BB
:10242000D7014091D8015091D9016091DA017091A2
:10243000DB018091DC010E9465100895CF93DF934A
:102440008091DC01807F09F04DC08091DB01882301
:1024500009F448C0E0919C0150919D01C091D701C1
:10246000D091D6016091D8017091D90147E05E17F3
:10247000C9F18E2F90E0E49FF0011124E256FE4F47
:102480002481222391F1489FF001499FF00D1124EE
:10249000DF01A256BE4F11962C9111972C1325C027
:1024A0002C912D1322C015962C91159721111DC02A
:1024B00012962D913C91261B370B283C3105A8F430
:1024C0008091DC018F7080618093DC01EC55FE4FC0
:1024D00080818F708061808386ED91E00E94F00F93
:1024E0000E94EB11DF91CF910895FC013196E770C6
:1024F000BECF482F20919C0190919D0157E0291358
:1025000002C080E0089530E0529FF001539FF00D2B
:102510001124E256FE4F8181681306C08081481362
:1025200003C085818111EECF2F5F3F4F2770E7CF2A
:10253000A4E1B0E0EEE9F2E10C94E1358C0186E033
:10254000F801DE011F9601900D928A95E1F7F801DE
:102550008481E58096EDA92E91E0B92E9091DA0163
:1025600091111FC08823D1F0EE20A9F0C8010E946C
:102570004E10F82E882379F087E0F801D5010190FC
:102580000D928A95E1F7C5010E94CC0C0E941E12A3
:102590000E940D125FC0C8010E94F00FFF24F39447
:1025A00059C0C080D18082809380F090DB0120915F
:1025B000D8013091D901A401421B530BFF2009F42B
:1025C000F8C0483C510508F0A6C0882309F442C071
:1025D0009091D7018091DC01282F207F09F05BC00A
:1025E000D91216C09091D601C91212C0E1104DC087
:1025F0008F7080618093DC010E940D1286ED91E066
:102600000E94F00F8091DC01F8018683F12C22C03A
:10261000E1103BC06D2D8C2D0E9479126D2D8C2DFB
:102620000E947912E82E8111F1CFCF86D88A8F854A
:1026300098890E949611292F22952F70243078F4C2
:102640009F702230A0F09923B1F0F8019681907F1D
:1026500091F4FE2C8F2D6496ECE00C94FD352A50FD
:10266000223068F0C8010E94F00FEF2CF2CF9923BE
:1026700011F0882371F3805E8830A0F7EACF803FA5
:1026800040F3815F833070F7E4CF8091DC0181609B
:102690008093DC01BBCFD91213C09091D601C9122F
:1026A0000FC0E1100DC08683C8010E94F00F87E0C3
:1026B000F801A6EDB1E001900D928A95E1F768CF9F
:1026C000C8010E944E10882309F465CFEE2009F45A
:1026D00062CF8091DC01803288F02091D601309168
:1026E000D701398728879B868A869091DA019C8753
:1026F0001D868E87CE0108960E94F00F87E0F801B4
:10270000A6EDB1E001900D928A95E1F70E941E12AC
:102710000E940D1243CF9091DC01292F207FA1F45C
:10272000682D9A8A898AA6017A899E2D0E945B105B
:1027300086ED91E00E94F00F87E0F50111928A95F5
:10274000E9F70E940D1262CF882309F483CF8091AC
:10275000D7018D1110C08091D601C8120CC0E110B4
:102760000AC09683C8010E94F00F87E0F50111921C
:102770008A95E9F76FCFC8010E944E10882309F4AB
:102780000ACFEE2009F407CF8091DC01803208F4F3
:10279000B5CF2091D6013091D7013A8329839C820D
:1027A0008B829091DA019D831E828F83CE010196E8
:1027B000A3CF483C5105B8F5882309F4EFCEFE2C91
:1027C000EE2009F4E8CE8091D7018D111EC08091D2
:1027D000D601C8121AC08091DC0180FD0DC0982F6F
:1027E000907F51F08683903F09F45ECF982F907FC1
:1027F000905F8F70892B57CF87E0F801A6EDB1E08D
:1028000001900D928A95E1F725CFC8010E944E10E4
:10281000811174CF8091DC0181608093DC01C8015B
:102820000E94F00F17CF682D9A8A898AA6017A89AB
:102830009E2D0E945B1087E0F50111928A95E9F7C1
:10284000A7CEAEE0B0E0E7E2F4E10C94EA352887E9
:1028500039874A875B876C877D878E87CE0108968C
:102860000E9498128823B1F16C85662341F0288577
:1028700039854A855B857D858E850E94651017E0C8
:1028800080919C0190919D01891709F45BC0819F03
:10289000C001112482569E4F0E949812882309F489
:1028A00051C0E0919C011E9FF0011124E256FE4FA1
:1028B00020813181428153816481758186810E94AA
:1028C000651080919C0190E0019687709927809314
:1028D0009C01D6CF87E0FE013896DE01119601906B
:1028E0000D928A95E1F78C85882349F220919D010C
:1028F00030E0C90101968770992740919C014817E3
:10290000190699F097E0929FD001939FB00D112482
:10291000A256BE4FFE01319601900D929A95E1F7B5
:1029200080939D010E94EB11AACF0E942F1010925C
:102930009D0110929C0187E0E6EDF1E0DF011D9220
:102940008A95E9F72E96E3E00C9406360E94392C1E
:102950002091E8013091E901821B930B9C0181E0F9
:102960002838334108F480E008958091E701869586
:102970008695869508958091E701877008950E9455
:10298000392C2091E5013091E601821B930B8838A8
:10299000934148F08091E70182FB882780F991E01C
:1029A00089278170089580E0FCCF9091E7019770AE
:1029B00081E009F480E008958091F50108959091F7
:1029C000F501892B8093F5010895982F90958091BA
:1029D000F50189238093F50108951092F50108957A
:1029E0009091F401892B8093F4010895982F90958C
:1029F0008091F40189238093F40108951092F401E9
:102A0000089508950E94011508959091EA01292FD3
:102A10002823281729F0892B8093EA010E940215A8
:102A200008959091EA01292F282331F08095892378
:102A30008093EA010E940215089508950E941D15D1
:102A40000895CF939091EB019823981779F0C82FB0
:102A50000E94392C9093E9018093E8018091EB0169
:102A60008C2B8093EB018C2F0E941E15CF91089523
:102A70009091EB01292F282381F080958923809361
:102A8000EB01882359F00E94392C9093E90180933F
:102A9000E8018091EB010E941E15089590E080E00E
:102AA000F4CF8091EB01882349F01092EB01109252
:102AB000E9011092E80180E00E941E1508950F932D
:102AC0001F93CF93DF930091250110912601C091B0
:102AD000F5018091F401C82B8091EB01882369F006
:102AE0000E94A61481110E9451158091EB01C82B00
:102AF0000E94002B81110E945115F801C083C091E2
:102B00002501D091260148E050E06DED71E0CE0145
:102B10000E941B36892B59F088E0FE01ADEDB1E033
:102B200001900D928A95E1F7CE010E94C62ADF91AD
:102B3000CF911F910F9108950E945F1508950895F8
:102B40000E949F1508959091720292FF17C098E01D
:102B5000899F90011124622B6093E7010E94A610C7
:102B60000E94392C9093E6018093E5018091E70162
:102B70008695869586950E94A01508950E94A610B8
:102B800008951092E7011092E6011092E50180E0AD
:102B90000E94A01508959091E70180958923809364
:102BA000E701282F277069F4891759F09091720274
:102BB00092FF07C08695869586950E94B2100E9466
:102BC000C11508959091720292FB222720F92817CF
:102BD00069F080FB92F9909372028091710290915A
:102BE00072020E942B1682E00E94CB1508958091FC
:102BF000720282FB882780F991E089270E94E21502
:102C0000089581E00E94E215089580E00E94E21597
:102C100008956FEF7FEF90E080E00E947436089592
:102C200090E080E00E944036863E9E4F19F40E945C
:102C30001F29089580E0089582E090E00E943836D0
:102C4000089583E090E00E943836089584E090E093
:102C50000E9440360895BC0184E090E00E947436E2
:102C60000895AB01BC018FE090E00E9468360895A2
:102C7000AB01BC0183E190E00E946836089560E0FA
:102C800070E0CB010E943816089560E070E0CB013F
:102C90000E9431160E943F160895A8E0B0E0E3E5D7
:102CA000F6E10C94EB3566EE7EEF90E080E00E945A
:102CB000743660E082E090E00E94563681E08093B6
:102CC0009B0161E083E090E00E94563660E074E191
:102CD00084E090E00E94743660E086E090E00E941C
:102CE000563660E087E090E00E94563640E050E0C3
:102CF000BA0188E090E00E94683660E084E290E0EB
:102D00000E94563660E087E190E00E94563660E00F
:102D10008CE090E00E94563660E08DE090E00E94EA
:102D2000563619821A821B821C821D821E821F82C5
:102D3000188648E050E068E170E0CE0101960E94FC
:102D4000463640E050E0BA0180E290E00E946836EA
:102D500080E00E9438290E9467290E944516289623
:102D6000E2E00C9407360E944D160895A6E0B0E00C
:102D7000ECEBF6E10C94E9350E94392C8C01809142
:102D8000F6019091F7018017910781F019821A825C
:102D90000E94392C682F49815A81792F80E090E078
:102DA0000E948C0C1093F7010093F6012696E4E044
:102DB0000C9405360E94452C609305027093060220
:102DC00080930702909308026093010270930202BD
:102DD000809303029093040208950E94452C60930F
:102DE0000502709306028093070290930802609395
:102DF000FD017093FE018093FF01909300020895FE
:102E0000089508950E94001708950E94680A089581
:102E100089EE99E10E94891A0E948E1A0E94011778
:102E20000E940217089581E008950E9413170895E3
:102E30000E941317089508950E941B170E94A10A6B
:102E400008950E941016811102C00E94B3160E94BC
:102E50001C16809309020E9426169093720280939A
:102E600071020E9425220E9421160E9479108091F1
:102E70009A010E94911008950E94302C0E94772997
:102E80000E9477200E94171A0E9421170E94600C4E
:102E900080E00E948F1C0E9456220E946E200E9499
:102EA00005170895A6E0B0E0E8E5F7E10C94E135F8
:102EB0000E941517C82E811111C00E94B616C12C90
:102EC0000E945C220E94DD20882309F45DC00E94DC
:102ED000ED160E94251F0E94F61D5AC00E941D0675
:102EE00088EFA82E81E0B82E750110E0F70101915E
:102EF0007F01812F0E94071A1F5F153009F441C01E
:102F00000817A1F38091090281FD0E940D1A0E9409
:102F10001817982E10E088248394812F0E94071A96
:102F2000082FF50181915F01081729F1F12CEE249A
:102F3000E394D02ED8268D2D8E21A9F0992099F0DA
:102F4000F9821A830E94392C9C838B838D8291E0B5
:102F5000802F8E2109F490E049815A816B817C8118
:102F60008D810E948C0CF394EE0CF8E0FF12E3CFFD
:102F7000F501319700831F5F153079F60E94DA164C
:102F80009FCF0813BFCF99CF0E94251FC110A3CF99
:102F90000E94D0260E9471200E94730C2696ECE0BD
:102FA0000C94FD351F93CF93DF930E94F618EC012C
:102FB000C11582E5D80708F03FC0C11590E5D907D3
:102FC00008F0BEC0C83ED105C0F4C03ED10580F4B3
:102FD000C53AD10548F4C430D10550F4C130D1050B
:102FE00039F0D0E0C0E004C0CD3CD105D0F3D065CD
:102FF000CE01DF91CF911F910895C11580E4D807CC
:1030000008F053C0C11590E2D90708F0B1C0C1154E
:1030100081E0D80730F38D2F0E949A19182FCE0126
:1030200099270E94F618C12FD0E0DC2FCC27CC279F
:10303000DF71C82BD92BDCCFC03892E5D907A8F4B3
:10304000C03682E5D80708F061C0C03492E5D907E0
:1030500008F047C0C03282E5D80778F1CF71D0E0E0
:10306000DC2FCC27C16FD06AC3CFC03C92E5D90713
:1030700080F48C2F8F71C03AD24508F45AC00E9458
:103080009A19C82FD0E0DC2FCC27CC27DF71D06273
:10309000AFCFC03E82E5D80708F0A3CFDC2FCC2706
:1030A000CC27DF71C06FD06AA3CFCE0199270E94D1
:1030B000F618CC27DF70D06ABCCF2C2F269526952A
:1030C00090E2299F900111248C2F8370C1E0D0E001
:1030D00002C0CC0FDD1F8A95E2F7C22BD32BDD682F
:1030E00087CF2C2F26952695277080E2289F900168
:1030F00011248C2F8370C1E0D0E002C0CC0FDD1F03
:103100008A95E2F7DC68C22BD32B72CF2C2F269541
:103110002695277090E2299F900111248C2F8370AF
:10312000C1E0D0E002C0CC0FDD1F8A95E2F7DA687B
:10313000EACFC82FD0E0DC2FCC27C46FD06A58CF9D
:103140008C2F8F710E949A1955E0D695C7955A9584
:10315000E1F7CF70D0E0DC2FCC27282F30E084FFC0
:1031600005C044E0220F331F4A95E1F7D069CBCF69
:103170008D2F8F710E949A19182FCE0199270E94C6
:10318000F618C12FD0E0DC2FCC27CC27DF7190625E
:1031900050CF462F2091110230911202232BF1F4CF
:1031A000703F39F4603FD1F480917D0290917E02AE
:1031B0000895672F753028F4483080F40E94F52375
:1031C00008957D3F39F4411109C041E060E00E945B
:1031D000012408957C3F11F44423C1F390E080E082
:1031E00008950E94C9180E94D21708958238910547
:1031F000B9F1B0F48133910509F47DC048F4893206
:10320000910509F46DC08A32910509F479C00895D9
:103210008533910509F45FC08933910509F108955B
:10322000833E9105D9F138F4803E910529F1823E23
:10323000910579F10895863E9105D9F1873E910572
:1032400009F43EC0843E910541F52091720221FFB0
:1032500024C08091710284FD19C087EE90E008952A
:1032600020917102237009F056C02091720223FF51
:1032700014C089E290E008952091710220FD38C0C9
:103280003091720230FF09C024FF3FC090E080E01F
:1032900008952091710222FDF7CF089520917102C7
:1032A00022FD36C03091720230FD35C024FDEECFD4
:1032B000F4CF2091710223FFF0CF24FDE7CFCDCFD3
:1032C0002091710223FD2AC03091720231FFEECFAE
:1032D00084EE90E008952091710225FDCACF0895F3
:1032E0002091710225FD1DC02091720223FFD5CFD0
:1032F00089E390E008952091710226FD15C008959C
:103300002091710226FD13C0089583EE90E0089588
:1033100082EE90E0089580EE90E0089586EE90E0D1
:10332000089585E390E008958AE290E0089581E3AE
:1033300090E0B3CF9091710292FF10C041E0282F2E
:103340002471243009F040E031E0282F2871283022
:1033500009F030E0431711F02CE0822793FF10C0F2
:1033600041E0282F2471243109F040E031E0282F7A
:103370002871283109F030E0431711F02CE0822742
:103380003091720230FF10C051E0282F217121309E
:1033900009F050E041E0282F2871283009F040E082
:1033A000541711F029E0822731FF10C041E0282F87
:1033B0002171213109F040E031E0282F28712831B6
:1033C00009F030E0431711F029E0822794FD877E51
:1033D000089580E0089508950E94EB1908950895D6
:1033E0000E94EF190895E82FF0E0E858FD4F208182
:1033F00030E081E090E002C0880F991F6A95E2F703
:103400002823392381E0232B09F480E00895E82F55
:10341000F0E0E858FD4F80810895089580EA8A958C
:10342000F1F7089500C008950E940E1A08950E94B1
:10343000FF05A3E7B2E01C92E8E7F2E010821196E4
:103440001C921197118212961C9212971282139657
:103450001C921397138214961C92148285E00E948A
:10346000341A0E94EC1908950895B0E0A0E0EBE34F
:10347000FAE10C94E5356C017B01042FC22F222365
:1034800079F081E080930C020E94392C90930B021A
:1034900080930A0280E0CDB7DEB7E8E00C940136F5
:1034A000D0910C02DD23B1F380910A0290910B02BE
:1034B0000E94512C059770F310E0A801B601C701D6
:1034C0000E941B36892B31F0A801B601C7010E946A
:1034D0002836CD2F10920C028C2FDDCF0E947D2F2D
:1034E0000E943C170E948A2F08950E948F2F0E94ED
:1034F00052170E94A92F08950E94D02B0E94632F7B
:103500000E9408170E946E1A0E94751A0E941C17CA
:10351000FBCF90937F0180937E0108950895A8E0EA
:10352000B0E0E5E9FAE10C94E735603209F03DC01E
:10353000DC011196EC911197EE3008F036C08C0149
:10354000F0E0EB55F54E0C949D35B31AD91AE11AFB
:103550001D1B371B561B721B851BCF1BD41BD51A7B
:10356000D51AD51ADB1B88E0E4E4F1E0DE01119600
:1035700001900D928A95E1F780E2F80111928A9507
:10358000E9F786E0D8018C9311961C921197129658
:103590001C92129713961C92139788E0FE013196A5
:1035A000149601900D928A95E1F72896E6E00C9426
:1035B00003368CE5FD01808381E0818312821382D2
:1035C000F4CFDC0113968C911397682F70E0762F5F
:1035D000662712968C91860F972F911D092E000C4D
:1035E000AA0BBB0B25E0880F991FAA1FBB1F2A95AA
:1035F000D1F7AC01BD01405E5F4F6F4F7F4F481761
:1036000059076A077B0788F28C35E1E09E07A10520
:10361000B10558F64D35F1E05F076105710520F001
:103620004CE551E060E070E0481B590BBC01635D64
:103630007D4FC8010E941236B8CFDC011296FC9073
:1036400012971396EC9040E06E2D8F2D0E94B122C0
:10365000F8019083818341E06E2D8F2D0E94B1226D
:10366000D80112969C93129713968C939ECFFC01CF
:10367000258136813227232732272115FCE73F0792
:1036800041F48091130290911402892B11F430E0DF
:1036900020E041E0D80114968C91811101C040E0F6
:1036A000F801638182810E94E4227FCF40E250E0F2
:1036B0006FEF70E00E94313680911302D8018C9335
:1036C0008091110211968C93119712961C92129769
:1036D00013961C92139714961C92149781E01596DA
:1036E0008C9363CF81E090E090931202809311025B
:1036F00082E390E09093100280930F020E94392C95
:1037000090930E0280930D0250CF80911102909100
:103710001202892B91F160E080E00E94F319E82EFB
:1037200061E080E00E94F319F82E80910D029091E3
:103730000E020E94512C8536910550F1EE2041F188
:10374000FF2031F10E94392C90930E0280930D02DC
:1037500080910F0290911002019790931002809334
:103760000F02892B51F4109212021092110281E083
:1037700090E0909314028093130280911302F80159
:10378000808380911102818380910F0282830DCF0B
:1037900082E390E09093100280930F02EECF10929C
:1037A00014021092130201CF40E250E06FEF70E07C
:1037B0000E943136FACEDC0112968C91129781115B
:1037C000F4CE80E2F80111928A95E9F71C921196E5
:1037D0001C92119712961C92E8CEA6E0B0E0E3EF9F
:1037E000FBE10C94EB3590937E0280937D02811572
:1037F00020E2920730F40E941C0B2696E2E00C9423
:10380000073680EF89838A830E94392C8160682F74
:103810009C838B8349815A817C8181E091E00E9465
:103820008C0CEBCFA6E0B0E0E8E1FCE10C94EB35CA
:1038300090937E0280937D02811520E2920730F4FE
:103840000E94320B2696E2E00C94073680EF8983C3
:103850008A830E94392C8160682F9C838B834981E5
:103860005A817C8181E090E00E948C0CEBCFCF9359
:10387000DF93EC010E94ED1B8FE19EE40197F1F7CD
:1038800000C00000CE010E94121CDF91CF9108956C
:1038900081E00895AB0124E630E0BC0188E70E9496
:1038A000342D21E0892B09F020E0822F0895AB010F
:1038B00024E630E0BC0188E70E94782D21E0892BC6
:1038C00009F020E0822F08950F931F939B0104E6D7
:1038D00010E0AC0160E488E70E94BE2D21E0892B56
:1038E00009F020E0822F1F910F9108950E94002D72
:1038F00008950895EFE7F2E080E092E0DF019C0197
:103900001D9221503040E1F7F0938404E09383044A
:103910008FEF9FEF90934102809340020895CF93E1
:103920000E94791C0E94ED0980933C0280FD11C029
:1039300080E880933B020E94761C6BE070E084EA92
:1039400093E00E94571C811106C0C0E08C2FCF91DC
:10395000089580E2EECF80913C0265E070E081FD49
:1039600027C08FE993E00E94571C882371F36DE014
:1039700070E08DE893E00E94571CC82F882329F33C
:103980000E94452C605A75418F4F9F4F60937F0472
:103990007093800480938104909382040E947A1C27
:1039A00081E080933F0280933E0210923D02CECF91
:1039B0008AE993E0D8CF20913B0236E0839FC00193
:1039C0001124629F800D911D1124811522E0920720
:1039D00014F090E080E081589D4F90938404809390
:1039E0008304089520918304309184042957324040
:1039F00040913B02642F70E0C9010E943435481B9E
:103A0000463010F4240F311D211582E0380710F0E4
:103A100030E020E021583D4F30938404209383040C
:103A200008951F93CF93DF93162F8A3039F481E0E6
:103A30000E948A1DDF91CF911F9108958D3011F45E
:103A400080E0F6CFC0918304D091840496E0FE011B
:103A5000A5E1B2E001900D929A95E1F7803EB8F0B1
:103A600086E0FE0111928A95E9F711111CC0C09100
:103A70008304D091840446E050E0BE0185E192E0E9
:103A80000E941B36892BE9F40E94F21CD3CFF6E08A
:103A90008F9FB001112461557C4F46E050E0CE016C
:103AA0000E941236E2CFE0918304F09184049F01DA
:103AB0002A5F3F4F2E173F07D1F280818095819377
:103AC000F9CFCF57D240CE0125E0969587952A951C
:103AD000E1F721E030E0A90102C0440F551F8A95AB
:103AE000E2F7CA014091400250914102842B952B8C
:103AF000259645E0D695C7954A95E1F702C0220F75
:103B0000331FCA95E2F7822B932B90934102809347
:103B10004002BACFCF93382FE0918304F091840410
:103B2000EF57F24020913B02622F70E0CF010E94DC
:103B30003435281B822F332369F066E00E94283534
:103B4000C82FC15010F4CF91089560E080E20E9428
:103B5000111DF7CF9F01280F311D2115324018F09C
:103B600080E0F0E0E0E08E0F9F2F911D81589D4F87
:103B70009093840480938304E6CFFF920F931F9366
:103B8000CF93DF93EC01F62EFC0101900020E9F7C2
:103B90008F0101501109C017D10728F0CDB7DEB74A
:103BA000E5E00C9404366F2D89910E94111DF3CF2E
:103BB0000E94BD1D81E00E948A1D08951F93CF932E
:103BC000DF93EC01162FFE018491811104C0DF9177
:103BD000CF911F910895612F0E94111D2196F3CF5F
:103BE0000E94DE1D81E00E948A1D089580913F029F
:103BF000811103C080913E0208950E94452C605AB5
:103C000075418F4F9F4F60937F0470938004809322
:103C100081049093820480913E028111EBCF62E097
:103C200070E08BE893E00E94571C882319F381E031
:103C300080933E02DFCFA4E0B0E0E1E2FEE10C942D
:103C4000DB352091400230914102232BF1F090911D
:103C50003F029923D1F090913D02911116C08C83BF
:103C60000E94F61D10E01B8244244394512C03E073
:103C7000E0E2FE2E8091400290914102009729F0EF
:103C8000112351F0FC81F11107C02496E2E10C945C
:103C9000F7352B812F5F2B833B81C32ED12C520113
:103CA00002C0AA0CBB1C3A95E2F7950128233923E0
:103CB000232B79F380913C0280FD3CC08B8182955F
:103CC000880F807680932901960136952795369541
:103CD000279520932C01815E80932A0120932D014A
:103CE00067E070E087E291E00E944A1C882369F255
:103CF000C60155E0880F991F5A95E1F720913C02C3
:103D000020FD26C060E270E081589D4F0E94641C37
:103D1000882309F4BACFC50180959095A090400200
:103D2000B0904102A822B922B0924102A092400272
:103D30001F5FA0CF8B81880F880F880F8093290188
:103D400010922C01895F80932A0100932D01C8CF26
:103D5000ABE1B2E0EF2D1D92EA95E9F72AE531E0FB
:103D60003A83298366E571E0A981BA812D91BA83EE
:103D7000A983FB012190BF01280E392E311CA1011E
:103D800041585D4F1A0130E0255E3D4FF90147E093
:103D9000942EAF01421B530B742C01C0770C4A9533
:103DA000EAF76101812CD601ED906D01E720492DE4
:103DB00048194770642E042E000C550BBE2D01C00F
:103DC000BB0F6A94EAF76B2E5195419551094770E4
:103DD000552701C0E6944A95EAF76E28E0806E28E0
:103DE0006082839448E08412DECF9A9431965FEF2C
:103DF0009512CFCFAEE5B1E0E981FA81AE17BF07EA
:103E000009F0B2CF60E270E08BE192E07FCF809169
:103E10003E0290913F02911103C091E089270895DD
:103E2000882369F062E070E089E893E00E94571C03
:103E3000811103C080913E02089510923E0280914C
:103E40003E02EBCF0E94EF0908950F931F938091DC
:103E50003F02882311F160E080E00E94DB1C0E9499
:103E6000221F80E00E941B1E80913E028823A9F041
:103E70000E94452C00917F041091800420918104C0
:103E800030918204601B710B820B930B6F3F7F4F4D
:103E90008F4F9F4710F40E94071F1F910F910895A5
:103EA000CF939C013457C1E02034310538F4FB0135
:103EB000C581CC2331F00E94AB1FC0E08C2FCF9185
:103EC00008950E94B81FFACF823050F567E0869FB0
:103ED000F0011124E65FFE4F9081A92FA295AF70EB
:103EE000B0E091964C9191979F7021E030E0B9013C
:103EF00002C0660F771F9A95E2F7CB018095842365
:103F000091968C938081E82FE295EF70F0E092A17A
:103F10008F7001C0220F8A95EAF72095292322A3EA
:103F20000895823050F497E0899FF0011124E65FF4
:103F3000FE4F80810E942B07089590E080E0089555
:103F400080914702882331F082E492E00E94DF2AC8
:103F500010924702089581110AC080914202816047
:103F60008093420281E0809347020E94A01F08953F
:103F700081110AC0809142028E7F8093420281E0CB
:103F8000809347020E94A01F08958F929F92AF9244
:103F9000BF92CF92DF92EF92FF92CF93DF93823066
:103FA00008F05EC0C82F0E94911F27E0C29FE00169
:103FB0001124C65FDE4F8B809C80B12CA12C092E72
:103FC000000CAA0BBB0B6C017D01C818D908EA08CC
:103FD000FB08A1E0BEEFA70196010E94D63529811A
:103FE0003A8150E040E0281939094A095B090E94EA
:103FF0007E35121613061406150684F4AFEFB1E0F1
:10400000A70196010E94C8352D813E8150E040E015
:10401000281939094A095B090E947E35DA01C9016C
:1040200081302EEF92072FEFA207B20724F481E030
:104030009EEFAFEFBFEF811522E09207A105B1051A
:1040400024F08FEF91E0A0E0B0E0DF91CF91FF90FE
:10405000EF90DF90CF90BF90AF909F908F9008959A
:1040600090E080E0F2CF80910A018F3F19F080E06C
:104070000E94641F809111018F3F19F081E00E941E
:10408000641F0895823080F4E82FF0E0EE0FFF1FE8
:10409000EE5BFD4F818192818617970729F072832D
:1040A000618381E080934702089580910A018F3FE8
:1040B00039F080E00E94C51FBC0180E00E944220D0
:1040C000809111018F3F39F081E00E94C51FBC0132
:1040D00081E00E9442200E94A01F08950E94332088
:1040E00008950E94552008950E9413170895E9E449
:1040F000F2E088E0DF011D928A95E9F70E94B12184
:104100000895FC0123812150330B237033279281C2
:1041100081E09217130609F080E008950F931F9332
:10412000CF93DF93EC01162F042F0E948120811181
:1041300017C08A81FE01E80FF11D1F776481607846
:10414000612B00FB67F964838F5F83708A838881AA
:104150008F5F888381E0DF91CF911F910F91089548
:1041600080E0F9CFFC01A38182818A17B1F0AE0F04
:10417000BF2FB11D14968C9187FB992790F98F77EB
:10418000DB018C93DA019C9383818F5F837083833F
:1041900081818F5F818381E0089580E00895462FBB
:1041A000682F89E492E00E948E200895AB01BC0143
:1041B00089E492E00E94B2200895AEE0B0E0E3EE20
:1041C000F0E20C94E43580914802882351F010927B
:1041D000480280914B0280934C0280914902809367
:1041E0004A020E94F0210E947420182F882309F4AB
:1041F0004CC010E08CEFF82E93E0E92EDD24D39430
:104200002DEFC22E32E0B32E36C01E858D85882359
:1042100009F440C00E94392C1983CA829C838B8385
:10422000BD82DE8249815A816B817C818D819E8134
:104230000E948C0C8FE19EE40197F1F700C0000012
:104240008D851E85882371F10E94392C1F83C886B5
:104250009A878987BB861C864F81588569857A85B0
:104260008B859C850E948C0C8FE19EE40197F1F771
:1042700000C00000102FBE01635F7F4FCE010E967D
:104280000E94D620082F8111C0CF812F2E96E9E001
:104290000C9400360E94392C1983FA829C838B83FC
:1042A000ED82BFCF0E94392C1F83F8869A878987B9
:1042B000EB86D1CF8FE891E00197F1F700C00000C5
:1042C000089523E9611122E93AB12F7081E090E06D
:1042D00001C0880F2A95EAF7982F909593239AB9F1
:1042E0009BB1892B8BB9089523E9611122E989B12A
:1042F00090E02F7002C0959587952A95E2F781701E
:1043000008950895CF93DF93C0E080915102C817BC
:1043100060F00E945A21C0E080915102C81778F0E5
:104320000E948121DF91CF91089560E08C2F0E943F
:10433000612161E08C2F0E946121CF5FE6CF60E0B8
:104340008C2F0E947421D82F61E08C2F0E94742141
:10435000EC2FF0E0ED5AFD4F880F8D2B8083CF5F5F
:10436000DBCF81E0809351020E94822108951F9348
:10437000CF93DF93E42FEE0F6E2BC82FD0E0DE013A
:10438000AD5ABD4FEC919E2F9370691729F1182FEC
:10439000EE0FEE0FE62BEC93EF70F0E0E25AFE4FDB
:1043A000CE5ADD4F80819881890F8883863024F032
:1043B00060E0812F0E94CF2088818B3F24F461E050
:1043C000812F0E94CF208881082E000C990B66E077
:1043D00070E00E9448358883DF91CF911F91089546
:1043E000CF93DF93C0E080915102C81718F0DF919E
:1043F000CF91089561E08C2F0E947421D82F60E046
:104400008C2F0E9474214D2F682F8C2F0E94B72172
:10441000CF5FE9CF0E940916089580E00E94071A35
:10442000817008950E941D068FE39CE90197F1F7C2
:1044300000C000000E941D060E940D22882321F06A
:104440000E940A220E94862C08950E94122208953A
:1044500081E0089581E008950E942A220895CF9373
:10446000DF93C3B1D0E0D595C795D595C795C095D5
:10447000D0956C2F6170609355029091540269132E
:1044800002C0882381F080E00E94470ABE0161706B
:104490007727072E000C880B990B0E942C22809105
:1044A000550280935402DF91CF91089522982A9A61
:1044B00081E00E942F22089580E00E942F2208951B
:1044C00084E0089520E1629FB001112450E0440F80
:1044D000551F640F751F9B0140E5849F200D311D02
:1044E0001124C901899608950F931F93CF93DF93E9
:1044F0008430C8F46530B8F44830A8F40E946222D1
:104500008C010E943836C82FD0E0DC2FCC27C801A0
:1045100001960E9438369E01282BC901DF91CF9168
:104520001F910F91089590E080E0F8CF0F931F93B3
:10453000CF93DF93843080F4653070F4483060F4BA
:10454000E9010E9462228C016D2F0E9456366C2F69
:10455000C80101960E945636DF91CF911F910F91AD
:104560000895FF920F931F93CF93DF93843048F504
:10457000611127C024E0829F8001112407591E4F3A
:1045800082E090E0442311F090E080E0F42E800F70
:10459000911F0E943836C82FD0E0DC2FCC2783E053
:1045A00090E0FF2011F081E090E0800F911F0E94C9
:1045B00038369E01282BC901CDB7DEB7E5E00C9453
:1045C000043690E080E0F8CF0F931F93CF93DF93F2
:1045D000843000F561111EC094E0899FE001112430
:1045E000C759DE4F82E090E0442311F090E080E074
:1045F000632F022F142F8C0F9D1F0E94563683E0CD
:1046000090E0112311F081E090E0602F8C0F9D1F4E
:104610000E945636DF91CF911F910F910895EF922E
:10462000FF921F93CF93DF93E0901302F090140258
:1046300081E090E09093140280931302C0E0D0E0F8
:1046400011C0412F6D2F8C2F0E94AD0A9C01412F6C
:104650006D2F8C2F0E9496221F5F183091F7DF5F1D
:10466000D53011F010E0EDCF41E060E08C2F0E94DA
:10467000CB0A9C0141E060E08C2F0E94E42240E0E4
:1046800060E08C2F0E94CB0A9C0140E060E08C2F00
:104690000E94E422CF5FC43091F6F0921402E092BF
:1046A0001302DF91CF911F91FF90EF900895EF9249
:1046B000FF920F931F93CF93DF938C01EA017A014E
:1046C000E60EF71EC8018996CE15DF0529F4CDB791
:1046D000DEB7E6E00C940336003421E0120738F42C
:1046E0000E943836888321960F5F1F4FEBCF1882C8
:1046F000FACFB0E0A0E0EFE7F3E20C94DD358034D0
:1047000021E09207F0F420E431E0281B390B261752
:104710003707B8F07A016B018C013C0139E2630E76
:10472000711C80911302909114022801460E571EAD
:10473000892B61F0E801CE0189964C165D0609F0DF
:1047400046C0CDB7DEB7E0E10C94F935D0E0C0E06B
:1047500000FF11C0C80188960E943836F701908189
:1047600089279827892781159C4719F48FEFF7012E
:104770008083C1E0D0E0560140FE13C0F1E0AF1AE3
:10478000B10847018A0C9B1CC3018C0D9D1D0E9422
:104790003836F401908181159C4719F48FEFF401AC
:1047A0008083CE0DDF1D2FEFCE018E199F098A1554
:1047B0009B0508F0BFCF8881998189279827892791
:1047C00081159C4711F4288329832296EDCFC034AC
:1047D00021E0D20740F4FE01E01BF10BEE0DFF1DBE
:1047E00060810E9456362196A6CF843038F4653019
:1047F00028F4483018F40E947422089590E080E074
:104800000895843028F4611103C00E94B1220895F4
:1048100090E080E0089580E1089587E892E00895AF
:10482000EF92FF920F931F93CF93DF938C01EA01D6
:104830007A01E60EF71EC80187589E4FCE15DF0598
:1048400029F4CDB7DEB7E6E00C940336073822E052
:10485000120738F40E943836888321960F5F1F4F65
:10486000EACF1882FACFB0E0A0E0E9E3F4E20C94DA
:10487000E5357C016A018C01060F171FEC01CE01A2
:1048800087589E4FC017D10729F4CDB7DEB7E8E0AF
:104890000C940136C73822E0D20740F4FE01EE192D
:1048A000FF09EC0DFD1D60810E9456362196E7CF71
:1048B000CF93DF93C9E7D1E060E0CE010E94563686
:1048C0002196C11584E0D807B9F7DF91CF910895FB
:1048D000A4E0B0E0EEE6F4E20C94E435F82E2FE02C
:1048E000281708F4A5C08FEF93E00E943836811195
:1048F0009FC009E711E0F11036C019821A821B82AD
:104900001C82BB24BA9478015FEFE51AF50AC8014E
:104910000E94383689831A82882309F489C081303D
:1049200009F07FC0680182E0C80ED11CC7010E9457
:104930003836E82E8A83882309F47AC0C6010E949B
:104940003836F82E8FEF8E0D8330D8F46801E3E00F
:10495000CE0ED11CFB82FF2021F0CE0101960E94D9
:10496000D1288601D0CF011544E0140709F460C0B6
:10497000C8010E943836811101C0FA940F5F1F4FA1
:10498000BACF8BEF8E0D833030F5C8010396FB82D2
:104990006C01FF2031F36801F4E0CF0ED11C0E94BE
:1049A00038368C838823E9F28B819C8181302FEF0C
:1049B000920710F0982F882746E0E41631F057E070
:1049C000E51631F00E94371CCCCF0E94ED1BC9CFF9
:1049D0000E94121CC6CF84E0E812C3CF6801E4E055
:1049E000CE0ED11CC80103960E943836FF2001F17B
:1049F0008823F1F08150990BB89E9001B99E300D3B
:104A000011244F2D4150550BCA01820F931F01975E
:104A100008F4A7CFEFE9FFE03197F1F700C00000FD
:104A2000F6CF65E0CE0101960E946628670199CF16
:104A30002496E9E00C940036282F35EB2303C001BF
:104A4000112497FF04C080589109892F0895805838
:104A50009F4FFBCF80915C0280FF0DC060913301BE
:104A600070E0660F771F6038710580F5611571057C
:104A700079F1862F089581FF07C06091330184E0AA
:104A8000689FB0011124EFCF82FF04C06091330111
:104A900088E0F6CF20915B022223A9F090913201A9
:104AA0006091330188E0689FB00111242917D8F67E
:104AB000269FA001279F500D1124692F70E0CA0185
:104AC0000E944835D0CF68E070E0D3CF8FE70895DB
:104AD00081E0089580915C0280FF0CC060912F01FD
:104AE00070E075956795759567956115710549F144
:104AF000862F089581FF06C060912F0170E07595A3
:104B00006795F3CF60912F0182FD0BC090915A02FF
:104B10009923A1F060912E0180912F01961738F012
:104B2000682F70E06038710500F38FE70895899F62
:104B3000C001112470E00E944835F4CF61E070E0BC
:104B4000D7CF81E0089590915F0291110CC09091B0
:104B50006002911108C090916202911104C090917D
:104B60006102992331F098E090935B0291E0909379
:104B70005A028D3C31F40E942A258195809360026F
:104B800008958E3C19F40E942A25F8CF8F3C31F409
:104B90000E942A25819580935F020895803D19F433
:104BA0000E942A25F8CF893D29F40E946A25809326
:104BB000610208958A3D21F40E946A258195F7CF0C
:104BC0008B3D31F40E946A2581958093620208959D
:104BD0008C3D19F40E946A25F8CF9FE2980F983017
:104BE00070F4815D990B21E030E001C0220F8A95BD
:104BF000EAF780915E02822B80935E0208958D3DDC
:104C000031F480915C02816080935C0208958E3D56
:104C100021F480915C028260F7CF8F3DB9F78091DB
:104C20005C028460F1CF8D3CD9F49091600297FFD3
:104C30001DC01092600280915F02811106C08091B8
:104C40006002811102C010925B02809161028111A9
:104C500006C080916202811102C010925A0208952A
:104C60008E3CD9F49091600219161CF39FE2980FC4
:104C7000983008F03FC0815D990B21E030E0A90138
:104C800002C0440F551F8A95E2F7CA0180959091A2
:104C90005E02892380935E02CECF90915F028F3CAB
:104CA00029F497FFE3CF10925F02C5CF803D19F43E
:104CB0001916CCF3DBCF90916102893D29F41916C6
:104CC000ACF610926102B7CF8A3D19F497FFCECFB0
:104CD000F8CF8B3D39F49091620297FFC7CF1092C5
:104CE0006202A9CF8C3D09F0C1CF909162021916E2
:104CF000B4F3BCCF8D3D31F480915C028E7F809304
:104D00005C0299CF8E3D21F480915C028D7FF7CFBC
:104D10008F3D09F090CF80915C028B7FF0CF0E9495
:104D2000392C20915F02211104C0209160022223BE
:104D300021F0909359028093580220916102211131
:104D400004C020916202222321F0909357028093A5
:104D500056028DE592E00E94D12A089586E0EDE5A5
:104D6000F2E0DF011D928A95E9F710925B02109242
:104D70005A0210925C020895FC01828181110EC0DA
:104D8000838181110BC08481811108C091E08581EC
:104D9000811101C090E0892F8170089581E0FCCFDE
:104DA000A6E0B0E0E6EDF6E20C94EA3586E0EDE54B
:104DB000F2E0DE01119601900D928A95E1F71092D2
:104DC0005F021092600210926102109262028B8167
:104DD000811103C08C81882389F0809158029091C1
:104DE00059020E94512CAC0190915B029923D9F198
:104DF000809134018417150608F442C08D81811119
:104E000003C08E81882391F08091560290915702C1
:104E10000E94512CAC0190915A02992309F46AC066
:104E2000809130018417150608F472C0BE016F5FCF
:104E30007F4F8DE592E00E94652B811105C08DE5C5
:104E400092E00E94BC2681110E948F2686E0FE011E
:104E50003196ADE5B2E001900D928A95E1F7269684
:104E6000E3E00C940636209135018AE0289F9001FA
:104E700011242417350710F69F5F90935B0202C040
:104E80009F3FD1F71B81112359F00E942A259FEFE4
:104E900011160CF491E0899F802D112480935F02FC
:104EA0001C81112359F00E942A259FEF11160CF442
:104EB00091E0899F802D11248093600280915F0290
:104EC000882309F49BCF10916002112309F496CF37
:104ED0000E941C25882351F080935F02812F0E943D
:104EE0001C25882329F08093600288CF81E0F4CFCD
:104EF00081E0F9CF209131018AE0289F90011124AF
:104F00002417350708F092CF9F5F90935A0202C092
:104F10009F3FD1F71D81112359F00E946A259FEF11
:104F200011160CF491E0899F802D11248093610269
:104F30001E81112359F00E946A259FEF11160CF46F
:104F400091E0899F802D11248093620280916102FB
:104F5000882309F46BCF10916202112309F466CF04
:104F60000E941C25882351F080936102812F0E94AA
:104F70001C25882329F08093620258CF81E0F4CF6A
:104F800081E0F9CFB0E0A0E0E8ECF7E20C94E43582
:104F9000E82FF0E0E151F74FB490282F26952695A1
:104FA000269530E0F901E157F64F0491877010E043
:104FB000082E02C0159507950A94E2F70170112793
:104FC000F901E158F64FE490F12C082E02C0F59457
:104FD000E7940A94E2F791E0E922FF24F901E1590C
:104FE000F64FC491D0E002C0D595C7958A95E2F7F7
:104FF000C170DD27C62ED12C0115110549F5E1142C
:10500000F10431F086EE0E94DF0CC601009771F5C5
:10501000B6018B2D0E949B0DC601009779F5E11416
:10502000F104A1F50115110531F081EE0E94530D37
:10503000C6010097C9F5CD2B31F08CE20E94B30D6B
:10504000C114D104C9F5CDB7DEB7E9E00C94003640
:1050500081EE0E94DF0CC601009789F2EFE9FFE0C4
:105060003197F1F700C000000197F6CFEFE9FFE0BC
:105070003197F1F700C000000197C8CFEFE9FFE0DA
:105080003197F1F700C000000197C7CF86EE0E946C
:10509000530DC601009731F2EFE9FFE03197F1F7C8
:1050A00000C000000197F6CFEFE9FFE03197F1F77C
:1050B00000C000000197BDCF8FE99FE00197F1F795
:1050C00000C0000091E0C91AD108BACFEF92FF9258
:1050D0000F931F93CF93DF93EC01162F0AE0888183
:1050E000882309F459C0813009F052C08981813088
:1050F00071F47E0182E0E80EF11C8A810E94B30DFA
:10510000E701812F90E00097D9F52196E8CF823012
:1051100041F47E01E2E0EE0EF11C8A810E94DF0C78
:10512000EFCF833041F47E01F2E0EF0EF11C8A8173
:105130000E94530DE5CF843011F02196E2CF2A81F1
:10514000229690E080E0AE014F5F5F4F2053330B1B
:105150002A30310550F00097A1F2EFE9FFE03197D6
:10516000F1F700C000000197F6CF089FB001099F3A
:10517000700D1124C901860F971F2981EA01E3CF21
:10518000EFE9FFE03197F1F700C000000197BBCFD6
:10519000612F0E94C227B9CFCDB7DEB7E6E00C94ED
:1051A000033665E00E94662808951F93CF93DF932E
:1051B00087372CE7920729F088379C4769F1C1E0CF
:1051C00015C0FB01C581CC23B1F00E9416290E94B5
:1051D000A6100E941C29D82F0E941929C82F0E94AE
:1051E00016294D2F6C2F0E94E111C0E08C2FDF910A
:1051F000CF911F9108950E9416290E94B2100E941B
:105200001C29182F0E941929D82F0E941629412FD6
:105210006D2F0E94E111EACFFB01C581CC2319F06B
:105220000E941929D4CF0E941929E7CF8091380113
:10523000089580913701089580913601089585E29F
:1052400090E00E943836883E89F486E290E00E9421
:105250003836823159F487E290E00E94383691E086
:105260008A3809F090E0892F8170089580E0FCCFA2
:10527000CF93C82F6FEF811168EE85E290E00E9416
:1052800056366FEFC11162E186E290E00E94563619
:105290006FEFC1116AE887E290E00E945636CF9125
:1052A0000895089588E290E00E943836682F70E0F3
:1052B00090E080E008950895CF93C62F0E945B2967
:1052C0006C2F88E290E00E945636CF91089580E0DE
:1052D0000E94382960E070E0CB010E945C290E94A6
:1052E0000F230E94582481E00E94382908950E94CB
:1052F00051290E9452290E945B290E941F29811175
:1053000002C00E94672908959C01FB0185818823C2
:1053100051F0A90157574038510530F4C9010E9496
:10532000682480E0089581E008952FEFFC01208338
:105330000895EF92FF920F931F93CF93DF93EC01A9
:10534000162F88812091110230911202232B79F0BF
:105350008E3F09F06BC08981833020F08550833007
:1053600008F064C0612FCE010E948F1A5FC08B309D
:1053700009F4E1C0D0F4843009F486C060F48230CE
:1053800009F446C008F073C08130F1F1612FCE01FD
:105390000E9495294BC0863009F489C008F47CC06E
:1053A0008A30A0F78FEF888341C0803109F49BC019
:1053B00000F58D3009F482C008F47CC08E3009F409
:1053C00081C08F3019F78091130290911402892BBC
:1053D00069F189819A819827892798276B8170E0E4
:1053E0006D31710518F5AE014C5F5F4F0E9433249B
:1053F0001DC0823109F47DC008F478C0833109F4FE
:1054000089C08E3F19F6AECF198289E08A830EC01B
:1054100089818230A1F08330A9F0813009F0B6CFC4
:105420000E94452C9A838B837C836D83612FCE01F0
:105430000E944C2ECDB7DEB7E6E00C9403360E94F6
:105440005229F0CF8091130290911402892B71F3AD
:105450007E0122E0E20EF11C00E0802F0E94071A7C
:10546000F70181937F010F5F0530B9F7DFCF8981A5
:10547000823009F08BCF6A817B818C819D810E9473
:10548000A3350E945C29D2CF4B816A8189810E9419
:1054900074229C838D83CACF2C813D8132272327A0
:1054A00032274B816A8189810E949622BFCF0E9458
:1054B0000F23BCCF0E940B248983B8CF0E940D24F8
:1054C0009983A4CF89819A819827892798276B810E
:1054D00070E06D31710508F0A9CFAE014C5F5F4FF0
:1054E0000E941024A3CF0E945824A0CF0E946022C3
:1054F000E3CF89819A819827892798276B8170E06B
:105500006D31710508F092CFAE014C5F5F4F0E9484
:1055100057238CCF89819A819827892798276B8177
:1055200070E06D31710508F081CFAE014C5F5F4FC7
:105530000E9479237BCF8091130290911402892BD2
:1055400009F474CFCE010E944C2EFFEF21EE84E0CF
:10555000F15020408040E1F700C000000E94862CFE
:1055600065CF90936402809363020895E091630293
:10557000F0916402309729F00190F081E02D0995B7
:10558000089580E008950E94B62A0895E09163028C
:10559000F0916402309721F00280F381E02D0995AB
:1055A0000895E0916302F0916402309739F022E0AF
:1055B000DC012C930680F781E02D09950895A6E083
:1055C000B0E0E5EEFAE20C94EB3520916302309105
:1055D0006402232B89F0FC0187E089838181928119
:1055E0009B838A83838194819D838C8380818E8336
:1055F000CE0101960E945C2F2696E2E00C940736BD
:10560000E0912501F0912601329697E080E09150DB
:1056100009F4089521912223D1F38F5FF8CF8823D5
:1056200071F02091250130912601F9013296285F11
:105630003F4F9191981729F0E217F307D1F780E0D7
:10564000089581E008959C01FC0132969FEF80E06F
:105650004191461751F09F3F19F4411101C0982F15
:105660008F5F8630A9F79F3F09F40895290F311DF8
:1056700097FD3A95F90162830895FC0132960896E8
:105680002191261303C0DF0111971C92E817F90737
:10569000B9F70895682F80912501909126010E9405
:1056A000232B0895682F80912501909126010E9457
:1056B0003D2B0895E0912501F0912601329686E078
:1056C000DF011D928A95E9F70895DC01FB0111962F
:1056D0009C9111978181981322C012968C911297F8
:1056E000882319F0928189131AC013968C9113970D
:1056F000882319F09381891312C015968C91159700
:10570000882319F0958189130AC014969C919923D6
:1057100021F081E02481291303C080E001C081E0F1
:105720008170089508950E94922B0895811106C0FA
:1057300081E0809365020E94932B089582E0F9CF67
:1057400083E0809365020E94932B08950E94962B1C
:10575000089581E0809365020E94932B08950E9432
:10576000A92B0895089508950E94B32B08950895D4
:1057700008950E94B22B0895CF930E94B72B0E94E8
:105780001D060E94B82BC0E08C2F0E94071A8111C1
:1057900005C0CF5FC530C1F7CF91089581E0FCCF40
:1057A00085B7806885BF85B7806885BF08951F92DB
:1057B0000F920FB60F9211248F939F93AF93BF93C5
:1057C00080916602811113C08091850490918604B6
:1057D000A0918704B09188044196A11DB11D8093CA
:1057E000850490938604A0938704B0938804BF91A6
:1057F000AF919F918F910F900FBE0F901F901895B2
:1058000080918D04843031F10E942E0C109266023A
:1058100088E190E020E40FB6F894A89580936000AA
:105820000FBE2093600083B7817F846083BF83B7FE
:10583000816083BF7894889583B78E7F83BF0FB6CE
:10584000F894A89580916000886180936000109220
:1058500060000FBE08950E942F100E94350C08951D
:1058600082E084BD93E095BD9AEF97BD80936E0072
:1058700008952FB7F8948091850490918604A091A3
:105880008704B09188042FBF08952FB7F8946091D2
:1058900085047091860480918704909188042FBFBD
:1058A00008959C014FB7F8948091850490918604E7
:1058B000A0918704B09188044FBF821B930B089579
:1058C00078941F920F920FB60F9211248F939F938B
:1058D000AF93BF938091850490918604A091870433
:1058E000B09188040196A11DB11D80938504909309
:1058F0008604A0938704B0938804BF91AF919F91D1
:105900008F910F900FBE0F901F90189581E080939C
:10591000E00080E28093D8001092C9008FE19EE4FD
:105920000197F1F700C0000087E090EBDC01809365
:10593000960490939704A0939804B093990488E1F7
:105940009CE00FB6F894A895809360000FBE9093EA
:105950006000FFCF88E19CE00FB6F894A895809393
:1059600060000FBE90936000FFCFEF92FF920F9305
:105970001F93CF93DF93182FEB011092BC0084EAA2
:105980008093BC000E94392C7C018091BC0087FF71
:105990000DC08091B900887F8830A9F08091B9004E
:1059A000887F803181F08FEF9FEF08C0C7010E9490
:1059B000512CC817D90748F78EEF9FEFCDB7DEB748
:1059C000E6E00C9403361093BB0084E88093BC009F
:1059D0000E94392C8C018091BC0087FF0AC0809105
:1059E000B900887F883111F08034E9F690E080E0DA
:1059F000E5CFC8010E94512CC817D90760F7DCCF4A
:105A00001092B9008CE08093B80008950F931F9313
:105A1000CF93DF93EB018093BB0084E88093BC00BD
:105A20000E94392C8C018091BC0087FF11C020910D
:105A3000B900287F81E090E0283211F490E080E006
:105A4000919581959109DF91CF911F910F910895C3
:105A5000CF3FDC0741F3C8010E94512CC817D9077A
:105A600010F78EEF9FEFEFCFB0E0A0E0EAE3FDE2AA
:105A70000C94E035782E5B016A0189010E94392C73
:105A80004C01C1E0D0E00431110558F0C5E0D0E090
:105A90000F3F100731F0C80164E170E00E94343517
:105AA000EB01BE01872D0E94B52C7C0197FF09C038
:105AB0000F3F1007B1F3C4010E94512C08171907BA
:105AC00080F7E501CA0CDB1CCC15DD0511F0F7FEF3
:105AD00009C084E98093BC00C701CDB7DEB7EDE013
