:100000000C94EA050C9422060C9422060C94220609
:100010000C9422060C9422060C9422060C942206C0
:100020000C9422060C9422060C948A130C94251925
:100030000C94B3260C9422060C9422060C942206EF
:100040000C9422060C9422060C9422060C94220690
:100050000C9422060C9462140C9422060C94220632
:100060000C9422060C9422060C9422060C94220670
:100070000C9422060C9422060C9422060C94220660
:100080000C9422060C9422060C9422060C94220650
:100090000C9422060C9422060C9422060C94220640
:1000A0000C9422060C9422060C94220605010902E7
:1000B000A10185020901A1000509190129081500FE
:1000C0002501950875018102050109300931158165
:1000D000257F95027508810609381581257F9501D0
:1000E00075088106050C0A38021581257F95017572
:1000F000088106C0C00660FF0961A1010962150000
:1001000026FF009520750881020963150026FF006F
:10011000952075089102C005010906A1010507197E
:10012000E029E71500250195087501810295017503
:100130000881010507190029FF150026FF00950613
:100140007508810005081901290515002501950587
:1001500075019102950175039101C0616263646547
:10016000666768696A6B6C6D6E6F707172737475B7
:10017000767778797A3132333435363738393052C8
:100180004542545F2D3D5B5D5C233B27602C2E2F49
:1001900000DA0281FFD9F1DB20A4A62EAF00A0C0B7
:1001A000D30000A1C8D30000AED580A81F408D1495
:1001B0002000FD377A585A000004E6D6B446020003
:1001C000210116000000742FE5A3E0078E01CD5D2C
:1001D000003D8889A654750A36E182AEFA7A1AA6DD
:1001E000FCA2ED4954B48A5E7177BBD05FB821B5EB
:1001F0009A6DEC0545EFCE6A71C023FEA9DB302F66
:100200007EF37E4BD3DE168165ED3864402735EEF4
:10021000C25E716E65A90B93730FE5807891E2D58C
:1002200031997B268DC1C996BC1DBD0090DC793605
:1002300040338D6608B0F71F0DFB5C512FA78DC4AE
:100240003FF3B144D1C0002FB4AE88C1B4817B76F6
:10025000663457078F879F6608F00EBEEC814434E2
:100260007225907F9C74DCAB835E4F538991E1E8EB
:10027000DACD5B0EF90AC5B02F5CE668E91E266A86
:10028000FEEED26059DE887047450B740647703D1C
:100290008553CA8EEF52A3693ED65057CD45DB8EAB
:1002A000152B4A3BEC82E898057C06EA934DDB115E
:1002B0008885FB537FE163AD0E079163EA91C585A5
:1002C0007659336E48CE412D1954D2904C03CE95B9
:1002D0002B6AA51D9EAAB6D50839D515A4C3645AA4
:1002E000E28BA1D49AEAD9B2054505EEE160051288
:1002F0006C0EE92C4890CBAECF08C94261863A2BF0
:10030000B6BCF70046B8C8AF79F19081D2448634C4
:1003100023C6352A87F38013A9ED678FCC68E50AD9
:10032000DD09FE23FB3FEC501CE767444586F4954E
:10033000EFAD1D30769E94152FED12F66A2EE2BBBE
:10034000C8E9E0C39B0F805B4052E910B624AB6163
:10035000566D91431847BC6F3529C390B5A0B17C49
:1003600029E6605ED5F8E68AF5A90E454D6E874709
:10037000C10CA34C410660809F3D1D38DE5EA7483E
:100380000CEF0DFAA3990EE39EAD02534882C131E2
:10039000A1267B3834BBB346132BF8192800000084
:1003A0000000988F21C73518AE400001E9038F0F78
:1003B00000001705D80BB1C467FB02000000000461
:1003C000595A00AF00AE556E646566003372640022
:1003D000326E640031737400307468004C415945CA
:1003E0005200000400050006000700140015001666
:1003F000001700080009000A000B0018001900008F
:100400000000000C000D000E000F000000000000B6
:100410000000001000110012001300000000000096
:100420000000001A001B001C00000000000000007B
:100430000000000400050006000700140015001667
:10044000001700080009000A000B0018001900003E
:100450000000000C000D000E000F00000000000066
:100460000000001000110012001300000000000046
:100470000000001A001B001C00000000000000002B
:100480000000000400050006000700140015001617
:10049000001700080009000A000B001800190000EE
:1004A0000000000C000D000E000F00000000000016
:1004B00000000010001100120013000000000000F6
:1004C0000000001A001B001C0000000000000000DB
:1004D00000000004000500060007001400150016C7
:1004E000001700080009000A000B0018001900009E
:1004F0000000000C000D000E000F000000000000C6
:1005000000000010001100120013000000000000A5
:100510000000001A001B001C00000000000000008A
:100520000000001F001E00210020002300220025E3
:1005300000240009025B00030100A0FA0904000086
:1005400001030101000921110100012244000705F6
:1005500081030800010904010002030000000921D1
:100560001101000122220007058203200001070576
:100570000303200001090402000103000000092117
:100580001101000122490007058403200001120126
:100590000002000000083839343201000102030172
:1005A0001C037600690061006C003A0066003600AA
:1005B00034006300320062003300630000000C036B
:1005C00067006200630032003400000012036B0019
:1005D00075007300680069006D006100380000005C
:1005E00004030904000000000000000000000000F7
:1005F00000000000000000000000000000000000FB
:1006000000000000000000007E0F00D4FFFFFFC7C5
:100610000000007800000000000000002A2B2800E5
:1006200000000000000000000000000000000029A1
:10063000000000002C1E3420212224342627252EE1
:10064000362D3738271E1F20212223242526333319
:10065000362E37381F0405060708090A0B0C0D0E45
:100660000F101112131415161718191A1B1C1D2F11
:100670003130232D350405060708090A0B0C0D0E31
:100680000F101112131415161718191A1B1C1D2FF1
:100690003130354C07087F0807003E5B4F5B3E005A
:1006A0003E6B4F6B3E001C3E7C3E1C00183C7E3C6B
:1006B00018001C577D571C001C5E7F5E1C00001834
:1006C0003C180000FFE7C3E7FF00001824180000F3
:1006D000FFE7DBE7FF0030483A060E0026297929BC
:1006E0002600407F05050700407F05253F005A3C56
:1006F000E73C5A007F3E1C1C0800081C1C3E7F0083
:1007000014227F2214005F5F005F5F0006097F01F3
:100710007F00006689956A0060606060600094A256
:10072000FFA2940008047E04080010207E20100020
:1007300008082A1C0800081C2A0808001E101010AF
:1007400010000C1E0C1E0C0030383E383000060E17
:100750003E0E060000000000000000005F000000E8
:10076000000700070000147F147F1400242A7F2A4A
:100770001200231308646200364956205000000816
:1007800007030000001C224100000041221C000061
:100790002A1C7F1C2A0008083E08080000807030D0
:1007A0000000080808080800000060600000201031
:1007B000080402003E5149453E0000427F400000CF
:1007C0007249494946002141494D33001814127FAE
:1007D00010002745454539003C4A4949310041212F
:1007E00011090700364949493600464949291E0082
:1007F0000000140000000040340000000008142233
:1008000041001414141414000041221408000201C1
:10081000590906003E415D594E007C1211127C00C0
:100820007F49494936003E41414122007F414141D3
:100830003E007F49494941007F09090901003E41C5
:10084000415173007F0808087F0000417F4100008C
:100850002040413F01007F08142241007F4040407A
:1008600040007F021C027F007F0408107F003E4191
:1008700041413E007F09090906003E4151215E00C9
:100880007F091929460026494949320003017F01A1
:1008900003003F4040403F001F2040201F003F40DA
:1008A00038403F0063140814630003047804030015
:1008B0006159494D4300007F414141000204081045
:1008C0002000004141417F00040201020400404039
:1008D00040404000000307080000205454784000C6
:1008E0007F2844443800384444442800384444288D
:1008F0007F0038545454180000087E09020018A4E0
:10090000A49C78007F080404780000447D40000027
:100910002040403D00007F102844000000417F40FF
:1009200000007C04780478007C08040478003844D3
:1009300044443800FC182424180018242418FC000F
:100940007C080404080048545454240004043F4420
:1009500024003C4040207C001C2040201C003C40E7
:1009600030403C004428102844004C9090907C007B
:100970004464544C440000083641000000007700F5
:1009800000000041360800000201020402003C267B
:1009900023263C00000000000000404040F0F8F832
:1009A000FF38FFF8F83FF8F8FF38FFF8F8F040405C
:1009B0004000000000000080C0C0C0800000C0C037
:1009C0008000000080C0C000C0C0000080C0C00027
:1009D00000000000C0C0C0C0C000C0C000000000D7
:1009E0000000000000000000000000000000000007
:1009F00000000000000000000000000000000000F7
:100A000000000000000000000000000000000000E6
:100A1000000000C0F0F8FC3E1E06010000007F410F
:100A200041417F007F4141417F000080C0E07E5B0B
:100A30004F5BFEC00000C000DCD7DEDEDED7DC008E
:100A4000C0000000000000000000000000000000E6
:100A500000000000000000000000494949FFFFFFBE
:100A6000FFE0DFBFBF00BFBFDFE0FFFFFFFF49497F
:100A70004900000000001F3F6060E0BF1F007F7F53
:100A8000071E381E077F7F007F7F0E1F3B716000AF
:100A9000000000007F7F0C0C0C007E7E007F7E0338
:100AA00003007F7E03037E7E03037F7E000F3E7084
:100AB0003C063C703E0F00327B49493F7E007F7E02
:100AC0000303001E3F69696F26000000000000005C
:100AD000000000030F1F3F3C7870600000007F4162
:100AE00041417F007F4141417F00307B7F78302052
:100AF0002030787F3B0003000F7F0F0F0F7F0F0028
:100B000003000000000000000000000000000000E2
:100B100000000000000000000000010101070F0FAD
:100B20007F0F7F0F0F7E0F0F7F0F7F0F0F070101CA
:100B300001000000000000000000000101000000B2
:100B400000000000000000000000000000000000A5
:100B50000000000000000000000000000000000095
:100B60000000000000000000000000000000000085
:100B70000000000000000000000000000000000075
:100B80000000000000000000000000000000000065
:100B90000000000000000000000000000000000055
:100BA0000000000000000000000000000000000045
:100BB0000000000000000000000000000000000035
:100BC0000000000000000000000000000000000025
:100BD0000000000011241FBECFEFDAE0DEBFCDBF62
:100BE00004B603FE18C08091940590919505A091DC
:100BF0009605B09197058730904BA740B04B59F4BC
:100C000010929405109295051092960510929705F2
:100C1000E0E0F8E3099511E0A0E0B1E0E2ECF3E6F2
:100C200002C005900D92A237B107D9F725E0A2E7DF
:100C3000B1E001C01D92A439B207E1F70E94DC26A1
:100C40000C94DF310C940000482F20918503909183
:100C50003C0359E0291302C080E0089530E0529F20
:100C6000F001539FF00D1124E35CFC4F8181681368
:100C700006C08081481303C085818111EECF2F5FAC
:100C80003F4F2770E7CFE8EDF0E080818E7F8083D3
:100C90001092E2001092DA001092E100A0EEB0E0B3
:100CA0008C9181608C9380818F77808319BCA7EDB4
:100CB000B0E08C918E7F8C9380818F7E80831092A8
:100CC000240308952091E4003091E50085E6909199
:100CD000EC0090FF06C09091E80090FF06C080E015
:100CE00008959091E80092FDFACF909132039923F4
:100CF00091F0953091F09091EB0095FD10C04091EE
:100D0000E4005091E5002417350709F381509A015A
:100D1000F1F684E0089582E0089583E0089581E08B
:100D200008958091340387FF13C08091E80082FF0B
:100D300006C08091E8008B778093E80004C0809122
:100D400032038111F2CF0895809132038823D9F3C1
:100D50008091E80080FFF8CF8091E8008E77ECCF9B
:100D6000982F9093E900242F762F50E0891731F0C7
:100D70007091EC002091ED005091F00021FD07C032
:100D80009F5F973071F78093E90081E0089530917B
:100D9000EB003E7F3093EB003091ED003D7F3093D0
:100DA000ED003091EB0031603093EB007093EC007C
:100DB0002093ED005093F0002091EE0027FDE0CF4E
:100DC00080E00895B0E0A0E0E8EEF6E00C94F830A2
:100DD000C8EDD0E088818F7E8883E7EDF0E08081E8
:100DE0008160808384E082BF81E0809324038881D6
:100DF0008E7F888302EE10E0F80110821092DA00F4
:100E000081EEC82ED12CF601108288818F778883DD
:100E100088818068888388818F7D888319BC10923F
:100E2000320310923303109231031092300390EE8C
:100E3000E92EF12CF70180818B7F8083888181608E
:100E4000888342E060E080E00E94B006F601808185
:100E50008E7F8083F80180818160808380818860BB
:100E60008083F70180818E7F808388818061888381
:100E7000CDB7DEB7E8E00C941431FC0180913A0361
:100E800090913B0386179707A0F06115710529F42F
:100E90009091E8009E779093E80090E061157105CD
:100EA00051F4911108C08091E80082FF35C080E0C4
:100EB0000895BC01F2CF809132038823C9F18530B7
:100EC000C9F18091E80083FD31C08091E80082FD86
:100ED000EACF8091E80080FFE1CF2091F30080917C
:100EE000F200322F282F6115710519F028303105D5
:100EF00058F091E02830310509F090E02091E800A9
:100F00002E772093E800CACF81918093F100615041
:100F100071092F5F3F4FE7CF80913203882341F063
:100F2000853041F08091E80083FFBDCF81E00895D6
:100F300082E0089583E0089508950895809127033D
:100F400008952FB7F8946091200370912103809148
:100F50002203909123032FBF0895DC01FB0111961A
:100F60009C9111978181981322C012968C911297AF
:100F7000882319F0928189131AC013968C911397C4
:100F8000882319F09381891312C015968C911597B7
:100F9000882319F0958189130AC014969C9199238E
:100FA00021F081E02481291303C080E001C081E0A9
:100FB00081700895E4E7F1E09281891301C0128203
:100FC000319691E0EA37F907B9F70895A6E7B1E05D
:100FD000EFEF90E02D91821751F0EF3F19F42111BE
:100FE00001C0E92F9F5F9630A9F7EF3F09F40895FC
:100FF0000E2E000CFF0BEC58FE4F82830895E091FB
:101000001D03F0911E03309739F022E0DC012C9390
:101010000680F781E02D09950895E0911D03F09178
:101020001E03309729F00190F081E02D0995089575
:1010300080E008958091120380FD16C081FD16C0E6
:1010400082FD16C0809111038823A1F0883280F4BC
:1010500028E0829FC001112468E270E00E94AA315A
:10106000862F672B39F0089582E0089584E0089573
:1010700088E0089581E008958091120380FD14C0F6
:1010800081FD14C082FD16C080911003882381F079
:101090008E3180F420E5829FC00111246EE170E062
:1010A0000E94AA31862F089584E1089588E2089568
:1010B00088E0089580E50895282F35EB2303C001CB
:1010C000112497FF04C080589109892F08958058F2
:1010D0009F4FFBCFBC0140910A0380910B03942FDB
:1010E000891301C00895292F30E0F901EE0FFF1F89
:1010F000EE5FFC4F0190F081E02DE617F70799F4C1
:1011000087E0869FF001879FF00D1124EF59FD4F76
:1011100081E084839413E6CF2F5F3F4F2370332702
:1011200020930A0308952F5F3F4F922F9370D8CFDB
:1011300010925E0210925D02E1E6F2E0858181117B
:1011400002C014821682379682E0E939F807B1F7B7
:10115000089523E9611122E989B190E02F7002C05E
:10116000959587952A95E2F78170089523E9611195
:1011700022E93AB12F7081E090E001C0880F2A95F2
:10118000EAF7982F909593239AB99BB1892B8BB945
:10119000089590915702E92FF0E0209158022150D4
:1011A000330B23703327E217F307A9F0E75AFD4FFB
:1011B000282F2F7780818078822B60FB87F98083AE
:1011C0009F5F937090935702809155028F5F809339
:1011D000550281E0089580E0089580E0089581152A
:1011E00022E5920780F5811530E5930708F0A3C04A
:1011F000883E9105A0F4803E910558F4853A91050A
:1012000048F48430910528F48130910511F090E084
:1012100080E008958D3C9105D0F390650895811587
:1012200040E4940708F043C0811550E2950708F0A8
:101230009BC0811521E0920750F320E0392FA901CE
:10124000482BCA010895803832E59307A0F4803610
:1012500042E5940708F056C0803452E59507F0F552
:10126000803222E5920730F18F7190E0982F882725
:10127000816F906A0895803C32E5930760F4282FCF
:101280002F71803A924508F44FC0822F90E0982F3A
:10129000882790620895803E52E5950708F0B7CF01
:1012A000982F882788279F71806F906A08959F7074
:1012B000906A0895282F2695269550E2259F900143
:1012C0001124482F437081E090E002C0880F991FDD
:1012D0004A95E2F7822B932B9D680895982F93707F
:1012E00021E030E002C0220F331F9A95E2F73C68FC
:1012F00086958695877040E2849FC0011124822BD9
:10130000932B0895982F937021E030E002C0220FB4
:10131000331F9A95E2F73A6886958695877050E272
:10132000859FC0011124EBCF822F90E0982F882752
:10133000846F906A08959C0195E0369527959A955B
:10134000E1F72F7030E0322F2227482F4F7150E005
:1013500084FF05C084E0440F551F8A95E1F7C90159
:101360009069842B952B0895292F2F7199279062CE
:10137000922B08958091AC01882331F01092AC013A
:101380001092AB011092AA010895982F9095809128
:10139000250389238093250308951092A1011092BB
:1013A000A00110929F01089590919E01292F28235A
:1013B00021F08095892380939E0108958091850373
:1013C00090913C03981301C008958F5F8770FACF06
:1013D000A82FA77023E0969587952A95E1F7FC0141
:1013E000EE0FFF1FE80FF91FE60FF71F50E040E078
:1013F00080E0219130E00A2E02C0369527950A94AC
:10140000E2F721703327042E01C0220F0A94EAF775
:10141000822B4F5F5F4F4330510559F70895903F3E
:10142000B9F0953070F4883060F448E0949F9001F2
:10143000112466E871E0820F932F911D0E94E80944
:1014400008959C5F923020F463E871E090E0F6CF5D
:1014500080E00895262F277091E001C0990F2A950A
:10146000EAF723E0769567952A95E1F7FB01EE0F01
:10147000FF1FE60FF71FE40FF51F50E040E0682F55
:1014800070E08191DF0111979B01042E02C0369517
:1014900027950A94E2F721702195282729232827E8
:1014A0002C934F5F5F4F4330510559F70895282F14
:1014B000903F89F0862F622F953070F4283060F4C9
:1014C00048E0949F90011124620F732F711D46E82C
:1014D00051E00E942A0A08959C5F9230E0F770E084
:1014E00043E851E0F6CF80932C02089590912C02AE
:1014F00021E030E0F90101C0EE0F8A95EAF7D90149
:1015000002C0AA0FBB1F6A95E2F7EA2B01C0220FA7
:101510004A95EAF7892F8E23E81305C0292B822FDD
:101520000E94730A089520952923F9CF21E030E025
:1015300001C0220F8A95EAF7209580912C02822320
:101540000E94730A08959091A10180958923809348
:10155000A101282F277069F4891759F09091B601DD
:1015600092FF07C08695869586950E94960A0E94EE
:10157000CD09089521E030E001C0220F8A95EAF7F5
:1015800080912C02822B0E94730A08958093B401EB
:101590000895982F92959F7020E011F0892F24E0F4
:1015A000982F9695969511F02E5F892F982F9695E6
:1015B00009F02F5F822F08959C013A9521153F4134
:1015C00050F5FC01EE27F170BC0166277270AC018A
:1015D000442754709C012227387094FF0EC080E08D
:1015E000EF2B09F080E1672B09F08062452B09F0B1
:1015F0008064232B89F08068089581E0EF2B09F443
:1016000080E0672B09F08260452B09F08460232B72
:1016100019F08860089580E00895CF93C82F8091D5
:1016200017018C1751F00E94A10760931801709365
:10163000190180931A0190931B01C0931701CF9158
:101640000895EF92FF920F931F93CF93DF938C0136
:10165000EB01DC01ED91FC91222309F45FC0409184
:101660001C01411101C044E04150550B81E090E064
:101670007C01042E02C0EE0CFF1C0A94E2F7CF019D
:10168000B7010E94AA319B01CB01042E02C0880F32
:10169000991F0A94E2F7E81BF90BD8011196FC9305
:1016A000EE931296ED91FC91CF01B7010E94AA3101
:1016B000CB0102C0880F991F4A95E2F7E81BF90B8E
:1016C000D8011396FC93EE9312972138BFEF3B0796
:1016D000CCF020383105C4F421952D836138EFEF2B
:1016E0007E07A4F0603871059CF461956C8380914D
:1016F0001D01882379F0813079F0CDB7DEB7E6E0BF
:101700000C94163121E8E8CF2FE7E6CF61E8EDCF62
:101710006FE7EBCF1D82F1CF1C82EFCFE1382FEFC7
:10172000F207BCF0E038F105B4F4E195EA83D801A2
:1017300012968D919C918138BFEF9B0774F0803891
:1017400091056CF48B83F80111821082138212824E
:10175000D4CFE1E8EACFEFE7E8CF81E8F3CF8FE736
:10176000F1CF9C01860F971F37FD07C077FD04C09E
:1017700097FF02C08FEF9FE7089577FFFDCF97FD9A
:10178000FBCF80E090E80895E82FE295EF70F0E05D
:1017900031A1282F2F7081E090E001C0880F2A9599
:1017A000EAF7932F982B91A392A18095892382A386
:1017B0000895E82FE295EF70F0E031A1282F2F7007
:1017C00081E090E001C0880F2A95EAF7982F909564
:1017D000932391A392A1892B82A3089520E430E062
:1017E00043E060E087EF0E94B42E08950F931F93AB
:1017F000CF93DF938B01EA0190913203943061F52E
:101800008093E9008FEF9091E800815095FD06C02C
:1018100095ED9A95F1F700008111F5CF8091E800E0
:1018200085FF1AC00E946206811111C08091E800F4
:1018300085FD06C08091E8008E778093E800F2CFA6
:10184000F80181918F018093F100219779F78091C0
:10185000E8008E778093E800DF91CF911F910F9180
:10186000089546E050E0BC0184E00E94F60B089524
:10187000CF93DF93EC0148E050E0BC0181E00E948F
:10188000F60B88E0FE01A8E2B3E001900D928A9584
:10189000E1F7DF91CF91089581E08093E00080E24D
:1018A0008093D8001092C9008FE19EE40197F1F770
:1018B00000C0000087E090EBDC01809394059093DA
:1018C0009505A0939605B093970588E19CE00FB627
:1018D000F894A895809360000FBE90936000FFCFAE
:1018E000CF93C82F0E94EE0B8C2F0E942D2F8FE7D5
:1018F00092E00197F1F700C000000E94452FC82F29
:1019000095E09A95F1F700000E945D2F85E68A9593
:10191000F1F70000109291058C2FCF910895CF938D
:10192000DF93D82FC62F0E94EE0B8D2F80680E9468
:101930002D2F8C2F0E942D2F8AEB8A95F1F700C056
:101940000E945D2F83E492E00197F1F700C0000050
:10195000DF91CF910895682F843208F063E260939D
:10196000150191E09093160190910901992339F0A6
:101970006150811101C064E08FE00E948F0C0895D6
:1019800090911501911101C095E0282F880F330B1C
:10199000A901490F511DCA011816190614F081E05A
:1019A00090E00E94AB0C0895ACE0B0E0EAEDFCE002
:1019B0000C94F8304F83588769877A878B879C8788
:1019C00080910901882309F446C080919105811115
:1019D00007C060E080E50E948F0C81E08093910554
:1019E0000E94EE0B80E50E942D2F8AEB8A95F1F77D
:1019F00000C00E94452F0E94452F0E94452F7C0168
:101A00000E94452F20E0E22AF82A0E94452F8C01EF
:101A10000E94452F20E0022B182B0E945D2F85E0AD
:101A20008A95F1F70000F894B70180910D0190912B
:101A30000E010E94B10B90930E0180930D01B8012D
:101A400080910F01909110010E94B10B90931001B1
:101A500080930F0178940E94A10700917F0110915B
:101A6000800120918101309182016B017C01C01ABB
:101A7000D10AE20AF30A970186010830110521050F
:101A8000310508F449C060937F0170938001809311
:101A90008101909382010091180110911901209108
:101AA0001A0130911B01601B710B820B930B623387
:101AB00071058105910580F410920E0110920D01BF
:101AC0001092100110920F01109212011092110148
:101AD00010921401109213012091170141E0BE01F0
:101AE000695F7F4F8DE091E00E94210B20911701EB
:101AF00080910901282740E0BE01695F7F4F81E1A5
:101B000091E00E94210B86E0FE013796A2E2B1E04F
:101B100001900D928A95E1F786E0FE013796DE018D
:101B2000119601900D928A95E1F729813A814B81B6
:101B30005C816D817E8180E090E02C96E8E00C94E1
:101B40001431CF936DEC71E084ED91E00E94AD070C
:101B5000C82F882321F084ED91E00E94FF07909127
:101B6000D50186E0E4EDF1E0DF01282F1D922A95F2
:101B7000E9F79093D501ADECB1E001900D928A9513
:101B8000E1F781E0C11103C0911101C080E08170D3
:101B9000CF910895A6E3B0E0E0EDFDE00C94FE30B7
:101BA0004091D4015091D5016091D6017091D70137
:101BB0008091D8019091D9010E94D40C2093D40136
:101BC0003093D5014093D6015093D7016093D8014B
:101BD0007093D90186E0E4EDF1E0DE0159960190C1
:101BE0000D928A95E1F786E0FE017996DE011D9659
:101BF00001900D928A95E1F786E0FE013D96DE01A7
:101C0000539601900D928A95E1F786E0FE01739656
:101C1000A4EDB1E001900D928A95E1F786E0E4ED44
:101C2000F1E0DE019B9601900D928A95E1F786E046
:101C3000FE01BB96DE01179601900D928A95E1F7A1
:101C400086E0FE013796DE01119601900D928A958D
:101C5000E1F786E0FE013196DE015F9601900D927C
:101C60008A95E1F786E0FE017F96DE019596019068
:101C70000D928A95E1F786E0FE01B596A4EDB1E0FC
:101C800001900D928A95E1F786E0E7E1F3E0DE014D
:101C9000D19601900D928A95E1F78091D5019AA98C
:101CA000892B8093D5010E94A10D811109C08091DB
:101CB000D3011092D3018170E696E2E00C941A31C0
:101CC00081E090E0F6CFCF93DF93682F81E06A3018
:101CD00019F06D3031F480E00E94F20EDF91CF9167
:101CE000089580918F059091900526E0FC01A9E868
:101CF000B5E001900D922A95E1F7603E08F459C0D5
:101D000026E0FC0111922A95E9F7C0918F05D09148
:101D1000900546E050E0BE0189E895E00E94CB3195
:101D2000892B59F1CE01895893409C0145E03695A5
:101D300027954A95E1F741E050E0BA0102C0660FED
:101D4000771F2A95E2F79B016091870370918803C2
:101D5000262B372B059665E0969587956A95E1F7D2
:101D6000FA0102C0EE0FFF1F8A95E2F7CF01822B26
:101D7000932B90938803809387039E0123583340CD
:101D800040918603642F70E0C9010E94DA30481B3D
:101D9000463010F4240F311D2115F2E03F0710F0FA
:101DA00030E020E027573C4F3093900520938F057B
:101DB00095CFF6E06F9FB00111246C56794F46E045
:101DC00050E00E942531A1CFCF93DF93EC01FE01BB
:101DD0008491811103C0DF91CF9108950E94630E19
:101DE0002196F5CFCF93382FE0918F05F091900594
:101DF000E958F34020918603622F70E0CF010E94E2
:101E0000DA30281B822F332361F066E00E949E3176
:101E1000C82FC15010F4CF91089580E20E94630E44
:101E2000F8CF9F01280F311D2115324018F080E0B6
:101E3000F0E0E0E08E0F9F2F911D87579C4F90930D
:101E4000900580938F05E7CF0E94E40E81E00E9409
:101E5000F20E0895CF93C82F6FEF81116FE185E2E5
:101E600090E00E9462316FEFC11165E286E290E07E
:101E70000E9462316FEFC11167E287E290E00E9439
:101E80006231CF910895CF93DF93C9ECD1E060E048
:101E9000CE010E9462312196C11584E0D807B9F7BE
:101EA000DF91CF9108950F931F93CF93DF938430E9
:101EB00000F561111EC094E0899FE0011124C7590B
:101EC000DE4F82E090E0442311F090E080E0632F49
:101ED000022F142F8C0F9D1F0E94623183E090E02F
:101EE000112311F081E090E0602F8C0F9D1F0E9464
:101EF0006231DF91CF911F910F9108951F93CF937E
:101F0000DF93C62F8430E8F46530D8F44830C8F445
:101F1000632F122F90E1C99FE001112450E0440F7C
:101F2000551FC40FD51F90E5899FC00DD11D1124E9
:101F3000CE0189960E946231612FCE018A960E945D
:101F40006231DF91CF911F91089585E290E00E9468
:101F50003E318F3189F486E290E00E943E31853235
:101F600059F487E290E00E943E3191E0873209F017
:101F700090E0892F8170089580E0FCCFFF920F934D
:101F80001F93CF93DF93843048F5611127C024E07D
:101F9000829F8001112407591E4F82E090E0442364
:101FA00011F090E080E0F42E800F911F0E943E31EE
:101FB000C82FD0E0DC2FCC2783E090E0FF2011F089
:101FC00081E090E0800F911F0E943E319E01282BFE
:101FD000C901CDB7DEB7E5E00C94173190E080E0A1
:101FE000F8CF0F931F93CF93DF93843030F5653094
:101FF00020F5483010F520E1629FE001112450E007
:10200000440F551FC40FD51F30E5839FC00DD11D50
:102010001124CE0189960E943E31082F10E0102F26
:102020000027CE018A960E943E319801282BC901D3
:10203000DF91CF911F910F91089590E080E0F8CF4C
:10204000462F2091CB013091CC01232BD1F4703F4E
:1020500039F4603FB1F48091DA019091DB01089589
:10206000672F753038F4483060F4843050F40E94A3
:10207000F10F08957D3F41F4411103C041E08430E8
:1020800048F090E080E008957C3FD9F74111F9CF06
:102090008430B8F760E00E94BE0F0895CF92DF92BF
:1020A000FF920F931F93CF93DF936C0100912C024B
:1020B0008091B401082BC3E0D0E010E0FC2EC801F1
:1020C0000C2E02C0959587950A94E2F780FD0CC00E
:1020D0002197A0F7F12C8F2DDF91CF911F910F91B8
:1020E000FF90DF90CF900895B6018C2F0E942010B2
:1020F0000E94EF08019761F3EECFCF93DF93EC01DD
:102100000E944E10BE010E9420100E94EF08DF9135
:10211000CF910895FC0124812223F1F087819085DD
:10212000009789F00E94EF0892959F709630B1F069
:1021300078F49250923080F4803F19F058F4883E41
:1021400058F481E00895808191810E947D10ECCF48
:102150009A50F0CF843FA9F380E00895883E88F339
:10216000813FD1F7EECFA6E0B0E0E9EBF0E10C94CF
:10217000FD30FC01878190850097E9F4CF0126E0CE
:10218000DE01119601900D922A95E1F7FC0125815F
:1021900089819A81222399F0662389F00E944E104A
:1021A000182F682F89819A810E94570A69817A8144
:1021B000812F0E9420102696E3E00C9419310E9492
:1021C0000F0A182FF3CFAAE0B0E0E9EEF0E10C948B
:1021D000F23080900E0390900F0381E090E0909396
:1021E0000F0380930E0393E2E92E95E0F92EB12CB4
:1021F000A12C712C6501612C1AC0F801EC0DFD1D9C
:10220000EE0FFF1FED51FC4F25913491402F662DAD
:10221000872D0E947E0F0F5F1F4F0830110569F751
:1022200088E0C80ED11C639495E0691619F010E09F
:1022300000E0E3CFF7012591349141E060E0872D84
:102240000E94530FF70132962591349140E060E0EF
:10225000872D0E94530FE4E0EE0EF11C7394F8E218
:10226000AF0EB11C84E07812C5CFFE0131967F011C
:102270008AE011928A95E9F709E711E04AE050E017
:10228000B801C7010E948631065F1F4F093CF1E08B
:102290001F07A1F790920F0380920E032A96EEE09B
:1022A0000C940E3180E00E942A0F60E088E290E0FA
:1022B0000E9462310E94E3100E94430F81E00E945D
:1022C0002A0F0895AB0124E630E0BC0188E70E94A4
:1022D0004A3021E0892B09F020E0822F0895809177
:1022E000530290915402911103C091E089270895FF
:1022F000882369F062E070E084EC93E00E94621150
:10230000811103C08091530208951092530280916D
:102310005302EBCFCF93C091530280915402882394
:10232000D1F00E94A107605A75418F4F9F4F609373
:102330004F02709350028093510290935202C11148
:1023400008C062E070E082EC93E00E9462118111AB
:1023500005C0C09153028C2FCF91089581E08093E6
:102360005302F7CFB0E0A0E0E8EBF1E10C94F230DB
:1023700080915402882309F405C189E893E0909381
:10238000900580938F0582EE93E00E94240F8CEDE0
:1023900093E00E94240F80912C020E94C90A813090
:1023A000D9F148F08230D9F18330E1F186EC93E045
:1023B0000E94E40E04C088ED93E00E94240F8091F7
:1023C000870390918803892B09F4C3C0809154023C
:1023D000882309F4BEC080914E028111BAC00E94C8
:1023E0008A1120918703309188032115310509F462
:1023F000B0C080E041E050E0082F10E03A01082E24
:1024000002C0660C771C0A94E2F7B30162237323BF
:10241000672B59F48F5FF0CF84ED93E0CECF80ED42
:1024200093E0CBCF8CEC93E0C8CF90914D0290FF1E
:10243000AEC0880F880F880F80933B0110923E0139
:10244000895F80933C0183E080933F0124E630E084
:1024500047E050E069E371E088E70E940630892B8D
:1024600009F077C0A80185E0440F551F8A95E1F770
:1024700080914D0280FF9DC0EDE2F2E080E2DF013D
:102480001D928A95E9F7AFE5B1E00BE511E08824EC
:1024900083942D91E80169918E01640F752F711D50
:1024A00067577C4F30E0235D3D4FF90197E07F0196
:1024B000E21AF30A982C01C0990CEA94EAF77B011E
:1024C000B12CE70189917E018921A92EAB18DA2D63
:1024D000D770CD2E0D2E000CDD08C82F01C0CC0FFB
:1024E000DA95EAF7AC2ED194C194D108D7E0CD2289
:1024F000DD240C2C01C086950A94EAF7DC2ED82A3C
:1025000080818D298083B39488E0B812DACF91500E
:1025100031969F3F61F6C1E0A336BC0709F0B9CF01
:1025200004E610E020E230E04DE252E060E488E7AB
:102530000E949030892B69F4E301C095D095809179
:10254000870390918803C823D923D0938803C0932D
:102550008703809153028823A9F00E94A10700916C
:102560004F02109150022091510230915202601B93
:10257000710B820B930B6F3F7F4F8F4F9F4710F470
:102580000E946F11CDB7DEB7EEE00C940E3182954C
:10259000880F807680933B01980136952795369574
:1025A000279520933E01815E80933C0120933F015B
:1025B0004DCF47575C4F04E610E020E230E0B6CF45
:1025C000AAE0B0E0E6EEF2E10C94F830ECEDF1E0D8
:1025D00080E5DF011D928A95E9F7E1E6F2E088E304
:1025E000DF011D928A95E9F78CEDC82E81E0D82E87
:1025F0007F0109E711E0F701D182C0824AE050E093
:10260000B801CE0101960E942E3188E0FE0131967C
:10261000D60101900D928A95E1F789859A85D701B7
:1026200013969C938E931297BAE0CB0ED11CE7E0E1
:10263000EE0EF11C065F1F4F093CF1E01F07D9F6B3
:102640002A96E8E00C9414319091B60192FB22276F
:1026500020F9281779F080FB92F99093B6016091E8
:10266000B5017091B60184E090E00E94803182E073
:102670000E94A30A089590E080E00E944C31863EBB
:102680009E4F19F40E94A50F089580E00895CF93FE
:10269000DF930E94AC2E879A0E94EE0B6AE58AE3D4
:1026A0000E948F0C2FEF80E792E0215080409040F5
:1026B000E1F700C0000082E00E94700C83E00E94FD
:1026C000700C84E00E94700C85E00E94700C86E023
:1026D0000E94700C60E080E10E948F0C80E00E94FC
:1026E000700CD82F81E00E94700CC82F0E945D2FC3
:1026F000D23419F481E0C13009F080E08170809318
:102700000901882321F064E08FE00E948F0CDF91A3
:10271000CF9108951F920F920FB60F9211242F930D
:102720003F934F935F936F937F938F939F93AF9359
:10273000BF93EF93FF938091E10082FF09C08091E6
:10274000E20082FF05C08091E1008B7F8093E10071
:102750008091DA0080FF24C08091D80080FF20C0E3
:102760008091DA008E7F8093DA008091D90080FF1B
:102770009BC080E189BD82E189BD09B400FEFDCF27
:1027800081E08093320380912403811109C00E946B
:1027900043060E94E2068091E20084608093E2009A
:1027A0008091E10080FF17C08091E20080FF13C09C
:1027B0008091E2008E7F8093E2008091E200806150
:1027C0008093E2008091D80080628093D80019BC89
:1027D00085E0809332038091E10084FF29C08091DD
:1027E000E20084FF25C080E189BD82E189BD09B492
:1027F00000FEFDCF8091D8008F7D8093D80080911E
:10280000E1008F7E8093E1008091E2008F7E8093D3
:10281000E2008091E20081608093E20080913303C6
:10282000882309F447C084E0809332038091320307
:102830008091E10083FF27C08091E20083FF23C0E5
:102840008091E100877F8093E10082E080933203F2
:10285000109233038091E1008E7F8093E10080919C
:10286000E2008E7F8093E2008091E200806180939D
:10287000E20042E060E080E00E94B0068091F0005B
:1028800088608093F000FF91EF91BF91AF919F918D
:102890008F917F916F915F914F913F912F910F9009
:1028A0000FBE0F901F90189519BC10923203109212
:1028B000240376CF8091E30087FD02C081E0B4CF8E
:1028C00083E0B2CF78941F920F920FB60F9211242B
:1028D0008F939F93AF93BF93809120039091210397
:1028E000A0912203B09123030196A11DB11D8093F5
:1028F000200390932103A0932203B0932303BF915D
:10290000AF919F918F910F900FBE0F901F901895D0
:102910009C014FB7F8948091200390912103A091DE
:102920002203B09123034FBF821B930B08952FB74F
:10293000F8948091200390912103A0912203B091FB
:1029400023032FBF08950E9497142091190321118A
:1029500004C020911A03222321F090931603809340
:10296000150320911B03211104C020911C03222375
:1029700021F0909314038093130387E193E00E9466
:10298000FF07089590911903662309F480C09111FF
:102990000CC090911A03911108C090911C039111E1
:1029A00004C090911B03992331F098E09093100399
:1029B00091E0909311038D3C41F40E943C08819575
:1029C00080931A030E94A31408958E3C19F40E9468
:1029D0003C08F6CF8F3C31F40E943C0881958093EF
:1029E0001903F0CF803D19F40E943C08F8CF893DCF
:1029F00029F40E941A0880931B03E4CF8A3D21F436
:102A00000E941A088195F7CF8B3D31F40E941A0875
:102A1000819580931C03D6CF8C3D19F40E941A082F
:102A2000F8CF2FE2280F2830E8F4815D990B41E0C0
:102A300050E001C0440F8A95EAF780911803842B77
:102A40008093180381E090E0AC0102C0440F551F51
:102A50002A95E2F78091D501842B8093D5010E94BD
:102A6000A10D08958D3D31F4809112038160809312
:102A70001203A8CF8E3D21F4809112038260F7CF1C
:102A80008F3D09F08AC0809112038460F0CF4FE23D
:102A9000480F8D3C41F590911A0397FF2AC0109280
:102AA0001A0380911903811106C080911A038111C4
:102AB00002C01092100380911B03811106C0809107
:102AC0001C03811102C010921103483008F07ACF24
:102AD00081E090E001C0880F4A95EAF780959091D7
:102AE000D5018923BACF8E3CC9F490911A031916E7
:102AF000B4F2483008F03CC0815D990B21E030E031
:102B0000B90102C0660F771F8A95E2F7CB01809565
:102B100090911803892380931803C3CF8F3C29F425
:102B200097FFE7CF10921903BCCF803D19F4191617
:102B3000CCF3DFCF90911B03893D29F41916CCF615
:102B400010921B03AECF8A3D19F497FFD2CFF8CF76
:102B50008B3D39F490911C0397FFCBCF10921C034F
:102B6000A0CF8C3D31F690911C031916BCF3C1CF58
:102B70008D3D31F4809112038E7F8093120391CFAB
:102B80008E3D21F4809112038D7FF7CF8F3D09F0A8
:102B900088CF809112038B7FF0CF283008F452CF7A
:102BA00011CF9091AC01292F282361F080958923C2
:102BB0008093AC01882339F00E9497149093AB0165
:102BC0008093AA01089590E080E0F8CFCF93C09160
:102BD000250380915F02C82B8091AC018823C9F046
:102BE0000E9497142091AA013091AB01821B930B94
:102BF0008838934110F00E94BA098091AC01C82B2B
:102C0000E6E7F1E097E080E0915031F581110E9414
:102C1000BA09C093740148E050E062EA71E084E7C9
:102C200091E00E94CB31892BA9F088E0E4E7F1E044
:102C3000A2EAB1E001900D928A95E1F7E0911D03BF
:102C4000F0911E03309731F00280F381E02D84E78C
:102C500091E00995CF91089521912223A9F28F5FE8
:102C6000D3CFCF93C6E0E6E7F1E0DF018C2F1D92D2
:102C70008A95E9F710925F020E94E615E7E1F3E01A
:102C8000DF011D92CA95E9F710921003109211030B
:102C9000109212030E94A314CF910895AAE2B0E00B
:102CA000E4E5F6E10C94FD30E4E3F3E08091F1001B
:102CB000819383E0EC33F807C9F7809135038330C3
:102CC00009F47FC008F5813009F456C0823009F458
:102CD000C2C08091E80083FFFCC0809134039091D2
:102CE00035039A3008F0F5C0E92FF0E0E658F94EC8
:102CF0000C94BE313C176217691762176917BA172F
:102D0000DC176917E618F3188A3009F493C08B3082
:102D100009F474C08930E9F6809134038132C9F630
:102D20008091380390913903009711F0029789F64A
:102D30008091E800877F8093E8008091E80082FF1F
:102D40003BC08091F3009091F20089279827892752
:102D5000029731F48091F100813011F0863021F436
:102D60008091F100809327038091E8008B77809316
:102D7000E8000E949106ADCF80913403813A09F0BA
:102D8000A8CF8091E800877F8093E8008091380386
:102D900090913903892B61F060E090E080E070E071
:102DA0000E943D078091E8008B778093E80091CFE7
:102DB00068E088E293E0F3CF809132038111BDCFC8
:102DC00088CF80913403813A09F083CF8091380312
:102DD00090913903892B09F07CCF8091E800877F9F
:102DE0008093E8008091E80080FFFCCF8091410152
:102DF0008093F1008091E8008E77B9CF8091340301
:102E0000813209F066CF8091380390913903892B84
:102E100009F05FCF8091E800877F8093E8000E94EF
:102E200091068091360380934101109225030E9400
:102E300031164FCF80913403813209F04ACF80910F
:102E4000E800877F8093E8000E9491068091370315
:102E5000809326033ECF80913403813A09F039CF25
:102E60008091E800877F8093E8008091E80080FFF0
:102E7000FCCF80912603BCCF803889F0823849F599
:102E8000809138038F70873020F58093E90080911E
:102E9000EB0085FB882780F91092E90006C080913D
:102EA000300390913103911182609091E800977FF7
:102EB0009093E8008093F1001092F1008091E80077
:102EC0008E7727C0282F2D7F21F48823A1F0823010
:102ED00029F18091E80083FF0AC08091E800877F94
:102EE0008093E8008091EB0080628093EB00AA96CB
:102EF000E3E00C94193180913603813051F793301F
:102F000009F080E0809331031092E9008091E8009D
:102F1000877F8093E8000E949106DBCF8091360383
:102F20008111F2CF809138038F702FEF280F263058
:102F300080F68093E9002091EB0020FFE5CF9330ED
:102F400031F48091EB0080628093EB00DDCF9091B3
:102F5000EB0090619093EB0021E030E001C0220F84
:102F60008A95EAF72093EA001092EA008091EB003C
:102F70008860EACF8111ADCF109136031F77809121
:102F8000E3008078812B8093E3008091E800877FC5
:102F90008093E8000E9491068091E80080FFFCCFBA
:102FA0008091E30080688093E30083E0111101C009
:102FB00082E0809332038DCF8058823008F089CF31
:102FC00020913603309137032C3DA3E03A07A1F559
:102FD00083E08A838AE289834FB7F894DE011396EF
:102FE00020E03EE051E2E32FF0E050935700E491FF
:102FF00020FF03C0E295EF703F5FEF708E2F90E0EF
:10300000EA30C0F0C7968D939D932F5F243159F716
:103010004FBF8091E800877F8093E8006AE270E00C
:10302000CE0101960E943D078091E8008B77809346
:10303000E8004FCFC096E7CF8091380390913903D5
:10304000432F55274330510509F44FC078F54130DF
:10305000510509F445C08BE590E0E3E3F5E042302B
:10306000510509F036CF2091E800277F2093E80032
:1030700020913A0330913B038217930708F49C0197
:1030800040E02115310509F06EC041116CC08091FE
:10309000E80082FDC9CF80913203882329F2853070
:1030A00019F28091E80083FFF2CFBECF4132510583
:1030B00009F44AC04232510509F00BCF8330910523
:1030C00008F007CFFC01EE0FFF1FEA59FE4F0190F9
:1030D000F081E02D8D599E4FDC018C9190E020C055
:1030E00082E190E0EEE8F5E0BECF332721303105F4
:1030F000D9F078F022303105F9F02330310509F0AC
:10310000E8CEE0EAF5E0E4918E2F90E0E0EAF5E029
:1031100007C0E0EEF5E0E4918E2F90E0E0EEF5E000
:10312000009709F4D6CE9FCFECECF5E0E4918E2F1A
:1031300090E0ECECF5E0F4CFEEEBF5E0E4918E2FCF
:1031400090E0EEEBF5E0ECCF8330910508F0C1CED6
:10315000880F991FFC01E459FE4F0190F081E02D8A
:1031600089E090E080CF80913203882309F45CCF1E
:10317000853009F459CF8091E80083FD55CF8091C7
:10318000E80082FD84CF8091E80080FF7ACF8091B3
:10319000F3009091F200892798278927211531059E
:1031A00019F08830910550F041E0089709F040E0AF
:1031B0008091E8008E778093E80063CF449140933C
:1031C000F1003196215031090196E8CF803809F09D
:1031D00080CE8091E800877F8093E8008091330360
:1031E0008093F1006BCE811174CE109136031230B2
:1031F00008F06FCE8091E800877F8093E8001093FD
:1032000033030E9491061123D1F084E080933203AE
:1032100042E061EC81E00E94B00642E261EC84E0B1
:103220000E94B00642E261EC82E00E94B00642E2F7
:1032300060EC83E00E94B006809132034ACE809118
:10324000E30087FDE2CF81E0E1CF1F920F920FB63E
:103250000F9211242F933F934F935F936F937F931C
:103260008F939F93AF93BF93CF93EF93FF93C091AF
:10327000E900CF708091EC001092E9008091F0009D
:10328000877F8093F00078940E944E161092E90098
:103290008091F00088608093F000C093E900FF9176
:1032A000EF91CF91BF91AF919F918F917F916F914E
:1032B0005F914F913F912F910F900FBE0F901F90F4
:1032C0001895109225030E9431162FEF84E39CE09D
:1032D000215080409040E1F700C0000088E19CE070
:1032E0000FB6F894A895809360000FBE909360008D
:1032F000FFCF882341F0809590915F0289238093CE
:103300005F020E94E6150895882339F090915F02CC
:10331000892B80935F020E94E6150895882321F08F
:103320000E94C5090E94E6150895882339F09091FE
:103330002503892B809325030E94E6150895882391
:1033400009F444C0823879F40E940D0881FF3EC020
:1033500089E30E94E6070E94E61589E30E94DA07E6
:103360000E94E6150895833859F40E940D0880FFE5
:103370002DC083E50E94E6070E94E61583E5EECFA7
:10338000843859F40E940D0882FF20C087E40E940F
:10339000E6070E94E61587E4E1CF9CEF980F913A8B
:1033A000E8F290E2980F983050F4877091E001C0F5
:1033B000990F8A95EAF7892F0E94C509D1CF93E327
:1033C000980F933118F460E00E94C2140895CF93CF
:1033D0008823D1F0C82F8238C9F40E940D0881FDDE
:1033E00013C089E30E94E6070E94E6152FEF87EEDF
:1033F00093E0215080409040E1F700C0000089E355
:103400000E94DA070E94E615CF9108958338A1F44F
:103410000E940D0880FDF8CF83E50E94E6070E9418
:10342000E6152FEF81EE94E0215080409040E1F7C7
:1034300000C0000083E5E4CF8438A1F40E940D08A9
:1034400082FDE2CF87E40E94E6070E94E6152FEF97
:1034500081EE94E0215080409040E1F700C00000F0
:1034600087E4CECF8CEF8C0F813A70F4E6E7F1E081
:103470008CE791E02191C21711F18E179F07D1F7C8
:103480008C2F0E94E607BECF80E28C0F883068F454
:10349000C77021E030E001C0220FCA95EAF78091A1
:1034A0002503822B80932503ADCF83E38C0F8331DB
:1034B00008F0AACF61E08C2F0E94C214A5CF8C2FF8
:1034C0000E94DA070E94E615DBCF1F93CF93DF93AC
:1034D000182FEB010E94E719209739F4812F0E94E1
:1034E0009F19DF91CF911F9108958FE99FE0019778
:1034F000F1F700C000002197EFCFB0E0A0E0E3E8D3
:10350000FAE10C94F630EC018AE0A82E28812223FF
:1035100009F4CEC0213009F04FC089818130A9F46F
:103520008E010E5F1F4F8A8160E570E0893311F0D4
:1035300065E070E00E94651AE8018FE19EE4019762
:10354000F1F700C000002196E1CF823039F48E01FE
:103550000E5F1F4F8A810E94E719EECF833039F446
:103560008E010E5F1F4F8A810E949F19E5CF843024
:1035700011F02196E2CF2A81229690E080E0AE0100
:103580004F5F5F4F2053330B2A30310550F00097C7
:10359000A1F2EFE9FFE03197F1F700C000000197D9
:1035A000F6CFA89EB001A99E700D1124C901860F07
:1035B000971F2981EA01E3CFE22FF0E0EC5EF94F9B
:1035C000B490822F86958695869590E0FC01EC5FFD
:1035D000F94FE4902770F12C022E02C0F594E79485
:1035E0000A94E2F7E1E0EE22FF24FC01EC50FA4FEE
:1035F000C490D12C022E02C0D594C7940A94E2F74D
:10360000F1E0CF22DD24FC01EC51FA4F049110E0EF
:1036100002C0159507952A95E2F701701127E1146C
:10362000F10449F081EE0E94E7198FE19EE40197D1
:10363000F1F700C00000C114D10449F086EE0E94E9
:10364000E719EFE1FEE43197F1F700C0000065E013
:1036500070E08B2D0E94651A8FE19EE40197F1F7CF
:1036600000C00000C114D10449F086EE0E949F19E9
:10367000EFE1FEE43197F1F700C00000E114F1043E
:1036800049F081EE0E949F198FE19EE40197F1F7C6
:1036900000C000000115110509F455CF65E070E088
:1036A0008CE20E94651AEFE1FEE43197F1F749CF11
:1036B000CDB7DEB7EAE00C9412319091B60192FFDB
:1036C00010C098E0899F90011124622B6093A101A2
:1036D0000E94BA0A0E9497149093A00180939F01C0
:1036E00008950E94BA0A0895AEE1B0E0EAE7FBE16E
:1036F0000C94EE304B8B5C8B6D8B7E8B8F8B988F0D
:10370000911110925F02188A198A1A8A86E0FE01C6
:103710007396DE011A9601900D928A95E1F78091D9
:10372000B60182FF24C00E94971420919F0130911E
:10373000A001821B930B8838934158F18091A1011D
:1037400082FB882780F991E0892780FF03C082E00F
:103750000E94A30A0E9497142091AA013091AB0104
:10376000821B930B8838934110F00E94BA098E8512
:10377000811111C00A851B852C853D854E855F858D
:10378000688979898A890E9457246E96E2E10C94AF
:103790000A3180E0DACF61E0CE010A960E94B310D0
:1037A0006C018F8540E5C4164CE7D40651F488239C
:1037B000F1F081E08093400181E090E080FDDACF7C
:1037C000E4CF61E5C6166CE7D60629F4882379F0C4
:1037D0000E941B25F1CF72E5C7167CE7D70639F4A6
:1037E000882329F080914001882319F3F1CF81E6E5
:1037F000E82E82E0F82E512CB12CA12C8824839441
:10380000912CCE0101969A8F898F44244394F7011D
:103810004081518166246A94762C20E0822F90E0CA
:10382000FC01EE0FFF1FE40FF51F60817181611530
:10383000710539F0C616D70609F0C3012F5F3C01A8
:10384000EDCF10E0FFEF6F167F0609F443C0F701DC
:10385000448110914001812F411180E0182F117097
:10386000F701358086819F85992309F4F5C01123DE
:1038700009F4F2C0311014C0A401062C01C0440F99
:103880000A94EAF7842B868380915D0290915E0210
:10389000C29730F462E370E070935E0260935D0261
:1038A000C40102C0880F991F2A95E2F70197F7011A
:1038B00026812817190671F480910C0390910D034D
:1038C000009709F44AC00E948814C39708F445C0C1
:1038D000F7014482512AFFEFAF1ABF0A27E0E20E38
:1038E000F11C38E0A316B10409F091CF8F8588232D
:1038F00009F412C1552009F40FC10E949714909346
:103900000D0380930C0380919902883010F591E0AB
:10391000980F9093990299E0FE013A96DE01119674
:1039200001900D929A95E1F74DE0849FC00111241A
:1039300086569D4F29E0FE013196DC0101900D92E3
:103940002A95E1F72FEF3FEFFC0132872187D486DC
:10395000C38681E05826852D31CF80910A0350918E
:103960000B03982FF0E0E0E0851314C090930A0356
:10397000EE15FF0509F4AECF90E0FC01EE0FFF1F3E
:10398000EE5FFC4FB182A0820196837099278093ED
:103990000B03A0CF682E712CF301EE0FFF1FEE5F1B
:1039A000FC4F20813181F7E0F29FD001F39FB00DF1
:1039B0001124AF59BD4F2D913C9111973E8F2D8F02
:1039C00040E020E030E0E32FF0E0EE0FFF1F6D8DD0
:1039D0007E8DE60FF71F2080318021143104E1F045
:1039E000F7010190F081E02DFC8FEB8F20E005C006
:1039F0002616370609F4412F2F5FE22FF0E0EE0F75
:103A0000FF1F6B8D7C8DE60FF71F60817181611543
:103A1000710571F73F5FD7CF4423D9F0FD0123171C
:103A200008F4F7014482EE16FF0621F490930A038E
:103A3000142F50CF981307C0AE17BF0721F4C3014E
:103A40000196982F937093012F5F3F4F822F8370C1
:103A50008BCFF0E0E0E0F7CF90E0311020C0B40170
:103A600002C0660F771F2A95E2F79B0121503109AA
:103A70002817390731F4442309F44CC0C5010E94CA
:103A80006A08C401062C01C0880F0A94EAF7982F2F
:103A90009095F701868189238683132D1BCFAC0176
:103AA000062C02C0559547950A94E2F7BA01617059
:103AB00077279C012150310982239323892B31F5EB
:103AC000672B21F1F70182819381892BE1F0E98D48
:103AD000FA8D27E011922A95E9F70E949714282F72
:103AE0008B839C8334E03D83F70182819381782F1F
:103AF0008887998709811A813C8144E05E816F81C2
:103B0000892F0E945724F7011582BBCFF42FF17043
:103B10003F2EB7CF312EB5CF90910A0380910B0382
:103B2000981719F00E942A2514CF0E94C2241092DF
:103B30000D0310920C030E9498080BCFA6E0B0E092
:103B4000E4EAFDE10C94FC308C019093DB0180935E
:103B5000DA01011580E21807C0F4802F0E949F1936
:103B6000C8010E94DC0A9801205E31092830310525
:103B700018F00115110531F40E948E192696E4E023
:103B80000C9418310E947919F9CF80EF89838A83C8
:103B90000E9497148160682F9C838B8349815A818E
:103BA0007C8181E090E00E94741BE8CFA6E0B0E049
:103BB000ECEDFDE10C94FC308C019093DB018093E3
:103BC000DA01011580E21807C0F4C8010E94DC0A7E
:103BD0009801205E31092830310518F001151105D2
:103BE00049F40E949519802F0E94E7192696E4E077
:103BF0000C9418310E948419F6CF80EF89838A8350
:103C00000E9497148160682F9C838B8349815A811D
:103C10007C8181E091E00E94741BE8CFA4E0B0E0D9
:103C2000E4E1FEE10C94F530DC0114962C912223A2
:103C300009F4A3C16C0161E00E94B3108C01F6018C
:103C40008581882309F4B9C0C80197578038910548
:103C500008F0B3C0F02EFFE0F01708F47FC18FEF3B
:103C600093E00E943E31811179C109EC11E0F1101D
:103C700036C019821A821B821C8299249A94780178
:103C80004FEFE41AF40AC8010E943E3189831A8278
:103C9000882309F463C1813009F089C0580152E0DA
:103CA000A50EB11CC7010E943E31E82E8A838823ED
:103CB00009F454C1C5010E943E31F82E8FEF8E0DDC
:103CC0008330D8F4580183E0A80EB11CFB82FF209A
:103CD00021F0CE0101960E947D1A8501D0CF0115F9
:103CE00024E0120709F43AC1C8010E943E31811153
:103CF00001C0FA940F5F1F4FBACF8BEF8E0D833048
:103D000070F5C8010396FB825C01FF2031F3580176
:103D1000A4E0AA0EB11C0E943E318C838823E9F2F4
:103D20000B811C810130BFEF1B0710F0102F002703
:103D3000E6E0EE1681F0F7E0EF1649F0C8010E94C8
:103D4000D61D8FE19EE40197F1F700C00000C80185
:103D50000E949E1DC2CFC8010E94D61DBECF94E016
:103D6000E912BBCF5801A4E0AA0EB11CC80103960A
:103D70000E943E31FF2009F4F1C0882309F4EEC00F
:103D80008150990B989E9001999E300D1124EF2D32
:103D9000E150FF0BCF01820F931F019708F49DCFD5
:103DA000AFE9BFE01197F1F700C00000F6CFCE01F8
:103DB00001960E947D1A570190CF10931F01009326
:103DC0001E01F60180819181909321018093200151
:103DD000F8013497E533F105B0F4E55AFE4FE4916C
:103DE000D60115968C9120EB882311F02E2FE0EB55
:103DF000A8E2B1E090E080E03D913E131DC0875FF6
:103E00009E4FFC01278FD60115968C9198013A950B
:103E100021153F41B0F4882309F448C30737FCE774
:103E20001F0709F4F3C008372CE7120789F4882329
:103E300009F446C382E0EDC0019686309105E1F6B3
:103E4000E2CF0730EEE71E0709F066C00E940D0BB7
:103E5000D60115968C91882381F00330BCE71B07AF
:103E600009F400C108F0E1C00115FCE71F0709F4DF
:103E7000EAC001301C4709F4FBC0D60117968D91AA
:103E80009C91009709F402C10E94EF088C01D601B1
:103E90001596BC9015971696EC90E2942FE0E222CE
:103EA0008091A101877001F1AB2CBB20F1F0812F33
:103EB000807F803461F080E2800F8830A8F0812F0D
:103EC000807E803221F4023078F0EE2069F080911B
:103ED000B60182FF09C082E00E94A30A8091A1017D
:103EE0008770AA24A3948111A12CE12FE295EF7091
:103EF000EC3008F042C1F0E0E058F04E0C94BE31D6
:103F00005E205E2097209720BD204921BD20BD2046
:103F10004E21B821C921C921882309F4C7C2F8015B
:103F2000FE57E031F10508F079CFE756F04E0C94DA
:103F3000BE31A91FC11FD61FDA1FDC1FDE1FE01F05
:103F40000E1FE71FF61F0E1F0E1F0E1F0120FD1F65
:103F5000042080E00E94AB0C10921C018091A10112
:103F6000877059F0F6018581882339F08091B60178
:103F700082FF03C082E00E94A30A2496EBE00C9427
:103F800011314091150150911C0150FB47F9569594
:103F9000537080911D018370880F880F582B60E04B
:103FA00070E08FE090E00E947431D8CF81E00E94F1
:103FB000C00CD4CF8FEFFBCF8AE0F9CF86EFF7CFDD
:103FC0009091170181E089270E940D0BC7CF809146
:103FD0001C01811101C084E08F5F18160CF081E094
:103FE000883008F087E080931C01B8CF80911C01D5
:103FF000811101C084E08150F0CF81E080931D01E8
:10400000ADCF10921D01AACF82E0F8CF882349F0EE
:1040100081E00E94BA0A43E062E081E00E94760AF1
:104020009DCF81E00E94960AF6CF0B354CE714072E
:1040300059F10C355CE71507E9F00A351C4709F022
:104040001CCF81E01EC0109225030E9431169FEF05
:10405000A4E3BCE09150A040B040E1F700C00000F4
:104060000E944C0C6FEF7FEF90E080E00E94803167
:104070000E9461198091B60182FB882780F991E046
:1040800089270E942413F9CE80E0FBCFF6018581B9
:1040900000811181882369F0C8010E944E10F82E1A
:1040A000682FC8010E94570AB8018F2D0E94201066
:1040B000EBCEC8010E940F0AF82EF6CFB12FBF70C9
:1040C000FB2E107F19F0F29490EFF922BB20B9F08B
:1040D000FF2069F080E2800F883010F0011109C0E4
:1040E00080912503F82AF09225030E94E615802F7F
:1040F00042C080915F02F82AF0925F02F6CF802FD3
:104100000E949F19FF20C9F180E2800F883010F0D3
:10411000011104C08F2D0E94C50906C0F094809142
:104120005F02F822F0925F020E94E61526C0E12F9E
:10413000EF70FE2E107F103219F0F29480EFF8220B
:10414000002349F0013009F47FC0BB2009F48BC083
:10415000EE20D1F1CCCF8091B60182FD31C0BB20E1
:1041600049F1FF2039F080912503F82AF0922503C8
:104170000E94E61580E00E94E719AA20B1F0809124
:10418000A10180FD12C0D60115961C9286958695D8
:1041900086950E94BA0AC6010E940E1E8091A10156
:1041A0008695869586950E94960A60E0C6010E94D3
:1041B000B310E3CE80E00E949F19FF20F1F2AACF56
:1041C000BB2069F1E11004C08F2D0E949519D5CF55
:1041D000F1E0EF1210C01091AC018F2D8123F81681
:1041E00061F20E9497149093AB018093AA01F12A87
:1041F000F092AC01C2CF25E0E212BFCF8F2D0E941A
:1042000095198F2D0E94D11580919E019F2D982385
:10421000F91609F4B2CFF82AF0929E01AECFE11060
:104220000AC08F2D0E948E198F2D0E94D1158F2DBF
:104230000E94D409A2CF41E0E4129FCF80912503D0
:104240008F2109F49ACFEDCFBB2029F055E05E1500
:1042500008F493CFB9CF84E08E1508F48ECF8F2D5C
:104260000E948E198ACFEE20D1F3093369F49FEFB3
:10427000A7EEB3E09150A040B040E1F700C00000CD
:10428000802F0E949F1979CFEFE1FEE43197F1F77B
:10429000F5CF6B2D802F0E94C2146FCF812F8370BA
:1042A00091F5B11025C0402F429546954770440FB7
:1042B000440F802F8F70042E01C0880F0A94EAF7F4
:1042C00020E004FF07C02FE030E001C0220F4A9534
:1042D000EAF72095169516951370123079F060F470
:1042E0003091B401113039F0822B83230E94C60A29
:1042F0000E940D0842CF832B822BF8CF282B809170
:10430000B4018227F3CF8695BB2011F0812F8170F5
:10431000882371F3402F429546954770440F440F10
:10432000802F8F70042E01C0880F0A94EAF720E0D6
:1043300004FF07C02FE030E001C0220F4A95EAF7E2
:104340002095169516951370123069F050F430913F
:104350002C02113029F0822B83230E94730AC8CFCC
:10436000832B822BFACF282B80912C028227F5CF2A
:104370001F70BB2039F0812F0E94BA0A802F0E9443
:104380009519B6CF802F0E948E19812F0E94960A10
:10439000AFCF023F99F170F4003FC9F0013F91F0B7
:1043A000BB2009F46AC0EE2009F464C0802F0E948B
:1043B000E7199ECF033F49F1043F91F78091B60181
:1043C00082FD2FC0812F8F71BB2001F31BC0BB204A
:1043D00081F0F4E0FE1508F48BCF1F7181E090E0CE
:1043E000012E01C0880F0A94EAF790912C028927C8
:1043F000B4CF25E02E1508F47BCFEFCF812F8F713E
:10440000B110C4CF0E94BA0A73CF80E0BB2009F478
:10441000A4CF1F7181E0012E01C0880F0A94EAF732
:104420009CCFBB20D1F08091A1018770843049F4EA
:104430000E94CD09812F8F710E94960A0E940D085B
:10444000B4CE44E04E15D0F31F71812F0E94BA0AFA
:1044500063E0812F0E945D1BF1CF54E05E1530F4C4
:104460000E94CD0964E0812F8F71F4CF81E00E941A
:10447000A30AE4CF812F8F71C5CFEE20A1F00933BD
:1044800069F48FEF97EEA3E081509040A040E1F7F0
:1044900000C00000802F0E949F192ACFEFE1FEE4A8
:1044A0003197F1F7F5CF812F8F7170CF0737BCE7C8
:1044B0001B0709F4B6CD0837ECE71E0709F0C8CC96
:1044C00082E0B0CDCF93DF9380919B01807F09F094
:1044D0004DC080919A01882309F448C0E09185037A
:1044E00050913C03C0919601D09195016091970144
:1044F0007091980149E05E17C9F18E2F90E0E49F1A
:10450000F0011124E35CFC4F2481222391F1489FA8
:10451000F001499FF00D1124DF01A35CBC4F1196FF
:104520002C9111972C1325C02C912D1322C0159678
:104530002C91159721111DC012962D913C91261B8F
:10454000370B283C3105A8F480919B018F70806166
:1045500080939B01ED5BFC4F80818F708061808335
:1045600085E991E00E940E1E0E94DE09DF91CF9145
:104570000895FC013196E770BECFA8E1B0E0E3EC0E
:10458000F2E20C94F4308C0186E0F801DE015396DF
:1045900001900D928A95E1F7F8018481E58095E913
:1045A000A92E91E0B92E90919901911128C08823EC
:1045B00019F1EE20F1F0C8010E948A10F82E88232C
:1045C000C1F089E0F801D50101900D928A95E1F7DB
:1045D00080919901813031F48091950190919601FB
:1045E0000E947D100E9462228F2D6896ECE00C9450
:1045F0001031C8010E940E1EFF24F394F5CFD08025
:10460000C18082809380F0909A012091970130912F
:104610009801A401421B530BFF2009F40CC1483C34
:10462000510508F0B5C08823F9F290919601809168
:104630009B01282F207F09F05EC0C9121DC09091F8
:104640009501D91219C040919C0150919D0127817B
:1046500030854217530781F4E11047C08F708061A5
:1046600080939B0185E991E00E940E1E80919B0141
:10467000F8018683F12CB8CFE11037C06C2D8D2D59
:104680000E9424066C2D8D2D0E942406E82E811197
:10469000F1CFDB8ACC8A8B899C890E947D10292FDF
:1046A00022952F70243058F49F70223080F0992387
:1046B00091F0F8019681907F71F4FE2C95CF2A50ED
:1046C000223068F0C8010E940E1EEF2CF6CF99230D
:1046D00011F0882391F3805E8830A0F7EECF803F01
:1046E00060F3815F833070F7E8CF80919B01816038
:1046F00080939B01BFCFC9121CC090919501D91224
:1047000018C040919C0150919D012781308542172E
:10471000530779F4E1100DC08683C8010E940E1E74
:1047200089E0F801A5E9B1E001900D928A95E1F7E1
:104730005BCFC8010E948A10882309F45ACFEE206B
:1047400009F457CF80919B018032B8F020919501F8
:10475000309196013B872A879D868C86909199019E
:104760009E871F86888B80919C0190919D019A8BDA
:10477000898BCE010A960E940E1E89E0F801A5E9F8
:10478000B1E001900D928A95E1F70E94622234CF48
:1047900090919B01292F207F51F485E991E00E949F
:1047A0000E1E89E0F50111928A95E9F763CF8823FF
:1047B00009F41ACF809196018C1119C0809195014E
:1047C000D81215C040919C0150919D0127813085E0
:1047D0004217530761F4E1100AC09683C8010E9492
:1047E0000E1E89E0F50111928A95E9F7FDCEC80108
:1047F0000E948A10882309F4FCCEEE2009F4F9CE39
:1048000080919B01803208F4B8CF209195013091BE
:1048100096013A8329839C828B82909199019D8392
:104820001E828F8380919C0190919D01998788873A
:10483000CE010196A0CF483C510598F6882309F493
:10484000DBCEFE2CEE2009F4D4CE809196018C11A3
:1048500020C080919501D8121CC020919C013091FC
:104860009D01878190852817390799F490919B01C4
:1048700090FD56CF907F09F453CF80919B018683A2
:10488000903F09F44ACF982F907F905F8F70892BCB
:1048900043CFC8010E948A1081116FCF80919B0184
:1048A000816080939B01C8010E940E1E9DCEA2E1F3
:1048B000B0E0EDE5F4E20C94FC300A871B872C870E
:1048C0003D874E875F87688B798B8A8BCE010A96EE
:1048D0000E94BD2281112AC089E0FE013A96DE01C4
:1048E000119601900D928A95E1F78E858823F1F05B
:1048F00020913C0330E0C9010196877099274091CF
:1049000085034817190659F199E0929FD001939FAA
:10491000B00D1124A35CBC4FFE01319601900D92A5
:104920009A95E1F780933C030E94DE0919E080919B
:10493000850390913C03891709F1819FC0011124DF
:10494000835C9C4F0E94BD228823C1F08091850327
:1049500090E001968770992780938503E8CF1092A5
:1049600025030E94311610923C031092850389E0C2
:10497000E5E9F1E0DF011D928A95E9F76296E4E04E
:104980000C941831B0E0A0E0E8ECF4E20C94F730BD
:1049900080919902882369F0C0916002C12C8DE05A
:1049A000D82E80919902C81748F01092990210925F
:1049B0006002CDB7DEB7E9E00C941331BB24B394A9
:1049C000BC0EB0926002EC2EF12CCD9DE0011124C2
:1049D000C656DD4F8C81882361F18F819885892BA4
:1049E00021F489859A85019659F4088119812A81D3
:1049F0003B814C815D816E817F8188850E94572437
:104A0000DE9CF001DF9CF00D1124E656FD4F148270
:104A100010925F02C1100DC0CE010E948A10811158
:104A200008C08FE19EE40197F1F700C00000CC249C
:104A3000C394CB2DB6CF10920D0310920C0310929D
:104A4000400180910B0380930A030E9498080E9402
:104A5000C2240895B0E0A0E0E0E3F5E20C94EF306A
:104A6000C0910A0397E0992E01E010E02DE0322E6C
:104A700034E0432E5524539480910B038C1309C0CA
:104A80000E94C2240E949808CDB7DEB7E1E10C94E1
:104A90000B31D0E0FE01EE0FFF1FEE5FFC4F808177
:104AA0009181989ED001999EB00D1124AF59BD4FB0
:104AB00014962C911497211159C060909902EAE93B
:104AC000F2E030E020E0812C5D01261508F04CC0BA
:104AD000E384F484D501CD90DC906FEF7FEF712CEF
:104AE000472D50E0DA01AA0FBB1FAC0DBD1D0D9084
:104AF000BC91A02D109731F0EA16FB0609F4BA011B
:104B00007394EECF6F3F7607A9F1D80102C0AA0FC8
:104B1000BB1F6A95E2F78A2AB801072C02C0660F0C
:104B2000771F0A94E2F7AB0141505109841615062C
:104B300001F5329EF001339EF00D1124E656FD4F33
:104B4000989ED001999EB00D1124AF59BD4F129679
:104B50002D913C91139730872783448210821182D4
:104B60009287818715965C920E946A082196C3708D
:104B700083CF14822F5F3F4F3D96A7CFA6E0B0E0D2
:104B8000E4ECF5E20C94FC300E9497148C018091C7
:104B9000AD019091AE018017910781F019821A82C0
:104BA0000E949714682F49815A81792F80E090E004
:104BB0000E94741B1093AE010093AD012696E4E0B1
:104BC0000C941831A5E0B0E0E8EEF5E20C94F0307A
:104BD000CE0101967C0185E0D7011D928A95E9F707
:104BE0003701570190E0C92E91E0D92E4424439417
:104BF000512CF60181916F010E94C40B00C085E029
:104C0000882E81E0982EF40110E000E02191A22F7F
:104C1000A295AF70B0E090968C9190E02F7002C09A
:104C2000959587952A95E2F780FD0AC0D5018C916C
:104C30009201002E01C0220F0A94EAF7822B8C9376
:104C40000F5F1F4F0430110509F7F601319780817E
:104C50000E94D90BB0EABA95F1F7EFEFAE1ABE0A8F
:104C6000F5E0CF16F1E0DF0621F6DD24D394D40180
:104C70008D914D010E94C40B00C03D2D002E01C03E
:104C8000330F0A94EAF7F70140E051E0DA012D9181
:104C9000AD01822F82958F7090E0DC0190968C910F
:104CA00090E02F7002C0959587952A95E2F780FDD8
:104CB00003C08081832B80833196B1E045305B0750
:104CC00029F7F401319780810E94D90BE0EAEA9537
:104CD000F1F70F5F1F4F0830110549F6EFEAF1E0D9
:104CE00085E0E80EF11C10E0D3018D913D0191911A
:104CF000891721F0DF0111978C9311E0E614F70476
:104D000099F7112371F081E080937E010E9497143E
:104D100090937D0180937C01812F2596E0E10C9496
:104D20000C3180917E018823B9F380917C019091B0
:104D30007D010E948814059778F345E050E06FEA02
:104D400071E086EC91E00E94CB31892B49F085E03F
:104D5000EFEAF1E0A6ECB1E001900D928A95E1F75F
:104D600010927E01D9CF1F920F920FB60F9211248D
:104D70008F939F93AF93BF9380911F03811113C0B3
:104D80008091200390912103A0912203B0912303ED
:104D90004196A11DB11D8093200390932103A09300
:104DA0002203B0932303BF91AF919F918F910F90F6
:104DB0000FBE0F901F901895ACE3B0E0E2EEF6E264
:104DC0000C94EE3085B7806885BF85B7806885BF55
:104DD00084B7877F84BF0FB6F894A8958091600050
:104DE000886180936000109260000FBE80E890E0C0
:104DF0000FB6F89480936100909361000FBE8DEE22
:104E000098E090937301809372010E94E0120E94D7
:104E100043060E94E2068091E20084608093E200F3
:104E2000789480913203882399F01091E9001F70E3
:104E30008091EC0080FFFAC080E8182B1092E90006
:104E40008091E80083FD0E944E161F701093E900C8
:104E500082E084BD93E095BD9AEF97BD80936E008C
:104E60000E94A50F811102C00E945211E5E5F2E0F7
:104E700088E0DF011D928A95E9F781E08093BF0108
:104E800060E080E00E94B60861E080E00E94B60821
:104E9000EFE8F1E03197F1F700C0000010E08091F9
:104EA000BF01181708F4C4C0809105010E94D90BF6
:104EB000809106010E94D90B809107010E94D90BB5
:104EC000809108010E94D90B00E011E085E0E82EF6
:104ED00081E0F82ED8018D918D010E94D90BE0164A
:104EE000F106C1F71092AF011092C6011092B00105
:104EF0001092C7011092B1011092C8011092B20134
:104F00001092C9011092B3011092CA010E943B1382
:104F1000811168C066EE7EEF90E080E00E948031F3
:104F200060E082E090E00E94623181E08093B40111
:104F300061E083E090E00E94623160E074E184E02F
:104F400090E00E94803160E086E090E00E94623153
:104F500060E087E090E00E94623140E050E0BA01FA
:104F600088E090E00E94743160E084E290E00E946A
:104F7000623160E087E190E00E94623160E08CE0A5
:104F800090E00E94623160E08DE090E00E9462312A
:104F900019821A821B821C821D821E821F82188621
:104FA00048E050E068E170E0CE0101960E94523185
:104FB00040E050E0BA0180E290E00E94743180E06D
:104FC0000E942A0F0E94521140E050E0BA018FE087
:104FD00090E00E94743140E050E0BA0183E190E03B
:104FE0000E94743182E090E00E943E318093B701CC
:104FF00084E090E00E944C319093B6018093B5011B
:105000000E94E225EFE3FCE93197F1F700C00000D0
:105010000E94E2258091C60180FF1CC06FEF7FEFE8
:1050200090E080E00E9480310E944C0C80E005CF2F
:1050300060E0812F0E94A908082F61E0812F0E9463
:10504000A908E12FF0E0E254FE4F880F802B808307
:105050001F5F25CF83E090E00E943E310E94C60A88
:1050600083E080934D0280E2809386030E94D22FDA
:105070006BE070E087EA91E00E9462118823E9F119
:1050800080914D0265E070E081FDAEC082EA91E062
:105090000E946211882389F16DE070E080E991E05F
:1050A0000E946211882349F10E94A107605A75414C
:1050B0008F4F9F4F60934F02709350028093510225
:1050C00090935202E9E8F3E080E092E0DF019C0176
:1050D0001D9221503040E1F7F0939005E0938F0549
:1050E0008FEF9FEF909388038093870381E08093F5
:1050F00054028093530210924E020E9447130E9462
:105100003B138823B9F08FE090E00E9446318B0179
:10511000862F8F770E94AB0C001F0027001F612F86
:105120006370660F602B60931C01169516951370C3
:1051300010931D018FE291E090931E0380931D0355
:10514000B6E02B2E312C8091320300E112E1853044
:1051500009F489C00E94E22508EB11E0A6ECEA2ED2
:10516000A1E0FA2ED701F80191918D9131E0ED3B4C
:10517000F30709F484C09817B9F3D12C88248394D9
:10518000D701CD907D01F80191908F019C1419F108
:10519000B12CAA24A3949C24892D8A21A1F0BFAA12
:1051A000D8AE0E9497149AAF89AF8BAE91E08C2D48
:1051B0008A2109F490E09CAF4FA958AD69AD7AAD52
:1051C0008BAD0E94741BB394AA0CF8E0BF12E4CF1D
:1051D000F8013197C082D39425E0D212D1CF0E943A
:1051E000A107EE24E39450C08DE991E051CF809166
:1051F0003203843041F10E946F110E94CA0D109257
:105200001F0388E190E0A0E40FB6F894A89580937E
:1052100060000FBEA093600083B7817F846083BF6E
:1052200083B7816083BF7894889583B78E7F83BF6F
:105230000FB6F894A8958091600088618093600013
:10524000109260000FBE80913103882361F00E94AC
:10525000E225E6ECF1E08191811143C52BEC31E0D0
:105260002E173F07C1F780913203853009F4BFCF75
:10527000109225030E9431160E940D086BCF9813DF
:105280007CCF0E94BE25E12C809140018823F9F05B
:1052900080910C0390910D030097C9F00E9488142F
:1052A00020915D0230915E022817390780F49091B9
:1052B0000A0380910B039817D1F00E942A251092BF
:1052C0005E0210925D0210920D0310920C03809109
:1052D000C001882351F01092C00180915702809341
:1052E00058028091550280935602F12C42C00E94D0
:1052F000C22410920D0310920C030E949808E7CF6D
:1053000061E08F2D0E94A908182F60E08F2D0E9468
:10531000A908E12FEE0F8E2B0F2D10E0D801A2541B
:10532000BE4FEC919E2F9370891711F1EE0FEE0F87
:10533000E82BEC93EF70F0E0E55BFE4F03541E4F5B
:105340008081D801DC90D80EDC92B5E060E0BD151C
:1053500024F0EBEFDE1624F461E08F2D0E94C908E3
:105360008D2DDD0C990BB1010E94AA31D8018C93CF
:10537000F3948091BF01F81618F210E06CEFF62E4E
:1053800073E0D72ECC24C394EDEFBE2EF2E0AF2E07
:105390008091580290915702981709F4BAC4E82FE7
:1053A000F0E0E75AFD4F108117FB002700F91F7747
:1053B0008F5F837080935802809156028F5F809335
:1053C0005602011108C00E9497141BA7FCA69EA7B5
:1053D0008DA7DFA607C00E9497141BA7BCA69EA797
:1053E0008DA7AFA6C8AA4BA55CA56DA57EA58FA568
:1053F00098A90E94741BEFE1FEE43197F1F700C019
:1054000000000023C1F00E94971419ABBAAA9CAB0C
:105410008BABADAA1EAA49A95AA96BA97CA98DA9D3
:105420009EA90E94741B8FE19EE40197F1F700C0D2
:10543000000011E0ADCF0E94971419ABFAAA9CAB03
:105440008BABDDAAE7CF0E94B211E11070C486E0F9
:10545000E7E1F3E08E010F5F1F4FD80101900D923D
:105460008A95E1F71092190310921A0310921B0308
:1054700010921C038B81811104C08C81882309F454
:1054800047C080911503909116030E9488149C01D7
:1054900090911003992309F455C425313105C0F1C9
:1054A0009F3F19F09F5F90931003FB80FF2059F0FE
:1054B0000E943C0891E01F140CF09FEF899F802D03
:1054C000112480931903FC80FF2059F00E943C08AE
:1054D00091E01F140CF09FEF899F802D1124809381
:1054E0001A0380911903882399F0F0901A03FF2082
:1054F00079F00E945C08882309F4D3C080931903D3
:105500008F2D0E945C08882309F4CDC080931A0374
:105510008D81811104C08E81882309F447C0809158
:105520001303909114030E9488149C01909111031D
:10553000992309F40CC421353105C0F19F3F19F0BE
:105540009F5F90931103FD80FF2059F00E941A087D
:1055500091E01F140CF09FEF899F802D1124809300
:105560001B03FE80FF2059F00E941A0891E01F14CF
:105570000CF09FEF899F802D112480931C03809154
:105580001B03882399F0F0901C03FF2079F00E9400
:105590005C08882309F489C080931B038F2D0E9427
:1055A0005C08882309F483C080931C03B80187E159
:1055B00093E00E94AD07811113C0809119038111FE
:1055C00078C080911A03811174C080911B038111EE
:1055D00070C081E090911C03911101C080E080FDBA
:1055E0000E94A31486E0F801A7E1B3E001900D92B8
:1055F0008A95E1F70E940D089091C101891721F069
:105600008093C1010E94A10780913203843009F088
:105610009ACD83E08093E9008091E80082FF93CDEA
:105620008091E80090E085FF0AC00E94620650E287
:10563000E52EF12C6801882309F447C091E08091A0
:10564000E8008B778093E800992309F47CCDE09003
:10565000CB01F090CC018981E114F10409F443C03D
:105660008E3F09F0C6C08A81833020F08550833098
:1056700008F0BFC0EA81EE3008F0BBC0F0E0ED5B9F
:10568000F44D0C94BE31212D3B2D422D7C2D8D2DC2
:10569000A82DB92DCC2D0A2E0F2EF92BF92BF92B75
:1056A000172E81E02BCF81E031CF81E075CF81E0F3
:1056B0007BCF81E094CF8091F100D6018D936D0175
:1056C000B1E0EB1AF10809F4B9CF8091E80085FD4B
:1056D000F2CF8091E8008B778093E8000E94620609
:1056E000882399F3ABCF8C3009F4C5C068F58430BA
:1056F00009F4ABC058F4823009F46CC008F096C0CD
:10570000813009F463C08FEF898373C0863009F458
:10571000AFC008F4A2C08B30B1F780910E03909116
:105720000F03892B09F465C040E250E0B80182E024
:105730000E94F60BEFEFF1EE24E0E150F040204044
:10574000E1F700C0000070CC803109F4C6C090F5CC
:105750008E3009F497C008F491C080910E039091A7
:105760000F03892B09F445C0EA80FB80FE24EF2457
:10577000FE24CC80D12C58013DE1C316D104C8F5DC
:10578000C70187539E4F9501201B310B2C153D05FA
:1057900080F547E3E41642E0F40628F4D5011496B8
:1057A0006C910E946231BFEFEB1AFB0AEFEFAE1A69
:1057B000BE0AE6CF823109F495C008F491C0833166
:1057C00009F4BAC08E3F09F09ECF54CF1A8289E007
:1057D0008B830FC08A81823009F4ACC2833081F0A0
:1057E000813009F090CF0E94A1079B838C837D8339
:1057F0006E8340E250E0B80182E00E94F60BA3CC39
:1058000080910E0390910F03892B99F38091C6012B
:105810008B838091C7018C838091C8018D83809197
:10582000C9018E838091CA018F83E3CF8A81823040
:1058300009F069CF6B817C818D819E810E94C4318A
:1058400088E290E00E946231D4CF4C816B818A81E2
:105850000E94F10F9D838E83CCCF2D813E81322714
:10586000232732274C816B818A810E947E0FC1CF12
:105870000E94E310BECF80E18A83BBCF82E08A839F
:1058800087E3A6CFEA80FB80FE24EF24FE24AC80D1
:10589000B12C6801EDE1AE16B10408F0AACFC70142
:1058A00087539E4F9601201B310B2A153B0508F0AC
:1058B000A0CFF7E3EF16F2E0FF0660F40E943E315E
:1058C000D60114968C93FFEFEF1AFF0A2FEFC21A3E
:1058D000D20AE5CFF6011482F6CF0E94430F89CF9A
:1058E00084E0CACFEA80FB80FE24EF24FE24AC8053
:1058F000B12C6801FDE1AF16B10408F07ACFC70101
:1059000089969601201B310B2A153B0508F071CFB3
:1059100020E4E21621E0F20660F40E943E31D60156
:1059200014968C93FFEFEF1AFF0A2FEFC21AD20AD8
:10593000E6CFF6011482F6CFCA80DB80DC24CD24CA
:10594000DC24AC80B12C3DE1A316B10408F051CFAA
:1059500040E4C41641E0D40608F04BCF80E491E067
:105960008C199D098A159B0508F443CF360189E2FD
:10597000680E711C80910E0390910F03892BD9F54D
:10598000F12CE12CC0FE10C0C60188960E943E3169
:105990009D8189279827892781159C4711F48FEFCE
:1059A0008D83EE24E394F12CC6018A0D9B1D4501E5
:1059B00080FF17C0B1E08B1A910835E0432E512CBF
:1059C0004C0E5D1E480C591CC3018A0D9B1D0E9484
:1059D0003E31F201908181159C4719F48FEFD2017D
:1059E0008C93F801EE0DFF1D2FEFCF01801B910B63
:1059F0008815990510F076011BC08481958189274F
:105A00009827892781159C4711F424832583329692
:105A1000ECCFE0E4EE16E1E0FE0638F4200F311F93
:105A2000D90114966C910E946231BFEFEB1AFB0A08
:105A3000C701899697012C193D092A153B0548F3A2
:105A4000D8CE88E0E3E4F1E0DE01919601900D927A
:105A50008A95E1F780E2D8011D928A95E9F786E000
:105A6000898388E0FE01B196DE01159601900D92C2
:105A70008A95E1F7BECE80E1898382E08A831B822A
:105A80001C82B7CE8C81682F70E0762F66278B81C1
:105A9000860F972F911D092E000CAA0BBB0B25E03A
:105AA000880F991FAA1FBB1F2A95D1F7AC01BD0112
:105AB000405E5F4F6F4F7F4F481759076A077B075C
:105AC00008F497CE8031E2E09E07A105B10508F009
:105AD00090CE4131F2E05F076105710520F040E1B1
