:100000000C9490050C94C8050C94C8050C94C80574
:100010000C94C8050C94C8050C94C8050C94C8052C
:100020000C94C8050C94C8050C9483120C941E18EB
:100030000C94B2220C94C8050C94C8050C94C80505
:100040000C94C8050C94C8050C94C8050C94C805FC
:100050000C94C8050C945B130C94C8050C94C8054B
:100060000C94C8050C94C8050C94C8050C94C805DC
:100070000C94C8050C94C8050C94C8050C94C805CC
:100080000C94C8050C94C8050C94C8050C94C805BC
:100090000C94C8050C94C8050C94C8050C94C805AC
:1000A0000C94C8050C94C8050C94C80505010902F8
:1000B000A10185020901A1000509190129081500FE
:1000C0002501950875018102050109300931158165
:1000D000257F95027508810609381581257F9501D0
:1000E00075088106050C0A38021581257F95017572
:1000F000088106C0C00660FF0961A1010962150000
:1001000026FF009520750881020963150026FF006F
:10011000952075089102C005010906A1010507197E
:10012000E029E71500250195087501810295017503
:100130000881010507190029FF150026FF00950613
:100140007508810005081901290515002501950587
:1001500075019102950175039101C0616263646547
:10016000666768696A6B6C6D6E6F707172737475B7
:10017000767778797A3132333435363738393052C8
:100180004542545F2D3D5B5D5C233B27602C2E2F49
:1001900000DA0281FFD9F1DB20A4A62EAF00A0C0B7
:1001A000D30000A1C8D30000AED580A81F408D1495
:1001B0002000FD377A585A000004E6D6B446020003
:1001C000210116000000742FE5A3E00303011C5D6C
:1001D000003D8889A654750A36E182AEFA7A1AA6DD
:1001E000FCA2ED4954B48A5E7177BBD05FB821B5EB
:1001F0009A6DEC0545EFCE6A71C023FEA9DB302F66
:100200007EF37E4BD3DE126BE7EE1EA5DD985543E1
:10021000A028C14935AC126367305C3DEEF2124F45
:100220000C3294CCBC17D5A4229E09839F69D606B4
:100230003599DCAB23EA4ACA80FFC98C1203E2A8D5
:100240003FC07B97A18A34C7C2A523A1199AC75C76
:10025000E4774DD08D056133FB43C4EE22D704D73C
:100260006C7644004559E6844E960C4A2DEAE357D5
:1002700068EC635602165D497A6981156CD20FDB12
:10028000DD5C6694D696A8EF0DF60126076D2AF779
:10029000F2DB195DE45344D4CF2FD86FBFCF988AD7
:1002A000B324477F10C3EB4217DC6C746A16A0318D
:1002B000F9F87BFEA947F0494D6C322E9A6292D52F
:1002C000BD17574AA8D9942DC43B60534685EE6CA0
:1002D00075361559829D83671E36DEDBA7A67DFD28
:1002E00066584CE81A64A197A1BDD42D2C002F6646
:1002F0002E6CF34BB4A90001B802840600007B4BBE
:10030000BA29B1C467FB020000000004595A00AFCB
:1003100000AE556E6465660033726400326E640030
:1003200031737400307468004C4159455200000428
:10033000000500060007001400150016001700084D
:100340000009000A000B0018001900000000000C52
:10035000000D000E000F0000000000000000001063
:100360000011001200130000000000000000001A3D
:10037000001B001C00000000000000000000000442
:1003800000050006000700140015001600170008FD
:100390000009000A000B0018001900000000000C02
:1003A000000D000E000F0000000000000000001013
:1003B0000011001200130000000000000000001AED
:1003C000001B001C000000000000000000000004F2
:1003D00000050006000700140015001600170008AD
:1003E0000009000A000B0018001900000000000CB2
:1003F000000D000E000F00000000000000000010C3
:100400000011001200130000000000000000001A9C
:10041000001B001C000000000000000000000004A1
:10042000000500060007001400150016001700085C
:100430000009000A000B0018001900000000000C61
:10044000000D000E000F0000000000000000001072
:100450000011001200130000000000000000001A4C
:10046000001B001C00000000000000000000001F36
:10047000001E002100200023002200250024000986
:10048000025B00030100A0FA09040000010301015E
:100490000009211101000122440007058103080021
:1004A00001090401000203000000092111010001FB
:1004B0002222000705820320000107050303200014
:1004C00001090402000103000000092111010001DB
:1004D00022490007058403200001120100020000E8
:1004E0000008383934320100010203011C03760090
:1004F000690061006C003A00660036003400630059
:10050000320062003300630000000C0367006200E9
:10051000630032003400000012036B0075007300AA
:10052000680069006D0061003800000004030904E0
:1005300000000000000000000000000000000000BB
:1005400000000000000000000000000000000000AB
:10055000000000007E0F00D4FFFFFFC700000078FE
:1005600000000000000000002A2B2800000000000E
:100570000000000000000000000000290000000052
:100580002C1E3420212224342627252E362D3738C0
:10059000271E1F202122232425263333362E3738C9
:1005A0001F0405060708090A0B0C0D0E0F10111287
:1005B000131415161718191A1B1C1D2F3130232D53
:1005C000350405060708090A0B0C0D0E0F10111251
:1005D000131415161718191A1B1C1D2F3130354C02
:1005E00007087F0807003E5B4F5B3E003E6B4F6B8A
:1005F0003E001C3E7C3E1C00183C7E3C18001C57F4
:100600007D571C001C5E7F5E1C0000183C1800001B
:10061000FFE7C3E7FF00001824180000FFE7DBE74F
:10062000FF0030483A060E00262979292600407F2F
:1006300005050700407F05253F005A3CE73C5A006E
:100640007F3E1C1C0800081C1C3E7F0014227F22D9
:1006500014005F5F005F5F0006097F017F00006696
:1006600089956A0060606060600094A2FFA29400B7
:1006700008047E04080010207E20100008082A1CB0
:100680000800081C2A0808001E10101010000C1E7C
:100690000C1E0C0030383E383000060E3E0E0600B0
:1006A00000000000000000005F00000000070007DD
:1006B0000000147F147F1400242A7F2A12002313C1
:1006C0000864620036495620500000080703000005
:1006D000001C224100000041221C00002A1C7F1C3B
:1006E0002A0008083E080800008070300000080852
:1006F00008080800000060600000201008040200E4
:100700003E5149453E0000427F4000007249494940
:1007100046002141494D33001814127F100027452F
:10072000454539003C4A494931004121110907003A
:10073000364949493600464949291E00000014003F
:10074000000000403400000000081422410014148E
:100750001414140000412214080002015909060073
:100760003E415D594E007C1211127C007F4949497F
:1007700036003E41414122007F4141413E007F49D8
:10078000494941007F09090901003E414151730077
:100790007F0808087F0000417F4100002040413F62
:1007A00001007F08142241007F40404040007F024A
:1007B0001C027F007F0408107F003E4141413E0043
:1007C0007F09090906003E4151215E007F09192970
:1007D000460026494949320003017F0103003F409A
:1007E00040403F001F2040201F003F4038403F0056
:1007F0006314081463000304780403006159494D2D
:100800004300007F414141000204081020000041E4
:1008100041417F000402010204004040404040008A
:100820000003070800002054547840007F28444407
:100830003800384444442800384444287F00385461
:100840005454180000087E09020018A4A49C7800E3
:100850007F080404780000447D4000002040403DB3
:1008600000007F102844000000417F4000007C040D
:10087000780478007C080404780038444444380044
:10088000FC182424180018242418FC007C080404F4
:10089000080048545454240004043F4424003C40BD
:1008A00040207C001C2040201C003C4030403C008C
:1008B0004428102844004C9090907C004464544C90
:1008C00044000008364100000000770000000041AD
:1008D000360800000201020402003C2623263C00E8
:1008E000000000000000404040F0F8F8FF38FFF83A
:1008F000F83FF8F8FF38FFF8F8F0404040000000FB
:1009000000000080C0C0C0800000C0C080000000A7
:1009100080C0C000C0C0000080C0C0000000000057
:10092000C0C0C0C0C000C0C0000000000000000087
:1009300000000000000000000000000000000000B7
:1009400000000000000000000000000000000000A7
:10095000000000000000000000000000000000C0D7
:10096000F0F8FC3E1E06010000007F4141417F007F
:100970007F4141417F000080C0E07E5B4F5BFEC055
:100980000000C000DCD7DEDEDED7DC00C0000000E7
:100990000000000000000000000000000000000057
:1009A000000000000000494949FFFFFFFFE0DFBFF2
:1009B000BF00BFBFDFE0FFFFFFFF49494900000064
:1009C00000001F3F6060E0BF1F007F7F071E381ED2
:1009D000077F7F007F7F0E1F3B71600000000000DB
:1009E0007F7F0C0C0C007E7E007F7E0303007F7EE9
:1009F00003037E7E03037F7E000F3E703C063C7047
:100A00003E0F00327B49493F7E007F7E0303001E7C
:100A10003F69696F2600000000000000000000032D
:100A20000F1F3F3C7870600000007F4141417F0014
:100A30007F4141417F00307B7F7830202030787FBC
:100A40003B0003000F7F0F0F0F7F0F00030000001C
:100A50000000000000000000000000000000000096
:100A6000000000000000010101070F0F7F0F7F0F42
:100A70000F7E0F0F7F0F7F0F0F0701010100000096
:100A80000000000000000001010000000000000064
:100A90000000000000000000000000000000000056
:100AA0000000000000000000000000000000000046
:100AB0000000000000000000000000000000000036
:100AC0000000000000000000000000000000000026
:100AD0000000000000000000000000000000000016
:100AE0000000000000000000000000000000000006
:100AF00000000000000000000000000000000000F6
:100B000000000000000000000000000000000000E5
:100B100000000000000000000000000000000000D5
:100B200011241FBECFEFDAE0DEBFCDBF04B603FE57
:100B300018C08091820490918304A0918404B091A4
:100B400085048730904BA740B04B59F41092820433
:100B5000109283041092840410928504E0E0F8E37C
:100B6000099511E0A0E0B1E0EEE8FAE502C00590D9
:100B70000D92A237B107D9F724E0A2E7B1E001C096
:100B80001D92A238B207E1F70E94DB220C94452D9A
:100B90000C940000482F2091730290913A0257E084
:100BA000291302C080E0089530E0529FF001539F66
:100BB000F00D1124E55CFD4F8181681306C0808132
:100BC000481303C085818111EECF2F5F3F4F2770FF
:100BD000E7CFE8EDF0E080818E7F80831092E20025
:100BE0001092DA001092E100A0EEB0E08C918160EA
:100BF0008C9380818F77808319BCA7EDB0E08C91B6
:100C00008E7F8C9380818F7E808310922202089544
:100C10002091E4003091E50085E69091EC0090FF92
:100C200006C09091E80090FF06C080E00895909182
:100C3000E80092FDFACF90913002992391F095301F
:100C400091F09091EB0095FD10C04091E40050911F
:100C5000E5002417350709F381509A01F1F684E085
:100C6000089582E0089583E0089581E008958091D9
:100C7000320287FF13C08091E80082FF06C0809196
:100C8000E8008B778093E80004C0809130028111E6
:100C9000F2CF0895809130028823D9F38091E80043
:100CA00080FFF8CF8091E8008E77ECCF982F90935B
:100CB000E900242F762F50E0891731F07091EC0075
:100CC0002091ED005091F00021FD07C09F5F97300B
:100CD00071F78093E90081E008953091EB003E7F49
:100CE0003093EB003091ED003D7F3093ED0030917B
:100CF000EB0031603093EB007093EC002093ED003B
:100D00005093F0002091EE0027FDE0CF80E00895A1
:100D1000B0E0A0E0EEE8F6E00C94762CC8EDD0E070
:100D200088818F7E8883E7EDF0E080818160808319
:100D300084E082BF81E08093220288818E7F888355
:100D400002EE10E0F80110821092DA0081EEC82E57
:100D5000D12CF601108288818F7788838881806802
:100D6000888388818F7D888319BC1092300210920D
:100D7000310210922F0210922E0290EEE92EF12CE9
:100D8000F70180818B7F808388818160888342E046
:100D900060E080E00E945606F60180818E7F8083AD
:100DA000F801808181608083808188608083F70181
:100DB00080818E7F8083888180618883CDB7DEB714
:100DC000E8E00C94922CFC01809138029091390259
:100DD00086179707A0F06115710529F49091E80036
:100DE0009E779093E80090E06115710551F49111A0
:100DF00008C08091E80082FF35C080E00895BC0102
:100E0000F2CF809130028823C9F18530C9F18091F9
:100E1000E80083FD31C08091E80082FDEACF809137
:100E2000E80080FFE1CF2091F3008091F200322FA3
:100E3000282F6115710519F02830310558F091E01F
:100E40002830310509F090E02091E8002E772093BA
:100E5000E800CACF81918093F100615071092F5F42
:100E60003F4FE7CF80913002882341F0853041F039
:100E70008091E80083FFBDCF81E0089582E008956E
:100E800083E00895089508958091250208952FB76D
:100E9000F89460911E0270911F028091200290913F
:100EA00021022FBF0895DC01FB0111969C9111973F
:100EB0008181981322C012968C911297882319F081
:100EC000928189131AC013968C911397882319F075
:100ED0009381891312C015968C911597882319F068
:100EE000958189130AC014969C91992321F081E081
:100EF0002481291303C080E001C081E0817008953E
:100F0000E4E7F1E09281891301C01282319691E009
:100F1000EA37F907B9F70895A6E7B1E0EFEF90E0F7
:100F20002D91821751F0EF3F19F4211101C0E92FE3
:100F30009F5F9630A9F7EF3F09F408950E2E000C3D
:100F4000FF0BEC58FE4F82830895E0911B02F09155
:100F50001C02309739F022E0DC012C930680F781E7
:100F6000E02D09950895E0911B02F0911C02309745
:100F700029F00190F081E02D0995089580E0089511
:100F80008091100280FD16C081FD16C082FD16C042
:100F900080910F028823A1F0883280F428E0829F9C
:100FA000C001112468E270E00E94102D862F672B8B
:100FB00039F0089582E0089584E0089588E0089566
:100FC00081E008958091100280FD14C081FD14C05D
:100FD00082FD16C080910E02882381F08E3180F44C
:100FE00020E5829FC00111246EE170E00E94102D67
:100FF000862F089584E1089588E2089588E0089591
:1010000080E50895282F35EB2303C001112497FFB5
:1010100004C080589109892F089580589F4FFBCFB5
:1010200023E9611122E989B190E02F7002C0959502
:1010300087952A95E2F78170089523E9611122E9E5
:101040003AB12F7081E090E001C0880F2A95EAF74D
:10105000982F909593239AB99BB1892B8BB90895BA
:1010600090910602E92FF0E0209107022150330B06
:1010700023703327E217F307A9F0E85FFD4F282F0D
:101080002F7780818078822B60FB87F980839F5F38
:10109000937090930602809104028F5F8093040204
:1010A00081E0089580E0089580E00895811522E5AB
:1010B000920780F5811530E5930708F0A3C0883EBC
:1010C0009105A0F4803E910558F4853A910548F4C5
:1010D0008430910528F48130910511F090E080E092
:1010E00008958D3C9105D0F390650895811540E4F5
:1010F000940708F043C0811550E2950708F09BC0A3
:10110000811521E0920750F320E0392FA901482BE7
:10111000CA010895803832E59307A0F4803642E58D
:10112000940708F056C0803452E59507F0F58032F8
:1011300022E5920730F18F7190E0982F8827816F18
:10114000906A0895803C32E5930760F4282F2F7150
:10115000803A924508F44FC0822F90E0982F88275C
:1011600090620895803E52E5950708F0B7CF982F1A
:10117000882788279F71806F906A08959F70906A72
:101180000895282F2695269550E2259F9001112439
:10119000482F437081E090E002C0880F991F4A9564
:1011A000E2F7822B932B9D680895982F937021E08E
:1011B00030E002C0220F331F9A95E2F73C68869513
:1011C0008695877040E2849FC0011124822B932B67
:1011D0000895982F937021E030E002C0220F331F52
:1011E0009A95E2F73A6886958695877050E2859FD2
:1011F000C0011124EBCF822F90E0982F8827846FB5
:10120000906A08959C0195E0369527959A95E1F7A7
:101210002F7030E0322F2227482F4F7150E084FF8B
:1012200005C084E0440F551F8A95E1F7C901906914
:10123000842B952B0895292F2F7199279062922B3B
:1012400008958091AB01882331F01092AB01109288
:10125000AA011092A9010895982F909580912302D8
:10126000892380932302089510929F0110929E017A
:1012700010929D01089590919C01292F282321F01F
:101280008095892380939C010895809173029091A9
:101290003A02981301C008958F5F8770FACFA82F84
:1012A000A77023E0969587952A95E1F7FC01EE0F4C
:1012B000FF1FE80FF91FE60FF71F50E040E080E046
:1012C000219130E00A2E02C0369527950A94E2F764
:1012D00021703327042E01C0220F0A94EAF7822BD3
:1012E0004F5F5F4F4330510559F70895903FB9F074
:1012F000953070F4883060F448E0949F9001112498
:1013000066E871E0820F932F911D0E944F090895A6
:101310009C5F923020F463E871E090E0F6CF80E0CB
:101320000895262F277091E001C0990F2A95EAF7BA
:1013300023E0769567952A95E1F7FB01EE0FFF1FF5
:10134000E60FF71FE40FF51F50E040E0682F70E054
:101350008191DF0111979B01042E02C036952795DC
:101360000A94E2F7217021952827292328272C9316
:101370004F5F5F4F4330510559F70895282F903F35
:1013800089F0862F622F953070F4283060F448E0A1
:10139000949F90011124620F732F711D46E851E054
:1013A0000E94910908959C5F9230E0F770E043E855
:1013B00051E0F6CF8093DB0108959091DB0121E0AD
:1013C00030E0F90101C0EE0F8A95EAF7D90102C0B9
:1013D000AA0FBB1F6A95E2F7EA2B01C0220F4A95BC
:1013E000EAF7892F8E23E81305C0292B822F0E944C
:1013F000DA09089520952923F9CF21E030E001C0D2
:10140000220F8A95EAF720958091DB0182230E94C2
:10141000DA09089590919F018095892380939F0117
:10142000282F277069F4891759F09091B50192FF20
:1014300007C08695869586950E94FD090E9434090D
:10144000089521E030E001C0220F8A95EAF78091EB
:10145000DB01822B0E94DA0908958093B30108957D
:10146000982F92959F7020E011F0892F24E0982FFB
:101470009695969511F02E5F892F982F969509F0E5
:101480002F5F822F08959C013A9521153F4150F519
:10149000FC01EE27F170BC0166277270AC01442795
:1014A00054709C012227387094FF0EC080E0EF2B0F
:1014B00009F080E1672B09F08062452B09F0806418
:1014C000232B89F08068089581E0EF2B09F480E0F8
:1014D000672B09F08260452B09F08460232B19F0FB
:1014E0008860089580E00895CF93C82F80911701F8
:1014F0008C1751F00E9447076093180170931901EF
:1015000080931A0190931B01C0931701CF91089506
:10151000EF92FF920F931F93CF93DF938C01EB0118
:10152000DC01ED91FC91222309F45FC040911C0184
:10153000411101C044E04150550B81E090E07C0135
:10154000042E02C0EE0CFF1C0A94E2F7CF01B70193
:101550000E94102D9B01CB01042E02C0880F991F01
:101560000A94E2F7E81BF90BD8011196FC93EE936D
:101570001296ED91FC91CF01B7010E94102DCB0185
:1015800002C0880F991F4A95E2F7E81BF90BD801B2
:101590001396FC93EE9312972138BFEF3B07CCF0E4
:1015A00020383105C4F421952D836138EFEF7E0793
:1015B000A4F0603871059CF461956C8380911D01E5
:1015C000882379F0813079F0CDB7DEB7E6E00C946E
:1015D000942C21E8E8CF2FE7E6CF61E8EDCF6FE765
:1015E000EBCF1D82F1CF1C82EFCFE1382FEFF20756
:1015F000BCF0E038F105B4F4E195EA83D801129625
:101600008D919C918138BFEF9B0774F080389105D4
:101610006CF48B83F8011182108213821282D4CF72
:10162000E1E8EACFEFE7E8CF81E8F3CF8FE7F1CF4A
:101630009C01860F971F37FD07C077FD04C097FFF9
:1016400002C08FEF9FE7089577FFFDCF97FDFBCF97
:1016500080E090E80895E82FE295EF70F0E031A186
:10166000282F2F7081E090E001C0880F2A95EAF7BB
:10167000932F982B91A392A18095892382A30895FB
:10168000E82FE295EF70F0E031A1282F2F7081E074
:1016900090E001C0880F2A95EAF7982F9095932340
:1016A00091A392A1892B82A3089520E430E043E026
:1016B00060E087EF0E94322A08950F931F93CF9323
:1016C000DF938B01EA0190913002943061F58093B1
:1016D000E9008FEF9091E800815095FD06C095EDEF
:1016E0009A95F1F700008111F5CF8091E80085FF10
:1016F0001AC00E940806811111C08091E80085FD82
:1017000006C08091E8008E778093E800F2CFF80160
:1017100081918F018093F100219779F78091E80002
:101720008E778093E800DF91CF911F910F910895FC
:1017300046E050E0BC0184E00E945D0B0895CF9329
:10174000DF93EC0148E050E0BC0181E00E945D0BBA
:1017500088E0FE01A6E2B2E001900D928A95E1F7E1
:10176000DF91CF91089581E08093E00080E2809343
:10177000D8001092C9008FE19EE40197F1F700C0F4
:10178000000087E090EBDC01809382049093830457
:10179000A0938404B093850488E19CE00FB6F8948C
:1017A000A895809360000FBE90936000FFCFCF9309
:1017B000C82F0E94550B8C2F0E94AB2A8FE792E016
:1017C0000197F1F700C000000E94C32AC82F95E0DE
:1017D0009A95F1F700000E94DB2A85E68A95F1F7D9
:1017E000000010927F048C2FCF910895CF93DF9348
:1017F000D82FC62F0E94550B8D2F80680E94AB2AD0
:101800008C2F0E94AB2A8AEB8A95F1F700C00E94C8
:10181000DB2A83E492E00197F1F700C00000DF913A
:10182000CF910895682F843208F063E26093150128
:1018300091E09093160190910901992339F061503C
:10184000811101C064E08FE00E94F60B0895909131
:101850001501911101C095E0282F880F330BA901C4
:10186000490F511DCA011816190614F081E090E0C5
:101870000E94120C0895ACE0B0E0E1E4FCE00C94AE
:10188000762C4F83588769877A878B879C878091CE
:101890000901882309F446C080917F04811107C0A3
:1018A00060E080E50E94F60B81E080937F040E9457
:1018B000550B80E50E94AB2A8AEB8A95F1F700C0B0
:1018C0000E94C32A0E94C32A0E94C32A7C010E944C
:1018D000C32A20E0E22AF82A0E94C32A8C010E942F
:1018E000C32A20E0022B182B0E94DB2A85E08A9570
:1018F000F1F70000F894B70180910D0190910E016D
:101900000E94180B90930E0180930D01B8018091F5
:101910000F01909110010E94180B90931001809379
:101920000F0178940E94470700917F011091800178
:1019300020918101309182016B017C01C01AD10A92
:10194000E20AF30A970186010830110521053105E5
:1019500008F449C060937F017093800180938101F6
:1019600090938201009118011091190120911A01A0
:1019700030911B01601B710B820B930B623371055D
:101980008105910580F410920E0110920D011092C4
:10199000100110920F011092120110921101109279
:1019A0001401109213012091170141E0BE01695FFB
:1019B0007F4F8DE091E00E94880A2091170180916D
:1019C0000901282740E0BE01695F7F4F81E191E076
:1019D0000E94880A86E0FE013796A2E2B1E00190FB
:1019E0000D928A95E1F786E0FE013796DE011196A9
:1019F00001900D928A95E1F729813A814B815C81B2
:101A00006D817E8180E090E02C96E8E00C94922C31
:101A1000CF936CEC71E083ED91E00E945307C82FE7
:101A2000882321F083ED91E00E94A5079091D401D5
:101A300086E0E3EDF1E0DF01282F1D922A95E9F71A
:101A40009093D401ACECB1E001900D928A95E1F74E
:101A500081E0C11103C0911101C080E08170CF917C
:101A60000895A6E3B0E0E7E3FDE00C947C2C409100
:101A7000D3015091D4016091D5017091D60180912C
:101A8000D7019091D8010E943B0C2093D301309351
:101A9000D4014093D5015093D6016093D701709340
:101AA000D80186E0E3EDF1E0DE01599601900D9258
:101AB0008A95E1F786E0FE017996DE011D96019098
:101AC0000D928A95E1F786E0FE013D96DE01539680
:101AD00001900D928A95E1F786E0FE017396A3EDE1
:101AE000B1E001900D928A95E1F786E0E3EDF1E037
:101AF000DE019B9601900D928A95E1F786E0FE014A
:101B0000BB96DE01179601900D928A95E1F786E06B
:101B1000FE013796DE01119601900D928A95E1F74C
:101B200086E0FE013196DE015F9601900D928A9566
:101B3000E1F786E0FE017F96DE01959601900D9219
:101B40008A95E1F786E0FE01B596A3EDB1E001903C
:101B50000D928A95E1F786E0E5E1F2E0DE01D196AB
:101B600001900D928A95E1F78091D4019AA9892B71
:101B70008093D4010E94080D811109C08091D20187
:101B80001092D2018170E696E2E00C94982C81E0EC
:101B900090E0F6CFCF93DF93682F81E06A3019F0A1
:101BA0006D3031F480E00E94590EDF91CF9108959D
:101BB00080917D0490917E0426E0FC01A7E7B4E0CB
:101BC00001900D922A95E1F7603E08F459C026E095
:101BD000FC0111922A95E9F7C0917D04D0917E0411
:101BE00046E050E0BE0187E794E00E94312D892B4A
:101BF00059F1CE01875792409C0145E036952795D3
:101C00004A95E1F741E050E0BA0102C0660F771F44
:101C10002A95E2F79B016091750270917602262B5E
:101C2000372B059665E0969587956A95E1F7FA0159
:101C300002C0EE0FFF1F8A95E2F7CF01822B932B94
:101C400090937602809375029E0121573240409115
:101C50007402642F70E0C9010E94582C481B463062
:101C600010F4240F311D2115F2E03F0710F030E091
:101C700020E029583D4F30937E0420937D0495CF7A
:101C8000F6E06F9FB001112460527A4F46E050E0B9
:101C90000E94A32CA1CFCF93DF93EC01FE0184918E
:101CA000811103C0DF91CF9108950E94CA0D219642
:101CB000F5CFCF93382FE0917D04F0917E04E75764
:101CC000F24020917402622F70E0CF010E94582CE4
:101CD000281B822F332361F066E00E94042DC82F59
:101CE000C15010F4CF91089580E20E94CA0DF8CF40
:101CF0009F01280F311D2115324018F080E0F0E0DF
:101D0000E0E08E0F9F2F911D89589D4F90937E0488
:101D100080937D04E7CF0E944B0E81E00E94590E14
:101D20000895CF93C82F6FEF81116EE685E290E0A2
:101D30000E94D02C6FEFC11160E386E290E00E9418
:101D4000D02C6FEFC1116EE287E290E00E94D02CA0
:101D5000CF910895CF93DF93C9E7D1E060E0CE0142
:101D60000E94D02C2196C11584E0D807B9F7DF91E5
:101D7000CF9108950F931F93CF93DF93843000F595
:101D800061111EC094E0899FE0011124C759DE4F04
:101D900082E090E0442311F090E080E0632F022F76
:101DA000142F8C0F9D1F0E94D02C83E090E01123F4
:101DB00011F081E090E0602F8C0F9D1F0E94D02CCD
:101DC000DF91CF911F910F9108951F93CF93DF93D0
:101DD000C62F8430E8F46530D8F44830C8F4632F57
:101DE000122F90E1C99FE001112450E0440F551FCC
:101DF000C40FD51F90E5899FC00DD11D1124CE01C0
:101E000089960E94D02C612FCE018A960E94D02CF8
:101E1000DF91CF911F910895B0E0A0E0E2E1FFE0F3
:101E20000C94722CA0900C02B0900D0281E090E016
:101E300090930D0280930C020FE614E0D12CC12C7C
:101E4000912C7601812C19C0FE01EE0DFF1DEE0FC5
:101E5000FF1FE15DFC4F259134914C2F682D892D9A
:101E60000E94E50E2196C830D10571F788E0E80E92
:101E7000F11C839485E0881619F0D0E0C0E0E4CF2F
:101E8000F8012591349141E060E0892D0E94BA0E5D
:101E9000F80132962591349140E060E0892D0E944E
:101EA000BA0E0C5F1F4F939488E2C80ED11C84E0D9
:101EB0009812C7CFB0920D02A0920C02CDB7DEB738
:101EC000ECE00C948E2C80E00E94910E60E088E2A1
:101ED00090E00E94D02C0E940C0F0E94AA0E81E07C
:101EE0000E94910E089585E290E00E94AC2C8E36FF
:101EF00089F486E290E00E94AC2C803359F487E2AA
:101F000090E00E94AC2C91E08E3209F090E0892F95
:101F10008170089580E0FCCFFF920F931F93CF93C1
:101F2000DF93843048F5611127C024E0829F80014F
:101F3000112407591E4F82E090E0442311F090E0F5
:101F400080E0F42E800F911F0E94AC2CC82FD0E0AF
:101F5000DC2FCC2783E090E0FF2011F081E090E0BF
:101F6000800F911F0E94AC2C9E01282BC901CDB778
:101F7000DEB7E5E00C94952C90E080E0F8CF0F936D
:101F80001F93CF93DF93843030F5653020F54830D0
:101F900010F520E1629FE001112450E0440F551F2D
:101FA000C40FD51F30E5839FC00DD11D1124CE0174
:101FB00089960E94AC2C082F10E0102F0027CE012C
:101FC0008A960E94AC2C9801282BC901DF91CF91F1
:101FD0001F910F91089590E080E0F8CF462F209157
:101FE000CA013091CB01232BD1F4703F39F4603F0B
:101FF000B1F48091D9019091DA010895672F75307D
:1020000038F4483060F4843050F40E94BF0F0895D3
:102010007D3F41F4411103C041E0843048F090E03D
:1020200080E008957C3FD9F74111F9CF8430B8F7AB
:1020300060E00E948C0F0895CF92DF92FF920F9381
:102040001F93CF93DF936C010091DB018091B3016B
:10205000082BC3E0D0E010E0FC2EC8010C2E02C01B
:10206000959587950A94E2F780FD0CC02197A0F71B
:10207000F12C8F2DDF91CF911F910F91FF90DF9069
:10208000CF900895B6018C2F0E94EE0F0E94560843
:10209000019761F3EECFCF93DF93EC010E941C1008
:1020A000BE010E94EE0F0E945608DF91CF91089565
:1020B000FC0124812223B9F0808191810E944B1080
:1020C00092959F70963089F050F49250923058F467
:1020D000803F19F030F4883E30F481E008959A5042
:1020E000F5CF843FD1F380E00895883EB0F3813F7F
:1020F000D1F7F3CFA6E0B0E0E0E8F0E10C947B2C60
:1021000049835A8349815A819923A1F0222391F06E
:10211000CA010E941C10182F682F89819A810E9481
:10212000BE0969817A81812F0E94EE0F2696E3E035
:102130000C94972CCA010E947609182FF2CFAB019C
:1021400024E630E0BC0188E70E94C82B21E0892BFF
:1021500009F020E0822F08958091020290910302FD
:10216000911103C091E089270895882369F062E006
:1021700070E080E193E00E949F10811103C0809184
:10218000020208951092020280910202EBCFCF93D7
:10219000C0910202809103028823D1F00E94470778
:1021A000605A75418F4F9F4F6093FE017093FF01FE
:1021B0008093000290930102C11108C062E070E0B8
:1021C0008EE093E00E949F10811105C0C091020231
:1021D0008C2FCF91089581E080930202F7CFB0E079
:1021E000A0E0E5EFF0E10C94702C809103028823CD
:1021F00009F405C187E792E090937E0480937D0403
:102200008EE293E00E948B0E88E293E00E948B0E98
:102210008091DB010E94300A8130D9F148F0823090
:10222000D9F18330E1F182E193E00E944B0E04C0CA
:1022300084E293E00E948B0E809175029091760269
:10224000892B09F4C3C080910302882309F4BEC01E
:102250008091FD018111BAC00E94C71020917502C2
:10226000309176022115310509F4B0C080E041E0DB
:1022700050E0082F10E03A01082E02C0660C771CCF
:102280000A94E2F7B30162237323672B59F48F5F3B
:10229000F0CF80E293E0CECF8CE193E0CBCF88E12A
:1022A00093E0C8CF9091FC0190FFAEC0880F880FDB
:1022B000880F80933B0110923E01895F80933C011F
:1022C00083E080933F0124E630E047E050E069E39B
:1022D00071E088E70E94842B892B09F077C0A80160
:1022E00085E0440F551F8A95E1F78091FC0180FF3E
:1022F0009DC0ECEDF1E080E2DF011D928A95E9F7E7
:10230000AEE5B1E00AE511E0882483942D91E8015F
:1023100069918E01640F752F711D69587D4F30E0F2
:1023200024523E4FF90197E07F01E21AF30A982CFC
:1023300001C0990CEA94EAF77B01B12CE70189917D
:102340007E018921A92EAB18DA2DD770CD2E0D2E46
:10235000000CDD08C82F01C0CC0FDA95EAF7AC2ECF
:10236000D194C194D108D7E0CD22DD240C2C01C03A
:1023700086950A94EAF7DC2ED82A80818D298083FD
:10238000B39488E0B812DACF915031969F3F61F64E
:10239000C1E0A236BC0709F0B9CF04E610E020E2A4
:1023A00030E04CED51E060E488E70E940E2C892B70
:1023B00069F4E301C095D095809175029091760201
:1023C000C823D923D0937602C0937502809102026C
:1023D0008823A9F00E9447070091FE011091FF0198
:1023E0002091000230910102601B710B820B930B54
:1023F0006F3F7F4F8F4F9F4710F40E94AC10CDB7B7
:10240000DEB7EEE00C948C2C8295880F807680935A
:102410003B019801369527953695279520933E01E7
:10242000815E80933C0120933F014DCF49585D4F21
:1024300004E610E020E230E0B6CF9091B50192FBC7
:10244000222720F9281779F080FB92F99093B501A3
:102450006091B4017091B50184E090E00E94EE2C8F
:1024600082E00E940A0A089590E080E00E94BA2C5F
:10247000863E9E4F19F40E94730F089580E00895E0
:10248000CF93DF930E942A2A879A0E94550B6AE510
:102490008AE30E94F60B2FEF80E792E02150804004
:1024A0009040E1F700C0000082E00E94D70B83E07B
:1024B0000E94D70B84E00E94D70B85E00E94D70BC7
:1024C00086E00E94D70B60E080E10E94F60B80E07E
:1024D0000E94D70BD82F81E00E94D70BC82F0E94F3
:1024E000DB2AD23419F481E0C13009F080E0817038
:1024F00080930901882321F064E08FE00E94F60BAD
:10250000DF91CF9108951F920F920FB60F92112471
:102510002F933F934F935F936F937F938F939F93EB
:10252000AF93BF93EF93FF938091E10082FF09C0C7
:102530008091E20082FF05C08091E1008B7F809353
:10254000E1008091DA0080FF24C08091D80080FFF4
:1025500020C08091DA008E7F8093DA008091D900CC
:1025600080FF9BC080E189BD82E189BD09B400FE86
:10257000FDCF81E08093300280912202811109C059
:102580000E94E9050E9488068091E20084608093A1
:10259000E2008091E10080FF17C08091E20080FF9F
:1025A00013C08091E2008E7F8093E2008091E20070
:1025B00080618093E2008091D80080628093D8008F
:1025C00019BC85E0809330028091E10084FF29C02E
:1025D0008091E20084FF25C080E189BD82E189BD50
:1025E00009B400FEFDCF8091D8008F7D8093D80084
:1025F0008091E1008F7E8093E1008091E2008F7EE8
:102600008093E2008091E20081608093E2008091FB
:102610003102882309F447C084E08093300280911E
:1026200030028091E10083FF27C08091E20083FFA8
:1026300023C08091E100877F8093E10082E0809356
:102640003002109231028091E1008E7F8093E10090
:102650008091E2008E7F8093E2008091E2008061B1
:102660008093E20042E060E080E00E9456068091A4
:10267000F00088608093F000FF91EF91BF91AF91DF
:102680009F918F917F916F915F914F913F912F918A
:102690000F900FBE0F901F90189519BC109230022A
:1026A0001092220276CF8091E30087FD02C081E084
:1026B000B4CF83E0B2CF78941F920F920FB60F92EF
:1026C00011248F939F93AF93BF9380911E0290919B
:1026D0001F02A0912002B09121020196A11DB11DFF
:1026E00080931E0290931F02A0932002B0932102B8
:1026F000BF91AF919F918F910F900FBE0F901F9040
:1027000018959C014FB7F89480911E0290911F027A
:10271000A0912002B09121024FBF821B930B08951C
:102720002FB7F89480911E0290911F02A091200271
:10273000B09121022FBF08950E949013209117029B
:10274000211104C020911802222321F09093140239
:102750008093130220911902211104C020911A02C2
:10276000222321F0909312028093110285E192E0DE
:102770000E94A507089590911702662309F480C06E
:1027800091110CC090911802911108C090911A02F9
:10279000911104C090911902992331F098E090931F
:1027A0000E0291E090930F028D3C41F40E94E207EB
:1027B0008195809318020E949C1308958E3C19F411
:1027C0000E94E207F6CF8F3C31F40E94E207819528
:1027D00080931702F0CF803D19F40E94E207F8CFF2
:1027E000893D29F40E94C00780931902E4CF8A3DF5
:1027F00021F40E94C0078195F7CF8B3D31F40E94F0
:10280000C007819580931A02D6CF8C3D19F40E949F
:10281000C007F8CF2FE2280F2830E8F4815D990B2C
:1028200041E050E001C0440F8A95EAF7809116021A
:10283000842B8093160281E090E0AC0102C0440F2B
:10284000551F2A95E2F78091D401842B8093D401FF
:102850000E94080D08958D3D31F480911002816031
:1028600080931002A8CF8E3D21F4809110028260E7
:10287000F7CF8F3D09F08AC0809110028460F0CFBD
:102880004FE2480F8D3C41F59091180297FF2AC006
:102890001092180280911702811106C080911802CF
:1028A000811102C010920E0280911902811106C09E
:1028B00080911A02811102C010920F02483008F074
:1028C0007ACF81E090E001C0880F4A95EAF78095C1
:1028D0009091D4018923BACF8E3CC9F4909118020B
:1028E0001916B4F2483008F03CC0815D990B21E024
:1028F00030E0B90102C0660F771F8A95E2F7CB017D
:10290000809590911602892380931602C3CF8F3C45
:1029100029F497FFE7CF10921702BCCF803D19F43E
:102920001916CCF3DFCF90911902893D29F41916BD
:10293000CCF610921902AECF8A3D19F497FFD2CF90
:10294000F8CF8B3D39F490911A0297FFCBCF1092BC
:102950001A02A0CF8C3D31F690911A021916BCF3E1
:10296000C1CF8D3D31F4809110028E7F8093100293
:1029700091CF8E3D21F4809110028D7FF7CF8F3D56
:1029800009F088CF809110028B7FF0CF283008F4B7
:1029900052CF11CF9091AB01292F282361F0809560
:1029A00089238093AB01882339F00E949013909380
:1029B000AA018093A901089590E080E0F8CFCF9319
:1029C000C09123028091A001C82B8091AB01882384
:1029D000C9F00E9490132091A9013091AA01821B95
:1029E000930B8838934110F00E9421098091AB012C
:1029F000C82BE6E7F1E097E080E0915031F58111D6
:102A00000E942109C093740148E050E061EA71E03E
:102A100084E791E00E94312D892BA9F088E0E4E75A
:102A2000F1E0A1EAB1E001900D928A95E1F7E09121
:102A30001B02F0911C02309731F00280F381E02DEF
:102A400084E791E00995CF91089521912223A9F27D
:102A50008F5FD3CFCF93C6E0E6E7F1E0DF018C2FA5
:102A60001D928A95E9F71092A0010E94DF14E5E11A
:102A7000F2E0DF011D92CA95E9F710920E02109262
:102A80000F02109210020E949C13CF910895AAE2A7
:102A9000B0E0EDE4F5E10C947B2CE2E3F2E0809110
:102AA000F100819382E0EA33F807C9F7809133029D
:102AB000833009F47FC008F5813009F456C08230B4
:102AC00009F4C2C08091E80083FFFCC0809132020B
:102AD000909133029A3008F0F5C0E92FF0E0ED58FC
:102AE000FA4E0C94242D35165B1662165B16621690
:102AF000B316D5166216DF17EC178A3009F493C0A7
:102B00008B3009F474C08930E9F680913202813249
:102B1000C9F68091360290913702009711F0029722
:102B200089F68091E800877F8093E8008091E80033
:102B300082FF3BC08091F3009091F2008927982793
:102B40008927029731F48091F100813011F08630AD
:102B500021F48091F100809325028091E8008B7729
:102B60008093E8000E943706ADCF80913202813A0F
:102B700009F0A8CF8091E800877F8093E8008091DA
:102B8000360290913702892B61F060E090E080E09E
:102B900070E00E94E3068091E8008B778093E80064
:102BA00091CF68E086E292E0F3CF8091300281110C
:102BB000BDCF88CF80913202813A09F083CF8091D6
:102BC000360290913702892B09F07CCF8091E80082
:102BD000877F8093E8008091E80080FFFCCF8091A0
:102BE00040018093F1008091E8008E77B9CF809109
:102BF0003202813209F066CF80913602909137021D
:102C0000892B09F05FCF8091E800877F8093E800EF
:102C10000E94370680913402809340011092230273
:102C20000E942A154FCF80913202813209F04ACF9B
:102C30008091E800877F8093E8000E9437068091AA
:102C40003502809324023ECF80913202813A09F00E
:102C500039CF8091E800877F8093E8008091E80079
:102C600080FFFCCF80912402BCCF803889F082386D
:102C700049F5809136028F70873020F58093E90006
:102C80008091EB0085FB882780F91092E90006C04F
:102C900080912E0290912F02911182609091E80014
:102CA000977F9093E8008093F1001092F10080915B
:102CB000E8008E7727C0282F2D7F21F48823A1F0EC
:102CC000823029F18091E80083FF0AC08091E800FA
:102CD000877F8093E8008091EB0080628093EB0017
:102CE000AA96E3E00C94972C80913402813051F73E
:102CF000933009F080E080932F021092E9008091D8
:102D0000E800877F8093E8000E943706DBCF809140
:102D100034028111F2CF809136028F702FEF280F8D
:102D2000263080F68093E9002091EB0020FFE5CF6C
:102D3000933031F48091EB0080628093EB00DDCF23
:102D40009091EB0090619093EB0021E030E001C0A6
:102D5000220F8A95EAF72093EA001092EA00809108
:102D6000EB008860EACF8111ADCF109134021F775C
:102D70008091E3008078812B8093E3008091E800CC
:102D8000877F8093E8000E9437068091E80080FFEB
:102D9000FCCF8091E30080688093E30083E0111111
:102DA00001C082E0809330028DCF8058823008F0DD
:102DB00089CF20913402309135022C3DA3E03A07AF
:102DC000A1F583E08A838AE289834FB7F894DE0114
:102DD000139620E03EE051E2E32FF0E050935700DD
:102DE000E49120FF03C0E295EF703F5FEF708E2FFC
:102DF00090E0EA30C0F0C7968D939D932F5F243109
:102E000059F74FBF8091E800877F8093E8006AE21E
:102E100070E0CE0101960E94E3068091E8008B7776
:102E20008093E8004FCFC096E7CF80913602909113
:102E30003702432F55274330510509F44FC078F529
:102E40004130510509F445C08BE590E0EFE7F4E02F
:102E50004230510509F036CF2091E800277F2093BA
:102E6000E80020913802309139028217930708F464
:102E70009C0140E02115310509F06EC041116CC084
:102E80008091E80082FDC9CF80913002882329F229
:102E9000853019F28091E80083FFF2CFBECF413236
:102EA000510509F44AC04232510509F00BCF833075
:102EB000910508F007CFFC01EE0FFF1FEB59FE4F05
:102EC0000190F081E02D8E599E4FDC018C9190E0B5
:102ED00020C082E190E0EAEDF4E0BECF332721305C
:102EE0003105D9F078F022303105F9F02330310581
:102EF00009F0E8CEECEEF4E0E4918E2F90E0ECEEF9
:102F0000F4E007C0ECE2F5E0E4918E2F90E0ECE213
:102F1000F5E0009709F4D6CE9FCFE8E1F5E0E49123
:102F20008E2F90E0E8E1F5E0F4CFEAE0F5E0E491FF
:102F30008E2F90E0EAE0F5E0ECCF8330910508F0C9
:102F4000C1CE880F991FFC01E559FE4F0190F08119
:102F5000E02D89E090E080CF80913002882309F451
:102F60005CCF853009F459CF8091E80083FD55CFBF
:102F70008091E80082FD84CF8091E80080FF7ACFC5
:102F80008091F3009091F2008927982789272115D5
:102F9000310519F08830910550F041E0089709F0AB
:102FA00040E08091E8008E778093E80063CF449101
:102FB0004093F1003196215031090196E8CF8038D5
:102FC00009F080CE8091E800877F8093E8008091AF
:102FD00031028093F1006BCE811174CE10913402D6
:102FE000123008F06FCE8091E800877F8093E80070
:102FF000109331020E9437061123D1F084E08093B0
:10300000300242E061EC81E00E94560642E261EC4F
:1030100084E00E94560642E261EC82E00E9456067D
:1030200042E260EC83E00E945606809130024ACE74
:103030008091E30087FDE2CF81E0E1CF1F920F9204
:103040000FB60F9211242F933F934F935F936F937B
:103050007F938F939F93AF93BF93CF93EF93FF9300
:10306000C091E900CF708091EC001092E90080914E
:10307000F000877F8093F00078940E9447151092AB
:10308000E9008091F00088608093F000C093E9002F
:10309000FF91EF91CF91BF91AF919F918F917F91D0
:1030A0006F915F914F913F912F910F900FBE0F90B5
:1030B0001F901895109223020E942A152FEF84E387
:1030C0009CE0215080409040E1F700C0000088E182
:1030D0009CE00FB6F894A895809360000FBE909383
:1030E0006000FFCF882341F080959091A001892353
:1030F0008093A0010E94DF140895882339F09091F5
:10310000A001892B8093A0010E94DF1408958823D9
:1031100021F00E942C090E94DF140895882339F0C1
:1031200090912302892B809323020E94DF1408953B
:10313000882309F444C0823879F40E94B30781FFE0
:103140003EC089E30E948C070E94DF1489E30E943D
:1031500080070E94DF140895833859F40E94B30752
:1031600080FF2DC083E50E948C070E94DF1483E559
:10317000EECF843859F40E94B30782FF20C087E461
:103180000E948C070E94DF1487E4E1CF9CEF980F28
:10319000913AE8F290E2980F983050F4877091E0FD
:1031A00001C0990F8A95EAF7892F0E942C09D1CF87
:1031B00093E3980F933118F460E00E94BB130895D5
:1031C000CF938823D1F0C82F8238C9F40E94B30767
:1031D00081FD13C089E30E948C070E94DF142FEF4A
:1031E00087EE93E0215080409040E1F700C000005E
:1031F00089E30E9480070E94DF14CF9108958338ED
:10320000A1F40E94B30780FDF8CF83E50E948C07EC
:103210000E94DF142FEF81EE94E021508040904017
:10322000E1F700C0000083E5E4CF8438A1F40E94F8
:10323000B30782FDE2CF87E40E948C070E94DF146F
:103240002FEF81EE94E0215080409040E1F700C0E4
:10325000000087E4CECF8CEF8C0F813A70F4E6E764
:10326000F1E08CE791E02191C21711F18E179F07D1
:10327000D1F78C2F0E948C07BECF80E28C0F883054
:1032800068F4C77021E030E001C0220FCA95EAF768
:1032900080912302822B80932302ADCF83E38C0F96
:1032A000833108F0AACF61E08C2F0E94BB13A5CF19
:1032B0008C2F0E9480070E94DF14DBCF1F93CF93D7
:1032C000DF93182FEB010E94E018209739F4812F2B
:1032D0000E949818DF91CF911F9108958FE99FE088
:1032E0000197F1F700C000002197EFCFB0E0A0E018
:1032F000ECE7F9E10C94742CEC018AE0A82E28810B
:10330000222309F4CEC0213009F04FC089818130D9
:10331000A9F48E010E5F1F4F8A8160E570E089334A
:1033200011F065E070E00E945E19E8018FE19EE413
:103330000197F1F700C000002196E1CF823039F407
:103340008E010E5F1F4F8A810E94E018EECF8330FE
:1033500039F48E010E5F1F4F8A810E949818E5CFC5
:10336000843011F02196E2CF2A81229690E080E00D
:10337000AE014F5F5F4F2053330B2A30310550F0C1
:103380000097A1F2EFE9FFE03197F1F700C00000EC
:103390000197F6CFA89EB001A99E700D1124C90116
:1033A000860F971F2981EA01E3CFE22FF0E0E05A70
:1033B000FA4FB490822F86958695869590E0FC0111
:1033C000E05BFA4FE4902770F12C022E02C0F594D6
:1033D000E7940A94E2F7E1E0EE22FF24FC01E05CCE
:1033E000FA4FC490D12C022E02C0D594C7940A94EF
:1033F000E2F7F1E0CF22DD24FC01E05DFA4F049119
:1034000010E002C0159507952A95E2F70170112783
:10341000E114F10449F081EE0E94E0188FE19EE48E
:103420000197F1F700C00000C114D10449F086EE05
:103430000E94E018EFE1FEE43197F1F700C00000D0
:1034400065E070E08B2D0E945E198FE19EE401978C
:10345000F1F700C00000C114D10449F086EE0E94CB
:103460009818EFE1FEE43197F1F700C00000E11495
:10347000F10449F081EE0E9498188FE19EE40197D3
:10348000F1F700C000000115110509F455CF65E002
:1034900070E08CE20E945E19EFE1FEE43197F1F7F3
:1034A00049CFCDB7DEB7EAE00C94902C9091B501EE
:1034B00092FF10C098E0899F90011124622B6093C5
:1034C0009F010E94210A0E94901390939E01809375
:1034D0009D0108950E94210A0895ABE1B0E0E3E761
:1034E000FAE10C947A2C4E8B5F8B688F798F8A8FE0
:1034F0009B8F192F91111092A0011D8A86E0FE0169
:103500007696DE011F9601900D928A95E1F70A8D5D
:103510008091B50182FF25C00E94901320919D01EA
:1035200030919E01821B930B8838934108F460C050
:1035300080919F0182FB882780F991E0892780FF95
:1035400003C082E00E940A0A0E9490132091A90100
:103550003091AA01821B930B8838934110F00E948E
:103560002109002341F021E04F85588969897A8932
:10357000C8010E947A100B8B1C8B87E0FE013F96DE
:10358000DE01189601900D928A95E1F7CE0108961A
:103590000E94572081112AC087E0FE013896DE0183
:1035A000119601900D928A95E1F78C858823F1F0B0
:1035B00020913A0230E0C901019687709927409125
:1035C000730248171906B1F097E0929FD001939FBC
:1035D000B00D1124A55CBD4FFE01319601900D92F6
:1035E0009A95E1F780933A020E94450917E026C0B8
:1035F00080E0A5CF109223020E942A1510923A0271
:103600001092730287E0E5E9F1E0DF011D928A95EF
:10361000E9F76B96E4E00C94962C819FC00111248D
:10362000855C9D4F0E945720882399F380917302F7
:1036300090E00196877099278093730280917302BE
:1036400090913A028913E9CFE4CFA6E0B0E0EBE233
:10365000FBE10C947A2C8C019093DA018093D901D0
:10366000011580E21807C0F4802F0E949818C80145
:103670000E94430A9801205E31092830310518F074
:103680000115110531F40E9487182696E4E00C9488
:10369000962C0E947218F9CF80EF89838A830E944A
:1036A00090138160682F9C838B8349815A817C8130
:1036B00081E090E00E946D1AE8CFA6E0B0E0E3E67A
:1036C000FBE10C947A2C8C019093DA018093D90160
:1036D000011580E21807C0F4C8010E94430A98014E
:1036E000205E31092830310518F00115110549F423
:1036F0000E948E18802F0E94E0182696E4E00C9419
:10370000962C0E947D18F6CF80EF89838A830E94D1
:1037100090138160682F9C838B8349815A817C81BF
:1037200081E091E00E946D1AE8CFA4E0B0E0EBE9FF
:10373000FBE10C94732CFC018481882309F4B8C14B
:103740007F0121E0408151816281738195810E94D6
:103750007A108C01D70115968C91882309F4B9C091
:10376000C80197578038910508F0B3C0D02EBFE04C
:10377000B01708F48EC18FEF93E00E94AC2C81113A
:1037800088C109E711E0D11036C019821A821B8264
:103790001C8299249A946801FFEFCF1ADF0AC801AE
:1037A0000E94AC2C89831A82882309F472C181306B
:1037B00009F089C0580122E0A20EB11CC6010E9486
:1037C000AC2CC82E8A83882309F463C1C5010E94EA
:1037D000AC2CD82E8FEF8C0D8330D8F4580143E0F9
:1037E000A40EB11CDB82DD2021F0CE0101960E94E7
:1037F00076198501D0CF0115E4E01E0709F449C10F
:10380000C8010E94AC2C811101C0DA940F5F1F4FD8
:10381000BACF8BEF8C0D833070F5C8010396DB8235
:103820005C01DD2031F3580154E0A50EB11C0E946B
:10383000AC2C8C838823E9F20B811C8101308FEF43
:10384000180710F0102F002796E0C91681F0A7E0A6
:10385000CA1649F0C8010E945D1BEFE1FEE43197F2
:10386000F1F700C00000C8010E94251BC2CFC801AB
:103870000E945D1BBECFF4E0CF12BBCF580124E005
:10388000A20EB11CC80103960E94AC2CDD2009F4E5
:1038900000C1882309F4FDC08150990B989E9001C6
:1038A000999E300D11244D2D4150550BCA01820FA8
:1038B000931F019708F49DCFAFE9BFE01197F1F78F
:1038C00000C00000F6CFCE0101960E947619560185
:1038D00090CF10931F0100931E01F7018081918109
:1038E0009093210180932001F8013497E533F1058D
:1038F000B0F4E55AFE4FE491D70115968C9120EB78
:10390000882311F02E2FE0EBA8E2B1E090E080E0F8
:103910003D913E131DC0875F9E4FFC01278FD7014D
:1039200015968C9198013A9521153F41B0F4882362
:1039300009F456C30737FCE71F0709F402C108372B
:103940002CE7120789F4882309F454C382E0FCC0F1
:10395000019686309105E1F6E2CF0730EEE71E07CB
:1039600009F075C00E94740AD70115968C918823BE
:1039700081F00330BCE71B0709F40FC108F0F0C069
:103980000115FCE71F0709F4F9C001301C4709F4D1
:103990000AC1D70115968C9115970D911C9188231A
:1039A00009F40FC1C8010E941C10D82E682FC8014D
:1039B0000E94BE09B8018D2D0E94EE0F0E9456088C
:1039C000D82E192F982EF701B580C680C2948FE0AB
:1039D000C82280919F01877009F1AB2CBB20F9F0C0
:1039E000892F807F803469F080E28D0D8830B0F0BF
:1039F000892F807E803229F4F1E0FD1578F4CC2007
:103A000069F08091B50182FF09C082E00E940A0A34
:103A100080919F018770AA24A3948111A12C012F6A
:103A200002950F700C3008F07FC2E02FF0E0E55EE9
:103A3000F24E0C94242DE61DE61D1E1E1E1E941F24
:103A4000D71E941F941FDC1E461F571F571F882325
:103A500009F4C6C2F801FE57E031F10508F06ACF5B
:103A6000EC5CF24E0C94242D441D5C1D711D751DE3
:103A7000771D791D7B1D9A1C821D911D9A1C9A1C15
:103A80009A1C9C1D981D9F1D80E00E94120C109294
:103A90001C0180919F01877059F0F701858188236F
:103AA00039F08091B50182FF03C082E00E940A0ACA
:103AB0002496EBE00C948F2C4091150150911C0141
:103AC00050FB47F95695537080911D018370880F04
:103AD000880F582B60E070E08FE090E00E94E22CAD
:103AE000D8CF81E00E94270CD4CF8FEFFBCF8AE0A4
:103AF000F9CF86EFF7CF9091170181E089270E94D7
:103B0000740AC7CF80911C01811101C084E08F5FCE
:103B100018160CF081E0883008F087E080931C01D3
:103B2000B8CF80911C01811101C084E08150F0CF99
:103B300081E080931D01ADCF10921D01AACF82E0DC
:103B4000F8CF882349F081E00E94210A43E062E037
:103B500081E00E94DD099DCF81E00E94FD09F6CF42
:103B60000B354CE7140759F10C355CE71507E9F004
:103B70000A351C4709F00DCF81E01EC010922302C8
:103B80000E942A159FEFA4E3BCE09150A040B040F2
:103B9000E1F700C000000E94B30B6FEF7FEF90E0F1
:103BA00080E00E94EE2C0E945A188091B50182FBA1
:103BB000882780F991E089270E941D12EACE80E0D3
:103BC000FBCFC8010E947609D82EF4CE012F0F70CA
:103BD000107F11F00295007F8D2DBB20B9F00023DE
:103BE00069F090E29D0D983010F0D11009C08091DD
:103BF0002302082B009323020E94DF148D2D43C063
:103C00008091A001082B0093A001F6CF0E94981884
:103C1000002309F440C080E28D0D883010F091102F
:103C200004C0802F0E942C0906C000958091A0013D
:103C300008230093A0010E94DF142DC0012F0F70F4
:103C4000107F103211F00295007F8D2D992059F0D0
:103C500021E0921609F486C0BB2009F492C0CC2062
:103C600009F440C0CBCF8091B50182FD37C0BB20A5
:103C700069F0002339F080912302082B009323027E
:103C80000E94DF1480E00E94E01805C080E00E94DE
:103C900098180111C6CFAA20B1F080919F0180FD34
:103CA00012C0D70115961C928695869586950E941E
:103CB000210AC7010E94951B80919F0186958695D8
:103CC00086950E94FD0920E0F701408151816281C3
:103CD0007381848195810E947A10EACEBB2069F1BC
:103CE000C11004C0802F0E948E18D5CF41E0C412AD
:103CF00010C01091AB01802F8123081761F20E9440
:103D000090139093AA018093A901012B0093AB011A
:103D1000C2CF55E0C512BFCF802F0E948E18802FD2
:103D20000E94CA1480919C01902F9823091709F4CE
:103D3000B2CF082B00939C01AECFC1100AC0802FD8
:103D40000E948718802F0E94CA14802F0E943B096E
:103D5000A2CF81E0C8129FCF80912302802309F473
:103D60009ACFEDCFBB2029F095E09C1508F493CFB6
:103D7000B9CFA4E0AC1508F48ECF802F0E9487182D
:103D80008ACFCC20D1F3893369F4BFEFE7EEF3E0BB
:103D9000B150E040F040E1F700C000008D2D0E94DE
:103DA000981879CF8FE19EE40197F1F7F5CF6B2D4D
:103DB0008D2D0E94BB136FCF812F837091F5B110B1
:103DC00025C04D2D429546954770440F440F8D2DCB
:103DD0008F70042E01C0880F0A94EAF720E0D4FE09
:103DE00007C02FE030E001C0220F4A95EAF7209586
:103DF000169516951370123079F060F43091B30176
:103E0000113039F0822B83230E942D0A0E94B307C0
:103E100042CF832B822BF8CF282B8091B3018227AE
:103E2000F3CF8695BB2011F0812F8170882371F329
:103E30004D2D429546954770440F440F8D2D8F7040
:103E4000042E01C0880F0A94EAF720E0D4FE07C0D0
:103E50002FE030E001C0220F4A95EAF72095169531
:103E600016951370123069F050F43091DB01113067
:103E700029F0822B83230E94DA09C8CF832B822B5F
:103E8000FACF282B8091DB018227F5CF1F70BB2052
:103E900039F0812F0E94210A8D2D0E948E18B6CFF5
:103EA0008D2D0E948718812F0E94FD09AFCF8D2D87
:103EB00092EF9916F1F1991580F0A0EF9A16F1F0B2
:103EC000B1EF9B16A1F0BB2009F471C0CC2009F41E
:103ED0006BC08D2D0E94E01827C0E3EF9E1681F184
:103EE000F4EF9F12F0CF8091B50182FD34C0812F95
:103EF0008F71BB2011F10E94210A16C0BB2089F0EE
:103F000024E02C1588F01F7181E090E0012E01C0A3
:103F1000880F0A94EAF79091DB0189270E94DA0959
:103F200003C045E04C1578F70850043008F0B3CED4
:103F30006DCF812F8F71BB20F1F20E94FD09F4CF6C
:103F400080E0BB2059F31F7181E0012E01C0880F72
:103F50000A94EAF7E3CFBB20D1F080919F018770EC
:103F6000843049F40E943409812F8F710E94FD0929
:103F70000E94B307A8CE54E05C15D0F31F71812FC7
:103F80000E94210A63E0812F0E94561AF1CF84E03B
:103F90008C1530F40E94340964E0812F8F71F4CFC6
:103FA00081E00E940A0AE4CF812F8F71A4CFCC2038
:103FB000A1F0893369F49FEFA7EEB3E09150A040E0
:103FC000B040E1F700C000008D2D0E949818ACCFE2
:103FD000EFE1FEE43197F1F7F5CF812F8F71ADCF8F
:103FE0000737FCE71F0709F4B7CD08372CE712079E
:103FF00009F0BACC82E0B1CDCF93DF9380919B01E1
:10400000807F09F04DC080919A01882309F448C04F
:10401000E091730250913A02C0919601D0919501BE
:10402000609197017091980147E05E17C9F18E2F5A
:1040300090E0E49FF0011124E55CFD4F24812223F0
:1040400091F1489FF001499FF00D1124DF01A55C1B
:10405000BD4F11962C9111972C1325C02C912D1327
:1040600022C015962C91159721111DC012962D91E5
:104070003C91261B370B283C3105A8F480919B010D
:104080008F70806180939B01EF5BFD4F80818F700B
:104090008061808385E991E00E94951B0E9445091B
:1040A000DF91CF910895FC013196E770BECFA4E176
:1040B000B0E0EDE5F0E20C94722C8C0186E0F801A2
:1040C000DE011F9601900D928A95E1F7F801848137
:1040D000E58095E9A92E91E0B92E90919901911171
:1040E00028C0882319F1EE20F1F0C8010E94581071
:1040F000F82E8823C1F087E0F801D50101900D92D8
:104100008A95E1F780919901813031F48091950190
:10411000909196010E944B100E94FC1F8F2D649677
:10412000ECE00C948E2CC8010E94951BFF24F394A4
:10413000F5CFD080C18082809380F0909A01209149
:10414000970130919801A401421B530BFF2009F401
:10415000D8C0483C510508F091C08823F9F29091ED
:10416000960180919B01282F207F09F055C0C9122C
:1041700014C090919501D91210C0E11047C08F7002
:10418000806180939B0185E991E00E94951B80915D
:104190009B01F8018683F12CC1CFE11037C06C2D53
:1041A0008D2D0E94CA056C2D8D2D0E94CA05E82E0A
:1041B0008111F1CFDF86C88A8F8598890E944B10C4
:1041C000292F22952F70243058F49F70223080F0D0
:1041D000992391F0F8019681907F71F4FE2C9ECF87
:1041E0002A50223068F0C8010E94951BEF2CF6CFB0
:1041F000992311F0882391F3805E8830A0F7EECFE9
:10420000803F60F3815F833070F7E8CF80919B013E
:10421000816080939B01BFCFC91207C09091950127
:10422000D91203C0EE2009F48DC0C8010E945810B5
:10423000882309F478CFEE2009F475CF80919B0193
:10424000803288F020919501309196013987288736
:104250009B868A86909199019C871D868E87CE01C8
:1042600008960E94951B87E0F801A5E9B1E001904E
:104270000D928A95E1F70E94FC1F58CF90919B0107
:10428000292F207F51F485E991E00E94951B87E05A
:10429000F50111928A95E9F77ECF882309F43ECF84
:1042A000809196018C1110C080919501D8120CC09C
:1042B000E1100AC09683C8010E94951B87E0F501B2
:1042C00011928A95E9F72ACFC8010E9458108823D5
:1042D00009F429CFEE2009F426CF80919B0180328A
:1042E00010F220919501309196013A8329839C82A6
:1042F0008B82909199019D831E828F83CE010196BE
:10430000B0CF483C5105D0F6882309F40FCFFE2CDE
:10431000EE2009F408CF809196018C1120C0809185
:104320009501D8121CC080919B0180FD0FC0982F71
:10433000907F61F08683903F31F0982F907F905F5F
:104340008F70892B8683C8010E94951B87E0F80136
:10435000A5E9B1E001900D928A95E1F7DFCEC801A1
:104360000E94581081117FCF80919B0181608093C2
:104370009B01C8010E94951BD1CEA6E0B0E0E3EC02
:10438000F1E20C947A2C0E9490138C018091AC0184
:104390009091AD018017910781F019821A820E94D5
:1043A0009013682F49815A81792F80E090E00E9414
:1043B0006D1A1093AD010093AC012696E4E00C94C5
:1043C000962CA5E0B0E0E7EEF1E20C946E2CCE0165
:1043D00001967C0185E0D7011D928A95E9F73701A6
:1043E000570190E0C92E91E0D92E44244394512CDA
:1043F000F60181916F010E942B0B00C085E0882E91
:1044000081E0982EF40110E000E02191A22FA29506
:10441000AF70B0E090968C9190E02F7002C09595AF
:1044200087952A95E2F780FD0AC0D5018C9192010B
:10443000002E01C0220F0A94EAF7822B8C930F5FA3
:104440001F4F0430110509F7F601319780810E9452
:10445000400BB0EABA95F1F7EFEFAE1ABE0AF5E0FD
:10446000CF16F1E0DF0621F6DD24D394D4018D913F
:104470004D010E942B0B00C03D2D002E01C0330FBB
:104480000A94EAF7F70140E051E0DA012D91AD011D
:10449000822F82958F7090E0DC0190968C9190E055
:1044A0002F7002C0959587952A95E2F780FD03C08D
:1044B0008081832B80833196B1E045305B0729F7FB
:1044C000F401319780810E94400BE0EAEA95F1F710
:1044D0000F5F1F4F0830110549F6EEEAF1E085E065
:1044E000E80EF11C10E0D3018D913D0191918917E7
:1044F00021F0DF0111978C9311E0E614F70499F78E
:10450000112371F081E080937E010E9490139093BB
:104510007D0180937C01812F2596E0E10C948A2C0B
:1045200080917E018823B9F380917C0190917D0177
:104530000E948113059778F345E050E06EEA71E040
:1045400085EC91E00E94312D892B49F085E0EEEA5F
:10455000F1E0A5ECB1E001900D928A95E1F710929F
:104560007E01D9CF1F920F920FB60F9211248F9315
:104570009F93AF93BF9380911D02811113C08091CF
:104580001E0290911F02A0912002B091210241963B
:10459000A11DB11D80931E0290931F02A0932002C3
:1045A000B0932102BF91AF919F918F910F900FBE59
:1045B0000F901F901895AAE3B0E0E1EEF2E20C94A0
:1045C0006C2C85B7806885BF85B7806885BF84B748
:1045D000877F84BF0FB6F894A895809160008861AA
:1045E00080936000109260000FBE80E890E00FB6EC
:1045F000F89480936100909361000FBE84E598E089
:1046000090937301809372010E94E9050E948806CD
:104610008091E20084608093E2007894809130027F
:10462000882399F01091E9001F708091EC0080FFC1
:10463000F7C080E8182B1092E9008091E80083FD14
:104640000E9447151F701093E90082E084BD93E03B
:1046500095BD9AEF97BD80936E000E94730F8111F4
:1046600002C00E94630FE4E0F2E088E0DF011D92E7
:104670008A95E9F781E08093BE0160E080E00E94C6
:104680001D0861E080E00E941D08EFE8F1E031972D
:10469000F1F700C0000010E08091BE01181708F487
:1046A000C1C0809105010E94400B809106010E94CB
:1046B000400B809107010E94400B809108010E94ED
:1046C000400B00E011E0D8018D918D010E94400B5C
:1046D000B1E005301B07B9F71092AE011092C50189
:1046E0001092AF011092C6011092B0011092C70152
:1046F0001092B1011092C8011092B2011092C9013A
:104700000E943412811168C066EE7EEF90E080E076
:104710000E94EE2C60E082E090E00E94D02C81E0CC
:104720008093B30161E083E090E00E94D02C60E0D0
:1047300074E184E090E00E94EE2C60E086E090E07E
:104740000E94D02C60E087E090E00E94D02C40E0F6
:1047500050E0BA0188E090E00E94E22C60E084E240
:1047600090E00E94D02C60E087E190E00E94D02C85
:1047700060E08CE090E00E94D02C60E08DE090E062
:104780000E94D02C19821A821B821C821D821E82DA
:104790001F82188648E050E068E170E0CE01019683
:1047A0000E94C02C40E050E0BA0180E290E00E94FC
:1047B000E22C80E00E94910E0E94630F40E050E0E6
:1047C000BA018FE090E00E94E22C40E050E0BA0194
:1047D00083E190E00E94E22C82E090E00E94AC2C09
:1047E0008093B60184E090E00E94BA2C9093B501CA
:1047F0008093B4010E94E121EFE3FCE93197F1F7E6
:1048000000C000000E94E1218091C50180FF1CC012
:104810006FEF7FEF90E080E00E94EE2C0E94B30BE0
:1048200080E008CF60E0812F0E941008082F61E02F
:10483000812F0E941008E12FF0E0E354FE4F880F13
:10484000802B80831F5F28CF83E090E00E94AC2CF8
:104850000E942D0A83E08093FC0180E28093740221
:104860000E94502B6BE070E087EA91E00E949F105D
:104870008823E9F18091FC0165E070E081FDAFC023
:1048800082EA91E00E949F10882389F16DE070E038
:1048900080E991E00E949F10882349F10E94470718
:1048A000605A75418F4F9F4F6093FE017093FF01D7
:1048B0008093000290930102E7E7F2E080E092E04B
:1048C000DF019C011D9221503040E1F7F0937E04FE
:1048D000E0937D048FEF9FEF9093760280937502B3
:1048E00081E080930302809302021092FD010E94F6
:1048F00040120E9434128823B9F08FE090E00E94A9
:10490000B42C8B01862F8F770E94120C001F00277A
:10491000001F612F6370660F602B60931C0116955A
:104920001695137010931D018FE291E090931C0275
:1049300080931B02B6E02B2E312C8091300200E1D7
:1049400012E1853009F48AC00E94E12107EB11E0F1
:10495000A5ECEA2EA1E0FA2E2CEB31E0D701F8010C
:1049600091918D912E173F0709F484C09817C1F3D8
:10497000D12C88248394D701CD907D01F8019190AA
:104980008F019C1419F1B12CAA24A3949C24892D85
:104990008A21A1F0BDAADEAA0E94901398AF8FAB26
:1049A00089AE91E08C2D8A2109F490E09AAF4DA94F
:1049B0005EA96FA978AD89AD0E946D1AB394AA0C57
:1049C000F8E0BF12E4CFF8013197C082D39425E01C
:1049D000D212D1CF0E944707EE24E39450C08DE954
:1049E00091E050CF80913002843041F10E94AC10B0
:1049F0000E94310D10921D0288E190E0A0E40FB6F4
:104A0000F894A895809360000FBEA093600083B7D0
:104A1000817F846083BF83B7816083BF78948895EA
:104A200083B78E7F83BF0FB6F894A89580916000FE
:104A3000886180936000109260000FBE80912F0209
:104A4000882361F00E94E121E5ECF1E08191811180
:104A5000C6C42AEC31E02E173F07C1F7809130021F
:104A6000853009F4BFCF109223020E942A150E94BC
:104A7000B3076ACF98137CCF0E94BD21E12C8091AF
:104A8000BF01882351F01092BF01809106028093EC
:104A900007028091040280930502F12C39C061E085
:104AA0008F2D0E941008182F60E08F2D0E94100893
:104AB000E12FEE0F8E2B0F2D10E0D801A354BE4F27
:104AC000EC919E2F9370891711F1EE0FEE0FE82BEA
:104AD000EC93EF70F0E0E65BFE4F04541E4F8081D4
:104AE000D801DC90D80EDC92B5E060E0BD1524F072
:104AF000EBEFDE1624F461E08F2D0E9430088D2D3F
:104B0000DD0C990BB1010E94102DD8018C93F39408
:104B10008091BE01F81618F210E06CEFF62E73E0EB
:104B2000D72ECC24C394EDEFBE2EF2E0AF2E8091B1
:104B3000070290910602981709F469C4E82FF0E083
:104B4000E85FFD4F108117FB002700F91F778F5F8B
:104B5000837080930702809105028F5F8093050226
:104B6000011108C00E94901319A7FAA69CA78BA751
:104B7000DDA607C00E94901319A7BAA69CA78BA711
:104B8000ADA6CEA649A55AA56BA57CA58DA59EA5CB
:104B90000E946D1AEFE1FEE43197F1F700C00000CA
:104BA0000023C1F00E9490131FA7B8AA9AAB89AB4B
:104BB000ABAA1CAA4FA558A969A97AA98BA99CA937
:104BC0000E946D1A8FE19EE40197F1F700C000008A
:104BD00011E0ADCF0E9490131FA7F8AA9AAB89AB42
:104BE000DBAAE7CF0E94EF10E1101FC486E0E5E1E9
:104BF000F2E08E010F5F1F4FD80101900D928A9550
:104C0000E1F71092170210921802109219021092F6
:104C10001A028B81811104C08C81882309F447C05A
:104C200080911302909114020E9481139C01909133
:104C30000E02992309F404C425313105C0F19F3FC8
:104C400019F09F5F90930E02FB80FF2059F00E94A5
:104C5000E20791E01F140CF09FEF899F802D112433
:104C600080931702FC80FF2059F00E94E20791E038
:104C70001F140CF09FEF899F802D11248093180240
:104C800080911702882399F0F0901802FF2079F0A4
:104C90000E940208882309F4D3C0809317028F2D45
:104CA0000E940208882309F4CDC0809318028D81E8
:104CB000811104C08E81882309F447C080911102BC
:104CC000909112020E9481139C0190910F029923EE
:104CD00009F4BBC321353105C0F19F3F19F09F5F37
:104CE00090930F02FD80FF2059F00E94C00791E0D1
:104CF0001F140CF09FEF899F802D112480931902BF
:104D0000FE80FF2059F00E94C00791E01F140CF0B4
:104D10009FEF899F802D112480931A0280911902A0
:104D2000882399F0F0901A02FF2079F00E9402087F
:104D3000882309F489C0809319028F2D0E940208EC
:104D4000882309F483C080931A02B80185E192E0B8
:104D50000E945307811113C080911702811178C0FE
:104D600080911802811174C080911902811170C064
:104D700081E090911A02911101C080E080FD0E94B3
:104D80009C1386E0F801A5E1B2E001900D928A95AE
:104D9000E1F70E94B3079091C001891721F0809339
:104DA000C0010E94470780913002843009F0C5CDD0
:104DB00083E08093E9008091E80082FFBECD80917E
:104DC000E80090E085FF0AC00E94080650E2E52E48
:104DD000F12C6801882309F447C091E08091E80034
:104DE0008B778093E800992309F4A7CDE090CA015E
:104DF000F090CB018981E114F10409F443C08E3FA6
:104E000009F0C6C08A81833020F08550833008F0D5
:104E1000BFC0EA81EE3008F0BBC0F0E0EE5EF84DB6
:104E20000C94242DF0280A2911294B295C29772973
:104E300088299B29D929DE29C827C827C827E62918
:104E400081E02BCF81E031CF81E075CF81E07BCF56
:104E500081E094CF8091F100D6018D936D01B1E096
:104E6000EB1AF10809F4B9CF8091E80085FDF2CF83
:104E70008091E8008B778093E8000E9408068823E1
:104E800099F3ABCF8C3009F4C5C068F5843009F4D0
:104E9000ABC058F4823009F46CC008F096C0813081
:104EA00009F463C08FEF898373C0863009F4AFC003
:104EB00008F4A2C08B30B1F780910C0290910D02E2
:104EC000892B09F465C040E250E0B80182E00E94FD
:104ED0005D0BEFEFF1EE24E0E150F0402040E1F710
:104EE00000C000009BCC803109F4C6C090F58E3024
:104EF00009F497C008F491C080910C0290910D02C2
:104F0000892B09F445C0EA80FB80FE24EF24FE24AF
:104F1000CC80D12C58013DE1C316D104C8F5C7019E
:104F200087589E4F9501201B310B2C153D0580F5B0
:104F300047E8E41642E0F40628F4D50114966C9193
:104F40000E94D02CBFEFEB1AFB0AEFEFAE1ABE0A9D
:104F5000E6CF823109F495C008F491C0833109F499
:104F6000BAC08E3F09F09ECF54CF1A8289E08B835E
:104F70000FC08A81823009F45BC2833081F08130B6
:104F800009F090CF0E9447079B838C837D836E83BB
:104F900040E250E0B80182E00E945D0BCECC8091EF
:104FA0000C0290910D02892B99F38091C5018B839E
:104FB0008091C6018C838091C7018D838091C80147
:104FC0008E838091C9018F83E3CF8A81823009F07B
:104FD00069CF6B817C818D819E810E942A2D88E220
:104FE00090E00E94D02CD4CF4C816B818A810E94AA
:104FF000BF0F9D838E83CCCF2D813E813227232707
:1050000032274C816B818A810E94E50EC1CF0E94BC
:105010000C0FBECF80E18A83BBCF82E08A8387E812
:10502000A6CFEA80FB80FE24EF24FE24AC80B12CC6
:105030006801EDE1AE16B10408F0AACFC7018758A8
:105040009E4F9601201B310B2A153B0508F0A0CF7F
:10505000F7E8EF16F2E0FF0660F40E94AC2CD601F0
:1050600014968C93FFEFEF1AFF0A2FEFC21AD20AA1
:10507000E5CFF6011482F6CF0E94AA0E89CF84E014
:10508000CACFEA80FB80FE24EF24FE24AC80B12C42
:105090006801FDE1AF16B10408F07ACFC701899627
:1050A0009601201B310B2A153B0508F071CF20E437
:1050B000E21621E0F20660F40E94AC2CD6011496B0
:1050C0008C93FFEFEF1AFF0A2FEFC21AD20AE6CF36
:1050D000F6011482F6CFCA80DB80DC24CD24DC24E8
:1050E000AC80B12C3DE1A316B10408F051CF40E4EF
:1050F000C41641E0D40608F04BCF80E491E08C194F
:105100009D098A159B0508F443CF360189E2680E94
:10511000711C80910C0290910D02892BD9F5F12C14
:10512000E12CC0FE10C0C60188960E94AC2C9D8167
:1051300089279827892781159C4711F48FEF8D8344
:10514000EE24E394F12CC6018A0D9B1D450180FFDE
:1051500017C0B1E08B1A910835E0432E512C4C0E4C
:105160005D1E480C591CC3018A0D9B1D0E94AC2C6E
:10517000F201908181159C4719F48FEFD2018C9335
:10518000F801EE0DFF1D2FEFCF01801B910B88154D
:10519000990510F076011BC0848195818927982795
:1051A000892781159C4711F4248325833296ECCFFF
:1051B000E0E4EE16E1E0FE0638F4200F311FD901DD
:1051C00014966C910E94D02CBFEFEB1AFB0AC7011A
:1051D000899697012C193D092A153B0548F3D8CE2D
:1051E00088E0E2E4F1E0DE01919601900D928A956B
:1051F000E1F780E2D8011D928A95E9F786E089837C
:1052000088E0FE01B196DE01159601900D928A9517
:10521000E1F7BECE8CE5898381E08A831B821C8204
:10522000B7CE8C81682F70E0762F66278B81860F32
:10523000972F911D092E000CAA0BBB0B25E0880FA0
:10524000991FAA1FBB1F2A95D1F7AC01BD01405E73
:105250005F4F6F4F7F4F481759076A077B0708F466
:1052600097CE8C35E1E09E07A105B10508F090CE00
:105270004D35F1E05F076105710520F04CE551E027
:1052800060E070E0481B590BBC016E547E4FC801B2
:105290000E94A32C7DCEFB80EC8040E06E2D8F2DF4
:1052A0000E948C0F99838A8341E06E2D8F2D0E947E
:1052B0008C0F9B838C836CCE2E813F8132272327DA
:1052C000322721154CE7340741F480910C0290916C
:1052D0000D02892B11F430E020E041E08D81811135
:1052E00001C040E06C818B810E94BA0E51CE4AE130
:1052F00050E06FEF70E0CE0107960E943E2D809146
:105300000C028983EA821B821C821D8281E072CE9C
:1053100081E090E09093CB018093CA0182E390E01A
:105320009093C4018093C3010E9490139093C20193
:105330008093C1012DCEEF2861F18091C50181FBE1
:10534000FF24F0F8F8228091C1019091C2010E94DF
:1053500081138536910530F1FF2021F10E949013D1
:105360009093C2018093C1018091C3019091C401C7
:1053700001979093C4018093C301892B51F410923B
:10538000CB011092CA0181E090E090930D028093CE
:105390000C0280910C0289838091CA018A838091DA
:1053A000C301E5CD82E390E09093C4018093C301F3
:1053B000F0CF10920D0210920C02EACD40E250E0C4
:1053C0006FEF70E0C8010E943E2DE2CD8B8181110C
:1053D000DFCD80E2D8011D928A95E9F7D9CD09BDCC
:1053E00019BD09B400FEFDCF8091D8008F7D809358
:1053F000D8008091E00082608093E0008091E0001E
:1054000081FDFCCF109223020E942A1527CB112385
:1054100019F00E944707E12E0E94310D882309F4FC
:10542000E1CB0E9447070E94EF100E94C710DECB1D
:1054300088E290E00E94AC2C1B821C821D82DACD97
:105440002B30310508F0FDCB32CC2B30310508F084
:1054500046CC7BCC289A219A229A23982B9880E5D7
:105460008CBD0895909141019F3F09F072C08F3F1C
:1054700009F46FC0611145C01092810490918104BC
:10548000423009F442C0433009F443C094604130D3
:10549000E9F141E050E042175307E8F190918104AF
:1054A0004031510509F453C0C8F54230510509F4A3
:1054B00047C04830510509F447C09CB5209181048C
:1054C000922B9CBD90918004992319F09DB5916019
:1054D0009DBD80934101E82FE295EF70F0E031A18E
:1054E000282F2F7081E090E001C0880F2A95EAF7FD
:1054F000932F982B91A392A18095892382A381E079
:10550000089590E290938104B9CF986090938104BC
:10551000C0CF9C60FBCF440F551FBDCF4034510519
:1055200049F04038510541F04032510531F621E053
:1055300020938004926001C0936090938104BDCF5A
:1055400091E090938004B9CF21E020938004916092
:10555000F4CF80E00895CF93DF938EBD0E94901327
:10556000EC010DB407FE05C08EB590E0DF91CF9140
:1055700008950E9490138C1B9D0B8436910588F32F
:105580008EEF9FEFF3CFCF93DF931EBC0E9490135B
:10559000EC010DB407FE05C08EB590E0DF91CF9110
:1055A00008950E9490138C1B9D0B8436910588F3FF
:1055B0008EEF9FEFF3CF809141018F3F29F1E82FCC
:1055C000E295EF70F0E041A18F7021E030E0B90189
:1055D00002C0660F771F8A95E2F7CB01942F982BB4
:1055E00091A392A1892B82A38FEF809341018DB566
:1055F0008E7F8DBD9CB580918104809589238CBD63
:1056000010928104109280040895EF92FF920F93FC
:105610001F93CF93DF93182FEB011092BC0084EA05
:105620008093BC000E9490137C018091BC0087FF96
:105630000DC08091B900887F8830A9F08091B900B1
:10564000887F803181F08FEF9FEF08C0C7010E94F3
:105650008113C817D90748F78EEF9FEFCDB7DEB794
:10566000E6E00C94942C1093BB0084E88093BC007B
:105670000E9490138C018091BC0087FF0AC080912A
:10568000B900887F883111F08034E9F690E080E03D
:10569000E5CFC8010E948113C817D90760F7DCCF96
:1056A0001092B9008CE08093B80008950F931F9377
:1056B000CF93DF93EB018093BB0084E88093BC0021
:1056C0000E9490138C018091BC0087FF11C0209133
:1056D000B900287F81E090E0283211F490E080E06A
:1056E000919581959109DF91CF911F910F91089527
:1056F000CF3FDC0741F3C8010E948113C817D907C7
:1057000010F78EEF9FEFEFCFB0E0A0E0EAE8FBE20A
:105710000C94712C782E5B016A0189010E94901310
:105720004C01C1E0D0E00431110558F0C5E0D0E0F3
:105730000F3F100731F0C80164E170E00E94582C5F
:10574000EB01BE01872D0E94052B7C0197FF09C04C
:105750000F3F1007B1F3C4010E9481130817190706
:1057600080F7E501CA0CDB1CCC15DD0511F0F7FE56
:1057700009C084E98093BC00C701CDB7DEB7EDE076
:105780000C948D2CB80189910E94562B7C01ECCF92
:10579000B0E0A0E0EEECFBE20C94712C782E5B0103
:1057A0006A0189010E9490134C01C1E0D0E00431EC
:1057B000110558F0C5E0D0E00F3F100731F0C801E7
:1057C00064E170E00E94582CEB01BE01872D0E941D
:1057D000052B7C0197FF09C00F3F1007B1F3C401EF
:1057E0000E9481130817190780F7E501CA0CDB1C1A
:1057F000CC15DD0511F0F7FE09C084E98093BC00EB
:10580000C701CDB7DEB7EDE00C948D2CFE0184917D
:10581000B8010E94562B7C012196EACFB0E0A0E0AF
:10582000E4E1FCE20C94702C682E762E5A0169019A
:105830000E9490134C01C1E0D0E00431110558F0F2
:10584000C5E0D0E00F3F100731F0C80164E170E01F
:105850000E94582CEB01BE01862D0E94052B7C0175
:1058600097FF1DC00F3F1007B1F3C4010E948113C1
:105870000817190780F784E98093BC00C701CDB7EA
:10588000DEB7EEE00C948C2CB80189910E94562B67
:105890007C01CC16DD0679F3F7FEF6CFECCFB8012C
:1058A000872D0E94562B7C01E501CA0CDB1CF1CF31
:1058B000AA1BBB1B51E107C0AA1FBB1FA617B70736
:1058C00010F0A61BB70B881F991F5A95A9F7809552
:1058D0009095BC01CD0108952F923F924F925F9217
:1058E0006F927F928F929F92AF92BF92CF92DF92F0
:1058F000EF92FF920F931F93CF93DF93CDB7DEB755
:10590000CA1BDB0B0FB6F894DEBF0FBECDBF0994E8
:105910002A88398848885F846E847D848C849B843F
:10592000AA84B984C884DF80EE80FD800C811B814D
:10593000AA81B981CE0FD11D0FB6F894DEBF0FBE7C
:10594000CDBFED010895FB01DC0102C005900D9271
:1059500041505040D8F70895F999FECF92BD81BDCE
:10596000F89A992780B50895A6E1B0E044E050E0A8
:105970000C94F62CA8E1B0E042E050E00C94F62C38
:10598000DC01A40FB51F4150504048F0CB01840FFB
:10599000951F2E910E94D12C41505040D0F7089570
:1059A000262FF999FECF92BD81BDF89A019700B4D8
:1059B000021639F01FBA20BD0FB6F894FA9AF99A78
:1059C0000FBE08950396272F0E94D12C0E94D02C41
:1059D000252F0E94D12C242F0C94D12C0196272FF7
:1059E0000E94D12C0C94D02CDC01CB01FC01F99944
:1059F000FECF06C0F2BDE1BDF89A319600B40D921B
:105A000041505040B8F70895991B79E004C0991FA0
:105A1000961708F0961B881F7A95C9F78095089508
:105A200097FB072E16F4009407D077FD09D00E944B
:105A3000582C07FC05D03EF4909581959F4F089512
:105A4000709561957F4F0895EE0FFF1F0590F491BB
:105A5000E02D0994692796276927782787277827D3
:105A60000895FB01DC0104C08D910190801921F49F
:105A700041505040C8F7881B990B0895DC0101C0C4
:0E5A80006D9341505040E0F70895F894FFCF29
:105A8E00946697C63435F4F5360000000000000029
:105A9E0000000000000000000000000000000000F8
:105AAE000000000000000000B0B0B0B0B0B0004484
:105ABE00079F0B4207980B43070021007F2200032C
:105ACE0001FF0CD31D6D5786040400FF0100010079
