:100000000C94EA050C9422060C9422060C94220609
:100010000C9422060C9422060C9422060C942206C0
:100020000C9422060C9422060C9448130C94481A43
:100030000C94E1280C9422060C9422060C942206BF
:100040000C9422060C9422060C9422060C94220690
:100050000C9422060C9420140C9422060C94220674
:100060000C9422060C9422060C9422060C94220670
:100070000C9422060C9422060C9422060C94220660
:100080000C9422060C9422060C9422060C94220650
:100090000C9422060C9422060C9422060C94220640
:1000A0000C9422060C9422060C94220605010902E7
:1000B000A10185020901A1000509190129081500FE
:1000C0002501950875018102050109300931158165
:1000D000257F95027508810609381581257F9501D0
:1000E00075088106050C0A38021581257F95017572
:1000F000088106C0C00660FF0961A1010962150000
:1001000026FF009520750881020963150026FF006F
:10011000952075089102C005010906A1010507197E
:10012000E029E71500250195087501810295017503
:100130000881010507190029FF150026FF00950613
:100140007508810005081901290515002501950587
:1001500075019102950175039101C0616263646547
:10016000666768696A6B6C6D6E6F707172737475B7
:10017000767778797A3132333435363738393052C8
:100180004542545F2D3D5B5D5C233B27602C2E2F49
:1001900000DA0281FFD9F1DB20A4A62EAF00A0C0B7
:1001A000D30000A1C8D30000AED580A81F408D1495
:1001B0002000FD377A585A000004E6D6B446020003
:1001C000210116000000742FE5A3E0078E01CD5D2C
:1001D000003D8889A654750A36E182AEFA7A1AA6DD
:1001E000FCA2ED4954B48A5E7177BBD05FB821B5EB
:1001F0009A6DEC0545EFCE6A71C023FEA9DB302F66
:100200007EF37E4BD3DE168165ED3864402735EEF4
:10021000C25E716E65A90B93730FE5807891E2D58C
:1002200031997B268DC1C996BC1DBD0090DC793605
:1002300040338D6608B0F71F0DFB5C512FA78DC4AE
:100240003FF3B144D1C0002FB4AE88C1B4817B76F6
:10025000663457078F879F6608F00EBEEC814434E2
:100260007225907F9C74DCAB835E4F538991E1E8EB
:10027000DACD5B0EF90AC5B02F5CE668E91E266A86
:10028000FEEED26059DE887047450B740647703D1C
:100290008553CA8EEF52A3693ED65057CD45DB8EAB
:1002A000152B4A3BEC82E898057C06EA934DDB115E
:1002B0008885FB537FE163AD0E079163EA91C585A5
:1002C0007659336E48CE412D1954D2904C03CE95B9
:1002D0002B6AA51D9EAAB6D50839D515A4C3645AA4
:1002E000E28BA1D49AEAD9B2054505EEE160051288
:1002F0006C0EE92C4890CBAECF08C94261863A2BF0
:10030000B6BCF70046B8C8AF79F19081D2448634C4
:1003100023C6352A87F38013A9ED678FCC68E50AD9
:10032000DD09FE23FB3FEC501CE767444586F4954E
:10033000EFAD1D30769E94152FED12F66A2EE2BBBE
:10034000C8E9E0C39B0F805B4052E910B624AB6163
:10035000566D91431847BC6F3529C390B5A0B17C49
:1003600029E6605ED5F8E68AF5A90E454D6E874709
:10037000C10CA34C410660809F3D1D38DE5EA7483E
:100380000CEF0DFAA3990EE39EAD02534882C131E2
:10039000A1267B3834BBB346132BF8192800000084
:1003A0000000988F21C73518AE400001E9038F0F78
:1003B00000001705D80BB1C467FB02000000000461
:1003C000595A00AF00AE556E646566003372640022
:1003D000326E640031737400307468004C415945CA
:1003E0005200000400050006000700140015001666
:1003F000001700080009000A000B0018001900008F
:100400000000000C000D000E000F000000000000B6
:100410000000001000110012001300000000000096
:100420000000001A001B001C00000000000000007B
:100430000000000400050006000700140015001667
:10044000001700080009000A000B0018001900003E
:100450000000000C000D000E000F00000000000066
:100460000000001000110012001300000000000046
:100470000000001A001B001C00000000000000002B
:100480000000000400050006000700140015001617
:10049000001700080009000A000B001800190000EE
:1004A0000000000C000D000E000F00000000000016
:1004B00000000010001100120013000000000000F6
:1004C0000000001A001B001C0000000000000000DB
:1004D00000000004000500060007001400150016C7
:1004E000001700080009000A000B0018001900009E
:1004F0000000000C000D000E000F000000000000C6
:1005000000000010001100120013000000000000A5
:100510000000001A001B001C00000000000000008A
:100520000000001F001E00210020002300220025E3
:1005300000240009025B00030100A0FA0904000086
:1005400001030101000921110100012244000705F6
:1005500081030800010904010002030000000921D1
:100560001101000122220007058203200001070576
:100570000303200001090402000103000000092117
:100580001101000122490007058403200001120126
:100590000002000000083839343201000102030172
:1005A0001C037600690061006C003A0066003600AA
:1005B00034006300320062003300630000000C036B
:1005C00067006200630032003400000012036B0019
:1005D00075007300680069006D006100380000005C
:1005E00004030904000000000000000000000000F7
:1005F00000000000000000000000000000000000FB
:1006000000000000000000007E0F00D4FFFFFFC7C5
:100610000000007800000000000000002A2B2800E5
:1006200000000000000000000000000000000029A1
:10063000000000002C1E3420212224342627252EE1
:10064000362D3738271E1F20212223242526333319
:10065000362E37381F0405060708090A0B0C0D0E45
:100660000F101112131415161718191A1B1C1D2F11
:100670003130232D350405060708090A0B0C0D0E31
:100680000F101112131415161718191A1B1C1D2FF1
:100690003130354C07087F0807003E5B4F5B3E005A
:1006A0003E6B4F6B3E001C3E7C3E1C00183C7E3C6B
:1006B00018001C577D571C001C5E7F5E1C00001834
:1006C0003C180000FFE7C3E7FF00001824180000F3
:1006D000FFE7DBE7FF0030483A060E0026297929BC
:1006E0002600407F05050700407F05253F005A3C56
:1006F000E73C5A007F3E1C1C0800081C1C3E7F0083
:1007000014227F2214005F5F005F5F0006097F01F3
:100710007F00006689956A0060606060600094A256
:10072000FFA2940008047E04080010207E20100020
:1007300008082A1C0800081C2A0808001E101010AF
:1007400010000C1E0C1E0C0030383E383000060E17
:100750003E0E060000000000000000005F000000E8
:10076000000700070000147F147F1400242A7F2A4A
:100770001200231308646200364956205000000816
:1007800007030000001C224100000041221C000061
:100790002A1C7F1C2A0008083E08080000807030D0
:1007A0000000080808080800000060600000201031
:1007B000080402003E5149453E0000427F400000CF
:1007C0007249494946002141494D33001814127FAE
:1007D00010002745454539003C4A4949310041212F
:1007E00011090700364949493600464949291E0082
:1007F0000000140000000040340000000008142233
:1008000041001414141414000041221408000201C1
:10081000590906003E415D594E007C1211127C00C0
:100820007F49494936003E41414122007F414141D3
:100830003E007F49494941007F09090901003E41C5
:10084000415173007F0808087F0000417F4100008C
:100850002040413F01007F08142241007F4040407A
:1008600040007F021C027F007F0408107F003E4191
:1008700041413E007F09090906003E4151215E00C9
:100880007F091929460026494949320003017F01A1
:1008900003003F4040403F001F2040201F003F40DA
:1008A00038403F0063140814630003047804030015
:1008B0006159494D4300007F414141000204081045
:1008C0002000004141417F00040201020400404039
:1008D00040404000000307080000205454784000C6
:1008E0007F2844443800384444442800384444288D
:1008F0007F0038545454180000087E09020018A4E0
:10090000A49C78007F080404780000447D40000027
:100910002040403D00007F102844000000417F40FF
:1009200000007C04780478007C08040478003844D3
:1009300044443800FC182424180018242418FC000F
:100940007C080404080048545454240004043F4420
:1009500024003C4040207C001C2040201C003C40E7
:1009600030403C004428102844004C9090907C007B
:100970004464544C440000083641000000007700F5
:1009800000000041360800000201020402003C267B
:1009900023263C00000000000000404040F0F8F832
:1009A000FF38FFF8F83FF8F8FF38FFF8F8F040405C
:1009B0004000000000000080C0C0C0800000C0C037
:1009C0008000000080C0C000C0C0000080C0C00027
:1009D00000000000C0C0C0C0C000C0C000000000D7
:1009E0000000000000000000000000000000000007
:1009F00000000000000000000000000000000000F7
:100A000000000000000000000000000000000000E6
:100A1000000000C0F0F8FC3E1E06010000007F410F
:100A200041417F007F4141417F000080C0E07E5B0B
:100A30004F5BFEC00000C000DCD7DEDEDED7DC008E
:100A4000C0000000000000000000000000000000E6
:100A500000000000000000000000494949FFFFFFBE
:100A6000FFE0DFBFBF00BFBFDFE0FFFFFFFF49497F
:100A70004900000000001F3F6060E0BF1F007F7F53
:100A8000071E381E077F7F007F7F0E1F3B716000AF
:100A9000000000007F7F0C0C0C007E7E007F7E0338
:100AA00003007F7E03037E7E03037F7E000F3E7084
:100AB0003C063C703E0F00327B49493F7E007F7E02
:100AC0000303001E3F69696F26000000000000005C
:100AD000000000030F1F3F3C7870600000007F4162
:100AE00041417F007F4141417F00307B7F78302052
:100AF0002030787F3B0003000F7F0F0F0F7F0F0028
:100B000003000000000000000000000000000000E2
:100B100000000000000000000000010101070F0FAD
:100B20007F0F7F0F0F7E0F0F7F0F7F0F0F070101CA
:100B300001000000000000000000000101000000B2
:100B400000000000000000000000000000000000A5
:100B50000000000000000000000000000000000095
:100B60000000000000000000000000000000000085
:100B70000000000000000000000000000000000075
:100B80000000000000000000000000000000000065
:100B90000000000000000000000000000000000055
:100BA0000000000000000000000000000000000045
:100BB0000000000000000000000000000000000035
:100BC0000000000000000000000000000000000025
:100BD0000000000011241FBECFEFDAE0DEBFCDBF62
:100BE00004B603FE18C08091A4059091A505A091BC
:100BF000A605B091A7058730904BA740B04B59F49C
:100C00001092A4051092A5051092A6051092A705B2
:100C1000E0E0F8E3099511E0A0E0B1E0E4E5F8E6F2
:100C200002C005900D92A238B107D9F725E0A2E8DD
:100C3000B1E001C01D92A43AB207E1F70E940A296F
:100C40000C9428340C940000482F20919503909127
:100C50004C0359E0291302C080E0089530E0529F10
:100C6000F001539FF00D1124E35BFC4F8181681369
:100C700006C08081481303C085818111EECF2F5FAC
:100C80003F4F2770E7CFE8EDF0E080818E7F8083D3
:100C90001092E2001092DA001092E100A0EEB0E0B3
:100CA0008C9181608C9380818F77808319BCA7EDB4
:100CB000B0E08C918E7F8C9380818F7E80831092A8
:100CC000340308952091E4003091E50085E6909189
:100CD000EC0090FF06C09091E80090FF06C080E015
:100CE00008959091E80092FDFACF909142039923E4
:100CF00091F0953091F09091EB0095FD10C04091EE
:100D0000E4005091E5002417350709F381509A015A
:100D1000F1F684E0089582E0089583E0089581E08B
:100D200008958091440387FF13C08091E80082FFFB
:100D300006C08091E8008B778093E80004C0809122
:100D400042038111F2CF0895809142038823D9F3A1
:100D50008091E80080FFF8CF8091E8008E77ECCF9B
:100D6000982F9093E900242F762F50E0891731F0C7
:100D70007091EC002091ED005091F00021FD07C032
:100D80009F5F973071F78093E90081E0089530917B
:100D9000EB003E7F3093EB003091ED003D7F3093D0
:100DA000ED003091EB0031603093EB007093EC007C
:100DB0002093ED005093F0002091EE0027FDE0CF4E
:100DC00080E00895B0E0A0E0E8EEF6E00C94413356
:100DD000C8EDD0E088818F7E8883E7EDF0E08081E8
:100DE0008160808384E082BF81E0809334038881C6
:100DF0008E7F888302EE10E0F80110821092DA00F4
:100E000081EEC82ED12CF601108288818F778883DD
:100E100088818068888388818F7D888319BC10923F
:100E2000420310924303109241031092400390EE4C
:100E3000E92EF12CF70180818B7F8083888181608E
:100E4000888342E060E080E00E94B006F601808185
:100E50008E7F8083F80180818160808380818860BB
:100E60008083F70180818E7F808388818061888381
:100E7000CDB7DEB7E8E00C945D33FC0180914A0306
:100E800090914B0386179707A0F06115710529F41F
:100E90009091E8009E779093E80090E061157105CD
:100EA00051F4911108C08091E80082FF35C080E0C4
:100EB0000895BC01F2CF809142038823C9F18530A7
:100EC000C9F18091E80083FD31C08091E80082FD86
:100ED000EACF8091E80080FFE1CF2091F30080917C
:100EE000F200322F282F6115710519F028303105D5
:100EF00058F091E02830310509F090E02091E800A9
:100F00002E772093E800CACF81918093F100615041
:100F100071092F5F3F4FE7CF80914203882341F053
:100F2000853041F08091E80083FFBDCF81E00895D6
:100F300082E0089583E0089508950895809137032D
:100F400008952FB7F8946091300370913103809128
:100F50003203909133032FBF0895DC01FB011196FA
:100F60009C9111978181981322C012968C911297AF
:100F7000882319F0928189131AC013968C911397C4
:100F8000882319F09381891312C015968C911597B7
:100F9000882319F0958189130AC014969C9199238E
:100FA00021F081E02481291303C080E001C081E0A9
:100FB00081700895E4E8F1E09281891301C0128202
:100FC000319691E0EA38F907B9F70895A6E8B1E05B
:100FD000EFEF90E02D91821751F0EF3F19F42111BE
:100FE00001C0E92F9F5F9630A9F7EF3F09F40895FC
:100FF0000E2E000CFF0BEC57FE4F82830895E091FC
:101000002D03F0912E03309739F022E0DC012C9370
:101010000680F781E02D09950895E0912D03F09168
:101020002E03309729F00190F081E02D0995089565
:1010300080E008958091220380FD16C081FD16C0D6
:1010400082FD16C0809121038823A1F0883280F4AC
:1010500028E0829FC001112468E270E00E94F3330F
:10106000862F672B39F0089582E0089584E0089573
:1010700088E0089581E008958091220380FD14C0E6
:1010800081FD14C082FD16C080912003882381F069
:101090008E3180F420E5829FC00111246EE170E062
:1010A0000E94F333862F089584E1089588E208951D
:1010B00088E0089580E50895282F35EB2303C001CB
:1010C000112497FF04C080589109892F08958058F2
:1010D0009F4FFBCFBC0140911A0380911B03942FBB
:1010E000891301C00895292F30E0F901EE0FFF1F89
:1010F000EE5EFC4F0190F081E02DE617F70799F4C2
:1011000087E0869FF001879FF00D1124EF58FD4F77
:1011100081E084839413E6CF2F5F3F4F2370332702
:1011200020931A0308952F5F3F4F922F9370D8CFCB
:1011300010926E0210926D02E1E7F2E0858181115A
:1011400002C014821682379682E0E93AF807B1F7B6
:10115000089523E9611122E989B190E02F7002C05E
:10116000959587952A95E2F78170089523E9611195
:1011700022E93AB12F7081E090E001C0880F2A95F2
:10118000EAF7982F909593239AB99BB1892B8BB945
:10119000089590916702E92FF0E0209168022150B4
:1011A000330B23703327E217F307A9F0E759FD4FFC
:1011B000282F2F7780818078822B60FB87F98083AE
:1011C0009F5F937090936702809165028F5F809319
:1011D000650281E0089580E008959091440188239C
:1011E00041F09F5F909344011092410110924001A1
:1011F00008959150F7CFE9E3F1E0828591E08927E6
:10120000828710861782089580914201811114C04F
:1012100080914401811110C08091430181110CC063
:101220009091E90196959695969581E020913A01E5
:10123000921380E08170089581E0FCCF80E00895F2
:10124000811522E5920780F5811530E5930708F0B6
:10125000A3C0883E9105A0F4803E910558F4853ADC
:10126000910548F48430910528F48130910511F0FE
:1012700090E080E008958D3C9105D0F3906508954D
:10128000811540E4940708F043C0811550E29507AA
:1012900008F09BC0811521E0920750F320E0392F20
:1012A000A901482BCA010895803832E59307A0F4BC
:1012B000803642E5940708F056C0803452E5950721
:1012C000F0F5803222E5920730F18F7190E0982F8F
:1012D0008827816F906A0895803C32E5930760F417
:1012E000282F2F71803A924508F44FC0822F90E04A
:1012F000982F882790620895803E52E5950708F060
:10130000B7CF982F882788279F71806F906A08959C
:101310009F70906A0895282F2695269550E2259F64
:1013200090011124482F437081E090E002C0880FA3
:10133000991F4A95E2F7822B932B9D680895982F69
:10134000937021E030E002C0220F331F9A95E2F73C
:101350003C6886958695877040E2849FC001112481
:10136000822B932B0895982F937021E030E002C0D8
:10137000220F331F9A95E2F73A6886958695877013
:1013800050E2859FC0011124EBCF822F90E0982F6F
:101390008827846F906A08959C0195E0369527957B
:1013A0009A95E1F72F7030E0322F2227482F4F71A6
:1013B00050E084FF05C084E0440F551F8A95E1F793
:1013C000C9019069842B952B0895292F2F71992796
:1013D0009062922B08958091BB01882331F0109286
:1013E000BB011092BA011092B9010895982F9095FF
:1013F0008091350389238093350308951092E90184
:101400001092B0011092AF0108959091AE01292F72
:10141000282321F0809589238093AE01089580913F
:10142000950390914C03981301C008958F5F8770C6
:10143000FACFA82FA77023E0969587952A95E1F714
:10144000FC01EE0FFF1FE80FF91FE60FF71F50E03A
:1014500040E080E0219130E00A2E02C036952795C9
:101460000A94E2F721703327042E01C0220F0A9458
:10147000EAF7822B4F5F5F4F4330510559F70895CC
:10148000903FB9F0953070F4883060F448E0949F54
:101490009001112466E971E0820F932F911D0E9443
:1014A000190A08959C5F923020F463E971E090E09E
:1014B000F6CF80E00895262F277091E001C0990FA4
:1014C0002A95EAF723E0769567952A95E1F7FB01DF
:1014D000EE0FFF1FE60FF71FE40FF51F50E040E08F
:1014E000682F70E08191DF0111979B01042E02C0EB
:1014F000369527950A94E2F721702195282729230C
:1015000028272C934F5F5F4F4330510559F70895BB
:10151000282F903F89F0862F622F953070F4283065
:1015200060F448E0949F90011124620F732F711DA5
:1015300046E951E00E945B0A08959C5F9230E0F713
:1015400070E043E951E0F6CF80933C02089590911A
:101550003C0221E030E0F90101C0EE0F8A95EAF784
:10156000D90102C0AA0FBB1F6A95E2F7EA2B01C09E
:10157000220F4A95EAF7892F8E23E81305C0292BFD
:10158000822F0E94A40A089520952923F9CF21E0F3
:1015900030E001C0220F8A95EAF7209580913C0245
:1015A00082230E94A40A08959091E90180958923DD
:1015B0008093E901282F277069F4891759F09091D9
:1015C000C50192FF07C08695869586950E94C70A39
:1015D0000E94FE09089521E030E001C0220F8A95A3
:1015E000EAF780913C02822B0E94A40A089580931E
:1015F000C3010895982F92959F7020E011F0892FD4
:1016000024E0982F9695969511F02E5F892F982FAC
:10161000969509F02F5F822F08959C013A95211528
:101620003F4150F5FC01EE27F170BC016627727056
:10163000AC01442754709C012227387094FF0EC0DF
:1016400080E0EF2B09F080E1672B09F08062452BE9
:1016500009F08064232B89F08068089581E0EF2BE6
:1016600009F480E0672B09F08260452B09F0846063
:10167000232B19F08860089580E00895CF93C82F38
:10168000809117018C1751F00E94A10760931801F7
:101690007093190180931A0190931B01C093170155
:1016A000CF910895EF92FF920F931F93CF93DF9303
:1016B0008C01EB01DC01ED91FC91222309F45FC068
:1016C00040911C01411101C044E04150550B81E0A3
:1016D00090E07C01042E02C0EE0CFF1C0A94E2F79D
:1016E000CF01B7010E94F3339B01CB01042E02C04E
:1016F000880F991F0A94E2F7E81BF90BD80111969D
:10170000FC93EE931296ED91FC91CF01B7010E94EC
:10171000F333CB0102C0880F991F4A95E2F7E81B0B
:10172000F90BD8011396FC93EE9312972138BFEF73
:101730003B07CCF020383105C4F421952D83613866
:10174000EFEF7E07A4F0603871059CF461956C831F
:1017500080911D01882379F0813079F0CDB7DEB713
:10176000E6E00C945F3321E8E8CF2FE7E6CF61E8AD
:10177000EDCF6FE7EBCF1D82F1CF1C82EFCFE138C9
:101780002FEFF207BCF0E038F105B4F4E195EA83FD
:10179000D80112968D919C918138BFEF9B0774F010
:1017A000803891056CF48B83F801118210821382CA
:1017B0001282D4CFE1E8EACFEFE7E8CF81E8F3CFB8
:1017C0008FE7F1CF9C01860F971F37FD07C077FD8C
:1017D00004C097FF02C08FEF9FE7089577FFFDCF0A
:1017E00097FDFBCF80E090E80895E82FE295EF7039
:1017F000F0E031A1282F2F7081E090E001C0880F28
:101800002A95EAF7932F982B91A392A1809589238B
:1018100082A30895E82FE295EF70F0E031A1282F20
:101820002F7081E090E001C0880F2A95EAF7982F89
:101830009095932391A392A1892B82A3089520E4EC
:1018400030E043E060E087EF0E94FD3008950F93A1
:101850001F93CF93DF938B01EA0190914203943061
:1018600061F58093E9008FEF9091E800815095FD3C
:1018700006C095ED9A95F1F700008111F5CF8091A2
:10188000E80085FF1AC00E946206811111C0809194
:10189000E80085FD06C08091E8008E778093E8001F
:1018A000F2CFF80181918F018093F100219779F7B0
:1018B0008091E8008E778093E800DF91CF911F91AF
:1018C0000F91089546E050E0BC0184E00E94270C8F
:1018D0000895CF93DF93EC0148E050E0BC0181E034
:1018E0000E94270C88E0FE01A8E3B3E001900D926E
:1018F0008A95E1F7DF91CF91089581E08093E00030
:1019000080E28093D8001092C9008FE19EE4019795
:10191000F1F700C0000087E090EBDC018093A405A4
:101920009093A505A093A605B093A70588E19CE038
:101930000FB6F894A895809360000FBE9093600056
:10194000FFCFCF93C82F0E941F0C8C2F0E9476319F
:101950008FE792E00197F1F700C000000E948E31FE
:10196000C82F95E09A95F1F700000E94A63185E610
:101970008A95F1F700001092A1058C2FCF91089560
:10198000CF93DF93D82FC62F0E941F0C8D2F806816
:101990000E9476318C2F0E9476318AEB8A95F1F77E
:1019A00000C00E94A63183E492E00197F1F700C0E5
:1019B0000000DF91CF910895682F843208F063E230
:1019C0006093150191E0909316019091090199237C
:1019D00039F06150811101C064E08FE00E94C00CB9
:1019E000089590911501911101C095E0282F880F5D
:1019F000330BA901490F511DCA011816190614F01D
:101A000081E090E00E94DC0C0895ACE0B0E0EBE0F7
:101A1000FDE00C9441334F83588769877A878B8721
:101A20009C8780910901882309F446C08091A10513
:101A3000811107C060E080E50E94C00C81E08093C6
:101A4000A1050E941F0C80E50E9476318AEB8A95E1
:101A5000F1F700C00E948E310E948E310E948E31BB
:101A60007C010E948E3120E0E22AF82A0E948E3109
:101A70008C010E948E3120E0022B182B0E94A6318F
:101A800085E08A95F1F70000F894B70180910D0187
:101A900090910E010E94E20B90930E0180930D0134
:101AA000B80180910F01909110010E94E20B909378
:101AB000100180930F0178940E94A10700918F017B
:101AC0001091900120919101309192016B017C0164
:101AD000C01AD10AE20AF30A9701860108301105FB
:101AE0002105310508F449C060938F01709390017E
:101AF0008093910190939201009118011091190126
:101B000020911A0130911B01601B710B820B930B0A
:101B1000623371058105910580F410920E011092D7
:101B20000D011092100110920F01109212011092EB
:101B3000110110921401109213012091170141E03C
:101B4000BE01695F7F4F8DE091E00E94520B2091B2
:101B5000170180910901282740E0BE01695F7F4F8E
:101B600081E191E00E94520B86E0FE013796A2E2ED
:101B7000B1E001900D928A95E1F786E0FE0137967B
:101B8000DE01119601900D928A95E1F729813A8143
:101B90004B815C816D817E8180E090E02C96E8E055
:101BA0000C945D33E2E4F1E083E0DF011D928A955D
:101BB000E9F7EEE3F1E084E0DF011D928A95E9F7B1
:101BC000089520913B0130913C012817390731F0ED
:101BD00090933C0180933B010E94D20D0895909117
:101BE0003901981721F0809339010E94D20D089590
:101BF000CF936CED71E083EE91E00E94AD07C82FAA
:101C0000882321F083EE91E00E94FF079091E40188
:101C100086E0E3EEF1E0DF01282F1D922A95E9F737
:101C20009093E401ACEDB1E001900D928A95E1F75B
:101C300081E0C11103C0911101C080E08170CF919A
:101C40000895CF93DF93682F81E06A3019F06D30EB
:101C500031F480E00E94B00EDF91CF910895809121
:101C60009F059091A00526E0FC01A9E9B5E001904F
:101C70000D922A95E1F7603E08F459C026E0FC0178
:101C800011922A95E9F7C0919F05D091A00546E0F1
:101C900050E0BE0189E995E00E941434892B59F186
:101CA000CE01895993409C0145E0369527954A9588
:101CB000E1F741E050E0BA0102C0660F771F2A95B4
:101CC000E2F79B016091970370919803262B372BC5
:101CD000059665E0969587956A95E1F7FA0102C049
:101CE000EE0FFF1F8A95E2F7CF01822B932B909383
:101CF0009803809397039E012359334040919603A4
:101D0000642F70E0C9010E942333481B463010F451
:101D1000240F311D2115F2E03F0710F030E020E0E4
:101D200027563C4F3093A00520939F0595CFF6E0B2
:101D30006F9FB00111246C56794F46E050E00E942D
:101D40006E33A1CFCF93DF93EC01FE01849181111B
:101D500003C0DF91CF9108950E94210E2196F5CF07
:101D6000CF93382FE0919F05F091A005E959F340FA
:101D700020919603622F70E0CF010E942333281B2D
:101D8000822F332361F066E00E94E733C82FC150F1
:101D900010F4CF91089580E20E94210EF8CF9F01A8
:101DA000280F311D2115324018F080E0F0E0E0E00E
:101DB0008E0F9F2F911D87569C4F9093A005809367
:101DC0009F05E7CF0E94A20E81E00E94B00E089509
:101DD000CF93C82F6FEF81116AE985E290E00E94EE
:101DE000AB336FEFC1116DEC86E290E00E94AB3334
:101DF0006FEFC1116CE487E290E00E94AB33CF91AA
:101E00000895CF93DF93C9ECD1E060E0CE010E944A
:101E1000AB332196C11584E0D807B9F7DF91CF9194
:101E200008950F931F93CF93DF93843000F56111D2
:101E30001EC094E0899FE0011124C759DE4F82E063
:101E400090E0442311F090E080E0632F022F142FE4
:101E50008C0F9D1F0E94AB3383E090E0112311F0A3
:101E600081E090E0602F8C0F9D1F0E94AB33DF91CB
:101E7000CF911F910F9108951F93CF93DF93C62F9A
:101E80008430E8F46530D8F44830C8F4632F122F5A
:101E900090E1C99FE001112450E0440F551FC40F89
:101EA000D51F90E5899FC00DD11D1124CE018996C3
:101EB0000E94AB33612FCE018A960E94AB33DF9133
:101EC000CF911F91089585E290E00E9487338A396F
:101ED00089F486E290E00E9487338D3C59F487E2D2
:101EE00090E00E94873391E08C3409F090E0892FD4
:101EF0008170089580E0FCCFFF920F931F93CF93E2
:101F0000DF93843048F5611127C024E0829F80016F
:101F1000112407591E4F82E090E0442311F090E015
:101F200080E0F42E800F911F0E948733C82FD0E0ED
:101F3000DC2FCC2783E090E0FF2011F081E090E0DF
:101F4000800F911F0E9487339E01282BC901CDB7B6
:101F5000DEB7E5E00C94603390E080E0F8CF0F93BB
:101F60001F93CF93DF93843030F5653020F54830F0
:101F700010F520E1629FE001112450E0440F551F4D
:101F8000C40FD51F30E5839FC00DD11D1124CE0194
:101F900089960E948733082F10E0102F0027CE016A
:101FA0008A960E9487339801282BC901DF91CF912F
:101FB0001F910F91089590E080E0F8CF462F209177
:101FC000DA013091DB01232BD1F4703F39F4603F0B
:101FD000B1F48091EA019091EB010895672F75307B
:101FE00038F4483060F4843050F40E94AF0F089504
:101FF0007D3F41F4411103C041E0843048F090E05E
:1020000080E008957C3FD9F74111F9CF8430B8F7CB
:1020100060E00E947C0F0895CF92DF92FF920F93B1
:102020001F93CF93DF936C0100913C028091C30119
:10203000082BC3E0D0E010E0FC2EC8010C2E02C03B
:10204000959587950A94E2F780FD0CC02197A0F73B
:10205000F12C8F2DDF91CF911F910F91FF90DF9089
:10206000CF900895B6018C2F0E94DE0F0E942009A8
:10207000019761F3EECFCF93DF93EC010E940C1038
:10208000BE010E94DE0F0E942009DF91CF910895CA
:10209000FC0124812223F1F087819085009789F04B
:1020A0000E94200992959F709630B1F078F492507A
:1020B000923080F4803F19F058F4883E58F481E063
:1020C0000895808191810E943B10ECCF9A50F0CF0F
:1020D000843FA9F380E00895883E88F3813FD1F7DB
:1020E000EECFA6E0B0E0E7E7F0E10C944633FC0168
:1020F000878190850097E9F4CF0126E0DE011196F3
:1021000001900D922A95E1F7FC01258189819A8140
:10211000222399F0662389F00E940C10182F682F53
:1021200089819A810E94880A69817A81812F0E941F
:10213000DE0F2696E3E00C9462330E94400A182FCB
:10214000F3CFAAE0B0E0E7EAF0E10C943B338090F3
:102150001E0390901F0381E090E090931F038093F3
:102160001E0393E2E92E95E0F92EB12CA12C712CDF
:102170006501612C1AC0F801EC0DFD1DEE0FFF1F6B
:10218000ED51FC4F25913491402F662D872D0E94F3
:102190003C0F0F5F1F4F0830110569F788E0C80E2C
:1021A000D11C639495E0691619F010E000E0E3CFCC
:1021B000F7012591349141E060E0872D0E94110FD5
:1021C000F70132962591349140E060E0872D0E941E
:1021D000110FE4E0EE0EF11C7394F8E2AF0EB11CA7
:1021E00084E07812C5CFFE0131967F018AE011921A
:1021F0008A95E9F709E711E04AE050E0B801C70124
:102200000E94CF33065F1F4F093CF1E01F07A1F783
:1022100090921F0380921E032A96EEE00C9457338F
:1022200080E00E94E80E60E088E290E00E94AB331C
:102230000E94A1100E94010F81E00E94E80E089503
:10224000AB0124E630E0BC0188E70E94933221E034
:10225000892B09F020E0822F0895809163029091EC
:102260006402911103C091E089270895882369F0E1
:1022700062E070E084EC93E00E942011811103C0C1
:102280008091630208951092630280916302EBCF04
:10229000CF93C0916302809164028823D1F00E94A1
:1022A000A107605A75418F4F9F4F60935F027093F3
:1022B00060028093610290936202C11108C062E0E3
:1022C00070E082EC93E00E942011811105C0C09162
:1022D00063028C2FCF91089581E080936302F7CF42
:1022E000B0E0A0E0E6E7F1E10C943B3380916402BA
:1022F000882309F405C189E993E09093A0058093B0
:102300009F0582EE93E00E94E20E8CED93E00E9426
:10231000E20E80913C020E94FA0A8130D9F148F025
:102320008230D9F18330E1F186EC93E00E94A20E75
:1023300004C088ED93E00E94E20E80919703909193
:102340009803892B09F4C3C080916402882309F49F
:10235000BEC080915E028111BAC00E9448112091D6
:102360009703309198032115310509F4B0C080E03E
:1023700041E050E0082F10E03A01082E02C0660C40
:10238000771C0A94E2F7B30162237323672B59F495
:102390008F5FF0CF84ED93E0CECF80ED93E0CBCF95
:1023A0008CEC93E0C8CF90915D0290FFAEC0880F97
:1023B000880F880F80934B0110924E01895F8093A4
:1023C0004C0183E080934F0124E630E047E050E089
:1023D00069E471E088E70E944F32892B09F077C0E9
:1023E000A80185E0440F551F8A95E1F780915D02B1
:1023F00080FF9DC0EDE3F2E080E2DF011D928A954F
:10240000E9F7AFE6B1E00BE611E0882483942D9163
:10241000E80169918E01640F752F711D67567C4F1D
:1024200030E0235C3D4FF90197E07F01E21AF30AA7
:10243000982C01C0990CEA94EAF77B01B12CE701D2
:1024400089917E018921A92EAB18DA2DD770CD2E66
:102450000D2E000CDD08C82F01C0CC0FDA95EAF76D
:10246000AC2ED194C194D108D7E0CD22DD240C2C20
:1024700001C086950A94EAF7DC2ED82A80818D293E
:102480008083B39488E0B812DACF915031969F3FA1
:1024900061F6C1E0A337BC0709F0B9CF04E610E04C
:1024A00020E230E04DE352E060E488E70E94D93258
:1024B000892B69F4E301C095D095809197039091A1
:1024C0009803C823D923D0939803C093970380918E
:1024D00063028823A9F00E94A10700915F02109176
:1024E00060022091610230916202601B710B820BCD
:1024F000930B6F3F7F4F8F4F9F4710F40E942D111A
:10250000CDB7DEB7EEE00C9457338295880F807616
:1025100080934B0198013695279536952795209302
:102520004E01815E80934C0120934F014DCF475661
:102530005C4F04E610E020E230E0B6CFAAE0B0E065
:10254000E4EAF2E10C944133ECEEF1E080E5DF01E6
:102550001D928A95E9F7E1E7F2E088E3DF011D9239
:102560008A95E9F78CEEC82E81E0D82E7F0109E725
:1025700011E0F701D182C0824AE050E0B801CE01FB
:1025800001960E94773388E0FE013196D6010190D2
:102590000D928A95E1F789859A85D70113969C93C8
:1025A0008E931297BAE0CB0ED11CE7E0EE0EF11C31
:1025B000065F1F4F093CF1E01F07D9F62A96E8E0B5
:1025C0000C945D339091C50192FB222720F92817C6
:1025D00079F080FB92F99093C5016091C4017091EC
:1025E000C50184E090E00E94C93382E00E94D40AD1
:1025F000089590E080E00E949533863E9E4F19F446
:102600000E94630F089580E00895CF93DF930E94A6
:10261000F530879A0E941F0C6AE58AE30E94C00C7D
:102620002FEF80E792E0215080409040E1F700C01A
:10263000000082E00E94A10C83E00E94A10C84E0D3
:102640000E94A10C85E00E94A10C86E00E94A10CD2
:1026500060E080E10E94C00C80E00E94A10CD82FB5
:1026600081E00E94A10CC82F0E94A631D23419F437
:1026700081E0C13009F080E08170809309018823F6
:1026800021F064E08FE00E94C00CDF91CF910895AB
:102690001F920F920FB60F9211242F933F934F93D7
:1026A0005F936F937F938F939F93AF93BF93EF93BA
:1026B000FF938091E10082FF09C08091E20082FFD8
:1026C00005C08091E1008B7F8093E1008091DA006A
:1026D00080FF24C08091D80080FF20C08091DA0064
:1026E0008E7F8093DA008091D90080FF9BC080E1CB
:1026F00089BD82E189BD09B400FEFDCF81E08093F0
:10270000420380913403811109C00E9443060E9454
:10271000E2068091E20084608093E2008091E10013
:1027200080FF17C08091E20080FF13C08091E2001B
:102730008E7F8093E2008091E20080618093E200CE
:102740008091D80080628093D80019BC85E0809386
:1027500042038091E10084FF29C08091E20084FF60
:1027600025C080E189BD82E189BD09B400FEFDCFAD
:102770008091D8008F7D8093D8008091E1008F7E7A
:102780008093E1008091E2008F7E8093E20080914F
:10279000E20081608093E20080914303882309F482
:1027A00047C084E080934203809142038091E1001E
:1027B00083FF27C08091E20083FF23C08091E10066
:1027C000877F8093E10082E080934203109243036D
:1027D0008091E1008E7F8093E1008091E2008E7F06
:1027E0008093E2008091E20080618093E20042E009
:1027F00060E080E00E94B0068091F00088608093E5
:10280000F000FF91EF91BF91AF919F918F917F91D8
:102810006F915F914F913F912F910F900FBE0F904D
:102820001F90189519BC109242031092340376CF72
:102830008091E30087FD02C081E0B4CF83E0B2CF96
:1028400078941F920F920FB60F9211248F939F933B
:10285000AF93BF938091300390913103A0913203E5
:10286000B09133030196A11DB11D80933003909365
:102870003103A0933203B0933303BF91AF919F9183
:102880008F910F900FBE0F901F9018959C014FB71E
:10289000F8948091300390913103A0913203B0916C
:1028A00033034FBF821B930B08952FB7F894809189
:1028B000300390913103A0913203B09133032FBFC5
:1028C00008950E94551420912903211104C02091DC
:1028D0002A03222321F0909326038093250320913D
:1028E0002B03211104C020912C03222321F090936B
:1028F00024038093230387E293E00E94FF07089557
:1029000090912903662309F480C091110CC0909125
:102910002A03911108C090912C03911104C0909149
:102920002B03992331F098E09093200391E090934A
:1029300021038D3C41F40E943C08819580932A0339
:102940000E94611408958E3C19F40E943C08F6CF51
:102950008F3C31F40E943C08819580932903F0CF8D
:10296000803D19F40E943C08F8CF893D29F40E946B
:102970001A0880932B03E4CF8A3D21F40E941A08A1
:102980008195F7CF8B3D31F40E941A088195809391
:102990002C03D6CF8C3D19F40E941A08F8CF2FE2F1
:1029A000280F2830E8F4815D990B41E050E001C028
:1029B000440F8A95EAF780912803842B809328039B
:1029C00081E090E0AC0102C0440F551F2A95E2F768
:1029D0008091E401842B8093E4010E94F80D089516
:1029E0008D3D31F480912203816080932203A8CF32
:1029F0008E3D21F4809122038260F7CF8F3D09F054
:102A00008AC0809122038460F0CF4FE2480F8D3C52
:102A100041F590912A0397FF2AC010922A038091D2
:102A20002903811106C080912A03811102C01092EE
:102A3000200380912B03811106C080912C0381110A
:102A400002C010922103483008F07ACF81E090E074
:102A500001C0880F4A95EAF780959091E401892397
:102A6000BACF8E3CC9F490912A031916B4F24830BB
:102A700008F03CC0815D990B21E030E0B90102C053
:102A8000660F771F8A95E2F7CB0180959091280316
:102A9000892380932803C3CF8F3C29F497FFE7CF86
:102AA00010922903BCCF803D19F41916CCF3DFCF67
:102AB00090912B03893D29F41916CCF610922B0323
:102AC000AECF8A3D19F497FFD2CFF8CF8B3D39F4C2
:102AD00090912C0397FFCBCF10922C03A0CF8C3D6D
:102AE00031F690912C031916BCF3C1CF8D3D31F412
:102AF000809122038E7F8093220391CF8E3D21F41B
:102B0000809122038D7FF7CF8F3D09F088CF809190
:102B100022038B7FF0CF283008F452CF11CFACE3E3
:102B2000B0E0E5E9F5E10C9446334091E3015091C2
:102B3000E4016091E5017091E6018091E7019091D7
:102B4000E8010E94050D2093E3013093E4014093D6
:102B5000E5015093E6016093E7017093E80186E098
:102B6000E3EEF1E0DE01599601900D928A95E1F7CE
:102B700086E0FE017996DE011D9601900D928A9500
:102B8000E1F786E0FE013D96DE01539601900D923D
:102B90008A95E1F786E0FE017396A3EEB1E001901D
:102BA0000D928A95E1F786E0E3EEF1E0DE019B9677
:102BB00001900D928A95E1F786E0FE01BB96DE0159
:102BC000179601900D928A95E1F786E0FE013796FF
:102BD000DE01119601900D928A95E1F786E0FE01E3
:102BE0003196DE015F9601900D928A95E1F786E0BD
:102BF000FE017F96DE01959601900D928A95E1F790
:102C000086E0FE01B596A3EEB1E001900D928A95A3
:102C1000E1F786E0E3EEF1E0DE01D19601900D925E
:102C20008A95E1F780913901882309F490C0809159
:102C30003E0190913F010E94461420913D012817CA
:102C4000190608F084C080914001909141010E94D2
:102C50004614893C910508F47AC0EAA94CA98DA9CB
:102C60002EA9609145019BA9690F60934501909140
:102C70004601490F4093460190914801290F209346
:102C8000480190914701890F80934701062E000C5F
:102C9000770B77FF03C07195619571096B307105F2
:102CA0000CF049C0042E000C550B57FF03C0519582
:102CB000419551094B305105F4F5022E000C330BB0
:102CC00037FF03C03195219531092B3031059CF533
:102CD000082E000C990B97FF03C0919581959109DF
:102CE0000B974CF581E0E11101C080E08170809389
:102CF00042010E94040910913C02882309F443C058
:102D0000109245011092460110924701109248011D
:102D10000E94551490933F0180933E01109241010F
:102D20001092400180913A01111107C0882379F077
:102D30000E94EB0A0CC081E0D9CF212F30E0082E91
:102D400002C0359527950A94E2F720FFF1CF86E07F
:102D5000E7E2F3E0DE01D79601900D928A95E1F764
:102D60008091E40198AD892B8093E4010E94F80DD5
:102D7000811137C08091E2011092E2018170EC96DE
:102D8000E3E00C94623320913A01111120C021112B
:102D9000DECF80913E0190913F010E944614209128
:102DA0003B0130913C012817390788F680913A01A0
:102DB0000E94C70A10923F0110923E0110924501F5
:102DC000109246011092470110924801C0CF812F06
:102DD00090E002C0959587952A95E2F780FFB7CFDE
:102DE000D8CF81E090E0C8CF9091BB01292F282354
:102DF00061F0809589238093BB01882339F00E947C
:102E000055149093BA018093B901089590E080E041
:102E1000F8CFCF93C091350380916F02C82B80917A
:102E2000BB018823C9F00E9455142091B90130914B
:102E3000BA01821B930B8838934110F00E94EB0972
:102E40008091BB01C82BE6E8F1E097E080E091506B
:102E500031F581110E94EB09C093840148E050E0F4
:102E600061EB71E084E891E00E941434892BA9F0B1
:102E700088E0E4E8F1E0A1EBB1E001900D928A95E1
:102E8000E1F7E0912D03F0912E03309731F00280AD
:102E9000F381E02D84E891E00995CF910895219187
:102EA0002223A9F28F5FD3CFCF93C6E0E6E8F1E00B
:102EB000DF018C2F1D928A95E9F710926F020E9414
:102EC0000917E7E2F3E0DF011D92CA95E9F71092D6
:102ED000200310922103109222030E946114CF91CB
:102EE0000895AAE2B0E0E7E7F7E10C944633E4E4A2
:102EF000F3E08091F100819383E0EC34F807C9F7A7
:102F000080914503833009F47FC008F5813009F4CE
:102F100056C0823009F4C2C08091E80083FFFCC033
:102F200080914403909145039A3008F0F5C0E92F51
:102F3000F0E0E356F84E0C9407345F1885188C18AF
:102F400085188C18DD18FF188C18091A161A8A3083
:102F500009F493C08B3009F474C08930E9F680918C
:102F600044038132C9F68091480390914903009748
:102F700011F0029789F68091E800877F8093E8003E
:102F80008091E80082FF3BC08091F3009091F200B5
:102F9000892798278927029731F48091F1008130A1
:102FA00011F0863021F48091F100809337038091F5
:102FB000E8008B778093E8000E949106ADCF809166
:102FC0004403813A09F0A8CF8091E800877F80937D
:102FD000E8008091480390914903892B61F060E0FB
:102FE00090E080E070E00E943D078091E8008B77E0
:102FF0008093E80091CF68E088E393E0F3CF80917D
:1030000042038111BDCF88CF80914403813A09F0FA
:1030100083CF8091480390914903892B09F07CCF9D
:103020008091E800877F8093E8008091E80080FF2E
:10303000FCCF809151018093F1008091E8008E7760
:10304000B9CF80914403813209F066CF8091480363
:1030500090914903892B09F05FCF8091E800877F29
:103060008093E8000E94910680914603809351016D
:10307000109235030E9454174FCF80914403813240
:1030800009F04ACF8091E800877F8093E8000E9492
:10309000910680914703809336033ECF809144038D
:1030A000813A09F039CF8091E800877F8093E8006A
:1030B0008091E80080FFFCCF80913603BCCF803840
:1030C00089F0823849F5809148038F70873020F568
:1030D0008093E9008091EB0085FB882780F91092AE
:1030E000E90006C0809140039091410391118260F4
:1030F0009091E800977F9093E8008093F100109200
:10310000F1008091E8008E7727C0282F2D7F21F4D1
:103110008823A1F0823029F18091E80083FF0AC062
:103120008091E800877F8093E8008091EB008062C7
:103130008093EB00AA96E3E00C94623380914603FF
:10314000813051F7933009F080E080934103109271
:10315000E9008091E800877F8093E8000E94910653
:10316000DBCF809146038111F2CF809148038F70AD
:103170002FEF280F263080F68093E9002091EB0096
:1031800020FFE5CF933031F48091EB008062809393
:10319000EB00DDCF9091EB0090619093EB0021E08C
:1031A00030E001C0220F8A95EAF72093EA001092DE
:1031B000EA008091EB008860EACF8111ADCF1091D9
:1031C00046031F778091E3008078812B8093E30092
:1031D0008091E800877F8093E8000E9491068091AB
:1031E000E80080FFFCCF8091E30080688093E300DB
:1031F00083E0111101C082E0809342038DCF80589B
:10320000823008F089CF20914603309147032C3D4E
:10321000A3E03A07A1F583E08A838AE289834FB766
:10322000F894DE01139620E03EE051E2E32FF0E057
:1032300050935700E49120FF03C0E295EF703F5F89
:10324000EF708E2F90E0EA30C0F0C7968D939D937B
:103250002F5F243159F74FBF8091E800877F80931B
:10326000E8006AE270E0CE0101960E943D0780917D
:10327000E8008B778093E8004FCFC096E7CF80912E
:10328000480390914903432F55274330510509F4D2
:103290004FC078F54130510509F445C08BE590E009
:1032A000E3E3F5E04230510509F036CF2091E80024
:1032B000277F2093E80020914A0330914B03821727
:1032C000930708F49C0140E02115310509F06EC018
:1032D00041116CC08091E80082FDC9CF809142030A
:1032E000882329F2853019F28091E80083FFF2CF1C
:1032F000BECF4132510509F44AC04232510509F0AE
:103300000BCF8330910508F007CFFC01EE0FFF1FB4
:10331000EA58FE4F0190F081E02D8D589E4FDC0160
:103320008C9190E020C082E190E0EEE8F5E0BECF25
:10333000332721303105D9F078F022303105F9F00A
:103340002330310509F0E8CEE0EAF5E0E4918E2F74
:1033500090E0E0EAF5E007C0E0EEF5E0E4918E2FC2
:1033600090E0E0EEF5E0009709F4D6CE9FCFECECCC
:10337000F5E0E4918E2F90E0ECECF5E0F4CFEEEB8D
:10338000F5E0E4918E2F90E0EEEBF5E0ECCF8330AA
:10339000910508F0C1CE880F991FFC01E458FE4F3B
:1033A0000190F081E02D89E090E080CF8091420390
:1033B000882309F45CCF853009F459CF8091E80067
:1033C00083FD55CF8091E80082FD84CF8091E80095
:1033D00080FF7ACF8091F3009091F200892798279F
:1033E00089272115310519F08830910550F041E009
:1033F000089709F040E08091E8008E778093E8001C
:1034000063CF44914093F1003196215031090196E8
:10341000E8CF803809F080CE8091E800877F8093E4
:10342000E800809143038093F1006BCE811174CE4C
:1034300010914603123008F06FCE8091E800877F2C
:103440008093E800109343030E9491061123D1F06A
:1034500084E08093420342E061EC81E00E94B00688
:1034600042E261EC84E00E94B00642E261EC82E05C
:103470000E94B00642E260EC83E00E94B0068091B8
:1034800042034ACE8091E30087FDE2CF81E0E1CFA5
:103490001F920F920FB60F9211242F933F934F93C9
:1034A0005F936F937F938F939F93AF93BF93CF93CC
:1034B000EF93FF93C091E900CF708091EC001092E0
:1034C000E9008091F000877F8093F00078940E945B
:1034D00071171092E9008091F00088608093F000ED
:1034E000C093E900FF91EF91CF91BF91AF919F9170
:1034F0008F917F916F915F914F913F912F910F909D
:103500000FBE0F901F901895109235030E9454170C
:103510002FEF84E39CE0215080409040E1F700C011
:10352000000088E19CE00FB6F894A89580936000B5
:103530000FBE90936000FFCF882341F0809590915B
:103540006F02892380936F020E94091708958823D0
:1035500039F090916F02892B80936F020E940917B6
:103560000895882321F00E94F6090E940917089502
:10357000882339F090913503892B809335030E947D
:1035800009170895882309F444C0823879F40E9409
:103590000D0881FF3EC089E30E94E6070E940917DB
:1035A00089E30E94DA070E9409170895833859F4C5
:1035B0000E940D0880FF2DC083E50E94E6070E944F
:1035C000091783E5EECF843859F40E940D0882FF75
:1035D00020C087E40E94E6070E94091787E4E1CF34
:1035E0009CEF980F913AE8F290E2980F983050F4DF
:1035F000877091E001C0990F8A95EAF7892F0E94A0
:10360000F609D1CF93E3980F933118F460E00E944C
:1036100080140895CF938823D1F0C82F8238C9F43D
:103620000E940D0881FD13C089E30E94E6070E94F5
:1036300009172FEF87EE93E0215080409040E1F78B
:1036400000C0000089E30E94DA070E940917CF91A9
:1036500008958338A1F40E940D0880FDF8CF83E51A
:103660000E94E6070E9409172FEF81EE94E0215097
:1036700080409040E1F700C0000083E5E4CF84384B
:10368000A1F40E940D0882FDE2CF87E40E94E607C4
:103690000E9409172FEF81EE94E021508040904066
:1036A000E1F700C0000087E4CECF8CEF8C0F813AA9
:1036B00070F4E6E8F1E08CE891E02191C21711F195
:1036C0008E179F07D1F78C2F0E94E607BECF80E2AE
:1036D0008C0F883068F4C77021E030E001C0220F01
:1036E000CA95EAF780913503822B80933503ADCFDD
:1036F00083E38C0F833108F0AACF61E08C2F0E9406
:103700008014A5CF8C2F0E94DA070E940917DBCF07
:103710001F93CF93DF93182FEB010E940A1B209772
:1037200039F4812F0E94C21ADF91CF911F91089521
:103730008FE99FE00197F1F700C000002197EFCFDC
:10374000B0E0A0E0E6EAFBE10C943F33EC018AE054
:10375000A82E2881222309F4CEC0213009F04FC0C1
:1037600089818130A9F48E010E5F1F4F8A8160E547
:1037700070E0893311F065E070E00E94881BE80179
:103780008FE19EE40197F1F700C000002196E1CFA0
:10379000823039F48E010E5F1F4F8A810E940A1B0E
:1037A000EECF833039F48E010E5F1F4F8A810E9465
:1037B000C21AE5CF843011F02196E2CF2A812296F9
:1037C00090E080E0AE014F5F5F4F2053330B2A3013
:1037D000310550F00097A1F2EFE9FFE03197F1F7E2
:1037E00000C000000197F6CFA89EB001A99E700D01
:1037F0001124C901860F971F2981EA01E3CFE22F27
:10380000F0E0EC5EF94FB490822F86958695869510
:1038100090E0FC01EC5FF94FE4902770F12C022E50
:1038200002C0F594E7940A94E2F7E1E0EE22FF2467
:10383000FC01EC50FA4FC490D12C022E02C0D5945A
:10384000C7940A94E2F7F1E0CF22DD24FC01EC51A9
:10385000FA4F049110E002C0159507952A95E2F7FA
:1038600001701127E114F10449F081EE0E940A1B56
:103870008FE19EE40197F1F700C00000C114D1046C
:1038800049F086EE0E940A1BEFE1FEE43197F1F762
:1038900000C0000065E070E08B2D0E94881B8FE166
:1038A0009EE40197F1F700C00000C114D10449F073
:1038B00086EE0E94C21AEFE1FEE43197F1F700C0F4
:1038C0000000E114F10449F081EE0E94C21A8FE178
:1038D0009EE40197F1F700C000000115110509F4FD
:1038E00055CF65E070E08CE20E94881BEFE1FEE4BA
:1038F0003197F1F749CFCDB7DEB7EAE00C945B33EF
:103900009091C50192FF10C098E0899F9001112409
:10391000622B6093E9010E94EB0A0E945514909378
:10392000B0018093AF0108950E94EB0A0895AEE1C3
:10393000B0E0EDE9FCE10C9437334B8B5C8B6D8B85
:103940007E8B8F8B988F911110926F02188A198A33
:103950001A8A86E0FE017396DE011A9601900D9296
:103960008A95E1F78091C50182FF24C00E94551419
:103970002091AF013091B001821B930B88389341A5
:1039800058F18091E90182FB882780F991E089272D
:1039900080FF03C082E00E94D40A0E945514209147
:1039A000B9013091BA01821B930B8838934110F012
:1039B0000E94EB098E85811111C00A851B852C851B
:1039C0003D854E855F85688979898A890E9485262B
:1039D0006E96E2E10C94533380E0DACF61E0CE01E1
:1039E0000A960E9471106C018F8540E5C4164CE761
:1039F000D40651F48823F1F081E08093500181E0F6
:103A000090E080FDDACFE4CF61E5C6166CE7D6061C
:103A100029F4882379F00E944927F1CF72E5C7166F
:103A20007CE7D70639F4882329F080915001882358
:103A300019F3F1CF81E7E82E82E0F82E512CB12C5A
:103A4000A12C88248394912CCE0101969A8F898F82
:103A500044244394F7014081518166246A94762C72
:103A600020E0822F90E0FC01EE0FFF1FE40FF51F16
:103A7000608171816115710539F0C616D70609F0AC
:103A8000C3012F5F3C01EDCF10E0FFEF6F167F0603
:103A900009F443C0F701448110915001812F411175
:103AA00080E0182F1170F701358086819F8599235A
:103AB00009F4F5C0112309F4F2C0311014C0A401B7
:103AC000062C01C0440F0A94EAF7842B8683809168
:103AD0006D0290916E02C29730F462E370E07093D1
:103AE0006E0260936D02C40102C0880F991F2A956F
:103AF000E2F70197F70126812817190671F48091E2
:103B00001C0390911D03009709F44AC00E944614BB
:103B1000C39708F445C0F7014482512AFFEFAF1A5A
:103B2000BF0A27E0E20EF11C38E0A316B10409F049
:103B300091CF8F85882309F412C1552009F40FC154
:103B40000E94551490931D0380931C038091A90239
:103B5000883010F591E0980F9093A90299E0FE014A
:103B60003A96DE01119601900D929A95E1F74DE09B
:103B7000849FC001112486559D4F29E0FE01319696
:103B8000DC0101900D922A95E1F72FEF3FEFFC0148
:103B900032872187D486C38681E05826852D31CF90
:103BA00080911A0350911B03982FF0E0E0E08513F9
:103BB00014C090931A03EE15FF0509F4AECF90E000
:103BC000FC01EE0FFF1FEE5EFC4FB182A08201965A
:103BD0008370992780931B03A0CF682E712CF3016B
:103BE000EE0FFF1FEE5EFC4F20813181F7E0F29F68
:103BF000D001F39FB00D1124AF58BD4F2D913C91D2
:103C000011973E8F2D8F40E020E030E0E32FF0E071
:103C1000EE0FFF1F6D8D7E8DE60FF71F2080318028
:103C200021143104E1F0F7010190F081E02DFC8FC7
:103C3000EB8F20E005C02616370609F4412F2F5FD1
:103C4000E22FF0E0EE0FFF1F6B8D7C8DE60FF71F6C
:103C5000608171816115710571F73F5FD7CF442392
:103C6000D9F0FD01231708F4F7014482EE16FF0690
:103C700021F490931A03142F50CF981307C0AE1756
:103C8000BF0721F4C3010196982F937093012F5F12
:103C90003F4F822F83708BCFF0E0E0E0F7CF90E0D2
:103CA000311020C0B40102C0660F771F2A95E2F7D9
:103CB0009B01215031092817390731F4442309F4B5
:103CC0004CC0C5010E946A08C401062C01C0880FBF
:103CD0000A94EAF7982F9095F701868189238683C5
:103CE000132D1BCFAC01062C02C0559547950A94A5
:103CF000E2F7BA01617077279C01215031098223D4
:103D00009323892B31F5672B21F1F7018281938170
:103D1000892BE1F0E98DFA8D27E011922A95E9F7D8
:103D20000E945514282F8B839C8334E03D83F70138
:103D300082819381782F8887998709811A813C81B4
:103D400044E05E816F81892F0E948526F7011582EC
:103D5000BBCFF42FF1703F2EB7CF312EB5CF90915E
:103D60001A0380911B03981719F00E94582714CF4B
:103D70000E94F02610921D0310921C030E949808C6
:103D80000BCFA6E0B0E0E7ECFEE10C9445338C01EC
:103D90009093EB018093EA01011580E21807C0F4CB
:103DA000802F0E94C21AC8010E940D0B9801205E4C
:103DB00031092830310518F00115110531F40E9440
:103DC000B11A2696E4E00C9461330E949C1AF9CF54
:103DD00080EF89838A830E9455148160682F9C83B9
:103DE0008B8349815A817C8181E090E00E94971CFD
:103DF000E8CFA6E0B0E0EFEFFEE10C9445338C0194
:103E00009093EB018093EA01011580E21807C0F45A
:103E1000C8010E940D0B9801205E31092830310540
:103E200018F00115110549F40E94B81A802F0E945C
:103E30000A1B2696E4E00C9461330E94A71AF6CF81
:103E400080EF89838A830E9455148160682F9C8348
:103E50008B8349815A817C8181E091E00E94971C8B
:103E6000E8CFA4E0B0E0E7E3FFE10C943E33DC01EF
:103E700014962C91222309F4A3C26C0161E00E94E4
:103E800071108C01F601F580FF2009F4B8C0975736
:103E90008038910508F0B3C0F02EFFE0F01708F469
:103EA00080C28FEF93E00E94873381117AC209ECC0
:103EB00011E0F11036C019821A821B821C829924EB
:103EC0009A9478014FEFE41AF40AC8010E948733EC
:103ED00089831A82882309F464C2813009F089C079
:103EE000580152E0A50EB11CC7010E948733E82E8D
:103EF0008A83882309F455C2C5010E948733F82EAE
:103F00008FEF8E0D8330D8F4580183E0A80EB11CDA
:103F1000FB82FF2021F0CE0101960E94A01B8501AB
:103F2000D0CF011524E0120709F43BC2C8010E945A
:103F30008733811101C0FA940F5F1F4FBACF8BEF07
:103F40008E0D833070F5C8010396FB825C01FF2063
:103F500031F35801A4E0AA0EB11C0E9487338C8370
:103F60008823E9F20B811C810130BFEF1B0710F0A1
:103F7000102F0027E6E0EE1681F0F7E0EF1649F08B
:103F8000C8010E94F91E8FE19EE40197F1F700C07D
:103F90000000C8010E94C11EC2CFC8010E94F91EC4
:103FA000BECF94E0E912BBCF5801A4E0AA0EB11C29
:103FB000C80103960E948733FF2009F4F2C18823C9
:103FC00009F4EFC18150990B989E9001999E300D94
:103FD0001124EF2DE150FF0BCF01820F931F0197AA
:103FE00008F49DCFAFE9BFE01197F1F700C00000E2
:103FF000F6CFCE0101960E94A01B570190CF809171
:104000003901882309F468C00032E2E51E0708F090
:104010004FC00115F2E51F0708F0C7C0011520E4E5
:104020001207C8F5011540E2140708F0EAC0003E87
:10403000110548F0083E110508F449C0011551E08A
:10404000150708F044C0F6018481882309F43FC0B5
:104050000730FEE71F0709F4BFC0C8018D5C910956
:10406000439708F4B9C00E940409811130C0FF20B1
:1040700059F080913A0120913C022111C9C0882356
:1040800009F4CFC00E94D20D0E94551490934101B3
:10409000809340011CC0011580E5180708F0A0C0FE
:1040A000F6018681807F09F0ACC0812F99279EC0E0
:1040B000003892E5190708F050C00036A2E51A074B
:1040C00008F073C00034B2E51B0708F47CC080918F
:1040D000440187FD1092440110931F0100931E01BB
:1040E000D6018D919C91119790932101809320018D
:1040F000F8013497E533F105A8F4E55AFE4FE49151
:1041000015968C9120EB882311F02E2FE0EBA8E27E
:10411000B1E090E080E03D913E1386C0875F9E4F06
:10412000FC01278FD60115968C9198013A9521159F
:104130003F4108F07FC0882309F4E6C307372CE726
:10414000120709F491C108374CE7140709F079C048
:10415000882309F4E3C382E08AC1003CE2E51E073C
:1041600008F4B5CF003EF2E51F0708F06CCF2091B0
:104170003A01C8018F7199272817190609F0A7CFAE
:104180008F2D0E94ED08D60116968C911697807F90
:10419000803509F09CCF15968C91882361F1809130
:1041A000440181508093440192CF20913A01C8018B
:1041B0008F7199272817190609F089CFF11087CF39
:1041C0000E94FB0884CF20913A01C8018F71992782
:1041D0002817190609F07BCF8F2D0E94ED0877CFA5
:1041E000C80145E0969587954A95E1F78F70992724
:1041F00020913A01EDCF0E94FB08809144018F5F2E
:10420000D1CFD60116968C91807F09F460CF1BCF59
:1042100030E0082E02C0359527950A94E2F720FF7A
:1042200031CF0E94C70A2ECF01968630910509F042
:1042300072CF78CF0730EEE71E0709F066C00E9404
:104240003E0BD60115968C91882381F00330BCE794
:104250001B0709F435C108F016C10115FCE71F075B
:1042600009F41FC101301C4709F430C1D60117966B
:104270008D919C91009709F437C10E9420098C010F
:10428000D6011596BC9015971696EC90E2942FE007
:10429000E2228091E901877001F1AB2CBB20F1F0A3
:1042A000812F807F803461F080E2800F8830A8F019
:1042B000812F807E803221F4023078F0EE2069F088
:1042C0008091C50182FF09C082E00E94D40A8091DA
:1042D000E9018770AA24A3948111A12CE12FE29512
:1042E000EF70EC3008F077C1F0E0E758FE4D0C9429
:1042F00007348C228C22C522C522EB227723EB22A5
:10430000EB227C23E623F723F723882309F4FCC25E
:10431000F801FE57E031F10508F010CFEE56FE4DE2
:104320000C940734A221AF21E421E821EA21EC21F9
:10433000EE219E20F521042214221B2228220F2286
:104340000B22122280E00E94DC0C10921C0180E003
:104350000E94EF0D8AE892E00E94E10D22C0409198
:10436000150120911C0120FB47F9269523708091AF
:10437000390180FB22F980913B0190913C0162E37D
:1043800070E00E9423335FEF560F550F550F550F06
:10439000522B60911D01637070E08FE090E00E94ED
:1043A000BD338091E901877059F0F601858188233A
:1043B00039F08091C50182FF03C082E00E94D40AD7
:1043C0002496EBE00C945A3381E00E94F10CE9CF83
:1043D0008FEFFBCF8AE0F9CF86EFF7CF90911701EF
:1043E00081E089270E943E0BDCCF80911C01811166
:1043F00001C084E08F5F18160CF081E0883008F06F
:1044000087E080931C01CDCF80911C01811101C0F8
:1044100084E08150F0CF81E080931D01C2CF1092E3
:104420001D01BFCF82E0F8CF9091390181E089274B
:104430000E94EF0DB6CF80913B0190913C01C29656
:10444000893EF3E09F0708F487CF88EE93E084CF9E
:1044500080913B0190913C01C2978436910508F010
:104460007BCF84E690E078CF882349F081E00E94FA
:10447000EB0A43E062E081E00E94A70A92CF81E06C
:104480000E94C70AF6CF0B354CE7140759F10C35DB
:104490005CE71507E9F00A351C4709F0E7CE81E033
:1044A0001EC0109235030E9454179FEFA4E3BCE096
:1044B0009150A040B040E1F700C000000E947D0C88
:1044C0006FEF7FEF90E080E00E94C9330E94841A72
:1044D0008091C50182FB882780F991E089270E949D
:1044E000E212C4CE80E0FBCFF6018581008111810C
:1044F000882369F0C8010E940C10F82E682FC801AB
:104500000E94880AB8018F2D0E94DE0FB6CEC80126
:104510000E94400AF82EF6CFB12FBF70FB2E107FFD
:1045200019F0F29490EFF922BB20B9F0FF2069F066
:1045300080E2800F883010F0011109C080913503AE
:10454000F82AF09235030E940917802F42C080910B
:104550006F02F82AF0926F02F6CF802F0E94C21AE3
:10456000FF20C9F180E2800F883010F0011104C0F3
:104570008F2D0E94F60906C0F09480916F02F822F8
:10458000F0926F020E94091726C0E12FEF70FE2EF5
:10459000107F103219F0F29480EFF822002349F0D6
:1045A000013009F47FC0BB2009F48BC0EE20D1F1AB
:1045B000CCCF8091C50182FD31C0BB2049F1FF20E5
:1045C00039F080913503F82AF09235030E940917DB
:1045D00080E00E940A1BAA20B1F08091E90180FDD1
:1045E00012C0D60115961C928695869586950E94D6
:1045F000EB0AC6010E94311F8091E90186958695DC
:1046000086950E94C70A60E0C6010E947110D8CE4C
:1046100080E00E94C21AFF20F1F2AACFBB2069F10C
:10462000E11004C08F2D0E94B81AD5CFF1E0EF122F
:1046300010C01091BB018F2D8123F81661F20E94EA
:1046400055149093BA018093B901F12AF092BB01FD
:10465000C2CF25E0E212BFCF8F2D0E94B81A8F2D56
:104660000E94F4168091AE019F2D9823F91609F44B
:10467000B2CFF82AF092AE01AECFE1100AC08F2D72
:104680000E94B11A8F2D0E94F4168F2D0E94050AE8
:10469000A2CF41E0E4129FCF809135038F2109F42E
:1046A0009ACFEDCFBB2029F055E05E1508F493CFEB
:1046B000B9CF84E08E1508F48ECF8F2D0E94B11AE9
:1046C0008ACFEE20D1F3093369F49FEFA7EEB3E070
:1046D0009150A040B040E1F700C00000802F0E9440
:1046E000C21A79CFEFE1FEE43197F1F7F5CF6B2DE8
:1046F000802F0E9480146FCF812F837091F5B110AD
:1047000025C0402F429546954770440F440F802F97
:104710008F70042E01C0880F0A94EAF720E004FF8E
:1047200007C02FE030E001C0220F4A95EAF720953C
:10473000169516951370123079F060F43091C3011C
:10474000113039F0822B83230E94F70A0E940D0852
:1047500042CF832B822BF8CF282B8091C301822755
:10476000F3CF8695BB2011F0812F8170882371F3E0
:10477000402F429546954770440F440F802F8F700D
:10478000042E01C0880F0A94EAF720E004FF07C056
:104790002FE030E001C0220F4A95EAF720951695E8
:1047A00016951370123069F050F430913C021130BC
:1047B00029F0822B83230E94A40AC8CF832B822B4B
:1047C000FACF282B80913C028227F5CF1F70BB20A7
:1047D00039F0812F0E94EB0A802F0E94B81AB6CFC1
:1047E000802F0E94B11A812F0E94C70AAFCF023FCB
:1047F00099F170F4003FC9F0013F91F0BB2009F43A
:104800006AC0EE2009F464C0802F0E940A1B9ECF6C
:10481000033F49F1043F91F78091C50182FD2FC00C
:10482000812F8F71BB2001F31BC0BB2081F0F4E00E
:10483000FE1508F48BCF1F7181E090E0012E01C0BE
:10484000880F0A94EAF790913C028927B4CF25E0BB
:104850002E1508F47BCFEFCF812F8F71B110C4CF0D
:104860000E94EB0A73CF80E0BB2009F4A4CF1F7134
:1048700081E0012E01C0880F0A94EAF79CCFBB208B
:10488000D1F08091E9018770843049F40E94FE09DB
:10489000812F8F710E94C70A0E940D08B4CE44E098
:1048A0004E15D0F31F71812F0E94EB0A63E0812F18
:1048B0000E94801CF1CF54E05E1530F40E94FE0986
:1048C00064E0812F8F71F4CF81E00E94D40AE4CF9D
:1048D000812F8F71C5CFEE20A1F0093369F48FEFDE
:1048E00097EEA3E081509040A040E1F700C00000A7
:1048F000802F0E94C21A2ACFEFE1FEE43197F1F730
:10490000F5CF812F8F7170CF0737BCE71B0709F4F4
:10491000B6CD0837ECE71E0709F093CC82E0B0CDA6
:10492000CF93DF938091AB01807F09F04DC08091E0
:10493000AA01882309F448C0E091950350914C03E3
:10494000C091A601D091A5016091A7017091A80125
:1049500049E05E17C9F18E2F90E0E49FF001112429
:10496000E35BFC4F2481222391F1489FF001499F92
:10497000F00D1124DF01A35BBC4F11962C91119710
:104980002C1325C02C912D1322C015962C91159710
:1049900021111DC012962D913C91261B370B283CEE
:1049A0003105A8F48091AB018F7080618093AB01D9
:1049B000ED5AFC4F80818F708061808385EA91E0A1
:1049C0000E94311F0E940F0ADF91CF910895FC01D0
:1049D0003196E770BECFA8E1B0E0E1EFF4E20C94CD
:1049E0003D338C0186E0F801DE01539601900D9273
:1049F0008A95E1F7F8018481E58095EAA92E91E096
:104A0000B92E9091A901911128C0882319F1EE20A7
:104A1000F1F0C8010E944810F82E8823C1F089E007
:104A2000F801D50101900D928A95E1F78091A901D5
:104A3000813031F48091A5019091A6010E943B1034
:104A40000E9490248F2D6896ECE00C945933C80195
:104A50000E94311FFF24F394F5CFD080C180828063
:104A60009380F090AA012091A7013091A801A401A0
:104A7000421B530BFF2009F40CC1483C510508F0C0
:104A8000B5C08823F9F29091A6018091AB01282F3F
:104A9000207F09F05EC0C9121DC09091A501D912F6
:104AA00019C04091AC015091AD012781308542176A
:104AB000530781F4E11047C08F7080618093AB0190
:104AC00085EA91E00E94311F8091AB01F801868355
:104AD000F12CB8CFE11037C06C2D8D2D0E9424062B
:104AE0006C2D8D2D0E942406E82E8111F1CFDB8ADA
:104AF000CC8A8B899C890E943B10292F22952F708C
:104B0000243058F49F70223080F0992391F0F801FE
:104B10009681907F71F4FE2C95CF2A50223068F058
:104B2000C8010E94311FEF2CF6CF992311F0882382
:104B300091F3805E8830A0F7EECF803F60F3815F15
:104B4000833070F7E8CF8091AB0181608093AB0137
:104B5000BFCFC9121CC09091A501D91218C04091B5
:104B6000AC015091AD01278130854217530779F48C
:104B7000E1100DC08683C8010E94311F89E0F80151
:104B8000A5EAB1E001900D928A95E1F75BCFC801EB
:104B90000E944810882309F45ACFEE2009F457CF19
:104BA0008091AB018032B8F02091A5013091A6012F
:104BB0003B872A879D868C869091A9019E871F86B8
:104BC000888B8091AC019091AD019A8B898BCE013D
:104BD0000A960E94311F89E0F801A5EAB1E0019030
:104BE0000D928A95E1F70E94902434CF9091AB0109
:104BF000292F207F51F485EA91E00E94311F89E03E
:104C0000F50111928A95E9F763CF882309F41ACF49
:104C10008091A6018C1119C08091A501D81215C0F0
:104C20004091AC015091AD01278130854217530767
:104C300061F4E1100AC09683C8010E94311F89E027
:104C4000F50111928A95E9F7FDCEC8010E9448103E
:104C5000882309F4FCCEEE2009F4F9CE8091AB0153
:104C6000803208F4B8CF2091A5013091A6013A8393
:104C700029839C828B829091A9019D831E828F83C0
:104C80008091AC019091AD0199878887CE01019602
:104C9000A0CF483C510598F6882309F4DBCEFE2CC2
:104CA000EE2009F4D4CE8091A6018C1120C0809111
:104CB000A501D8121CC02091AC013091AD018781B3
:104CC00090852817390799F49091AB0190FD56CF44
:104CD000907F09F453CF8091AB018683903F09F414
:104CE0004ACF982F907F905F8F70892B43CFC80158
:104CF0000E94481081116FCF8091AB018160809339
:104D0000AB01C8010E94311F9DCEA2E1B0E0EBE8EB
:104D1000F6E20C9445330A871B872C873D874E8724
:104D20005F87688B798B8A8BCE010A960E94EB2471
:104D300081112AC089E0FE013A96DE0111960190A8
:104D40000D928A95E1F78E858823F1F020914C032E
:104D500030E0C90101968770992740919503481763
:104D6000190659F199E0929FD001939FB00D11243B
:104D7000A35BBC4FFE01319601900D929A95E1F72D
:104D800080934C030E940F0A19E080919503909143
:104D90004C03891709F1819FC0011124835B9C4F4B
:104DA0000E94EB248823C1F08091950390E0019646
:104DB0008770992780939503E8CF109235030E945E
:104DC000541710924C031092950389E0E5EAF1E044
:104DD000DF011D928A95E9F76296E4E00C94613355
:104DE000B0E0A0E0E6EFF6E20C9440338091A90237
:104DF000882369F0C0917002C12C8DE0D82E80917B
:104E0000A902C81748F01092A90210927002CDB7FB
:104E1000DEB7E9E00C945C33BB24B394BC0EB092D3
:104E20007002EC2EF12CCD9DE0011124C655DD4F12
:104E30008C81882361F18F819885892B21F4898564
:104E40009A85019659F4088119812A813B814C8108
:104E50005D816E817F8188850E948526DE9CF001C0
:104E6000DF9CF00D1124E655FD4F148210926F0265
:104E7000C1100DC0CE010E944810811108C08FE101
:104E80009EE40197F1F700C00000CC24C394CB2D21
:104E9000B6CF10921D0310921C0310925001809106
:104EA0001B0380931A030E9498080E94F02608951D
:104EB000B0E0A0E0EEE5F7E20C943833C0911A03BD
:104EC00097E0992E01E010E02DE0322E34E0432EE1
:104ED0005524539480911B038C1309C00E94F02623
:104EE0000E949808CDB7DEB7E1E10C945433D0E0CE
:104EF000FE01EE0FFF1FEE5EFC4F80819181989EB8
:104F0000D001999EB00D1124AF58BD4F14962C912D
:104F10001497211159C06090A902EAEAF2E030E04A
:104F200020E0812C5D01261508F04CC0E384F48458
:104F3000D501CD90DC906FEF7FEF712C472D50E0C5
:104F4000DA01AA0FBB1FAC0DBD1D0D90BC91A02DA9
:104F5000109731F0EA16FB0609F4BA017394EECF0C
:104F60006F3F7607A9F1D80102C0AA0FBB1F6A954F
:104F7000E2F78A2AB801072C02C0660F771F0A944D
:104F8000E2F7AB01415051098416150601F5329E36
:104F9000F001339EF00D1124E655FD4F989ED0018F
:104FA000999EB00D1124AF58BD4F12962D913C9192
:104FB00013973087278344821082118292878187DA
:104FC00015965C920E946A082196C37083CF148262
:104FD0002F5F3F4F3D96A7CFA6E0B0E0E2EFF7E2AC
:104FE0000C9445330E9455148C018091BC01909122
:104FF000BD018017910781F019821A820E94551411
:10500000682F49815A81792F80E090E00E94971C97
:105010001093BD010093BC012696E4E00C9461332B
:10502000A5E0B0E0E6E1F8E20C943933CE01019658
:105030007C0185E0D7011D928A95E9F73701570178
:1050400090E0C92E91E0D92E44244394512CF601CE
:1050500081916F010E94F50B00C085E0882E81E0F0
:10506000982EF40110E000E02191A22FA295AF70DC
:10507000B0E090968C9190E02F7002C09595879546
:105080002A95E2F780FD0AC0D5018C919201002E8D
:1050900001C0220F0A94EAF7822B8C930F5F1F4FF7
:1050A0000430110509F7F601319780810E940A0C3E
:1050B000B0EABA95F1F7EFEFAE1ABE0AF5E0CF16F7
:1050C000F1E0DF0621F6DD24D394D4018D914D016A
:1050D0000E94F50B00C03D2D002E01C0330F0A9435
:1050E000EAF7F70140E051E0DA012D91AD01822F9E
:1050F00082958F7090E0DC0190968C9190E02F70FB
:1051000002C0959587952A95E2F780FD03C08081BE
:10511000832B80833196B1E045305B0729F7F4019A
:10512000319780810E940A0CE0EAEA95F1F70F5F5F
:105130001F4F0830110549F6EEEBF1E085E0E80E6F
:10514000F11C10E0D3018D913D019191891721F05F
:10515000DF0111978C9311E0E614F70499F71123FE
:1051600071F081E080938E010E94551490938D011F
:1051700080938C01812F2596E0E10C94553380912A
:105180008E018823B9F380918C0190918D010E944A
:105190004614059778F345E050E06EEB71E085ED3D
:1051A00091E00E941434892B49F085E0EEEBF1E0A8
:1051B000A5EDB1E001900D928A95E1F710928E0174
:1051C000D9CF1F920F920FB60F9211248F939F93F6
:1051D000AF93BF9380912F03811113C0809130034F
:1051E00090913103A0913203B09133034196A11DF8
:1051F000B11D8093300390933103A0933203B09399
:105200003303BF91AF919F918F910F900FBE0F907D
:105210001F901895ACE3B0E0E0E1F9E20C9437336D
:1052200085B7806885BF85B7806885BF84B7877F6D
:1052300084BF0FB6F894A895809160008861809330
:105240006000109260000FBE80E890E00FB6F89406
:1052500080936100909361000FBE8EE199E090937E
:105260008301809382010E949E120E9443060E9445
:10527000E2068091E20084608093E200789480915D
:105280004203882399F01091E9001F708091EC008F
:1052900080FFFAC080E8182B1092E9008091E800A6
:1052A00083FD0E9471171F701093E90082E084BD96
:1052B00093E095BD9AEF97BD80936E000E94630FB7
:1052C000811102C00E941011E5E6F2E088E0DF01E2
:1052D0001D928A95E9F781E08093CE0160E080E03D
:1052E0000E94B60861E080E00E94B608EFE8F1E0B5
:1052F0003197F1F700C0000010E08091CE0118173F
:1053000008F4C4C0809105010E940A0C8091060136
:105310000E940A0C809107010E940A0C80910801EA
:105320000E940A0C00E011E085E0E82E81E0F82EF2
:10533000D8018D918D010E940A0CE016F106C1F78B
:105340001092BE011092D5011092BF011092D601A9
:105350001092C0011092D7011092C1011092D80191
:105360001092C2011092D9010E94F912811168C0F5
:1053700066EE7EEF90E080E00E94C93360E082E05C
:1053800090E00E94AB3381E08093C30161E083E051
:1053900090E00E94AB3360E074E184E090E00E9412
:1053A000C93360E086E090E00E94AB3360E087E0C4
:1053B00090E00E94AB3340E050E0BA0188E090E01A
:1053C0000E94BD3360E084E290E00E94AB3360E075
:1053D00087E190E00E94AB3360E08CE090E00E94B7
:1053E000AB3360E08DE090E00E94AB3319821A820B
:1053F0001B821C821D821E821F82188648E050E09C
:1054000068E170E0CE0101960E949B3340E050E0DD
:10541000BA0180E290E00E94BD3380E00E94E80E75
:105420000E94101140E050E0BA018FE090E00E942D
:10543000BD3340E050E0BA0183E190E00E94BD330B
:1054400082E090E00E9487338093C60184E090E080
:105450000E9495339093C5018093C4010E94102847
:10546000EFE3FCE93197F1F700C000000E9410283B
:105470008091D50180FF1CC06FEF7FEF90E080E04E
:105480000E94C9330E947D0C80E005CF60E0812F2F
:105490000E94A908082F61E0812F0E94A908E12F2E
:1054A000F0E0E353FE4F880F802B80831F5F25CFF2
:1054B00083E090E00E9487330E94F70A83E08093A4
:1054C0005D0280E2809396030E941B326BE070E0E5
:1054D00087EA91E00E9420118823E9F180915D0222
:1054E00065E070E081FDC6C082EA91E00E94201173
:1054F000882389F16DE070E080E991E00E9420113D
:10550000882349F10E94A107605A75418F4F9F4F30
:1055100060935F02709360028093610290936202D5
:10552000E9E9F3E080E092E0DF019C011D92215067
:105530003040E1F7F093A005E0939F058FEF9FEFD8
:10554000909398038093970381E080936402809303
:10555000630210925E020E9405130E94F9128823D2
:1055600079F18FE090E00E948F338B01F82E862F27
:105570008F770E94DC0C001F0027001F612F6370D3
:10558000660F602B60931C0112FB882780F90E9434
:10559000EF0D812F887F09F470C01695169516952A
:1055A000212F30E02F5F3F4F42E3429FC001439FD6
:1055B000900D11240E94E10D8F2D837080931D01A9
:1055C0008FE291E090932E0380932D03B6E02B2E73
:1055D000312C8091420300E112E1853009F48CC046
:1055E0000E94102807EC11E0A5EDEA2EA1E0FA2EAA
:1055F000D701F80191918D9131E0EC3CF30709F46A
:1056000087C09817B9F3D12C88248394D701CD9003
:105610007D01F80191908F019C1419F1B12CAA24FD
:10562000A3949C24892D8A21A1F0BFAAD8AE0E9400
:1056300055149AAF89AF8BAE91E08C2D8A2109F475
:1056400090E09CAF4FA958AD69AD7AAD8BAD0E948B
:10565000971CB394AA0CF8E0BF12E4CFF80131977D
:10566000C082D39425E0D212D1CF0E94A107EE24AC
:10567000E39453C08DE991E039CF8AE892E09ACF64
:1056800080914203843041F10E942D110E948F15B8
:1056900010922F0388E190E0A0E40FB6F894A8954B
:1056A000809360000FBEA093600083B7817F846009
:1056B00083BF83B7816083BF7894889583B78E7FDB
:1056C00083BF0FB6F894A89580916000886180939D
:1056D0006000109260000FBE80914103882361F04A
:1056E0000E941028E5EDF1E08191811143C52AED7A
:1056F00031E02E173F07C1F780914203853009F44E
:10570000BFCF109235030E9454170E940D0868CF36
:10571000981379CF0E94EC27E12C809150018823C7
:10572000F9F080911C0390911D030097C9F00E942D
:10573000461420916D0230916E022817390780F4CB
:1057400090911A0380911B039817D1F00E9458275B
:1057500010926E0210926D0210921D0310921C03A3
:105760008091CF01882351F01092CF018091670280
:10577000809368028091650280936602F12C42C09A
:105780000E94F02610921D0310921C030E9498089C
:10579000E7CF61E08F2D0E94A908182F60E08F2DC0
:1057A0000E94A908E12FEE0F8E2B0F2D10E0D801DB
:1057B000A353BE4FEC919E2F9370891711F1EE0FFA
:1057C000EE0FE82BEC93EF70F0E0E55AFE4F045338
:1057D0001E4F8081D801DC90D80EDC92B5E060E0ED
:1057E000BD1524F0EBEFDE1624F461E08F2D0E944E
:1057F000C9088D2DDD0C990BB1010E94F333D8013E
:105800008C93F3948091CE01F81618F210E06CEFAF
:10581000F62E73E0D72ECC24C394EDEFBE2EF2E02B
:10582000AF2E8091680290916702981709F4BAC46C
:10583000E82FF0E0E759FD4F108117FB002700F932
:105840001F778F5F837080936802809166028F5FFD
:1058500080936602011108C00E9455141BA7FCA684
:105860009EA78DA7DFA607C00E9455141BA7BCA644
:105870009EA78DA7AFA6C8AA4BA55CA56DA57EA5C2
:105880008FA598A90E94971CEFE1FEE43197F1F7EC
:1058900000C000000023C1F00E94551419ABBAAA41
:1058A0009CAB8BABADAA1EAA49A95AA96BA97CA92E
:1058B0008DA99EA90E94971C8FE19EE40197F1F7A4
:1058C00000C0000011E0ADCF0E94551419ABFAAA38
:1058D0009CAB8BABDDAAE7CF0E947011E11070C4C6
:1058E00086E0E7E2F3E08E010F5F1F4FD8010190E1
:1058F0000D928A95E1F71092290310922A031092D3
:105900002B0310922C038B81811104C08C8188237E
:1059100009F447C080912503909126030E94461404
:105920009C0190912003992309F455C42531310538
:10593000C0F19F3F19F09F5F90932003FB80FF20F1
:1059400059F00E943C0891E01F140CF09FEF899FD2
:10595000802D112480932903FC80FF2059F00E94A0
:105960003C0891E01F140CF09FEF899F802D1124BB
:1059700080932A0380912903882399F0F0902A03C9
:10598000FF2079F00E945C08882309F4D3C080933B
:1059900029038F2D0E945C08882309F4CDC08093D1
:1059A0002A038D81811104C08E81882309F447C0A8
:1059B00080912303909124030E9446149C019091AE
:1059C0002103992309F40CC421353105C0F19F3F0F
:1059D00019F09F5F90932103FD80FF2059F00E94F2
:1059E0001A0891E01F140CF09FEF899F802D11245D
:1059F00080932B03FE80FF2059F00E941A0891E04B
:105A00001F140CF09FEF899F802D112480932C038D
:105A100080912B03882399F0F0902C03FF2079F0DC
:105A20000E945C08882309F489C080932B038F2D82
:105A30000E945C08882309F483C080932C03B8017A
:105A400087E293E00E94AD07811113C08091290382
:105A5000811178C080912A03811174C080912B0339
:105A6000811170C081E090912C03911101C080E000
:105A700080FD0E94611486E0F801A7E2B3E0019086
:105A80000D928A95E1F70E940D089091D001891737
:105A900021F08093D0010E94A107809142038430BD
:105AA00009F097CD83E08093E9008091E80082FFC0
:105AB00090CD8091E80090E085FF0AC00E946206C8
:105AC00050E2E52EF12C6801882309F447C091E0EB
:105AD0008091E8008B778093E800992309F479CDD1
